:10000000E03C002081320000A5B90000553200001C
:1000100055320000553200005532000055320000C4
:100020000000000000000000000000002D2B000078
:100030005532000000000000C52A000055320000C3
:10004000B92B0000B92B0000B92B0000B92B000020
:10005000B92B0000B92B0000B92B0000B92B000010
:10006000B92B0000B92B0000B92B0000B92B000000
:10007000B92B0000B92B0000B92B0000B92B0000F0
:10008000B92B0000B92B0000B92B0000B92B0000E0
:10009000B92B0000B92B0000B92B0000B92B0000D0
:1000A000B92B0000B92B0000B92B0000B92B0000C0
:1000B000B92B0000B92B0000B92B0000B92B0000B0
:1000C000B92B0000B92B0000B92B0000B92B0000A0
:1000D000B92B0000B92B0000B92B0000B92B000090
:1000E000B92B0000B92B0000B92B0000B92B000080
:1000F000B92B0000B92B0000B92B0000B92B000070
:10010000B92B0000B92B0000B92B0000B92B00005F
:10011000B92B0000B92B0000B92B0000B92B00004F
:10012000B92B0000B92B0000B92B0000B92B00003F
:10013000B92B0000B92B0000B92B0000B92B00002F
:10014000B92B0000B92B0000B92B0000B92B00001F
:04015000B92B0000C7
:1001540053B94AB9002908BF00281CBF4FF0FF312A
:100164004FF0FF3000F00CB8ADF1080C6DE904CE8F
:1001740000F008F8DDF804E0DDE9022304B070477C
:10018400704700BF2DE9F04786468C460846089E16
:10019400154674461946002B40F0C1808542B2FAD8
:1001A40082F245D94AB1C2F1200300FA02FC95401B
:1001B40094402EFA03F343EA0C0C4FEA154EA8B20E
:1001C400230CBCFBFEF80EFB18CC08FB00F943EA39
:1001D4000C43994528D9EB1808F1FF3704D2994507
:1001E40002D9A8F102072B44A3EB0903A4B2B3FB81
:1001F400FEFC0EFB1C330CFB00F044EA0344A0425B
:1002040014D92C190CF1FF3304D2A04202D9ACF159
:1002140002032C44241A43EA07401EB1D4400023AD
:1002240034607360BDE8F0874746DDE76346F1E775
:1002340092BB431B01214FEA154EAFB2200CB3FB16
:10024400FEFC0EFB1C330CFB07F840EA0343984505
:1002540061D9EB180CF1FF3004D2984502D9ACF106
:1002640002002B44A3EB0803A4B2B3FBFEFC0EFB79
:100274001C330CFB07F744EA0344A7424DD92C195D
:100284000CF1FF3304D2A74202D9ACF102032C448F
:10029400E41B43EA0040C0E7C2F1200395409440C8
:1002A40020FA03F12EFA03F34FEA154E9040AFB251
:1002B4000343B1FBFEFC0EFB1C10190C0CFB07F8EE
:1002C40041EA0041884522D969180CF1FF3004D273
:1002D400884502D9ACF102002944A1EB08019BB284
:1002E400B1FBFEFC0EFB1C110CFB07F743EA0143B8
:1002F4009F420ED9EB180CF1FF3104D29F4202D970
:10030400ACF102012B44DB1B41EA004193E7604658
:10031400E3E76146F7E76046A4E76346B8E783424C
:1003240006D916B9002108467CE7C6E900E0F9E7DA
:10033400B3FA83F78FB9834201D3724508D8BEEB71
:10034400020460EB030301209C461EB9002169E707
:100354003846FAE7C6E9004CF8E7C7F1200CBB4081
:100364000EFA07F522FA0CF42EFA0CF1BA401C43EB
:1003740020FA0CF3B8404FEA144901431FFA84FEF3
:10038400B3FBF9F809FB18300B0C08FB0EFA43EA2F
:1003940000439A4540D9E31808F1FF3004D29A4546
:1003A40002D9A8F102002344A3EB0A0389B2B3FBE8
:1003B400F9F809FB183308FB0EFE41EA03418E45A8
:1003C4002CD9611808F1FF3304D28E4502D9A8F163
:1003D4000203214443EA0040A1EB0E01A0FB029872
:1003E4004145CE46434602D306D14D4504D2013899
:1003F400B9EB020E68EB0403002EA7D0B5EB0E0296
:1004040061EB030101FA0CFC22FA07F3F9404CEA10
:100414000303C6E9003199E74046C5E74346D9E7F7
:1004240010F8012B11F8013B012A28BF9A42F7D09A
:10043400D01A7047034611F8012B03F8012B002A48
:10044400F9D17047034613F8012B002AFBD1181A7F
:10045400013870470140CB0709D5054A0321538869
:100464000448013353800123034A04F001BD70475B
:100474002003002020E0000018E000002DE9F041F6
:1004840088B06D4602AF4FF00208384BC7F81080B1
:100494007B6100234FF48651354807F1100201F0C7
:1004A400F7FC06F079FC78B188B002AA314BC2E9B6
:1004B4000530032342F8103F00234FF4C2512C4867
:1004C40001F0E6FCAD4616E02B4806F09FFC04461E
:1004D40048B904F041F9064688B188B002AA274B0E
:1004E400C2E90530E5E70146254809F063FF2146E6
:1004F400244809F05FFF1837BD46BDE8F081224B60
:10050400C7E904834FF48651034607F110021848E3
:1005140001F0BEFC0123032200931C491C4B1D481F
:1005240004F0D8FD044648B188B002AA1A4BC2E9C7
:100534000530032342F8103F3346BEE7174BC7E9A3
:1005440004834FF48651034607F11002084801F072
:100554009FFC013404F00101002006F0E9FC0021B5
:100564004FF4004008F070FFF3E700BF60E50000BF
:10057400CCDE000081E5000059040000D8E500004D
:100584009CE50000BBE50000F8E5000020E0000069
:1005940018E00000280100200FE6000035E6000006
:1005A4002DE9F04F91B0009302F004030293C2F3DB
:1005B400C2030133840705460E46DDF868900392B2
:1005C400059340F0BB81041D30B1072909D86FF0B1
:1005D4001B0011B0BDE8F08F01F00706341DC6F111
:1005E4000806009B4FF000084FF0040A591E4FF014
:1005F400FF3347460193C3465346CDF810800DB1EF
:10060400009A22600598002800F3E8809848009A30
:10061400824203D397488242C0F0E080039AA4EB5D
:10062400050E92074FEA9E0000F103810F2F00F29E
:10063400B180002D00F0058107F140020DEB020CA2
:10064400019A0CF8200C0CF8102C0498013004903A
:10065400E7E07A285DD84B280ED8472859D82928AE
:100664002DD8252852D054D820287AD02338D0F138
:10067400000B4BEB000B74E04C382E2849D8DFE814
:1006840000F07048484848484848484848484B485B
:100694004848484848484859484B4B595959704B61
:1006A4006D487048184B184848827F4B48484B485F
:1006B4007F0000204FF0000B4FF0040A38E00122C5
:1006C4002A38C0B202FA00F010EA0E0F49D110F035
:1006D400625C2FD110EA020B43D06046013C5444C3
:1006E400B4FBFAF40AFB04F4002D61D0A3EB050C6F
:1006F400A4446645FFF46BAF002868D1042B47D1AE
:1007040059F8043B2360042304342AE0019A013A93
:1007140001924FF0000B24E011F8010C6C2834D145
:10072400002011F8023C83466C2BC5D14FF0080A17
:100734005346D3E709F1070929F00709073424F0E0
:100744000704F9E802AB35B106982044B0423FF6FD
:100754003EAFC4E900AB4FF0000B08344FF0080A79
:10076400534611F8010F002878D0BBF1000F7FF435
:1007740070AF2528F5D14FF0010B019B0133019394
:100784004FF0040AECE7584694E700208346A5E7B7
:10079400082B02D06FF015001BE709F1070929F0B7
:1007A4000709F9E80223C4E9002308230834D8E739
:1007B40068B9042B02D109F10409A4E7082BE9D193
:1007C40009F1070929F0070909F10809EDE7059A74
:1007D400013A059259F8042B009210E7039A900706
:1007E40020D54FF0010CA4EB050E4FEA9E00BEF598
:1007F400007FCFD20F2FCDD8F5B107F140020DEB1A
:10080400020E019AC0B20EF8200C0EF8102CBCF1A6
:10081400000F3FF41AAF60F07F000EF8200C08F1CF
:1008240001080137C5F108024FF6DA7E0434069256
:1008340097E74FF0000CDAE7BCF1000F01D0013666
:10084400EFE7029802360028EBD10098CDE9063193
:10085400FFF7F8FDDDE906310644E2E7631BB3F573
:10086400806F97D245B9A6F10804E018B1E600BF3D
:1008740060DB000050FE0000029A9B0828602B7089
:100884009DF81030C2B1EB7085F80280B8F1000F0A
:1008940005D0002208A8C5F1010C97420ED14FF0F3
:1008A400000AC5F101030DF1200901930DF1300B8C
:1008B400574512D1601B8CE66B70E5E710F8013BDD
:1008C400190608D504EB0C0E764503F07F03FFF4FC
:1008D4007EAE04F8013B0132DFE7B8F1000F03D02C
:1008E40099F90020002A17DB029BD3B11AF80B20D8
:1008F40004F8012B0022019B981820448642FFF43F
:1009040066AE99F80000009904F8010B20460392A2
:100914000DF0A2F8039A14440AF1010A09F101093D
:10092400C6E799F8002055F822300093029B0098FE
:1009340045F82230FFF786FD421CDCE76FF00D001E
:1009440047E600BF2DE9F04F95B000AFBB61BB6F28
:100954000446C3F3C0038A4690F802B07A623B614E
:1009640041B9457800780BEB80002044554517D8F1
:10097400A0EB040AE3787B61BBF1000F02D0BB6FEC
:10098400D80716D47B6953BB7B6A1BB151462046FA
:10099400BA699847554628465437BD46BDE8F08F96
:1009A400461C3046FFF74EFD013030440AF1010A7F
:1009B400DCE7237862683B629B00FB603B6AFA6178
:1009C40004EB83097B6A002B40F0FF80C8460026B5
:1009D400554609EB0B0AD04551D1D94413E0BB6FFE
:1009E4009907D1D5237899463B629B00FB606368E5
:1009F40004EB8909FB617B6A002B7AD15546BBF174
:100A0400000F4FD15E46BB6F13F0050F0CBF4FF0C4
:100A1400020B4FF0010B7B6909EB430ABB6F03F038
:100A240002037B62D145B6D019F8021B19F8013CC8
:100A340054F82380AB4B984502D3AB4B984538D33D
:100A44003B69002B42D0F86909F08BFC00283DD0AB
:100A5400E8468AB06A46A54B5361FB69C2E9063190
:100A64004FF400731384A24B42F8103F00234FF459
:100A74001251A04801F00CFA023DC546D2E718F81D
:100A8400013B54F82300FFF7DDFCFB6F01303BB161
:100A9400D7F880309E423EBFFB6F23F81600013624
:100AA400054498E7BB6F13F004061CBF7E6AD94463
:100AB400A9E73B6923B1F86909F053FC0028C7D1C1
:100AC400BB6FDA0705D4A5EB0B05ABE77B6A002BFC
:100AD400A8D04046FFF7B6FCFB6F43B1D7F880308F
:100AE4009E423FBFFA6F431C22F81630013605447C
:100AF40098E7BBF1000F6ED0BB6F13F004066DD006
:100B0400D846002607F140005A4649460CF0A4FF97
:100B14007B69D9445B007B607B6909EB4303BB6061
:100B2400BB6F03F002033B60BB684B4558D1B96F00
:100B34006378B86F890748BF002106EB030258BFEA
:100B44004FEA5801C507D2B200F19A8010F0040FA1
:100B540014BF40460020FB616270A070E170204623
:100B6400BA69F9687B6A9847051EFFF614AF3B6AB9
:100B740041462370FB69BA6963707B6984F802B0EB
:100B8400E37007F140007B6A9847B0F10008C0F2B7
:100B9400A480FB68AAEB0B01C91A7B684846C91AF2
:100BA400BA697B6A98470028C0F299804FF0000B1D
:100BB400A84408EB000507F1300AB34562D30021CD
:100BC400BA6908467B6A9847E5E65E464FF0000836
:100BD40007F1300098E75E46D84699E7B04697E7B4
:100BE40019F8021B3F4B19F8015C54F82500984290
:100BF40002D33D4B98421DD33B6923B1F86909F0F8
:100C0400B0FB002890D13B68FBB908F1280307F139
:100C1400280208F1010003EB020C07F1500308F16C
:100C2400020853FA80F00CF8101C5FFA88F800F8F8
:100C3400105C79E73B692BB1F86909F092FB002855
:100C44007FF472AFBB6FDB0709D506F1280307F108
:100C54002802711C9E1806F8205CCEB264E7BB6FB4
:100C640058077FF561AF08F1280307F1280208F15E
:100C7400010103EB020808F8105C5FFA81F853E7FE
:100C8400002068E71BF80A3054F8239087F82F30C7
:100C9400FB6FFBB133F81B800121BA697B6A07F152
:100CA4002F00984700281ADB0544B8F1000F06D13D
:100CB4004846FFF7C7FB00F101081FFA88F84146D0
:100CC4004846BA697B6A9847002808DB05440BF15B
:100CD400010B72E7D7F87C80DEE745465BE6054604
:100CE40059E600BF60DB000050FE000077E600001C
:100CF400040000011CDF0000014B1860704700BFB6
:100D04003C01002080B505460E461746984608F07B
:100D1400B5FB03460CF018FF0446DFF81890424672
:100D240049F8003039463046A84754F8090002F023
:100D34001FFB00BF080000002DE9F047058B0446A7
:100D44002807904611D4022905F0070540F0CD800C
:100D5400204609F0E9FD78B10138218B042811D827
:100D6400DFE800F0C3106D85950001290CBF45F044
:100D7400100545F02005258388F31188BFF36F8F94
:100D8400BDE8F08701F0070AAA4500F0A680002715
:100D9400B9463E46A368002B00F0BD8041F008012F
:100DA400218388F31188BFF36F8FA168002900F0B5
:100DB400BB800D68002900F0B780334652462046B8
:100DC400D1F80480C047002D76D02B6829461D46F3
:100DD400F0E701F007035A1F012A1BD8002221F073
:100DE4000701062B276889B2C4E9002209D13B46D2
:100DF40003E0628B013262831B68002BF9D141F05E
:100E040002012046218309F08FFD00287BD041F0A8
:100E1400200177E0042B0AD121F0070189B2204692
:100E2400218309F081FD10B141F020012183218B40
:100E340001F0070AAA4550D00027B946AAE723695A
:100E440021F0070141F00601062DD3F8009021831B
:100E54002DD1B9F1000F40D041F00801218388F36E
:100E64001188BFF36F8F20463949C84729E021F024
:100E74000701236941F0040189B2042DD3F80490D9
:100E84002183E6D000274FF0040A3E4682E721F092
:100E94000701236941F0050189B2052DD3F80890B3
:100EA4002183D6D000274FF0050A3E4672E700277B
:100EB4004FF0060A3E466DE72B4687E7B9F1000F6F
:100EC400D1D14FF02003EFF3118883F31288BFF3DD
:100ED4006F8F238B23F008032383258BEA062ED5FB
:100EE40025F01003238305F007056669218B002E86
:100EF400BFF66FAF00232768C4E9003321F0070170
:100F040041F001012183218B4FF0000901F0070A10
:100F1400AA457FF43FAF002F9BD041F00801218305
:100F240088F31188BFF36F8F002FC7D03D6839460F
:100F340033465246204609F023FD2F46F4E7AB061C
:100F44007FF51AAF25F02003238305F00705FFE69C
:100F5400B1A90000044608B54FF02002EFF3118355
:100F640082F31288BFF36F8F05F06CFD204602F008
:100F7400B5F9034809F01EFA01F096FCFCE700BF3E
:100F84002BE7000000F01F0240090DD001280DD10D
:100F9400094B03EB8203D3F8002222F0E04242EA39
:100FA4000171C3F800127047044BF2E7002380324A
:100FB40053F82230FFDE00BF0028845000258450FF
:100FC40038B50124134B144DC3F800450223032103
:100FD400C5F8D0360020FFF7D5FF20460321FFF7E0
:100FE400D1FFC5F804472146C5F804492920C5F8AE
:100FF400004BFFF7C7FF21462820FFF7C3FF214618
:101004002B20FFF7BFFF21462A20FFF7BBFF00205C
:1010140038BD00BF001000500040005007B50DF16E
:1010240007000BF0C3F8114B98421CD14FF48062B7
:101034000F4B1049C3F8B8254FF40062C3F83C25A0
:101044009DF807000BF09EF80B499DF807000BF084
:1010540094F801209DF80730984006F0E1F800204C
:1010640003B05DF804FB6FF00B00F9E70000AD0B73
:1010740000A002502CA0025028A10250052370B5F4
:10108400144D154E2C780134B4FBF3F303EB8303B6
:10109400E41A0BF038F8114A137823B156F82430C7
:1010A400C01A072814D94FF05023D3F8141141B1B2
:1010B4000021C3F81411D3F814312C700CB9012396
:1010C40013702C780BF01FF846F82400012070BD33
:1010D4000020FCE7451B002058110020441B002081
:1010E40048B1054B054A1B68B3FBF2F35843044B64
:1010F40043F00103184770470002002040420F00EC
:1011040010E0000070B5049CC4F30726304605F0D7
:101114009BFAE5B2014628460BF040F80022012074
:10112400074BA40B04F0FC041A51A84006F07EF807
:10113400304605F03DFC2846BDE8704006F0EAB8AC
:1011440080A00250F0B583B000AF381D06F0DCF883
:10115400284B98424BD105F00DFC041E13DA387964
:1011640006F0D8F86D4688B06A46234BC2E90534C8
:10117400032342F8103F00234FF4C2511F4800F0EC
:1011840087FEAD462FE040F607031D4D7C71AE6827
:10119400FB8074687B6814B96FF05704E2E7082198
:1011A4002846184AA047041EDCDB3369002BF3D021
:1011B4000122082128469847041ED3DB01203B79ED
:1011C400984006F02DF878793D79FE790AF086FF8B
:1011D400014628460AF0D6FF0B4BB60045F0004501
:1011E4009D51002CBED120460C37BD46F0BD6FF09A
:1011F4001204B7E70000AD0B58E700009CDF0000C5
:1012040068DC00001112000080A102502DE9F341B6
:10121400144683681B690BB100229847C4F3072660
:10122400304605F019FA054630460AF057FF4FF0EC
:101234000008E7B2014638460AF0B4FF104B220E0C
:10124400920043F80280304605F0FEF90D4A4FEA59
:10125400943C0CF0FC0C47F0004342F80C3001467F
:1012640038460AF08AFF084B05F1320200933046F3
:101274004346019452000AF03AFF02B0BDE8F081FF
:1012840080A1025080A002500911000005F0AABEFE
:101294007FB570B9124B1348059302234FF4825162
:1012A40004AA049309F08CFE6FF0150007B05DF8F2
:1012B40004FB836863B90C4B0A48059302234FF47B
:1012C400825104AA049309F07BFE6FF00400EDE759
:1012D4001B681BB107B05DF804EB18471846E5E737
:1012E40089E7000044DF00009AE7000030B587B0CA
:1012F40008B101B16AB9134B1348059302234FF4A3
:10130400825104AA049309F05BFE6FF0150007B044
:1013140030BD84680CB1E56865B90C4B0A48059387
:1013240002234FF4825104AA049309F049FE6FF09A
:101334000400ECE741F8040BE36807B0BDE8304073
:10134400184700BFB8E7000044DF00009AE7000038
:1013540030B51346044687B068B91A4B1A4805934A
:1013640002234FF4825104AA049309F029FE6FF07A
:10137400150007B030BD006860B9144B12480593DE
:1013840002234FF4825104AA049309F019FE6FF06A
:101394000100EEE782680AB1956865B90C4B0A480A
:1013A400059302234FF4825104AA049309F008FE22
:1013B4006FF00400DDE70A46AC46616807B0BDE89B
:1013C40030406047E4E7000044DF0000F5E7000038
:1013D4009AE700000020014B1860704700000720C6
:1013E40030B50C460E4985B00291D0F8AC110546D3
:1013F400CDE9003100F1E0014FF0FF33204606F063
:10140400ABFD50B9012384F86430D5F8A83123B179
:10141400204605B0BDE83040184705B030BD00BFD8
:10142400BBB0000038B50C461146054609F045FE30
:10143400034638B92846044909F03FFE0346002014
:10144400236038BD0120FBE737FC00002DE9F04F95
:10145400012381460569466885B005F55977D7E8C3
:10146400EF2F002A03D1C7E8E13F0029F7D10CBFD1
:101474001A46002240F0B180B368B16A05F5E478F9
:101484001C1F104609F09EFE84425FD8013A00F00A
:101494009E80B2FA82F24FF00044D4407268204633
:1014A400073222F00302C5F86022B16A09F08AFE0D
:1014B400C5F86402B36A40466343033323F003036D
:1014C40002EB4302230103EB4403093323F0030338
:1014D40003EBC403C5F858221A440832C5F8542251
:1014E4007368C5F85C42C5F850323D4BC5E9A96341
:1014F400316800F0BDF9044630BBD9F804A0D9F82E
:101504001090DAE9073409F5307B012B584608BFFF
:10151400103C0BF074FF0023DAF8240031494FF437
:10152400806201EB802100935846234607F0F0FBCC
:1015340009F52C702C490BF034FFDAF81400836899
:101544005C682CB96FF05704002139E0013298E748
:101554004B46264ADAF81810A04704460028F3D16F
:10156400DAF8140083681B69002BEBD00122DAF847
:101574001810984704460028E6D11D4B2846C5F8A4
:10158400A8311C4BC5F8AC311B4B0393D5F8103272
:101594000293D5F80832CDE90083D5F86832B26AEF
:1015A400D5F8601300F02CF904460028CCD105F1DD
:1015B400E00006F07FFD0028C5F868030ADB02217D
:1015C400384609F0AFFD204605B0BDE8F08F6FF056
:1015D4000B04B9E76FF01504B6E76FF07704F2E790
:1015E40011B10000F01B0020F7B00000EBB00000C8
:1015F400011600009FB2000059B1000013B5044663
:1016040040B100230122CDE90032074BD0E9091291
:1016140006F056FCA36E1B6823B1E06E02B0BDE871
:101624001040184702B010BD37FC000013B5044643
:101634000846216901F55971D1E8AF1F022910D17B
:1016440093B1A0B10121CDE900311346D0E90912CB
:1016540006F036FC074B984208BF6FF00B0002B04F
:1016640010BD6FF00F00FAE76FF04C00F7E76FF072
:101674000100F4E72EF8FFFF2DE9F74388461546ED
:10168400066906F55973D3E8AF3F022B5FD113689F
:1016940023B96FF0150003B0BDE8F0831B78002B6D
:1016A400F7D0D6F86093B9F1000F33D106F5D877A7
:1016B4004FF0FF324FF0FF33384607F0F5F830466D
:1016C4002A6801A9FFF7AEFE019C1CB9384609F04F
:1016D40027FDDEE705F10803A3666B6984F86490CF
:1016E400E366E46360B1384609F01AFD21463046EA
:1016F400236E2A68FFF774FE0020C8F80040CAE78A
:101704002022296804F140000CF0DDF9384609F084
:1017140007FDF1E730460F4909F0CFFC04460028E5
:10172400B7D005F1080383666B69C063C366002301
:1017340080F864302022296840300CF0C4F9224635
:101744000121304600F03EF80028D5D0A1E76FF023
:101754000F00A0E737FC00002DE9F04F05460E46C8
:1017640090460027D0F8B0A085B0AAF5AE74214603
:101774003046FEF755FEE0B9114BA4F1400B02933D
:10178400DAF810303246CDE9008329464FF0FF33B2
:101794005846AAF5CE7906F0DFFB60B97023012222
:1017A40003FB079383F86420DAF80C300BB1584636
:1017B4009847703417B105B0BDE8F08F0127D6E71C
:1017C40001B300001FB5144690B18AB1012912D1AA
:1017D4000A4B00F1E0010293D0F8AC31403201939E
:1017E4004FF0FF332046009306F0B6FB04B010BD63
:1017F4006FF01500FAE70020F8E700BF01B300001E
:101804002DE9F04387B00E46DDE90E811446DDE98B
:1018140010251F4630B329B3DFF850C000F1E009AA
:10182400002D08BF65469EB9CDE9034400F5CE748A
:10183400204605960BF09CFB03ABCDE900432A46FA
:101844003B464146484606F05BFC07B0BDE8F083E2
:10185400002241460E9248462A4607B0BDE8F043AE
:1018640006F078BD6FF01500EFE700BF5D170000CC
:10187400F0B50E46044689B000286FD00123024615
:10188400C3630023D0F89810364F403040F80C7CE6
:1018940042F8301FCDE901334FF0FF330093C36D9D
:1018A4000AF026FE304A06AB92E8030083E8030000
:1018B400184606F017FA0546D8B904F1340006F0C4
:1018C400F3F90546A8B93946284805AA0AF0ECFDFB
:1018D400054670B9059B9A6872B10C33D4F894002C
:1018E400C4F8A03009F03BFDC4F8D40030B96FF05F
:1018F4000B05284609B0F0BD0346EFE7D4F8940081
:1019040009F02DFDC4F8D8000028F0D0D4F88C30AC
:10191400D4F8A010C4F8A8300423C4F8AC30C4F838
:10192400C4300223A362124BB4F89420D4F8D470C8
:10193400C4F8B810C4F8D010D4F89010236204F19D
:10194400A403A4F8B020C4F8A470C4F8C010A4F888
:10195400C820C4F8BC00A661E362CAE76FF01505AD
:10196400C7E700BF1FE80000C0DF000029E800004F
:1019740064E000002DE9F047044607464FF00109F2
:10198400DFF8508014B93846BDE8F08794FAA4F51E
:10199400B5FA85F509FA05F32E0108EB05156FEA8A
:1019A400030A24EA03042B7B002BEBD058F80630FF
:1019B4001B694BB94644736804222846196807EA30
:1019C4000A0700F051FADDE7284698470028D9D1E4
:1019D400F0E700BFACDF000030B5002289B00F494A
:1019E4000F480BF0B2FE002200230024CDE90623A9
:1019F4000E230C4DCDE903344FF440722846CDE953
:101A04000144094B0949009406F0C6FE08492846DA
:101A14000BF08FFB204609B030BD00BF391A00001F
:101A2400A80C002020080020111D0000F01F002039
:101A340031E80000014807F021B800BF100400207D
:101A44002DE9F04780461F480F4609F0DAFC0646A8
:101A5400002830D000252846BDE8F087237B73B1E9
:101A64002368DB680BB12046984723681B69D3B908
:101A7400636804222046196800F0F6F90136103430
:101A84004C45EBD3B8F1000FE5D0002DE2D0284649
:101A9400FFF770FF0546002FF7D000214FF4A47024
:101AA40007F0D2FCF1E7204698470028E0D00AFA74
:101AB40006F31D43E2E705464FF0010A024CDFF846
:101AC4000C90DDE77C110020ACDF0000BCDF0000DF
:101AD400014B53F820007047A4E0000008B503460A
:101AE40008462BB1044A136000F074FC002008BDC2
:101AF4006FF01500FBE700BF6C01002010B5044C2B
:101B0400237813B9034806F0B9FF0123237010BDED
:101B1400461B00201004002010B50446064809F0B6
:101B240070FC3CB1054BD3E8EF1F0139C3E8E21F59
:101B3400002AF8D110BD00BF7411002078110020D4
:101B440000200146034BD3E8EF0FC3E8E21F002A4D
:101B5400F9D170477411002070B5FFF7F1FF054605
:101B6400074C084EB44200D370BD63685B792BB157
:101B740023685B6813B12946204698471034F1E77F
:101B8400ACDF0000BCDF000010B5044C0449204663
:101B940009F0BBF8034B1C6010BD00BF50030020CC
:101BA40090E000006C11002008B50023074A4FF4B0
:101BB40000411370064A07481360074A1360FFF791
:101BC4008DFFBDE80840FFF7DFBF00BF471B0020C3
:101BD4007411002003B40000781100200146002293
:101BE4000023014809F0B2B850030020014809F06D
:101BF4004BB900BF50030020024B0146186809F09E
:101C040095B900BF6C110020014809F0CBB900BFA1
:101C14005003002070B5264B1878002847D0FFF7F2
:101C2400E5FF054670B1234BD3E8EF1F0139C3E844
:101C3400E21F002AF8D1204C204EB4422DD328466E
:101C4400FFF7DAFF1E4B1F4C1B68002B19DD0BF04E
:101C540035FD4FF47A72A0FB020302FB0131C30B82
:101C640043EA4143D4E900209B1A40F2E9324FEAA7
:101C7400D13161EB0001934271F1000101D3FFF70F
:101C84006BFFD4E9003213F57A7342F10002C4E920
:101C94000032BDE87040FFF7B7BF63685B7923B1DA
:101CA4002368294620461B6898471034C5E770BD51
:101CB400461B002078110020ACDF0000BCDF0000D0
:101CC40074110020A00C002070B50D4D297861B965
:101CD4000120FFF7B5FE0B4C0B4EB44206D3FFF7C1
:101CE40099FF0028FBD101232B7070BD63685B79D9
:101CF4001BB1236820469B6898471034EDE700BF6A
:101D0400471B0020ACDF0000BCDF000000212DE9F0
:101D1400F0470846FFF794FE044658B340F267685C
:101D24004FF000090BF010FF1B4B1C4A1B581360AB
:101D340033B11B4B1B68092B02DD1A4806F09EFECB
:101D44000025194FDFF85CA044B12046FFF712FECE
:101D5400044618B94FF0FF384FF0FF39FFF75AFF28
:101D6400064628B9B5B942464B46504606F0ACFE85
:101D74003546E9E74FF0FF384FF0FF39D2E72B68DB
:101D84009B691BB100222846114698471035BD4275
:101D9400F5D3E8E7054DFAE70800000070110020CC
:101DA4007811002010040020BCDF0000ACDF00002C
:101DB40013B5184809F025FB174B1B787BB14FF07E
:101DC4002003EFF3118483F31288BFF36F8FFFF7BF
:101DD40021FF84F31188BFF36F8F02B010BD0F4B46
:101DE4001B68002BF9D050B9002200230C48CDE920
:101DF40000234FF40042002307F084FDEDE7092897
:101E0400EBD107480BF0ADFC064802B0BDE810402A
:101E140006F034BE78110020471B0020701100200A
:101E2400A80C00201004002010B5064B04461B68C3
:101E340098472146A060044809F006F8BDE8104020
:101E4400FFF7B6BF6C01002050030020044A054B85
:101E54009B1AB1EBD30F34BF52F831000020704706
:101E6400CCDE0000ACDF0000084B10B4C31A446899
:101E74001B110133237143689A710122436819606D
:101E840043685A7110BCFFF739BE00BFACDF0000D5
:101E94002DE9F04F8FB0C1F34A2804AF0D469146A7
:101EA400B8607B600C0DB8F1000F63D000264FF0D2
:101EB400040B4FF00A0A07F11403C7F80C80C7E9B2
:101EC40007667E620193CDF808B0CDF800A007F153
:101ED4001C0332464846F968FEF734FDB0F5006F3E
:101EE40003461CD36C468AB0D9F8041004AB2648C8
:101EF4001A46C3E9050140F2FF71D9614FF400713C
:101F04001984224B42F8103F4FF4125133462048B3
:101F1400FFF7BEFFA5462C37BD46BDE8F08FC0F3E2
:101F24000A0804F11700184420F0070080083B60F9
:101F3400FFF754FE68F35325044690B13B6800F163
:101F44001001C7E9083607F11403F961CDE900A3CC
:101F5400CDF808B048460F4AF96807F11C03FEF7AC
:101F6400F1FC68F353252A4620467B68B96809F0DA
:101F74007AFAD0E704F1170020F007008008FFF791
:101F84002DFE0446EDE700BF46E800000400000112
:101F94004CDF00003FB400002DE9F04F87B0044649
:101FA400DDE9105ADDE912690F4693469846A6B357
:101FB4001021334652460020CDF80090CDF81490FD
:101FC400FEF7EEFA014605F117000844144B04F03D
:101FD40007040BF0070BE40020F0070003EA412399
:101FE40044EA8B1480081C430391FFF7F7FD44EA8D
:101FF4000554054640B13EB1334652460399CDF8E7
:1020040000901030FEF7CCFA434622463946284663
:1020140007B0BDE8F04F09F026BA3146D3E700BF58
:1020240000FE0F000EB403B503AB53F8042B0146B6
:102034000448019301F084FB02B05DF804EB03B0A3
:10204400704700BFD1B40000CA0605D48B064CBF4C
:1020540002490349FFF7E6BF704700BF36FC0000A2
:1020640035FC00002DE9F04F89B09A46DDE9147380
:102074009DF84CB00593169B04460D46179E069298
:102084000493BBF1000F00F0858006F0080307936A
:1020940009F0D1F906F002090246002849D0204689
:1020A4008549FFF7BFFF8046B9F1000F08D016F04D
:1020B400440F40D12A4620468049FFF7B3FF8044AD
:1020C40006F0010353B17E4B204653F82B207D4B81
:1020D4007D49002A08BF1A46FFF7A4FF06F008034B
:1020E400002B54D0794B204653F82B207849FFF726
:1020F40099FF0546069B2BB11A4620467549FFF702
:1021040091FF0544BAF1000F05D0524620467249AA
:10211400FFF788FF05444544002F49D1049B002B59
:102124004FD1F30700F1C18031462046FFF78CFF01
:10213400B5E08046B8E7694B18680028BFD0684B03
:102144004FF47A791B684FF46161B5FBF3F5B5FB85
:10215400F0F300FB135509FB05F5B3FBF1F2B5FBF6
:10216400F0FE4FF03C0C01FB123100FB1E55B1FB9D
:10217400FCF309FB05F5B5FBF0F50CFB1311204648
:102184000091CDE901E55749FFF74CFF97E706F0C9
:102194000805AFE7BAF1010F06D1002F65D1049B02
:1021A400002B7CD000250CE0002FF8D04E485DE0D9
:1021B4004E483B4622464E4908F0A2F8049B002BA9
:1021C40069D0DFF83081DFF83091049F3146102F59
:1021D400204628BF10274FF0000AFFF735FF55456A
:1021E40046DC059B494620461A78FFF71BFF4FF053
:1021F400010A1AF0070F03D141462046FFF712FFE8
:1022040057453CD9059B4946204613F80A20FFF759
:1022140009FF0AF1010ABAF1100FEAD14FF0000ADE
:1022240020463649FFF7FEFE5246059B20469A5C3F
:10223400334B995C11F0970F08BF2E223149FFF7F9
:10224400F1FE0AF1010ABAF1100F1DD01AF0070FBE
:1022540003D141462046FFF7E5FE57455246E4D8F0
:1022640041462046FFF7DEFEEBE720485D46A0E747
:1022740041462046FFF7D6FE0AF1010AAFE72046A1
:102284002149FFF7CFFEC4E7059B3B440593049B1C
:10229400DB1B049399D1BBF1000F7FF442AF2046BE
:1022A40009B0BDE8F04F09F004B92046054A0649D3
:1022B400FFF7B8FE38E700BF8AE800008EE80000A8
:1022C400B4E0000085E800002DF20000C8E0000042
:1022D400B3E80000B9E80000BDE800008411002064
:1022E4008011002097E80000FFB40000D1B4000082
:1022F4004537000001FC0000C2E80000C8E8000007
:102304003EFD0000CAE80000FFFB00002DE9F0419B
:102314000F884B6805460C4690468E6886B0C7F316
:1023240082175BB1144A9B1A43F3CF01002920DBC7
:102334002078C0F3C200FFF789FD0346214651F817
:10234400102B6088C2F34A22002A01EB020408BF62
:1023540000210022C0F30B10CDE90408CDE90214DA
:102364002846314601970092FFF77CFE06B0BDE88F
:10237400F0810023E2E700BFCCDE000042F20F73DD
:1023840073B58B4228BF0B46056804460521684691
:102394000D4A07F043FD0646636828460B225B6836
:1023A4000A4909F079F863683246694628465B6849
:1023B40009F072F863681B2228465B68044909F037
:1023C4006BF802B070BD00BFCDEF0000E9E800007B
:1023D400CDE8000000210123064A904206D8064AAF
:1023E40001B901231360054B1860704701214008AF
:1023F4005B00F2E740420F008011002084110020AE
:10240400014B0020196070479C1100200122024BEF
:1024140002481A7009F04DB8491B0020F8E000008A
:102424000148FFF7ABBF00BFF8E0000010B5064B52
:102434000C461868FFF74CFB2146BDE810400346E4
:102444000F220248184700BF9C110020F8E000004A
:10245400F8B50D460446064F4618B44201D1284645
:10246400F8BD14F8011BBB6801485B689847F4E7A2
:1024740054DC00002DE9F04F002703689DB002935F
:102484004368DFF8BCA103938368DDE90246049343
:10249400C36805930369DDE904BE069343690793A2
:1024A4008369DDE9062C0893C36998460993089B60
:1024B4000093CD590CAB2DBA5AF8049BDD514FEA69
:1024C400F223A94483EAB213009D83EA72634B4466
:1024D40025EA020502EA0C0985EA09052B4443446E
:1024E40086EA0B054FEA743888EAB408254006EA00
:1024F4000B0985EA090588EAB4580437A844402F33
:1025040003EB0E054344DE46DDF8008040F088808E
:102514004FF0100A4B490A9151460AF1010A0DF194
:10252400700E0AF00F070EEB870757F8407C01F096
:102534000F094FEAB748019788EAF71801F10E0727
:1025440007F00F070EEB870757F8407C09314FEA75
:10255400F74E8EEA774ECDF82CE001F00F010DF125
:10256400700E0EEB81010EEB890959F840EC51F81D
:10257400401CBAF1400F7144DDF804E088EADE083B
:10258400DDF82CE041448EEA972E714405EA0208F6
:102594004FEAF52E2CEA050787EA08078EEAB51EEE
:1025A400DDF828808EEA756E774458F804EF49F810
:1025B400401C77440F4400994FEA733E394484EA3F
:1025C4000607CDF828808EEAB30E07EA030704EA6B
:1025D40006088EEAB35E87EA080777440F4401EBE6
:1025E4000B0ECDF800C0B34622D1029939440160E4
:1025F40003991944049B416023448360059B33443D
:10260400C360069B73440361079B2B444361089B8F
:1026140013448361099B6344C3611DB0BDE8F08F1B
:10262400B346CDF800C0264694461C462A4640E7E9
:10263400944626462A461C4675463B466CE700BF30
:1026440008E1000044E1000010B50446C8B170225E
:10265400002108F06EFF0B4B0B4A0C49C4E9002320
:102664000B4B0C48C4E902130B4BC4E904030120CF
:102674000A4BA36103F17453A3F52303A3F6924316
:10268400E36110BD85AE67BB67E6096A72F36E3C11
:102694003AF54FA57F520E518C68059BABD9831F29
:1026A400014807F079BA00BF08E2000038B50446D3
:1026B40018B90F4B0F485B6898476168B1F5683FDC
:1026C40010D0B1F5680F0DD00B4DA9420AD011F40A
:1026D4006861206807D0014608480AF0FEFC002320
:1026E4002360656038BD14220BF0C3F9F9E700BF1D
:1026F400C00200202FE900002C5F5CA9A016002076
:1027040008B560B34368B3F5683F0ED0B3F5680FFE
:1027140018D0144A934220D000684FF0FF324FF093
:10272400FF3306F0C1F858B115E001220368D3E87D
:10273400EF1F002903D1C3E8E02F0028F7D10AD105
:10274400002008BD0368084A1B7803F5807352F81B
:102754002330002BF4D00548F3E70548F1E76FF484
:10276400E040EEE72C5F5CA900000350E98FFFFF17
:10277400EA8FFFFF08B520B34368B3F5683F09D07B
:10278400B3F5680F13D0114A93421DD0006806F0C8
:1027940005F914E000220368D3E8EF1F012903D1EF
:1027A400C3E8E02F0028F7D109D0094808BD00216B
:1027B4000368084A1B7803F5807342F8231000204D
:1027C400F4E76FF4E040F1E70348EFE72C5F5CA91E
:1027D400E98FFFFF00000350EA8FFFFF10B50446A6
:1027E40018B91D4B1D485B6898476368B3F5683F8B
:1027F4002FD0B3F5680F2CD0194A934219D123680E
:1028040003BB4FF0FF324FF0FF332146154805F06C
:1028140057FF08B923681BB90F4B13485B689847E7
:102824001422002120680BF024F94FF468636360DC
:1028340008E0B3F5683F0DD83A2B03D040F6BA62EE
:102844009342DED120680AF08FFC636843F03A03B8
:10285400636010BD054AF3E7C00200202FE90000C1
:102864002C5F5CA9A016002055E900003A00003A4C
:1028740008B506494023142205480AF020FCBDE8A7
:1028840008400449044807F0F9B900BFA01100202A
:10289400A016002010E2000024E2000001491022EA
:1028A4000A60704710ED00E072B6404080F3118872
:1028B400BFF36F8F01B5FEF7E1FB002802D0BFF331
:1028C4004F8F30BFBDE8014062B6BFF36F8F7047D2
:1028D40072B6494081F3118801B5FEF7CFFB002899
:1028E40002D0BFF34F8F20BFBDE8014080F31188B1
:1028F40062B670472DE9F04781460C4600AF0029C7
:102904004CD0D1E900126E468AB0A3686D464FF0F0
:10291400050AA8462548C5E90723C5E9050148F87D
:1029240010AF002342464FF421512148FFF7B0FA7B
:10293400D4E90312B5466369AD461E48C5E90723C9
:10294400C5E90501C5F810A0002342464FF4215102
:102954001748FFF79DFAB54688B0E3696D464FF016
:10296400030AA846144AC5E9052348F810AF002312
:1029740042464FF4C2510E48FFF78AFAB546A3699E
:10298400AD460E4AC5F810A0C5E90523002342460A
:102994004FF4C2510648FFF77BFAB5462146484634
:1029A40005F0EEFCBD46BDE8F08700BF82E90000FB
:1029B4008CDF0000B1E90000E0E90000EFE900006D
:1029C40040B2002807DB01234109034A00F01F003D
:1029D400834042F82130704700E100E040B2002813
:1029E4000CDB01220649430900F01F00824020331A
:1029F40041F82320BFF34F8FBFF36F8F704700BFA1
:102A040000E100E0054B420953F82220012300F0C5
:102A14001F0003FA00F01040704700BF00E100E01F
:102A240040B2002801F10101ACBF00F16040064B47
:102A34004FEA4111C9B2ABBF00F5614000F00F008D
:102A440080F800131954704714ED00E030BFFFF70D
:102A5400FDBF00BF0B4A08B50B4B22F07F029A6002
:102A6400BFF34F8FBFF36F8FD3F8882022F4700227
:102A7400C3F8882005F044FD06F078FD00F0F2FB71
:102A840005F088FD0000000000ED00E0094A0A4955
:102A9400936809689867D96708494B6843F080537D
:102AA4004B60002383F31188BFF36F8F9368D86F53
:102AB400704700BF34190020A4E4000000ED00E0DA
:102AC40016498A684FF030001044EFF3098C80E80F
:102AD400F01F202080F31288BFF36F8F104F4FF048
:102AE40000664A698A603E604FF0740414192068D5
:102AF4000C4C2060906F0023936780F3118802F1DF
:102B0400300090E8F01F8CF3098802F1000004B54E
:102B140008F04DFFBDE80440704700003419002060
:102B240004ED00E0BC1600201EF0040F0CBFEFF310
:102B34000880EFF30980816911F8021C0229FFD093
:102B440001B508F025FF01BD42F8203C009B0B496C
:102B540042F81C3C019B21F0010142F8183C029B05
:102B640042F8081C42F8143C4FF0807342F8043CCD
:102B74000023203A02658367704700BF090D0000F7
:102B84000A4B446F98600A4B1C60436E83F30B88B6
:102B9400104681F30988002163B681F31188BFF3DD
:102BA4006F8F00220023FEF7ADF800BF3419002018
:102BB400BC16002001B5EFF30580A0F110004FEA28
:102BC400C0000449014409C99847BDE801400249CD
:102BD40008470000A4DC00003D2C0000114B124A01
:102BE4002DE9F041D518013DB5FBF3F5DFF83C8044
:102BF4005D430F4B074608EB0304013CB4FBF3F4BD
:102C040003FB04540E1B30460A490AF025FF7019D1
:102C140042460021083E0AF02CFF7E6704F10800BA
:102C2400BDE8F08101000000000000000400000085
:102C340004000000BCDF0000044B99685869884216
:102C440003D003494FF080520A60704734190020C2
:102C540004ED00E02DE9F04186B006460D4600AFD4
:102C64000224444B4FF482517B6143483C6107F199
:102C7400100208F0A0FE414B9B6ADB0678D5404B5E
:102C84003D484FF48251C7E9044307F1100208F0AC
:102C940092FE1120394B9B6A1C070BD5394B3648E1
:102CA4007B6102234FF482513B6107F1100208F06B
:102CB40082FE1220314CA36A990723D5E846324B91
:102CC40007F110027B6102234FF482513B612A48D1
:102CD40008F071FE636BA26A120612D588B06A46C8
:102CE4002A492548C2E9051303234FF4C25142F887
:102CF400103F08F060FEC5461EB1A36A23F08003AE
:102D0400A36213201D4B9B6ADE070BD5204B1A4888
:102D14007B6102234FF482513B6107F1100208F0FA
:102D24004AFE1420154B9B6A9C060BD5194B12487E
:102D34007B6102234FF482513B6107F1100208F0DA
:102D44003AFE15200D4B18379A6AD10658BF9A6A75
:102D54009A6A920642BF5A6A22F400525A629A6AE6
:102D640042F0FF029A6200232B70BD46BDE8F08159
:102D740010208FE71DEA00008CDF000000ED00E06A
:102D840033EA000066EA000079EA000091EA0000F4
:102D9400A7EA0000C6EA00002DE9F04186B0064625
:102DA4000D4600AF0224474B4FF482517B614648E5
:102DB4003C6107F1100208F0FEFD444B9B6AD90404
:102DC4006DD5434B40484FF48251C7E9044307F1A2
:102DD400100208F0F0FD17203C4B9B6A1A050BD536
:102DE4003C4B39487B6102234FF482513B6107F12C
:102DF400100208F0E0FD1820344CA36A9B0523D58B
:102E0400E846354B30487B61022307F110023B61F1
:102E14004FF4825108F0CFFDA36BA26A100412D5BF
:102E240088B06A462D492848C2E9051303234FF4A4
:102E3400C25142F8103F08F0BEFDC5461EB1A36A58
:102E440023F40043A3621920204B9B6A59050BD538
:102E5400234B1D487B6102234FF482513B6107F1F0
:102E6400100208F0A8FD1A20184B9A6AD20518D54A
:102E74001C4B15487B6102234FF482513B6107F1DF
:102E8400100208F098FD1B20104A1837936A43F487
:102E94007F43936200232B70BD46BDE8F08116206A
:102EA4009AE79B6A9B04EFD50F4B07487B6102238B
:102EB4004FF482513B6107F1100208F07CFD1C20A5
:102EC400E2E700BFF5EA00008CDF000000ED00E05F
:102ED4000BEB000066EA00001CEB000035EB000081
:102EE4004AEB000065EB0000C6EA000010B586B0AE
:102EF40002243E4B4FF482513D4804AA05930494A6
:102F040008F059FD3B4B9B6A99016CD53A4B384804
:102F14004FF4825104AACDE9044308F04CFD1E206D
:102F2400344B9B6ADA010AD5344B314805930223AA
:102F34004FF4825104AA049308F03DFD1F202D4B49
:102F44009B6ADB020AD502242D4B29484FF4825197
:102F540004AA0593049408F02EFD2046254B9B6A91
:102F64001C030AD5274B2248059302234FF48251B0
:102F740004AA049308F01FFD21201E4B9B6A5903E9
:102F84000AD5214B1A48059302234FF4825104AA0F
:102F9400049308F010FD2220164B9B6A9A030AD56D
:102FA4001A4B1348059302234FF4825104AA049345
:102FB40008F001FD23200F4B9B6ADB030AD5144B59
:102FC4000B48059302234FF4825104AA049308F09A
:102FD400F2FC2420074A936A6FEA03436FEA13431F
:102FE400936206B010BD1D209AE700BF7DEB000080
:102FF4008CDF000000ED00E095EB0000A8EB000082
:10300400C2EB0000ECEB00000AEC00002FEC000027
:1030140049EC00002DE9F0438BB07A4B0446D3F819
:103024000480002600AFC8F3080586F31188BFF3B7
:103034006F8F02F07F43B3F17F4F0ED102F00C0388
:10304400082B19D1704B4FF48251FB6102236F4856
:10305400BB6107F1180208F0AEFC002634460023D9
:10306400FB71EB1E092B00F2AC80DFE803F00A9F32
:10307400A29BAAAAAAAAAAA510074CBF0C4601267D
:10308400EDE7E9464FF00208614B07F11802FB61D6
:103094004FF482515D48C7F8188008F08CFC002377
:1030A400584DFB71EB6A9A070BD55A4BC7E9068357
:1030B4004FF48251554807F1180208F07CFC0023B4
:1030C40041E0EB6A002B01DA534BEFE7EB6A5B005C
:1030D400F5D5524B07F11802C7E906834FF4825124
:1030E4004A4808F068FC6B69A26943F480736B6119
:1030F400BFF34F8FBFF36F8F6B6932F8022C23F449
:1031040080736B61BFF34F8FBFF36F8F4DF6027304
:103114009A4208D0AB6ADBB2002B36D00120F91DED
:10312400FFF798FD40E088B023686A463C49374879
:10313400C2E9051303234FF4C25142F8103F08F0CB
:103144003AFCCD462368FA79DAB907F1080504F1A7
:10315400200C2A4620686168083403C26445154679
:10316400F7D17A6A002E47D0C2F3080121B96FEA79
:1031740052226FEA42227A62184607F10801FFF7E9
:10318400B9FB2C37BD46BDE8F083AB6A13F47F4F1F
:1031940004D00120F91DFFF7FFFD05E0AB6AB3F58C
:1031A400803F8CD3FFF7A2FE0346CCE70020F91D35
:1031B400B6E70020F91DEEE71A4BFB610223BB6161
:1031C40076E7194A18F4F87FE8468AB0174B18BF17
:1031D40013466A461649103DC2E905134FF40073BD
:1031E4001384144BD5614FF41151084842F8103F31
:1031F40008F0E1FBC54662E722F4FF7222F0010207
:10320400B9E700BF00ED00E0A2EC00008CDF000095
:10321400CDEC0000E4EC000005ED000013ED00002F
:1032240032ED00004EED000089EC000074EC00006B
:1032340072ED000004000001044B5A6942F01002D0
:103244005A615A6942F480625A61704700ED00E0A5
:10325400EFF30880EFF3098101B57246FFF7DAFE58
:1032640001BD00BF002320210348C2180133452BB0
:1032740082F80013F9D1704700E100E0002080F3E8
:103284001488BFF36F8F002080F30A8880F30B88C3
:10329400FDF7FCFF00200E490860BFF34F8F0D4877
:1032A40080F3088800F03EF8202080F311880A4853
:1032B4004FF40061401880F30988EFF31480022171
:1032C400084380F31488BFF36F8FFFF7C3FB00003C
:1032D40094ED00E0E03C0020A02B0020BFF34F8FD2
:1032E4000549064BCA6802F4E0621343CB60BFF39E
:1032F4004F8F00BFFDE700BF00ED00E00400FA05BA
:10330400002318460649D1F89020C2F307229342BD
:1033140000DB7047C1F89830C1F8A0000133F6E72C
:1033240000ED00E010B572B6002484F31388FFF7B3
:10333400E7FF23464FF0FF300C4A03F1200101332D
:10334400102B42F82100F8D100234FF0FF30074A38
:1033540003F160010133102B42F82100F8D162B669
:10336400BFF34F8FBFF36F8F10BD00BF00E100E0CC
:10337400084B9B6883420BD1EFF3058343B1064BA3
:103384005A6842F080525A605A6A22F400425A62E1
:1033940006F07AB83419002000ED00E01FB5094C9E
:1033A400094A23460121094800F02AF9002303931E
:1033B400074B0121E41A01A80193029400F02AF9B1
:1033C40004B010BD000007200000002034E200001B
:1033D400B004002010B50C7A0B6804F01F0223F02F
:1033E4001F031A43CB68640923F01F03054943EA0A
:1033F400440343F00103C1F89800C1F89C20C1F8CC
:10340400A03010BD00ED00E080B500AF88B06A4682
:10341400074BC2E90530032342F8103F00234FF461
:10342400C2510448FEF734FD6FF01500BD4680BD5F
:1034340089ED00006CDF00002DE9F04F14460646CC
:103444004FF0000987B05F4D00AF79607B68994504
:1034540035DAD6F80480B8F1000F54D0B8F11F0F54
:103464001BD918F01F0F18D1D6F800B01BF01F0F8E
:1034740013D1584608F0A2FA824608EB0B00013833
:1034840008F09CFA82451FD06FF0150A6C4688B08C
:103494006A464D49C2E9051A05E06C4688B06A4699
:1034A4004A4BC2E90539032342F8103F00234FF485
:1034B400C2514748FEF7ECFCA5466FF015042046C0
:1034C4001C37BD46BDE8F08F1AF1160FDED0544507
:1034D400DCDDC5F898A0D5F89C00C5F898A0D5F80F
:1034E400A02020F01F0042F01F08D6E9002111445B
:1034F400904201F1FF3B1ED1D84508D131465FFA15
:103504008AF008F064FA09F101090C369EE7C5F85F
:1035140098A0D5F89C3021F01F0103F01F030B4342
:103524003146C5F89C30E0B208F051FA10F1160F9C
:10353400C3D0441CE7E7013AD845E0B222F01F02A9
:10354400C5F898A008D1D5F8A030314603F01F0380
:103554001343C5F8A030E7E7D5F8A01001F01F0128
:103564000A43C5F8A020314608F031FA10F1160FCD
:10357400A3D0C5F898A0D5F89C203B7C08F1FF386F
:1035840062F304033B74D5F8A0303A7C5B0863F320
:1035940047123A74D6E900321344BB6023F01F0388
:1035A400441C4344A3EB0B03E0B223F01F0307289E
:1035B4007B6102D9FFF728FFB8E707F10801FFF79D
:1035C40009FFB6E700ED00E0D2ED0000AFED00002A
:1035D4006CDF00000522044BC3F89420BFF34F8F27
:1035E400BFF36F8F704700BF00ED00E0BFF35F8F44
:1035F4000022024BC3F89420704700BF00ED00E0A6
:1036040010B5034C2278FFF717FF207010BD00BFE0
:103614004A1B00202DE9F74F294D8A4606464FF0F4
:103624000008AB46274FD0451BDAD6F80490B9F111
:10363400000F3FD031680846019108F0BFF90199A5
:10364400044609EB0100013808F0B8F984424FF050
:1036540014021D4B08D002FB08F36FF015024BF85F
:10366400032003B0BDE8F08F14F1160F2C60F8D0DE
:103674001978A142F5DD02FB08B0C7F89840C7F8F5
:103684009840D7F89C4000F10801007B64F30400E3
:103694000871D7F8A0000C79400860F347140C7146
:1036A400D7F89C1021F01F016960D7F8A01021F011
:1036B4001F01296108F1010814350C36B3E700BF76
:1036C400C016002000ED00E04A1B002038B50E4D66
:1036D4002C68082C15D80020FFF788FF0B4B0C4AE8
:1036E400C3F8C020844205D10A4B00201C70FFF7A8
:1036F40071FF38BD696801EB0011FFF76BFE013003
:10370400F0E74FF0FF30F4E740E2000000ED00E0A6
:10371400AAFF44004A1B002008B5024B1B689847C7
:10372400002008BDD4160020034B044A1860937887
:1037340043F0020393707047D416002090010020D8
:10374400F0B587B007460E4614460021102268469D
:103754001D460AF08EF902238DF80230054B2A46E5
:1037640021466846CDE90476019306F083FB07B051
:10377400F0BD00BF13BA000008B50649064821F0A1
:103784000701C1F1005202F5E02207F075F80020AC
:1037940008BD00BFEF5D0020E054002070B51B4B56
:1037A400D3F80425D20744BF0022C3F8042510220D
:1037B400174BC3F840244FF47F03D3F83021D3F8D8
:1037C4003431072A1BD1023B032B02D8114AD35CA4
:1037D400ABB14FF05024012600250520C4F818662B
:1037E400C4F8145608F0C7FC3046C4F8146608F050
:1037F400C2FCC4F81456C4F81856002070BD4FF02B
:1038040050230022C3F81426F7E700BF00D000506D
:103814000030005004EE00000E4B402928BF402128
:1038240070B51D460C4C4618B04203F1020304D196
:10383400002305F81130074870BD02781209A25C14
:1038440003F8022C10F8012B02F00F02A25C03F81B
:10385400012CE9E7691B002080EE000030B50378F5
:103864008BB0044607AD032B21D8DFE803F0021A1E
:103874001C1E12492846FCF7DDFD059563781E21C0
:103884000493A3780E4A0393E3780E4802932379B2
:10389400019363790093A37906F0C0FA09480BB049
:1038A40030BD0949E6E70949E4E70949E2E70A21A5
:1038B4002846084A06F0B2FADFE700BF3BEE0000F4
:1038C4005DEE00004B1B002042EE000049EE0000BC
:1038D40053EE000082F0000038B50546054808F0B4
:1038E400DFF9044620B101210C3008F013FA2576E3
:1038F400204638BD800400200246002070B50B46E7
:103904000A49D1E8EF4FC1E8E50F002DF9D124B9F8
:10391400BDE870400120FFF7DFBF0121208221763E
:1039240004F10C0008F0F6F9204670BD00010020F7
:1039340070B505460E3D012D0C461046194603D8B8
:10394400BDE87040FFF7D8BF64B1094808F0A8F992
:10395400044628B101210C3008F0DCF90123237658
:10396400204670BD0120BDE87040FFF7B5BF00BF21
:103974002804002070B58EB06C4606460A4D0D2E04
:103984000FCD0FC40FCD0FC40FCD0FC495E80300A6
:1039940084E803009DBF0EAB03EB860656F8380C93
:1039A40002480EB070BD00BFC8DF000099EE0000F1
:1039B4000B46B0B50D8A00AF04462946D868FFF718
:1039C4002BFF8AB06A46094BC2E90750C2E90534A5
:1039D40040F202439384064B4FF43251054842F8B7
:1039E400103F08F02EF8BD46B0BD00BFA1EE0000A8
:1039F40005000001FCDE0000B0B5044600AF02EB98
:103A0400C303934203D12046FFF7D2FF18E01046C8
:103A140010F8085BA54219D10B8A5078984211D945
:103A24006D4688B06A460A49D461C2E90513042385
:103A34004FF40151074842F8103F08F002F8AD4630
:103A4400BD46B0BD084653689847F9E70246D8E733
:103A5400C3EE0000FCDE0000B0B5324800AF08F051
:103A64003CF9044600284BD0037E012B4AD1038A3B
:103A7400012B0CD840F65D232B4A2C492C4807F027
:103A84003BF8404080F311884FF0030002DF02212D
:103A940004F10C0008F062F9037805460E3B012B93
:103AA4000CD840F66123204A2249214807F024F823
:103AB400404080F311884FF0030002DF03232146C6
:103AC4001D4A2878FFF798FF204601F097FC1B4B0E
:103AD400D3F80431A3B11A491A4809F07FFC00282D
:103AE4000EDA6C4688B06A46174B4FF4C251C2E9ED
:103AF40005300323154842F8103F07F0A2FFA546FE
:103B0400BD46B0BD6D4688B06A4611490F48C2E94A
:103B1400051303234FF4C25142F8103F07F091FFFD
:103B2400AD46D1E704010020E5EE000019EF0000E6
:103B340032EF00004FEF0000C8E200000000002058
:103B4400B4010020600D002091EF0000FCDE0000B5
:103B54007DEF000010B5012104460C3008F0FEF89A
:103B64002146BDE810400023014A0078FFF744BF16
:103B7400E0E2000080B5012100AF0C3008F0EEF85F
:103B840088B06A46037806490648C2E90513032348
:103B94004FF4C25142F8103F07F053FFBD4680BDB9
:103BA400AEEF0000FCDE00002DE9F843804600AFD4
:103BB400907A0E46144601F073FB474D854218D0A7
:103BC400A47A6E46204601F06BFB8AB06A46434BEA
:103BD400C2E90740C2E90538062355624FF4425151
:103BE4003F4842F8103F07F02CFFB546BD46BDE8FC
:103BF400F883204601F05CFB4FF00C09394D09FBBA
:103C040000504388434516D0204601F051FB09FB80
:103C140000506C4688B06A464388D3610423324915
:103C24002F48C2E905184FF4025142F8103F07F03B
:103C340008FFA546DAE7DFF8B480D8F8000120B120
:103C440001F0DCFB0023C8F80031204601F030FB12
:103C54004FF00C0808FB00504368CBB1C6B92046AE
:103C640001F026FB012208FB00504068D0E9003136
:103C7400007A01F01F0C02FA0CF2490908B303EBB5
:103C84008103D3E8EF0F1043C3E8E10F0029F8D113
:103C9400204601F00DFB4FF00C0808FB0050836830
:103CA400002BA3D0204601F003FB08FB00F02E54A8
:103CB400204601F0FDFA08FB0055A86804F0DEFE7A
:103CC40094E7D24303EB8103D3E8EF0F1040C3E83A
:103CD400E10F0029DCD0F7E754040020D0EF000006
:103CE400FCDE0000D816002005F0000000000020D3
:103CF40038B5042104460C3008F030F845780178D2
:103D040022464088FFF750FF25B1BDE838400248FD
:103D140004F0B4BE38BD00BFE800002038B503216C
:103D240004460C3008F01AF8E3680578224619783E
:103D3400B0F80100FFF738FF25B1BDE8384002486C
:103D440004F09CBE38BD00BFE800002010B5C1E9F6
:103D540000239DF808300C460B7201F0A9FA0C22DE
:103D6400024B02FB00335C6010BD00BFD81600207C
:103D74002DE9F0474FF0FF324FF0FF330646174866
:103D84000F4607F08DFF4FF00008044600F10C0ABF
:103D94000121504607F0BEFF204684F8188001F048
:103DA40087FA4FF00C090E4D09FB0050468020465F
:103DB40001F07EFA09FB0050C0F80880204601F0AB
:103DC40077FA09FB005503215046C5F8048007F033
:103DD400A5FF068087702046BDE8F08754040020C4
:103DE400D81600202DE9F04387B0804615460C46CE
:103DF40000AF21B9FFF7BCFF044600285DD00122C3
:103E04000021384609F04AFA204601F051FA0C2301
:103E1400DFF8B49003FB00908760204607F076FF3C
:103E240001462A4807F070FF4FF4A02200233846C9
:103E340004F04AFE064688B14FF4A973244A254982
:103E4400254806F059FE32464146244806F054FE01
:103E5400404080F311884FF0030002DF204601F058
:103E640027FA0C23584319F80060F6B16D4688B060
:103E74006A461B4BD661C2E9053804234FF402514C
:103E8400184842F8103F07F0DCFD2046AD4601F02B
:103E9400B5FA092E14D00D2E0CBF6FF00B006FF085
:103EA40004001C37BD46BDE8F08315B12C6000202A
:103EB400F7E7204601F0A2FAF9E76FF06800F0E7AF
:103EC4006FF06E00EDE700BFD81600200C01002053
:103ED400E5EE000038F0000032EF000041F0000091
:103EE4006DF00000FCDE00002DE9F04188B0944D37
:103EF40000AFD5F82431996811F001011AD140F6C8
:103F0400034007F10802FFF76DFF0446002874D14F
:103F1400B868C3681B785BB905F1D403D3E8AF2F45
:103F240002F00902D3E8EF1FC3E8E42F002CF9D113
:103F340001F064FA002141F2030007F10802FFF7DF
:103F440051FF0446002858D1BB687E4EDA68D2F887
:103F54000100D2F8051003C6184601F04FFA2146B5
:103F640041F2010007F10802FFF73CFF0446002874
:103F740043D1B868C3685A7885F870205A88A5F880
:103F840072201A7985F87120B3F80720A5F87420F7
:103F9400B3F80530A5F8763001F030FA214641F245
:103FA400020007F10802FFF71DFF044628BBD7F8FB
:103FB40008C0DCF80C20531C413234461868596898
:103FC400083303C493422646F7D1604601F016FA3B
:103FD40001F020F9044680B995F87C30580611D4D4
:103FE400594B6FF01204FB6102234FF4825157487E
:103FF400BB6107F1180207F024FD20462037BD46B7
:10400400BDE8F081214642F2030007F10802FFF700
:10401400E9FE04460028F0D1BA684D4BD168D1F8C6
:104024000100D1F8051003C3104601F0E7F995F833
:104034007C30990617D4022140F66D40FFF798FEB4
:10404400064600284BD002210C3007F067FE0123FE
:10405400447022460370314640F66D40FFF7C2FEBD
:1040640004460028C9D195F89C301A0713D50021BD
:1040740042F21C0007F10802FFF7B4FE04460028D0
:10408400BBD1B868C368D3F80120D3F80530C5E9BB
:10409400382301F0B3F9082142F20100FFF768FE6A
:1040A4000446E0B108210C3007F038FE0226002255
:1040B4002146067042708270C27002714271827130
:1040C400C27142F20100FFF78DFE0446002894D12C
:1040D400082140F60140FFF74BFE804610B96FF00F
:1040E40068048AE708210C3007F018FE8023437027
:1040F4002023047084700471447184712246C67054
:10410400C371414640F60140FFF76CFE04460028A7
:104114007FF473AF01463A1D4FF60140FFF762FE8C
:10412400D0B10C4BC7E906634FF48451074807F13B
:10413400180207F086FC00F0B9FD04465DE700BFF5
:10414400000000207800002089F00000FCDE000060
:10415400D8000020ADF000007B686E46DC688AB0B1
:10416400B4F80130032B96BF434A444952F8231054
:104174006A46D3614FF4007341481384414BC2E94A
:10418400050142F8103F4FF413513F4807F059FC22
:10419400B4F80120B546022AB4F803304CD1032BFD
:1041A4004AD83A4A52F823106E468AB06A46D36116
:1041B4004FF4007336481384324BC2E9050142F8C8
:1041C400103F4FF41351304807F03BFCB546637978
:1041D40094F806C0032B98BF2E4AB4F80760D4F8AD
:1041E40009006C468CB094BF52F8231023496A46E8
:1041F400C2E9073C4FF40073DFF89CE09385274B3A
:10420400C2E905E1C2E909604FF4735142F8103F75
:104214001D4807F016FCA546786801F0EFF8002168
:104224004FF602403A1DFFF7DDFD044630B11C4B4A
:10423400FB610223BB6177E71049B5E77868C3687F
:10424400B3F80130A5F8C13001F0D8F895F8C130C1
:104254005B077FF570AF21464FF603403A1DFFF729
:10426400C1FD08B10F4BE3E77868C3685B7885F854
:10427400C03001F0C3F85EE7A8E2000099EE000048
:10428400D1F0000004000001FCDE000098E2000010
:10429400EAF0000088E2000002F1000007000001DB
:1042A4002FF1000058F10000F7B5144B054693F9BF
:1042B4009B300C46002B1DDA14B9204603B0F0BD28
:1042C400082C4FF0000142F2180001AA264628BF2C
:1042D4000826FFF787FD0028F0D1019F3246F968D0
:1042E4002846013109F0B8FB384601F087F8354417
:1042F400A41BE1E76FF08500E0E700BF00000020A9
:10430400024BD3F824315B69184700BF000000203A
:104314002DE9F0414C4D86B04C4E00AFEB686FF385
:104324009433EB604FF0FF324FF0FF3301214648E6
:1043340005F018FB60B140F6DE23454A454946487E
:1043440006F0DAFB404080F311884FF0030002DFEF
:10435400EB68C3F38633022B10D9042B11D06C46BF
:1043640088B06A463D493E48C2E9051303234FF429
:10437400C45142F8103F07F064FBA54604F0E2FF85
:10438400CCE72B7B002BF9D100220023354807F022
:104394008CFC0446002848D04FF0FF334FF0FF3226
:1043A400314804F091FBD6F800315BBB204607F09E
:1043B400ADFCC6F800012046FFF7A2FF0028DDD0BF
:1043C400E84688B06A46294B4FF4C251C2E9053029
:1043D4000323234842F8103F07F033FBC546224825
:1043E40004F04CFB204600F063FF0C22204B1F21FD
:1043F40002FB003022464088FFF7D6FB204600F03F
:10440400FDFFBBE71B4B4FF482517B610223144831
:1044140007F110023B6107F014FBD6F8000100F02D
:10442400EDFF0023C6F80031C0E74FF42763084AC4
:104434001149094806F060FB404080F311884FF0B1
:10444400030002DFA8E700BFA00100200000002055
:10445400E5EE000038F0000032EF0000A3F10000A8
:10446400FCDE00000C010020E800002081F10000C7
:10447400D8160020C4F10000A2F500002DE9F04197
:10448400044600F10C06304607F070FC278A054606
:10449400012F0CD840F685631F4A2049204806F0B6
:1044A4002BFB404080F311884FF0030002DF3046BD
:1044B400022107F053FC03780646052B21D00E3B5E
:1044C400012B21D940F68963134A1649144806F092
:1044D40013FB404080F311884FF0030002DF4FF0DC
:1044E400020802232146104A3078FFF785FA18F0B3
:1044F400020F0CD06369278213FA85F5E560BDE8E5
:10450400F0814FF00308ECE74FF00108E9E720469B
:10451400BDE8F04100F072BFE5EE000019EF0000C5
:1045240032EF0000DFF10000B8E20000B0B5037E16
:104534000446012B00AF27D1C3681B78052B07D095
:104544000E3B012B06D8FFF799FF0020BD46B0BDF6
:10455400FFF794FF2146174807F0A9FB16491748AF
:1045640008F03CFF0028F0DA6C4688B06A46144B29
:104574004FF4C251C2E905300323124842F8103FF8
:1045840007F05FFAA546E0E76D4688B06A460E4933
:104594000C48C2E9051303234FF4C25142F8103FFB
:1045A40007F04FFA2046AD4600F028FF6FF01500E3
:1045B400CCE700BF04010020B4010020600D0020FE
:1045C40091EF0000FCDE0000F8F10000084A034609
:1045D400D2F8240130B9D96839B1596929B1C2F87E
:1045E400243170476FF0770070476FF01500704703
:1045F400000000202DE9F84F414B00AFD3E8EF2F26
:1046040042F00402C3E8E12F0029F7D113F8CD2CBE
:10461400A3F1D4043B4D3C4B2046012A88BF1D46E0
:104624006E46FFF71BF98AB06A46384BA346C2E9C7
:1046340005350125364BD0611362364B4FF42351B7
:10464400354842F8103F07F0FCF9DFF8D080B54652
:10465400DFF8C490324EE3790BF1070B9D4238DB4F
:1046640094F870506E462846FFF784F98CB06A4679
:10467400B4F87210B4F87630C2E907514FF40075FB
:104684005362DFF8A0C0284BC2E905C015854FF47A
:10469400535142F8103F204807F0D3F9B54694F837
:1046A40071603046FFF766F98AB06A46B4F8743030
:1046B4001E49C2E907631E4BC2E9051095844FF4F5
:1046C4003351154842F8103F07F0BBF9BD46BDE829
:1046D400F88F5846FFF7C2F8EA468AB06A4640F2B5
:1046E4000133C2E90565D06113844FF41351484680
:1046F40042F8108F07F0A5F90135D546ABE700BFA6
:10470400D400002037FC00000CF2000010F200007E
:104714000002010304000002FCDE000004000001AA
:104724001FF2000030F20000060000016EF20000EB
:104734000500000110B5FFF7D7FB044608B9FFF7E1
:1047440059FF044B1B681BB12046BDE810401847B5
:1047540010BD00BF50170020F0B58FB0424D064683
:10476400D5F8243108AF83B9404B6FF012047B6154
:1047740002234FF482513E4807F110023B6107F0D7
:1047840060F920461C37BD46F0BD05F1D403D3E8DB
:10479400EF2F22F00202C3E8E12F0029F7D1D3E87A
:1047A400EF4F44F00102C3E8E12F0029F7D114F0E0
:1047B400010455D12F4B1E60012205F1E80011467A
:1047C40008F06CFD05F5867008F047FD0022002313
:1047D400CDE906236FF008034FF48062CDE902436C
:1047E400CDE90044244B25490494254803F0D4FF23
:1047F4002449234808F09DFC234808F000FE6FF08C
:1048040007034FF4966221491F48009404F080FA8C
:104814001F491D4808F08DFCD5F82431DB68984702
:10482400044678B16D4688B02A461A4B4FF4C251FB
:10483400C5E9053003230E4842F8103F07F001F99B
:10484400AD469EE73EB9FFF74FFB0446002898D1DA
:10485400FFF7D0FE95E705F1C40004F053FA90E7A2
:104864006FF077048DE700BF0000002095F2000090
:10487400FCDE00005017002015430000F022002049
:10488400E00C0020AEF20000600D0020F0260020B5
:10489400B4F20000BAF200000048704757E6000086
:1048A400F8B506460024094DEF79E3B29F4202D8D9
:1048B4006FF0010007E02946304607F0C5F80735D8
:1048C400631C08B12046F8BD1C46EEE7000000203A
:1048D40037B504460D4671B12846124907F0B4F8BD
:1048E40048B929461048C4EBC404204407F0B9F879
:1048F400002003B030BD684607F094F80028F8D1D2
:104904006846FFF7CDFF0028F5DA074BC4EBC40077
:104914006946184407F0A5F8002DE9D00146284659
:10492400E4E700BF28EE00000000002038B50622AE
:104934001149054609F0A5F8C8B1062142F205005F
:10494400FFF716FA0446A0B1062229460C3007F0F8
:10495400EBF90022214642F20500FFF743FA38B989
:104964000548294607F078F8012300F8013C0020A7
:1049740038BD6FF06800FBE76900002070B50D4694
:10498400044686B0F0B1234907F05EF8D0B9237825
:10499400012B04D1A37903F0C003C02B0DD01E4B0F
:1049A4004FF48251059302231C4804AA049307F090
:1049B4005FF86FF0150006B070BD2046FFF770FF7A
:1049C400002821DA002DF4D1154DEB79012B1ED0EE
:1049D40005F1D403D3E8AF3FDB0707D4002CE8D0BC
:1049E40020460C4907F030F80028E2D1EE79214640
:1049F400731C3046EB71FFF76BFF08B93046DAE7FA
:104A0400EB79013BEB71D6E76FF07700D3E76FF0FA
:104A14000B00D0E728EE0000C9F3000014DF00000B
:104A240000000020F0B5044689B060B9194B079323
:104A340002234FF48451184806AA069307F018F885
:104A4400002009B0F0BD002141F2090001AAFFF7DE
:104A5400C9F9064608B1114BE9E7019F0622FD6832
:104A64000F490135284609F00CF828B106222846DA
:104A74000C4909F006F818B9384600F0BFFCDFE726
:104A84002946601C06F0E8FF3846267000F0B6FCA4
:104A94000120D6E7F7F3000014DF000010F4000053
:104AA40035EE00002FEE000007B56846FFF7BAFFA9
:104AB400044BD87118B169460020FFF709FF03B011
:104AC4005DF804FB00000020F0B5244B054693F884
:104AD400C2300E46DB0789B00DD4214B0793002466
:104AE40002234FF484511F4806AA069306F0C0FF20
:104AF400204609B0F0BD00214FF6094001AAFFF796
:104B040071F9034608B1184BE8E701981627C26803
:104B140054780232B44228BF34469C420EDC00F082
:104B24006DFC002CE4D1114B4FF484510793022304
:104B34000C4806AA069306F09BFFD9E7114607FB2B
:104B4400035602F1140C51F804EB614546F804EBEA
:104B5400F9D10988013331801632DEE700000020E4
:104B64002EF4000014DF00005AF400007AF4000070
:104B740070B5154D88B0EC792CB9012102A8FFF766
:104B8400A3FFE871C0B90021084608B0BDE8704031
:104B9400FFF7F4BE02AB06FB02310DF1010006F093
:104BA4005BFF0123694610468DF80030FFF790FE45
:104BB400013410B108B070BD1626EB79E2B293420D
:104BC400E8D80020F6E700BF000000202DE9F041FE
:104BD40090460E461D46024686B078B173B1310345
:104BE400047816D573070ED52D4B4FF482510593D7
:104BF40002232C4804AA049306F03AFF6FF0150030
:104C040006B0BDE8F08106F03EFF0028F8D101238C
:104C140041E0F70730D5244FB8F1000F13D0B006A8
:104C24000AD4C4EBC403FB5C012B13D02B70B20673
:104C340020D543F002030BE097F8D8305906F0D49E
:104C44006FF08500DCE7C4EBC403FB5C012B01D0EF
:104C54002B700FE0072101FB04711046013106F0AF
:104C64000AFF0028CCD1C4EBC4043B5D2B70B8F11F
:104C7400000FDCD10020C3E773070ED50A4EC4EB46
:104C8400C407F35D012BE3D1072111FB0431314447
:104C940006F0F1FEF35D2B70B2E706F0F4FEB6E722
:104CA400A3F4000014DF00000000002030B5134D11
:104CB40087B0EB791BB10024204607B030BDFFF765
:104CC400F3FE044650B10E4B059302234FF4825178
:104CD4000C4804AA049306F0CBFEEDE7EB79002B15
:104CE400E9D1FFF745FF04460028ECD1681CFFF723
:104CF4001DFE04460028DFD0034BE5E7000000203A
:104D0400C2F4000014DF0000E1F400002DE9F04FCC
:104D14000C4689B0202192460090FFF729F80546F9
:104D240000285BD020210C3006F0F8FF20228146B9
:104D3400002108F09EFE002609F1010B04EBCA0ACB
:104D44000023D4F80080626893420CD30834A2454F
:104D5400F6D100222946009889F8006009B0BDE820
:104D6400F04FFFF73FB898F80120B01C11181F2925
:104D740098F800C01BD9BCF1090FC0F11F0201D182
:104D8400002A12DC174B07930223069300234FF4E7
:104D94008251154806AAFDF77BF8284600F02EFB41
:104DA4006FF0150009B0BDE8F08F4FF0080CD7B2D2
:104DB400791C0BF80610711CC9B20BF801C0D8F8A5
:104DC40004105BFA80F00193023708F045FE019B62
:104DD4003744FEB2013308F10808B4E76FF0680005
:104DE400E0E700BF04F50000ECDE0000F8B545681C
:104DF4000646690535D4046914B115F0010330D0B1
:104E0400194F3078FB7983422BD9C0EBC0000722BD
:104E14001649384408F035FEA8B115F0010306D14F
:104E240097F87020082A02D8B2689F2A19D915F079
:104E3400300F09D0ACB1EA060AD405F46035B5F5F3
:104E4400603018BF0120F8BDEB0601D4002CF4D16A
:104E5400D6E902239A4204D81F2A02D9B3F5804F17
:104E6400EBD90020EFE700BF0000002028EE00008F
:104E7400F0B5054685B00F4806F02FFE1F46030621
:104E8400164613D50B4806F028FE04460A4806F0D9
:104E9400BEFEC4F3C0240A46029033462946CDE937
:104EA4000074054806F041FE05B0F0BD6FF00A003D
:104EB400FAE700BF28000020180000202DE9F04F79
:104EC400D1F810A091B0BAF1000507467C4818BF8C
:104ED4000125059306F001FE40070C46934640F178
:104EE400E3800846FFF782FF28B96FF015052846CE
:104EF40011B0BDE8F08F204606F0DCFD81460028A5
:104F0400F3D007F11008404606F0E7FD0106C0F3B0
:104F1400C01300F1CC80CDE90733CDF82330A3686A
:104F24006068ADF81830E3686FF40051ADF81A30DA
:104F340006F0C4FD8DF82500614806F0D1FD237804
:104F4400604A3B7082F86F3038462A4661680DF13A
:104F54001D03FFF73BFE05460028C8D107F10900F1
:104F6400BAF1000F13D0216906F0C5FD204606F002
:104F74005EFE63680646DA0716D4980503D41A9BC6
:104F84000BB9022E4AD102238DF81C3019E04E4988
:104F940006F0B1FD204606F04AFE63680646DD07CA
:104FA400EBD58DF81CA00CE013F0100F0CBF0123FF
:104FB400042321690DF11E008DF81C30A94606F06A
:104FC4009AFD0F2142F20600FEF7D2FE05460028A4
:104FD40070D00F2206A90C3006F0A6FE2946002246
:104FE40042F20600FEF7FEFE054600287FF47FAF7E
:104FF400BAF1000F18D03846012106F028FE074602
:1050040050B3324B0F9302230E9300234FF482517B
:105014002F480EAAFCF73CFF3D4668E70323DDF862
:1050240068908DF81C30CCE71B9B5946009338469A
:10503400CDE901961A9B059A06F077FD00283CD12C
:105044003846012106F003FE07460028D9D16768D7
:1050540087F00207C7F34007404607F001020E211C
:1050640006F050FD731E5A425A414046082106F08C
:1050740049FDB11E4A424A414046092106F042FD1B
:10508400626840460A2102F0010206F03BFD4A46EE
:1050940040460B2106F036FD62680D214046C2F3FE
:1050A400800206F02FFD22E76FF00A051FE76FF07C
:1050B40077051CE76FF0680519E7054617E700BF99
:1050C400D40000200000002028EE00001DF50000A0
:1050D400ECDE000073B51546069A0C46CDE90032A5
:1050E4002B460A4601461148FFF7E8FE21460646CC
:1050F400002340F201109D4202D1304602B070BD3F
:105104000A88824204D14A6812B11278D20702D4C2
:1051140001330831EFE70649064808F076F94FF401
:1051240070220023034803F0C7FEE6E718000020BE
:10513400755100003000002008B50B4806F0ACFDA6
:105144006FF48041094806F0CBFC084806F0C5FC22
:1051540003461B06C0F3C01005D5BDE80840002176
:10516400014806F074BD08BD180000202800002086
:1051740098B500AFFFF7E0FF78B16C4688B06A4697
:10518400074BC2E90530032342F8103F00234FF4D4
:10519400C4510448FCF77CFEA546BD4698BD00BF3B
:1051A40038F50000ECDE000030B593B020210AA8E9
:1051B400FFF77AF8044618BB08F080FA4FF47A75C2
:1051C400A0FB052305FB01310823D20B42EA41422F
:1051D400C90BCDE90221009320220B486B440AA994
:1051E40006F072FB60B9094B099302230893234626
:1051F4006FF004044FF48251054808AAFCF748FEF6
:10520400204613B030BD00BF000E00205EF5000044
:105214000CDF000010B588B008216846FFF744F899
:10522400044690B9082269460B4806F02DFB78B96C
:105234000A4B07930223069323466FF004044FF4AA
:105244008251074806AAFCF723FE204608B010BD89
:10525400FFF7AAFF0446F8E7000E002075F50000EA
:105264000CDF000038B50D46044698B191B10B4AE5
:1052740006F043FB431C07D1FFF796FF48B92946C4
:105284002046064A06F039FB01280CBF00206FF0C7
:10529400040038BD6FF01500FBE700BF000E0020CE
:1052A4002C22024B02FB0030704700BF2804002070
:1052B4002C21827A054B01FB02339A6A1B7F801AE8
:1052C4001B3323F00303B0FBF3F0704728040020E2
:1052D40038B52C24827A094B04FB02335B6A0C68D0
:1052E4005B681A68944294BF0C600A60D3E9005466
:1052F400FFF7DEFF05FB004038BD00BF2804002097
:105304002DE9F04385B00546684690461C46039156
:1053140008F0D6F9DDE900674FF02003EFF31189B7
:1053240083F31288BFF36F8F6B8B002B45D02A8BCE
:105334009A4229D900220023284603F06BFB044635
:1053440010B389F31188BFF36F8F039B002B45D0F3
:1053540032462C263B46684608F0D6F9254DA37AFA
:10536400204606FB03535B6A03A91B681F68DDE93B
:105374000023B8476061002831D1A07A214600FBA0
:10538400065007F081FF24E0698B4B1E6B8389F381
:105394001188BFF36F8F2B7F2A8BAC6A1B3323F0EA
:1053A4000303521A02FB0344124B134AEB1A9B10D9
:1053B4005343A3722B7FE372C7E789F31188BFF3CA
:1053C4006F8F23464246284603F024FB04460028F8
:1053D400BBD10024204605B0BDE8F08363610023FF
:1053E4000122636022812382039A63696282E360FB
:1053F400F0E700BF28040020A38B2EBA2DE9F0416A
:10540400044600262C27154D0CB9BDE8F081237AFB
:10541400D4F80480013BDBB22372002BF5D161691F
:1054240059B1637ADB0707D4A37A204607FB0353F9
:105434005B6A1B689B6898476661A07AE66007FB15
:10544400005366601B6A1BB1204698474446DBE75D
:10545400214600FB075007F017FFF7E72804002058
:10546400B0B5017E0446022900AF18D0042915D036
:1054740039B36D4688B06A46134BC2E9053103233C
:105484004FF4C251114842F8103F06F07BFCAD4680
:105494002046FFF7B3FF0020BD46B0BD052104F14F
:1054A4000C0006F052FC228AE1680948FBF750FF21
:1054B4000028EDDA6D4688B06A46064BC2E905302D
:1054C400DDE70121EBE700BFB5F5000004DF0000D4
:1054D40054170020C5F50000B0B50C4800AFFFF725
:1054E40075F8041E0EDA6D4688B06A46084B4FF410
:1054F400C251C2E905340323064842F8103F06F0BE
:1055040041FCAD462046BD46B0BD00BFFCE20000F4
:10551400DDF5000004DF0000014803F0AFBA00BF6E
:10552400F8030020B0B51A4800AFFBF7B1FE0446FB
:10553400A0B110F1780F11D06D4688B06A46154BB2
:10554400C2E9053403234FF4C251134842F8103F13
:1055540006F018FCAD462046BD46B0BD0F4A1049C2
:105564000B48FBF7C3FE044620B16D4688B06A467B
:105574000C4BE5E74FF4004200230B4803F0A4FA78
:1055840004460028E7D06D4688B06A46074BD7E743
:105594007CDC000007F6000004DF0000C4010020EA
:1055A4005417002037F60000F80300205BF60000D3
:1055B4002DE9F04F89B090F800800646B8F1040F49
:1055C4000C4600AF01F1FF330DD0B8F1050F00F028
:1055D400A880B8F1020F40F0CF80032B6ED86E4B39
:1055E400C7E9068305E0012B0ED86C4BFB6102234F
:1055F400BB614FF482516A4807F1180206F0C2FBFE
:105604002437BD46BDE8F08F43783E2B3CD190F85B
:1056140003A0AAF10203D3F1000A4AEB030AB6F885
:105624000130033CB4EB132FBB8033D1BAF1000F2C
:105634002DD04FF000084FF000094FF0020B424606
:105644004B4651463879FEF773F9054620B300F10D
:105654000C080222391D404606F066FB404606F05F
:1056640089FB844226D96E4688B06A464D4BD06188
:10567400C2E9053404234FF40151494842F8103F6C
:1056840006F080FBB54638E04FF0000AC7E74FF458
:10569400A028D0E7444BA9E7BAF1000FB0D1434B9F
:1056A4004FF48451C7E906B33D4807F1180206F0E8
:1056B40069FBC4E72246F11C40462CE0002200238B
:1056C4000320FEF709F90546D8B10422D6F80130C3
:1056D40000F10C097B604846B91806F025FBFB88ED
:1056E400053C9C420FD0324BC7E906834FF48251EC
:1056F4002B4807F1180206F045FB2846FFF77EFE0B
:105704007EE72C4B6CE7484606F034FB8442AAD86B
:1057140022464846711D06F007FB2846FEF706FFA1
:105724006EE7032B01D8244B60E700220023404698
:10573400FEF7D2F80546A0B10422D6F8013000F1F4
:105744000C087B604046B91806F0EEFAFB88053C6D
:10575400C3F30D039C4206D0184BFB610223BB61CB
:10576400C4E7174B42E7404606F004FB84423FF689
:105774007AAF2246711D9FE76C4688B06A46114B8A
:105784004FF4C251C2E905380323054842F8103FDB
:1057940006F0F8FAA54633E718F700007BF6000098
:1057A40004DF0000F5F600009CF60000C0F60000DF
:1057B40051F7000037F7000073F70000ACF7000062
:1057C40092F70000CEF70000084B70B5C31A0D46DF
:1057D40007499B10044659434022064806F0F1FA53
:1057E4002B4601462046BDE870401847701700203C
:1057F400B76DDBB618DC0000402373B50B4C009387
:10580400041B0B460D460A49A41061430646094A87
:10581400094806F002FB011E05DA30462B4602B0A9
:10582400BDE87040184702B070BD00BF701700207B
:10583400B76DDBB689BE000018DC00002DE9F84323
:105844000022012106460520FDF7EAF8114801F07F
:10585400F3FC114B984219D106F05BFD00244FF084
:105864001C090C27DFF834803569414609FB0450D4
:1058740005F0AAF8002807DB012307FB04551C44A4
:10588400042CAB67F0D10020BDE8F8836FF004006E
:10589400FAE700BFD95800000000AD0B14E3000084
:1058A40001460C2300224B4370B50848C4187833D2
:1058B4001844D4E91C56226706F070FA2DB132461A
:1058C4002B46BDE870400248184770BD7017002091
:1058D40018DC0000062812D8DFE800F0040F1111CC
:1058E400110D0B00064B986F10F0070007D1FFF75E
:1058F400D7BF0220FBE70320F9E70120F7E7704751
:105904007017002008B54FF02003EFF3118183F3E3
:105914001288BFF36F8F124A136843F002001060BD
:10592400DA0708D481F31188BFF36F8FBDE808400C
:10593400012006F000BD4FF05023D3F80C24D3F817
:105944000C34DB07EED5074806F028FA81F31188FA
:10595400BFF36F8FBDE808400020FFF7A1BF00BF71
:1059640010180020E81700207FB500220123CDE99C
:10597400022304ABCDE90433094A6B46CDF800D0C9
:10598400CDF804D006F077FA002805DB4FF4804206
:105994000023684603F098F807B05DF804FB00BFE5
:1059A400BFBE000010B54FF02003EFF3118483F362
:1059B4001288BFF36F8F074A136823F00201DB07D5
:1059C400116002D4012006F015FD84F31188BFF3A1
:1059D4006F8F10BD101800202DE9F04101220746F9
:1059E4003749D1E8EF3FC1E8E02F0028F9D133B9B6
:1059F400344935484B60CB608A6004F0F8FF7B1E65
:105A0400012B2BD8012F07D14FF05023D3F81C348E
:105A140003F00303022B21D007F085FB0546F8B9F8
:105A24002A4B1B78E3B14FF0502302220646C3F8F9
:105A340008234FF05024DFF89880D4F81824D4F8C1
:105A44001834D20316D503F00303022B01D0012F1F
:105A540010D175B386F31188BFF36F8FBDE8F08161
:105A64004FF02003EFF3118683F31288BFF36F8F97
:105A74000125DEE7C5B13046FCF72AFFD4F8183516
:105A8400DBB2012BD9D1D4F80421002AD5D00022CD
:105A9400C4F80421D4F804210222C4F818252022D1
:105AA400C8F88021A360C8E70021212003F0CCFCC2
:105AB400E4E74FF050230222C3F80423CEE700BFEB
:105AC4006C1700205C1700208C170020EE1B0020B0
:105AD40000E100E008B5074807F064FA38B1064869
