:1000000000CC01208D670100CFC405007967010095
:10001000796701007967010079670100796701005C
:10002000000000000000000000000000AD690100B9
:100030007967010000000000016901007967010093
:100040008D6C01008D6C01008D6C01008D6C0100C8
:100050008D6C01008D6C01008D6C01008D6C0100B8
:100060008D6C01008D6C01008D6C01008D6C0100A8
:100070008D6C01008D6C01008D6C01008D6C010098
:100080008D6C01008D6C01008D6C01008D6C010088
:100090008D6C01008D6C01008D6C01008D6C010078
:1000A0008D6C01008D6C01008D6C01008D6C010068
:1000B0008D6C01008D6C01008D6C01008D6C010058
:1000C0008D6C01008D6C01008D6C01008D6C010048
:1000D0008D6C01008D6C01008D6C01008D6C010038
:1000E0008D6C01008D6C01008D6C01008D6C010028
:1000F0008D6C01008D6C01008D6C01008D6C010018
:100100008D6C01008D6C01008D6C01008D6C010007
:100110008D6C01008D6C01008D6C01008D6C0100F7
:100120008D6C01008D6C01008D6C01008D6C0100E7
:100130008D6C01008D6C01008D6C01008D6C0100D7
:100140008D6C01008D6C01008D6C01008D6C0100C7
:040150008D6C0100B1
:04015400FFFFFFFFAB
:1001580081F0004102E000BF83F0004330B54FEA70
:1001680041044FEA430594EA050F08BF90EA020FDD
:100178001FBF54EA000C55EA020C7FEA645C7FEA70
:10018800655C00F0E2804FEA5454D4EB5555B8BF93
:100198006D420CDD2C4480EA020281EA030382EA04
:1001A800000083EA010180EA020281EA0303362D96
:1001B80088BF30BD11F0004F4FEA01314FF4801C69
:1001C8004CEA113102D0404261EB410113F0004F7B
:1001D8004FEA03334CEA133302D0524263EB430332
:1001E80094EA050F00F0A780A4F10104D5F1200ED0
:1001F8000DDB02FA0EFC22FA05F2801841F100012B
:1002080003FA0EF2801843FA05F359410EE0A5F1FE
:1002180020050EF1200E012A03FA0EFC28BF4CF02F
:10022800020C43FA05F3C01851EBE37101F00045E5
:1002380007D54FF0000EDCF1000C7EEB00006EEBF2
:100248000101B1F5801F1BD3B1F5001F0CD349087C
:100258005FEA30004FEA3C0C04F101044FEA4452D3
:1002680012F5800F80F09A80BCF1004F08BF5FEA5A
:10027800500C50F1000041EB045141EA050130BD3A
:100288005FEA4C0C404141EB0101013C28BFB1F54C
:10029800801FE9D291F0000F04BF01460020B1FA97
:1002A80081F308BF2033A3F10B03B3F120020CDA6A
:1002B8000C3208DD02F1140CC2F10C0201FA0CF048
:1002C80021FA02F10CE002F11402D8BFC2F1200CAD
:1002D80001FA02F120FA0CFCDCBF41EA0C01904063
:1002E800E41AA2BF01EB0451294330BD6FEA0404AC
:1002F8001F3C1CDA0C340EDC04F11404C4F1200297
:1003080020FA04F001FA02F340EA030021FA04F3A8
:1003180045EA030130BDC4F10C04C4F1200220FAFF
:1003280002F001FA04F340EA0300294630BD21FA3D
:1003380004F0294630BD94F0000F83F4801306BF03
:1003480081F480110134013D4EE77FEA645C18BFF7
:100358007FEA655C29D094EA050F08BF90EA020F8E
:1003680005D054EA000C04BF1946104630BD91EA86
:10037800030F1EBF0021002030BD5FEA545C05D189
:100388004000494128BF41F0004130BD14F58004C8
:100398003CBF01F5801130BD01F0004545F0FE413C
:1003A80041F470014FF0000030BD7FEA645C1ABF71
:1003B800194610467FEA655C1CBF0B46024650EAA8
:1003C800013406BF52EA033591EA030F41F40021D4
:1003D80030BD00BF90F0000F04BF0021704730B55A
:1003E8004FF4806404F132044FF000054FF000012F
:1003F80050E700BF90F0000F04BF0021704730B5F0
:100408004FF4806404F1320410F0004548BF4042C4
:100418004FF000013EE700BF42004FEAE2014FEA19
:1004280031014FEA02701FBF12F07F4393F07F4FF4
:1004380081F06051704732F07F4208BF704793F0F7
:100448007F4F04BF41F40021704730B54FF460740A
:1004580001F0004521F000411CE700BF50EA01020D
:1004680008BF704730B54FF000050AE050EA0102B6
:1004780008BF704730B511F0004502D5404261EB26
:1004880041014FF4806404F132045FEA915C3FF467
:10049800D8AE4FF003025FEADC0C18BF03325FEA04
:1004A800DC0C18BF033202EBDC02C2F1200300FAB5
:1004B80003FC20FA02F001FA03FE40EA0E0021FADA
:1004C80002F11444BDE600BF70B54FF0FF0C4CF4C8
:1004D800E06C1CEA11541DBF1CEA135594EA0C0F7A
:1004E80095EA0C0F00F0DEF82C4481EA030621EAB5
:1004F8004C5123EA4C5350EA013518BF52EA0335F0
:1005080041F4801143F4801338D0A0FB02CE4FF0A1
:100518000005E1FB02E506F00042E0FB03E54FF0D1
:100528000006E1FB03569CF0000F18BF4EF0010EC9
:10053800A4F1FF04B6F5007F64F5407404D25FEAC5
:100548004E0E6D4146EB060642EAC62141EA555178
:100558004FEAC52040EA5E504FEACE2EB4F1FD0CBA
:1005680088BFBCF5E06F1ED8BEF1004F08BF5FEA38
:10057800500E50F1000041EB045170BD06F00046EA
:1005880046EA010140EA020081EA0301B4EB5C0497
:10059800C2BFD4EB0C0541EA045170BD41F480118F
:1005A8004FF0000E013C00F3AB8014F1360FDEBFB4
:1005B800002001F0004170BDC4F10004203C35DA90
:1005C8000C341BDC04F11404C4F1200500FA05F313
:1005D80020FA04F001FA05F240EA020001F00042B4
:1005E80021F0004110EBD37021FA04F642EB06012A
:1005F8005EEA430E08BF20EAD37070BDC4F10C0454
:10060800C4F1200500FA04F320FA05F001FA04F217
:1006180040EA020001F0004110EBD37041F1000103
:100628005EEA430E08BF20EAD37070BDC4F120050E
:1006380000FA05F24EEA020E20FA04F301FA05F276
:1006480043EA020321FA04F001F0004121FA04F21E
:1006580020EA020000EBD3705EEA430E08BF20EAEE
:10066800D37070BD94F0000F0FD101F00046400028
:1006780041EB010111F4801F08BF013CF7D041EAAA
:10068800060195F0000F18BF704703F000465200AE
:1006980043EB030313F4801F08BF013DF7D043EA7F
:1006A8000603704794EA0C0F0CEA135518BF95EA35
:1006B8000C0F0CD050EA410618BF52EA4306D1D1BC
:1006C80081EA030101F000414FF0000070BD50EADB
:1006D800410606BF1046194652EA430619D094EA65
:1006E8000C0F02D150EA013613D195EA0C0F05D14F
:1006F80052EA03361CBF104619460AD181EA0301A3
:1007080001F0004141F0FE4141F470014FF000005A
:1007180070BD41F0FE4141F4780170BD70B54FF0F5
:10072800FF0C4CF4E06C1CEA11541DBF1CEA135575
:1007380094EA0C0F95EA0C0F00F0A7F8A4EB050457
:1007480081EA030E52EA03354FEA013100F088804E
:100758004FEA03334FF0805545EA131343EA126317
:100768004FEA022245EA111545EA10654FEA0026CC
:100778000EF000419D4208BF964244F1FD0404F585
:10078800407402D25B084FEA3202B61A65EB0305E1
:100798005B084FEA32024FF480104FF4002CB6EB9E
:1007A800020E75EB030E22BFB61A754640EA0C001E
:1007B8005B084FEA3202B6EB020E75EB030E22BF5E
:1007C800B61A754640EA5C005B084FEA3202B6EB9F
:1007D800020E75EB030E22BFB61A754640EA9C005E
:1007E8005B084FEA3202B6EB020E75EB030E22BF2E
:1007F800B61A754640EADC0055EA060E18D04FEAEC
:10080800051545EA16754FEA06164FEAC30343EA8B
:1008180052734FEAC2025FEA1C1CC0D111F4801F58
:100828000BD141EA00014FF000004FF0004CB6E751
:1008380011F4801F04BF01430020B4F1FD0C88BFF0
:10084800BCF5E06F3FF6AFAEB5EB030C04BFB6EBFB
:10085800020C5FEA500C50F1000041EB045170BDEE
:100868000EF0004E4EEA113114EB5C04C2BFD4EB1B
:100878000C0541EA045170BD41F480114FF0000E9F
:10088800013C90E645EA060E8DE60CEA135594EA1B
:100898000C0F08BF95EA0C0F3FF43BAF94EA0C0F1E
:1008A8000AD150EA01347FF434AF95EA0C0F7FF493
:1008B80025AF104619462CE795EA0C0F06D152EAE7
:1008C80003353FF4FDAE1046194622E750EA4106CB
:1008D80018BF52EA43067FF4C5AE50EA41047FF4DC
:1008E8000DAF52EA43057FF4EBAE12E74FF0FF3C41
:1008F80006E000BF4FF0010C02E000BF4FF0010C12
:100908004DF804CD4FEA410C7FEA6C5C4FEA430C8A
:1009180018BF7FEA6C5C1BD001B050EA410C0CBFD9
:1009280052EA430C91EA030F02BF90EA020F00203B
:10093800704710F1000F91EA030F58BF994208BFA2
:1009480090422CBFD8176FEAE37040F0010070475F
:100958004FEA410C7FEA6C5C02D150EA013C07D1B6
:100968004FEA430C7FEA6C5CD6D152EA033CD3D001
:100978005DF8040B704700BF8446104662468C46FB
:100988001946634600E000BF01B5FFF7B7FF00282E
:1009980048BF10F1000F01BD4DF808EDFFF7F4FF57
:1009A8000CBF012000205DF808FB00BF4DF808EDE2
:1009B800FFF7EAFF34BF012000205DF808FB00BF05
:1009C8004DF808EDFFF7E0FF94BF012000205DF827
:1009D80008FB00BF4DF808EDFFF7CEFF94BF0120DC
:1009E80000205DF808FB00BF4DF808EDFFF7C4FFD5
:1009F80034BF012000205DF808FB00BF4FEA410228
:100A080012F5001215D211D56FF47873B3EB625258
:100A180012D94FEAC12343F0004343EA505311F07F
:100A2800004F23FA02F018BF404270474FF0000011
:100A3800704750EA013005D111F0004008BF6FF04F
:100A4800004070474FF00000704700BF4FEA410276
:100A5800B2F1E04324BFB3F5001CDCF1FE5C0DD914
:100A680001F0004C4FEAC0024CEA5070B2F1004F5E
:100A780040EB830008BF20F00100704711F0804F61
:100A880021D113F13872BCBF01F00040704741F426
:100A980080114FEA5252C2F11802C2F1200C10FA2A
:100AA8000CF320FA02F018BF40F001004FEAC1230E
:100AB8004FEAD32303FA0CFC40EA0C0023FA02F3B2
:100AC8004FEA4303CCE77FEA625307D150EA013388
:100AD8001EBF4FF0FE4040F44000704701F0004058
:100AE80040F0FE4040F40000704700BF7BB972B987
:100AF8000029BEBF00204FF0004106E008BF0028D3
:100B08001CBF6FF000414FF0FF3000F075B8ADF139
:100B1800080C6DE904CE002909DB002B1ADB00F074
:100B2800BAF8DDF804E0DDE9022304B0704740427A
:100B380061EB4101002B1BDB00F0ADF8DDF804E0B0
:100B4800DDE9022304B0404261EB4101524263EB0C
:100B580043037047524263EB430300F09CF8DDF80F
:100B680004E0DDE9022304B0404261EB4101704733
:100B7800524263EB430300F08EF8DDF804E0DDE950
:100B8800022304B0524263EB4303704753B94AB996
:100B9800002908BF00281CBF4FF0FF314FF0FF307D
:100BA80000F02AB8ADF1080C6DE904CE00F073F836
:100BB800DDF804E0DDE9022304B07047D0B5002277
:100BC8000B4B06460F46FFF77FFC00F017F804466C
:100BD800FFF700FC0022074BFFF776FC02460B46A6
:100BE80030463946FFF7B8FA00F008F82146D0BD7C
:100BF8000000F03D0000F041704700BF4A0011D2EC
:100C080012F5001211D20DD56FF47873B3EB62525E
:100C18000ED44FEAC12343F0004343EA505323FA6A
:100C280002F070474FF00000704750EA013002D1DF
:100C38004FF0FF3070474FF0000070474FEA410C0B
:100C48007FEA6C5C02D150EA013C0AD14FEA430CBE
:100C58007FEA6C5C02D152EA033C02D14FF00000FB
:100C680070474FF00100704738B500220023044652
:100C78000D46FFF79BFE28B920462946BDE83840B7
:100C8800FFF79CBF204605F10041FFF797FF404260
:100C980061EB410138BD2DE9F04786468C46084690
:100CA800089E154674461946002B40F0C1808542BF
:100CB800B2FA82F245D94AB1C2F1200300FA02FC25
:100CC800954094402EFA03F343EA0C0C4FEA154E74
:100CD800A8B2230CBCFBFEF80EFB18CC08FB00F9ED
:100CE80043EA0C43994528D9EB1808F1FF3704D299
:100CF800994502D9A8F102072B44A3EB0903A4B232
:100D0800B3FBFEFC0EFB1C330CFB00F044EA03446F
:100D1800A04214D92C190CF1FF3304D2A04202D9F5
:100D2800ACF102032C44241A43EA07401EB1D44014
:100D3800002334607360BDE8F0874746DDE763460B
:100D4800F1E792BB431B01214FEA154EAFB2200CCD
:100D5800B3FBFEFC0EFB1C330CFB07F840EA034315
:100D6800984561D9EB180CF1FF3004D2984502D9A7
:100D7800ACF102002B44A3EB0803A4B2B3FBFEFCC6
:100D88000EFB1C330CFB07F744EA0344A7424DD97A
:100D98002C190CF1FF3304D2A74202D9ACF102039B
:100DA8002C44E41B43EA0040C0E7C2F1200395400D
:100DB800944020FA03F12EFA03F34FEA154E9040BF
:100DC800AFB20343B1FBFEFC0EFB1C10190C0CFB6D
:100DD80007F841EA0041884522D969180CF1FF302B
:100DE80004D2884502D9ACF102002944A1EB0801DC
:100DF8009BB2B1FBFEFC0EFB1C110CFB07F743EA90
:100E080001439F420ED9EB180CF1FF3104D29F42E7
:100E180002D9ACF102012B44DB1B41EA004193E704
:100E28006046E3E76146F7E76046A4E76346B8E74C
:100E3800834206D916B9002108467CE7C6E900E0D6
:100E4800F9E7B3FA83F78FB9834201D3724508D81B
:100E5800BEEB020460EB030301209C461EB900218F
:100E680069E73846FAE7C6E9004CF8E7C7F1200C0D
:100E7800BB400EFA07F522FA0CF42EFA0CF1BA4030
:100E88001C4320FA0CF3B8404FEA144901431FFAF7
:100E980084FEB3FBF9F809FB18300B0C08FB0EFABB
:100EA80043EA00439A4540D9E31808F1FF3004D2D9
:100EB8009A4502D9A8F102002344A3EB0A0389B298
:100EC800B3FBF9F809FB183308FB0EFE41EA0341AE
:100ED8008E452CD9611808F1FF3304D28E4502D90A
:100EE800A8F10203214443EA0040A1EB0E01A0FB54
:100EF80002984145CE46434602D306D14D4504D219
:100F08000138B9EB020E68EB0403002EA7D0B5EB4D
:100F18000E0261EB030101FA0CFC22FA07F3F94017
:100F28004CEA0303C6E9003199E74046C5E7434662
:100F3800D9E770B4840746D04C1E002941D0D5B2F9
:100F4800034602E0611EE4B30C4603F8015B99070F
:100F5800F8D1032C2ED9D5B245EA05250F2C45EA40
:100F6800054519D9264603F11001103E0F2E41F808
:100F7800105C41F80C5C41F8085C41F8045C01F134
:100F88001001F2D8A4F1100121F00F0104F00F04B0
:100F98001031032C0B440DD91E4621460439032970
:100FA80046F8045BFAD8211F21F0030104310B44F1
:100FB80004F003042CB1D2B21C4403F8012BA34261
:100FC800FBD170BC70470C460346C2E710F8012BF2
:100FD80011F8013B012A28BF9A42F7D0D01A70476E
:100FE800034613F8012B002AFBD1181A0138704761
:100FF8002DE9F04D2DED028B88B000AF0546406815
:101008008368DB683A219847041EC0F23381686818
:1010180083681B6907F118021E219847041EC0F255
:101028002981686883681B6907F1100220219847A5
:10103800041EC0F21F81686883681B6907F10802F3
:1010480021219847041EC0F21581914B1B6803F0BB
:101058000703022B40F215812E68B869FFF7CAF919
:1010680004460D46F869FFF7C5F987A3D3E90023BD
:10107800FFF754FB02460B4620462946FFF76EF859
:1010880000220023FFF76AF841EC180B3869FFF7D4
:10109800B1F904460D467869FFF7ACF97AA3D3E9AC
:1010A8000023FFF73BFB02460B4620462946FFF785
:1010B80055F80022774BFFF707FA00220023FFF7C5
:1010C8004DF882468B46B868FFF794F904460D46FA
:1010D800F868FFF78FF96CA3D3E90023FFF71EFB2D
:1010E80002460B4620462946FFF738F80022694B8E
:1010F800FFF7EAF900220023FFF730F841EC170B5D
:101108006D4600233B7102237B711C230C2213F0D4
:10111800070F02D10832083304E004320433F6E73B
:101128000432043313F0070FFAD10832083301E010
:101138000432043313F00704FAD102F10A0C6346AF
:10114800213222F00702ADEB020D6A46BCF1000F16
:101158007AD002F11008BCF1030F73D9B8F1000F6F
:1011680004D0BCF1040F01DD4B4B536100233B70ED
:1011780002237B70B8F1000F03D0BCF1080F00DD2B
:1011880096611C210C200B4611F0070F0DD18646E5
:10119800B8F1000F05D0604503DA08EB000181EDD6
:1011A800008B0EF1080E083305E004300431EAE73D
:1011B8000EF1040E0433194613F0070FF8D17646E2
:1011C800B8F1000F05D0E64503DA08EB0E03C3E9D2
:1011D80000AB083601F1080301E00436043313F0CC
:1011E800070FFAD13346B8F1000F05D0664503DA88
:1011F80008EB060181ED007B03F108060A33B8F11C
:10120800000F0DD008EB0601002007E000F1200ECA
:10121800BE441EF820EC01F801EB01300128F5D995
:101228009C4501DA6FF01B03B8F1000F0CD0C6F330
:1012380087063E7100217971B9710121F9717868C9
:10124800106101E06FF01B0300216FF300016FF3E1
:1012580041016FF382016FF3C501032060F3881128
:1012680063F353216FF31F5110320023084810F025
:10127800D1F8AD4620462037BD46BDEC028BBDE80F
:10128800F08D0024F6E700BF0000000080842E41A6
:101298000817002000408F4024E5060000000000E9
:1012A80010B584460C460C48ACFB000108A3D3E9F2
:1012B80000234FF0070E0EFB0C11FFF767FC074BDE
:1012C8001B68074A02FB0300204410BDAFF30080EF
:1012D80000CA9A3B000000008D49FD1A4003012016
:1012E8000080841E000000002DE9F04F8FB00B90A5
:1012F8000D46174667F0E2FD4B0143EAD06344010F
:10130800241A63EB01039B0043EA9473A400241896
:1013180043EB0101C90041EA5471C4F3103444EAB3
:1013280041444FEAD138012D68D07D6829464048AC
:10133800FFF74CFE28B129463E48FFF747FE002834
:1013480066D139A3D3E9002320464146FFF7CEFBF7
:101358000C900E4634A3D3E9002320464146FFF7FC
:10136800C5FB15461C46344A002328462146FFF78C
:10137800BDFB07460D91304A002328462146FFF75A
:10138800B5FB15461C464EF660220023284621462A
:10139800FFF7ACFB814688464EF6602200232846BC
:1013A8002146FFF7A3FB15461C464FF47A7200232B
:1013B80028462146FFF79AFB83468A464FF47A72FD
:1013C800002328462146FFF791FBCDE90823CDF8F5
:1013D80018B0CDF81CA0CDF81090CDF81480029765
:1013E8000D9B03930C9B00930196144A08210B98BC
:1013F80059F0A2FD00200FB0BDE8F08F0094CDF8A1
:1014080004800F4A08210B9859F096FD0020F2E756
:101418002B460C4A01210B9859F08EFD6FF0040001
:10142800E9E700BFAFF30080005C2605000000007C
:101438006CFC060070FC060080EE360094FC06008A
:1014480058FC06007CFC060010B5082140F6014057
:1014580018F060F9D8B1044608210C302BF0CCFE06
:1014680002460F4B93F8903013F0010F0BD10D4843
:101478004FF000515CF0CEF90022214640F60140C1
:1014880018F09AF910BD04A1D1E90001F2E76FF054
:101498006800F7E7AFF30080908800020080002022
:1014A800000000201088000230B589B00C9D00288B
:1014B80039D00446002943D0D0F8200110F0010F9C
:1014C8004BD10020C4F80801C4F80C0104F5887059
:1014D800C4F81001C4F8140104F58C70C4F818019C
:1014E800C4F81C01002D45D02879002844D10120DA
:1014F800C4F820019FED227B8DED067B002004902F
:1015080003930290019000941F4B204639F0EEFBA4
:1015180025B1296811B1204639F0B2F9204667F0A3
:1015280016FA09B030BD194C4FF4337322461849E6
:10153800184857F0E9FD4FF4337120460BF03AFC98
:10154800124C40F2CD2322461349124857F0DCFDD5
:1015580040F2CD2120460BF02DFC0C4C40F2CE235E
:1015680022460E490B4857F0CFFD40F2CE212046C7
:101578000BF020FC0120BBE740F20110B8E700BFE8
:10158800FFFFFFFFFFFFFFFFB5BC030050B60700DA
:1015980038B70700A8AC060040B7070048B70700EF
:1015A8009FED010B704700BF000000000000F87FAE
:1015B8002DE9F04F1F469DB000230C4682460F923E
:1015C80018934FF00008984B4FF000091D68284603
:1015D800FFF706FD22468346179213782B2B3BD044
:1015E8002CD80D2B26D8082B26D8002B2FD000233B
:1015F8000D93179E3378302B74D1737803F0DF0383
:10160800582B65D10D9B17A9884A5046019318ABF2
:101618000297009319AB55F0A9FB10F00705044693
:1016280035D0062D1AD10F9B0BB101361E604246EC
:101638004B4637E0202BDAD10132CDE72D2BD6D11E
:1016480001230D93531C17935378002BD1D10F9B73
:10165800002BECD01C60EAE70023F2E7189A3AB1B5
:1016680035211AA868F0E4FA1899504655F03EFE5C
:10167800013D199A042D06D8DFE805F01903222543
:101688001900DDE91A89210701D549F000490F9BA6
:1016980013B1179B0F9A13600D9B002BC7D04246BE
:1016A80009F1004343EC102B1DB0BDE8F08FDDE9D4
:1016B8001A8302F2334223F4801343EA0259E2E721
:1016C800DFF86C91DFE76FF000494FF0FF38DAE799
:1016D800179B5A1C17925B78302BF9D0002BD6D069
:1016E800012300E00023002704930A22179BCDE979
:1016F80005770A9317980678A6F13003D9B2092915
:1017080024D95A46294667F0EFFE00282DD000203C
:101718003246059D83460346652A01D0452A13D1E2
:101728001DB9049A024392D00025179C621C179297
:1017380062782B2A6ED02D2A72D04FF0000CA2F1BD
:10174800300109297AD91794002699E005990130C2
:1017580008291790D7BF069902FB073702FB013308
:101768000693059B01330593C4E7179B03EB0B0214
:10177800179213F80B20059BA3B383461D46A2F1CD
:101788003003092B12D90123C6E7179B01305A1CD5
:1017980017925A78302AF8D0A2F13103082B00F2B8
:1017A800EF8483460020179B05460A93303A00F1E0
:1017B800010311D09B4400EB050C2B460A2163451D
:1017C80012D12B180135082B054419DC06990A2378
:1017D80003FB012306930023179A1846511C1791FF
:1017E8005278CCE70598D5E7082B03F1010303DC11
:1017F800069E4E430696E2E7102BD8BF4F43DEE71E
:101808000F2BDCBF0A2303FB0727E4E74FF0000B8D
:10181800012386E74FF0000CA21C1792A2788EE7EE
:101828004FF0010CF8E700BF7CEA070008EA070060
:101838000000F07F179A511C17915278302AF9D07E
:10184800A2F1310108293FF67FAF303A0792179A83
:101858000C92179A561C17965278A2F1300EBEF1C8
:10186800090F38D90C99761A082E44F61F6603DC3E
:1018780007998E42A8BF0E46BCF1000F00D07642F1
:10188800002D4FD1049908437FF401AF002B7FF45A
:10189800DEAE692A29D026DC492A26D04E2A7FF4D2
:1018A800D6AE9B4917A868F041F800283FF4CFAEA0
:1018B800179B1B78282B2FD11AAA964917A868F0CE
:1018C80049F8052828D11B9BDDF8688043F0FF49BB
:1018D80049F4E009DBE6079E0A2101FB0621A1F194
:1018E80030020792B5E76E2AD9E78B4917A868F046
:1018F8001DF800283FF4ABAE179B17A88749013B9A
:10190800179368F013F810B9179B01331793DFF892
:101918001C924FF00008BAE68148FFF741FE59ECE7
:10192800108BB4E6A6EB0B0306982C460C93059B8C
:10193800002B08BF2B46102D0593A8BF1024FEF7D7
:1019480049FD092D8046894613DC0C9B002B3FF48A
:101958009EAE0C9B78DD162B45DC7249424601EBA6
:10196800C3014B46D1E90001FEF7AEFD804689462A
:101978008DE66C4B03EBC40353E91223FEF7A4FD79
:10198800804689463846FEF725FD02460B46404606
:101998004946FEF7E3FB0F2D80468946D5DD2C1B13
:1019A8000C9B1C44002C25DC00F0A280644214F03F
:1019B8000F020AD05B4B4046494603EBC203D3E90A
:1019C8000023FEF7ABFE80468946241100F0908084
:1019D8001F2C40F3B18022234FF000084FF000097C
:1019E800CAF8003053E6C5F125030C9A934219DA78
:1019F8002C1B144414F00F030AD04A49424601EB49
:101A0800C3014B46D1E90001FEF75EFD80468946D9
:101A180034F00F046CD0B4F59A7F41DD2223CAF864
:101A2800003074E7C5F10F053E4C42464B4604EBC7
:101A3800C501D1E90001FEF747FD0C9B5D1B04EBD6
:101A4800C504D4E900238FE71633A8DBABEB060205
:101A5800344B4046494603EBC203D3E90023FEF763
:101A68005DFE83E7002306932223DFF8C0904FF042
:101A78000008CAF800301899504655F037FC069906
:101A8800504655F033FC0599504655F02FFC1099F7
:101A9800504655F02BFC0799504655F027FCF6E5C3
:101AA80000232411404649461F4F0493012C22DC91
:101AB8000BB180468946049BA9F154791A494246DC
:101AC80001EBC3014B46D1E90001FEF7FDFC174BC2
:101AD8000A4680460B4016498B429FD8A1F58011D3
:101AE8008B4286BFDFF84C904FF0FF3802F15479F3
:101AF800002304934BE0E20704D5D7E90023FEF75F
:101B0800E3FC0123049A6410083701320492CDE7FC
:101B180011330800F4E90700093308003B330800D3
:101B2800F1310800A8AA060080AA06000000F07F8C
:101B38000000A07CFFFFEF7F14F0100340464946E9
:101B4800AA4F18BF6A2304930023E20704D5D7E9F4
:101B58000023FEF7B9FC0123641007F10807F4D14C
:101B68000BB180468946049B43B1C9F30A524946E2
:101B7800C2F16B03002B4EDC6A230493002200237E
:101B880040464946FEF708FF00287FF424AF069B2D
:101B98005046059A00932B460A9955F011FC10906F
:101BA80000283FF43BAF0C9BABEB060B002BB4BFFC
:101BB8005B46002311930C9B23EAE37313930023E2
:101BC80007930593109B5046596855F04FFB0690B4
:101BD80000283FF449AF109B0C301A6903F10C013F
:101BE8000232920067F0E4FA1AAA19A9504649ECA1
:101BF800108BCDE90A8955F0BFFE189000283FF4F4
:101C080033AF0121504655F025FC03460590D0B965
:101C18000023059328E71F2B0EDD342B4FF0000817
:101C2800DBBF4FF0FF33C2F14B024FF05C799340BA
:101C3800D8BF03EA01099FE74FF0FF3202FA03F326
:101C480003EA080898E7199C1A9A002CA9BF119B67
:101C5800139BE718139EB8BF1E1B049BB8BF119FA8
:101C6800E41A634B1444C2F13602013C9C4280F2F0
:101C7800B0801B1B01251F2BA2EB0302CDBFC4F1B3
:101C88007F449D40002404F57F04C2BF04F57B44D3
:101C9800E23405FA04F407EB020B049B16445F4593
:101CA8001E443B46A8BF5B46B342A8BF3346002B41
:101CB800C2BFABEB030BF61AFF1A119B002B16DD04
:101CC8001A460599504655F085FC059000289FD086
:101CD8000146189A504655F0D3FB0E9000283FF461
:101CE800C3AE1899504655F001FB0E9B1893BBF1F3
:101CF800000F71DC0C9B002B08DD139A50460699E7
:101D080055F068FC069000283FF4ACAE002E08DDC4
:101D180032460699504655F0B7FC069000283FF425
:101D2800A1AE002F08DD3A460599504655F0ACFCA7
:101D3800059000283FF498AE069A5046189955F039
:101D48000FFD079000283FF48FAEC36805990E93E6
:101D58000023C36067F01FFF00284BDA0E9B53EA8D
:101D6800080340F0BC80C9F31303002B40F0B78090
:101D780029F000431B0D1B05B3F1D66F40F2AF806D
:101D8800079B5B6923B9079B1B69012B40F3A7805D
:101D980001220799504655F077FC0599079067F09E
:101DA800FAFE002840F39B8029F00043049A1B0D9B
:101DB8001B05002A79D0B3F1D66F6DD8B3F15C7FDB
:101DC80046D84FF000084FF000092223CAF8003027
:101DD80051E6002401255EE75A461899504655F009
:101DE80053FC1890002885D13EE600BF58AA06008B
:101DF80002FCFFFFCB4640F0A3800E9AC9F3130301
:101E0800002A40D09C4A934258D1049B42467BB951
:101E1800B8F1FF3F40F08980984B99453FF424AED4
:101E2800974BDDF8108009EA030303F5801922E6D1
:101E3800934B09EA0303B3F1D46F16D918F10101E2
:101E48001BD18E4A91453FF40FAE03F580198046A9
:101E58008C4B404649460022FEF736FB0B4680462F
:101E6800894603437FF407AEAFE71E0D4FF0FF31FD
:101E7800C6F16B06B1408845E7D0002C5ED014EA65
:101E88000B0FE5D01EE0002B4AD1B8F1000F8BD024
:101E980064B314EA0B0F2BE0A3F580134FF0FF385F
:101EA8006FEA13596FEA0959D2E7A3F580134FF087
:101EB800FF386FEA13596FEA0959DCE59CB114EA57
:101EC800090F0CD040464946049A67F054FBDDE9F7
:101ED8000A0153EC102BFEF741F980468946049B12
:101EE800002BB5D1C7E515EA080FEAE718EA050F90
:101EF800F5D0049A4046494667F03DFBDDE90A0102
:101F080053EC102BFEF728F90022002304460D4657
:101F1800FEF742FD00287FF454AFA046A946DEE74D
:101F2800002CB6D115EA080FE2E724B114EA090F2C
:101F38003FF4A1ADC6E718EA050FF9E72A42A0E782
:101F48000599079867F042FE00224FF0804355EC50
:101F5800104B20462946FEF733FD00286DD00E9B16
:101F6800002B78D1B8F1000F56D1C9F31303002B19
:101F780059D10022444B20462946FEF717FD002878
:101F880058D1204629460022404BFEF79DFA0446C8
:101F98000D4605F1004308940993394B0BEA0303F6
:101FA8001293129A3A4B9A42DDE9086740F0A980E9
:101FB800ABF1547949EC108B55F06AFCDDE9082344
:101FC80051EC100BFEF780FA42464B46FEF7C6F876
:101FD8000B462B4980462F4A194091425CD90B9AEF
:101FE800264B9A4203D10A9B01333FF43DADDFF8FB
:101FF8008C904FF0FF381899504655F077F90699AC
:10200800504655F073F90599504655F06FF9079900
:10201800504655F06BF9D5E5B8F1010F03D1B9F188
:10202800000F3FF4CEAE0024174D9FED0F7B8DEDD2
:10203800087BB2E70024154DABE7144B2046294630
:102048000022FEF741FA0E9B04460D46002BA0D055
:10205800CDE90845A1E79FED067B55EC174B8DEDC3
:10206800087B9AE7AFF30080000000000000F0BF93
:10207800000000000000F03FFFFF0F00FFFFEF7FB0
:102088000000F07F000050390000F03F0000E03F02
:102098000000E07FFFFF9F7C03F15479049B4E46CC
:1020A800002BA8D129F00043129A1B0D1B059A4258
:1020B800A1D120462946FEF7D7FDC9F31306FEF73E
:1020C800D5F90B4602462946204646EA0806FEF799
:1020D80043F80E9B04460D461E434BD02EA3D3E96E
:1020E8000023FEF763FC00287FF4C5AC2046294690
:1020F8002BA3D3E90023FEF777FC00283FF47BAF3E
:10210800B9E4049B13B3129BB3F1D46F1ED82046D5
:10211800294625A3D3E90023FEF752FC90B12946AE
:102128002046FEF76BFD012838BF0120FEF752F963
:102138000E9B04460D46D3B901F100431490159344
:10214800DDE9146707F1D663129A9F1A9DED0A0B11
:1021580055F09EFB3046394653EC102BFEF7B4F988
:10216800DDE90A23FDF7FAFF8046894696E7CDE9BF
:102178001445E5E70EA3D3E90023FEF717FCBCE7F7
:10218800652A3FF443AB452A3FF440AB0123FFF7F0
:1021980079BB00BFAFF300809535A094FFFFDF3F08
:1021A80035E5AF350000E03F0000C0FFFFFFDF412D
:1021B8009535A094FFFFCF3F2DE9F04F476A97B0C0
:1021C8008346209E08910C92129355EC104B8DED8E
:1021D800000B7FB9102053F05FFD0246CBF82400B6
:1021E80020B9A74BEA21A74853F026FDC0E901779B
:1021F8000760C760DBF82430196859B15A680123B1
:10220800584693404A608B6055F070F8DBF82430EC
:1022180000221A602B1EB7BF23F0004300230122BF
:102228000193A8BF3360019F974BB8BF3260BB438F
:1022380019D142F20F73129A1360C7F313032343A1
:1022480000F0DB85219B53B9904B21E0904B039321
:102258000833219A1360039817B0BDE8F08F8B4BB1
:1022680003930333F5E79DED007B0022002351EC37
:10227800170B8DED0A7BFEF78FFB804650B10123CB
:10228800129A1360219B13B1824B219A1360824BDF
:102298000393E0E7C7F30A5614AA15A958469DED1B
:1022A8000A0B55F069FB0290002E76D00B9BA6F224
:1022B800FF36CDF84C80C3F3130343F07F53DDE9B9
:1022C8000A0143F4401319460022744BFDF744FFFA
:1022D80065A3D3E90023FEF7F7F865A3D3E9002344
:1022E800FDF73CFF04460D463046FEF783F862A32F
:1022F800D3E90023FEF7E8F802460B4620462946B4
:10230800FDF72CFF04460D46FEF778FB0022074632
:10231800002320462946FEF749FB40B13846FEF720
:1023280069F822462B46FEF737FB00B9013F162F06
:1023380052D85B4B03EBC703DDE90A01D3E900235D
:10234800FEF734FB002849D0013F00231193149B6A
:102358009B1B5A1E4CBFC3F101030023079245BFC4
:102368000693002306930793002F39DB079B1097EA
:102378003B44079300230993089B092B66D8052B38
:10238800C5BF043B002401240893089B023B032B90
:1023980067D8DFE803F02D3A3859DDE914631E44A5
:1023A80006F23243202BC9BFC3F14003C3F1200317
:1023B8009F4006F21243D8BF04FA03F006F1FF3635
:1023C800C4BF24FA03F347EA0300FEF703F8012227
:1023D800A1F1F873139276E70123B7E71190B6E7F6
:1023E800069BDB1B06937B42099300231093C3E7EC
:1023F80000230D930C9B002B56DC012399461A46AB
:1024080004930C920CE00123F3E700230D930C9B3B
:10241800FB1803F1010904934B46012BB8BF0123B4
:10242800DBF824000021042202F114059D423FD963
:102438004160584654F01AFF039000283BD1194BCD
:1024480002464FF4D571CEE60123DFE701240023CD
:102458000D9408934FF0FF330022994604931223FA
:10246800CFE701230D93F5E761436F63A787D23F59
:10247800B3C8608B288AC63FFB799F501344D33F6B
:10248800453308005C3308000000F07F4133080042
:102498003833080015330800143308000000F83FEB
:1024A800A8AA0600CF3308000C9B99460493B7E707
:1024B80001315200B8E7DBF82430B9F10E0F039A66
:1024C8001A606FD8002C6DD0002F36DD07F00F0290
:1024D800A04BF8054FEA271403EBC20393ED007BEA
:1024E8008DED0E7B17D59C4B04F00F044FF00308BD
:1024F800D3E90823DDE90A01FEF710F9CDE9000167
:10250800954D5CB9DDE90E23DDE90001FEF706F91A
:10251800CDE900012BE04FF00208F1E7E10709D50A
:1025280008F10108DDE90E01D5E90023FDF7CCFF2C
:10253800CDE90E0164100835E3E700F007817C421D
:10254800844B854D4FF0020804F00F02241103EB71
:10255800C203DDE90A01D3E90023FDF7B5FF002333
:10256800CDE90001002C40F0E580002BD0D1119B73
:10257800DDE90045002B00F04C810022774B204616
:102588002946FEF713FA002800F04381B9F1000F3D
:1025980000F03F81049B002B00F3E480DDE90A345E
:1025A800CDE90034159B002B02DB0E2F40F342824D
:1025B8000D9A002A40F06782099C0025DDF81880F2
:1025C800B8F1000F0DD0079B002B0ADD4345069A92
:1025D800A8BF4346D21AA8EB03080692079AD31A53
:1025E8000793099B0BB30D9B002B00F0A682002CD0
:1025F80000F0A18229462246584654F0EBFF029A81
:1026080001460546584654F03BFF0299064658468F
:1026180054F06CFE099B1B1B099300F09182099AE8
:102628003146584654F0D6FF02900121584654F0DE
:1026380011FF109B0446002B00F084821A460146C5
:10264800584654F0C7FF089B0446012B03DC009B47
:10265800002B00F07C820026236904EB83031869B1
:1026680067F04AFAC0F120001096079B184410F052
:102678001F0000F09182C0F12003042B40F38182F7
:10268800C0F11C00069B034480440693079B034447
:102698000793069B002B05DD1A460299584654F00D
:1026A800F3FF0290079B002B05DD21461A4658468A
:1026B80054F0EAFF0446119B002B00F07682214675
:1026C800029867F068FA002880F26F8200230A22D5
:1026D8000299584654F02CFE0D9B7E1E0290002B4A
:1026E80000F05C82002329460A22584654F020FE56
:1026F800049B0546002B03DC089B022B00F35E823B
:10270800B8F1000F05DD29464246584654F0BCFF93
:102718000546109B002B00F0D0826968584654F09B
:10272800A5FD0746002840F07F820D4B024640F287
:10273800EA2158E5E20706D508F10108D5E90023A2
:10274800FDF7C2FE0123641008350BE74FF00208BD
:102758000DE700BFA8AA060080AA06000000F03F07
:10276800CF33080020460022AC4B2946FDF7ACFECB
:102778007E1E08F10108049CCDE900014046FDF7E2
:1027880039FEDDE90023FDF79FFEA54B0022FDF78A
:10279800E5FCA1F15073CDE90E010F93002C3BD15C
:1027A8000022A04BDDE90001FDF7D6FC02460B46EE
:1027B800CDE90023DDE90E23FEF716F9002840F0E5
:1027C8005781DDE90E2101F10043DDE90001FEF743
:1027D800EDF800283FF4E2AE002425460C9BDDF816
:1027E8000CA0DE434FF000082146584654F07EFD09
:1027F800002D00F0A980B8F1000F05D0A84503D03E
:102808004146584654F072FD2946584654F06EFD2C
:102818009AE03E464C46B1E7834B03EBC40353E9C9
:102828000201039B1C440D9B002B4AD002460B4619
:1028380000207E49FDF772FFDDE90E23FDF78CFCD1
:10284800DDF80CA0CDE90E01DDE90001FEF7D6F8B0
:102858000546FDF7CFFD024630350B46DDE90001A0
:10286800FDF77AFC0AF8015B02460B46CDE9000148
:10287800DDE90E01FEF7B8F8002865D100206C49A3
:10288800DDE90023FDF768FC02460B46DDE90E0191
:10289800FEF7AAF8002840F00D81A24500F0EA8072
:1028A80000225E4BDDE90E01FDF70EFE00225B4BB8
:1028B800CDE90E01DDE90001FDF706FECDE90001D5
:1028C800C2E7DDE90E23FDF7FFFDA046DDF80CA009
:1028D800CDE90E01DDE90001FEF790F80546FDF7A8
:1028E80089FD024630350B46DDE90001FDF734FC71
:1028F8000AF8015B02460B46A245CDE900234FF0DA
:10290800000223D1494BDDE90E01FDF727FC024601
:102918000B46DDE90001FEF767F8002840F0CA80A1
:1029280000204249DDE90E23FDF716FC02460B465E
:10293800DDE90001FEF73AF870B1C24608F1FF3848
:102948001AF8013C302BF8D0374655E0334BFDF7E9
:10295800BBFDCDE90001BDE7DDE90A34CDE900346E
:10296800159B002BFFF628AE0E2F3FF725AE2E4BFA
:1029780003EBC70393ED007B0C9B002B8DED047BD1
:1029880002DAB9F1000F64D0DDF80CA0DDE90045EA
:10299800DDE9042320462946FDF7C0FEFEF72EF8A0
:1029A8000646FDF727FDDDE90423FDF78DFD024608
:1029B800204606F130040B462946FDF7CDFB0AF800
:1029C800014B039C02460B46AAEB0404A14540F0C8
:1029D8008280FDF7C3FB04460D46DDE90423FEF7BC
:1029E80003F8002865D120462946DDE90423FDF7D0
:1029F800D3FF08B1F3075CD40299584654F076FC2B
:102A0800002301378AF80030129B1F60219B002B9E
:102A18003FF421ACC3F800A01DE400BF000024402F
:102A280000001C4000001440A8AA06000000E03F77
:102A38000000F03FA24B03EBC70393ED007B0C9B18
:102A4800002B8DED047B9FDAB9F1000F9CDC7FF43D
:102A5800C3AE00229B4BDDE90401FDF735FDDDE93E
:102A68000023FDF7B7FF044600287FF4B5AE3E46C5
:102A78002546B4E0DDE90A34CDE90034159B002B86
:102A880001DB0E2FD6DD089A012A36DC139A82B3B1
:102A980003F23343099CDDF81880069A0121584651
:102AA8001A440692079A1A44079254F0D3FC054632
:102AB80086E53E4653469A4613F8012D392A06D133
:102AC800039A9A42F7D13022039901360A701A788C
:102AD80001321A7038E700227B4BFDF7F5FC002223
:102AE800002304460D46FDF757FF00283FF450AF7A
:102AF80082E7149BC3F13603CCE709F1FF34099B45
:102B0800A34208DBB9F1000FA3EB04040EDBDDF8E8
:102B180018804B46C1E7099B109AE31A0994DDF81F
:102B2800188000241A444B461092B6E7069BA3EB84
:102B380009080023B1E7029E71E5099A029970E538
:102B4800029672E5089B012B17DC009BABB9019B31
:102B5800C3F313039BB9019B23F00046360D3605DA
:102B680036B1069B012601330693079B0133079371
:102B7800109B002B7FF470AD1096012075E50026A0
:102B8800F6E73FF486AD1C33069A1A449844069239
:102B9800079A1A4407927CE50346F4E7049B002B46
:102BA8002BDC089B022B09DC27E0B9F1000F1DDCA8
:102BB800089B022B1ADD3E46CDF81090049B002B93
:102BC8007FF40CAE21460522584654F0B1FB01466D
:102BD8000446029866F0DFFF00287FF7FFADDDF8B6
:102BE8000CA0312301360AF8013BFBE50D9B3E465C
:102BF800CDF81090002B7FF483AD039F21460298F7
:102C080066F0D7FC039B00F13009049A07F8019B92
:102C1800FB1A9A4240F3CB8000230A2202995846B5
:102C280054F086FB0290E9E72A6905F10C010C30A3
:102C38000232920066F0BCFA01223946584654F036
:102C480023FD039BA846054603F1010ADDE903239A
:102C580013440793009B03F0010309930AF1FF3320
:102C680021460298049366F0A4FC4146069000F1C0
:102C78003009029866F08FFF2A46214607465846D3
:102C880054F06EFDC268014602B3584654F02EFB5C
:102C9800002F3ADA01220299584654F0F5FC2146F1
:102CA800029066F078FF002803DC29D119F0010FA3
:102CB80026D0B9F1390F1DD132E02846C1E700BF4F
:102CC800A8AA060000001440000024400A900298B8
:102CD80066F061FF0A990C90584654F007FB0C9A6D
:102CE8005ABB089B53B9099B43B9B9F1390F17D09F
:102CF800002F05DD069B03F1310901E0002F2ADAD8
:102D0800DDF810A00AF8019B6EE5089B3B4304D14F
:102D1800009B03F00103002BBCD0B9F1390F36D169
:102D2800049F392307F8013BBA46013F1AF8013CD2
:102D3800392B5AD001333B7056E5002F06DB089B30
:102D48003B4306D1009B03F0010313B9002AA1DC21
:102D5800D6E7002AE1DC079B57460AF8019C534551
:102D68002ED000230A220299584654F0E1FAA845C9
:102D780002904FF000034FF00A02414658460BD12B
:102D880054F0D6FA804605460AF1010A66E7DDF8EE
:102D980010A009F10109B5E754F0CAFA294680469E
:102DA80000230A22584654F0C3FA0546ECE7049B70
:102DB8004FF00008002BCCBF1F460127039B1F4480
:102DC80001220299584654F05FFC2146029066F0B1
:102DD800E2FE0028A8DC02D119F0010FA4D1BA46FE
:102DE80017F8013D302BFAD0FEE4039BBB429BD180
:102DF8003123039A01361370F6E4219B002B7FF4EC
:102E080025AA014BFFF744BA3833080010B500F083
:102E180025F868B104460E4B1B6813F0070F01D163
:102E2800204610BD0B4A0121094857F0B7FBF7E7C8
:102E380004F028FA04460028F2D0054B1B6813F06A
:102E4800070FEDD0044A0121014857F0A7FBE7E737
:102E5800F416002070AB060094AB060090B585B060
:102E680000AF624B1B6803F00703022B71D96C4655
:102E780000233B7102237B710122BA710322FA718C
:102E88003B7204237B728CB0EC461CF110022DD0EF
:102E98004FF01A0E2AB1BEF1040F02DD544BCCF8E4
:102EA800143000233B7102237B712AB1BEF1080F55
:102EB80002DD504BCCF818300123BB710323FB71A2
:102EC8002AB1BEF10C0F02DD4B4BCCF81C300223AB
:102ED8003B7204237B72B2B1BEF1100F02DD474B87
:102EE800CCF820300CF1240300210AE06FF0004EEA
:102EF800D0E701F11000384410F80C0C03F8010B6E
:102F080001310529F5D9BEF1190F3FDD1A234AB160
:102F18000521397000217970B9700321F97038687A
:102F2800CCF8100000216FF300016FF341016FF33B
:102F380082016FF3C501032060F38811C3F30A030C
:102F480063F353216FF31F51002328480EF062FAF0
:102F5800A546264B1B6803F00703022B19D807F177
:102F68000F0009F00DFFFB7BCBB1012B2FD12448BB
:102F78000EF082F8044628B91C4B1B6803F00703BF
:102F8800022B1ED820461437BD4690BD6FF01B0398
:102F9800BDE71C4A0321154857F000FBDFE71A4834
:102FA8000EF06AF804460028ECD1104B1B6803F0B9
:102FB8000703022BE6D9154A03210C4857F0EEFA0D
:102FC800E0E7134A0321094857F0E8FADAE7114C19
:102FD800382322461049114856F096F8104856F002
:102FE80093F83821204609F0E5FE00BFAC16002012
:102FF800CCAB0600DCAC060018AC060004AD06003D
:1030080028AD060024AC06002CAD060040AC060036
:1030180060AC060080AC0600D4D30600A8AC06005D
:10302800C8AC0600014B1870704700BF4C15002053
:1030380008B10068704710B5074C40F24A23224691
:103048000649074856F060F8064856F05DF840F221
:103058004A21204609F0AEFE30AD060060AD0600FC
:10306800A8AC060074AD060010B5FFF7E1FF0446F2
:103078000378032B38D0062B19D0022B0AD0324AFA
:10308800126812F0060F0BD0304A02212E4857F072
:103098008FFA05E02C4B1B6803F00703022B00D8BE
:1030A80010BD2B4A0321284857F078FAF8E7264B39
:1030B8001B6803F00703022B10D8606805F084F939
:1030C80003460028ECD0204A126812F0070FE7D018
:1030D800204A01211C4857F06BFAE1E71E4A0321F8
:1030E800194857F05BFAE8E7174B1B6803F007032A
:1030F800022B1CD8606854F0F0FE20B1124B1B68FC
:1031080013F0060F19D1606805F074F910F1780F03
:10311800C6D00028C4D00C4B1B6813F0070FBFD0D3
:1031280003460E4A0121084857F042FAB8E70C4A0C
:103138000321054857F032FADCE70A4A022102481F
:1031480057F02CFADFE700BFE01600204CAE06006F
:1031580088AD0600A4AD060094AD060018AE0600C2
:10316800DCAD0600F0AD060010B588B000220023E3
:10317800CDE90623002304930522039202930193C9
:103188000093204B4FF400621F49204837F0AEFDF2
:103198001F4B18601F4937F073FB70B104461E4B74
:1031A8001B6813F0070F02D1204608B010BD1B4A58
:1031B8000121194857F0F2F9F6E700220023CDE97A
:1031C800062300230493052203920293019300939C
:1031D800134B4FF400621349134837F087FD134B24
:1031E8001860134937F04CFB04460028DCD00A4B22
:1031F8001B6813F0070FD7D00E4A0121064857F075
:10320800CDF9D1E785360000782C0120A81F0020D1
:10321800D84C002074AE0600E016002084AE0600EC
:10322800D533000078240120A01E0020D44C0020B3
:10323800A8AE0600BCAE060010B541F69A120023EF
:10324800274928482AF0EAFB68B10446264B1B6840
:1032580013F0070F01D1204610BD244A012122484E
:1032680057F09CF9F7E741F69A12002320492148C4
:103278002AF0D4FB044650B11B4B1B6813F0070F10
:10328800E9D01D4A0121184857F088F9E3E741F6CB
:103298009A12002319491A482AF0C0FB044650B173
:1032A800114B1B6813F0070FD5D0164A01210E48A1
:1032B80057F074F9CFE741F69A12002312491348E0
:1032C8002AF0ACFB04460028C5D0074B1B6813F056
:1032D800070FC0D00E4A0121034857F05FF9BAE73B
:1032E8007C1E0020F4A60600E0160020E4AE0600CE
:1032F800841E00201CA7060000AF0600741E0020D4
:10330800E0A606001CAF0600941E002044A7060095
:1033180038AF0600F0B589B004460D46164603AB33
:1033280000930022ADF804201421ADF80610029392
:103338000221017042704360684654F0D0FD78B1B4
:1033480007461E4B1B6813F0070F02D1384609B019
:10335800F0BD03461A4A0121184857F029F9F5E744
:10336800684654F0DCFD074658B1144B1B6813F04F
:10337800070FEBD00346134A0121104857F018F9FC
:10338800E4E7691EC9B204F1080006F095FC051EC1
:1033980005DB0135BDF8043063703560D6E7074BAF
:1033A8001B6813F0070F01D12F46CFE72B46064ABB
:1033B8000121024857F0FCF8F6E700BFE0160020AC
:1033C80054AF060080AF0600B0AF060000B58BB062
:1033D8000EE0B62200929F4A01219F4857F0F3F869
:1033E80018E09DF81430022B30D09C4B1B7883BB1F
:1033F8004FF0FF324FF0FF33CDE9002302AA06A9B0
:1034080097482AF05BFA58B10346934A126812F0BB
:10341800070FDED1404080F311884FF0030002DF30
:103428009DF808305A1E052A00F2088101A151F8BA
:1034380022F000BFED3400009D350000EB330000A2
:1034480099340000453600000736000000F006FEFB
:10345800CBE700F051FE0020FFF7E4FD022008F062
:1034680081FD03460028C3D07B4A126812F0070F7B
:1034780006D1404080F311884FF0030002DFB7E720
:10348800CA220092734A0121734857F09CF8F0E76A
:10349800724B1B78012BABD09DF81430022B16D041
:1034A8000120FFF7BFFD01F03FF8022008F022FDE0
:1034B800034600289CD0684A126812F0070F09D109
:1034C800404080F311884FF0030002DF90E700F0DE
:1034D800CDFDE5E7DD2200925E4A01215E4857F006
:1034E80072F8EDE70023009307AB08AA9DF81410C3
:1034F800039806F0F9FA034658B1574A126812F0D1
:10350800060F3FF475AF574A0221534857F050F859
:103518006EE79DF81430012B17D0022B7FF468AFAB
:1035280000220899079800F0A9FD034600283FF4F7
:103538005FAF494A126812F0070F23D1404080F369
:1035480011884FF0030002DF52E7079A002108466E
:1035580000F094FD034600283FF44AAF3E4A126843
:1035680012F0070F06D1404080F311884FF0030096
:1035780002DF3DE7F1220092364A0121364857F032
:1035880022F8F0E7F5220092324A0121324857F03A
:103598001AF8D3E709AB009300231A4601210398D0
:1035A80006F0A2FA034658B12B4A126812F0070F28
:1035B8003FF41EAF2B4A0121274856F0F9FF17E7C1
:1035C800099802F0DBF960B1234B1B6813F0070F71
:1035D8003FF40EAF099B244A01211F4856F0E8FF2B
:1035E80006E71D4B1B6803F00703022B7FF600AFAD
:1035F800099B1E4A0321184856F0DAFFF8E6164BD5
:103608001B6813F0060F13D11321039803F0E6FD8E
:10361800034600283FF4ECAE0F4A126812F0070F79
:103628003FF4E6AE124A01210B4856F0C1FFDFE62F
:10363800104A0221084856F0B1FFE5E7064A126829
:1036480012F0060F3FF4D4AE0B4A0221024856F09E
:10365800AFFFCDE6E0AF0600E01600204C150020D5
:10366800841E002004B0060020B0060048B0060002
:10367800A8B0060078B00600C4B0060000B587B050
:103688004FF0FF324FF0FF3305A951482AF096F862
:1036980058B103464F4A126812F0070F2ED1404026
:1036A80080F311884FF0030002DF40F6CD4200237B
:1036B80003A905982AF02CF8034650B1454A126828
:1036C80012F0070F22D1404080F311884FF0030019
:1036D80002DF9DF81030012B20D1039B9A1E042A8B
:1036E80069D801A151F822F0773700005737000058
:1036F80041370000993700008936000044220092C3
:10370800354A0121334856F05EFFC8E74922009246
:10371800314A01212F4856F056FFD4E72D4B1B683C
:1037280013F0060F02D107B05DF804FB2B4A022103
:10373800284856F033FFF6E7264B1B6813F0060FB0
:103748009ED0274A0221234856F028FF98E754F0D4
:10375800BCFB0346002893D01E4A126812F0060FDD
:103768008ED0204A02211B4856F022FF88E754F0E9
:10377800B0FB0346002883D0164A126812F0060FE1
:103788003FF47EAF184A0221124856F011FF77E73E
:10379800002004F06FFD034600283FF471AF0D4A86
:1037A800126812F0060F3FF46BAF104A0221094865
:1037B80056F0FEFE64E7074A126812F0060F3FF45F
:1037C8005FAF0B4A0221034856F0F2FE58E700BFEC
:1037D8007C1E0020E0160020E0AF0600ECB00600DA
:1037E80004B1060048B1060068B1060088B10600B9
:1037F800A0B10600014B1878704700BF4C15002097
:1038080010B584B0019002918DF80C20164B1B78EE
:103818000BB104B010BD04AB13E9070006F098FA29
:10382800044658B1114B1B68834207D010F18C0F26
:1038380007D00F4B1B6813F0060F0DD10B4B1C6004
:10384800E7E70B4B1B6813F0060FF7D0094A022174
:10385800074856F0A3FEF1E70346074A0221044849
:1038680056F0A6FEEAE700BF4C150020D04C002019
:10387800E0160020C4B10600E0B10600B0B586B07D
:1038880002AF0023FB6009F073FC58B10346A54A58
:10389800126812F0070F48D1404080F311884FF0AA
:1038A800030002DFFFF7B2FA034650B19D4A1268DF
:1038B80012F0070F42D1404080F311884FF0030007
:1038C80002DFFFF751FC0446002873D0954B1B68B4
:1038D80013F0070F63D06D4600233B7202237B72FF
:1038E80088B00DF1080C1CF1100230D00E2022B166
:1038F800042802DD8C4BCCF8143000233B710223E2
:103908007B713AB3082802DD884BCCF818300CF1EB
:103918001C03002101291DD801F1100EBE441EF818
:103928000CEC03F801EB0131F4E74FF4FC72009260
:103938007F4A01217B4856F046FEADE740F2FB1274
:1039480000927B4A0121774856F03DFEB3E76FF0BD
:103958000040CCE70D2861DD0E234AB103213972FE
:1039680000217972B9720121F972B868CCF8100097
:1039780000216FF300016FF341016FF382016FF3D0
:10398800C501012060F38811C3F30A0363F35321CF
:103998006FF31F51002363480DF03CFDAD46614BAA
:1039A8001B6813F0070F3CD1404080F311884FF09B
:1039B800030002DFFFF740FC044600286ED0594B95
:1039C8001B6813F0070F5ED06D4600233B7202237D
:1039D8007B7288B00DF1080C1CF110022BD00E2060
:1039E80022B1042802DD504BCCF8143000233B717F
:1039F80002237B7112B3082802DD4E4BCCF8183035
:103A08000CF11C030021012918D801F1100EBE4445
:103A18001EF80CEC03F801EB0131F4E76FF01B031F
:103A28009BE74FF4FF7300932346414A01213D4829
:103A380056F0C9FDB8E76FF00040D1E70D2861DD09
:103A48000E234AB10321397200217972B97201211A
:103A5800F972B868CCF8100000216FF300016FF319
:103A680041016FF382016FF3C501012060F38811F2
:103A7800C3F30A0363F353216FF31F51002329484B
:103A88000DF0C8FCAD46274B1B6813F0070F3CD15F
:103A9800404080F311884FF0030002DF02F068FF16
:103AA800044600287AD01F4B1B6813F0070F6AD012
:103AB8006D4600233B7202237B7288B00DF1080C1F
:103AC8001CF110022BD00E2022B1042802DD164B67
:103AD800CCF8143000233B7102237B7172B30828A1
:103AE80002DD154BCCF818300CF11C03002101291C
:103AF80024D801F1100EBE441EF80CEC03F801EBBB
:103B08000131F4E76FF01B039BE740F201230093B8
:103B18002346074A0121034856F055FDB8E76FF0E0
:103B28000040D1E7E0160020105407000CB2060050
:103B3800E0AF060038B2060064B206000D2862DD68
:103B48000E234AB10321397200217972B972012119
:103B5800F972B868CCF8100000216FF300016FF318
:103B680041016FF382016FF3C501012060F38811F1
:103B7800C3F30A0363F353216FF31F5100237F48F4
:103B88000DF048FCAD467D4B1B6813F0070F3DD187
:103B9800404080F311884FF0030002DF784806F0B8
:103BA800E7F8044600286ED0744B1B6813F0070F23
:103BB8005ED06D4600233B7202237B7288B00DF104
:103BC800080C1CF110022BD00E2022B1042802DDB3
:103BD8006C4BCCF8143000233B7102237B7112B379
:103BE800082802DD684BCCF818300CF11C030021C2
:103BF800012918D801F1100EBE441EF80CEC03F888
:103C080001EB0131F4E76FF01B039AE74FF40173FE
:103C1800009323465D4A0121584856F0D4FCB7E783
:103C28006FF00040D1E70D2877DD0E234AB103215C
:103C3800397200217972B9720121F972B868CCF829
:103C4800100000216FF300016FF341016FF382014F
:103C58006FF3C501012060F38811C3F30A0363F30E
:103C680053216FF31F51002344480DF0D3FBAD4699
:103C7800424B1B6813F0070F52D1404080F3118864
:103C88004FF0030002DF04F009FB034650B13B4A42
:103C9800126812F0070F4DD1404080F311884FF0A1
:103CA800030002DF04F0BCFB034650B1334A12683C
:103CB80012F0070F47D1404080F311884FF00300FE
:103CC80002DF07F10C0214213148FFF723FB0346FA
:103CD80050B12A4A126812F0070F3DD1404080F3D4
:103CE80011884FF0030002DFF968012300930023D5
:103CF8001A46274804F0B2F9034650B11F4A126821
:103D080012F0070F31D1404080F311884FF00300C3
:103D180002DF00201037BD46B0BD6FF01B0385E7FA
:103D280040F2072300932346184A0121134856F00E
:103D38004AFCA2E740F20A220092144A01210F48E5
:103D480056F041FCA8E740F20D2200920F4A0121EB
:103D58000A4856F038FCAEE74FF4047200920B4A5A
:103D68000121064856F02FFCB8E740F213220092D2
:103D7800064A0121014856F026FCC4E7E016002057
:103D8800296400001054070084B20600E0AF060062
:103D9800304C0020044B01221A701A745A761A7695
:103DA800DA719A711A7170474C4D00202DE9F04173
:103DB800ADF5386D02AF0026C7F86C6BAEE0404039
:103DC80080F311884FF0030002DF04EB440007F68C
:103DD800783303EB8405954B1A6855F8341C07F5BE
:103DE800717303EB801065F0E3F955F8341C9048C3
:103DF8002EF052FD0134092C1DDC4FF0FF324FF03C
:103E0800FF33CDE90023894A07F6443303EB8401E5
:103E180087482EF00DFD03460028D6D0854A126843
:103E280012F0070FCBD08D220092834A01218148DE
:103E380056F0C9FBC3E7814B1B7C002B5FD0804B3E
:103E48001B68002B74D107F66C337E4A4FF4F0617F
:103E580007F5717001F044FF044600284FD0754BF8
:103E68001B6813F0070F3FD06D4600233B710223F8
:103E78007B7188B002A911F1100200F097804FF011
:103E88000E0C22B1BCF1040F01DD6F4B4B61002316
:103E98003B7002237B70002A40F08B80BCF10D0F31
:103EA80040F398800E2342B10320387100207871C6
:103EB800B8710120F871786808616FF300086FF332
:103EC80041086FF382086FF3C508012161F3881870
:103ED800C3F30A0363F353286FF31F5800234146C3
:103EE80054480DF097FAAD46524B1B6813F0070F74
:103EF80073D1404080F311884FF0030002DFB6F51C
:103F08007A7F73D001364D4B1B7C3BB14B4B5A7EAD
:103F1800D7F86C1B4B4B1868FFF772FC4FF0FF3259
:103F28004FF0FF33012149483AF0B4FE002462E71C
:103F3800474A0092474A4FF47071381D2EF0C8F96D
:103F4800034650B13B4A126812F0070F1ED1404099
:103F580080F311884FF0030002DF009707F57173B3
:103F680010224FF47071381D60F0A1FB0346002841
:103F78003FF469AF2F4A126812F0070F0ED1404084
:103F880080F311884FF0030002DF5CE79C22009267
:103F9800294A0121274856F016FBD8E7A1220092AA
:103FA800254A0121234856F00EFBE8E76FF0004C44
:103FB80067E7BCF1080F01DD274B8B6101F11C039A
:103FC800002004E017F800E003F801EB01300128B5
:103FD800F8D963E76FF01B0365E7A723009323462F
:103FE800154A0121134856F0EEFA82E707F53762C1
:103FF80007F674310E482EF077FC0646002882D06A
:104008000C4B1B6813F0070F07D1404080F3118851
:104018004FF0030002DF002675E7AE230093034646
:10402800054A0121034856F0CEFAEEE7E44C002099
:1040380044020020D8150020E0AF06004C4D0020B7
:10404800E84C0020DC4C002010540700300200200F
:10405800E04C0020EC4C0020A8B2060008B5002176
:1040680001483AF08FFF08BD704D002008B502489E
:1040780065F039F808BD00BF704D002070B50546E1
:104088000E46144653F0C9FE60B1184BDD61204658
:1040980053F0C3FEB8B1154BDC602EB3134B5E6111
:1040A800002022E0002DF2D0114B1B6813F0070FFF
:1040B80002D16FF0150018E02B460E4A01210C487A
:1040C80056F076FAF5E7002CE7D0094B1B6813F099
:1040D800070F02D16FF0150007E02346054A0121BA
:1040E800034856F065FAF5E7002070BD4C4D0020F6
:1040F800D8150020B8B20600F0B58BB008AFFFF7AE
:1041080049FE9C4B93F86430002B4AD09A4B93F8A5
:104118006430002B00F0B780984CEC4604F1100E88
:10412800BEE80F00ACE80F00DEF80030CCF8003035
:1041380094E80F0002F074F80546002800F05B814F
:104148008F4B1B6813F0070F00F04A816E4600235F
:104158003B7102237B7188B0344616F1100200F0DF
:1041680005810E201AB1042801DD864B6361002306
:104178003B7002237B70002A00F00E81082801DDC5
:10418800814BA36104F11C030021012900F2048181
:1041980001F1080CBC441CF808CC03F801CB013130
:1041A800F3E774482EF022FC05460028AED0744B85
:1041B8001B6813F0070F4DD06E4600233B71022396
:1041C8007B7188B0344616F1100212D00E201AB155
:1041D800042801DD6B4B636100233B7002237B7075
:1041E800A2B1082801DD694BA36104F11C03002179
:1041F8000AE06FF00040EAE701F1080CBC441CF843
:1042080008CC03F801CB01310129F5D90D282DDDA2
:104218000E2342B10321397100217971B97101214D
:10422800F9717868206100216FF300016FF3410193
:104238006FF382016FF3C501012060F38811C3F3A6
:104248000A0363F353216FF31F5100234C480DF009
:10425800E1F8B5464A4B1B6813F0070F09D14040F7
:1042680080F311884FF0030002DF4FE76FF01B0364
:10427800CFE74FF4C07300932B46454A01214048CD
:1042880056F0A1F9EBE73C482EF0B0FB05460028B4
:104298003FF442AF3A4B1B6813F0070F4DD06E4600
:1042A80000233B7102237B7188B0344616F110025B
:1042B80012D00E201AB1042801DD324B63610023AD
:1042C8003B7002237B70A2B1082801DD314BA3614A
:1042D80004F11C0300210AE06FF00040EAE701F155
:1042E800080CBC441CF808CC03F801CB01310129A7
:1042F800F5D90D282DDD0E2342B103213971002196
:104308007971B9710121F9717868206100216FF321
:1043180000016FF341016FF382016FF3C5010120C2
:1043280060F38811C3F30A0363F353216FF31F513A
:10433800002313480DF06EF8B546114B1B6813F0B7
:10434800070F09D1404080F311884FF0030002DFC6
:10435800E2E66FF01B03CFE740F2851300932B468C
:104368000B4A0121064856F02EF9EBE76FF00040A2
:10437800F8E600BFAC020020440200204C4D0020AB
:10438800D81500201054070010B30600D8B2060054
:10439800E0AF0600F4B206000D2857DD0E2342B147
:1043A8000321397100217971B9710121F971786896
:1043B800206100216FF300016FF341016FF3820167
:1043C8006FF3C501012060F38811C3F30A0363F397
:1043D80053216FF31F51002343480DF01BF8B546D6
:1043E800414B1B6813F0070F33D1404080F311880D
:1043F8004FF0030002DF3D4B012283F820201B7C95
:1044080013B13B4B1B6873B307F0FAF9034650B17D
:10441800354A126812F0070F54D1404080F31188D2
:104428004FF0030002DF334801F0ACFB034650B104
:104438002D4A126812F0070F4DD1404080F31188C1
:104448004FF0030002DF0C37BD46F0BD6FF01B03D1
:10445800A5E740F2891300932B46274A01212248F9
:1044680056F0B1F8C1E700220023CDE90623002366
:104478000493032203920293019300931F4B42F685
:10448800F8221F491F4836F031FC194B18601E49A5
:1044980036F0F6F903460028B6D0134A126812F02F
:1044A800070F06D1404080F311884FF0030002DF68
:1044B800AAE740F2931200920F4A01210A4856F0E7
:1044C80082F8EFE740F29B1200920B4A012106485E
:1044D80056F079F8A1E74FF4CF720092064A01210D
:1044E800014856F070F8A8E7D81500204C4D002078
:1044F800804D002044020020E0AF0600B53D0000DA
:1045080078340120B020002028B3060010B50446F6
:10451800FFF7F2FD034A0821204656F00DFD002062
:1045280010BD00BF30B30600F0B589B006AF654BCB
:1045380093F820305BB9644B1B6813F0060F00F04A
:10454800B180624A0221604856F028F8AAE007F0D4
:104558008DF9034650B15C4A126812F0070F53D127
:10456800404080F311884FF0030002DF01F04CFB5C
:10457800034650B1544A126812F0070F4DD140401B
:1045880080F311884FF0030002DF4E4CEC4604F133
:10459800100EBEE80F00ACE80F00DEF80030CCF8D3
:1045A800003094E80F0001F0C7FD054600286FD0E1
:1045B800454B1B6813F0070F5FD06E4600233B7115
:1045C80002237B7188B006AC14F110022ED00E20A5
:1045D8001AB1042801DD3E4B636100233B700223BE
:1045E8007B7032B3082801DD3A4BA36104F11C0348
:1045F800002101291DD801F1080CBC441CF808CC85
:1046080003F801CB0131F4E740F2B1120092324ACB
:1046180001212D4855F0D7FFA2E74FF4DA72009236
:104628002D4A0121284855F0CEFFA8E76FF0004039
:10463800CEE70D2839DD0E2342B10321397100215F
:104648007971B9710121F9717868206100216FF3DE
:1046580000016FF341016FF382016FF3C50101207F
:1046680060F38811C3F30A0363F353216FF31F51F7
:10467800002315480CF0CEFEB546134B1B6813F00B
:10468800070F15D1404080F311884FF0030002DF77
:104698000C4B002283F8202010482EF05DF91048BA
:1046A8002EF05AF90C37BD46F0BD6FF01B03C3E777
:1046B8004FF4DC7300932B46074A0121024855F05A
:1046C80082FFDFE74C4D0020D815002048B30600D4
:1046D8001054070064B30600E0AF0600440200204F
:1046E800AC02002010B50446FFF71EFF034A08215C
:1046F800204656F021FC002010BD00BF7CB3060008
:1047080010B584B000220023CDE9002302AA03A932
:104718000C482EF08DF838B90446039909482EF054
:10472800BBF8204604B010BD074B1B6813F0060FFA
:1047380002D16FF08B04F4E7044A0221024855F0D5
:104748002DFFF6E744020020D815002094B3060098
:1047580010B501F073FA70B10446114B1B6813F0E1
:10476800070F01D1204610BD03460E4A01210C480F
:1047780055F01EFFF6E707F089F8044658B1084BD4
:104788001B6813F0070FEDD00346074A01210448C0
:1047980055F00EFFE6E7054864F0A0FCE2E700BF2D
:1047A800D8150020B4B30600DCB30600704D002015
:1047B8000C4B93F8803133B90A4B012283F88021DE
:1047C800036000207047074B93F881313BB9054BD4
:1047D800012283F88121C0330360002070476FF005
:1047E8000B007047D86C0020074B984203D0074B4A
:1047F800984204D07047002283F880217047C03B5C
:10480800002283F88121F5E7D86C0020986D0020FC
:10481800034B002283F8802183F88121704700BF71
:10482800D86C002008B50021034B19704FF4707242
:10483800024864F0F7FC08BD49240120606E00209E
:1048480008B5024837F012FC08BD00BF1403002069
:1048580008B10068704710B5074C40F24A23224659
:104868000649074854F050FC064854F04DFC40F205
:104878004A21204608F09EFA30AD060060AD0600D9
:10488800A8AC060074AD060008B5401A63EB030334
:10489800144A904273F1FF3202DA013843F10003FF
:1048A80011490A6801320A60B0F5FA7043F1FF3322
:1048B80041F28932904273F1000300D208BDFFF73C
:1048C8001FFF18B9084B00221A60F7E7074B1B684F
:1048D80013F0060FF2D0064A0221044855F05EFE96
:1048E800ECE700BF01000080D46C0020D015002048
:1048F800BCB4060008B5FFF7ABFF02684168007A50
:104908000B4B5B7843B10B4BC3F8F42B48B142B166
:104918001046FFF7B9FF04E0074B1B6813F0060FBA
:1049280000D108BD054A0221034855F037FEF8E7D3
:104938002072002020C20020D0150020DCB4060020
:1049480090B583B000AF394B93F8003C834229D02F
:10495800364B83F8000C364B1B6803F00703022B19
:104968005DD9344B53F820106C4600233B71022369
:104978007B7188B0EC461CF110021ED00E2022B1CB
:10498800042802DD2C4BCCF8143000233B700223A2
:104998007B70FAB1082801DDCCF818100CF11C0363
:1049A800002115E0224B1B6813F0060F37D0234A6D
:1049B80002211F4855F0F2FD31E06FF00040DEE7BC
:1049C80001F1080EBE441EF808EC03F801EB0131B2
:1049D8000129F5D90D2825DD0E234AB103213971A6
:1049E80000217971B9710121F9717868CCF810004A
:1049F80000216FF300016FF341016FF382016FF340
:104A0800C501032060F38811C3F30A0363F353213C
:104A18006FF31F51002306480CF0FCFCA5460C3729
:104A2800BD4690BD6FF01B03D7E700BF20C2002032
:104A3800D0150020D4BC060048B5060010B5060005
:104A480038B54E4BD3F8F82BC3F8F42B93F8003C49
:104A5800032B04D8DFE803F0020B3C6602B938BD2B
:104A6800464BC3F8042C0120FFF76AFFF7E74349D8
:104A7800B1F8023C01339BB2A1F8023C632BEED99A
:104A88000023A1F8023CD1F8043C9B1A03F5C33378
:104A9800A0333B4A02FB03F33A4A82FB0302DB17CB
:104AA800C3EBA21303F51B40AE30C1F8080C03F6A4
:104AB800CC3341F29872934206D880B253F0DFF9B2
:104AC8000220FFF73DFFCAE70020FFF739FFC6E7DE
:104AD8002A49B1F8023C01339BB2A1F8023C632B8E
:104AE800BDD90D460023A1F8023C0146104653F0FB
:104AF800A7F900EBD0704410214B04FB03F3214AC3
:104B080082FB0312DB17C3EBA213D5F8080C184479
:104B180080B253F0B4F90F341E2CA0D80320FFF74D
:104B28000FFF9CE71549B1F8023C01339BB2A1F88D
:104B3800023C632B93D90D460023A1F8023C0146A1
:104B4800104653F07DF900EBD07044100C4B04FB79
:104B580003F30C4A82FB0312DB17C3EBA213D5F84D
:104B6800080C184480B253F08AF92034402C7FF6A0
:104B780076AF0020FFF7E4FE71E700BF20C20020F7
:104B880018FCFFFF019D7F31464B93F8103C834290
:104B980000F08680B0B584B002AF0446414B83F87C
:104BA800100C414B1B6803F00703022B53D93F4BF2
:104BB80053F820106D4600233B7102237B7188B0A7
:104BC8000DF1080C1CF1100213D00E2022B104289C
:104BD80002DD374BCCF8143000233B7002237B7086
:104BE800A2B1082801DDCCF818100CF11C03002133
:104BF8000AE06FF00040E9E701F1080EBE441EF834
:104C080008EC03F801EB01310129F5D90D2836DD4F
:104C18000E234AB10321397100217971B97101213B
:104C2800F9717868CCF8100000216FF300016FF378
:104C380041016FF382016FF3C501032060F388110E
:104C4800C3F30A0363F353216FF31F51002316487C
:104C58000CF0E0FBAD46032C14D0032053F07EFA91
:104C680050B1114B1B6813F0070F0FD1404080F370
:104C780011884FF0030002DF0837BD46B0BD6FF062
:104C88001B03C6E7032007F035F9E9E74FF4B573CE
:104C980000930346074A0121034855F094FCE5E7D1
:104CA800704700BF20C20020D0150020C4BC0600F9
:104CB8005CB50600E0AF06002DE9F0416C4B93F8B7
:104CC800003C032B10D104460D468AB9684BD3F833
:104CD800182C291B114493F8103C012B1AD0022BD5
:104CE8005ED06BB1BDE8F0810020FFF74DFFF9E71A
:104CF8005F4B0022A3F8122C0220FFF745FFE5E7DF
:104D08005B4B0022A3F8122CC3F8142C0120FFF7E8
:104D18003BFFE7E7564AB2F8123C581CA2F8120CBF
:104D2800092B2FD9524B0022A3F8122CD3F8146C5C
:104D3800504B83FB0623F517C5EBA30505F2F312C9
:104D480040F2E6339A4227D90220FFF71DFF002DD3
:104D5800C8D016F1090F2FDB05F5FA73464A82FB16
:104D68000312DF17C7EBA2174EF6476293422DDDF9
:104D7800424A126812F0060F21D13C27002F2FDD7E
:104D880000263FE01346D2F8142CD3F8FC0B091A7E
:104D98000A44C3F8142CA5E70320FFF7F5FED6E76D
:104DA800334AB2F8123C591CA2F8121C0C2B99D9A0
:104DB8000020FFF7E9FE95E7A5F5FA73CEE7304A3C
:104DC80002212E4855F0F4FB3C27D7E72D4A9342A1
:104DD800D4DA2A4A126812F0060F06D16FF03B07A0
:104DE800002FBFF67FAF002236E0254A0221234874
:104DF80055F0DEFB6FF03B07F2E700231C4AA2F8F0
:104E08000C3A0136BE42BFF66DAF1F4D05F5A048FE
:104E1800B8F80C3A03EB43004001043005EB4000BE
:104E2800C0220021043064F0FDF9BA1BB8F80C3A2E
:104E38004FF47A7101FB124203F5B451023105EBCC
:104E48008105AA60762BD8D801339BB2D6E77723A1
:104E58000749A1F80C3A013ABA427FF743AF044B2D
:104E6800B3F80C3A002BF2D0013B9BB2F0E700BF3D
:104E780020C2002067666666D34D6210D0150020F8
:104E880070B50600B911FFFF207200202DE9F0412E
:104E980088B002AF00237B613B61AC4BB3F80E3A9C
:104EA800002B4DD0013B9BB2A94D05F5A042A2F8BD
:104EB8000E3A03EB43025201043205EB4205043576
:104EC800002B3FD0013B9BB2A14800F5A042A2F8BD
:104ED8000E3A03EB43046401043400EB4404043445
:104EE8003A1D394680682DF0FFFC3B681BB97B688A
:104EF8000BB9002865D0974B1B6813F0070F55D0E6
:104F08006E4600233B7302237B7388B00DF1080CB7
:104F18001CF1100218D00E2022B1042802DD8E4B9D
:104F2800CCF8143000233B7202237B72CAB10828E4
:104F380002DD8A4BCCF818300CF11C0300210EE07E
:104F48007723B1E77723BFE76FF00040E4E701F18B
:104F5800180EBE441EF810EC03F801EB01310129CC
:104F6800F5D90D2867DD0E234AB1032139730021D5
:104F78007973B9730121F973F868CCF8100000212E
:104F88006FF300016FF341016FF382016FF3C50105
:104F9800012060F38811C3F30A0363F353216FF30D
:104FA8001F5100236B480CF035FAB546694B1B6856
:104FB80013F0070F42D1404080F311884FF00300EF
:104FC80002DF0022002307F11401614880682DF0F8
:104FD80099FB064600286FD05E4B1B6813F0070F3D
:104FE8005FD0E84600233B7302237B7388B00DF142
:104FF800080C1CF110022CD00E2022B1042802DD6E
:10500800554BCCF8143000233B7202237B721AB341
:10501800082802DD524BCCF818300CF11C03002193
:10502800012919D801F1180EBE441EF810EC03F836
:1050380001EB0131F4E76FF01B0395E740F203330E
:1050480000936FF00B03474A0121424855F0BBFA21
:10505800B1E76FF00040D0E70D2867DD0E234AB1B5
:105068000321397300217973B9730121F973F86841
:10507800CCF8100000216FF300016FF341016FF3CA
:1050880082016FF3C501012060F38811C3F30A039D
:1050980063F353216FF31F5100232E480CF0BAF924
:1050A800C5462C4B1B6813F0070F42D1404080F3D4
:1050B80011884FF0030002DF0022002307F11001DE
:1050C800234880682DF01EFB064600287CD0214B23
:1050D8001B6813F0070F6CD0E84600233B730223CC
:1050E8007B7388B00DF1080C1CF110022BD00E2038
:1050F80022B1042802DD184BCCF8143000233B728F
:1051080002237B7282B3082802DD154BCCF81830D5
:105118000CF11C030021012926D801F1180EBE4408
:105128001EF810EC03F801EB0131F4E76FF01B03F4
:1051380095E74FF44273009333460A4A0121054824
:1051480055F041FAB2E76FF00040D1E720C20020E5
:1051580020720020D015002010540700ACB50600BE
:10516800C0B50600E0AF06000D2839DD0E234AB1B0
:105178000321397300217973B9730121F973F86830
:10518800CCF8100000216FF300016FF341016FF3B9
:1051980082016FF3C501012060F38811C3F30A038C
:1051A80063F353216FF31F51002314480CF032F9B5
:1051B800C546124B1B6813F0070F14D1404080F30B
:1051C80011884FF0030002DF7969284605F044FC96
:1051D8003969204605F0EEFB1837BD46BDE8F08179
:1051E8006FF01B03C3E740F20B3300933346044AC6
:1051F8000121024855F0E7F9E0E700BFD01500208B
:10520800E0AF060010B59AB004461F4B00931F4B41
:105218001B681F4A602102A82DF05AF858B10346AE
:105228001C4A126812F0070F1CD1404080F3118805
:105238004FF0030002DF03230093602302AAC0217A
:1052480020462DF089F8034650B1124A126812F030
:10525800070F10D1404080F311884FF0030002DFA0
:105268001AB010BD4FF40B7200920B4A0121094885
:1052780055F0A9F9D9E74FF40C720092064A0121BA
:10528800044855F0A0F9E5E7C46C00205C6E0020E6
:10529800606E0020D0150020E0AF0600F0B587B0A2
:1052A80002AF0646796015461046FFF79DFAAC4BEB
:1052B80003F5A041B1F80E4A04F5B452023203EBEB
:1052C80082039B68F31AC1F8FC3B2DB3762C01D8F6
:1052D800013400E00024A34BB3F80C3AA34259D0A0
:1052E800A04BA3F80E4AA04B1B783BB19E4B002263
:1052F8001A709E4B1B6813F0060F42D104EB44044E
:1053080064010434964B03EB44030433984A136056
:10531800984B1B78002B7DD17B68002B00F0BC805C
:10532800C022391D8E4B98682DF016FA04460028C5
:1053380000F0B2808D4B1B6813F0070F00F0A180BE
:105348006D4600233B7302237B7388B00DF1080C74
:105358001CF1100263D00E2022B1042802DD864B16
:10536800CCF8143000233B7202237B72002A63D0EE
:10537800082802DD814BCCF818300CF11C03002101
:1053880058E0784BD3F8F03B7D4A0221774855F036
:105398000FF9B3E7FEF72EFAB0B9734B01221A7072
:1053A800704AD2F8F03B0133C2F8F03B754AA2FBD1
:1053B8000312120B41F2883101FB123222B96B4AF7
:1053C800126812F0060F16D16948FFF7F1F9034683
:1053D80050B1664A126812F0070F12D1404080F3AC
:1053E80011884FF0030002DFC0220021604B1868CB
:1053F80063F018FF8CE7644A02215C4855F0D8F83E
:10540800E2E740F2A7220092604A0121574855F08E
:10541800DAF8E3E7564B1868FFF7F4FE7CE76FF01D
:10542800004099E701F1100EBE441EF808EC03F89D
:1054380001EB01310129F5D90D2875DD0E234AB19B
:105448000321397300217973B9730121F973F8685D
:10545800CCF8100000216FF300016FF341016FF3E6
:1054680082016FF3C501012060F38811C3F30A03B9
:1054780063F353216FF31F5100233C480BF0CAFF1D
:10548800AD463A4B1B6813F0070F50D1404080F3EC
:1054980011884FF0030002DF002200233C49304806
:1054A80080682DF02FF9044620B93A4B1B6813F198
:1054B8000C0F46D014F10C0F72D0002C00F0E380D2
:1054C8002A4B1B6813F0070F00F0D2806D460023AB
:1054D8003B7302237B7388B00DF1080C1CF110029A
:1054E80000F09E800E2022B1042802DD224BCCF869
:1054F800143000233B7202237B72002A00F0938051
:10550800082802DD244BCCF818300CF11C030021CC
:10551800012900F2888001F1100EBE441EF808EC43
:1055280003F801EB0131F3E76FF01B0387E74FF452
:105538002F7300932346154A01210C4855F043F870
:10554800A4E70A4B1B6813F0060F02D1114B1C602D
:10555800B0E7124A0221054855F020F8F6E700BFE7
:105568002072002020C2002048240120D0150020ED
:10557800D06C0020492401201054070028B60600EA
:10558800D8B506005917B7D1FCB50600E0AF06003C
:10559800CC6C0020C86C0020C0B5060040B60600E0
:1055A800484B1B68A34206D0474B1B6813F0060FF5
:1055B80027D1444B1C60454B986800220023CDE955
:1055C800002307F10C0207F108012DF031F9034619
:1055D80050B13D4A126812F0070F18D1404080F3CD
:1055E80011884FF0030002DF384CB968A0682DF02D
:1055F80053F9002200233649A0682DF083F80446A9
:105608005BE7344A0221304854F0C8FFD1E740F242
:10561800D3220092304A01212B4854F0D4FFDDE711
:105628006FF000405FE70D283ADD0E234AB10321F1
:10563800397300217973B9730121F973F868CCF8CB
:10564800100000216FF300016FF341016FF3820135
:105658006FF3C501012060F38811C3F30A0363F3F4
:1056680053216FF31F51002317480BF0D3FEAD46AB
:10567800154B1B6813F0070F15D1404080F31188B4
:105688004FF0030002DF124B1968144B186805F03D
:1056980091F9134B93F80C3C7BB91437BD46F0BD18
:1056A8006FF01B03C2E740F2DB23009323460A4A4C
:1056B8000121054854F087FFDFE73046FFF7C0F9BE
:1056C800EBE700BFC86C0020D01500202072002036
:1056D800CC6C00205CB60600E0AF0600D06C002061
:1056E80020C2002038B505460024064B83F81C4C20
:1056F8002046FFF749FA044A0821284655F01CFCC1
:10570800204638BD20C2002078B6060008B5094BEF
:1057180093F80C3C4BB1074B012283F81C2C064A2A
:10572800082155F009FC002008BD044A082155F05D
:1057380003FCF8E720C200209CB60600C0B60600AD
:1057480010B504460B4B93F81C3C2BB10A4A0821B0
:1057580055F0F2FB002010BD064B002083F80C0C1E
:10576800A3F8020CFFF7ECF8044A0821204655F08C
:10577800E3FBEFE720C20020F0B6060024B70600DE
:1057880008B5054B012283F80C2C044A082155F072
:10579800D3FB002008BD00BF20C200204CB7060084
:1057A80030B583B0144B1B781BBB02460C464BF636
:1057B8008033124912482CF033FE054618B92CB92B
:1057C8000D4B01221A70284603B030BDE0034FF498
:1057D8007A72002300F2E7300021FBF7D7F902467E
:1057E8000B4600200021CDE90001064838F0FCFEF8
:1057F800E6E76FF00F05E6E7492401205C6E00201C
:10580800606E00200018002008B5034863F0D2FB42
:10581800024836F02BFC08BD0018002014030020B5
:1058280010B50446FFF7F0FF034A0821204655F05B
:1058380083FB002010BD00BF74B706002DE9F043BC
:105848002DED028B85B00746042957D116465068BE
:105858000378424AD35C13F0040F56D0B3681B7820
:105868003E4AD35C13F0040F57D00A22002151F0AE
:10587800B9F804461FFA80F80A220021B06851F0EE
:10588800B1F805461FFA80F90021F06850F056FF7C
:10589800B0EE408AB5EEC00AF1EE10FA45D9F7EE3F
:1058A800007AB4EEE70AF1EE10FA3EDCA4B2AEB22A
:1058B800009623462A4A0821384655F03DFBB0EEAB
:1058C800480A49464046FFF76BFF054610F1100F9E
:1058D80033D0002D3BD118EE100AFAF79DFDCDE923
:1058E8000201009623461F4A0821384655F024FB3A
:1058F800284605B0BDEC028BBDE8F0831A4A0121A9
:1059080055F01AFB6FF01505F2E7184A01213846E1
:1059180055F012FB6FF01505EAE7154A01213846E4
:1059280055F00AFB6FF01505E2E7124A01213846E7
:1059380055F002FB6FF01505DAE7FFF765FFB0EEEB
:10594800480A49464046FFF72BFF0546C1E72B4664
:10595800094A0821384655F0EFFABCE7F331080048
:1059680030B806006CB8060080B70600CCB7060051
:10597800E8B7060004B8060050B8060008B5A0F558
:105988007A624DF6C0239A4204D80A4BC3F8180C21
:10599800002008BD084B1B6813F0060F02D16FF0FA
:1059A8001500F6E70346054A0221034854F000FEB5
:1059B800F5E700BF20C20020D0150020A0B80600DF
:1059C8002DE9F04385B00E460C9F634991F801809C
:1059D800B8F1000F1AD005461446994620B35F4B1C
:1059E800D3F8F81BA1422AD0002942D0631A43F603
:1059F8009722934231D8A3F51C53063B142B61D947
:105A080001F51C5410344FF0000834E0544B1B6867
:105A180013F0060F02D105B0BDE8F083514A022108
:105A28004F4854F0BBFDF6E74D4B1B6813F0070FCA
:105A3800D5D04D4A01214A4854F0B0FDCFE7002C9B
:105A4800D2D0474B1B6813F0060FE4D02346474AD1
:105A58000221434854F0ACFDDDE7414A126802F0E8
:105A68000702022A07D9424A03213D4854F0A0FD03
:105A780001E04FF00008394BC3F8F84B93F81C3C91
:105A88001BBB03AB00933B4B4A463146284600F00C
:105A98001DFA034620B1324A126812F0060F1AD1D5
:105AA800039BB3F5F06F1CD02D4A126812F0060F55
:105AB800B1D04FF4F06200922F4A0221284854F0E6
:105AC80082FDA8E74FF00008D5E742462146384650
