:10000000084900200135000019000100D534000026
:10001000D5340000D5340000D5340000D5340000BC
:10002000000000000000000000000000AD2D0000F6
:10003000D534000000000000452D0000D53400003C
:10004000392E0000392E0000392E0000392E000014
:10005000392E0000392E0000392E0000392E000004
:10006000392E0000392E0000392E0000392E0000F4
:10007000392E0000392E0000392E0000392E0000E4
:10008000392E0000392E0000392E0000392E0000D4
:10009000392E0000392E0000392E0000392E0000C4
:1000A000392E0000392E0000392E0000392E0000B4
:1000B000392E0000392E0000392E0000392E0000A4
:1000C000392E0000392E0000392E0000392E000094
:1000D000392E0000392E0000392E0000392E000084
:1000E000392E0000392E0000392E0000392E000074
:1000F000392E0000392E0000392E0000392E000064
:10010000392E0000392E0000392E0000392E000053
:10011000392E0000392E0000392E0000392E000043
:10012000392E0000392E0000392E0000392E000033
:10013000392E0000392E0000392E0000392E000023
:10014000392E0000392E0000392E0000392E000013
:04015000392E000044
:1001540053B94AB9002908BF00281CBF4FF0FF312A
:100164004FF0FF3000F00CB8ADF1080C6DE904CE8F
:1001740000F008F8DDF804E0DDE9022304B070477C
:10018400704700BF2DE9F04786468C460846089E16
:10019400154674461946002B40F0C1808542B2FAD8
:1001A40082F245D94AB1C2F1200300FA02FC95401B
:1001B40094402EFA03F343EA0C0C4FEA154EA8B20E
:1001C400230CBCFBFEF80EFB18CC08FB00F943EA39
:1001D4000C43994528D9EB1808F1FF3704D2994507
:1001E40002D9A8F102072B44A3EB0903A4B2B3FB81
:1001F400FEFC0EFB1C330CFB00F044EA0344A0425B
:1002040014D92C190CF1FF3304D2A04202D9ACF159
:1002140002032C44241A43EA07401EB1D4400023AD
:1002240034607360BDE8F0874746DDE76346F1E775
:1002340092BB431B01214FEA154EAFB2200CB3FB16
:10024400FEFC0EFB1C330CFB07F840EA0343984505
:1002540061D9EB180CF1FF3004D2984502D9ACF106
:1002640002002B44A3EB0803A4B2B3FBFEFC0EFB79
:100274001C330CFB07F744EA0344A7424DD92C195D
:100284000CF1FF3304D2A74202D9ACF102032C448F
:10029400E41B43EA0040C0E7C2F1200395409440C8
:1002A40020FA03F12EFA03F34FEA154E9040AFB251
:1002B4000343B1FBFEFC0EFB1C10190C0CFB07F8EE
:1002C40041EA0041884522D969180CF1FF3004D273
:1002D400884502D9ACF102002944A1EB08019BB284
:1002E400B1FBFEFC0EFB1C110CFB07F743EA0143B8
:1002F4009F420ED9EB180CF1FF3104D29F4202D970
:10030400ACF102012B44DB1B41EA004193E7604658
:10031400E3E76146F7E76046A4E76346B8E783424C
:1003240006D916B9002108467CE7C6E900E0F9E7DA
:10033400B3FA83F78FB9834201D3724508D8BEEB71
:10034400020460EB030301209C461EB9002169E707
:100354003846FAE7C6E9004CF8E7C7F1200CBB4081
:100364000EFA07F522FA0CF42EFA0CF1BA401C43EB
:1003740020FA0CF3B8404FEA144901431FFA84FEF3
:10038400B3FBF9F809FB18300B0C08FB0EFA43EA2F
:1003940000439A4540D9E31808F1FF3004D29A4546
:1003A40002D9A8F102002344A3EB0A0389B2B3FBE8
:1003B400F9F809FB183308FB0EFE41EA03418E45A8
:1003C4002CD9611808F1FF3304D28E4502D9A8F163
:1003D4000203214443EA0040A1EB0E01A0FB029872
:1003E4004145CE46434602D306D14D4504D2013899
:1003F400B9EB020E68EB0403002EA7D0B5EB0E0296
:1004040061EB030101FA0CFC22FA07F3F9404CEA10
:100414000303C6E9003199E74046C5E74346D9E7F7
:1004240010F8012B11F8013B012A28BF9A42F7D09A
:10043400D01A7047034611F8012B03F8012B002A48
:10044400F9D17047034613F8012B002AFBD1181A7F
:1004540001387047B0B586B0044600AF6D46114B05
:1004640011487B6102234FF4865107F110023B616E
:100474000EF05CF8201E18BF012002F0B9F868B134
:1004840088B06A46094B4FF4C251C2E905300323D0
:10049400054842F8103F0EF049F8AD461837BD46FE
:1004A400B0BD00BFF0430100C8390100FF430100A3
:1004B40098B500AF6C4688B06A460B4B0B48C2E94E
:1004C400053103234FF4C65142F8103F0EF02EF8C5
:1004D400074BA546186810F089F8002101200AF09E
:1004E400F5FDBD4698BD00BF23440100C839010095
:1004F4007816002090B587B0044600AF89B16C46E9
:1005040088B06A46114B1248C2E9053103234FF4FF
:10051400C25142F8103F0EF009F8A5461C37BD46FB
:1005240090BD0C4B4FF486517B61022307F11002FE
:1005340007483B610DF0FAFF204610F043F8012113
:10054400054B186008460AF0C1FDE7E73B4401008B
:10055400C83901004F44010078160020F0B589B075
:100564006D4602AF02263B4B4FF486513A487B61FD
:1005740007F110023E610DF0D9FF0AF0DBFC50B127
:1005840088B002AA354BC2E9053003234FF4C251A7
:1005940042F8103F26E032480AF006FD044650B9FE
:1005A400304806F0F7FB204605F0BEF808B388B0E3
:1005B40002AA2D4BE7E788B002AA03262B4B4FF47F
:1005C400C651C2E9053042F8106F23480DF0AEFF62
:1005D400AD4688B002AA4FF4C651254BC2E9053492
:1005E40042F8106F1C480DF0A1FFAD461C37BD4604
:1005F400F0BD204B4FF48651C7E90463164807F158
:1006040010020DF093FF0123324600931A491B4B4D
:100614001B4805F079FD044628B188B002AA194B9D
:10062400C2E90530B1E7184B4FF48651C7E90463BA
:10063400094807F110020DF079FF013404F00101BB
:1006440000200AF043FD00214FF400400DF02CF887
:10065400F3E700BF59440100C8390100794401009F
:1006640037E5000060010020CD44010093440100FF
:10067400B1440100EC440100803B0100783B0100DF
:100684007401002002450100274501002DE9F04FC7
:1006940091B0009302F004030293C2F3C203013346
:1006A400840705460E46DDF868900392059340F0F2
:1006B400BB81041D30B1072909D86FF01B0011B0AC
:1006C400BDE8F08F01F00706341DC6F10806009B53
:1006D4004FF000084FF0040A591E4FF0FF3347460D
:1006E4000193C3465346CDF810800DB1009A2260A1
:1006F4000598002800F3E8809848009A824203D3C2
:1007040097488242C0F0E080039AA4EB050E92075A
:100714004FEA9E0000F103810F2F00F2B180002DFB
:1007240000F0058107F140020DEB020C019A0CF870
:10073400200C0CF8102C049801300490E7E07A287F
:100744005DD84B280ED8472859D829282DD82528D4
:1007540052D054D820287AD02338D0F1000B4BEB58
:10076400000B74E04C382E2849D8DFE800F07048BC
:10077400484848484848484848484B4848484848F2
:1007840048484859484B4B595959704B6D48704823
:10079400184B184848827F4B48484B487F0000203C
:1007A4004FF0000B4FF0040A38E001222A38C0B29F
:1007B40002FA00F010EA0E0F49D110F0625C2FD15A
:1007C40010EA020B43D06046013C5444B4FBFAF4F3
:1007D4000AFB04F4002D61D0A3EB050CA444664588
:1007E400FFF46BAF002868D1042B47D159F8043BC0
:1007F4002360042304342AE0019A013A01924FF061
:10080400000B24E011F8010C6C2834D1002011F8FD
:10081400023C83466C2BC5D14FF0080A5346D3E7FC
:1008240009F1070929F00709073424F00704F9E856
:1008340002AB35B106982044B0423FF63EAFC4E95E
:1008440000AB4FF0000B08344FF0080A534611F880
:10085400010F002878D0BBF1000F7FF470AF25287A
:10086400F5D14FF0010B019B013301934FF0040AC2
:10087400ECE7584694E700208346A5E7082B02D00E
:100884006FF015001BE709F1070929F00709F9E8DA
:100894000223C4E9002308230834D8E768B9042BE9
:1008A40002D109F10409A4E7082BE9D109F10709E8
:1008B40029F0070909F10809EDE7059A013A0592BB
:1008C40059F8042B009210E7039A900720D54FF0B3
:1008D400010CA4EB050E4FEA9E00BEF5007FCFD2BB
:1008E4000F2FCDD8F5B107F140020DEB020E019A9E
:1008F400C0B20EF8200C0EF8102CBCF1000F3FF41F
:100904001AAF60F07F000EF8200C08F101080137DF
:10091400C5F108024FF6DA7E0434069297E74FF0E9
:10092400000CDAE7BCF1000F01D00136EFE70298C2
:1009340002360028EBD10098CDE90631FFF782FD9D
:10094400DDE906310644E2E7631BB3F5806F97D215
:1009540045B9A6F10804E018B1E600BF1836010055
:100964008C690100029A9B0828602B709DF8103056
:10097400C2B1EB7085F80280B8F1000F05D00022F7
:1009840008A8C5F1010C97420ED14FF0000AC5F139
:1009940001030DF1200901930DF1300B574512D1DC
:1009A400601B8CE66B70E5E710F8013B190608D56F
:1009B40004EB0C0E764503F07F03FFF47EAE04F8DF
:1009C400013B0132DFE7B8F1000F03D099F90020B1
:1009D400002A17DB029BD3B11AF80B2004F8012B71
:1009E4000022019B981820448642FFF466AE99F8D1
:1009F4000000009904F8010B2046039212F088FDD0
:100A0400039A14440AF1010A09F10109C6E799F8A5
:100A1400002055F822300093029B009845F82230BC
:100A2400FFF710FD421CDCE76FF00D0047E600BF46
:100A34002DE9F04F95B000AFBB61BB6F0446C3F323
:100A4400C0038A4690F802B07A623B6141B94578A6
:100A540000780BEB80002044554517D8A0EB040A1E
:100A6400E3787B61BBF1000F02D0BB6FD80716D4CB
:100A74007B6953BB7B6A1BB151462046BA699847D0
:100A8400554628465437BD46BDE8F08F461C3046CF
:100A9400FFF7D8FC013030440AF1010ADCE723787F
:100AA40062683B629B00FB603B6AFA6104EB83096A
:100AB4007B6A002B40F0FF80C8460026554609EBB0
:100AC4000B0AD04551D1D94413E0BB6F9907D1D556
:100AD400237899463B629B00FB60636804EB8909B9
:100AE400FB617B6A002B7AD15546BBF1000F4FD1D5
:100AF4005E46BB6F13F0050F0CBF4FF0020B4FF0B7
:100B0400010B7B6909EB430ABB6F03F002037B62B1
:100B1400D145B6D019F8021B19F8013C54F82380CA
:100B2400AB4B984502D3AB4B984538D33B69002B6C
:100B340042D0F8690DF033FD00283DD0E8468AB074
:100B44006A46A54B5361FB69C2E906314FF4007351
:100B54001384A24B42F8103F00234FF41251A048D3
:100B640001F00CFA023DC546D2E718F8013B54F8EF
:100B74002300FFF767FCFB6F01303BB1D7F88030EF
:100B84009E423EBFFB6F23F816000136054498E7EA
:100B9400BB6F13F004061CBF7E6AD944A9E73B6906
:100BA40023B1F8690DF0FBFC0028C7D1BB6FDA074D
:100BB40005D4A5EB0B05ABE77B6A002BA8D0404618
:100BC400FFF740FCFB6F43B1D7F880309E423FBF34
:100BD400FA6F431C22F816300136054498E7BBF13E
:100BE400000F6ED0BB6F13F004066DD0D8460026FC
:100BF40007F140005A46494612F08AFC7B69D94401
:100C04005B007B607B6909EB4303BB60BB6F03F054
:100C140002033B60BB684B4558D1B96F6378B86F2A
:100C2400890748BF002106EB030258BF4FEA580169
:100C3400C507D2B200F19A8010F0040F14BF4046E9
:100C44000020FB616270A070E1702046BA69F96807
:100C54007B6A9847051EFFF614AF3B6A4146237032
:100C6400FB69BA6963707B6984F802B0E37007F1C9
:100C740040007B6A9847B0F10008C0F2A480FB688A
:100C8400AAEB0B01C91A7B684846C91ABA697B6A80
:100C940098470028C0F299804FF0000BA84408EB55
:100CA400000507F1300AB34562D30021BA6908464A
:100CB4007B6A9847E5E65E464FF0000807F130008E
:100CC40098E75E46D84699E7B04697E719F8021BBD
:100CD4003F4B19F8015C54F82500984202D33D4B70
:100CE40098421DD33B6923B1F8690DF058FC0028E4
:100CF40090D13B68FBB908F1280307F1280208F1F9
:100D0400010003EB020C07F1500308F1020853FA47
:100D140080F00CF8101C5FFA88F800F8105C79E792
:100D24003B692BB1F8690DF03AFC00287FF472AFEF
:100D3400BB6FDB0709D506F1280307F12802711CF4
:100D44009E1806F8205CCEB264E7BB6F58077FF5A7
:100D540061AF08F1280307F1280208F1010103EB50
:100D6400020808F8105C5FFA81F853E7002068E78E
:100D74001BF80A3054F8239087F82F30FB6FFBB12F
:100D840033F81B800121BA697B6A07F12F00984769
:100D940000281ADB0544B8F1000F06D14846FFF7D6
:100DA40051FB00F101081FFA88F841464846BA6928
:100DB4007B6A9847002808DB05440BF1010B72E7B6
:100DC400D7F87C80DEE745465BE6054659E600BF7A
:100DD400183601008C6901006C4501000400000113
:100DE400483A0100014B1860704700BF8801002099
:100DF40080B505460E46174698460CF06FFC034630
:100E040012F0FEFB0446DFF81890424649F8003021
:100E140039463046A84754F8090002F0E9FB00BF00
:100E2400080000002DE9F047058B0446280790468A
:100E340011D4022905F0070540F0CD8020460DF0BD
:100E440091FE78B10138218B042811D8DFE800F035
:100E5400C3106D85950001290CBF45F0100545F0C0
:100E64002005258388F31188BFF36F8FBDE8F087D1
:100E740001F0070AAA4500F0A6800027B9463E46BD
:100E8400A368002B00F0BD8041F00801218388F3A2
:100E94001188BFF36F8FA168002900F0BB800D6833
:100EA400002900F0B780334652462046D1F804802A
:100EB400C047002D76D02B6829461D46F0E701F087
:100EC40007035A1F012A1BD8002221F00701062B11
:100ED400276889B2C4E9002209D13B4603E0628B4A
:100EE400013262831B68002BF9D141F002012046D4
:100EF40021830DF037FE00287BD041F0200177E0FC
:100F0400042B0AD121F0070189B2204621830DF078
:100F140029FE10B141F020012183218B01F0070A41
:100F2400AA4550D00027B946AAE7236921F0070152
:100F340041F00601062DD3F8009021832DD1B9F19B
:100F4400000F40D041F00801218388F31188BFF3DA
:100F54006F8F20463949C84729E021F007012369EA
:100F640041F0040189B2042DD3F804902183E6D022
:100F740000274FF0040A3E4682E721F00701236967
:100F840041F0050189B2052DD3F808902183D6D00C
:100F940000274FF0050A3E4672E700274FF0060A85
:100FA4003E466DE72B4687E7B9F1000FD1D14FF0EC
:100FB4002003EFF3118883F31288BFF36F8F238B21
:100FC40023F008032383258BEA062ED525F010038E
:100FD400238305F007056669218B002EBFF66FAFEA
:100FE40000232768C4E9003321F0070141F001011F
:100FF4002183218B4FF0000901F0070AAA457FF4F1
:101004003FAF002F9BD041F00801218388F3118862
:10101400BFF36F8F002FC7D03D6839463346524621
:1010240020460DF0CBFD2F46F4E7AB067FF51AAF53
:1010340025F02003238305F00705FFE6EDEB000010
:10104400044608B54FF02002EFF3118382F31288AF
:10105400BFF36F8F09F0C4FD204602F07FFA034806
:101064000DF0C6FA01F060FDFCE700BF2046010068
:1010740000F01F0240090DD001280DD1094B03EBEC
:101084008203D3F8002222F0E04242EA0171C3F85D
:1010940000127047044BF2E70023803253F82230E9
:1010A400FFDE00BF002884500025845038B5012499
:1010B400134B144DC3F8004502230321C5F8D03661
:1010C4000020FFF7D5FF20460321FFF7D1FFC5F825
:1010D40004472146C5F804492920C5F8004BFFF709
:1010E400C7FF21462820FFF7C3FF21462B20FFF727
:1010F400BFFF21462A20FFF7BBFF002038BD00BFF9
:10110400001000500040005007B50DF1070010F02A
:101114004EFD114B98421CD14FF480620F4B104985
:10112400C3F8B8254FF40062C3F83C259DF80700C6
:1011340010F029FD0B499DF8070010F01FFD012058
:101144009DF8073098400AF063F9002003B05DF879
:1011540004FB6FF00B00F9E70000AD0B00A0025098
:101164002CA0025028A10250052370B5144D154E31
:101174002C780134B4FBF3F303EB8303E41A10F08B
:10118400C3FC114A137823B156F82430C01A072837
:1011940014D94FF05023D3F8141141B10021C3F8EE
:1011A4001411D3F814312C700CB9012313702C785A
:1011B40010F0AAFC46F82400012070BD0020FCE7D2
:1011C400A92100207C160020A821002048B1054B4D
:1011D400054A1B68B3FBF2F35843044B43F0010385
:1011E400184770471C03002040420F00703B010069
:1011F40070B5049CC4F30726304609F0F3FAE5B24F
:101204000146284610F0CBFC00220120074BA40B1A
:1012140004F0FC041A51A8400AF000F9304609F021
:1012240095FC2846BDE870400AF06CB980A00250D5
:10123400F0B583B000AF381D0AF05EF9284B984230
:101244004BD109F065FC041E13DA38790AF05AF917
:101254006D4688B06A46234BC2E90534032342F83D
:10126400103F00234FF4C2511F4800F087FEAD46E3
:101274002FE040F607031D4D7C71AE68FB80746857
:101284007B6814B96FF05704E2E708212846184A2E
:10129400A047041EDCDB3369002BF3D001220821B4
:1012A40028469847041ED3DB01203B7998400AF076
:1012B400AFF878793D79FE7910F011FC01462846A3
:1012C40010F061FC0B4BB60045F000459D51002C1D
:1012D400BED120460C37BD46F0BD6FF01204B7E70F
:1012E4000000AD0B4D460100C83A0100283701004B
:1012F400FD12000080A102502DE9F34114468368D9
:101304001B690BB100229847C4F30726304609F045
:1013140071FA0546304610F0E2FB4FF00008E7B2E0
:101324000146384610F03FFC104B220E920043F861
:101334000280304609F056FA0D4A4FEA943C0CF00C
:10134400FC0C47F0004342F80C300146384610F0DC
:1013540015FC084B05F132020093304643460194D4
:10136400520010F0C5FB02B0BDE8F08180A102502C
:1013740080A00250F511000009F002BF7FB570B9DA
:10138400124B1348059302234FF4825104AA049389
:101394000DF034FF6FF0150007B05DF804FB8368AF
:1013A40063B90C4B0A48059302234FF4825104AAF3
:1013B40004930DF023FF6FF00400EDE71B681BB1ED
:1013C40007B05DF804EB18471846E5E77E460100D0
:1013D400703A01008F46010030B587B008B101B101
:1013E4006AB9134B1348059302234FF4825104AA9C
:1013F40004930DF003FF6FF0150007B030BD84684F
:101404000CB1E56865B90C4B0A48059302234FF407
:10141400825104AA04930DF0F1FE6FF00400ECE78E
:1014240041F8040BE36807B0BDE83040184700BF3B
:10143400AD460100703A01008F46010030B51346F5
:10144400044687B068B91A4B1A48059302234FF42F
:10145400825104AA04930DF0D1FE6FF0150007B079
:1014640030BD006860B9144B1248059302234FF451
:10147400825104AA04930DF0C1FE6FF00100EEE75F
:1014840082680AB1956865B90C4B0A480593022332
:101494004FF4825104AA04930DF0B0FE6FF00400DF
:1014A400DDE70A46AC46616807B0BDE830406047F6
:1014B400D9460100703A0100EA4601008F46010056
:1014C4000020014B186070470000072030B50C461F
:1014D4000E4985B00291D0F8AC110546CDE9003132
:1014E40000F1E0014FF0FF3320460AF02DFE50B921
:1014F400012384F86430D5F8A83123B1204605B01F
:10150400BDE83040184705B030BD00BFF7F2000019
:1015140038B50C46114605460DF0EDFE034638B9C4
:10152400284604490DF0E7FE03460020236038BD39
:101534000120FBE7736701002DE9F04F0123814689
:101544000569466885B005F55977D7E8EF2F002A75
:1015540003D1C7E8E13F0029F7D10CBF1A460022A6
:1015640040F0B180B368B16A05F5E4781C1F1046F9
:101574000DF046FF84425FD8013A00F09E80B2FA33
:1015840082F24FF00044D44072682046073222F0C1
:101594000302C5F86022B16A0DF032FFC5F8640297
:1015A400B36A40466343033323F0030302EB43026D
:1015B400230103EB4403093323F0030303EBC403C4
:1015C400C5F858221A440832C5F854227368C5F87D
:1015D4005C42C5F850323D4BC5E9A963316800F05F
:1015E400BDF9044630BBD9F804A0D9F81090DAE963
:1015F400073409F5307B012B584608BF103C11F025
:1016040013FC0023DAF8240031494FF4806201EB23
:1016140080210093584623460BF0AAFC09F52C7050
:101624002C4911F0C3FBDAF8140083685C682CB908
:101634006FF05704002139E0013298E74B46264AFF
:10164400DAF81810A04704460028F3D1DAF8140099
:1016540083681B69002BEBD00122DAF81810984735
:1016640004460028E6D11D4B2846C5F8A8311C4B7A
:10167400C5F8AC311B4B0393D5F810320293D5F85F
:101684000832CDE90083D5F86832B26AD5F8601320
:1016940000F02CF904460028CCD105F1E0000AF052
:1016A40001FE0028C5F868030ADB022138460DF064
:1016B40057FE204605B0BDE8F08F6FF00B04B9E784
:1016C4006FF01504B6E76FF07704F2E74DF300000E
:1016D4005822002033F3000027F30000ED16000029
:1016E400DBF4000095F3000013B5044640B1002379
:1016F4000122CDE90032074BD0E909120AF0D8FCE7
:10170400A36E1B6823B1E06E02B0BDE81040184719
:1017140002B010BD7367010013B504460846216981
:1017240001F55971D1E8AF1F022910D193B1A0B1CD
:101734000121CDE900311346D0E909120AF0B8FCC1
:10174400074B984208BF6FF00B0002B010BD6FF05A
:101754000F00FAE76FF04C00F7E76FF00100F4E7D1
:101764002EF8FFFF2DE9F74388461546066906F56E
:101774005973D3E8AF3F022B5FD1136823B96FF0DD
:10178400150003B0BDE8F0831B78002BF7D0D6F822
:101794006093B9F1000F33D106F5D8774FF0FF32DB
:1017A4004FF0FF3338460BF077F930462A6801A929
:1017B400FFF7AEFE019C1CB938460DF0CFFDDEE705
:1017C40005F10803A3666B6984F86490E366E46337
:1017D40060B138460DF0C2FD21463046236E2A68BA
:1017E400FFF774FE0020C8F80040CAE720222968E9
:1017F40004F1400011F0C3FE38460DF0AFFDF1E7EF
:1018040030460F490DF077FD04460028B7D005F1A6
:10181400080383666B69C063C366002380F8643081
:1018240020222968403011F0AAFE224601213046C8
:1018340000F03EF80028D5D0A1E76FF00F00A0E734
:10184400736701002DE9F04F05460E4690460027C8
:10185400D0F8B0A085B0AAF5AE7421463046FEF7A4
:10186400DFFDE0B9114BA4F1400B0293DAF810301C
:101874003246CDE9008329464FF0FF335846AAF596
:10188400CE790AF061FC60B97023012203FB07934F
:1018940083F86420DAF80C300BB15846984770345A
:1018A40017B105B0BDE8F08F0127D6E73DF500007C
:1018B4001FB5144690B18AB1012912D10A4B00F127
:1018C400E0010293D0F8AC31403201934FF0FF3382
:1018D400204600930AF038FC04B010BD6FF01500E8
:1018E400FAE70020F8E700BF3DF500002DE9F043DA
:1018F40087B00E46DDE90E811446DDE910251F464A
:1019040030B329B3DFF850C000F1E009002D08BF5F
:1019140065469EB9CDE9034400F5CE74204605968C
:1019240011F027F803ABCDE900432A463B46414674
:1019340048460AF0DDFC07B0BDE8F08300224146CA
:101944000E9248462A4607B0BDE8F0430AF0FABDB5
:101954006FF01500EFE700BF49180000F0B50E4620
:10196400044689B000286FD001230246C3630023D4
:10197400D0F89810364F403040F80C7C42F8301FB5
:10198400CDE901334FF0FF330093C36D10F0B1FA8A
:10199400304A06AB92E8030083E8030018460AF0D5
:1019A40099FA0546D8B904F134000AF075FA0546E7
:1019B400A8B93946284805AA10F077FA054670B93F
:1019C400059B9A6872B10C33D4F89400C4F8A03023
:1019D4000DF0E3FDC4F8D40030B96FF00B052846D0
:1019E40009B0F0BD0346EFE7D4F894000DF0D5FD3F
:1019F400C4F8D8000028F0D0D4F88C30D4F8A01063
:101A0400C4F8A8300423C4F8AC30C4F8C4300223AA
:101A1400A362124BB4F89420D4F8D470C4F8B8106C
:101A2400C4F8D010D4F89010236204F1A403A4F8ED
:101A3400B020C4F8A470C4F8C010A4F8C820C4F836
:101A4400BC00A661E362CAE76FF01505C7E700BFF3
:101A540014470100F03A01001E470100BC3B01009D
:101A64002DE9F047044607464FF00109DFF850809E
:101A740014B93846BDE8F08794FAA4F5B5FA85F5AB
:101A840009FA05F32E0108EB05156FEA030A24EAA7
:101A940003042B7B002BEBD058F806301B694BB9A1
:101AA4004644736804222846196807EA0A0700F0C6
:101AB40051FADDE7284698470028D9D1F0E700BF5E
:101AC400D83A010030B5002289B00F490F4811F00F
:101AD40084FB002200230024CDE906230E230C4DB1
:101AE400CDE903344FF440722846CDE90144094B53
:101AF400094900940AF048FF0849284611F01AF8E9
:101B0400204609B030BD00BF251B0000A80F0020EF
:101B1400200B0020FD1D0000582600202647010050
:101B240001480BF0A3B800BF340600202DE9F047AC
:101B340080461F480F460DF082FD0646002830D02F
:101B440000252846BDE8F087237B73B12368DB6852
:101B54000BB12046984723681B69D3B963680422F4
:101B64002046196800F0F6F9013610344C45EBD3E1
:101B7400B8F1000FE5D0002DE2D02846FFF770FF42
:101B84000546002FF7D000214FF4A4700BF08CFD14
:101B9400F1E7204698470028E0D00AFA06F31D43EF
:101BA400E2E705464FF0010A024CDFF80C90DDE74E
:101BB400A0160020D83A0100E83A0100014B53F87E
:101BC40020007047FC3B010008B5034608462BB1D2
:101BD400044A136000F074FC002008BD6FF0150087
:101BE400FBE700BFB801002010B5044C237813B9FB
:101BF40003480BF03BF80123237010BDAA210020F9
:101C04003406002010B5044606480DF018FD3CB11A
:101C1400054BD3E8EF1F0139C3E8E21F002AF8D1CE
:101C240010BD00BF981600209C160020002001461D
:101C3400034BD3E8EF0FC3E8E21F002AF9D1704742
:101C44009816002070B5FFF7F1FF0546074C084EC3
:101C5400B44200D370BD63685B792BB123685B68C1
:101C640013B12946204698471034F1E7D83A0100C9
:101C7400E83A010010B5044C044920460DF063F91C
:101C8400034B1C6010BD00BF20050020E83B010091
:101C94009016002008B50023074A4FF40041137042
:101CA400064A07481360074A1360FFF78DFFBDE833
:101CB4000840FFF7DFBF00BFAB21002098160020CB
:101CC4003FF600009C160020014600220023014834
:101CD4000DF05AB92005002001480DF0F3B900BFFA
:101CE40020050020024B014618680DF03DBA00BFE4
:101CF4009016002001480DF073BA00BF20050020A3
:101D040070B5264B1878002847D0FFF7E5FF054645
:101D140070B1234BD3E8EF1F0139C3E8E21F002A57
:101D2400F8D1204C204EB4422DD32846FFF7DAFFD9
:101D34001E4B1F4C1B68002B19DD11F007FA4FF4E2
:101D44007A72A0FB020302FB0131C30B43EA414355
:101D5400D4E900209B1A40F2E9324FEAD13161EB19
:101D64000001934271F1000101D3FFF76BFFD4E945
:101D7400003213F57A7342F10002C4E90032BDE87F
:101D84007040FFF7B7BF63685B7923B123682946C6
:101D940020461B6898471034C5E770BDAA2100206F
:101DA4009C160020D83A0100E83A01009816002059
:101DB400A00F002070B50D4D297861B90120FFF7FF
:101DC400B5FE0B4C0B4EB44206D3FFF799FF002827
:101DD400FBD101232B7070BD63685B791BB1236851
:101DE40020469B6898471034EDE700BFAB210020E4
:101DF400D83A0100E83A010000212DE9F0470846ED
:101E0400FFF794FE044658B340F267684FF00009A8
:101E140011F0F6FB1B4B1C4A1B58136033B11B4BD0
:101E24001B68092B02DD1A480AF020FF0025194F10
:101E3400DFF85CA044B12046FFF712FE044618B94F
:101E44004FF0FF384FF0FF39FFF75AFF064628B925
:101E5400B5B942464B4650460AF02EFF3546E9E7EF
:101E64004FF0FF384FF0FF39D2E72B689B691BB165
:101E740000222846114698471035BD42F5D3E8E7BD
:101E8400054DFAE708000000941600209C16002077
:101E940034060020E83A0100D83A010013B5184886
:101EA4000DF0CDFB174B1B787BB14FF02003EFF304
:101EB400118483F31288BFF36F8FFFF721FF84F33C
:101EC4001188BFF36F8F02B010BD0F4B1B68002B3E
:101ED400F9D050B9002200230C48CDE900234FF477
:101EE400004200230BF03EFEEDE70928EBD1074842
:101EF40011F07FF9064802B0BDE810400AF0B6BE02
:101F04009C160020AB21002094160020A80F00206E
:101F14003406002010B5064B04461B68984721463A
:101F2400A06004480DF0AEF8BDE81040FFF7B6BF5E
:101F3400B801002020050020044A054B9B1AB1EB90
:101F4400D30F34BF52F8310000207047C839010064
:101F5400D83A0100084B10B4C31A44681B1101336A
:101F6400237143689A7101224368196043685A7166
:101F740010BCFFF739BE00BFD83A01002DE9F04F7D
:101F84008FB0C1F34A2804AF0D469146B8607B6018
:101F94000C0DB8F1000F63D000264FF0040B4FF086
:101FA4000A0A07F11403C7F80C80C7E907667E62C2
:101FB4000193CDF808B0CDF800A007F11C03324618
:101FC4004846F968FEF734FDB0F5006F03461CD3AC
:101FD4006C468AB0D9F8041004AB26481A46C3E903
:101FE400050140F2FF71D9614FF400711984224B4D
:101FF40042F8103F4FF4125133462048FFF7BEFF1A
:10200400A5462C37BD46BDE8F08FC0F30A0804F19D
:102014001700184420F0070080083B60FFF754FEC7
:1020240068F35325044690B13B6800F11001C7E9F9
:10203400083607F11403F961CDE900A3CDF808B01F
:1020440048460F4AF96807F11C03FEF7F1FC68F3F0
:1020540053252A4620467B68B9680DF022FBD0E759
:1020640004F1170020F007008008FFF72DFE044656
:10207400EDE700BF3B47010004000001783A01008E
:102084007BF600002DE9F04F87B00446DDE9105AD5
:10209400DDE912690F4693469846A6B310213346EC
:1020A40052460020CDF80090CDF81490FEF7EEFAD9
:1020B400014605F117000844144B04F007040BF023
:1020C400070BE40020F0070003EA412344EA8B14E1
:1020D40080081C430391FFF7F7FD44EA05540546C5
:1020E40040B13EB1334652460399CDF800901030CA
:1020F400FEF7CCFA434622463946284607B0BDE8E7
:10210400F04F0DF0CEBA3146D3E700BF00FE0F000A
:102114000EB403B503AB53F8042B014604480193F2
:1021240001F04EFC02B05DF804EB03B0704700BF51
:102134000DF70000CA0605D48B064CBF02490349BB
:10214400FFF7E6BF704700BF7267010071670100C7
:102154002DE9F04F89B09A46DDE914739DF84CB02F
:102164000593169B04460D46179E06920493BBF1F5
:10217400000F00F0858006F0080307930DF079FA4C
:1021840006F002090246002849D020468549FFF797
:10219400BFFF8046B9F1000F08D016F0440F40D1BC
:1021A4002A4620468049FFF7B3FF804406F0010326
:1021B40053B17E4B204653F82B207D4B7D49002A9A
:1021C40008BF1A46FFF7A4FF06F00803002B54D0FB
:1021D400794B204653F82B207849FFF799FF0546A1
:1021E400069B2BB11A4620467549FFF791FF05441B
:1021F400BAF1000F05D0524620467249FFF788FF16
:1022040005444544002F49D1049B002B4FD1F307CB
:1022140000F1C18031462046FFF78CFFB5E08046CF
:10222400B8E7694B18680028BFD0684B4FF47A7937
:102234001B684FF46161B5FBF3F5B5FBF0F300FBEC
:10224400135509FB05F5B3FBF1F2B5FBF0FE4FF0B6
:102254003C0C01FB123100FB1E55B1FBFCF309FBE6
:1022640005F5B5FBF0F50CFB131120460091CDE903
:1022740001E55749FFF74CFF97E706F00805AFE77C
:10228400BAF1010F06D1002F65D1049B002B7CD03D
:1022940000250CE0002FF8D04E485DE04E483B4648
:1022A40022464E490CF04AF9049B002B69D0DFF812
:1022B4003081DFF83091049F3146102F204628BF2B
:1022C40010274FF0000AFFF735FF554546DC059B04
:1022D400494620461A78FFF71BFF4FF0010A1AF00F
:1022E400070F03D141462046FFF712FF57453CD95B
:1022F400059B4946204613F80A20FFF709FF0AF117
:10230400010ABAF1100FEAD14FF0000A204636490B
:10231400FFF7FEFE5246059B20469A5C334B995CC0
:1023240011F0970F08BF2E223149FFF7F1FE0AF191
:10233400010ABAF1100F1DD01AF0070F03D141465C
:102344002046FFF7E5FE57455246E4D8414620466D
:10235400FFF7DEFEEBE720485D46A0E74146204656
:10236400FFF7D6FE0AF1010AAFE720462149FFF73D
:10237400CFFEC4E7059B3B440593049BDB1B0493FE
:1023840099D1BBF1000F7FF442AF204609B0BDE8FC
:10239400F04F0DF0ACB92046054A0649FFF7B8FEE8
:1023A40038E700BF7F470100834701000C3C010070
:1023B4007A470100C4530100203C0100A8470100F2
:1023C400AE470100B2470100A8160020A416002061
:1023D4008C4701003BF700000DF70000C5390000F1
:1023E4003D670100B7470100BD4701007A6801005D
:1023F400BF4701003B6701002DE9F0410F884B689E
:1024040005460C4690468E6886B0C7F382175BB1CA
:10241400144A9B1A43F3CF01002920DB2078C0F330
:10242400C200FFF789FD0346214651F8102B60884E
:10243400C2F34A22002A01EB020408BF0021002251
:10244400C0F30B10CDE90408CDE902142846314647
:1024540001970092FFF77CFE06B0BDE8F0810023EF
:10246400E2E700BFC839010042F20F7373B58B4233
:1024740028BF0B4605680446052168460D4A0BF043
:10248400E3FD0646636828460B225B680A490DF0A3
:1024940021F963683246694628465B680DF01AF9EB
:1024A40063681B2228465B6804490DF013F902B0E7
:1024B40070BD00BF5E4F0100DE470100C24701004E
:1024C40000210123064A904206D8064A01B9012395
:1024D4001360054B18607047012140085B00F2E768
:1024E40040420F00A4160020A8160020014B002033
:1024F40019607047C01600200122024B02481A706E
:102504000DF0F5B8AD210020503C01000148FFF763
:10251400ABBF00BF503C010010B5064B0C46186819
:10252400FFF74CFB2146BDE8104003460F2202484A
:10253400184700BFC0160020503C0100F8B50D46F6
:102544000446064F4618B44201D12846F8BD14F893
:10255400011BBB6801485B689847F4E71437010026
:102564004B1E59425941014B19707047AF2100204D
:1025740008B5012BBDF808100CD171B90A4B1B68C2
:102584000BB9012008BD1078012809D800F001001A
:102594009847F6E76FF00C00F4E76FF00600F1E7F8
:1025A4006FF01200EEE700BFC41600202DE9FF41D2
:1025B4001F460D4B054658680C46164680B1D1F8A7
:1025C4000C808047094B324618700123CDE9018302
:1025D400BDF828302146009328463B460EF0B1FE54
:1025E40004B0BDE8F08100BFC4160020AE21002075
:1025F40000B50E4B89B01B788DF807009BB1002104
:10260400182202A810F091FF094B002003930DF14A
:1026140007030493012302A9ADF8143006F09CFDCE
:1026240009B05DF804FB6FF00C00F9E7AF2100205E
:10263400883C01000449431E0F3013F8012F8A5CC3
:1026440083421A70F9D170472B480100F0B5074650
:10265400264E8DB001AD0C460FCE0FC50FCE0FC563
:1026640096E8070085E807003846002F39D0002C8B
:1026740039D0381F0246214610344B780D781B049C
:1026840043EA0563CD7804312B4311F8025C8C4294
:1026940043EA052342F8043FEFD10421144C8A078E
:1026A400036916D1C3F30742A55C1A0EA25C42EA81
:1026B4000562C3F30725655DDBB2E35C42EA0542CC
:1026C40042EA032221F0030330336B4453F82C3CD9
:1026D400534050F8042F013153402C290361DED1BB
:1026E40001200DB0F0BD2046FBE700BFF83A010021
:1026F4002B4801002DE9F04F002703689DB0029399
:102704004368DFF8BCA103938368DDE902460493C0
:10271400C36805930369DDE904BE0693436907931F
:102724008369DDE9062C0893C36998460993089BDD
:102734000093CD590CAB2DBA5AF8049BDD514FEAE6
:10274400F223A94483EAB213009D83EA72634B44E3
:1027540025EA020502EA0C0985EA09052B444344EB
:1027640086EA0B054FEA743888EAB408254006EA7D
:102774000B0985EA090588EAB4580437A844402FB0
:1027840003EB0E054344DE46DDF8008040F088800C
:102794004FF0100A4B490A9151460AF1010A0DF112
:1027A400700E0AF00F070EEB870757F8407C01F014
:1027B4000F094FEAB748019788EAF71801F10E07A5
:1027C40007F00F070EEB870757F8407C09314FEAF3
:1027D400F74E8EEA774ECDF82CE001F00F010DF1A3
:1027E400700E0EEB81010EEB890959F840EC51F89B
:1027F400401CBAF1400F7144DDF804E088EADE08B9
:10280400DDF82CE041448EEA972E714405EA020873
:102814004FEAF52E2CEA050787EA08078EEAB51E6B
:10282400DDF828808EEA756E774458F804EF49F88D
:10283400401C77440F4400994FEA733E394484EABC
:102844000607CDF828808EEAB30E07EA030704EAE8
:1028540006088EEAB35E87EA080777440F4401EB63
:102864000B0ECDF800C0B34622D102993944016061
:1028740003991944049B416023448360059B3344BA
:10288400C360069B73440361079B2B444361089B0D
:1028940013448361099B6344C3611DB0BDE8F08F99
:1028A400B346CDF800C0264694461C462A4640E767
:1028B400944626462A461C4675463B466CE700BFAE
:1028C400D83C0100143D010010B50446C8B1702283
:1028D40000210CF04CFF0B4B0B4A0C49C4E90023BC
:1028E4000B4B0C48C4E902130B4BC4E9040301204D
:1028F4000A4BA36103F17453A3F52303A3F6924394
:10290400E36110BD85AE67BB67E6096A72F36E3C8E
:102914003AF54FA57F520E518C68059BABD9831FA6
:1029240001480BF04FBA00BFD83D010038B504464A
:1029340018B90F4B0F485B6898476168B1F5683F59
:1029440010D0B1F5680F0DD00B4DA9420AD011F487
:102954006861206807D00146084810F0BFF80023DA
:102964002360656038BD142210F0DFFDF9E700BF75
:10297400DC0300202B4901002C5F5CA9CC1B002048
:1029840008B560B34368B3F5683F0ED0B3F5680F7C
:1029940018D0144A934220D000684FF0FF324FF011
:1029A400FF330AF079F858B115E001220368D3E83F
:1029B400EF1F002903D1C3E8E02F0028F7D10AD183
:1029C400002008BD0368084A1B7803F5807352F899
:1029D4002330002BF4D00548F3E70548F1E76FF402
:1029E400E040EEE72C5F5CA900000350E98FFFFF95
:1029F400EA8FFFFF08B520B34368B3F5683F09D0F9
:102A0400B3F5680F13D0114A93421DD000680AF041
:102A1400BDF814E000220368D3E8EF1F012903D1B5
:102A2400C3E8E02F0028F7D109D0094808BD0021E8
:102A34000368084A1B7803F5807342F823100020CA
:102A4400F4E76FF4E040F1E70348EFE72C5F5CA99B
:102A5400E98FFFFF00000350EA8FFFFF10B5044623
:102A640018B91D4B1D485B6898476368B3F5683F08
:102A74002FD0B3F5680F2CD0194A934219D123688B
:102A840003BB4FF0FF324FF0FF332146154809F0E6
:102A94000FFF08B923681BB90F4B13485B689847AD
:102AA40014220021206810F040FD4FF46863636035
:102AB40008E0B3F5683F0DD83A2B03D040F6BA626C
:102AC4009342DED1206810F050F8636843F03A0373
:102AD400636010BD054AF3E7DC0300202B490100C5
:102AE4002C5F5CA9CC1B0020514901003A00003A3C
:102AF40008B506494023142205480FF0E1FFBDE85C
:102B04000840044904480BF0CFB900BFCC1600209C
:102B1400CC1B0020E03D0100F43D010001491022DE
:102B24000A60704710ED00E072B6404080F31188EF
:102B3400BFF36F8F01B5FEF717FB002802D0BFF378
:102B44004F8F30BFBDE8014062B6BFF36F8F70474F
:102B540072B6494081F3118801B5FEF705FB0028E0
:102B640002D0BFF34F8F20BFBDE8014080F311882E
:102B740062B670472DE9F04781460C4600AF002944
:102B84004CD0D1E900126E468AB0A3686D464FF06E
:102B9400050AA8462548C5E90723C5E9050148F8FB
:102BA40010AF002342464FF421512148FFF7E6F9C4
:102BB400D4E90312B5466369AD461E48C5E9072347
:102BC400C5E90501C5F810A0002342464FF4215180
:102BD4001748FFF7D3F9B54688B0E3696D464FF05F
:102BE400030AA846144AC5E9052348F810AF002390
:102BF40042464FF4C2510E48FFF7C0F9B546A369E7
:102C0400AD460E4AC5F810A0C5E905230023424687
:102C14004FF4C2510648FFF7B1F9B546214648467C
:102C240009F0A6FCBD46BDE8F08700BF7E4901005F
:102C3400B83A0100AD490100DC490100EB4901004B
:102C440040B2002807DB01234109034A00F01F00BA
:102C5400834042F82130704700E100E040B2002890
:102C64000CDB01220649430900F01F008240203397
:102C740041F82320BFF34F8FBFF36F8F704700BF1E
:102C840000E100E0054B420953F82220012300F043
:102C94001F0003FA00F01040704700BF00E100E09D
:102CA40040B2002801F10101ACBF00F16040064BC5
:102CB4004FEA4111C9B2ABBF00F5614000F00F000B
:102CC40080F800131954704714ED00E030BFFFF78B
:102CD400FDBF00BF0B4A08B50B4B22F07F029A6080
:102CE400BFF34F8FBFF36F8FD3F8882022F47002A5
:102CF400C3F8882009F0FCFC0AF068FD00F0F2FB40
:102D040009F040FD0000000000ED00E0094A0A4916
:102D1400936809689867D96708494B6843F08053FA
:102D24004B60002383F31188BFF36F8F9368D86FD0
:102D3400704700BF781F00203443010000ED00E01D
:102D440016498A684FF030001044EFF3098C80E88C
:102D5400F01F202080F31288BFF36F8F104F4FF0C5
:102D640000664A698A603E604FF074041419206852
:102D74000C4C2060906F0023936780F3118802F15C
:102D8400300090E8F01F8CF3098802F1000004B5CC
:102D94000DF047F9BDE8044070470000781F00209B
:102DA40004ED00E0E81B00201EF0040F0CBFEFF35D
:102DB4000880EFF30980816911F8021C0229FFD011
:102DC40001B50DF01FF901BD42F8203C009B0B49F1
:102DD40042F81C3C019B21F0010142F8183C029B83
:102DE40042F8081C42F8143C4FF0807342F8043C4B
:102DF4000023203A02658367704700BFF50D000089
:102E04000A4B446F98600A4B1C60436E83F30B8833
:102E1400104681F30988002163B681F31188BFF35A
:102E24006F8F00220023FDF7E3FF00BF781F00200F
:102E3400E81B002001B5EFF30580A0F110004FEA74
:102E4400C0000449014409C99847BDE8014002494A
:102E54000847000064370100BD2E0000114B124AE0
:102E64002DE9F041D518013DB5FBF3F5DFF83C80C1
:102E74005D430F4B074608EB0304013CB4FBF3F43A
:102E840003FB04540E1B30460A4910F041FB701931
:102E940042460021083E10F048FB7E6704F108001A
:102EA400BDE8F08101000000000000000400000003
:102EB40004000000E83A0100044B9968586988420C
:102EC40003D003494FF080520A607047781F0020F6
:102ED40004ED00E02DE9F04186B006460D4600AF52
:102EE4000224444B4FF482517B6143483C6107F117
:102EF40010020DF09AF8414B9B6ADB0678D5404BE3
:102F04003D484FF48251C7E9044307F110020DF024
:102F14008CF81120394B9B6A1C070BD5394B36486A
:102F24007B6102234FF482513B6107F110020DF0E3
:102F34007CF81220314CA36A990723D5E846324B1A
:102F440007F110027B6102234FF482513B612A484E
:102F54000DF06BF8636BA26A120612D588B06A464C
:102F64002A492548C2E9051303234FF4C25142F804
:102F7400103F0DF05AF8C5461EB1A36A23F0800332
:102F8400A36213201D4B9B6ADE070BD5204B1A4806
:102F94007B6102234FF482513B6107F110020DF073
:102FA40044F81420154B9B6A9C060BD5194B124808
:102FB4007B6102234FF482513B6107F110020DF053
:102FC40034F815200D4B18379A6AD10658BF9A6AFF
:102FD4009A6A920642BF5A6A22F400525A629A6A64
:102FE40042F0FF029A6200232B70BD46BDE8F081D7
:102FF40010208FE7194A0100B83A010000ED00E003
:103004002F4A0100624A0100754A01008D4A0100FD
:10301400A34A0100C24A01002DE9F04186B00646E8
:103024000D4600AF0224474B4FF482517B61464862
:103034003C6107F110020CF0F8FF444B9B6AD90481
:103044006DD5434B40484FF48251C7E9044307F11F
:1030540010020CF0EAFF17203C4B9B6A1A050BD5B3
:103064003C4B39487B6102234FF482513B6107F1A9
:1030740010020CF0DAFF1820344CA36A9B0523D508
:10308400E846354B30487B61022307F110023B616F
:103094004FF482510CF0C9FFA36BA26A100412D53D
:1030A40088B06A462D492848C2E9051303234FF422
:1030B400C25142F8103F0CF0B8FFC5461EB1A36AD6
:1030C40023F40043A3621920204B9B6A59050BD5B6
:1030D400234B1D487B6102234FF482513B6107F16E
:1030E40010020CF0A2FF1A20184B9A6AD20518D5C8
:1030F4001C4B15487B6102234FF482513B6107F15D
:1031040010020CF092FF1B20104A1837936A43F404
:103114007F43936200232B70BD46BDE8F0811620E7
:103124009AE79B6A9B04EFD50F4B07487B61022308
:103134004FF482513B6107F110020CF076FF1C2022
:10314400E2E700BFF14A0100B83A010000ED00E0F7
:10315400074B0100624A0100184B0100314B01008A
:10316400464B0100614B0100C24A010010B586B014
:1031740002243E4B4FF482513D4804AA0593049423
:103184000CF053FF3B4B9B6A99016CD53A4B384882
:103194004FF4825104AACDE904430CF046FF1E20EB
:1031A400344B9B6ADA010AD5344B31480593022328
:1031B4004FF4825104AA04930CF037FF1F202D4BC7
:1031C4009B6ADB020AD502242D4B29484FF4825115
:1031D40004AA059304940CF028FF2046254B9B6A0F
:1031E4001C030AD5274B2248059302234FF482512E
:1031F40004AA04930CF019FF21201E4B9B6A590367
:103204000AD5214B1A48059302234FF4825104AA8C
:1032140004930CF00AFF2220164B9B6A9A030AD5EA
:103224001A4B1348059302234FF4825104AA0493C2
:103234000CF0FBFE23200F4B9B6ADB030AD5144BD7
:103244000B48059302234FF4825104AA04930CF013
:10325400ECFE2420074A936A6FEA03436FEA1343A0
:10326400936206B010BD1D209AE700BF794B0100A0
:10327400B83A010000ED00E0914B0100A44B0100BD
:10328400BE4B0100E84B0100064C01002B4C010031
:10329400454C01002DE9F0438BB07A4B0446D3F83A
:1032A4000480002600AFC8F3080586F31188BFF335
:1032B4006F8F02F07F43B3F17F4F0ED102F00C0306
:1032C400082B19D1704B4FF48251FB6102236F48D4
:1032D400BB6107F118020CF0A8FE00263446002357
:1032E400FB71EB1E092B00F2AC80DFE803F00A9FB0
:1032F400A29BAAAAAAAAAAA510074CBF0C460126FB
:10330400EDE7E9464FF00208614B07F11802FB6153
:103314004FF482515D48C7F818800CF086FE0023F4
:10332400584DFB71EB6A9A070BD55A4BC7E90683D4
:103334004FF48251554807F118020CF076FE002331
:1033440041E0EB6A002B01DA534BEFE7EB6A5B00D9
:10335400F5D5524B07F11802C7E906834FF48251A1
:103364004A480CF062FE6B69A26943F480736B6196
:10337400BFF34F8FBFF36F8F6B6932F8022C23F4C6
:1033840080736B61BFF34F8FBFF36F8F4DF6027382
:103394009A4208D0AB6ADBB2002B36D00120F91D6B
:1033A400FFF798FD40E088B023686A463C493748F7
:1033B400C2E9051303234FF4C25142F8103F0CF045
:1033C40034FECD462368FA79DAB907F1080504F129
:1033D400200C2A4620686168083403C264451546F7
:1033E400F7D17A6A002E47D0C2F3080121B96FEAF7
:1033F40052226FEA42227A62184607F10801FFF767
:10340400B9FB2C37BD46BDE8F083AB6A13F47F4F9C
:1034140004D00120F91DFFF7FFFD05E0AB6AB3F509
:10342400803F8CD3FFF7A2FE0346CCE70020F91DB2
:10343400B6E70020F91DEEE71A4BFB610223BB61DE
:1034440076E7194A18F4F87FE8468AB0174B18BF94
:1034540013466A461649103DC2E905134FF400733A
:103464001384144BD5614FF41151084842F8103FAE
:103474000CF0DBFDC54662E722F4FF7222F0010284
:10348400B9E700BF00ED00E09E4C0100B83A01002E
:10349400C94C0100E04C0100014D01000F4D010039
:1034A4002E4D01004A4D0100854C0100704C010075
:1034B4006E4D010004000001044B5A6942F01002F1
:1034C4005A615A6942F480625A61704700ED00E023
:1034D400EFF30880EFF3098101B57246FFF7DAFED6
:1034E40001BD00BF002320210348C2180133452B2E
:1034F40082F80013F9D1704700E100E0002080F366
:103504001488BFF36F8F002080F30A8880F30B8840
:10351400FDF732FF00200E490860BFF34F8F0D48BE
:1035240080F3088800F03EF8202080F311880A48D0
:103534004FF40061401880F30988EFF314800221EE
:10354400084380F31488BFF36F8FFFF7C3FB0000B9
:1035540094ED00E008490020C8370020BFF34F8FE6
:103564000549064BCA6802F4E0621343CB60BFF31B
:103574004F8F00BFFDE700BF00ED00E00400FA0537
:10358400002318460649D1F89020C2F3072293423B
:1035940000DB7047C1F89830C1F8A0000133F6E7AA
:1035A40000ED00E010B572B6002484F31388FFF731
:1035B400E7FF23464FF0FF300C4A03F120010133AB
:1035C400102B42F82100F8D100234FF0FF30074AB6
:1035D40003F160010133102B42F82100F8D162B6E7
:1035E400BFF34F8FBFF36F8F10BD00BF00E100E04A
:1035F400084B9B6883420BD1EFF3058343B1064B21
:103604005A6842F080525A605A6A22F400425A625E
:103614000AF06AB8781F002000ED00E01FB5094CDD
:10362400094A23460121094800F02AF9002303939B
:10363400074B0121E41A01A80193029400F02AF92E
:1036440004B010BD0000072000000020043E01006B
:10365400B007002010B50C7A0B6804F01F0223F0A9
:103664001F031A43CB68640923F01F03054943EA87
:10367400440343F00103C1F89800C1F89C20C1F849
:10368400A03010BD00ED00E080B500AF88B06A4600
:10369400074BC2E90530032342F8103F00234FF4DF
:1036A400C2510448FEF76AFC6FF01500BD4680BDA8
:1036B400854D0100983A01002DE9F04F1446064665
:1036C4004FF0000987B05F4D00AF79607B68994582
:1036D40035DAD6F80480B8F1000F54D0B8F11F0FD2
:1036E4001BD918F01F0F18D1D6F800B01BF01F0F0C
:1036F40013D158460CF09CFC824608EB0B000138B1
:103704000CF096FC82451FD06FF0150A6C4688B009
:103714006A464D49C2E9051A05E06C4688B06A4616
:103724004A4BC2E90539032342F8103F00234FF402
:10373400C2514748FEF722FCA5466FF01504204607
:103744001C37BD46BDE8F08F1AF1160FDED0544584
:10375400DCDDC5F898A0D5F89C00C5F898A0D5F88C
:10376400A02020F01F0042F01F08D6E900211144D8
:10377400904201F1FF3B1ED1D84508D131465FFA92
:103784008AF00CF05EFC09F101090C369EE7C5F8DD
:1037940098A0D5F89C3021F01F0103F01F030B43C0
:1037A4003146C5F89C30E0B20CF04BFC10F1160F1A
:1037B400C3D0441CE7E7013AD845E0B222F01F0227
:1037C400C5F898A008D1D5F8A030314603F01F03FE
:1037D4001343C5F8A030E7E7D5F8A01001F01F01A6
:1037E4000A43C5F8A02031460CF02BFC10F1160F4B
:1037F400A3D0C5F898A0D5F89C203B7C08F1FF38ED
:1038040062F304033B74D5F8A0303A7C5B0863F39D
:1038140047123A74D6E900321344BB6023F01F0305
:10382400441C4344A3EB0B03E0B223F01F0307281B
:103834007B6102D9FFF728FFB8E707F10801FFF71A
:1038440009FFB6E700ED00E0CE4D0100AB4D0100ED
:10385400983A01000522044BC3F89420BFF34F8F1C
:10386400BFF36F8F704700BF00ED00E0BFF35F8FC1
:103874000022024BC3F89420704700BF00ED00E023
:1038840010B5034C2278FFF717FF207010BD00BF5E
:10389400B02100202DE9F74F294D8A4606464FF006
:1038A4000008AB46274FD0451BDAD6F80490B9F18F
:1038B400000F3FD03168084601910CF0B9FB019923
:1038C400044609EB010001380CF0B2FB84424FF0CE
:1038D40014021D4B08D002FB08F36FF015024BF8DD
:1038E400032003B0BDE8F08F14F1160F2C60F8D05C
:1038F4001978A142F5DD02FB08B0C7F89840C7F873
:103904009840D7F89C4000F10801007B64F3040060
:103914000871D7F8A0000C79400860F347140C71C3
:10392400D7F89C1021F01F016960D7F8A01021F08E
:103934001F01296108F1010814350C36B3E700BFF3
:10394400EC1B002000ED00E0B021002038B50E4D46
:103954002C68082C15D80020FFF788FF0B4B0C4A65
:10396400C3F8C020844205D10A4B00201C70FFF725
:1039740071FF38BD696801EB0011FFF76BFE013080
:10398400F0E74FF0FF30F4E7103E010000ED00E0F7
:10399400AAFF4400B021002008B5024B1B689847D9
:1039A400002008BD001C0020034B044A18609378D3
:1039B40043F0020393707047001C002004020020AF
:1039C400F0B587B007460E4614460021102268461B
:1039D4001D460FF0AAFD02238DF80230054B2A463E
:1039E40021466846CDE9047601930AF059FB07B0F5
:1039F400F0BD00BF8700010008B50649064821F064
:103A04000701C1F1005202F5E0220BF053F8002047
:103A140008BD00BF5B6D00200861002070B51B4B22
:103A2400D3F80425D20744BF0022C3F8042510228A
:103A3400174BC3F840244FF47F03D3F83021D3F855
:103A44003431072A1BD1023B032B02D8114AD35C21
:103A5400ABB14FF05024012600250520C4F81866A8
:103A6400C4F814560EF088F83046C4F814660EF004
:103A740083F8C4F81456C4F81856002070BD4FF0EB
:103A840050230022C3F81426F7E700BF00D00050EB
:103A940000300050004E01000E4B402928BF402149
:103AA40070B51D460C4C4618B04203F1020304D114
:103AB400002305F81130074870BD02781209A25C92
:103AC40003F8022C10F8012B02F00F02A25C03F899
:103AD400012CE9E7CF210020834E010030B50378A3
:103AE4008BB0044607AD032B21D8DFE803F0021A9C
:103AF4001C1E12492846FCF79DFC059563781E217F
:103B04000493A3780E4A0393E3780E48029323792F
:103B1400019363790093A3790AF096FA09480BB0EC
:103B240030BD0949E6E70949E4E70949E2E70A2122
:103B34002846084A0AF088FADFE700BF3E4E010033
:103B4400604E0100B1210020454E01004C4E0100A1
:103B5400564E0100635E010030B50024094D0A4B46
:103B640085B02846029303940FF05EF902AB284611
:103B740000934FF4A3620A23044909F0F9F920469B
:103B840005B030BDE00F0020944E010058290020FC
:103B94000146014809F062BAE00F0020037830B50D
:103BA400012B13D0022B27D07BB90A46184B03F103
:103BB400100453F8045BA34242F8045BF9D11B7868
:103BC400137043884B731B0A8B7330BD0A46104B2A
:103BD40003F1100453F8045BA34242F8045BF9D1E7
:103BE4001B7813704368C3F307224B731B0CCB730E
:103BF4001B0A8A730B74E8E700F1100350F8042BD6
:103C0400984241F8042BF9D103780B70DDE700BF2B
:103C14009D4E0100012838B505460CBF06480748EB
:103C24000DF005FD044620B101210C300DF05BFDC3
:103C34002576204638BD00BF000700207C06002002
:103C44000246002070B50B460A49D1E8EF4FC1E89F
:103C5400E50F002DF9D124B9BDE870400120FFF72C
:103C6400D9BF01212082217604F10C000DF03BFD27
:103C7400204670BD3801002070B504460F2C0D4657
:103C84001046194605D80D2C0DD9BDE87040FFF734
:103C9400D7BF132C07D10C480DF0C9FC044638B922
:103CA4000024204670BD02460B4645B10748F3E7A1
:103CB40001210C300DF017FD01232376F1E70120DB
:103CC400BDE87040FFF7A6BF84070020D40600209B
:103CD40070B58EB06C4606460A4D0D2E0FCD0FC43E
:103CE4000FCD0FC40FCD0FC495E8030084E8030083
:103CF4009DBF0EAB03EB860656F8380C02480EB097
:103D040070BD00BF243B0100B64E010038B5C36846
:103D1400B3F801401B786BB90F21204602F06EFF07
:103D2400054640B9084B1A8822B96FEA04506FEA75
:103D34001050188038BD012102F05EFE2846BDE80F
:103D440038400CF053BC00BF8821002010B5084C4B
:103D54000146052294F86F0003F08AF838B994F804
:103D64006F000422BDE81040024903F081B810BD81
:103D740000000020244E010080B5C36800AF88B065
:103D84006A461B7806490748C2E9051303234FF422
:103D9400C45142F8103F0CF014FABD4680BD00BF78
:103DA400BE4E0100103A01007FB5064B4FF482511C
:103DB40005930223044804AA04930CF002FA07B002
:103DC4005DF804FBE64E0100103A010098B5014687
:103DD40000AF0D480DF032FC0C490D480FF013F8FC
:103DE40000280EDA6C4688B06A460A4B4FF4C2517A
:103DF400C2E905300323084842F8103F0CF0E1F90A
:103E0400A546BD4698BD00BF3C01002050020020DD
:103E140000110020004F0100103A01000B46B0B51C
:103E24000D8A00AF04462946D868FFF735FE8AB0EC
:103E34006A46094BC2E90750C2E9053440F202431D
:103E44009384064B4FF43251054842F8103F0CF06E
:103E5400B8F9BD46B0BD00BF1D4F0100050000010B
:103E6400103A010080B5012100AF0C300DF06FFC59
:103E740088B06A46037806490648C2E90513032355
:103E84004FF4C25142F8103F0CF09BF9BD4680BD7F
:103E94003F4F0100103A01002DE9F041C56800AF21
:103EA4002E78B6B9B5F801800F21404602F0A6FE7F
:103EB400044688B96C4688B06A460C4B4FF4C2512C
:103EC400C2E9053803230A4842F8103F0CF079F997
:103ED400A546BD46BDE8F081EB783146437202F059
:103EE4008BFD20460CF082FBF3E700BF614F01001D
:103EF400103A0100B0B5C36800AF1C880121204608
:103F040002F07CFE80B96D4688B06A46084B4FF4D7
:103F1400C251C2E905340323064842F8103F0CF0AD
:103F240050F9AD46BD46B0BD0CF060FBFAE700BFEA
:103F3400874F0100103A0100B0B5C36800AFB3F871
:103F440001400121204602F059FE80B96D4688B037
:103F54006A46084B4FF4C251C2E9053403230648AC
:103F640042F8103F0CF02DF9AD46BD46B0BD0CF043
:103F74003DFBFAE7874F0100103A0100B0B5044653
:103F840000AF02EBC303934203D12046FFF746FF81
:103F940018E0104610F8085BA54219D10B8A507836
:103FA400984211D96D4688B06A460A49D461C2E97B
:103FB400051304234FF40151074842F8103F0CF055
:103FC40000F9AD46BD46B0BD084653689847F9E7C9
:103FD4000246D8E7AB4F0100103A01002DE9F04149
:103FE4005D4800AF0DF040FB044600287CD0037E02
:103FF400012B7CD0032B40F0A980038A032B0CD81F
:104004004FF40073554A564956480AF093FE40400F
:1040140080F311884FF0030002DF042104F10C0047
:104024000DF095FB4588B0F80080204605F00EFAA7
:104034004D4EC8F30B0326F81030238A9D4213D04B
:104044006E4688B06A464949D561C2E9051304231E
:104054004FF40151464842F8103F0CF0B2F8B5460F
:10406400204605F099FA26E0204605F0EFF90F21E5
:1040740036F8100002F0C2FD0546A0B9204605F04E
:10408400E5F96D4688B036F810306A463949C2E918
:10409400051303234FF4C251354842F8103F0CF086
:1040A40090F8AD46DCE721464FEA183202F03EFBB9
:1040B40028460CF09BFA304BD3F83C31A3B12F497E
:1040C4002F480EF0A0FE00280EDA6C4688B06A462F
:1040D4002C4B4FF4C251C2E905300323244842F863
:1040E400103F0CF06EF8A546BD46BDE8F081038A8A
:1040F400012B0CD840F65D23184A194919480AF0D7
:1041040019FE404080F311884FF0030002DF0221C2
:1041140004F10C000DF01BFB054600780CF027F8A9
:1041240083070CD440F661230C4A17490D480AF062
:1041340001FE404080F311884FF0030002DF0423A6
:104144002146124A2878FFF719FF89E76D4688B09F
:104154006A460F499BE700BF3C010020CD4F010098
:10416400015001001A5001008A210020375001003B
:10417400103A01005B5001000000002050020020B2
:1041840000110020004F01007D500100D03E0100CD
:10419400AB50010010B5012104460C300DF0D7FAE4
:1041A4002146BDE810400723014A0078FFF7E6BE28
:1041B400F03E0100F8B5C5680121B5F8016000AF13
:1041C400304602F01BFD044680B96C4688B06A464E
:1041D400104B4FF4C251C2E9053603230E4842F88E
:1041E400103F0BF0EEFFA546BD46F8BD2B783BB95A
:1041F400D5F80330C0F8AD30D5F80730C0F8B13089
:104204004FF48051201D0BF0C5FF20460CF0EEF951
:10421400EAE700BF874F0100103A01002DE9F84397
:10422400064600AF907A8846144605F007F9414DDA
:10423400854218D0A47AE846204605F0FFF88AB0F3
:104244006A463D4BC2E90740C2E90536062355627A
:104254004FF44251394842F8103F0BF0B2FFC546C3
:10426400BD46BDE8F883204605F0F0F84FF00C0990
:10427400334D09FB00504388B34216D0204605F065
:10428400E5F809FB00506C4688B06A464388D36160
:1042940004232C492948C2E905164FF4025142F877
:1042A400103F0BF08EFFA546DAE7274ED6F838010B
:1042B40020B105F071F90023C6F83831204605F025
:1042C400C5F80C2606FB00504368ABB1B8F1000FEB
:1042D40012D1204605F0BAF8012106FB00504268CD
:1042E400D2E90003127A03F01F06B1405B09DAB188
:1042F40000EB83000BF04EFF204605F0A7F80C26D8
:1043040006FB00508368002BAAD0204605F09EF8D7
:10431400704305F80080204605F098F806FB005528
:10432400A86808F0A3FC9BE7C94300EB83000BF0EB
:104334004BFFE1E758070020BF500100103A01008D
:10434400041C0020F45001000000002038B50421B2
:1043540004460C300DF0FBF945780178224640887C
:10436400FFF75CFF25B1BDE83840024808F07EBC89
:1043740038BD00BF2001002038B5032104460C30AD
:104384000DF0E5F9E368057822461978B0F80100E4
:10439400FFF744FF25B1BDE83840024808F066BC89
:1043A40038BD00BF200100202DE9F04F87B0012364
:1043B400D0F80C80018A98F8004000AF03EB840326
:1043C4008B4240F28D806D468AB06A46C2E907315D
:1043D400052346484FF42151C2E90504444842F8F4
:1043E400103F0BF0EEFEAD461C37BD46BDE8F08F26
:1043F4006C4688B06A463F4B4FF4C251C2E9053B54
:1044040003233B4842F8103F0BF0DBFEA546013581
:1044140098F800309D42E7DA08EB8503B3F801B061
:104424000F215846B3F8036002F0E8FB0446002865
:10443400DED000F1280B46B34FF02003EFF31182D6
:1044440083F31288BFF36F8FE3696BB1013BE361C0
:1044540082F31188BFF36F8F204602F02DF9013EDD
:1044640008F004FCB6B2E6E7636993B982F31188F5
:10447400BFF36F8F02234FF482511D4807F11002DE
:10448400C7F814A03B610BF09CFE20460CF0AEF87C
:10449400BDE7A16918688B42606108BFA06182F31F
:1044A4001188BFF36F8F4FF02002EFF3118182F375
:1044B4001288BFF36F8FDA68E261C3F80C90C3F817
:1044C4000090626A4AB9C4E9083381F31188BFF3E2
:1044D4006F8F584608F046FDBEE713606362F4E749
:1044E4000025DFF814A0A94692E700BF2751010078
:1044F400103A0100515101006D510100F0B583B033
:10450400C5680121B5F8016000AF304602F076FBC2
:10451400044688B96C4688B06A462C4B4FF4C251A5
:10452400C2E9053603232A4842F8103F0BF049FE3E
:10453400A5460C37BD46F0BD2B78061D1A2B17D1A6
:10454400C378012B28D14FF4806130460BF022FE52
:1045540042050DD4D4F8A03039463B60D4F8A830D5
:1045640020467B6002F050FF20460CF03FF8E0E765
:104574002B788BB9B5F80330A4F89E30B5F8053024
:10458400A4F8A430B5F80730A4F8A6306FF480710D
:1045940030460BF019FE14E0D6E8AF3FDB05F5D545
:1045A4002B78202BF2D194F8AC30002BEED0013BC9
:1045B40084F8AC304FF42032002304F1580008F0A2
:1045C40077FD204602F068FBCEE700BF874F01006D
:1045D400103A010010B5C1E900239DF808300C46DB
:1045E4000B7204F033FF0C22024B02FB00335C60BD
:1045F40010BD00BF041C00202DE9F0474FF0FF322E
:104604004FF0FF33064617480F460DF010F84FF0F1
:104614000008044600F10C0A012150460DF063F82D
:10462400204684F8188004F011FF4FF00C090E4D59
:1046340009FB00504680204604F008FF09FB0050A7
:10464400C0F80880204604F001FF09FB005503214F
:104654005046C5F804800DF04AF80680877020465D
:10466400BDE8F08758070020041C00202DE9F04322
:1046740087B0804615460C4600AF21B9FFF7BCFF52
:10468400044600285DD00122002138460EF00BFBC1
:10469400204604F0DBFE0C23DFF8B49003FB00900B
:1046A400876020460CF0F9FF01462A480CF0F3FF1E
:1046B4004FF4A0220023384608F0FEFA064688B1DB
:1046C4004FF4A973244A254925480AF033FB32469E
:1046D400414624480AF02EFB404080F311884FF0F5
:1046E400030002DF204604F0B1FE0C23584319F8FE
:1046F4000060F6B16D4688B06A461B4BD661C2E9CC
:10470400053804234FF40251184842F8103F0BF0C7
:1047140058FD2046AD4604F03FFF092E14D00D2E5F
:104724000CBF6FF00B006FF004001C37BD46BDE8F2
:10473400F08315B12C600020F7E7204604F02CFF2D
:10474400F9E76FF06800F0E76FF06E00EDE700BF87
:10475400041C002044010020CD4F010084510100BD
:104764001A5001008D510100B9510100103A0100A5
:1047740070B588B006460D4642F22F00002101AA0A
:10478400FFF774FF044660B10B4B4FF4825107935B
:1047940002230A4806AA06930BF013FD204608B02C
:1047A40070BD0198C368B3F801203280B3F80330B8
:1047B4002B8004F0F1FEF1E7D5510100103A01001D
:1047C400F7B5144B054693F99B300C46002B1DDAC4
:1047D40014B9204603B0F0BD082C4FF0000142F29A
:1047E400180001AA264628BF0826FFF73FFF002825
:1047F400F0D1019F3246F968284601310EF088FE57
:10480400384604F0C9FE3544A41BE1E76FF0850087
:10481400E0E700BF000000202DE9F0478CB000263F
:10482400A94BB0F80180198848F470420478914289
:1048340008BF1E80054608BF012602AFA4B33C2C66
:1048440022D101F02BFB6FF0800110300BF0BCFC87
:104854000020FFF77BFA054670B99C4B4FF4825158
:104864007B6202239A483B6207F120020BF0A9FC09
:104874002837BD46BDE8F0874472002102F0BCF839
:1048840028460BF0B3FEF3E76D4688B002AA914BBD
:104894004FF4C451C2E9053403238D4842F8103F54
:1048A4000BF08FFCAD46E3E7C37800F10409012B5C
:1048B40008BF894B484608BF93F86F400BF053FC80
:1048C400494640B307F110000BF042FC05F1110119
:1048D40007F109000BF069FC01233B72EB78012B13
:1048E40027D04846FFF7FAF86C4688B002AA7B4BFB
:1048F4004FF4E251C2E905304FF400739383784BCF
:10490400734842F8103F0BF05CFC1321A546404667
:104914000BF062FCACE720460BF019FD014607F1F1
:1049240010000BF047FC494607F108000BF042FC6D
:10493400D4E707F11000FFF709FAEB780446012BDE
:104944000AD101F0ABFA82466FF0800110300BF00F
:104954003BFC50460BF001FE002CC2D02046002246
:10496400B5F8013007F1100120F8883B0BF022FC68
:10497400B5F81730A4F89E30B5F81930A4F8A4306F
:10498400B5F81B30A4F8A630EB786272012BE37003
:1049940016D107F1080104F18F000BF00BFC01F0B4
:1049A4007DFA217A4C4AC1EBC101114404F196000D
:1049B4000BF000FCD2F8E4305D0601D501F02EFCCA
:1049C4000721204602F018F81EB10121204602F00A
:1049D40013F820460BF040FEA37A072B6ED1231D5B
:1049E400D3E8AF3F13F4805F3B4D29D1E3781BB18B
:1049F40095F8D830180723D5022142F21600FFF7A4
:104A0400FBFD064600285BD002210C300CF06FFE43
:104A1400238800220380314642F21600FFF726FE67
:104A240070B16E4688B002AA2E4B4FF4C251C2E94F
:104A340005300323264842F8103F0BF0C2FBB5466D
:104A440095F8D930D90716D50021022320461A46F5
:104A540000910BF0FAFB70B16E4688B002AA224BAB
:104A64004FF4C251C2E905300323194842F8103FFC
:104A74000BF0A7FBB54695F8D8309A061ED5D5F8A5
:104A84005C319B689B0719D5B91D381DFFF770FE73
:104A9400A0B92046FA88B9880BF0B9FB70B16D460D
:104AA40088B002AA114B4FF4C251C2E90530032366
:104AB400074842F8103F0BF084FBAD462046E0E681
:104AC4006FF06800ADE700BF88210020F5510100B8
:104AD400103A010016520100000000202F5201007C
:104AE400030000014B5201006C520100835201008B
:104AF40000B5C16889B00B7801A88DF80030B1F811
:104B040001300431ADF8013011F8013C8DF8033067
:104B1400B1F80730ADF81730B1F80930ADF81930F5
:104B2400B1F80B30ADF81B304B7B8DF81D300BF01A
:104B340041FB07490DF10B000BF037FB0DF11100A0
:104B44000BF033FB6846FFF767FE09B05DF804FB22
:104B5400384E0100024BD3F85C315B69184700BF43
:104B640000000020F8B505460C4600AF19B9FFF760
:104B740043FD044618B340F635439D4219D12046FF
:104B8400FFF7E8FF054688B16E4688B06A460D4BCC
:104B94004FF4C251C2E9053003230B4842F8103FD9
:104BA4000BF00FFB2046B54604F0F6FC2846BD4644
:104BB400F8BD214605480CF06EFD0025F6E76FF0C0
:104BC4006805F3E79F520100103A010044010020F8
:104BD4002DE9F04186B000AF044604F037FC324BB7
:104BE40033F81050A07A04F029FC21460EF04DF859
:104BF4002E4B93F88A309B0614D50F21284601F0DA
:104C0400FDFF044690B96C4688B06A46284B4FF4C1
:104C1400C451C2E905350323264842F8103F0BF07E
:104C2400D0FAA5461837BD46BDE8F081837A073B24
:104C3400012B0ED9204B4FF484517B6102231D4874
:104C44003B6107F110020BF0BCFA20460BF0CEFCDE
:104C5400E8E70BF0CBFC052140F63540FFF7CCFC30
:104C6400044658B9154B4FF482517B610223114815
:104C74003B6107F110020BF0A4FAD3E700F10C0832
:104C8400012140460CF033FD012604210670404604
:104C94000CF02DFD002305808670C370214640F67C
:104CA4003540FFF75FFFBDE78A21002000000020A8
:104CB400C1520100103A0100EB52010017530100E8
:104CC400F0B583B0C36800AFD9789A781E8842EAF9
:104CD40001223A8059791A79B4B242EA01227A80DF
:104CE400D9799A79204642EA0122BA801A7A5B7A03
:104CF400012142EA0323FB8001F080FF0546A8B9A5
:104D04006D4688B06A461E4B4FF4C251C2E9053461
:104D140003231C4842F8103F0BF053FA0221AD461E
:104D240020460BF0DEFA0C37BD46F0BD394601F0E3
:104D3400F7FF38B91E2120460BF0D3FA28460BF0B2
:104D440055FCF0E70E2142F22000FFF755FC044623
:104D54000028F3D00E210C300CF0C9FC002306808F
:104D6400C0F80A303B88214643807B888380BB8817
:104D7400C380FB88038142F22000FFF7F3FEDDE7E6
:104D8400874F0100103A01002DE9F04FDFF85481FC
:104D940087B0DFF8549100AFD8F80C3053486FF364
:104DA4009433C8F80C3001F0DDFD451C4FF0FF32A0
:104DB4004FF0FF3329464B4808F004FF60B140F63A
:104DC400DE234A464A494B4809F0B4FF404080F389
:104DD40011884FF0030002DF4FF0030A414E15B96A
:104DE40008F0E0FBD8E7F368C3F38633022B60D9FD
:104DF400042B68D1337B002B5ED1002200233E4874
:104E04000CF01AFC044660B94FF427634A463B4948
:104E1400384809F08FFF404080F311884FF00300B9
:104E240002DFDFF8DCB04FF0FF334FF0FF323548DC
:104E340007F042FFDBF838318BB1334B4FF482512A
:104E44007B610223314807F110023B610BF0B9F991
:104E5400DBF8380104F0A0FB0023CBF838312046FE
:104E64000CF01BFCCBF838012046FFF773FE00B3AF
:104E7400EB4688B06A46264B4FF4C251C2E905306E
:104E84000323224842F8103F0BF09BF9DD461D48EE
:104E940007F0ECFE204604F0D9FA0C221D4B1F212A
:104EA40002FB003022464088FFF7B8F9204604F0A0
:104EB40073FB1436013D92E7012BFAD1306938387F
:104EC40002F0BEF8F5E76C4688B06A4612490F480E
:104ED400C2E905134FF4C45142F810AF0BF071F955
:104EE400A546E6E714020020CD4F01002802002069
:104EF400845101001A50010044010020DE600100C9
:104F040000000020200100203A530100103A010063
:104F14009F520100041C0020555301002DE9F0416B
:104F2400044600F10C0630460CF021FCB4F8108065
:104F34000546B8F1010F0CD840F685631B4A1C499D
:104F44001C4809F0F7FE404080F311884FF003003D
:104F540002DF304602210CF0FAFB074600780BF022
:104F640006F9C20706460CD440F689630F4A124973
:104F7400104809F0DFFE404080F311884FF0030031
:104F840002DF052321460D4A3878FEF7F7FFB30701
:104F940007D56369A4F8108013FA85F5E560BDE8C8
:104FA400F0812046BDE8F04104F0F6BACD4F01008F
:104FB400015001001A50010076530100A83E01007F
:104FC400B0B5037E0446012B00AF06D0032B12D1EB
:104FD400FEF7FCFE0020BD46B0BDC36818780BF098
:104FE400C6F8C207054602D52046FFF797FFAB0770
:104FF400F0D52046ECE76D4688B06A460849094872
:10500400C2E9051303234FF4C25142F8103F0BF0D9
:10501400D8F82046AD4604F0BFFA6FF01500DAE781
:105024008F530100103A0100084A0346D2F85C018C
:1050340030B9D96839B1596929B1C2F85C317047BE
:105044006FF0770070476FF0150070470000002084
:105054002DE9F84F3D4C00AF04213D480BF09AF880
:105064003C4DE2793C4B2046012A88BF1D466E46E2
:10507400FEF734FD8AB06A46384BA346C2E90535CB
:105084000125374BD0611362364B4FF42351364818
:1050940042F8103F0BF095F8DFF8D080B546DFF802
:1050A400C890334EE3790BF1070B9D4238DB94F83B
:1050B40070506E462846FEF70BFE8CB06A46B4F874
:1050C4007210B4F87630C2E907514FF40075536298
:1050D400DFF8A0C0284BC2E905C015854FF4535131
:1050E40042F8103F20480BF06CF8B54694F8716014
:1050F4003046FEF7EDFD8AB06A46B4F874301F49B5
:10510400C2E907631E4BC2E9051095844FF433517D
:10511400154842F8103F0BF054F8BD46BDE8F88F2F
:105124005846FEF7DBFCEA468AB06A4640F2013391
:10513400C2E90565D06113844FF41351484642F81F
:10514400108F0BF03EF80135D546ABE70000002088
:10515400D400002073670100A3530100A75301008A
:105164000002010304000002103A010004000001DF
:10517400B6530100C75301000600000105540100A5
:1051840005000001F0B589B0674D00AFD5F85C317A
:10519400996811F001011AD140F603403A1DFFF756
:1051A40065FA0446002840F0BA807868C3681B7822
:1051B4005BB905F1D403D3E8AF2F02F00902D3E8B9
:1051C400EF1FC3E8E42F002CF9D104F0E5F9002126
:1051D40041F203003A1DFFF749FA0446002840F063
:1051E4009E807B68514EDA68D2F80100D2F805102F
:1051F40003C6184604F0D0F9214641F201003A1DD5
:10520400FFF734FA0446002840F089807868C368C0
:105214005A7885F870205A88A5F872201A7985F88A
:105224007120B3F80720A5F87420B3F80530A5F869
:10523400763004F0B1F9214641F202003A1DFFF73D
:1052440015FA044600286AD1D7F804C0DCF80C200B
:10525400531C4132344618685968083303C49342D6
:105264002646F7D1604604F097F901F087F8044622
:10527400002854D195F88A309B061CD42C4B4FF44B
:105284008451FB6102232B48BB6107F118020AF029
:1052940098FF95F87C305E0650D4274B4FF482512A
:1052A400FB6102232348BB6107F118020AF089FF5E
:1052B4006FF0120433E0072140F63340FFF79CF906
:1052C4000646002800F0248107210C300CF00FFA68
:1052D4001B2303700623C0F80240847144700471D8
:1052E4002246C370314640F63340FFF7BFF9044607
:1052F400A8B9012140F63140FFF77EF9064600289F
:1053040000F0068101210C300CF000FA22463146EF
:1053140040F63140FFF7AAF904460028B9D02046E8
:105324002437BD46F0BD00BF0000002078000020F7
:105334002C540100103A01005A540100002142F299
:10534400030007F10802FFF791F904460028E6D1AB
:10535400BB68964EDA68D2F80100D2F8051003C68D
:10536400184604F019F9214642F2020007F1080236
:10537400FFF77CF904460028D1D1BC68E368B3F890
:10538400012091B249B1D97839B1A5F80421DA786C
:10539400114606F128000DF086FC204604F0FCF8C6
:1053A40095F87C6016F0200618D1022140F66D4075
:1053B400FFF722F90446002800F0AA8002210C30ED
:1053C4000CF095F90123214603704670324640F6ED
:1053D4006D40FFF74BF904460028A0D195F89C30A6
:1053E4001C0713D5002142F21C0007F10802FFF745
:1053F4003DF90446002892D1B868C368D3F8012067
:10540400D3F80530C5E9382304F0C6F895F8D83048
:10541400980621D5391DB81CFFF7AAF904460028BF
:105424007FF47DAF042142F22400FFF7E5F806463D
:1054340000286DD004210C300CF059F97B882246E9
:105444000380BB883146438042F22400FFF70EF903
:10545400044600287FF463AF082142F20100FFF7FD
:10546400CBF80446002853D008210C300CF03FF947
:1054740095F8D82012F0020F14BF2F230F239106A2
:1054840095F8D92048BF43F0400312F0090F4FF0BC
:10549400000218BF43F400630370C3F307232146DB
:1054A40043708270C270027142718271C27142F2A1
:1054B4000100FFF7DBF8044600287FF430AF95F8CD
:1054C4007C30B5F804119A0625D4D1B941F205000F
:1054D40007F10802FFF7CAF8044600287FF41FAF5B
:1054E400B5F80431BC684BB9E368B3F80120A5F8FA
:1054F40004219A882E4811460DF0D5FB204604F06D
:105504004BF8082140F60140FFF776F8044690B9BD
:105514006FF0680403E70029F3D1264B4FF482515E
:10552400FB6102232448BB6107F118020AF049FE1B
:105534006FF00404F3E608210C300CF0D8F81023C3
:1055440003708823002243700226202321468270A0
:10555400C670027142718271C37140F60140FFF757
:1055640085F8044600287FF4DAAE01463A1D4FF66A
:105574000140FFF77BF818B3104BC7E906634FF4FB
:1055840084510D4807F118020AF01BFE00F068FB75
:10559400044600287FF4C3AE01F0DEFD0446002873
:1055A4007FF4BDAEFFF754FDB9E600BFD80000207C
:1055B400080100207E540100103A0100A1540100AA
:1055C4007B686E46DC688AB0B4F80130032B96BF62
:1055D400434A444952F823106A46D3614FF4007396
:1055E40041481384414BC2E9050142F8103F4FF48E
:1055F40013513F480AF0E5FDB4F80120B546022AEC
:10560400B4F803304CD1032B4AD83A4A52F8231049
:105614006E468AB06A46D3614FF4007336481384E9
:10562400324BC2E9050142F8103F4FF413513048A0
:105634000AF0C7FDB546637994F806C0032B98BFFA
:105644002E4AB4F80760D4F809006C468CB094BFB5
:1056540052F8231023496A46C2E9073C4FF4007309
:10566400DFF89CE09385274BC2E905E1C2E90960B4
:105674004FF4735142F8103F1D480AF0A2FDA546AD
:10568400786803F089FF00214FF602403A1DFEF7C7
:10569400EDFF044630B11C4BFB610223BB616EE796
:1056A4001049B5E77868C368B3F80130A5F8C1308C
:1056B40003F072FF95F8C1305B077FF567AF2146B1
:1056C4004FF603403A1DFEF7D1FF08B10F4BE3E755
:1056D4007868C3685B7885F8C03003F05DFF55E7F0
:1056E400983E0100B64E0100C554010004000001BB
:1056F400103A0100883E0100DE540100783E0100AA
:10570400F654010007000001235501004C55010027
:1057140010B5FFF737FD034B1B6813B1BDE810400C
:10572400184710BD7C1C0020F0B58FB03B4D0646D9
:10573400D5F85C3108AF83B9394B6FF012047B6143
:1057440002234FF48251374807F110023B610AF0FB
:1057540038FD20461C37BD46F0BD6FF0020105F14F
:10576400D4000AF031FD01210AF014FD10EA01040D
:1057740050D12D4B1E600A4605F590700DF093FA3A
:1057840005F5A2700DF06AFA00220023CDE9062384
:105794006FF008034FF48062CDE90243CDE9004481
:1057A400224B23490494234807F0EEF82249214868
:1057B4000DF0C0F921480DF037FB6FF007034FF4EB
:1057C40096621F491D48009407F0D2FB1D491B48EF
:1057D4000DF0B0F9D5F85C31DB689847044678B130
:1057E4006D4688B02A46184B4FF4C251C5E90530BE
:1057F40003230C4842F8103F0AF0E3FCAD46A8E747
:105804001EB9FFF7BFFC0446A3E705F1C40007F087
:10581400A9FB9EE76FF077049BE700BF0000002020
:1058240075550100103A01007C1C00208D4D0000CC
:10583400702E0020801000208E55010000110020E1
:1058440070320020945501009A55010000487047B9
:1058540048450100F8B506460024094DEF79E3B246
:105864009F4202D86FF0010007E0294630460AF053
:1058740057FD0735631C08B12046F8BD1C46EEE70A
:105884000000002037B504460D4671B12846124980
:105894000AF046FD48B929461048C4EBC404204424
:1058A4000AF04BFD002003B030BD68460AF042FC0C
:1058B4000028F8D16846FFF7CDFF0028F5DA074B3A
:1058C400C4EBC400694618440AF037FD002DE9D042
:1058D40001462846E4E700BF2B4E010000000020EB
:1058E40038B50622114905460DF027FEC8B1062138
:1058F40042F20500FEF780FE0446A0B106222946C6
:105904000C300BF0FAFE0022214642F20500FEF7AD
:10591400ADFE38B9054829460AF00AFD012300F80E
:10592400013C002038BD6FF06800FBE769000020EF
:1059340070B50D46044686B0F0B123490AF0F0FC78
:10594400D0B92378012B04D1A37903F0C003C02B71
:105954000DD01E4B4FF48251059302231C4804AA18
:1059640004930AF0F1FC6FF0150006B070BD2046F8
:10597400FFF770FF002821DA002DF4D1154DEB79E3
:10598400012B1ED005F1D403D3E8AF3FDB0707D4C6
:10599400002CE8D020460C490AF0C2FC0028E2D1D1
:1059A400EE792146731C3046EB71FFF76BFF08B9A3
:1059B4003046DAE7EB79013BEB71D6E76FF077001D
:1059C400D3E76FF00B00D0E72B4E0100A95601007E
:1059D400283A010000000020F0B5044689B060B9FF
:1059E400194B079302234FF48451184806AA0693CF
:1059F4000AF0AAFC002009B0F0BD002141F2090020
:105A040001AAFEF733FE064608B1114BE9E7019FF0
:105A14000622FD680F49013528460DF08EFD28B198
:105A2400062228460C490DF088FD18B9384603F0C3
:105A3400B3FDDFE72946601C0AF07AFC384626707D
:105A440003F0AAFD0120D6E7D7560100283A010049
:105A5400F0560100384E0100324E010007B5684689
:105A6400FFF7BAFF044BD87118B169460020FFF75D
:105A740009FF03B05DF804FB00000020F0B5244BDF
:105A8400054693F8C2300E46DB0789B00DD4214B8E
:105A94000793002402234FF484511F4806AA069357
:105AA4000AF052FC204609B0F0BD00214FF609402F
:105AB40001AAFEF7DBFD034608B1184BE8E701989D
:105AC4001627C26854780232B44228BF34469C4236
:105AD4000EDC03F061FD002CE4D1114B4FF4845132
