:10000000B0190020DD0C0000C95D0000C90C000023
:10001000C90C0000C90C0000C90C0000C90C00008C
:10002000000000000000000000000000950E00002D
:10003000C90C0000000000002D0E0000C90C0000DB
:10004000751000007510000075100000751000009C
:10005000751000007510000075100000751000008C
:10006000751000007510000075100000751000007C
:10007000751000007510000075100000751000006C
:10008000751000007510000075100000751000005C
:10009000751000007510000075100000751000004C
:1000A000751000007510000075100000751000003C
:1000B000751000007510000075100000751000002C
:1000C000751000007510000075100000751000001C
:1000D000751000007510000075100000751000000C
:1000E00075100000751000007510000075100000FC
:1000F00075100000751000007510000075100000EC
:1001000075100000751000007510000075100000DB
:1001100075100000751000007510000075100000CB
:1001200075100000751000007510000075100000BB
:1001300075100000751000007510000075100000AB
:10014000751000007510000075100000751000009B
:040150007510000026
:1001540053B94AB9002908BF00281CBF4FF0FF312A
:100164004FF0FF3000F00CB8ADF1080C6DE904CE8F
:1001740000F008F8DDF804E0DDE9022304B070477C
:10018400704700BF2DE9F04786468C460846089E16
:10019400154674461946002B40F0C1808542B2FAD8
:1001A40082F245D94AB1C2F1200300FA02FC95401B
:1001B40094402EFA03F343EA0C0C4FEA154EA8B20E
:1001C400230CBCFBFEF80EFB18CC08FB00F943EA39
:1001D4000C43994528D9EB1808F1FF3704D2994507
:1001E40002D9A8F102072B44A3EB0903A4B2B3FB81
:1001F400FEFC0EFB1C330CFB00F044EA0344A0425B
:1002040014D92C190CF1FF3304D2A04202D9ACF159
:1002140002032C44241A43EA07401EB1D4400023AD
:1002240034607360BDE8F0874746DDE76346F1E775
:1002340092BB431B01214FEA154EAFB2200CB3FB16
:10024400FEFC0EFB1C330CFB07F840EA0343984505
:1002540061D9EB180CF1FF3004D2984502D9ACF106
:1002640002002B44A3EB0803A4B2B3FBFEFC0EFB79
:100274001C330CFB07F744EA0344A7424DD92C195D
:100284000CF1FF3304D2A74202D9ACF102032C448F
:10029400E41B43EA0040C0E7C2F1200395409440C8
:1002A40020FA03F12EFA03F34FEA154E9040AFB251
:1002B4000343B1FBFEFC0EFB1C10190C0CFB07F8EE
:1002C40041EA0041884522D969180CF1FF3004D273
:1002D400884502D9ACF102002944A1EB08019BB284
:1002E400B1FBFEFC0EFB1C110CFB07F743EA0143B8
:1002F4009F420ED9EB180CF1FF3104D29F4202D970
:10030400ACF102012B44DB1B41EA004193E7604658
:10031400E3E76146F7E76046A4E76346B8E783424C
:1003240006D916B9002108467CE7C6E900E0F9E7DA
:10033400B3FA83F78FB9834201D3724508D8BEEB71
:10034400020460EB030301209C461EB9002169E707
:100354003846FAE7C6E9004CF8E7C7F1200CBB4081
:100364000EFA07F522FA0CF42EFA0CF1BA401C43EB
:1003740020FA0CF3B8404FEA144901431FFA84FEF3
:10038400B3FBF9F809FB18300B0C08FB0EFA43EA2F
:1003940000439A4540D9E31808F1FF3004D29A4546
:1003A40002D9A8F102002344A3EB0A0389B2B3FBE8
:1003B400F9F809FB183308FB0EFE41EA03418E45A8
:1003C4002CD9611808F1FF3304D28E4502D9A8F163
:1003D4000203214443EA0040A1EB0E01A0FB029872
:1003E4004145CE46434602D306D14D4504D2013899
:1003F400B9EB020E68EB0403002EA7D0B5EB0E0296
:1004040061EB030101FA0CFC22FA07F3F9404CEA10
:100414000303C6E9003199E74046C5E74346D9E7F7
:1004240040F2071330B5224A95B0CDE90F2303AB50
:10043400079305231F4A04461068127908938DF820
:10044400102005AACDE9092307AB0B93012309AAC0
:10045400CDE90D2303900C93A3680BAA1D680FA983
:100464000DAB2046A8470146134805F06BF89DF8EC
:1004740010309DF80D2001939DF80F309DF80C105D
:1004840000930E489DF80E3005F05CF89DF8183086
:100494009DF8152001939DF817309DF814100093D2
:1004A40007489DF8163005F04DF815B030BD00BF73
:1004B40000127A00D57300007C7300008B73000077
:1004C400B073000038B50A4D284606F058FA0446C1
:1004D40040B12846FFF7A4FF00214FF4803004F018
:1004E4001FFDF6E72968034805F09BFA204638BD4E
:1004F400606E0000DB730000014B1B68184700BFEF
:1005040000000020014B1860704700BF000000206D
:1005140030B585B004460D4610220021684606F029
:10052400ADFB02238DF80230044B2A46214668466F
:10053400019305F019F805B030BD00BFFD040000BB
:1005440080B505460E461746984604F003FD03465B
:1005540006F0FEFB0446DFF81890424649F80030E6
:1005640039463046A84754F8090000F02FFC00BF74
:10057400080000002DE9F047058B04462807904643
:1005840011D4022905F0070540F0CD80204605F07E
:1005940035FB78B10138218B042811D8DFE800F04D
:1005A400C3106D85950001290CBF45F0100545F079
:1005B4002005258388F31188BFF36F8FBDE8F0878A
:1005C40001F0070AAA4500F0A6800027B9463E4676
:1005D400A368002B00F0BD8041F00801218388F35B
:1005E4001188BFF36F8FA168002900F0BB800D68EC
:1005F400002900F0B780334652462046D1F80480E3
:10060400C047002D76D02B6829461D46F0E701F03F
:1006140007035A1F012A1BD8002221F00701062BC9
:10062400276889B2C4E9002209D13B4603E0628B02
:10063400013262831B68002BF9D141F0020120468C
:10064400218305F0DBFA00287BD041F0200177E01C
:10065400042B0AD121F0070189B22046218305F039
:10066400CDFA10B141F020012183218B01F0070A5A
:10067400AA4550D00027B946AAE7236921F007010B
:1006840041F00601062DD3F8009021832DD1B9F154
:10069400000F40D041F00801218388F31188BFF393
:1006A4006F8F20463949C84729E021F007012369A3
:1006B40041F0040189B2042DD3F804902183E6D0DB
:1006C40000274FF0040A3E4682E721F00701236920
:1006D40041F0050189B2052DD3F808902183D6D0C5
:1006E40000274FF0050A3E4672E700274FF0060A3E
:1006F4003E466DE72B4687E7B9F1000FD1D14FF0A5
:100704002003EFF3118883F31288BFF36F8F238BD9
:1007140023F008032383258BEA062ED525F0100346
:10072400238305F007056669218B002EBFF66FAFA2
:1007340000232768C4E9003321F0070141F00101D7
:100744002183218B4FF0000901F0070AAA457FF4A9
:100754003FAF002F9BD041F00801218388F311881B
:10076400BFF36F8F002FC7D03D68394633465246DA
:10077400204605F06FFA2F46F4E7AB067FF51AAF73
:1007840025F02003238305F00705FFE6855C0000C0
:10079400044608B54FF02002EFF3118382F3128868
:1007A400BFF36F8F02F080FB204600F0C5FA0348C8
:1007B40005F037F900F01AFCFCE700BFF273000003
:1007C400014B036000207047A8700000014804F04A
:1007D40077BD00BFA870000038B5044618B90F4BA8
:1007E4000F485B6898476168B1F5683F10D0B1F570
:1007F400680F0DD00B4DA9420AD011F4686120682E
:1008040007D00146084806F0EDF800232360656030
:1008140038BD142206F032FAF9E700BFC8010020FF
:100824001B7400002C5F5CA9C808002008B560B3E5
:100834004368B3F5683F0ED0B3F5680F18D0144A77
:10084400934220D000684FF0FF324FF0FF3303F0A3
:10085400A3FF58B115E001220368D3E8EF1F002974
:1008640003D1C3E8E02F0028F7D10AD1002008BD46
:100874000368084A1B7803F5807352F82330002B71
:10088400F4D00548F3E70548F1E76FF4E040EEE7FC
:100894002C5F5CA900000350E98FFFFFEA8FFFFF84
:1008A40008B520B34368B3F5683F09D0B3F5680FC2
:1008B40013D0114A93421DD0006803F031FF14E0B5
:1008C40000220368D3E8EF1F012903D1C3E8E02F16
:1008D4000028F7D109D0094808BD00210368084A57
:1008E4001B7803F5807342F823100020F4E76FF4BB
:1008F400E040F1E70348EFE72C5F5CA9E98FFFFFD5
:1009040000000350EA8FFFFF10B5044618B91D4BD1
:100914001D485B6898476368B3F5683F2FD0B3F50B
:10092400680F2CD0194A934219D1236803BB4FF0A6
:10093400FF324FF0FF332146154803F039FE08B962
:1009440023681BB90F4B13485B6898471422002196
:10095400206806F093F94FF46863636008E0B3F528
:10096400683F0DD83A2B03D040F6BA629342DED1E9
:10097400206806F077F8636843F03A03636010BDBB
:10098400054AF3E7C80100201B7400002C5F5CA932
:10099400C8080020417400003A00003A08B506492E
:1009A40040231422054806F00FF8BDE80840044926
:1009B400044804F0F7BC00BFC8030020C8080020A6
:1009C400B0700000C470000030BFFFF7FDBF00BF6F
:1009D400114B124A2DE9F041D518013DB5FBF3F551
:1009E400DFF83C805D430F4B074608EB0304013CF2
:1009F400B4FBF3F403FB04540E1B30460A4906F01F
:100A040030F9701942460021083E06F037F93E6776
:100A140004F10800BDE8F0810100000000000000BE
:100A240004000000040000009C700000044B99685E
:100A34005869884203D003494FF080520A607047D6
:100A44004C0A002004ED00E0154B9A6A12F0007F76
:100A54009A6A14BF1E201D2012F0807F9A6A18BF64
:100A64001F2012F4801F9A6A18BF022012F4002F6C
:100A74009A6A18BF212012F4802F9A6A18BF222084
:100A840012F4003F9A6A18BF232012F4803F9A6A36
:100A940018BF24206FEA02426FEA12429A6270473A
:100AA40000ED00E010B5194B0246986A9C6A10F4F8
:100AB400805F14BF1720162014F4006F9C6A18BFBF
:100AC4001820A40509D5986B986A000404D51AB1B6
:100AD4009A6A22F400429A6219200C4B9A6A12F420
:100AE400806F9A6A18BF1A20D2050CD49B6A13F43B
:100AF400005F18BF1C20054A936A43F47F43936246
:100B040000230B7010BD1B20F5E700BF00ED00E0D3
:100B140010B51C4B0246986A9C6A10F0100F14BF63
:100B24001120102014F0080F9C6A18BF1220A4078B
:100B340009D5586B986A000604D51AB19A6A22F04E
:100B440080029A6213200F4B9A6A12F0010F9A6A7C
:100B540018BF142012F0200F9A6A18BF1520D4066B
:100B640058BF9B6A074B9A6A920642BF5A6A22F49C
:100B740000525A629A6A42F0FF029A6200230B7092
:100B840010BD00BF00ED00E0F0B5474B04465B68C4
:100B940000258BB0C3F3080385F31188BFF36F8F6F
:100BA40002F07F40B0F17F4F11D102F00C00082811
:100BB4000DD010074CBF0C4601250022033B8DF8D5
:100BC4000720032B05D8DFE803F02462665F2C4678
:100BD400F3E700239DF80720CAB902AE04F1200709
:100BE400324620686168083403C2BC421646F7D115
:100BF400099A002D53D0C2F3080121B96FEA522299
:100C04006FEA42220992184602A905F0D5F80BB002
:100C1400F0BD254BDA6A9107DBD4DA6A002AD8DB07
:100C2400DA6A5200D5D55A69A16942F480725A61D0
:100C3400BFF34F8FBFF36F8F5A6931F8021C22F450
:100C440080725A61BFF34F8FBFF36F8F4DF60272FC
:100C5400914209D09A6AD2B242B101200DF1070142
:100C6400FFF756FF0346B5E72368B3E79A6A12F421
:100C74007F4F05D001200DF10701FFF713FFF1E7C6
:100C84009B6AB3F5803FA4D3FFF7DEFEEAE70020BA
:100C94000DF10701E4E700200DF10701EDE722F46F
:100CA400FF7222F00102ADE700ED00E0044B5A6947
:100CB40042F010025A615A6942F480625A617047E4
:100CC40000ED00E0EFF30880EFF3098101B572460F
:100CD400FFF75AFF01BD00BF002080F31488BFF363
:100CE4006F8F002080F30A8880F30B8800F06CFC7F
:100CF40000200E490860BFF34F8F0D4880F3088829
:100D040000F03EF8202080F311880A484FF4006177
:100D1400401880F30988EFF314800221084380F31C
:100D24001488BFF36F8F00F009F9000094ED00E020
:100D3400B0190020700C0020BFF34F8F0549064BFB
:100D4400CA6802F4E0621343CB60BFF34F8F00BF65
:100D5400FDE700BF00ED00E00400FA05002318469B
:100D64000649D1F89020C2F30722934200DB704772
:100D7400C1F89830C1F8A0000133F6E700ED00E0B7
:100D840010B572B6002484F31388FFF7E7FF2346F7
:100D94004FF0FF300C4A03F120010133102B42F8CD
:100DA4002100F8D100234FF0FF30074A03F160011E
:100DB4000133102B42F82100F8D162B6BFF34F8FF4
:100DC400BFF36F8F10BD00BF00E100E0084B9B68CC
:100DD40083420BD1EFF3058343B1064B5A6842F0CB
:100DE40080525A605A6A22F400425A6205F0FEBEEA
:100DF4004C0A002000ED00E06FF00A01084A9368F5
:100E04009967084958674B6843F080534B60002347
:100E140083F31188BFF36F8F9368986F704700BF97
:100E24004C0A002000ED00E016498A684FF03000BB
:100E34001044EFF3098C80E8F01F202080F312881F
:100E4400BFF36F8F104F4FF000664A698A603E60AF
:100E54004FF07004141920680C4C2060506F00236C
:100E6400536780F3118802F1300090E8F01F8CF38F
:100E7400098802F1000004B504F0AFFFBDE80440A6
:100E8400704700004C0A002004ED00E0E408002054
:100E94001EF0040F0CBFEFF30880EFF309808169A3
:100EA40011F8021C0229FFD001B504F087FF01BD2F
:100EB40040B2002807DB01234109034A00F01F0068
:100EC400834042F82130704700E100E040B200283E
:100ED4000CDB01220649430900F01F008240203345
:100EE40041F82320BFF34F8FBFF36F8F704700BFCC
:100EF40000E100E0054B420953F82220012300F0F1
:100F04001F0003FA00F01040704700BF00E100E04A
:100F140040B2002801F10101ACBF00F16040064B72
:100F24004FEA4111C9B2ABBF00F5614000F00F00B8
:100F340080F800131954704714ED00E00B4A08B50B
:100F44000B4B22F07F029A60BFF34F8FBFF36F8F7A
:100F5400D3F8882022F47002C3F8882003F05EFAE4
:100F640003F0FEFF00F078F803F0A2FA000000009E
:100F740000ED00E042F8203C009B0B4942F81C3C89
:100F8400019B21F0010142F8183C029B42F8081C25
:100F940042F8143C4FF0807342F8043C0023203A9A
:100FA40002654367704700BF450500000A4B046FA4
:100FB40098600A4B1C60036E83F30B88104681F320
:100FC4000988002163B681F31188BFF36F8F002273
:100FD4000023FFF7B5FA00BF4C0A0020E408002004
:100FE400014910220A60704710ED00E072B64040DB
:100FF40080F31188BFF36F8F01B500F0A1FA0028C8
:101004000AD0BFF34F8F30BF00BF00BF00BF00BF87
:1010140000BF00BF00BF00BFBDE8014062B6BFF320
:101024006F8F704772B6494081F3118801B500F0A3
:1010340087FA00280AD0BFF34F8F20BF00BF00BF3C
:1010440000BF00BF00BF00BF00BF00BFBDE801403C
:1010540080F3118862B67047002320210348C21828
:101064000133452B82F80013F9D1704700E100E009
:1010740001B5EFF30580A0F110004FEAC000044968
:10108400014409C99847BDE80140024908470000E6
:10109400746E0000310A00001FB5094C094A23464A
:1010A4000121094800F0EAF800230393074B0121CA
:1010B400E41A01A80193029400F0EAF804B010BD08
:1010C4000000072000000020D470000088020020E7
:1010D40010B50C7A0B6804F01F0223F01F031A43A7
:1010E400CB68640923F01F03054943EA440343F032
:1010F4000103C1F89800C1F89C20C1F8A03010BDCC
:1011040000ED00E02DE9F04F0F46144606464FF07F
:1011140000084E4D85B0B84580F29480D6F804900E
:10112400B9F1000F36D0B9F11F0F40F2898019F0E0
:101134001F0F40F08580D6F800A01AF01F0F7FD152
:10114400504604F04EFE834609EB0A00013804F0D1
:1011540048FE834574D11BF1160F71D05C456FDDD9
:10116400C5F898B0D5F89C10C5F898B0D5F8A0305B
:1011740021F01F0143F01F0AD6E900321A449942B4
:1011840002F1FF391ED1CA4508D131465FFA8BF00E
:1011940004F030FE08F101080C36BCE73146C5F80E
:1011A40098B0D5F89C3022F01F0203F01F031343BC
:1011B400C5F89C30E0B204F01DFE10F1160F3FD0CC
:1011C400441CE7E7C5F898B0D5F8A020013B23F00C
:1011D4001F0302F01F021343CA453146E0B2C5F8AB
:1011E400A030E8D004F006FE10F1160F28D0C5F8A0
:1011F40098B0D5F89C209DF808300AF1FF3A62F3C4
:1012040004038DF80830D5F8A0309DF808205B0859
:1012140063F347128DF80820D6E900321344009393
:1012240023F01F03411C5344A3EB0903C8B223F06A
:101234001F030728039303D86946FFF749FFBFE755
:101244006FF01504204605B0BDE8F08F00ED00E016
:101254000522044BC3F89420BFF34F8FBFF36F8F65
:10126400704700BF00ED00E0BFF35F8F0022024B28
:10127400C3F89420704700BF00ED00E010B5034CA4
:101284002278FFF73FFF207010BD00BF540C0020F0
:101294002DE9F74F294D8A4606464FF00008AB4624
:1012A400274FD0451BDAD6F80490B9F1000F3FD090
:1012B40031680846019104F094FD0199044609EB54
:1012C4000100013804F08DFD84424FF014021D4BDF
:1012D40008D002FB08F36FF015024BF8032003B0AB
:1012E400BDE8F08F14F1160F2C60F8D01978A142E4
:1012F400F5DD02FB08B0C7F89840C7F89840D7F866
:101304009C4000F10801007B64F304000871D7F8E5
:10131400A0000C79400860F347140C71D7F89C10B6
:1013240021F01F016960D7F8A01021F01F01296185
:1013340008F1010814350C36B3E700BFE8080020B3
:1013440000ED00E0540C0020F0B5384D87B02C6857
:10135400082C67D80020FFF787FF354B354AC3F8C0
:10136400C02084420DD1344D01A82C70FFF728FA17
:1013740000240646314FA6420AD1FFF769FF002038
:101384004EE0696801EB0011FFF7A2FE0130E8E7C7
:101394000199200101EB0413DA683A40B2F5001F09
:1013A40022D0B2F5800F2CD0B2F5801F36D15A6806
:1013B4009B680958013B22F01F0003440120844626
:1013C40023F01F0340EA4C108DF810002878CDE973
:1013D40002210728059321D802A9FFF779FE2B786B
:1013E400013401332B70C6E75A689B680958013BE6
:1013F40022F01F0003444FF0020C012023F01F03CE
:10140400E0E75A689B680958013B22F01F00034437
:101414004FF0000C062023F01F03D3E76FF01500F4
:1014240007B0F0BD4FF0FF30FAE700BFE0700000F6
:1014340000ED00E0AAFF4400540C00200000F0FF7F
:1014440008B5024B1B689847002008BDFC08002023
:10145400034B044A1860937843F002039370704777
:10146400FC0800202400002008B50649064821F0A5
:101474000701C1F1005202F5E02204F067FB0020ED
:1014840008BD00BFB71900200009002007B50DF101
:10149400070005F01FF8114B98421CD14FF48062ED
:1014A4000F4B1049C3F8B8254FF40062C3F83C252C
:1014B4009DF8070005F002F80B499DF8070004F0B9
:1014C400F8FF01209DF80730984001F05FFE0020EE
:1014D40003B05DF804FB6FF00B00F9E70000AD0BFF
:1014E40000A002502CA0025028A10250054B03EB8F
:1014F4008000D0F8003223F0E04343F04053C0F8BA
:101504000032704700258450012208B50A4B0B496C
:10151400C3F8002502230020C1F8D036FFF7E6FF08
:101524001046FFF7E3FFC1F80427C1F80429C1F806
:10153400002B002008BD00BF0010005000400050E8
:10154400052370B5144D154E2C780134B4FBF3F318
:1015540003EB8303E41A04F096FF114A137823B1D2
:1015640056F82430C01A072814D94FF05023D3F862
:10157400141141B10021C3F81411D3F814312C70A3
:101584000CB9012313702C7804F07DFF46F8240075
:10159400012070BD0020FCE7560C00200C0900203F
:1015A400550C002048B1054B054A1B68B3FBF2F308
:1015B4005843044B43F0010318477047340100209B
:1015C40040420F00A070000001F098BC084B70B5B9
:1015D400C31A0D4607499B10044659434022064846
:1015E40004F046FC2B4601462046BDE870401847EF
:1015F40034090020B76DDBB6E86D0000402373B5F5
:101604000B4C0093041B0B460D460A49A41061437E
:101614000646094A094804F058FC011E05DA30461A
:101624002B4602B0BDE87040184702B070BD00BF41
:1016340034090020B76DDBB63B5F0000E86D0000A5
:101644002DE9F8430022012106460520FFF760FC3E
:10165400114801F0A1FD114B984219D101F0ACFDE4
:1016640000244FF01C090C27DFF83480356941460B
:1016740009FB045004F012FB002807DB012307FBDD
:1016840004551C44042CAB67F0D10020BDE8F8835A
:101694006FF00400FAE700BFDD1600000000AD0B98
:1016A4000C71000001460C2300224B4370B508481E
:1016B400C41878331844D4E91C56226704F0C5FBD7
:1016C4002DB132462B46BDE870400248184770BD24
:1016D40034090020E86D0000062812D8DFE800F085
:1016E400040F1111110D0B00064B986F10F0070039
:1016F40007D1FFF7D7BF0220FBE70320F9E701205A
:10170400F7E770473409002008B54FF02003EFF3E2
:10171400118183F31288BFF36F8F124A136843F069
:1017240002001060DA0708D481F31188BFF36F8FC9
:10173400BDE80840012001F057BD4FF05023D3F815
:101744000C24D3F80C34DB07EED5074804F07DFBFA
:1017540081F31188BFF36F8FBDE808400020FFF7C5
:10176400A1BF00BFD4090020AC0900201FB500228E
:101774000123CDE902236B46084ACDF800D0CDF809
:1017840004D004F0D1FB002805DB4FF48042002391
:10179400684603F09FF805B05DF804FB715F000034
:1017A40010B54FF02003EFF3118483F31288BFF3D5
:1017B4006F8F074A136823F00201DB07116002D41C
:1017C400012004F03AFF84F31188BFF36F8F10BD3A
:1017D400D40900202DE9F041012207463749D1E818
:1017E400EF3FC1E8E02F0028F9D133B93449354837
:1017F4004B60CB608A6004F064FA7B1E012B2BD80B
:10180400012F07D14FF05023D3F81C3403F0030306
:10181400022B21D005F00CF90546F8B92A4B1B78A8
:10182400E3B14FF0502302220646C3F808234FF0D9
:101834005024DFF89880D4F81824D4F81834D2034C
:1018440016D503F00303022B01D0012F10D175B379
:1018540086F31188BFF36F8FBDE8F0814FF020034A
:10186400EFF3118683F31288BFF36F8F0125DEE750
:10187400C5B13046FFF7D6FBD4F81835DBB2012BDF
:10188400D9D1D4F80421002AD5D00022C4F80421E7
:10189400D4F804210222C4F818252022C8F8802193
:1018A400A360C8E70021212003F03AFBE4E74FF0EE
:1018B40050230222C3F80423CEE700BF30090020DE
:1018C4002009002050090020690C002000E100E0FC
:1018D40008B5074805F053F838B10648FFF7B8FDD6
:1018E4000448FEF70FFE002008BD6FF01200FBE76E
:1018F400246E0000FD1800000A2838B50446074D80
:1019040004D1AB680D2128465B689847AB6803484F
:101914005B68E1B29847204638BD00BF246E0000E2
:10192400F0B5406801F01F04057B87B044EA451414
:101934000569002D63D0B2F5001F00F1100506D132
:101944002146284604F00AFF002007B0F0BD002716
:10195400B2F5800F01AE0197776039D1B3F1007F02
:1019640014BF052304238DF804300023CDE9046358
:101974000393836823FA01F111F001011AD1B2F142
:10198400A07F17D104F01F03620903F180032AD05A
:10199400012A3AD11E4A52F82330DB070AD40DF14A
:1019A400030632462146284601F042FF194B98426D
:1019B4001BD002962146284603AA01F0F5FD164BDA
:1019C40098421FD101222146284601F097FFBBE728
:1019D400B3F1C06F05D0B3F1007F14BF012302231C
:1019E400C1E70323BFE70D4AD5E73146284601F096
:1019F4007FFF094B9842DCD06FF00B00A5E76FF036
:101A04008500A2E76FF015009FE751F82330FFDE51
:101A1400002884500400AD0B0000AD0B0025845059
:101A240038B545682B69B3B11035284601F050FF2D
:101A3400044680B90146284601F014FF084B984239
:101A44000BD122462846074901F0ECFE2246052127
:101A54000D20FFF75DFA002038BD6FF00400FBE7AE
:101A64000000AD0B6D1A00004209034670B502D0A8
:101A7400012A17D070BD0D4E326951680029F9D082
:101A8400012503F01F030C689D400029F2D08A68E9
:101A94002A4002D030464B6898472CB1236821462F
:101AA4001C46F2E7024EE7E72346F8E7106E000013
:101AB400FC6D00002DE9F04340F206354668D0067F
:101AC40048BF0320337B02EA050558BFC2F3401028
:101AD40087B001F01F07B5F5837F144647EA431723
:101AE4008DF8030043D00FD8062D18D007D8B5B110
:101AF400022D3ED06FF0150007B0BDE8F083B5F5B8
:101B0400807FF7D101250AE040F20222954232D0CB
:101B1400B5F5407F31D0B5F5007FEBD10225220326
:101B24002DD5012372688B409360326982BB07F024
:101B34001F037F092AD0012F77D13E4A02EB83028B
:101B440084F48033D2F80012C3F30043C4F3404456
:101B540044EA430421F4706144EA800421F00F0153
:101B640044EA05230B43C2F800320020C4E70725EA
:101B7400D5E70425D3E70525D1E70325CFE763039C
:101B840041BF012372688B40D360CEE72A4AD5E770
:101B94001036394630460DF1020201F049FE14F4C4
:101BA400403F80460CD13946304604F0D5FD234BE6
:101BB4009845DAD130469DF8021001F093FED4E73F
:101BC4004FF0000901AB3946304603AACDE9043988
:101BD400CDE90199CDF80C9001F0E6FC174B984241
:101BE40088D114F4003315D09DF8033084F4803484
:101BF400C4F300448DF80E3039464B46304603AAF0
:101C04008DF80C508DF80D4001F08AFD0B4B984275
:101C1400CDD06FE7CDE9043339460DF103033046E7
:101C240003AA039301F0C0FCF0E7803352F8233099
:101C3400FFDE00BF00288450002584500000AD0B57
:101C440010B50B4C204604F09AFE70B12269A168CD
:101C54001368204623F4001313600B684FF4C0226A
:101C64001521984700EAE07010BD6FF01200FBE701
:101C7400106E0000036803F01F025B09026004D0C9
:101C8400012B034818BF002070470248704700BF6B
:101C940000288450002584502DE9F04F15468246D3
:101CA400DFF8A881DFF8A89185B000EB81015145E8
:101CB40003D1002005B0BDE8F08FDAF80030C3F39B
:101CC4004322082A03F07F0400F2B9807F2C4FEAF4
:101CD400134308BF4FF0FF3418F80270192B00F2B9
:101CE400B180DFE803F00D1C24272F352745274852
:101CF4004E517D808386898C8F92AFAF95A1A4A726
:101D0400C5F80C45661C0FD0012603A80394FFF701
:101D1400B1FF039B06FA03F38360B3463DE0631C03
:101D2400C5F8144540F089800AF1040ABFE7C5F8F4
:101D34000845E7E7C5F81045601CF5D000264FF0CC
:101D4400000B2AE0621CC5F80845EDD0002604E02B
:101D5400C5F80C45631CE7D001264FF0010B03A81E
:101D64000394FFF787FF039B0BFA03F3C36014E0AC
:101D7400C5F80845E0E7661CC5F80C45D4D0012633
:101D8400DDE7C5F81445D7E7C5F80845002FD3D1DA
:101D9400601CC9D000260627B346DAF8003003A831
:101DA40003F40052002A1CBF01264FF0000B0193DC
:101DB4000394FFF75FFF039A019B00EB8200D0F8C6
:101DC4000022C3F3C1143B0243EA840343EA0B0336
:101DD40002EA0902134343EA4603C0F80032A3E7C8
:101DE400C5F80C45D2E7C5F86445B3E7C5F86445C2
:101DF400A2E7C5F86845ADE7C5F868459CE7C5F8AE
:101E04006C4599E7C5F87045A4E7C5F86045A1E7B6
:101E1400C5F86045621CDAF8003085D0C3F380331E
:101E2400002B7FF471AF97E7C5F86445F2E7C5F876
:101E34006845EFE7C5F86C45ECE700266DE76FF001
:101E4400150037E76FF0850034E700BFA074000089
:101E5400F0F0FCFF2DE9F74306464FF0000800229E
:101E640001210820FFF754F80820FFF721F87768CC
:101E740035693C684146C4F800852E60D7F80C905B
:101E840001AA484604F0C2F800283FDB019BD9F8B8
:101E9400002019791868FFF7FFFE002836DB6B7AFB
:101EA400D6F810C0012B03D0032B2DD14FF010080E
:101EB400AB7A032B28D195F80BE0BEF1000F02D0CA
:101EC400BEF1010F20D12A7A012A22D0022A24D07D
:101ED400D2B910466B687168B3F5164F096800F003
:101EE400BA803AD8B3F5165F00F0B88020D8B3F5BD
:101EF400966F00F0B58012D8B3F5967F00F0B380EA
:101F0400B3F5167F00F0B2806FF0850003B0BDE832
:101F1400F0834FF480700E22DCE70020FBE7B3F57A
:101F2400166F00F0A680B3F5965FEDD15D4B43E0EC
:101F3400B3F5E14F00F0A08008D8B3F5615F00F07D
:101F44009D80B3F5964FDFD1574B35E047F6122904
:101F54004B45D9D14FF400032EE0B3F5613F00F0B7
:101F64008F8015D8B3F5963F00F08D800AD84DF6D2
:101F7400C0294B4500F08980B3F5614FC4D14FF4BB
:101F84006B0319E0B3F5E13FBED14FF0EB7313E0FF
:101F9400B3F5612F7CD009D8DFF810914B457AD086
:101FA400B3F5E12FB0D14FF0E86305E0DFF800911D
:101FB4004B45A9D14FF08053C1F82435736840EAEA
:101FC4000E001B6842EA08021043C3F86C050CF1CA
:101FD4000403D5E9010183E803007B68990712D55E
:101FE40005F1180001F0C0F9324B984256D1287E11
:101FF40004F10C0204F5907104F065FA01202B7EC3
:10200400984001F0C3F80823C4F800353B7A53B96B
:10201400C4F81031D4F810316B69C4F83435012395
:10202400C4F8383523607B6800209A075CBF4FF4FE
:102034008073C4F804337B68DB0644BF4FF4800329
:10204400C4F804332B69C4F844350123C4F84805A3
:10205400A360E3605AE74FF41D03ADE7164BABE70B
:102064004FF49E23A8E74FF4A033A5E74FF41C33A5
:10207400A2E74FF41D239FE7104B9DE7104B9BE70E
:102084004FF06C7398E70F4B96E74FF4650393E7B3
:102094004FF0706390E74FF080638DE76FF00400BA
:1020A40034E700BF00B0130000A04E0090D003003E
:1020B40040420F000000AD0B0050270000C0750027
:1020C40000F03A0000903A01F8B504460D4607695D
:1020D40004F0AEFCB0B92E4B1B789BB1642660684B
:1020E40003F0E6FF00BB012004F0E1F9013EF6D164
:1020F4000021212002F014FFF0E786F31188BFF3DA
:102104006F8FF5E74FF02003EFF3118683F3128806
:10211400BFF36F8F6068314603F0CAFF90B986F34E
:102124001188BFF36F8FEDE74FF02003EFF31186B3
:1021340083F31288BFF36F8F6068314603F0B8FFF2
:102144000028DAD03B691D70626838691368C3F8E7
:1021540044050120C3F848050020C3F82001D3F842
:102164002051C3F858015268D3F85801D20608D553
:10217400082062681268C2F800054FF48002C3F8B0
:10218400042301229A6081F31188BFF36F8FF8BD95
:10219400690C00202DE9FF4105690746D0F8048049
:1021A400A86C2B6D00283AD16BB3B8F838406A6C30
:1021B4009C4228BF1C46EE6CEB6C53B1296D41B1B7
:1021C40006F06041B1F1005F03D0082C28BF082459
:1021D400AE6E00926A6CEC651AB1AA6C002A18BF44
:1021E4002246CDE901261BB12B6D002B18BF2346D7
:1021F400002269464046039301F00AFF184B9842B7
:102204000AD06FF004033C69236304F1200002F058
:102214003DFB002384F8603004B0BDE8F081696CB4
:10222400EE6C0A46B8F83840ABB1834228BF034687
:102234009C4228BF1C460029BED001F06043B3F184
:10224400005FB9D0082C28BF0824686E224604F029
:1022540008FD6A6EB0E7844228BF0446EBE700BF7E
:102264000000AD0B2DE9F04F8FB001934368804619
:1022740002938B880F469E049246046900F14A81BA
:102284004FF0FF324FF0FF3304F1100002F022FB55
:102294006760D8F81090D8F804B099F86130DBF88A
:1022A40008C023B1D9F800309F4200F09280B7F8FB
:1022B40004E01EF4006F40F05F811EF0090F40F04F
:1022C4005881CEF34513082B40F053813B680393A8
:1022D400039AAF4B9A4240F24C81AE4B9C4507D9CE
:1022E4004FF05022D2F8582512F0030F18BF9C4625
:1022F40004AD0BF10C060FCE0FC50FCE0FC5039B1B
:1023040096E80300634528BF63469C46A24B85E8D4
:1023140003009C451BD29F4B9C4518D29F4B9C4568
:1023240015D29F4B9C4500F2FE809E4B9C4500F2CB
:10233400FC809D4B9C4500F2FA809C4B9C4500F22E
:10234400F8809B499B4B9C4A8C4588BF13461EF0E2
:10235400020F09930EF0040300F0ED80002B14BF6C
:10236400032302238DF82830CEF300138DF829308F
:10237400DBF800301EF0020FD3F80835CEF340012D
:102384004FEA531203F01F0340F0DB80002A00F0F1
:10239400D680012A40F04C818849012202FA03F3D5
:1023A400CB6099F861302BB1584601F0EBFD002366
:1023B40089F861304B465846814A04A901F0ACFDC6
:1023C400804B984240F0C8800123C9F8007089F816
:1023D4006130012384F86030029B196C4D1C03D0DA
:1023E40003F1440003F0CBFFBAF1000F40F0C780C3
:1023F400C4F834A00023A36304F1480204F13801B3
:1024040004F1340003F0A2FE019B6064002B40F051
:10241400E580E3630023236404F1500204F14001E6
:1024240004F13C0003F092FE0023E064206823637F
:10243400636548B183683BB10121083003F099FE1C
:102444002368186904F096FA4046FFF7A3FE26684D
:10245400B28812F0010240F0D8801346A06B834288
:1024640040F0C58000231946256CA94240F0C6807F
:10247400934238BF13464FF4FA5202FB03F5336814
:1024840040F2E730B5FBF3F54FF400460021C835C0
:102494004FF47A720023E5FB0601FDF759FE02466C
:1024A4000B4604F12006304602F014FA50B92368B2
:1024B400256B9A88D00701D505B9656D15F1740FA0
:1024C40040F0A7804FF000096FF073050298C4F83C
:1024D4005C9001F057FD84F86190D8F810703D636A
:1024E40007F1200002F0D2F987F86090304602F03C
:1024F40019FA2368002B31D099689A8871B3D104F2
:102504002CD4186904F036FA20680021083003F04E
:1025140030FE83E0A369002B7FF4B2AE6368994276
:102524007FF4AEAEB5E6284B11E7284B0FE7284BF6
:102534000DE7284B0BE7003B18BF012312E72649A0
:102544002BE73AB1012A75D11C49012202FA03F39F
:102554008B6026E72049F8E76FF0040523689B8821
:1025640013F4005360D1636004F1100002F08EF99B
:102574005AE06FF01505F1E76FF08505EEE7DAF83C
:1025840000306363002B3FF435AFDAF8043032E7F0
:1025940047E801000024F4000048E80100127A0032
:1025A400FF083D007F841E003F420F001FA107006B
:1025B4008FD0030048E8010090D003000028845025
:1025C400B96200000000AD0B00093D0080841E00CC
:1025D40040420F0020A1070000258450019B1B6886
:1025E400E363002B3FF416AF019B5B6813E7616B59
:1025F40001EBC301496801330A4430E7E06B00EBA7
:10260400C1004068013103442FE74FF0FF32134605
:1026140047E7996811B1D2047FF573AF2368002DA1
:102624009B889BDB9B0499D528460FB0BDE8F08FAF
:10263400C960FFDE00239B60FBE700BF00F01F02C0
:1026440040090DD001280DD1094B03EB8203D3F8C7
:102654000002084A024042EA8102C3F8002270479D
:10266400054BF2E70023803253F82230FFDE00BF2F
:1026740000288450F0F0FCFF002584500123F0B5BD
:1026840087B08DF80230022300248DF804306B44A7
:1026940003930F4601AB0DF1030104930546029128
:1026A400059401F025F90C4B064698420FD13946A2
:1026B400284603AA00F078FFB0420BD028469DF8C4
:1026C400031001F00FF96FF0040007B0F0BD6FF0D4
:1026D4001200FAE72046F8E70000AD0BF7B54468AE
:1026E4000569E66A0021304601AA03F08FFC002840
:1026F4004BDB019B326819791868FFF7CDFA002883
:1027040043DB2B462046264A04F1080101F080FDF4
:10271400244B98423BD1206B002832D004F02FF98F
:10272400002837D0E38E206B43F4302294F8341021
:1027340042F006020126076913F0010F3B6806FA0E
:1027440001F614BF3343B343D0F808C03B60DCF850
:1027540000309847002818DB012294F834301248DE
:1027640002FA03F3C5E91C03206B05F16C018368CD
:10277400DB6993B19847002807DB00222368C3F87C
:102784000025284603F028FE002003B0F0BD6FF0BA
:102794000F00FAE76FF01200F7E76FF05700F4E765
:1027A400356400000000AD0B496400002DE9F04FD2
:1027B40080468B46994692460569476885B062B360
:1027C4001668B9F1000F2AD0D9F80040BBF80430DC
:1027D4009B0426D44FF0FF324FF0FF3305F1100075
:1027E40002F078F8C5F804B0D8F81020D8F804102E
:1027F40013689B4540D0BBF80430180518D56FF01A
:1028040085042B689B8813F4005340F03D816B6072
:1028140005F1100002F03AF836E11646D1E74C46CD
:10282400D4E7AB69002BD5D16B689B45D2D1DBE7EC
:10283400D80740F12D81180700F12A81C3F345130D
:10284400082B40F02581DBF80830002B40F0208174
:10285400C2F800B0BBF804300A6813F0020F4FEA64
:10286400131101F0010103F0040374D0002B77D09D
:1028740041F00601C2F85415BAF1000F03D0DAF89A
:102884000430012BBBD8B9F1000F03D0D9F80430C0
:10289400012BB4D8002E66D073682BB1336803F0D3
:1028A4006043B3F1005FAAD1386B002873D1D6E935
:1028B4000002D8F804C0BCF82810002C40F0A28014
:1028C4008A425DD82346014600936046234601F0C0
:1028D400D9FC714B984240F09B80386B002840F043
:1028E4009A802E68B28812F0010240F0B380134639
:1028F400A86B834240F0A080002319462C6CA142AF
:1029040040F0A180934238BF13464FF4FA5202FBC1
:1029140003F4336840F2E730B4FBF3F44FF40046B9
:102924000021C8344FF47A720023E4FB0601FDF75A
:102934000FFC02460B4605F1200001F0CBFF3B6B78
:10294400002800F08B801BB100223B68C3F80025EF
:102954006FF0730455E7002B8CD041F0020189E736
:1029640041F0040186E7386BA8B9D8F804C0002CFC
:102974003FD032466368BCF8281024689942A2D23A
:102984006FF015043B6B002B3FF43BAF00223B6818
:10299400C3F8002535E797F83490836803A95B688A
:1029A4009847D8B90123039A03FA09F3134215D1BE
:1029B400386B97F834108368D3F81890B9F1000F86
:1029C40004D04FF080634FF48002C8474FF0FF32C9
:1029D4004FF0FF3305F15C0001F07CFF02223B68FD
:1029E400C3F80025002E7FF462AFD8F804C014B9F0
:1029F4002046224666E7636830463246BCF8281013
:102A04002468BBE78A42D4E90063B9D83446B5E701
:102A14006FF00404B6E7012497F8341004FA01F1C6
:102A240083681B69984797F83430386B04FA03F1CC
:102A34008368DB68984754E7696B01EBC301496815
:102A440001330A4455E7E86B00EBC10040680131EB
:102A5400034454E74FF0FF3213466CE72A682C6BAB
:102A64009288D20701D504B96C6D1BB100223B6872
:102A7400C3F800252B68002C9B8803F40053FFF651
:102A8400C0AE002B3FF4BDAE204605B0BDE8F08FCC
:102A94006FF01504B5E600BF0000AD0B01238340C1
:102AA40070B5DC430B4AD2E8EF1F01EA0405C2E823
:102AB400E65F002EF7D14FF4803282400648C0F81A
:102AC4000823BFF35F8FBFF36F8F0B4214BF012046
:102AD400002070BDF40900200050015070B40E496C
:102AE40022F07F46D1E90034D01AC31844F100041F
:102AF400C1E90034A6F50013B3F5400F09D2074B22
:102B04001B681A0A1B069C19054B42F10005C3E910
:102B1400004570BC02F0FABA98020020F8090020BF
:102B2400A0020020D9B101230D4A8340D2E8EFCF9F
:102B34004CEA030CC2E8E1CF0029F7D14FF480330B
:102B4400084A8340C2F80433074BD3E8AF3FC3407D
:102B5400DB0742BF4FF40012044BC3F80021704757
:102B6400F409002000500150F009002000E100E0C9
:102B74000D4B1868010A0006BFF35F8F0B4BD3F8A7
:102B84000435181841F10001B3F5801F0AD2084B2F
:102B9400D3E90023904271EB030303D210F1807058
:102BA40041F10001704700BFF809002000500150B6
:102BB400A00200202DE9F04F85B016461F460446BA
:102BC4009DF840A0FFF76AFF0190FFF7D1FFB042E4
:102BD40071EB070352D23B4B301A67EB0101984269
:102BE40071F100014DD2384B03EB0413D3E90223F6
:102BF4009F4208BF964258D04FF48038334908FAB0
:102C040004F8204626F07F4BC1F8488303F02FFCDC
:102C14004FF00309584604F15005AD00ADB205F17B
:102C2400502504F5A87305F580350293029A20F027
:102C34007F4341F82230C1F84483D1F80435244A53
:102C4400C01A033820F07F4090422ED9286868B11A
:102C5400D1F80435A3EB0B0020F07F40B0F5000F52
:102C6400039322D9204603F002FC039BBAF1000F20
:102C740007D109EB030009F10109D7E7BAF1000F05
:102C840009D06FF0150520460199FFF74BFF284640
:102C940005B0BDE8F08F01230E4AA340D2E8EF0F40
:102CA4001843C2E8E10F0029F8D107490E9823011F
:102CB400C8500F9B01EB04120025C2E90267536060
:102CC400E1E700BF010080008802002000500150AD
:102CD400FDFF7F00F00900207FB500254FF0FF3095
:102CE4004FF0FF31194C1A4B0226C4F80833C4F8CC
:102CF4004833184BC4F80855C3E902014FF4803334
:102D04004FF40012C4F80433134B0121C4F80463D4
:102D14001520C3F880212A46FEF7FAF81520FEF79D
:102D2400C7F801230D4AA360236013600C4B0D4ABE
:102D3400009328460023CDE90155FFF73BFF3046B9
:102D4400FEF748FD284604B070BD00BF0050015096
:102D540003000F008802002000E100E0F4090020D5
:102D6400E12A0000FFFF7F002DE9F7432E4BD3F843
:102D7400042390070BD5D3F8042142B10022C3F8F1
:102D840004212A4AD3F80431136801331360264A14
:102D9400D2F80433D90327D5254BD3E8EF1F21F00C
:102DA4000100C3E8E40F002CF7D1CB0702D4D2F81A
:102DB4004031CBB100251C4CC4F84051D4F840310B
:102DC400FFF7D6FE4FF02003EFF3118283F312884E
:102DD400BFF36F8F174BD3E90267B042B94106D2F4
:102DE40082F31188BFF36F8F03B0BDE8F0834FF017
:102DF400FF38D3E900104FF0FF391D60C3E90289A1
:102E04004FF48033C4F84833C4F84051D4F8403107
:102E140082F31188BFF36F8F0029E5D0009032460A
:102E24003B4628468847DFE700500150F809002058
:102E3400F00900208802002030B5431C124C85B0F4
:102E440005D08442A8BF0446012CB8BF0124FFF773
:102E54008FFE0E4B0C4DD3E90013401AB0F5000F52
:102E64000FD22218AA4228BF2A4600205218084925
:102E7400CDE90100009143F10003FFF79BFE05B08B
:102E840030BD2A46F1E700BFFFFF7F009802002013
:102E9400E12A000008B5FFF76BFE024B1B68C01A5D
:102EA40008BD00BF98020020012310B5074C15206F
:102EB4006360FEF70BF84FF40012054BC4F80833B7
:102EC400C4F84833034BC3F8802110BD00500150AF
:102ED40003000F0000E100E04FF47F03D3F830213A
:102EE400D3F83431072A05D1023B032B02D8024A16
:102EF400D05C704700207047D274000008B5FFF71B
:102F0400EBFF58B1784BD3F8202A3AB90D21C3F816
:102F1400201A0121C3F81C19C3F81C290022D3006C
:102F240003F57F03D3F80013013107D0D3F800135E
:102F34000132D3F80433202A0B60F0D1FFF7CCFF21
:102F4400002840F0B980FFF7C7FF40B1674B684ADB
:102F5400C3F830254FF050230122C3F858254FF40D
:102F64007F03D3F83021D3F83431072A09D1023B47
:102F7400032B06D85F4AD35C1BB100225E4BC3F817
:102F84004C25FFF7A9FF50B14FF05023D3F800248C
:102F9400D00742BF0022C3F81421C3F818214FF40C
:102FA4007F03D3F83021D3F83431072A09D14FF005
:102FB4005023D3F80024D10744BF6FF00102C3F8B3
:102FC4000024FFF789FF18B16522474BC3F80C278B
:102FD4004FF47F03D3F83021D3F83431072A16D1C4
:102FE400454BD3F82034002B11DA4FF05023032241
:102FF400C3F8182501229A60D3F80421002AFBD0D3
:103004000022C3F804210122DA60C3F818254FF422
:103014007F03D3F83021D3F83431072A23D1023B7C
:10302400032B02D8354AD35CEBB17E222E4B2F49B9
:10303400C3F80C27C3F83C297F23314AC2F818315E
:103044000023C1F8043EC1F8083E01F54821C1F847
:103054001031C2F82431C2F82C3102F5FF1202F506
:103064008052C2F8A032274B9A6AD2072CD501218C
:103074001E4AC2F80415D2F800140029FBD09A6A3B
:1030840022F001029A62194BD3F80024002AFBD0E3
:103094000022C3F80425D3F80024002AFBD0BFF390
:1030A4004F8F1949194BCA6802F4E0621343CB608D
:1030B400BFF34F8F00BFFDE729220B4BC3F80C274A
:1030C4000322C3F83C273EE70F49D1F88C2042F491
:1030D4004062C1F88C2019680D4AC2F84415DB69B6
:1030E400C2F84C3508BD00BF0040005000900350AA
:1030F4004400EFBECE74000000200350CA740000E8
:10310400002000500080FF0000ED00E00400FA05FC
:103114000060005030B50468ACB1B4FA84F3012205
:10312400C3F11F03DBB29A4024EA0202D0E8EF5F46
:10313400A54204D1C0E8EC2FBCF1000FF6D1EAD1CE
:1031440002480B7030BD0248FCE700BF0000AD0B25
:103154000200AD0B10B50368CB40DB0710D401238C
:103164008B40026843EA0201D0E8EF4F944204D155
:10317400C0E8EC1FBCF1000FF6D1F2D1014810BD3C
:103184000148FCE70000AD0B0400AD0B014BC3F894
:103194000405704700700150044B1A7922B90122CA
:1031A40018601A710248704702487047FC090020F1
:1031B4000000AD0B0C00AD0B08B50A4B1B6833B116
:1031C4000520FDF797FE10B90520FDF771FE4FF0BD
:1031D40050230122C3F81825C3F81425C3F8802509
:1031E40008BD00BFFC09002010B5032845D8DFE85E
:1031F40000F01802554F00224FF480730121002083
:1032040003F1502318601C68012402F15022146059
:10321400284A1268002A47D04FF05023C3F80413F9
:103224002BE04FF05023D3F81814D3F81824C90313
:1032340012D502F00303022B05D0012B02D000208B
:1032440003F04AF901234FF050220221C2F8183545
:1032540008224FF48273D2E7D3F81424D207F1D5AD
:10326400D3F81C2402F00302013A012AE7D8114AD8
:1032740012681AB10222C3F8042310BDD3F8042142
:10328400002AFBD00022C3F80421D3F80431F4E768
:1032940018224FF490734FF48071B0E720224FF45A
:1032A40092734FF40071AAE71A68002AFCD01860E0
:1032B4001B68E2E7FC0900204FF0502310B5D3F857
:1032C400002152B10020C3F80001D3F800210122EB
:1032D400C3F80823234B1B6898474FF05023D3F8B7
:1032E400042182B10022C3F80421D3F80421D3F8C5
:1032F4001824D3F81824022102F00302012A28D149
:10330400C3F818159A604FF05023D3F8202162B106
:103314000022C3F82021D3F820214FF48072C3F88F
:103324000823104B05201B6898474FF05023D3F80F
:103334002421AAB10022C3F82421D3F824214FF474
:103344000072C3F80823074B0620BDE810401B6831
:103354001847C3F80813034B01201B689847D2E7AA
:1033640010BD00BFFC09002001460148FFF7D2BE92
:1033740038010020036803F01F025B09026004D0D7
:10338400012B034818BF002070470248704700BF54
:103394000028845000258450034A4309D35C00F07C
:1033A4001F001844C0B27047D674000070B50546BB
:1033B400FFF7F2FF0C4C083034F810300E46DA05F3
:1033C40008D5C3F3432304EBC302284654F833302F
:1033D40052689847A3682BB131462846E268BDE895
:1033E4007040184770BD00BF3C01002008B5FFF7CE
:1033F400D3FF034B083033F81000400B08BD00BF67
:103404003C01002008B5FFF7C7FF034B083033F831
:103414001000C0F3400008BD3C01002008B5FFF7D0
:10342400BBFF034B083033F81000C0F3401008BD55
:103434003C010020034611F0010010B5CCB20BD1C1
:10344400A207C4F340000DD5074A106A5860106201
:10345400003818BF012005E004490A6A1A600A62AC
:10346400002AEDD010BD00BF0028845000258450F0
:1034740010B5FFF791FF124A083032F81030D90521
:103484001CD5C3F3432123F4F85322F81030002051
:1034940002F10E0434F8023F13F4807F03D0C3F327
:1034A400432399420AD001303028F3D1002342F853
:1034B40031300448BDE81040FFF74CBE10BD00BFDA
:1034C4003C010020B4010020F0B50546002001268F
:1034D400044607468C420BD1114BD3F87C2132B100
:1034E4000022C3F87C21D3F87C3140F00040F0BDC9
:1034F400E3B29B0003F580729B0806FA03F31D42B6
:103504000BD002F1A04202F55042D2F800C0BCF147
:10351400000F02D01760126818430134DAE700BFC5
:1035240000D00050F7B506460846FFF735FF1A4F9E
:1035340000F1080537F815300C46DB072AD530466C
:1035440003F0E6F82046FFF769FF58B12046FFF77D
:103554004DFF0022316800B201EB8003C3F810254F
:10356400C3F810252046FFF783FF002301A827F89E
:1035740015300194FFF7FEFE019B00EB8300D0F8A9
:103584000022064B134043F00203C0F80032044803
:1035940003B0F0BD0348FBE73C010020F0F0FCFF62
:1035A4000000AD0B0400AD0B2DE9F0431646804638
:1035B40085B00846FFF7F0FE0D463168044609B3AE
:1035C4002846FFF71FFF18B12846FFF727FF10BB57
:1035D40000230DF10F02CDE900338DF80E308DF884
:1035E4000F3028460B460DF10E0103F028F8484A27
:1035F40004F1080132F8113023F0020343F001030F
:1036040022F8113073687BB328461F785968FFF796
:10361400F9FE10B1E9B13F4829E03D4A04F1080040
:1036240032F8103023F02003DB04DB0C22F81030D6
:1036340079B1032FEFD87168D1F804E0D8F80010FD
:103644009EF800C001EB8C01A7B9C1F81075C1F850
:1036540010752F4A04F1080132F8113023F01C03CD
:1036640043EA870322F81130B3683BBB2A4805B00C
:10367400BDE8F083D1F810E543EA4C332EF0030E95
:10368400C1F810E5D8F8001043F0200301EB8C0ECC
:10369400DEF8101522F8103021F44F3121F4407176
:1036A400CEF810152902DEF8108501F47C5141EAA8
:1036B400074141EA0801CEF81015CAE72846D3E9C4
:1036C4000067FFF7D5FE002ED0D0114DD5E90023B9
:1036D400964203D19F4201D1002209E00F480DF127
:1036E4000F01FFF717FD0C4B9842C0D19DF80F2036
:1036F40005EBC20308345F6035F8143045F83260D6
:1037040043EA422343F4807325F81430AEE700BF44
:103714003C0100200400AD0B0000AD0BB4010020FF
:103724002DE9F0430C46804685B0204611461D46DF
:10373400FFF732FE064629B32046FFF763FE18B9A9
:103744002046FFF76BFE18BB334F06F1080937F824
:10375400193013F01C0F02D04B78012B18D0012321
:103764008DF80F3000234A1CCDE9001320468B1C32
:103774000DF10F0102F063FF37F8193043F0030332
:1037840027F81930002D44D02046FFF73BFE18B926
:10379400224805B0BDE8F083002295F800C0D8F8AF
:1037A40000301D4F03EB8C03C3F81025C3F810251C
:1037B40006F1080237F812104FEA8C0E21F02001AE
:1037C400C904C90C27F812106E7816B3D8F8000093
:1037D400AD787044D0F81035360423F4991323F4EB
:1037E400F853C0F81035230203F47C5306F4403632
:1037F4002D05D0F810E5334305F480152B4341EA39
:103804004C3143EA0E0341F02001C0F8103527F88B
:1038140012100348BDE700BF3C0100200400AD0BBB
:103824000000AD0B014BC3E9021270473C010020BC
:1038340010B508461446FFF7F1FD50B10846FFF7EE
:10384400ABFD054B083033F8103004485B0B237094
:1038540010BD0348FCE700BF3C0100200000AD0B95
:103864000400AD0B70B5174E054696F880403CBB7E
:103874002146602206F1100003F000FA21462D686B
:10388400306F884212D1002345F30730C5F87C31EC
:10389400D5F87C31FDF70CFB4FF00043C5F8043339
:1038A4000123094886F88030B36770BDCBB29B0012
:1038B40003F580727C2B04BFAC50AB580131E0E7B8
:1038C4000248F2E73C0100200000AD0B0C00AD0BF8
:1038D400034B93F88000003818BF0120704700BFE5
:1038E4003C0100200148FFF735BC00BFB0010020B7
:1038F4000148FFF70FBC00BFB001002073B50546B7
:1039040008460C461646FFF789FD00B30846FFF744
:1039140079FD0146D8B92046FFF768FD04B2A4003A
:103924000346286804F5807281502968825821442E
:10393400D1F8102542F00102C1F810252EB1012260
:10394400296802FA03F3C1F8043302B070BD2046BB
:10395400FFF722FD0E4B083033F81030C3F3820317
:10396400042B11D0052B11D001A80194FFF702FDFF
:10397400019A0369D34003F00103991C204602B065
:10398400BDE8704002F0A4BE0321F7E70221F5E789
:103994003C0100202DE9F04F684BDFF8A481D3F8F7
:1039A4000403D8F87010C0B289B040F00040FFF7AB
:1039B4008BFD051E2FDAC24600235AF87C1F06A889
:1039C400CDE90633FFF736FD4FF0000B5D4B0DF1EB
:1039D40018090193019A12F8013B0192DA081AF8C6
:1039E400022003F0070322FA03F3DA071CD409F1D7
:1039F4000409BBF1000F14D0D8F870104FF0004048
:103A0400FFF762FDD8F87C1006A8FFF713FD002825
:103A1400DAD125F000450124002D76D109B0BDE8A6
:103A2400F08F4FF0010BD5E7474B5B440293D9F875
:103A340000100029DBD091FAA1F1B1FA81F1029BC7
:103A44001C7841EA44142046FFF7A6FC083038F8F5
:103A54001070C808BB080393012319F8002001F073
:103A6400070103FA01F122EA010209F8002005A87E
:103A74000594FFF77FFC059A039B803250F82220BF
:103A8400C7F382065B073746C2F3014222D52046BC
:103A94003946D6B2FFF78AFC05A80594FFF76AFCFD
:103AA400059B803350F82330C3F301439E4207D172
:103AB4000021204602F00CFE3146204602F008FEAA
:103AC40005A80594FFF756FC0122059B02FA03F3AF
:103AD4000362ACE7022A0CD10321204602F0F8FD70
:103AE40006F00503012BEBD139462046FFF75EFCB7
:103AF400E6E702212046039202F0EAFD032EF3D00A
:103B0400039A032ADCD1022EEDE795FAA5F3B3FA62
:103B140083F304FA03F29B0003F1A04303F550433B
:103B2400D3F81005D3F81015C0F30520C1F30141F3
:103B340025EA0205FFF73AFC6EE700BF00D000500B
:103B44003C010020E6740000E6740000036803F002
:103B54001F025B09026004D0012B034818BF002038
:103B640070470248704700BF0028845000258450E5
:103B74004B69284A934247D00FD8274A934243D0EF
:103B840009D8264A93423FD02549264A26488B42E3
:103B940018BF104670472549F7E7254A934233D0AA
:103BA40004D8244A93422FD02349EEE7234A934270
:103BB4002CD191F823301BBB0268214B9A4223D1AC
:103BC4000B685A1C01D0082B20D14B68581C01D01B
:103BD400092B1BD18B685A1C01D00A2B16D191F8E2
:103BE400213023B1CB68581C01D00B2B0ED1CB69EB
:103BF4000D485A1C0CD00B4A0C2B18BF10467047AA
:103C040091F82430002BD7D00748704705487047F7
:103C1400704700BF80841E0020A1070048E801000F
:103C240090D003000400AD0B0000AD0B40420F0028
:103C34000024F40000093D0000127A000048E80165
:103C440000A0005073B51646421C1C460546069B50
:103C540018D0012902D1BBB102F0D8FD01A8019509
:103C6400FFF774FF019B240200EB8300D0F80022CD
:103C7400074B44EA86040C4313401C4344EA4101C5
:103C8400C0F8001202B070BD02F0CCFDE6E700BF40
:103C9400F0F0FCFF2DE9F04F8A4B4D6906469D423A
:103CA4000C4690F804A087B000F0E58000F2D580BF
:103CB400854B9D4200F0E28000F2C780834B9D4219
:103CC40000F0DF80824B9D420CBF4FF080654FF0C7
:103CD400804524227F4F94F8230002FB0A73997FC6
:103CE40060F3000199773379217C02FB0373D97760
:103CF40094F82380B8F1000F34D16269764B012126
:103D04009A420CBF4FF003094FF00009237E42464C
:103D1400012B94BF00230123009320684B46FFF737
:103D240091FFCDF800804B46424601216068FFF7C1
:103D340089FFCDF800804B464146A27EA068FFF77C
:103D440081FF237C424683F00103009301214B460B
:103D5400E068FFF777FF012100914B464246E06996
:103D6400FFF770FF94F821302422002B00F092809A
:103D74004FF0FF3102FB0A721162627E94F8211047
:103D840094F8129094F818C0E0690492002900F0A5
:103D94008A80E16894F810E094F822B094F820A0A6
:103DA400CDF814E0002B40F0818010F1010818BF19
:103DB4004FF0010894F824E03368BEF1000F0CD1F1
:103DC400226802926268A4680392029AC3F80825E2
:103DD400039AC3F80C25C3F81045049AC3F8C09598
:103DE400003A18BF0122BCF1020FC3F8245560D079
:103DF400BCF1030F60D0BCF1010F01D142F002020B
:103E0400C3F85425B8F1000F11D0BEF1000F0CD146
:103E1400441C18BFC3F86C054A1C1FBF059AC3F89D
:103E24001415C3F86825C3F864B5C3F860A5242243
:103E340033795343FB58002B41D0306840F30730AB
:103E440007B0BDE8F04FFDF733B8244B9D420CBFDB
:103E54004FF080554FF080453BE7214B9D4213D0F6
:103E64001D4B9D4213D01F4B9D420CBF4FF000458C
:103E74004FF080452DE74FF000552AE74FF00065DD
:103E840027E74FF0007524E74FF0206521E74FF056
:103E9400A0551EE702FB0A7AE168CAF82010227CCA
:103EA4008AF81F2069E74FF0FF3173E74FF00108EC
:103EB40080E742F00402A3E742F00602A0E707B05D
:103EC400BDE8F08F80841E0020A1070048E80100AF
:103ED40090D00300040A00200048E80140420F008B
:103EE4000024F40000127A00431C07B50ED00190A0
:103EF40001A8FFF72BFE019B00EB8300D0F8002202
:103F0400044B134043F00203C0F8003203B05DF8E1
:103F140004FB00BFF0F0FCFF2DE9F84F242590F8D6
:103F24000490154C05FB09F504EB050B98469BF82A
:103F34001C3006460F469246DBB961B96251CBF894
:103F44000480242303FB09440023637701230B48E3
:103F54002377BDE8F88FFFF70BFE084B9842F8D1A2
:103F64003946304644F805A0CBF80480FFF792FEAA
:103F7400E7E70348EDE700BF040A00200000AD0BAB
:103F84000C00AD0B2DE9F0410446067900681E4D86
:103F940040F30730FCF79AFF24237343EB5853B1E3
:103FA40023681A4A06EBC601C3F80823206805EB08
:103FB400810102F043FC242101FB06512368D3F85C
:103FC4000805D3F80C75D3F810858B7FDB0714D460
:103FD400FFF78AFF4046FFF787FF3846FFF784FF65
:103FE400086AFFF781FF2368D3F86C05D3F814152A
:103FF400FFF77AFF0846FFF777FF242303FB0655F4
:1040040000232B77BDE8F081040A00205201080048
:1040140024232DE9F0430779524D7B439046EA1857
:104024000E46517F814685B0002940F09880EB58B8
:1040340023B118F0140F04BF01235377242496E806
:104044000F0004FB075404F10C0C8CE80F00206AE9
:10405400431C03D0E37FD3B102F0D8FB3368D9F813
:10406400004023B103F06043B3F1005F06D1B368AD
:1040740083B103F06043B3F1005F0BD0242300222B
:1040840003FB075338485A7705B0BDE8F08302F0C4
:10409400C9FBE3E718F0010318BF0123C4F8503546
:1040A40018F0020318BF0123EC46C4F8403596E823
:1040B4000F008CE80F00039BC4F84405C4F84815AE
:1040C400C4F83425C4F838350023C4F81831D4F8BA
:1040D40018310723C4F8003524237B4318F0080F54
:1040E40005EB03021DD10121E858216158B9D4F828
:1040F4001831002BFBD062464021204602F048FBD9
:1041040024237B43EA18EB5803BB106A411C12D1E9
:1041140007EBC707204605EB870102F08FFB134826
:10412400B2E7EB5893B9106A431CF8D0D37F53B16C
:1041340002F078FBF3E7D37F13B102F073FBE7E7F8
:1041440002F064FBE4E702F061FBE8E7402318F0C7
:10415400040F14BFC4F80833C4F80433DFE7044879
:1041640092E700BF040A00200A00AD0B0000AD0B6B
:104174000B00AD0B10B540210F4A104802F008FBAC
:10418400C0B10F4C206A431C03D0E37F7BB102F023
:1041940049FB637F1BB10A49084802F04FFB002327
:1041A40023720848D4E90031BDE81040184702F0F2
:1041B4002DFBEEE710BD00BF100A002000A0005048
:1041C400040A00200C0A002030B500F01F04400946
:1041D40011D0012811D10B4800EB8400D0F8005213
:1041E400094C1B0243EA82022C4042EA410121436A
:1041F400C0F8001230BD0548EEE70023803453F8C0
:104204002430FFDE00288450F0F0FCFF00258450A9
:104214002DE9F041174E04794FEA441806EB441493
:1042240094F814C0BCF1000F22D10568A260A36108
:10423400B1B900234644C5F83435C5F83835C5F856
:104244004435C5F84835737540F20243C5F8043364
:104254000123337502230848C5F80035BDE8F08111
:10426400CB7D237702F020FB0028E2D10348F5E759
:104274000348F3E7280A00200000AD0B0400AD0B4F
:104284000C00AD0BF8B50479069E2CBB46EA02047B
:10429400B4F5803F20D221B101F06044B4F1005F55
:1042A4001CD123B103F06044B4F1005F16D10E4C6D
:1042B400677D012FFDB213D002D9023D012D11D823
:1042C400C4E903130123226066600068064963752C
:1042D40002F0CAFA0548F8BD0548FCE70548FAE7C4
:1042E4000548F8E70548F6E7280A00200000AD0B6A
:1042F4000600AD0B0A00AD0B0500AD0B0100AD0BC4
:1043040010B51948D0F82831D3B100231749C0F8A3
:104314002831D0F828314B7D012BDAB210D10B684B
:10432400CC68C0F84445C0F848354B680C69C0F8FF
:104334003445C0F83835022382624B7502F094FA92
:104344000948D0F8043173B100230849C0F8043196
:10435400D0F804314B7D022B05D103234B75BDE806
:10436400104002F081BA10BD00C00050280A00209D
:1043740038B54FF02003EFF3118583F31288BFF3B0
:104384006F8F064B9C6802F082F885F31188BFF3A7
:104394006F8F2046BDE83840FCF718BD4C0A00205A
:1043A400104B70B553F82040013053F82060A642FA
:1043B40000D870BDD4E9003595B153B1284698476B
:1043C40038B10028B8BF4042FF28A8BFFF20EB68DF
:1043D4001870EA68537843F0010353700834E6E731
:1043E4009847FBE7D8720000012208B5094B032067
:1043F4001A70FFF7D5FF00F00DFF0420FFF7D0FF80
:1044040000F042F9FCF75EF8034A137B23F0010342
:10441400137308BD690C00202803002008B5034865
:10442400034A0021121A02F0B5FA08BD88020020DE
:104434006C0C00200023012270B586B0CDE9042362
:104444000F220193CDE9023214234FF4A0720446E3
:10445400114D124E03FB0055114906EBC01602FB29
:104464000011104B3046009500F0D0F8737B2C748B
:1044740023F0040373730C4B013403EBC4236B600C
:104484000A4BEE60D3E8EF1F0131C3E8E21F002AB4
:10449400F8D106B070BD00BF4C0A0020A80200206D
:1044A40070140020416A0000700C0020480A0020AB
:1044B40080B50020A6B0FFF773FF2D4B03F5006213
:1044C40082F3088883F30A880024E023294D2A4EC6
:1044D40085F82230EC772C766C76AC7685F8204023
:1044E4006B6A264F43F4E0236B6285F82340FCF7A4
:1044F400DDFBFCF775FD4FF0FF33AB62EB62FCF7BD
:1045040023FFFCF7C9FD40F20113ADF8243006ABDC
:10451400B360CDE91E44219402F030FA0120FFF784
:104524003FFF0220164DFFF73BFF00F06FFC154BD9
:1045340075610593012314494FF48062CDE9034367
:1045440028463B46CDE90144009400F05FF8064656
:104554006A7B284622F004026A7302F0C4FA2046F9
:10456400FFF768FF3A4631462846FCF71FFD00BFB7
:10457400700C002000ED00E04C0A0020ED43000028
:1045840028030020E8740000B0150020002038B58E
:10459400054C064DAC4200D338BD204602F0FEF96E
:1045A4000028F9DB1C34F5E736020020360200202F
:1045B40073B50C464FF02005EFF3118185F3128893
:1045C400BFF36F8FC5685DB125602B68C3608369D5
:1045D40001338361002081F31188BFF36F8F11E0F1
:1045E40052EA030603D16FF00B002560F3E7CDE92F
:1045F40000230246083000F045FB18B9024B9B68C3
:104604005B69236002B070BD4C0A00202DE9F043C1
:10461400984685B000F15803C0E91633109B002674
:1046240003730423073222F0070543730F9B01EB46
:1046340005090F4683734946C0E906668660C6735A
:104644000446FCF7C5F90E9B073020F00700A0666E
:10465400C4E9187502930D9BA9EB000901930C9B07
:104664004A460093394643462046FCF783FC054BF3
:1046740066659B6803B1DB6E4846E36605B0BDE83A
:10468400F08300BF4C0A002070B5224C224D86B046
:104694002646AE4204F130040AD300F087FB1D4CD9
:1046A4001E4EAC4220D306B0BDE8704000F092BB71
:1046B40054F80C3C059354F8103C049354F8143CFF
:1046C400039354F8183C029354F81C3C019354F897
:1046D400203C009354E90A2354E90C01FFF796FFA8
:1046E40054F8303C5E65D3E7D4E90A23B3F1FF3FC5
:1046F40008BFB2F1FF3F05D052EA0301206803D19D
:1047040000F036FB3034CCE73146183000F088FC3A
:10471400F8E700BF9C7000009C700000856B0000EF
:1047240038B5836804466BB3194A926893422CD116
:10473400C368012B03D9013BC360002038BD4FF08F
:104744002003EFF3118583F31288BFF36F8F0169A0
:10475400806802F07FF9204602F016FAA06058B192
:1047640090F90E2022610022826702F0BCF92946EA
:10477400084800F0EBFAE0E7E06085F31188BFF346
:104784006F8FDAE76FF01500D8E74FF0FF30D5E709
:104794004C0A00206A0C00202DE9F3410446174618
:1047A4001E464FF02003EFF3118883F31288BFF302
:1047B4006F8FC368334A7BB180689168884219D08F
:1047C40057EA060318D188F31188BFF36F8F6FF08F
:1047D4000F0002B0BDE8F081916891F90E10013329
:1047E400E36093682161A36088F31188BFF36F8F3E
:1047F4000020EEE72169F2E791F90E1090F90E30EE
:104804006FF07E029942A8BF19469142B8BF114683
:104814008B422EDD02F01EF9054622464146CDE9C3
:104824000076194800F02EFA0028E1D04FF020035A
:10483400EFF3118683F31288BFF36F8FA068D0B1B2
:10484400236821699C420AD04BB193F90E309942F6
:10485400A8BF19466FF07E039942B8BF194602F00B
:10486400F9F840B13146084800F070FA6FF00A00D8
:10487400AFE70025D1E7002DF4D186F31188BFF30B
:104884006F8FF3E74C0A00206A0C002038B5044609
:104894004FF02003EFF3118583F31288BFF36F8F7A
:1048A40002F072F948B10022826702F01CF929462D
:1048B400BDE83840064800F049BAD4E902329A42C9
:1048C40018BF0133A36085F31188BFF36F8F38BD20
:1048D4006A0C002013B54FF02004EFF3118184F328
:1048E4001288BFF36F8F846844B1013C846081F304
:1048F4001188BFF36F8F002002B010BD52EA030489
:1049040006D181F31188BFF36F8F6FF00F00F3E7C7
:10491400CDE900230246024800F0B4F9ECE700BFF9
:104924006A0C002070B504464FF02003EFF31185A4
:1049340083F31288BFF36F8F6FF00A06204602F0EC
:1049440023F918B1866702F0CEF8F7E7A06029468C
:10495400BDE87040014800F0F9B900BF6A0C0020BE
:10496400C3897F2B12D80A4B1B6863B1094B90F99A
:104974000E201B689A4209DB437BDB0606D1064BFB
:10498400C31A18BF012303F0010070470023FAE79C
:10499400740A0020700A0020A80200200122044B9F
:1049A400C01A044BC0105843034B1A54704700BF3D
:1049B400A8030020ABAAAAAA6A0C002070B50E4B6B
:1049C4000E4C1E7C054606EB460304EBC30420464E
:1049D40002F02DF900220A4B28469A55FFF7C0FF32
:1049E40048B1084B2046BDE870401A680649013AB0
:1049F400D31700F015BB70BD4C0A0020A80300209B
:104A04006A0C0020740A0020A149000038B50D4D3D
:104A14002B4653F8184F9C4200D004B9EC68AB689D
:104A240038B95A7BD20604D1A26912B9DA897F2A2D
:104A340005D89C4202D02046FFF7C0FF23466B6195
:104A440038BD00BF4C0A002070B590F90D20014616
:104A5400002A437B04DA03F07F03437302F009F86E
:104A6400154A4B7B104663F07F034B7350F8183F95
:104A7400D469834208BF002323B9C1E9000421603B
:104A8400D1610CE091F90E5093F90E60B5420ED04D
:104A9400AE420CDD5868C1E900300160596090688D
:104AA400BDE87040431A58425841FFF7AFBF9C42DB
:104AB400E3D01B68E0E700BF4C0A002070B490F913
:104AC4000D30427B002B29DBD30627D183692BBB16
:104AD400134962F07F0242730A4652F8184F944217
:104AE40018BF2346CC6923B9C0E900242060C861FB
:104AF4000CE090F90E5093F90E60B5420AD0AE4224
:104B040008DD5A68C0E9003210605860002070BCAB
:104B1400FFF77CBFA342E7D01B68E4E770BC704793
:104B24004C0A002008B590F90D200146002A437B69
:104B340004DA03F07F03437301F09BFF044B98688E
:104B4400431A58425841BDE80840FFF75FBF00BF11
:104B54004C0A002070B515461C46064601F09BFF22
:104B6400B4F1FF3F08BFB5F1FF3F08D02A46234602
:104B740006F118000249BDE8704000F051BA70BD5A
:104B8400856B0000002A2DE9F0410E460CBF102170
:104B94000821437B044619420AD10B43DD0903F083
:104BA4009F0211D14273082914D00120FFF72EFF70
:104BB4001B4B9B68A3422CD1EFF305834BBB3046C0
:104BC400BDE8F041FCF718B903F01F03437301F08B
:104BD40050FFE8E7A36813B1204601F052FF04F147
:104BE400180002F024F84FF0000804F15807A56DEE
:104BF400BD42DAD0002DD8D0284601F042FF05F19D
:104C0400180002F014F82846C5F87880FFF756FF1C
:104C1400EDE786F31188BFF36F8FBDE8F08100BF25
:104C24004C0A002038B54FF02003EFF3118583F3CD
:104C34001288BFF36F8F104B104A9C681068A04213
:104C440006D1FFF7BBFE85F31188BFF36F8F38BD24
:104C540000211B7C11600A4AD35C002BF3D0204650
:104C6400FFF77EFE0028EED0637BDB0602D12046F0
:104C7400FFF7EAFE2046E4E74C0A00206C0A002015
:104C84006A0C002070B50C480C4D86680C462E60EA
:104C94001146DDE904234FF02006EFF3118586F376
:104CA4001288BFF36F8F8068FFF754FF2046BDE87A
:104CB4007040FCF7A1B800BF4C0A00206C0A002029
:104CC400F8B504464FF02003EFF3118683F31288FE
:104CD400BFF36F8F437B49B2DA0619D18569BDB939
:104CE40003F07F03437301F0C4FE437B164A63F071
:104CF4007F0343731346817353F8180F984218BF08
:104D04000546D0695DB9C4E900300460D46111E09E
:104D14000020A17386F31188BFF36F8FF8BD95F956
:104D24000E70B9420BD08F4209DD6B68C4E90053A1
:104D34001C606C600120FFF769FE0120EAE7A842CD
:104D4400E1D02D68DEE700BF4C0A002049B9EFF33B
:104D5400058030B9054B5A699B689A4201D0FCF72B
:104D64004BB881F31188BFF36F8F70474C0A002052
:104D740010B54FF02002EFF3118482F31288BFF3D1
:104D84006F8F427B510704D484F31188BFF36F8F74
:104D940010BD22F004024273FFF790FE2146BDE8E5
:104DA40010400148FFF7D2BF6B0C00204FF02003E6
:104DB400EFF3118183F31288BFF36F8F044B9A686A
:104DC400D37B013BD37381F31188BFF36F8F70479B
:104DD4004C0A002010B54FF02003EFF3118483F345
:104DE4001288BFF36F8F084B00209A68D37B01337E
:104DF400D373FFF70BFE84F31188BFF36F8FBDE805
:104E0400104001F0E9BE00BF4C0A0020024B03F140
:104E14001802C3E9062270474C0A0020F8B54FF087
:104E24002003EFF3118583F31288BFF36F8F1949C1
:104E34008868437B03F07F03437301F01AFE08463E
:104E44008B685A7B62F07F025A7350F8182FCC6932
:104E5400824208BF002222B9C3E900042360CB6167
:104E64000CE093F90E6092F90E70BE420ED0B74278
:104E74000CDD5168C3E900210B6053600120FFF78A
:104E8400C5FD2846BDE8F840FBF7B6BFA242E3D013
:104E94001268E0E74C0A002050EA01032DE9F041D2
:104EA40005460E4603D1FFF7B9FF00202CE0831C12
:104EB40071F1FF332ADB01F0D0FE2C184FF02003F0
:104EC400EFF3118883F31288BFF36F8F114F124BE6
:104ED400B8681860FFF726FEB86810492A463346BA
:104EE400183000F09DF8BA684046537B43F0100335
:104EF4005373FBF781FF01F0B0FE201A63EB030349
:104F0400012873F10003D0DBBDE8F0816FF00104E8
:104F1400241AD3E74C0A00206C0A0020856B000099
:104F2400B1F1FF3F08BFB0F1FF3F08B506D1084B10
:104F3400986801F0E8FD4FF0FF3008BDFFF7ACFFC3
:104F44004FF47A7380FB0303C00B40EA4340F4E759
:104F54004C0A0020014B9868704700BF4C0A00209F
:104F640008B50648064A0749121A01F015FDBDE8BE
:104F74000840054A0549064801F00EBD000000201E
:104F84008802002030750000000000003075000029
:104F940000000020034B1B680BB9FDF77BBF00200A
:104FA400704700BF780A002010B50E4B1C689C4265
:104FB40004D1FFF7EFFF6FF0004010BDFFF7EAFFE9
:104FC400002CF8D0D4E904321B1A62EBE072B3F17E
:104FD400004F72F10001EEDA002AACBF184600203F
:104FE400EBE700BFC001002030B570B10B4B5B682C
:104FF40098420AD0036843B1D3E90421D0E90445B7
:10500400121941EB0501C3E90421D0E90032136010
:105014005A600023C0E9003330BD00BFC001002046
:10502400B3F1FF3F08BFB2F1FF3FF8B504461D4698
:1050340016465CD081604FF02003EFF3118783F3B1
:105044001288BFF36F8F013275F1FF3324DA6FF0EA
:1050540001032C49D1E900209B1A4FF0FF3262EB87
:1050640000009E1B60EB0500012E70F1000301DAC5
:1050740001260020C4E90460234ED6F800C07568F8
:10508400B44508BF4FF0000CBCF1000F0DD1C4E9CA
:1050940000652C6074601CE0FFF77CFF013645F16D
:1050A4000005361845EBE070E4E7DCE90420D4E9B8
:1050B4000431934271EB000E1ADAD21ADCF8043090
:1050C40060EB0100CCE90420C4E900C31C60CCF807
:1050D40004403368B34206D09C4204D1FFF764FF16
:1050E4000021FDF7A9FE87F31188BFF36F8FF8BD88
:1050F4009B1A61EB0001AC45C4E90431C7D0DCF86C
:1051040000C0C1E7C0030020C00100202DE9F84F12
:105114004FF02003EFF3118C83F31288BFF36F8FEA
:10512400DFF8B0A0DFF8B0900024C9F80000DAF886
:1051340000000025504508BF0020284FE046D7E96D
:105144000021D9F8003080B3D0E9046C4FEAE37E43
:10515400B3427EEB0C0B05DAF61A6CEB0E04C0E9D5
:10516400046422E0B21841EBE671C0E90445C7E9E2
:105174000021FFF739FF88F31188BFF36F8F83682D
:1051840098474FF02003EFF3118883F31288BFF39D
:105194006F8FD9F80030DAF800009B1B5045C446E5
:1051A400C9F80030CAD1D7E9002100249A1841EB8C
:1051B400E373C7E90023C9F80040FFF7F5FE214671
:1051C400FDF73AFE88F31188BFF36F8FBDE8F84FFF
:1051D400FFF728BDC0010020780A0020C00300208A
:1051E40010B54FF02003EFF3118483F31288BFF35B
:1051F4006F8FFFF7CFFE0346054AD2E90001181866
:1052040041EBE37184F31188BFF36F8F10BD00BFCE
:10521400C0030020014800F004BC00BFED7400008E
:1052240010B50A4C23681BB101232360002010BD74
:1052340000F0F4F80028F7D00138072803D8044B0D
:1052440053F8200010BD034810BD00BF7C0A0020A5
:10525400F0720000FE8FFFFFBFF34F8F0549064B2E
:10526400CA6802F4E0621343CB60BFF34F8F00BF00
:10527400FDE700BF00ED00E00400FA0530B44FF094
:10528400FE3200250B4B0C4C0C494968C3F8002432
:10529400C3F80424C3F80824C3F80C24C3F8102466
:1052A400C3F81424C3F81824C3F81C24C4F8005504
:1052B40030BC08470050845000408450C80100208E
:1052C400024BD0E90012C3E900127047C801002064
:1052D40010B5044650B1636813F0685F05D0064A00
:1052E400934202D000236260236010BD034B044844
:1052F4005B689847EFE700BF2C5F5CA9C8010020FA
:1053040010730000C8B143680D4A934213D013F0E0
:10531400685F0ED0012350E8002F194640E8001CB6
:105324009CF0000FF7D1012AF5D0BFF35F8F002066
:10533400704704487047044870476FF4E040704772
:105344002C5F5CA9E98FFFFFEA8FFFFF034680B162
:10535400426809498A420AD012F0685F05D0BFF357
:105364005F8F002210461A60704704487047044853
:1053740070476FF4E04070472C5F5CA9E98FFFFF32
:10538400EA8FFFFF10B5044620B10023034A2360CF
:10539400626010BD0248FFF771FFF6E73A00003A79
:1053A4003873000070B5194CD0F804C00668C4F80E
:1053B40004C0D0F808C0C068C4F808C0E060266023
:1053C4000868134B134D18604868D5F818215860C5
:1053D400886812F0685F9860C8680969D8601961C4
:1053E40012D000230C4A05F58A70C5F81431C5F8AB
:1053F400B831C5F81821C5F8BC21B047236805F5B4
:10540400DC70BDE87040184770BD00BFE4010020A7
:10541400D0010020940A00202C5F5CA908B500F09C
:1054240011F830B900F010F838B9054AC2F80C0A7E
:1054340008BD00F037F8032008BD042008BD00BFF4
:10544400005084500020704710B5114800F048F80F
:1054540000B110BD0F4800F043F80028F9D10E4CFC
:10546400204600F03DF80028F3D10C4B0C481C609A
:1054740000F036F801460028EBD100F02DF8044680
:1054840008B1204610BD00F03FF82046FAE700BFFF
:1054940024020020200200201C020020140200200C
:1054A4001802002008B5084800F024F8074800F066
:1054B40021F8074800F01EF8064800F01BF8BDE884
:1054C400084000F00BB800BF240200202002002096
:1054D4001C0200201802002000207047704700BF03
:1054E40008B5034B02681B6810689847002008BD84
:1054F400E401002008B5034B02685B681068984714
:10550400002008BDE401002070B5094C094D206954
:10551400AB68984718B1084B08485B689847002166
:10552400074AEB6811602069BDE87040184700BF66
:10553400D0010020E4010020C80100205C730000B9
:10554400900A00200FB407B504AA064B52F8041BB6
:105554001868019200F008F803B05DF804EB04B099
:10556400704700BF087100002DE9F04F43688DB00B
:1055740015468046029383789A0740F10D810024F2
:105584000E78002E00F00A81252E0BD04B1C0393BD
:10559400013441463046029B98470028C0F2F68009
:1055A4000399EDE74E788B1C252E0393F0D000274A
:1055B400B946BB46BBF11F0F38D8A6F12003102B08
:1055C4000AD8DFE803F02A09093009090921090981
:1055D4000928092D09091F00A6F13003092B33D925
:1055E4002A2E37D11BF0400F55F8043B40F082803F
:1055F400002BA7BF4BF0200B9946C3F100094BF0D9
:10560400280B01E04BF0010B039B13F8016B039390
:10561400002ECFD130E04BF0020B4BF0040BF3E73C
:105624004BF0080BF0E74BF0100BEDE7BBF17F0FED
:1056340019D8A6F13003092BD2D81BF0400F03D0A0
:105644000A2101FB0737DFE70A214BF0200B01FB9E
:105654000939D9E72E2E06D11BF0400F40F09E8069
:105664004BF0400BD0E76C2E31D02BD8682E36D0BF
:105674006A2E3CD04C2E3AD0002F46F02003B8BFFF
:105684002BF04002A3F16501BCBF00271FFA82FB87
:10569400022901D9612B2FD107350727DFF8ACA2E6
:1056A40025F0070508351BF0080F66D00AEB070B39
:1056B40056465E4563D1A4EB0A0AA9EB070906EB3B
:1056C4000A026FE1742E9FD07A2E9DD0D4E71BF08E
:1056D400800F18BF4BF4007B4BF0800B94E71BF456
:1056E400807F18BF4BF4007B4BF4807B8CE74BF43A
:1056F400207B89E71F4687E7A6F16301122900F2A0
:10570400F080DFE811F013004F00EE00EE00EE0031
:10571400EE004F00EE00EE00EE00EE00EE00FE00A4
:10572400E900EE00EE001B00EE00AF0055F8043B6C
:1057340001270DF1180A8DF81830B4E755F804ABB9
:10574400834BBAF1000F08BF9A461BF0400F504636
:1057540014BF39464FF0FF3101F098FA0746A2E72B
:1057640041462020029B984700280FDB013EB742A8
:10577400F6D34C44B146A41B98E74E46F7E741469E
:1057840016F8010B029B9847002892DA98F8023029
:1057940043F0040388F802304FF0FF3420460DB084
:1057A400BDE8F08F1BF0800F34D01BF4007F2CD0A9
:1057B400073525F00705AA4669685AF8080B2BF047
:1057C40010050029ADB237DA404245F4806561EB3B
:1057D40041010DF1180B0A235A4601F063FAA0EBBC
:1057E4000B0301936B0662D5019B25F001019F42D7
:1057F40089B240F3A180002E00F0998015F01002C8
:1058040040F09C80BB460D4623E0AA465AF8040BA0
:10581400C117D4E7AA461BF4807F5AF8041B01D1B0
:105824000846F5E71BF4007F19BF48B241F3C011E5
:1058340008B241F3C031C2E750EA0103C9D11BF0F9
:10584400400FC6D0002FC4D12BF01102BB460197E4
:1058540095B240F2064115EA01021CBF0BF1010B9F
:1058640000222CE02BF010020A231FFA82FB1BF00B
:10587400800C49D01BF4007115BF0735AA4625F0EA
:1058840007055AF8040B1EBFAA4669685AF8080BA4
:1058940050EA010545D12BF016051BF0400FADB2BF
:1058A40042D0002F40D12BF01702019795B215F08A
:1058B400100248D0019B002E42D103F1010B2907AD
:1058C4005AD4EB0706D5D9456FDDA9EB0B03019933
:1058D400CB465F185B4649E04BF0100B102378264B
:1058E400C5E7782B04D1C6F1780343F01003BEE773
:1058F40041462520029B98470028FFF647AF023413
:1059040047E608230026B2E7AA461BF480715AF83A
:10591400040BBDD01BF400711ABFC0B2614680B243
:10592400B6E72BF0060295B20DF1180B54E725F0FB
:105934001105BB46ADB28CE70D46B8E73B460D46B4
:1059440003F1020BBBE7DDF804B082E72675000023
:105954001F750000CDE9043241462020029B984780
:105964000028FFF613AF049B059A01339945F1DC37
:10597400A4EB0B019B46CC180AB341463020029B92
:1059840098470028FFF602AF8EB901342744391B2B
:10599400019B994224DC1D4655BB019AA9EB0B09D6
:1059A400554622441446914433E0019F92E7023461
:1059B40041463046029B98470028E7DAE6E640F283
:1059C40006410D42E2D015F0020F04F101044146F4
:1059D40014BF2B20202015F4806F18BF2D20E9E779
:1059E40041463020029B013498470028CFDACDE6A7
:1059F40006AB013D4146585D029B98470028CBDA2F
:105A0400C4E641462020029B013498470028FFF653
:105A1400BDAEA9EB0403002BF3DCC1E57047002005
:105A240070470FB407B504A951F8040B0191FAF7B4
:105A34006FFD03B05DF804EB04B07047836800EBBE
:105A4400C101B3F5004F2CBF51F8220031F8120008
:105A5400704700EBC1018068B0F5004F2CBF41F8DE
:105A6400223021F812307047012208B5FFF7E6FF13
:105A7400D04008BD836800EBC101B3F5004F08D3E3
:105A84004B681AB143F001034B60704723F00103E4
:105A9400FAE74B881AB143F001034B80704723F0B7
:105AA4000103FAE753000122FFF7D3BFB0F5004F1B
:105AB40034BF04230823481C0833A0EBD300B0FAF6
:105AC40080F0C0F11F0070472DE9F0410D46866853
:105AD4000446FFF7C9FFB6F5004F014601D301287C
