:020000040000FA
:10000000F04700203533000035FA000009330000C6
:1000100009330000093300000933000009330000F0
:10002000000000000000000000000000E12B0000C4
:100030000933000000000000792B000009330000A4
:100040006D2C00006D2C00006D2C00006D2C00004C
:100050006D2C00006D2C00006D2C00006D2C00003C
:100060006D2C00006D2C00006D2C00006D2C00002C
:100070006D2C00006D2C00006D2C00006D2C00001C
:100080006D2C00006D2C00006D2C00006D2C00000C
:100090006D2C00006D2C00006D2C00006D2C0000FC
:1000A0006D2C00006D2C00006D2C00006D2C0000EC
:1000B0006D2C00006D2C00006D2C00006D2C0000DC
:1000C0006D2C00006D2C00006D2C00006D2C0000CC
:1000D0006D2C00006D2C00006D2C00006D2C0000BC
:1000E0006D2C00006D2C00006D2C00006D2C0000AC
:1000F0006D2C00006D2C00006D2C00006D2C00009C
:100100006D2C00006D2C00006D2C00006D2C00008B
:100110006D2C00006D2C00006D2C00006D2C00007B
:100120006D2C00006D2C00006D2C00006D2C00006B
:100130006D2C00006D2C00006D2C00006D2C00005B
:100140006D2C00006D2C00006D2C00006D2C00004B
:100150006D2C000053B94AB9002908BF00281CBF04
:100160004FF0FF314FF0FF3000F00CB8ADF1080C4C
:100170006DE904CE00F008F8DDF804E0DDE90223C3
:1001800004B07047704700BF2DE9F04786468C46A3
:100190000846089E154674461946002B40F0C1805B
:1001A0008542B2FA82F245D94AB1C2F1200300FA7F
:1001B00002FC954094402EFA03F343EA0C0C4FEAFC
:1001C000154EA8B2230CBCFBFEF80EFB18CC08FBA6
:1001D00000F943EA0C43994528D9EB1808F1FF3799
:1001E00004D2994502D9A8F102072B44A3EB0903D5
:1001F000A4B2B3FBFEFC0EFB1C330CFB00F044EA84
:100200000344A04214D92C190CF1FF3304D2A042AC
:1002100002D9ACF102032C44241A43EA07401EB170
:10022000D440002334607360BDE8F0874746DDE7C3
:100230006346F1E792BB431B01214FEA154EAFB273
:10024000200CB3FBFEFC0EFB1C330CFB07F840EA52
:100250000343984561D9EB180CF1FF3004D298455F
:1002600002D9ACF102002B44A3EB0803A4B2B3FB08
:10027000FEFC0EFB1C330CFB07F744EA0344A742C9
:100280004DD92C190CF1FF3304D2A74202D9ACF19D
:1002900002032C44E41B43EA0040C0E7C2F1200300
:1002A0009540944020FA03F12EFA03F34FEA154EDD
:1002B0009040AFB20343B1FBFEFC0EFB1C10190CC7
:1002C0000CFB07F841EA0041884522D969180CF176
:1002D000FF3004D2884502D9ACF102002944A1EBD9
:1002E00008019BB2B1FBFEFC0EFB1C110CFB07F7D7
:1002F00043EA01439F420ED9EB180CF1FF3104D2BF
:100300009F4202D9ACF102012B44DB1B41EA0041C0
:1003100093E76046E3E76146F7E76046A4E7634694
:10032000B8E7834206D916B9002108467CE7C6E93A
:1003300000E0F9E7B3FA83F78FB9834201D372453E
:1003400008D8BEEB020460EB030301209C461EB9F3
:10035000002169E73846FAE7C6E9004CF8E7C7F13B
:10036000200CBB400EFA07F522FA0CF42EFA0CF121
:10037000BA401C4320FA0CF3B8404FEA1449014339
:100380001FFA84FEB3FBF9F809FB18300B0C08FBCD
:100390000EFA43EA00439A4540D9E31808F1FF30CA
:1003A00004D29A4502D9A8F102002344A3EB0A0320
:1003B00089B2B3FBF9F809FB183308FB0EFE41EADA
:1003C00003418E452CD9611808F1FF3304D28E45C4
:1003D00002D9A8F10203214443EA0040A1EB0E0137
:1003E000A0FB02984145CE46434602D306D14D4577
:1003F00004D20138B9EB020E68EB0403002EA7D03B
:10040000B5EB0E0261EB030101FA0CFC22FA07F3D3
:10041000F9404CEA0303C6E9003199E74046C5E7D5
:100420004346D9E710F8012B11F8013B012A28BFF8
:100430009A42F7D0D01A7047034611F8012B03F8FF
:10044000012B002AF9D17047034613F8012B002A2B
:10045000FBD1181A013870472DE9F0418AB06C467B
:1004600002AF3F4BFB610223BB6100234FF4865177
:100470003C4807F1180201F007FD0AF0EFFA90B1CD
:1004800088B002AA384BC2E90530032342F8103F76
:1004900000234FF4C251334801F0F6FCA546203743
:1004A000BD46BDE8F08131493A46314803F0CEFA05
:1004B000014610B12F480DF0ABFD0021384605F084
:1004C000A5F9011E02DA2C480DF0A2FD002005F06E
:1004D00099F8054630B16C4688B002AA274BC2E9AC
:1004E0000530D2E7E8460226254BBE61FB614FF49A
:1004F0008651034607F118021A4801F0C5FC012392
:10050000324600931F49204B204805F06BFD0446FE
:1005100078B188B002AA1E4BC2E90530032342F825
:10052000103F4FF4C2512B460E4801F0ADFCC546BA
:10053000B5E7184BC7E906634FF48651034607F148
:100540001802084801F0A0FC013404F00101002069
:100550000AF0AEFA00214FF400400CF06DFDF3E715
:10056000703D0100F0330100913D0100AC3D010000
:10057000B33D0100C53D0100E23D0100033E010025
:10058000233E0100A03501009835010060010020E4
:100590003A3E0100603E01002DE9F04F91B000931A
:1005A00002F004030293C2F3C20301338407054639
:1005B0000E46DDF868900392059340F0BB81041D60
:1005C00030B1072909D86FF01B0011B0BDE8F08FDA
:1005D00001F00706341DC6F10806009B4FF0000825
:1005E0004FF0040A591E4FF0FF3347460193C346AC
:1005F0005346CDF810800DB1009A2260059800286E
:1006000000F3E8809848009A824203D397488242D8
:10061000C0F0E080039AA4EB050E92074FEA9E001B
:1006200000F103810F2F00F2B180002D00F0058151
:1006300007F140020DEB020C019A0CF8200C0CF8AB
:10064000102C049801300490E7E07A285DD84B28FC
:100650000ED8472859D829282DD8252852D054D823
:1006600020287AD02338D0F1000B4BEB000B74E03C
:100670004C382E2849D8DFE800F0704848484848F0
:100680004848484848484B484848484848484859D6
:10069000484B4B595959704B6D487048184B184886
:1006A00048827F4B48484B487F0000204FF0000BAA
:1006B0004FF0040A38E001222A38C0B202FA00F0F2
:1006C00010EA0E0F49D110F0625C2FD110EA020B34
:1006D00043D06046013C5444B4FBFAF40AFB04F4F2
:1006E000002D61D0A3EB050CA4446645FFF46BAF6D
:1006F000002868D1042B47D159F8043B2360042318
:1007000004342AE0019A013A01924FF0000B24E0F0
:1007100011F8010C6C2834D1002011F8023C8346FA
:100720006C2BC5D14FF0080A5346D3E709F10709EE
:1007300029F00709073424F00704F9E802AB35B1C2
:1007400006982044B0423FF63EAFC4E900AB4FF0FC
:10075000000B08344FF0080A534611F8010F002827
:1007600078D0BBF1000F7FF470AF2528F5D14FF0A2
:10077000010B019B013301934FF0040AECE758464B
:1007800094E700208346A5E7082B02D06FF0150000
:100790001BE709F1070929F00709F9E80223C4E971
:1007A000002308230834D8E768B9042B02D109F1E3
:1007B0000409A4E7082BE9D109F1070929F0070981
:1007C00009F10809EDE7059A013A059259F8042B59
:1007D000009210E7039A900720D54FF0010CA4EB8C
:1007E000050E4FEA9E00BEF5007FCFD20F2FCDD869
:1007F000F5B107F140020DEB020E019AC0B20EF8FE
:10080000200C0EF8102CBCF1000F3FF41AAF60F072
:100810007F000EF8200C08F101080137C5F108022D
:100820004FF6DA7E0434069297E74FF0000CDAE7D1
:10083000BCF1000F01D00136EFE702980236002824
:10084000EBD10098CDE90631FFF7FEFDDDE9063179
:100850000644E2E7631BB3F5806F97D245B9A6F172
:100860000804E018B1E600BF48300100146201003E
:10087000029A9B0828602B709DF81030C2B1EB7073
:1008800085F80280B8F1000F05D0002208A8C5F154
:10089000010C97420ED14FF0000AC5F101030DF192
:1008A000200901930DF1300B574512D1601B8CE6E6
:1008B0006B70E5E710F8013B190608D504EB0C0E48
:1008C000764503F07F03FFF47EAE04F8013B01326E
:1008D000DFE7B8F1000F03D099F90020002A17DBF9
:1008E000029BD3B11AF80B2004F8012B0022019BC4
:1008F000981820448642FFF466AE99F800000099EB
:1009000004F8010B2046039212F01DFB039A1444D5
:100910000AF1010A09F10109C6E799F8002055F822
:1009200022300093029B009845F82230FFF78CFD9F
:10093000421CDCE76FF00D0047E600BF2DE9F04FE9
:1009400095B000AFBB61BB6F0446C3F3C0038A46DA
:1009500090F802B07A623B6141B9457800780BEBC0
:1009600080002044554517D8A0EB040AE3787B614A
:10097000BBF1000F02D0BB6FD80716D47B6953BB05
:100980007B6A1BB151462046BA69984755462846AE
:100990005437BD46BDE8F08F461C3046FFF754FD86
:1009A000013030440AF1010ADCE7237862683B62D7
:1009B0009B00FB603B6AFA6104EB83097B6A002BB6
:1009C00040F0FF80C8460026554609EB0B0AD0458B
:1009D00051D1D94413E0BB6F9907D1D523789946FB
:1009E0003B629B00FB60636804EB8909FB617B6AE7
:1009F000002B7AD15546BBF1000F4FD15E46BB6F3D
:100A000013F0050F0CBF4FF0020B4FF0010B7B6989
:100A100009EB430ABB6F03F002037B62D145B6D0FA
:100A200019F8021B19F8013C54F82380AB4B984588
:100A300002D3AB4B984538D33B69002B42D0F869C1
:100A40000DF06DFA00283DD0E8468AB06A46A54B05
:100A50005361FB69C2E906314FF400731384A24B62
:100A600042F8103F00234FF41251A04801F00CFA55
:100A7000023DC546D2E718F8013B54F82300FFF7C2
:100A8000E3FCFB6F01303BB1D7F880309E423EBFA4
:100A9000FB6F23F816000136054498E7BB6F13F08F
:100AA00004061CBF7E6AD944A9E73B6923B1F869F3
:100AB0000DF035FA0028C7D1BB6FDA0705D4A5EBD6
:100AC0000B05ABE77B6A002BA8D04046FFF7BCFCC8
:100AD000FB6F43B1D7F880309E423FBFFA6F431C93
:100AE00022F816300136054498E7BBF1000F6ED0AE
:100AF000BB6F13F004066DD0D846002607F1400006
:100B00005A46494612F01FFA7B69D9445B007B6064
:100B10007B6909EB4303BB60BB6F03F002033B60DF
:100B2000BB684B4558D1B96F6378B86F890748BF28
:100B3000002106EB030258BF4FEA5801C507D2B2A5
:100B400000F19A8010F0040F14BF40460020FB61B2
:100B50006270A070E1702046BA69F9687B6A9847B4
:100B6000051EFFF614AF3B6A41462370FB69BA6964
:100B700063707B6984F802B0E37007F140007B6A20
:100B80009847B0F10008C0F2A480FB68AAEB0B0103
:100B9000C91A7B684846C91ABA697B6A984700280F
:100BA000C0F299804FF0000BA84408EB000507F154
:100BB000300AB34562D30021BA6908467B6A984778
:100BC000E5E65E464FF0000807F1300098E75E4624
:100BD000D84699E7B04697E719F8021B3F4B19F83A
:100BE000015C54F82500984202D33D4B98421DD336
:100BF0003B6923B1F8690DF092F9002890D13B6868
:100C0000FBB908F1280307F1280208F1010003EB02
:100C1000020C07F1500308F1020853FA80F00CF8B7
:100C2000101C5FFA88F800F8105C79E73B692BB17B
:100C3000F8690DF074F900287FF472AFBB6FDB0721
:100C400009D506F1280307F12802711C9E1806F841
:100C5000205CCEB264E7BB6F58077FF561AF08F147
:100C6000280307F1280208F1010103EB020808F844
:100C7000105C5FFA81F853E7002068E71BF80A3040
:100C800054F8239087F82F30FB6FFBB133F81B80AB
:100C90000121BA697B6A07F12F00984700281ADB07
:100CA0000544B8F1000F06D14846FFF7CDFB00F12F
:100CB00001081FFA88F841464846BA697B6A984796
:100CC000002808DB05440BF1010B72E7D7F87C80A4
:100CD000DEE745465BE6054659E600BF48300100C1
:100CE00014620100A63E0100040000016834010006
:100CF000014B1860704700BF7401002080B50546A5
:100D00000E46174698460CF0B1F9034612F092F9D8
:100D10000446DFF81890424649F80030394630461C
:100D2000A84754F8090002F07FFB00BF080000004C
:100D30002DE9F047058B04462807904611D4022977
:100D400005F0070540F0CD8020460DF01BFC78B182
:100D50000138218B042811D8DFE800F0C3106D851D
:100D6000950001290CBF45F0100545F020052583AD
:100D700088F31188BFF36F8FBDE8F08701F0070A91
:100D8000AA4500F0A6800027B9463E46A368002B7E
:100D900000F0BD8041F00801218388F31188BFF382
:100DA0006F8FA168002900F0BB800D68002900F05A
:100DB000B780334652462046D1F80480C047002D04
:100DC00076D02B6829461D46F0E701F007035A1F2D
:100DD000012A1BD8002221F00701062B276889B2BF
:100DE000C4E9002209D13B4603E0628B01326283F1
:100DF0001B68002BF9D141F00201204621830DF040
:100E0000C1FB00287BD041F0200177E0042B0AD100
:100E100021F0070189B2204621830DF0B3FB10B108
:100E200041F020012183218B01F0070AAA4550D00F
:100E30000027B946AAE7236921F0070141F006011E
:100E4000062DD3F8009021832DD1B9F1000F40D0A9
:100E500041F00801218388F31188BFF36F8F20468A
:100E60003949C84729E021F00701236941F004010D
:100E700089B2042DD3F804902183E6D000274FF0E7
:100E8000040A3E4682E721F00701236941F005018B
:100E900089B2052DD3F808902183D6D000274FF0D2
:100EA000050A3E4672E700274FF0060A3E466DE708
:100EB0002B4687E7B9F1000FD1D14FF02003EFF3B4
:100EC000118883F31288BFF36F8F238B23F00803FD
:100ED0002383258BEA062ED525F01003238305F006
:100EE00007056669218B002EBFF66FAF00232768C8
:100EF000C4E9003321F0070141F001012183218B76
:100F00004FF0000901F0070AAA457FF43FAF002F18
:100F10009BD041F00801218388F31188BFF36F8FC4
:100F2000002FC7D03D6839463346524620460DF063
:100F300055FB2F46F4E7AB067FF51AAF25F02003EB
:100F4000238305F00705FFE609E60000044608B51F
:100F50004FF02002EFF3118382F31288BFF36F8FFB
:100F600009F030FD204602F015FA03480DF050F864
:100F700001F0F6FCFCE700BF5A3F010000F01F0241
:100F800040090DD001280DD1094B03EB8203D3F8A2
:100F9000002222F0E04242EA0171C3F800127047D9
:100FA000044BF2E70023803253F82230FFDE00BF0B
:100FB000002884500025845038B50124134B144D6B
:100FC000C3F8004502230321C5F8D0360020FFF7FF
:100FD000D5FF20460321FFF7D1FFC5F8044721467E
:100FE000C5F804492920C5F8004BFFF7C7FF214683
:100FF0002820FFF7C3FF21462B20FFF7BFFF214624
:101000002A20FFF7BBFF002038BD00BF00100050B2
:101010000040005007B50DF1070010F0E3FA114B46
:1010200098421CD14FF480620F4B1049C3F8B82589
:101030004FF40062C3F83C259DF8070010F0BEFA9B
:101040000B499DF8070010F0B4FA01209DF8073015
:10105000984009F0A5FE002003B05DF804FB6FF096
:101060000B00F9E70000AD0B00A002502CA00250CD
:1010700028A10250052370B5144D154E2C7801346B
:10108000B4FBF3F303EB8303E41A10F058FA114AAC
:10109000137823B156F82430C01A072814D94FF01A
:1010A0005023D3F8141141B10021C3F81411D3F81F
:1010B00014312C700CB9012313702C7810F03FFA06
:1010C00046F82400012070BD0020FCE79520002098
:1010D000A81500209420002048B1054B054A1B6844
:1010E000B3FBF2F35843044B43F001031847704736
:1010F000E002002040420F009035010070B5049CD2
:10110000C4F30726304609F05FFAE5B201462846E7
:1011100010F060FA00220120074BA40B04F0FC043D
:101120001A51A84009F042FE304609F001FC284659
:10113000BDE8704009F0AEBE80A00250F0B583B0AB
:1011400000AF381D09F0A0FE284B98424BD109F0A2
:10115000D1FB041E13DA387909F09CFE6D4688B085
:101160006A46234BC2E90534032342F8103F0023AB
:101170004FF4C2511F4800F087FEAD462FE040F605
:1011800007031D4D7C71AE68FB8074687B6814B9E1
:101190006FF05704E2E708212846184AA047041ECA
:1011A000DCDB3369002BF3D0012208212846984765
:1011B000041ED3DB01203B79984009F0F1FD7879DA
:1011C0003D79FE7910F0A6F90146284610F0F6F9AF
:1011D0000B4BB60045F000459D51002CBED120467A
:1011E0000C37BD46F0BD6FF01204B7E70000AD0B41
:1011F000873F0100E834010058310100051200006A
:1012000080A102502DE9F341144683681B690BB19C
:1012100000229847C4F30726304609F0DDF9054659
:10122000304610F077F94FF00008E7B20146384633
:1012300010F0D4F9104B220E920043F80280304691
:1012400009F0C2F90D4A4FEA943C0CF0FC0C47F04F
:10125000004342F80C300146384610F0AAF9084B1A
:1012600005F132020093304643460194520010F0DB
:101270005AF902B0BDE8F08180A1025080A002506E
:10128000FD10000009F06EBC7FB570B9124B134819
:10129000059302234FF4825104AA04930DF0BEFC7F
:1012A0006FF0150007B05DF804FB836863B90C4B61
:1012B0000A48059302234FF4825104AA04930DF0C7
:1012C000ADFC6FF00400EDE71B681BB107B05DF8E3
:1012D00004EB18471846E5E7B83F010090340100D9
:1012E000C93F010030B587B008B101B16AB9134BED
:1012F0001348059302234FF4825104AA04930DF07E
:101300008DFC6FF0150007B030BD84680CB1E56846
:1013100065B90C4B0A48059302234FF4825104AA85
:1013200004930DF07BFC6FF00400ECE741F8040B34
:10133000E36807B0BDE83040184700BFE73F010051
:1013400090340100C93F010030B51346044687B010
:1013500068B91A4B1A48059302234FF4825104AA24
:1013600004930DF05BFC6FF0150007B030BD006812
:1013700060B9144B1248059302234FF4825104AA1A
:1013800004930DF04BFC6FF00100EEE782680AB1A8
:10139000956865B90C4B0A48059302234FF48251B6
:1013A00004AA04930DF03AFC6FF00400DDE70A464E
:1013B000AC46616807B0BDE83040604713400100AB
:1013C0009034010024400100C93F01000020014B7E
:1013D000186070470000072030B50C460E4985B0F4
:1013E0000291D0F8AC110546CDE9003100F1E001E1
:1013F0004FF0FF3320460AF06FFB50B9012384F809
:101400006430D5F8A83123B1204605B0BDE830409E
:10141000184705B030BD00BF13ED000038B50C46CD
:10142000114605460DF077FC034638B928460449B5
:101430000DF071FC03460020236038BD0120FBE75E
:10144000FB5F01002DE9F04F0123814605694668E5
:1014500085B005F55977D7E8EF2F002A03D1C7E803
:10146000E13F0029F7D10CBF1A46002240F0B180BD
:10147000B368B16A05F5E4781C1F10460DF0D0FC86
:1014800084425FD8013A00F09E80B2FA82F24FF0B7
:101490000044D44072682046073222F00302C5F8A7
:1014A0006022B16A0DF0BCFCC5F86402B36A404624
:1014B0006343033323F0030302EB4302230103EBF3
:1014C0004403093323F0030303EBC403C5F8582294
:1014D0001A440832C5F854227368C5F85C42C5F84E
:1014E00050323D4BC5E9A963316800F0BDF90446AF
:1014F00030BBD9F804A0D9F81090DAE9073409F51F
:10150000307B012B584608BF103C11F0A8F900238E
:10151000DAF8240031494FF4806201EB8021009316
:10152000584623460BF0ECF909F52C702C4911F0C4
:1015300058F9DAF8140083685C682CB96FF0570426
:10154000002139E0013298E74B46264ADAF81810B4
:10155000A04704460028F3D1DAF8140083681B6919
:10156000002BEBD00122DAF8181098470446002827
:10157000E6D11D4B2846C5F8A8311C4BC5F8AC3147
:101580001B4B0393D5F810320293D5F80832CDE9FE
:101590000083D5F86832B26AD5F8601300F02CF9F0
:1015A00004460028CCD105F1E0000AF043FB0028F6
:1015B000C5F868030ADB022138460DF0E1FB20463E
:1015C00005B0BDE8F08F6FF00B04B9E76FF01504BC
:1015D000B6E76FF07704F2E769ED000040210020E4
:1015E0004FED000043ED0000F5150000F7EE0000A0
:1015F000B1ED000013B5044640B100230122CDE94E
:101600000032074BD0E909120AF01AFAA36E1B68E0
:1016100023B1E06E02B0BDE81040184702B010BD23
:10162000FB5F010013B504460846216901F55971B5
:10163000D1E8AF1F022910D193B1A0B10121CDE9AA
:1016400000311346D0E909120AF0FAF9074B984223
:1016500008BF6FF00B0002B010BD6FF00F00FAE78B
:101660006FF04C00F7E76FF00100F4E72EF8FFFF92
:101670002DE9F74388461546066906F55973D3E800
:10168000AF3F022B5FD1136823B96FF0150003B091
:10169000BDE8F0831B78002BF7D0D6F86093B9F142
:1016A000000F33D106F5D8774FF0FF324FF0FF33FC
:1016B00038460AF0B9FE30462A6801A9FFF7AEFEA7
:1016C000019C1CB938460DF059FBDEE705F1080313
:1016D000A3666B6984F86490E366E46360B138469E
:1016E0000DF04CFB21463046236E2A68FFF774FE4E
:1016F0000020C8F80040CAE72022296804F1400011
:1017000011F058FC38460DF039FBF1E730460F492F
:101710000DF001FB04460028B7D005F108038366ED
:101720006B69C063C366002380F864302022296897
:10173000403011F03FFC22460121304600F03EF8D7
:101740000028D5D0A1E76FF00F00A0E7FB5F0100F4
:101750002DE9F04F05460E4690460027D0F8B0A080
:1017600085B0AAF5AE7421463046FEF75BFEE0B9BF
:10177000114BA4F1400B0293DAF810303246CDE958
:10178000008329464FF0FF335846AAF5CE790AF078
:10179000A3F960B97023012203FB079383F8642047
:1017A000DAF80C300BB158469847703417B105B0D1
:1017B000BDE8F08F0127D6E759EF00001FB51446AA
:1017C00090B18AB1012912D10A4B00F1E0010293D4
:1017D000D0F8AC31403201934FF0FF3320460093F4
:1017E0000AF07AF904B010BD6FF01500FAE7002096
:1017F000F8E700BF59EF00002DE9F04387B00E462F
:10180000DDE90E811446DDE910251F4630B329B30A
:10181000DFF850C000F1E009002D08BF65469EB911
:10182000CDE9034400F5CE742046059610F0BCFDCA
:1018300003ABCDE900432A463B46414648460AF001
:101840001FFA07B0BDE8F083002241460E924846D9
:101850002A4607B0BDE8F0430AF03CBB6FF0150024
:10186000EFE700BF51170000F0B50E46044689B0FF
:1018700000286FD001230246C3630023D0F89810DC
:10188000364F403040F80C7C42F8301FCDE9013330
:101890004FF0FF330093C36D10F046F8304A06ABAB
:1018A00092E8030083E80300184609F0DBFF0546D1
:1018B000D8B904F1340009F0B7FF0546A8B9394694
:1018C000284805AA10F00CF8054670B9059B9A68DF
:1018D00072B10C33D4F89400C4F8A0300DF06DFB55
:1018E000C4F8D40030B96FF00B05284609B0F0BD3C
:1018F0000346EFE7D4F894000DF05FFBC4F8D8007E
:101900000028F0D0D4F88C30D4F8A010C4F8A83057
:101910000423C4F8AC30C4F8C4300223A362124BD1
:10192000B4F89420D4F8D470C4F8B810C4F8D01027
:10193000D4F89010236204F1A403A4F8B020C4F8F2
:10194000A470C4F8C010A4F8C820C4F8BC00A661F4
:10195000E362CAE76FF01505C7E700BF4E4001001C
:101960001035010058400100DC3501002DE9F04739
:10197000044607464FF00109DFF8508014B9384695
:10198000BDE8F08794FAA4F5B5FA85F509FA05F3F0
:101990002E0108EB05156FEA030A24EA03042B7BEA
:1019A000002BEBD058F806301B694BB946447368DE
:1019B00004222846196807EA0A0700F051FADDE711
:1019C000284698470028D9D1F0E700BFF834010035
:1019D00030B5002289B00F490F4811F019F90022E3
:1019E00000230024CDE906230E230C4DCDE903345A
:1019F0004FF440722846CDE90144094B094900944F
:101A00000AF08AFC0849284610F0AFFD204609B0CC
:101A100030BD00BF2D1A0000080F0020800A0020F2
:101A2000051D0000402500206040010001480AF02B
:101A3000E5BD00BF900500202DE9F04780461F4816
:101A40000F460DF00CFB0646002830D00025284636
:101A5000BDE8F087237B73B12368DB680BB12046B8
:101A6000984723681B69D3B9636804222046196824
:101A700000F0F6F9013610344C45EBD3B8F1000F05
:101A8000E5D0002DE2D02846FFF770FF0546002F75
:101A9000F7D000214FF4A4700BF0CEFAF1E7204606
:101AA00098470028E0D00AFA06F31D43E2E705460E
:101AB0004FF0010A024CDFF80C90DDE7CC15002056
:101AC000F834010008350100014B53F8200070473D
:101AD0001C36010008B5034608462BB1044A1360C2
:101AE00000F074FC002008BD6FF01500FBE700BF9C
:101AF000A401002010B5044C237813B903480AF060
:101B00007DFD0123237010BD96200020900500204C
:101B100010B5044606480DF0A2FA3CB1054BD3E8D7
:101B2000EF1F0139C3E8E21F002AF8D110BD00BF42
:101B3000C4150020C815002000200146034BD3E83F
:101B4000EF0FC3E8E21F002AF9D17047C415002047
:101B500070B5FFF7F1FF0546074C084EB44200D3BD
:101B600070BD63685B792BB123685B6813B129464C
:101B7000204698471034F1E7F83401000835010099
:101B800010B5044C044920460CF0EDFE034B1C60DC
:101B900010BD00BF7C04002008360100BC150020E9
:101BA00008B50023074A4FF400411370064A07485E
:101BB0001360074A1360FFF78DFFBDE80840FFF789
:101BC000DFBF00BF97200020C41500205BF000009D
:101BD000C815002001460022002301480CF0E4BE95
:101BE0007C04002001480CF07DBF00BF7C04002075
:101BF000024B014618680CF0C7BF00BFBC1500209F
:101C000001480CF0FDBF00BF7C04002070B5264BDE
:101C10001878002847D0FFF7E5FF054670B1234B41
:101C2000D3E8EF1F0139C3E8E21F002AF8D1204CA6
:101C3000204EB4422DD32846FFF7DAFF1E4B1F4C2F
:101C40001B68002B19DD10F09CFF4FF47A72A0FB8B
:101C5000020302FB0131C30B43EA4143D4E90020F4
:101C60009B1A40F2E9324FEAD13161EB0001934215
:101C700071F1000101D3FFF76BFFD4E9003213F5D6
:101C80007A7342F10002C4E90032BDE87040FFF708
:101C9000B7BF63685B7923B12368294620461B6878
:101CA00098471034C5E770BD96200020C815002065
:101CB000F834010008350100C4150020000F002091
:101CC00070B50D4D297861B90120FFF7B5FE0B4CB9
:101CD0000B4EB44206D3FFF799FF0028FBD1012336
:101CE0002B7070BD63685B791BB1236820469B68CD
:101CF00098471034EDE700BF97200020F83401002A
:101D00000835010000212DE9F0470846FFF794FE51
:101D1000044658B340F267684FF0000911F08AF9A1
:101D20001B4B1C4A1B58136033B11B4B1B68092B00
:101D300002DD1A480AF062FC0025194FDFF85CA0AA
:101D400044B12046FFF712FE044618B94FF0FF38A1
:101D50004FF0FF39FFF75AFF064628B9B5B942469A
:101D60004B4650460AF070FC3546E9E74FF0FF3825
:101D70004FF0FF39D2E72B689B691BB10022284640
:101D8000114698471035BD42F5D3E8E7054DFAE70F
:101D900008000000C0150020C81500209005002094
:101DA00008350100F834010013B518480DF057F953
:101DB000174B1B787BB14FF02003EFF3118483F3B3
:101DC0001288BFF36F8FFFF721FF84F31188BFF3F1
:101DD0006F8F02B010BD0F4B1B68002BF9D050B9AC
:101DE000002200230C48CDE900234FF400420023D9
:101DF0000BF080FBEDE70928EBD1074810F014FF4A
:101E0000064802B0BDE810400AF0F8BBC815002033
:101E100097200020C0150020080F0020900500200A
:101E200010B5064B04461B6898472146A06004483D
:101E30000CF038FEBDE81040FFF7B6BFA40100204B
:101E40007C040020044A054B9B1AB1EBD30F34BF2E
:101E500052F8310000207047F0330100F8340100DF
:101E6000084B10B4C31A44681B1101332371436833
:101E70009A7101224368196043685A7110BCFFF7D8
:101E800039BE00BFF83401002DE9F04F8FB0C1F327
:101E90004A2804AF0D469146B8607B600C0DB8F13E
:101EA000000F63D000264FF0040B4FF00A0A07F131
:101EB0001403C7F80C80C7E907667E620193CDF86A
:101EC00008B0CDF800A007F11C0332464846F96877
:101ED000FEF734FDB0F5006F03461CD36C468AB0A4
:101EE000D9F8041004AB26481A46C3E9050140F2AC
:101EF000FF71D9614FF400711984224B42F8103FF1
:101F00004FF4125133462048FFF7BEFFA5462C3749
:101F1000BD46BDE8F08FC0F30A0804F1170018446D
:101F200020F0070080083B60FFF754FE68F353255C
:101F3000044690B13B6800F11001C7E9083607F18B
:101F40001403F961CDE900A3CDF808B048460F4A63
:101F5000F96807F11C03FEF7F1FC68F353252A46E4
:101F600020467B68B9680DF0ACF8D0E704F11700A3
:101F700020F007008008FFF72DFE0446EDE700BFC4
:101F800075400100040000019834010097F0000042
:101F90002DE9F04F87B00446DDE9105ADDE91269FA
:101FA0000F4693469846A6B310213346524600206A
:101FB000CDF80090CDF81490FEF7EEFA014605F149
:101FC00017000844144B04F007040BF0070BE4005F
:101FD00020F0070003EA412344EA8B1480081C43E5
:101FE0000391FFF7F7FD44EA0554054640B13EB1C1
:101FF000334652460399CDF800901030FEF7CCFAE4
:10200000434622463946284607B0BDE8F04F0DF05A
:1020100058B83146D3E700BF00FE0F000EB403B539
:1020200003AB53F8042B01460448019301F0E4FB91
:1020300002B05DF804EB03B0704700BF29F1000067
:10204000CA0605D48B064CBF02490349FFF7E6BF19
:10205000704700BFFA5F0100F95F01002DE9F04F02
:1020600089B09A46DDE914739DF84CB00593169B30
:1020700004460D46179E06920493BBF1000F00F034
:10208000858006F0080307930DF003F806F00209B7
:102090000246002849D020468549FFF7BFFF804609
:1020A000B9F1000F08D016F0440F40D12A4620465F
:1020B0008049FFF7B3FF804406F0010353B17E4B24
:1020C000204653F82B207D4B7D49002A08BF1A4635
:1020D000FFF7A4FF06F00803002B54D0794B2046ED
:1020E00053F82B207849FFF799FF0546069B2BB143
:1020F0001A4620467549FFF791FF0544BAF1000FD3
:1021000005D0524620467249FFF788FF05444544F2
:10211000002F49D1049B002B4FD1F30700F1C18060
:1021200031462046FFF78CFFB5E08046B8E7694BA3
:1021300018680028BFD0684B4FF47A791B684FF4B9
:102140006161B5FBF3F5B5FBF0F300FB135509FB3B
:1021500005F5B3FBF1F2B5FBF0FE4FF03C0C01FBD3
:10216000123100FB1E55B1FBFCF309FB05F5B5FB75
:10217000F0F50CFB131120460091CDE901E557491C
:10218000FFF74CFF97E706F00805AFE7BAF1010F3C
:1021900006D1002F65D1049B002B7CD000250CE0DC
:1021A000002FF8D04E485DE04E483B4622464E494F
:1021B0000BF084FE049B002B69D0DFF83081DFF840
:1021C0003091049F3146102F204628BF10274FF032
:1021D000000AFFF735FF554546DC059B494620467A
:1021E0001A78FFF71BFF4FF0010A1AF0070F03D10F
:1021F00041462046FFF712FF57453CD9059B49460B
:10220000204613F80A20FFF709FF0AF1010ABAF184
:10221000100FEAD14FF0000A20463649FFF7FEFEC4
:102220005246059B20469A5C334B995C11F0970F00
:1022300008BF2E223149FFF7F1FE0AF1010ABAF177
:10224000100F1DD01AF0070F03D141462046FFF7AB
:10225000E5FE57455246E4D841462046FFF7DEFEEC
:10226000EBE720485D46A0E741462046FFF7D6FE53
:102270000AF1010AAFE720462149FFF7CFFEC4E784
:10228000059B3B440593049BDB1B049399D1BBF155
:10229000000F7FF442AF204609B0BDE8F04F0CF0CC
:1022A00036BF2046054A0649FFF7B8FE38E700BFAB
:1022B000B9400100BD4001002C360100B4400100CE
:1022C0001A4D010040360100E2400100E8400100E3
:1022D000EC400100D4150020D0150020C6400100BC
:1022E00057F1000029F10000F9370000C55F010037
:1022F000F1400100F740010002610100F9400100D6
:10230000C35F01002DE9F0410F884B6805460C467C
:1023100090468E6886B0C7F382175BB1144A9B1A49
:1023200043F3CF01002920DB2078C0F3C200FFF780
:1023300089FD0346214651F8102B6088C2F34A22DA
:10234000002A01EB020408BF00210022C0F30B1099
:10235000CDE90408CDE902142846314601970092E0
:10236000FFF77CFE06B0BDE8F0810023E2E700BF86
:10237000F033010042F20F7373B58B4228BF0B4656
:1023800005680446052168460D4A0BF025FB064604
:10239000636828460B225B680A490CF0ABFE636851
:1023A0003246694628465B680CF0A4FE63681B222F
:1023B00028465B6804490CF09DFE02B070BD00BF6A
:1023C000B448010018410100FC4001000021012334
:1023D000064A904206D8064A01B901231360054B0C
:1023E00018607047012140085B00F2E740420F008F
:1023F000D0150020D4150020014B00201960704733
:10240000EC1500200122024B02481A700CF07FBE2E
:1024100099200020703601000148FFF7ABBF00BFD4
:102420007036010010B5064B0C461868FFF74CFBE0
:102430002146BDE8104003460F220248184700BF5E
:10244000EC15002070360100F8B50D460446064F25
:102450004618B44201D12846F8BD14F8011BBB68E8
:1024600001485B689847F4E7443101000449431E82
:102470000F3013F8012F8A5C83421A70F9D170472C
:102480005E410100F0B50746264E8DB001AD0C4609
:102490000FCE0FC50FCE0FC596E8070085E80700E1
:1024A0003846002F39D0002C39D0381F024621463B
:1024B00010344B780D781B0443EA0563CD78043162
:1024C0002B4311F8025C8C4243EA052342F8043F97
:1024D000EFD10421144C8A07036916D1C3F30742D4
:1024E000A55C1A0EA25C42EA0562C3F30725655D8E
:1024F000DBB2E35C42EA054242EA032221F0030335
:1025000030336B4453F82C3C534050F8042F0131C6
:1025100053402C290361DED101200DB0F0BD2046CF
:10252000FBE700BF183501005E4101002DE9F04FC7
:10253000002703689DB002934368DFF8BCA10393B2
:102540008368DDE902460493C36805930369DDE906
:1025500004BE0693436907938369DDE9062C08935B
:10256000C36998460993089B0093CD590CAB2DBACB
:102570005AF8049BDD514FEAF223A94483EAB213CF
:10258000009D83EA72634B4425EA020502EA0C09C6
:1025900085EA09052B44434486EA0B054FEA743863
:1025A00088EAB408254006EA0B0985EA090588EAA5
:1025B000B4580437A844402F03EB0E054344DE46CD
:1025C000DDF8008040F088804FF0100A4B490A91F6
:1025D00051460AF1010A0DF1700E0AF00F070EEBD9
:1025E000870757F8407C01F00F094FEAB748019779
:1025F00088EAF71801F10E0707F00F070EEB8707BF
:1026000057F8407C09314FEAF74E8EEA774ECDF805
:102610002CE001F00F010DF1700E0EEB81010EEBBD
:10262000890959F840EC51F8401CBAF1400F714447
:10263000DDF804E088EADE08DDF82CE041448EEAAB
:10264000972E714405EA02084FEAF52E2CEA050799
:1026500087EA08078EEAB51EDDF828808EEA756ED7
:10266000774458F804EF49F8401C77440F44009928
:102670004FEA733E394484EA0607CDF828808EEA93
:10268000B30E07EA030704EA06088EEAB35E87EA98
:10269000080777440F4401EB0B0ECDF800C0B3469A
:1026A00022D102993944016003991944049B416085
:1026B00023448360059B3344C360069B73440361DA
:1026C000079B2B444361089B13448361099B63442C
:1026D000C3611DB0BDE8F08FB346CDF800C02646FB
:1026E00094461C462A4640E7944626462A461C46FF
:1026F00075463B466CE700BF80360100BC360100E2
:1027000010B50446C8B1702200210CF040FD0B4BFF
:102710000B4A0C49C4E900230B4B0C48C4E90213D3
:102720000B4BC4E9040301200A4BA36103F174536A
:10273000A3F52303A3F69243E36110BD85AE67BB07
:1027400067E6096A72F36E3C3AF54FA57F520E5167
:102750008C68059BABD9831F01480AF0FBBF00BF03
:102760008037010038B5044618B90F4B0F485B6835
:1027700098476168B1F5683F10D0B1F5680F0DD08A
:102780000B4DA9420AD011F46861206807D00146B8
:1027900008480FF0BEFE00232360656038BD142298
:1027A00010F0DEFBF9E700BFA00300205E4201004D
:1027B0002C5F5CA9F01A002008B560B34368B3F53C
:1027C000683F0ED0B3F5680F18D0144A934220D05A
:1027D00000684FF0FF324FF0FF3309F025FE58B18B
:1027E00015E001220368D3E8EF1F002903D1C3E8F5
:1027F000E02F0028F7D10AD1002008BD0368084A5D
:102800001B7803F5807352F82330002BF4D0054871
:10281000F3E70548F1E76FF4E040EEE72C5F5CA9D1
:1028200000000350E98FFFFFEA8FFFFF08B520B3D8
:102830004368B3F5683F09D0B3F5680F13D0114A68
:1028400093421DD0006809F069FE14E0002203687D
:10285000D3E8EF1F012903D1C3E8E02F0028F7D107
:1028600009D0094808BD00210368084A1B7803F510
:10287000807342F823100020F4E76FF4E040F1E7A2
:102880000348EFE72C5F5CA9E98FFFFF00000350CE
:10289000EA8FFFFF10B5044618B91D4B1D485B6851
:1028A00098476368B3F5683F2FD0B3F5680F2CD015
:1028B000194A934219D1236803BB4FF0FF324FF0FE
:1028C000FF332146154809F0BBFC08B923681BB942
:1028D0000F4B13485B68984714220021206810F0C2
:1028E0003FFB4FF46863636008E0B3F5683F0DD8C1
:1028F0003A2B03D040F6BA629342DED120680FF043
:102900004FFE636843F03A03636010BD054AF3E786
:10291000A00300205E4201002C5F5CA9F01A002099
:10292000844201003A00003A08B5064940231422C7
:1029300005480FF0E0FDBDE80840044904480AF0EE
:102940007BBF00BFF0150020F01A0020883701007F
:102950009C370100014910220A60704710ED00E029
:1029600072B6404080F31188BFF36F8F01B5FEF758
:1029700081FB002802D0BFF34F8F30BFBDE801407C
:1029800062B6BFF36F8F704772B6494081F311880A
:1029900001B5FEF76FFB002802D0BFF34F8F20BFB9
:1029A000BDE8014080F3118862B670472DE9F04719
:1029B00081460C4600AF00294CD0D1E900126E468A
:1029C0008AB0A3686D464FF0050AA8462548C5E9B8
:1029D0000723C5E9050148F810AF002342464FF42C
:1029E00021512148FFF750FAD4E90312B546636933
:1029F000AD461E48C5E90723C5E90501C5F810A085
:102A0000002342464FF421511748FFF73DFAB546DF
:102A100088B0E3696D464FF0030AA846144AC5E939
:102A2000052348F810AF002342464FF4C2510E4828
:102A3000FFF72AFAB546A369AD460E4AC5F810A0BD
:102A4000C5E90523002342464FF4C2510648FFF76B
:102A50001BFAB5462146484609F052FABD46BDE884
:102A6000F08700BFB1420100D8340100E04201000C
:102A70000F4301001E43010040B2002807DB012381
:102A80004109034A00F01F00834042F8213070479B
:102A900000E100E040B200280CDB012206494309B6
:102AA00000F01F008240203341F82320BFF34F8FF6
:102AB000BFF36F8F704700BF00E100E0054B420994
:102AC00053F82220012300F01F0003FA00F0104009
:102AD000704700BF00E100E040B2002801F10101B1
:102AE000ACBF00F16040064B4FEA4111C9B2ABBF29
:102AF00000F5614000F00F0080F800131954704792
:102B000014ED00E030BFFFF7FDBF00BF0B4A08B572
:102B10000B4B22F07F029A60BFF34F8FBFF36F8F92
:102B2000D3F8882022F47002C3F8882009F0A8FAAC
:102B30000AF014FB00F0F2FB09F0ECFA00000000D0
:102B400000ED00E0094A0A49936809689867D96767
:102B500008494B6843F080534B60002383F311888E
:102B6000BFF36F8F9368D86F704700BF641E00205B
:102B7000B43C010000ED00E016498A684FF03000D7
:102B80001044EFF3098C80E8F01F202080F31288B6
:102B9000BFF36F8F104F4FF000664A698A603E6046
:102BA0004FF07404141920680C4C2060906F0023BF
:102BB000936780F3118802F1300090E8F01F8CF3E6
:102BC000098802F1000004B50CF03BFFBDE80440A9
:102BD00070470000641E002004ED00E00C1B002084
:102BE0001EF0040F0CBFEFF30880EFF3098081693A
:102BF00011F8021C0229FFD001B50CF013FF01BD32
:102C000042F8203C009B0B4942F81C3C019B21F000
:102C1000010142F8183C029B42F8081C42F8143C9F
:102C20004FF0807342F8043C0023203A026583672A
:102C3000704700BFFD0C00000A4B446F98600A4BC0
:102C40001C60436E83F30B88104681F309880021D2
:102C500063B681F31188BFF36F8F00220023FEF764
:102C60004DF800BF641E00200C1B002001B5EFF3DF
:102C70000580A0F110004FEAC0000449014409C9D1
:102C80009847BDE80140024908470000943101001F
:102C9000F12C0000114B124A2DE9F041D518013DED
:102CA000B5FBF3F5DFF83C805D430F4B074608EBBF
:102CB0000304013CB4FBF3F403FB04540E1B304645
:102CC0000A4910F040F9701942460021083E10F000
:102CD00047F97E6704F10800BDE8F08101000000BB
:102CE000000000000400000004000000083501009E
:102CF000044B99685869884203D003494FF08052C9
:102D00000A607047641E002004ED00E02DE9F041E8
:102D100086B006460D4600AF0224444B4FF4825164
:102D20007B6143483C6107F110020CF08EFE414B81
:102D30009B6ADB0678D5404B3D484FF48251C7E98A
:102D4000044307F110020CF080FE1120394B9B6AFE
:102D50001C070BD5394B36487B6102234FF4825157
:102D60003B6107F110020CF070FE1220314CA36A97
:102D7000990723D5E846324B07F110027B61022305
:102D80004FF482513B612A480CF05FFE636BA26AEC
:102D9000120612D588B06A462A492548C2E90513A9
:102DA00003234FF4C25142F8103F0CF04EFEC546CB
:102DB0001EB1A36A23F08003A36213201D4B9B6AFC
:102DC000DE070BD5204B1A487B6102234FF482515A
:102DD0003B6107F110020CF038FE1420154B9B6A82
:102DE0009C060BD5194B12487B6102234FF482518C
:102DF0003B6107F110020CF028FE15200D4B18372F
:102E00009A6AD10658BF9A6A9A6A920642BF5A6A6B
:102E100022F400525A629A6A42F0FF029A62002338
:102E20002B70BD46BDE8F08110208FE74C430100B8
:102E3000D834010000ED00E0624301009543010039
:102E4000A8430100C0430100D6430100F54301003F
:102E50002DE9F04186B006460D4600AF0224474BEF
:102E60004FF482517B6146483C6107F110020CF03F
:102E7000ECFD444B9B6AD9046DD5434B40484FF45D
:102E80008251C7E9044307F110020CF0DEFD172060
:102E90003C4B9B6A1A050BD53C4B39487B6102239E
:102EA0004FF482513B6107F110020CF0CEFD182067
:102EB000344CA36A9B0523D5E846354B30487B61EB
:102EC000022307F110023B614FF482510CF0BDFD6B
:102ED000A36BA26A100412D588B06A462D4928480F
:102EE000C2E9051303234FF4C25142F8103F0CF01E
:102EF000ACFDC5461EB1A36A23F40043A3621920AA
:102F0000204B9B6A59050BD5234B1D487B6102233F
:102F10004FF482513B6107F110020CF096FD1A202C
:102F2000184B9A6AD20518D51C4B15487B610223B1
:102F30004FF482513B6107F110020CF086FD1B201B
:102F4000104A1837936A43F47F43936200232B702F
:102F5000BD46BDE8F08116209AE79B6A9B04EFD539
:102F60000F4B07487B6102234FF482513B6107F10D
:102F700010020CF06AFD1C20E2E700BF24440100AF
:102F8000D834010000ED00E03A440100954301000F
:102F90004B44010064440100794401009444010061
:102FA000F543010010B586B002243E4B4FF4825128
:102FB0003D4804AA059304940CF047FD3B4B9B6AE3
:102FC00099016CD53A4B38484FF4825104AACDE9A7
:102FD00004430CF03AFD1E20344B9B6ADA010AD5FB
:102FE000344B3148059302234FF4825104AA0493D1
:102FF0000CF02BFD1F202D4B9B6ADB020AD502240F
:103000002D4B29484FF4825104AA059304940CF0E7
:103010001CFD2046254B9B6A1C030AD5274B2248E2
:10302000059302234FF4825104AA04930CF00DFD82
:1030300021201E4B9B6A59030AD5214B1A48059340
:1030400002234FF4825104AA04930CF0FEFC2220C8
:10305000164B9B6A9A030AD51A4B13480593022311
:103060004FF4825104AA04930CF0EFFC23200F4B81
:103070009B6ADB030AD5144B0B48059302234FF4DC
:10308000825104AA04930CF0E0FC2420074A936ABE
:103090006FEA03436FEA1343936206B010BD1D202D
:1030A0009AE700BFAC440100D834010000ED00E015
:1030B000C4440100D7440100F14401001B45010054
:1030C000394501005E450100784501002DE9F043D6
:1030D0008BB07A4B0446D3F80480002600AFC8F3C7
:1030E000080586F31188BFF36F8F02F07F43B3F1B9
:1030F0007F4F0ED102F00C03082B19D1704B4FF407
:103100008251FB6102236F48BB6107F118020CF08A
:103110009CFC002634460023FB71EB1E092B00F2B9
:10312000AC80DFE803F00A9FA29BAAAAAAAAAAA5DC
:1031300010074CBF0C460126EDE7E9464FF00208A8
:10314000614B07F11802FB614FF482515D48C7F8EB
:1031500018800CF07AFC0023584DFB71EB6A9A073B
:103160000BD55A4BC7E906834FF48251554807F1F6
:1031700018020CF06AFC002341E0EB6A002B01DA34
:10318000534BEFE7EB6A5B00F5D5524B07F11802A2
:10319000C7E906834FF482514A480CF056FC6B692C
:1031A000A26943F480736B61BFF34F8FBFF36F8FDE
:1031B0006B6932F8022C23F480736B61BFF34F8F7D
:1031C000BFF36F8F4DF602739A4208D0AB6ADBB241
:1031D000002B36D00120F91DFFF798FD40E088B0A4
:1031E00023686A463C493748C2E9051303234FF474
:1031F000C25142F8103F0CF028FCCD462368FA7902
:10320000DAB907F1080504F1200C2A462068616844
:10321000083403C264451546F7D17A6A002E47D0B8
:10322000C2F3080121B96FEA52226FEA42227A62A0
:10323000184607F10801FFF7B9FB2C37BD46BDE87A
:10324000F083AB6A13F47F4F04D00120F91DFFF720
:10325000FFFD05E0AB6AB3F5803F8CD3FFF7A2FE1C
:103260000346CCE70020F91DB6E70020F91DEEE784
:103270001A4BFB610223BB6176E7194A18F4F87F09
:10328000E8468AB0174B18BF13466A461649103DE8
:10329000C2E905134FF400731384144BD5614FF446
:1032A0001151084842F8103F0CF0CFFBC54662E7C9
:1032B00022F4FF7222F00102B9E700BF00ED00E046
:1032C000D1450100D8340100FC450100134601003E
:1032D0003446010042460100614601007D4601007E
:1032E000B8450100A3450100A1460100040000010A
:1032F000044B5A6942F010025A615A6942F48062E2
:103300005A61704700ED00E0EFF30880EFF30981A8
:1033100001B57246FFF7DAFE01BD00BF0023202190
:103320000348C2180133452B82F80013F9D17047C6
:1033300000E100E0002080F31488BFF36F8F0020CD
:1033400080F30A8880F30B88FDF79CFF00200E496C
:103350000860BFF34F8F0D4880F3088800F03EF8F7
:10336000202080F311880A484FF40061401880F350
:103370000988EFF314800221084380F31488BFF317
:103380006F8FFFF7C3FB000094ED00E0F0470020D3
:10339000B0360020BFF34F8F0549064BCA6802F4D0
:1033A000E0621343CB60BFF34F8F00BFFDE700BF68
:1033B00000ED00E00400FA05002318460649D1F8A4
:1033C0009020C2F30722934200DB7047C1F8983087
:1033D000C1F8A0000133F6E700ED00E010B572B6C9
:1033E000002484F31388FFF7E7FF23464FF0FF30F4
:1033F0000C4A03F120010133102B42F82100F8D1CF
:1034000000234FF0FF30074A03F160010133102B16
:1034100042F82100F8D162B6BFF34F8FBFF36F8F30
:1034200010BD00BF00E100E0084B9B6883420BD158
:10343000EFF3058343B1064B5A6842F080525A605D
:103440005A6A22F400425A6209F016BE641E002035
:1034500000ED00E01FB5094C094A23460121094847
:1034600000F02AF900230393074B0121E41A01A875
:103470000193029400F02AF904B010BD0000072067
:1034800000000020AC3701001007002010B50C7AB6
:103490000B6804F01F0223F01F031A43CB68640972
:1034A00023F01F03054943EA440343F00103C1F835
:1034B0009800C1F89C20C1F8A03010BD00ED00E0DC
:1034C00080B500AF88B06A46074BC2E905300323D8
:1034D00042F8103F00234FF4C2510448FEF7D4FCD9
:1034E0006FF01500BD4680BDB8460100B83401003C
:1034F0002DE9F04F144606464FF0000987B05F4DA6
:1035000000AF79607B68994535DAD6F80480B8F168
:10351000000F54D0B8F11F0F1BD918F01F0F18D18E
:10352000D6F800B01BF01F0F13D158460CF090FADC
:10353000824608EB0B0001380CF08AFA82451FD056
:103540006FF0150A6C4688B06A464D49C2E9051A03
:1035500005E06C4688B06A464A4BC2E90539032348
:1035600042F8103F00234FF4C2514748FEF78CFC4D
:10357000A5466FF0150420461C37BD46BDE8F08F08
:103580001AF1160FDED05445DCDDC5F898A0D5F849
:103590009C00C5F898A0D5F8A02020F01F0042F0AC
:1035A0001F08D6E900211144904201F1FF3B1ED1D2
:1035B000D84508D131465FFA8AF00CF052FA09F189
:1035C00001090C369EE7C5F898A0D5F89C3021F08B
:1035D0001F0103F01F030B433146C5F89C30E0B2D6
:1035E0000CF03FFA10F1160FC3D0441CE7E7013A84
:1035F000D845E0B222F01F02C5F898A008D1D5F84E
:10360000A030314603F01F031343C5F8A030E7E7AD
:10361000D5F8A01001F01F010A43C5F8A0203146DB
:103620000CF01FFA10F1160FA3D0C5F898A0D5F82A
:103630009C203B7C08F1FF3862F304033B74D5F80F
:10364000A0303A7C5B0863F347123A74D6E9003243
:103650001344BB6023F01F03441C4344A3EB0B0340
:10366000E0B223F01F0307287B6102D9FFF728FF90
:10367000B8E707F10801FFF709FFB6E700ED00E042
:1036800001470100DE460100B83401000522044B69
:10369000C3F89420BFF34F8FBFF36F8F704700BF05
:1036A00000ED00E0BFF35F8F0022024BC3F89420CF
:1036B000704700BF00ED00E010B5034C2278FFF723
:1036C00017FF207010BD00BF9A2000202DE9F74F92
:1036D000294D8A4606464FF00008AB46274FD04595
:1036E0001BDAD6F80490B9F1000F3FD031680846D4
:1036F00001910CF0ADF90199044609EB0100013884
:103700000CF0A6F984424FF014021D4B08D002FBC6
:1037100008F36FF015024BF8032003B0BDE8F08FFB
:1037200014F1160F2C60F8D01978A142F5DD02FBD8
:1037300008B0C7F89840C7F89840D7F89C4000F107
:103740000801007B64F304000871D7F8A0000C792D
:10375000400860F347140C71D7F89C1021F01F014A
:103760006960D7F8A01021F01F01296108F1010854
:1037700014350C36B3E700BF101B002000ED00E04D
:103780009A20002038B50E4D2C68082C15D8002042
:10379000FFF788FF0B4B0C4AC3F8C020844205D1C9
:1037A0000A4B00201C70FFF771FF38BD696801EB00
:1037B0000011FFF76BFE0130F0E74FF0FF30F4E748
:1037C000B837010000ED00E0AAFF44009A20002075
:1037D00008B5024B1B689847002008BD241B002039
:1037E000034B044A1860937843F0020393707047C8
:1037F000241B0020C8010020F0B587B007460E4604
:1038000014460021102268461D460FF0A9FB022332
:103810008DF80230054B2A4621466846CDE90476EC
:1038200001930AF005F907B0F0BD00BFA3FA00004C
:1038300008B50649064821F00701C1F1005202F51A
:10384000E0220AF047FE002008BD00BF436C0020C4
:10385000F05F002070B51B4BD3F80425D20744BF9E
:103860000022C3F804251022174BC3F840244FF45C
:103870007F03D3F83021D3F83431072A1BD1023B20
:10388000032B02D8114AD35CABB14FF05024012670
:1038900000250520C4F81866C4F814560DF087FEFC
:1038A0003046C4F814660DF082FEC4F81456C4F80D
:1038B0001856002070BD4FF050230022C3F8142684
:1038C000F7E700BF00D00050003000503347010040
:1038D0000E4B402928BF402170B51D460C4C4618A0
:1038E000B04203F1020304D1002305F81130074868
:1038F00070BD02781209A25C03F8022C10F8012BAB
:1039000002F00F02A25C03F8012CE9E7B9200020C5
:10391000AF47010030B503788BB0044607AD032BE9
:1039200021D8DFE803F0021A1C1E12492846FCF7D2
:1039300083FD059563781E210493A3780E4A0393B3
:10394000E3780E4802932379019363790093A37976
:103950000AF042F809480BB030BD0949E6E70949C9
:10396000E4E70949E2E70A212846084A0AF034F860
:10397000DFE700BF714701008C4701009B2000205A
:10398000AC3D01007847010082470100B9570100B2
:1039900030B50024094D0A4B85B0284602930394A4
:1039A0000EF05DFF02AB284600934FF4A3620A239A
:1039B000044908F0A5FF204605B030BD400F0020A7
:1039C000C0470100402800200146014809F00EB818
:1039D000400F0020037830B5012B13D0022B27D0E5
:1039E0007BB90A46184B03F1100453F8045BA34259
:1039F00042F8045BF9D11B78137043884B731B0AA0
:103A00008B7330BD0A46104B03F1100453F8045B6E
:103A1000A34242F8045BF9D11B7813704368C3F3E7
:103A200007224B731B0CCB731B0A8A730B74E8E7DA
:103A300000F1100350F8042B984241F8042BF9D1FF
:103A400003780B70DDE700BFC947010038B50C46AD
:103A5000511C15460CF08CF800280BDB20461C4945
:103A6000FCF7E0FC20B120461A49FCF7DBFC40B92A
:103A70002870002038BD0120FAE70220F8E7032073
:103A8000F6E720461449FCF7CDFC0028F3D0204689
:103A90001249FCF7C7FC0028EDD020461049FCF77E
:103AA000C1FC0028E9D020460E49FCF7BBFC0028E9
:103AB000E3D020460C49FCF7B5FC0028DFD02046B7
:103AC0000A49FCF7AFFC0028D9D06FF01500D1E708
:103AD00071470100DA470100AC3D0100E3470100F6
:103AE00078470100EC47010082470100F8470100D8
:103AF000012838B505460CBF064807480DF0B2FA54
:103B0000044620B101210C300DF008FB257620463B
:103B100038BD00BF5C060020D8050020024600200A
:103B200070B50B460A49D1E8EF4FC1E8E50F002D0B
:103B3000F9D124B9BDE870400120FFF7D9BF0121B8
:103B40002082217604F10C000DF0E8FA204670BDC9
:103B50003801002070B504460F2C0D46104619465A
:103B600005D80D2C0DD9BDE87040FFF7D7BF132C39
:103B700007D10C480DF076FA044638B900242046E7
:103B800070BD02460B4645B10748F3E701210C30F2
:103B90000DF0C4FA01232376F1E70120BDE870405F
:103BA000FFF7A6BFE00600203006002070B58EB0FB
:103BB0006C4606460A4D0D2E0FCD0FC40FCD0FC417
:103BC0000FCD0FC495E8030084E803009DBF0EAB42
:103BD00003EB860656F8380C02480EB070BD00BFE5
:103BE000443501000C48010038B5C368B3F8014002
:103BF0001B786BB90F21204602F06EFF054640B9D5
:103C0000084B1A8822B96FEA04506FEA10501880E6
:103C100038BD012102F05EFE2846BDE838400CF0B8
:103C200017BA00BF7420002010B5084C01460522C9
:103C300094F86F0003F082F838B994F86F0004220A
:103C4000BDE81040024903F079B810BD0000002023
:103C50005747010080B5C36800AF88B06A461B783B
:103C600006490748C2E9051303234FF4C45142F83B
:103C7000103F0BF0D8FFBD4680BD00BF14480100C7
:103C8000383401007FB5064B4FF48251059302236F
:103C9000044804AA04930BF0C6FF07B05DF804FBC8
:103CA0003C4801003834010098B5014600AF0D488A
:103CB0000DF0DFF90C490D480EF0C0FD00280EDABA
:103CC0006C4688B06A460A4B4FF4C251C2E90530CF
:103CD0000323084842F8103F0BF0A5FFA546BD4658
:103CE00098BD00BF3C01002014020020601000209D
:103CF00056480100383401000B46B0B50D8A00AFBC
:103D000004462946D868FFF7E3FD8AB06A46094BA6
:103D1000C2E90750C2E9053440F202439384064BDE
:103D20004FF43251054842F8103F0BF07CFFBD467E
:103D3000B0BD00BF73480100050000013834010028
:103D400080B5012100AF0C300DF01CFA88B06A4636
:103D5000037806490648C2E9051303234FF4C2510C
:103D600042F8103F0BF05FFFBD4680BD9548010053
:103D7000383401002DE9F041C56800AF2E78B6B99E
:103D8000B5F801800F21404602F0A6FE044688B92E
:103D90006C4688B06A460C4B4FF4C251C2E90538F4
:103DA00003230A4842F8103F0BF03DFFA546BD46ED
:103DB000BDE8F081EB783146437202F08BFD20467E
:103DC0000CF046F9F3E700BFB748010038340100B2
:103DD000B0B5C36800AF1C880121204602F07CFE0C
:103DE00080B96D4688B06A46084B4FF4C251C2E9AB
:103DF00005340323064842F8103F0BF014FFAD468C
:103E0000BD46B0BD0CF024F9FAE700BFDD48010063
:103E100038340100B0B5C36800AFB3F801400121E8
:103E2000204602F059FE80B96D4688B06A46084BBC
:103E30004FF4C251C2E905340323064842F8103F4B
:103E40000BF0F1FEAD46BD46B0BD0CF001F9FAE74E
:103E5000DD48010038340100B0B5044600AF02EB84
:103E6000C303934203D12046FFF746FF18E01046F4
:103E700010F8085BA54219D10B8A5078984211D9E5
:103E80006D4688B06A460A49D461C2E90513042325
:103E90004FF40151074842F8103F0BF0C4FEAD4605
:103EA000BD46B0BD084653689847F9E70246D8E7D3
:103EB00001490100383401002DE9F0415D4800AFAF
:103EC0000DF0EDF8044600287CD0037E012B7CD059
:103ED000032B40F0A980038A032B0CD84FF4007306
:103EE000554A564956480AF035FC404080F311883F
:103EF0004FF0030002DF042104F10C000DF042F941
:103F00004588B0F80080204605F092F94D4EC8F380
:103F10000B0326F81030238A9D4213D06E4688B0DA
:103F20006A464949D561C2E9051304234FF401519A
:103F3000464842F8103F0BF076FEB546204605F0A5
:103F40001DFA26E0204605F073F90F2136F810001F
:103F500002F0C2FD0546A0B9204605F069F96D469C
:103F600088B036F810306A463949C2E90513032390
:103F70004FF4C251354842F8103F0BF054FEAD46A5
:103F8000DCE721464FEA183202F03EFB28460CF0EF
:103F90005FF8304BD3F83C31A3B12F492F480EF0D6
:103FA0004DFC00280EDA6C4688B06A462C4B4FF464
:103FB000C251C2E905300323244842F8103F0BF0F8
:103FC00032FEA546BD46BDE8F081038A012B0CD820
:103FD00040F65D23184A194919480AF0BBFB4040D6
:103FE00080F311884FF0030002DF022104F10C007E
:103FF0000DF0C8F8054600780BF0EBFD83070CD4F4
:1040000040F661230C4A17490D480AF0A3FB4040D3
:1040100080F311884FF0030002DF04232146124A87
:104020002878FFF719FF89E76D4688B06A460F497F
:104030009BE700BF3C0100202349010057490100D4
:1040400070490100762000208D49010038340100BC
:10405000B14901000000002014020020601000207F
:1040600056480100D349010078380100014A010097
:1040700010B5012104460C300DF084F82146BDE84E
:1040800010400723014A0078FFF7E6BE9838010088
:10409000F8B5C5680121B5F8016000AF304602F0FF
:1040A0001BFD044680B96C4688B06A46104B4FF43D
:1040B000C251C2E9053603230E4842F8103F0BF007
:1040C000B2FDA546BD46F8BD2B783BB9D5F8033007
:1040D000C0F8AD30D5F80730C0F8B1304FF480519A
:1040E000201D0BF089FD20460BF0B2FFEAE700BF70
:1040F000DD480100383401002DE9F843064600AFE1
:10410000907A8846144605F08BF8414D854218D0C8
:10411000A47AE846204605F083F88AB06A463D4B0B
:10412000C2E90740C2E90536062355624FF4425101
:10413000394842F8103F0BF076FDC546BD46BDE854
:10414000F883204605F074F84FF00C09334D09FB55
:1041500000504388B34216D0204605F069F809FBA9
:1041600000506C4688B06A464388D36104232C49CA
:104170002948C2E905164FF4025142F8103F0BF0EE
:1041800052FDA546DAE7274ED6F8380120B105F0F2
:10419000F5F80023C6F83831204605F049F80C261A
:1041A00006FB00504368ABB1B8F1000F12D12046B6
:1041B00005F03EF8012106FB00504268D2E90003F9
:1041C000127A03F01F06B1405B09DAB100EB8300FD
:1041D0000BF012FD204605F02BF80C2606FB0050D4
:1041E0008368002BAAD0204605F022F8704305F81A
:1041F0000080204605F01CF806FB0055A86808F072
:10420000FDF99BE7C94300EB83000BF00FFDE1E7ED
:10421000B4060020154A010038340100281B002094
:104220004A4A01000000002038B5042104460C3041
:104230000CF0A8FF4578017822464088FFF75CFF24
:1042400025B1BDE83840024808F0D8B938BD00BFF4
:104250002001002038B5032104460C300CF092FFF9
:10426000E368057822461978B0F80100FFF744FFAB
:1042700025B1BDE83840024808F0C0B938BD00BFDC
:10428000200100202DE9F04F87B00123D0F80C80E9
:10429000018A98F8004000AF03EB84038B4240F2A0
:1042A0008D806D468AB06A46C2E9073105234648CB
:1042B0004FF42151C2E90504444842F8103F0BF085
:1042C000B2FCAD461C37BD46BDE8F08F6C4688B0E9
:1042D0006A463F4B4FF4C251C2E9053B03233B48BA
:1042E00042F8103F0BF09FFCA546013598F80030CE
:1042F0009D42E7DA08EB8503B3F801B00F21584679
:10430000B3F8036002F0E8FB04460028DED000F1B9
:10431000280B46B34FF02003EFF3118283F312888A
:10432000BFF36F8FE3696BB1013BE36182F31188E7
:10433000BFF36F8F204602F02DF9013E08F05EF9C1
:10434000B6B2E6E7636993B982F31188BFF36F8F62
:1043500002234FF482511D4807F11002C7F814A040
:104360003B610BF060FC20460BF072FEBDE7A169DB
:1043700018688B42606108BFA06182F31188BFF3A7
:104380006F8F4FF02002EFF3118182F31288BFF399
:104390006F8FDA68E261C3F80C90C3F80090626A2C
:1043A0004AB9C4E9083381F31188BFF36F8F5846C7
:1043B00008F0A0FABEE713606362F4E70025DFF8B7
:1043C00014A0A94692E700BF7D4A010038340100DD
:1043D000A74A0100C34A0100F0B583B0C5680121B6
:1043E000B5F8016000AF304602F076FB044688B9AC
:1043F0006C4688B06A462C4B4FF4C251C2E9053670
:1044000003232A4842F8103F0BF00DFCA5460C3759
:10441000BD46F0BD2B78061D1A2B17D1C378012B92
:1044200028D14FF4806130460BF0E6FB42050DD4F5
:10443000D4F8A03039463B60D4F8A83020467B60E1
:1044400002F048FF20460BF003FEE0E72B788BB923
:10445000B5F80330A4F89E30B5F80530A4F8A430C0
:10446000B5F80730A4F8A6306FF4807130460BF031
:10447000DDFB14E0D6E8AF3FDB05F5D52B78202B2C
:10448000F2D194F8AC30002BEED0013B84F8AC3084
:104490004FF42032002304F1580008F0D1FA2046EE
:1044A00002F068FBCEE700BFDD48010038340100B0
:1044B00010B5C1E900239DF808300C460B7204F0DA
:1044C000B7FE0C22024B02FB00335C6010BD00BF44
:1044D000281B00202DE9F0474FF0FF324FF0FF334B
:1044E000064617480F460CF0BDFD4FF00008044685
:1044F00000F10C0A012150460CF010FE204684F811
:10450000188004F095FE4FF00C090E4D09FB005089
:104510004680204604F08CFE09FB0050C0F808805D
:10452000204604F085FE09FB005503215046C5F8DE
:1045300004800CF0F7FD068087702046BDE8F08708
:10454000B4060020281B00202DE9F04387B08046E8
:1045500015460C4600AF21B9FFF7BCFF0446002802
:104560005DD00122002138460EF0B8F8204604F054
:104570005FFE0C23DFF8B49003FB009087602046B9
:104580000CF0A6FD01462A480CF0A0FD4FF4A02235
:104590000023384608F058F8064688B14FF4A9734E
:1045A000244A254925480AF0D5F832464146244890
:1045B0000AF0D0F8404080F311884FF0030002DF8A
:1045C000204604F035FE0C23584319F80060F6B17C
:1045D0006D4688B06A461B4BD661C2E90538042394
:1045E0004FF40251184842F8103F0BF01CFB2046D4
:1045F000AD4604F0C3FE092E14D00D2E0CBF6FF093
:104600000B006FF004001C37BD46BDE8F08315B108
:104610002C600020F7E7204604F0B0FEF9E76FF0C9
:104620006800F0E76FF06E00EDE700BF281B002088
:104630004401002023490100DA4A010070490100C9
:10464000E34A01000F4B01003834010070B588B017
:1046500006460D4642F22F00002101AAFFF774FF23
:10466000044660B10B4B4FF48251079302230A4872
:1046700006AA06930BF0D7FA204608B070BD019841
:10468000C368B3F801203280B3F803302B8004F004
:1046900075FEF1E72B4B010038340100F7B5144BE0
:1046A000054693F99B300C46002B1DDA14B92046C1
:1046B00003B0F0BD082C4FF0000142F2180001AA2F
:1046C000264628BF0826FFF73FFF0028F0D1019FAC
:1046D0003246F968284601310EF035FC384604F0C0
:1046E0004DFE3544A41BE1E76FF08500E0E700BF15
:1046F000000000202DE9F0478CB00026A94BB0F84F
:104700000180198848F470420478914208BF1E80E5
:10471000054608BF012602AFA4B33C2C22D101F00C
:104720002BFB6FF0800110300BF080FA0020FFF7B8
:104730007BFA054670B99C4B4FF482517B62022391
:104740009A483B6207F120020BF06DFA2837BD460C
:10475000BDE8F0874472002102F0BCF828460BF057
:1047600077FCF3E76D4688B002AA914B4FF4C45131
:10477000C2E9053403238D4842F8103F0BF053FA89
:10478000AD46E3E7C37800F10409012B08BF894B6C
:10479000484608BF93F86F400BF017FA494640B3FC
:1047A00007F110000BF006FA05F1110107F10900FD
:1047B0000BF02DFA01233B72EB78012B27D04846F2
:1047C000FFF7A8F86C4688B002AA7B4B4FF4E25181
:1047D000C2E905304FF400739383784B734842F875
:1047E000103F0BF020FA1321A54640460BF026FAA5
:1047F000ACE720460BF0DDFA014607F110000BF0A4
:104800000BFA494607F108000BF006FAD4E707F166
:104810001000FFF709FAEB780446012B0AD101F0EA
:10482000ABFA82466FF0800110300BF0FFF9504672
:104830000BF0C5FB002CC2D020460022B5F8013099
:1048400007F1100120F8883B0BF0E6F9B5F81730B6
:10485000A4F89E30B5F81930A4F8A430B5F81B3090
:10486000A4F8A630EB786272012BE37016D107F141
:10487000080104F18F000BF0CFF901F07DFA217AE5
:104880004C4AC1EBC101114404F196000BF0C4F98C
:10489000D2F8E4305D0601D501F02EFC0721204658
:1048A00002F018F81EB10121204602F013F820464C
:1048B0000BF004FCA37A072B6ED1231DD3E8AF3F86
:1048C00013F4805F3B4D29D1E3781BB195F8D830C4
:1048D000180723D5022142F21600FFF7FBFD06461A
:1048E00000285BD002210C300CF01CFC2388002235
:1048F0000380314642F21600FFF726FE70B16E4685
:1049000088B002AA2E4B4FF4C251C2E905300323EE
:10491000264842F8103F0BF086F9B54695F8D93095
:10492000D90716D50021022320461A4600910BF024
:10493000BEF970B16E4688B002AA224B4FF4C25144
:10494000C2E905300323194842F8103F0BF06BF918
:10495000B54695F8D8309A061ED5D5F85C319B68D7
:104960009B0719D5B91D381DFFF770FEA0B9204669
:10497000FA88B9880BF07DF970B16D4688B002AA4B
:10498000114B4FF4C251C2E905300323074842F8E6
:10499000103F0BF048F9AD462046E0E66FF06800A6
:1049A000ADE700BF742000204B4B010038340100FC
:1049B0006C4B010000000020854B0100030000014A
:1049C000A14B0100C24B0100D94B010000B5C168E9
:1049D00089B00B7801A88DF80030B1F801300431AE
:1049E000ADF8013011F8013C8DF80330B1F8073013
:1049F000ADF81730B1F80930ADF81930B1F80B3017
:104A0000ADF81B304B7B8DF81D300BF005F90749D5
:104A10000DF10B000BF0FBF80DF111000BF0F7F8A6
:104A20006846FFF767FE09B05DF804FB6B470100BD
:104A3000024BD3F85C315B69184700BF00000020CF
:104A4000F8B505460C4600AF19B9FFF743FD04461B
:104A500018B340F635439D4219D12046FFF7E8FFD1
:104A6000054688B16E4688B06A460D4B4FF4C25178
:104A7000C2E9053003230B4842F8103F0BF0D3F88E
:104A80002046B54604F07AFC2846BD46F8BD2146CE
:104A900005480CF01BFB0025F6E76FF06805F3E70F
:104AA000F54B010038340100440100202DE9F041AC
:104AB00086B000AF044604F0BBFB324B33F8105015
:104AC000A07A04F0ADFB21460DF0FAFD2E4B93F8D1
:104AD0008A309B0614D50F21284601F0FDFF0446BD
:104AE00090B96C4688B06A46284B4FF4C451C2E96D
:104AF00005350323264842F8103F0BF094F8A546ED
:104B00001837BD46BDE8F081837A073B012B0ED9EB
:104B1000204B4FF484517B6102231D483B6107F118
:104B200010020BF080F820460BF092FAE8E70BF049
:104B30008FFA052140F63540FFF7CCFC044658B902
:104B4000154B4FF482517B61022311483B6107F101
:104B500010020BF068F8D3E700F10C080121404681
:104B60000CF0E0FA01260421067040460CF0DAFA57
:104B7000002305808670C370214640F63540FFF75C
:104B80005FFFBDE77620002000000020174C0100E9
:104B900038340100414C01006D4C0100F0B583B088
:104BA000C36800AFD9789A781E8842EA01223A8019
:104BB00059791A79B4B242EA01227A80D9799A797C
:104BC000204642EA0122BA801A7A5B7A012142EA3F
:104BD0000323FB8001F080FF0546A8B96D4688B02D
:104BE0006A461E4B4FF4C251C2E9053403231C48E8
:104BF00042F8103F0BF017F80221AD4620460BF0AB
:104C0000A2F80C37BD46F0BD394601F0F7FF38B9C0
:104C10001E2120460BF097F828460BF019FAF0E712
:104C20000E2142F22000FFF755FC04460028F3D085
:104C30000E210C300CF076FA00230680C0F80A3002
:104C40003B88214643807B888380BB88C380FB8868
:104C5000038142F22000FFF7F3FEDDE7DD480100AB
:104C6000383401002DE9F04FDFF8548187B0DFF8C8
:104C7000549100AFD8F80C3053486FF39433C8F810
:104C80000C3001F0DDFD451C4FF0FF324FF0FF33DB
:104C900029464B4808F05EFC60B140F6DE234A46E8
:104CA0004A494B4809F056FD404080F311884FF0C7
:104CB000030002DF4FF0030A414E15B908F03AF93C
:104CC000D8E7F368C3F38633022B60D9042B68D18D
:104CD000337B002B5ED1002200233E480CF0C7F945
:104CE000044660B94FF427634A463B49384809F007
:104CF00031FD404080F311884FF0030002DFDFF800
:104D0000DCB04FF0FF334FF0FF32354807F09CFC2A
:104D1000DBF838318BB1334B4FF482517B61022386
:104D2000314807F110023B610AF07DFFDBF83801E2
:104D300004F024FB0023CBF8383120460CF0C8F9EE
:104D4000CBF838012046FFF773FE00B3EB4688B07E
:104D50006A46264B4FF4C251C2E90530032322486C
:104D600042F8103F0AF05FFFDD461D4807F046FCA1
:104D7000204604F05DFA0C221D4B1F2102FB00307F
:104D800022464088FFF7B8F9204604F0F7FA1436B7
:104D9000013D92E7012BFAD13069383802F0B6F8BC
:104DA000F5E76C4688B06A4612490F48C2E9051318
:104DB0004FF4C45142F810AF0AF035FFA546E6E7BC
:104DC000D801002023490100EC010020DA4A01004B
:104DD0007049010044010020345A01000000002005
:104DE00020010020904C010038340100F54B0100F7
:104DF000281B0020AB4C01002DE9F041044600F1D6
:104E00000C0630460CF0CEF9B4F810800546B8F127
:104E1000010F0CD840F685631B4A1C491C4809F059
:104E200099FC404080F311884FF0030002DF3046C8
:104E300002210CF0A7F9074600780AF0CAFEC20763
:104E400006460CD440F689630F4A1249104809F00F
:104E500081FC404080F311884FF0030002DF0523FE
:104E600021460D4A3878FEF7F7FFB30707D5636987
:104E7000A4F8108013FA85F5E560BDE8F0812046BE
:104E8000BDE8F04104F07ABA234901005749010016
:104E900070490100CC4C010050380100B0B5037ED0
:104EA0000446012B00AF06D0032B12D1FEF7FCFE07
:104EB0000020BD46B0BDC36818780AF08AFEC2075C
:104EC000054602D52046FFF797FFAB07F0D52046F1
:104ED000ECE76D4688B06A4608490948C2E90513FF
:104EE00003234FF4C25142F8103F0AF09CFE2046C3
:104EF000AD4604F043FA6FF01500DAE7E54C010027
:104F000038340100084A0346D2F85C0130B9D96848
:104F100039B1596929B1C2F85C3170476FF0770037
:104F200070476FF015007047000000202DE9F84F22
:104F30003D4C00AF04213D480AF05EFE3C4DE27955
:104F40003C4B2046012A88BF1D466E46FEF7E2FC18
:104F50008AB06A46384BA346C2E905350125374B6E
:104F6000D0611362364B4FF42351364842F8103F5C
:104F70000AF059FEDFF8D080B546DFF8C890334E0E
:104F8000E3790BF1070B9D4238DB94F870506E46C5
:104F90002846FEF70BFE8CB06A46B4F87210B4F8DF
:104FA0007630C2E907514FF400755362DFF8A0C0B4
:104FB000284BC2E905C015854FF4535142F8103F04
:104FC00020480AF030FEB54694F871603046FEF78E
:104FD000EDFD8AB06A46B4F874301F49C2E9076330
:104FE0001E4BC2E9051095844FF43351154842F821
:104FF000103F0AF018FEBD46BDE8F88F5846FEF790
:1050000089FCEA468AB06A4640F20133C2E9056586
:10501000D06113844FF41351484642F8108F0AF0C0
:1050200002FE0135D546ABE700000020D400002089
:10503000FB5F0100F94C0100FD4C0100000201037F
:105040000400000238340100040000010C4D01008E
:105050001D4D0100060000015B4D0100050000012F
:10506000F0B589B0674D00AFD5F85C31996811F0A3
:1050700001011AD140F603403A1DFFF765FA0446D4
:10508000002840F0BA807868C3681B785BB905F1E6
:10509000D403D3E8AF2F02F00902D3E8EF1FC3E82F
:1050A000E42F002CF9D104F069F9002141F203004A
:1050B0003A1DFFF749FA0446002840F09E807B68BD
:1050C000514EDA68D2F80100D2F8051003C618462E
:1050D00004F054F9214641F201003A1DFFF734FA79
:1050E0000446002840F089807868C3685A7885F8BB
:1050F00070205A88A5F872201A7985F87120B3F8C3
:105100000720A5F87420B3F80530A5F8763004F030
:1051100035F9214641F202003A1DFFF715FA04461F
:1051200000286AD1D7F804C0DCF80C20531C4132A7
:10513000344618685968083303C493422646F7D1A9
:10514000604604F01BF901F087F80446002854D1AA
:1051500095F88A309B061CD42C4B4FF48451FB618C
:1051600002232B48BB6107F118020AF05CFD95F899
:105170007C305E0650D4274B4FF48251FB610223F2
:105180002348BB6107F118020AF04DFD6FF01204CD
:1051900033E0072140F63340FFF79CF9064600282C
:1051A00000F0248107210C300BF0BCFF1B2303709F
:1051B0000623C0F802408471447004712246C37013
:1051C000314640F63340FFF7BFF90446A8B9012144
:1051D00040F63140FFF77EF90646002800F00681D0
:1051E00001210C300BF0ADFF2246314640F6314034
:1051F000FFF7AAF904460028B9D020462437BD4657
:10520000F0BD00BF0000002078000020824D0100AA
:1052100038340100B04D0100002142F2030007F1D3
:105220000802FFF791F904460028E6D1BB68964EC4
:10523000DA68D2F80100D2F8051003C6184604F067
:105240009DF8214642F2020007F10802FFF77CF9BF
:1052500004460028D1D1BC68E368B3F8012091B2BC
:1052600049B1D97839B1A5F80421DA78114606F1A7
:1052700028000DF033FA204604F080F895F87C60A1
:1052800016F0200618D1022140F66D40FFF722F9F2
:105290000446002800F0AA8002210C300BF042FFE7
:1052A0000123214603704670324640F66D40FFF7F9
:1052B0004BF904460028A0D195F89C301C0713D563
:1052C000002142F21C0007F10802FFF73DF90446F5
:1052D000002892D1B868C368D3F80120D3F805300C
:1052E000C5E9382304F04AF895F8D830980621D556
:1052F000391DB81CFFF7AAF9044600287FF47DAFDA
:10530000042142F22400FFF7E5F8064600286DD09C
:1053100004210C300BF006FF7B8822460380BB88FB
:105320003146438042F22400FFF70EF9044600287C
:105330007FF463AF082142F20100FFF7CBF8044687
:10534000002853D008210C300BF0ECFE95F8D82043
:1053500012F0020F14BF2F230F23910695F8D920C6
:1053600048BF43F0400312F0090F4FF0000218BF8E
:1053700043F400630370C3F3072321464370827034
:10538000C270027142718271C27142F20100FFF774
:10539000DBF8044600287FF430AF95F87C30B5F890
:1053A00004119A0625D4D1B941F2050007F108028B
:1053B000FFF7CAF8044600287FF41FAFB5F80431A0
:1053C000BC684BB9E368B3F80120A5F804219A88BA
:1053D0002E4811460DF082F9204603F0CFFF082138
:1053E00040F60140FFF776F8044690B96FF0680484
:1053F00003E70029F3D1264B4FF48251FB610223CE
:105400002448BB6107F118020AF00DFC6FF0040498
:10541000F3E608210C300BF085FE1023037088237F
:10542000002243700226202321468270C67002713A
:1054300042718271C37140F60140FFF785F804465E
:1054400000287FF4DAAE01463A1D4FF60140FFF71F
:105450007BF818B3104BC7E906634FF484510D482D
:1054600007F118020AF0DFFB00F068FB0446002891
:105470007FF4C3AE01F0D6FD044600287FF4BDAE34
:10548000FFF754FDB9E600BFD80000200801002056
:10549000D44D010038340100F74D01007B686E46A1
:1054A000DC688AB0B4F80130032B96BF434A444904
:1054B00052F823106A46D3614FF4007341481384B5
:1054C000414BC2E9050142F8103F4FF413513F48E8
:1054D0000AF0A9FBB4F80120B546022AB4F803305B
:1054E0004CD1032B4AD83A4A52F823106E468AB060
:1054F0006A46D3614FF4007336481384324BC2E9D5
:10550000050142F8103F4FF4135130480AF08BFB6D
:10551000B546637994F806C0032B98BF2E4AB4F8B9
:105520000760D4F809006C468CB094BF52F8231081
:1055300023496A46C2E9073C4FF40073DFF89CE058
:105540009385274BC2E905E1C2E909604FF4735125
:1055500042F8103F1D480AF066FBA546786803F044
:105560000DFF00214FF602403A1DFEF7EDFF044605
:1055700030B11C4BFB610223BB616EE71049B5E7FC
:105580007868C368B3F80130A5F8C13003F0F6FEBF
:1055900095F8C1305B077FF567AF21464FF60340B2
:1055A0003A1DFEF7D1FF08B10F4BE3E77868C368F7
:1055B0005B7885F8C03003F0E1FE55E74038010024
:1055C0000C4801001B4E01000400000138340100AA
:1055D00030380100344E0100203801004C4E0100EB
:1055E00007000001794E0100A24E010010B5FFF73F
:1055F00037FD034B1B6813B1BDE81040184710BDC1
:10560000A01B0020F0B58FB03B4D0646D5F85C31AD
:1056100008AF83B9394B6FF012047B6102234FF45A
:105620008251374807F110023B610AF0FCFA20462C
:105630001C37BD46F0BD6FF0020105F1D4000AF041
:10564000F5FA01210AF0D8FA10EA010450D12D4BE5
:105650001E600A4605F590700DF040F805F5A27041
:105660000DF017F800220023CDE906236FF00803A0
:105670004FF48062CDE90243CDE90044224B234937
:105680000494234806F048FE224921480CF06DFF9F
:1056900021480DF0E4F86FF007034FF496621F49BC
:1056A0001D48009407F02CF91D491B480CF05DFFC4
:1056B000D5F85C31DB689847044678B16D4688B010
:1056C0002A46184B4FF4C251C5E9053003230C4854
:1056D00042F8103F0AF0A7FAAD46A8E71EB9FFF757
:1056E000BFFC0446A3E705F1C40007F003F99EE7F9
:1056F0006FF077049BE700BF00000020CB4E010055
:1057000038340100A01B0020654C0000582D0020FB
:10571000E00F0020E44E010060100020583100200E
:10572000EA4E0100F04E010000487047823E010041
:10573000F8B506460024094DEF79E3B29F4202D83E
:105740006FF0010007E0294630460AF01BFB0735E1
:10575000631C08B12046F8BD1C46EEE7000000209F
:1057600037B504460D4671B1284612490AF00AFBC6
:1057700048B929461048C4EBC40420440AF00FFB82
:10578000002003B030BD68460AF0E4F90028F8D1E3
:105790006846FFF7CDFF0028F5DA074BC4EBC400DD
:1057A000694618440AF0FBFA002DE9D00146284664
:1057B000E4E700BF5E4701000000002038B5062284
:1057C000114905460DF0D4FBC8B1062142F205008F
:1057D000FEF780FE0446A0B1062229460C300BF0ED
:1057E000A7FC0022214642F20500FEF7ADFE38B9C3
:1057F000054829460AF0CEFA012300F8013C0020B2
:1058000038BD6FF06800FBE76900002070B50D46F9
:10581000044686B0F0B123490AF0B4FAD0B923782F
:10582000012B04D1A37903F0C003C02B0DD01E4B74
:105830004FF48251059302231C4804AA04930AF0F2
:10584000B5FA6FF0150006B070BD2046FFF770FF87
:10585000002821DA002DF4D1154DEB79012B1ED053
:1058600005F1D403D3E8AF3FDB0707D4002CE8D021
:1058700020460C490AF086FA0028E2D1EE7921464A
:10588000731C3046EB71FFF76BFF08B93046DAE75F
:10589000EB79013BEB71D6E76FF07700D3E76FF060
:1058A0000B00D0E75E470100FF4F010050340100BC
:1058B00000000020F0B5044689B060B9194B079389
:1058C00002234FF48451184806AA06930AF06EFA90
:1058D000002009B0F0BD002141F2090001AAFEF745
:1058E00033FE064608B1114BE9E7019F0622FD6829
:1058F0000F49013528460DF03BFB28B1062228460A
:105900000C490DF035FB18B9384603F037FDDFE7D9
:105910002946601C0AF03EFA3846267003F02EFD38
:105920000120D6E72D5001005034010046500100FF
:105930006B4701006547010007B56846FFF7BAFFEE
:10594000044BD87118B169460020FFF709FF03B076
:105950005DF804FB00000020F0B5244B054693F8E9
:10596000C2300E46DB0789B00DD4214B07930024CB
:1059700002234FF484511F4806AA06930AF016FA30
:10598000204609B0F0BD00214FF6094001AAFEF7FC
:10599000DBFD034608B1184BE8E701981627C268FB
:1059A00054780232B44228BF34469C420EDC03F0E5
:1059B000E5FC002CE4D1114B4FF4845107930223F2
:1059C0000C4806AA06930AF0F1F9D9E7114607FB3D
:1059D000035602F1140C51F804EB614546F804EB50
:1059E000F9D10988013331801632DEE7000000204A
:1059F000645001005034010090500100B05001008B
:105A000070B5154D88B0EC792CB9012102A8FFF7CB
:105A1000A3FFE871C0B90021084608B0BDE8704096
:105A2000FFF7F4BE02AB06FB02310DF101000AF0F4
:105A3000B1F90123694610468DF80030FFF790FE5A
:105A4000013410B108B070BD1626EB79E2B2934272
:105A5000E8D80020F6E700BF000000202DE9F04163
:105A600090460E461D46024686B078B173B13103AA
:105A7000047816D573070ED52D4B4FF4825105933C
:105A800002232C4804AA04930AF090F96FF0150041
:105A900006B0BDE8F0810AF099F90028F8D1012399
:105AA00041E0F70730D5244FB8F1000F13D0B0060E
:105AB0000AD4C4EBC403FB5C012B13D02B70B206D9
:105AC00020D543F002030BE097F8D8305906F0D404
:105AD0006FF08500DCE7C4EBC403FB5C012B01D055
