:1000000020220020952100005D7500008121000064
:100010008121000081210000812100008121000058
:100020000000000000000000000000004D23000060
:100030008121000000000000E52200008121000075
:100040002D2500002D2500002D2500002D25000068
:100050002D2500002D2500002D2500002D25000058
:100060002D2500002D2500002D2500002D25000048
:100070002D2500002D2500002D2500002D25000038
:100080002D2500002D2500002D2500002D25000028
:100090002D2500002D2500002D2500002D25000018
:1000A0002D2500002D2500002D2500002D25000008
:1000B0002D2500002D2500002D2500002D250000F8
:1000C0002D2500002D2500002D2500002D250000E8
:1000D0002D2500002D2500002D2500002D250000D8
:1000E0002D2500002D2500002D2500002D250000C8
:1000F0002D2500002D2500002D2500002D250000B8
:100100002D2500002D2500002D2500002D250000A7
:100110002D2500002D2500002D2500002D25000097
:100120002D2500002D2500002D2500002D25000087
:100130002D2500002D2500002D2500002D25000077
:100140002D2500002D2500002D2500002D25000067
:040150002D25000059
:1001540053B94AB9002908BF00281CBF4FF0FF312A
:100164004FF0FF3000F00CB8ADF1080C6DE904CE8F
:1001740000F008F8DDF804E0DDE9022304B070477C
:10018400704700BF2DE9F04786468C460846089E16
:10019400154674461946002B40F0C1808542B2FAD8
:1001A40082F245D94AB1C2F1200300FA02FC95401B
:1001B40094402EFA03F343EA0C0C4FEA154EA8B20E
:1001C400230CBCFBFEF80EFB18CC08FB00F943EA39
:1001D4000C43994528D9EB1808F1FF3704D2994507
:1001E40002D9A8F102072B44A3EB0903A4B2B3FB81
:1001F400FEFC0EFB1C330CFB00F044EA0344A0425B
:1002040014D92C190CF1FF3304D2A04202D9ACF159
:1002140002032C44241A43EA07401EB1D4400023AD
:1002240034607360BDE8F0874746DDE76346F1E775
:1002340092BB431B01214FEA154EAFB2200CB3FB16
:10024400FEFC0EFB1C330CFB07F840EA0343984505
:1002540061D9EB180CF1FF3004D2984502D9ACF106
:1002640002002B44A3EB0803A4B2B3FBFEFC0EFB79
:100274001C330CFB07F744EA0344A7424DD92C195D
:100284000CF1FF3304D2A74202D9ACF102032C448F
:10029400E41B43EA0040C0E7C2F1200395409440C8
:1002A40020FA03F12EFA03F34FEA154E9040AFB251
:1002B4000343B1FBFEFC0EFB1C10190C0CFB07F8EE
:1002C40041EA0041884522D969180CF1FF3004D273
:1002D400884502D9ACF102002944A1EB08019BB284
:1002E400B1FBFEFC0EFB1C110CFB07F743EA0143B8
:1002F4009F420ED9EB180CF1FF3104D29F4202D970
:10030400ACF102012B44DB1B41EA004193E7604658
:10031400E3E76146F7E76046A4E76346B8E783424C
:1003240006D916B9002108467CE7C6E900E0F9E7DA
:10033400B3FA83F78FB9834201D3724508D8BEEB71
:10034400020460EB030301209C461EB9002169E707
:100354003846FAE7C6E9004CF8E7C7F1200CBB4081
:100364000EFA07F522FA0CF42EFA0CF1BA401C43EB
:1003740020FA0CF3B8404FEA144901431FFA84FEF3
:10038400B3FBF9F809FB18300B0C08FB0EFA43EA2F
:1003940000439A4540D9E31808F1FF3004D29A4546
:1003A40002D9A8F102002344A3EB0A0389B2B3FBE8
:1003B400F9F809FB183308FB0EFE41EA03418E45A8
:1003C4002CD9611808F1FF3304D28E4502D9A8F163
:1003D4000203214443EA0040A1EB0E01A0FB029872
:1003E4004145CE46434602D306D14D4504D2013899
:1003F400B9EB020E68EB0403002EA7D0B5EB0E0296
:1004040061EB030101FA0CFC22FA07F3F9404CEA10
:100414000303C6E9003199E74046C5E74346D9E7F7
:10042400034613F8012B002AFBD1181A0138704730
:1004340014222DE9F04F8DB002AF0021B81807F057
:10044400DDFD07F10E03FB6102233B62414C2046B4
:1004540007F0F0FB0346B8B921686C4688B002AADD
:100464003D48C2E905014FF4007191833B4942F8CC
:10047400101F4FF4E2513A4801F002F8A54600205B
:100484002C37BD46BDE8F08FA36820461B6835496C
:100494009847002807DA002300900121324A3048A7
:1004A40006F0DFFFEBE70123BB6140F60C030026F7
:1004B400DFF8B8A0DFF8B8B0BB84D4F808802046D1
:1004C400D8F8043007F114019847031E05DA012116
:1004D400284A234806F0BBFFEFE7C7F804D08CB0E6
:1004E400B7F90E50236806F1010902AAC2E905A66C
:1004F400D361002640F20133C2E90865138542F84E
:1005040010BF4FF453513346154800F0B9FFB8F803
:10051400083030466B43D7F804D007F110013B6133
:1005240002F0B2FBB04208D13D692D1303212B46E2
:10053400114A0B4806F08BFF05E0F7DA02210F4A57
:10054400074806F07BFF4FF40040002105F026FC2D
:100554004E46B2E7EC8100009887000003000001DA
:100564003C840000DE840000BC870000F1870000AA
:1005740006000001DD870000388800001A880000AA
:100584002DE9F04F91B0009302F004030293C2F3FB
:10059400C2030133840705460E46DDF868900392D2
:1005A400059340F0BB81041D30B1072909D86FF0D1
:1005B4001B0011B0BDE8F08F01F00706341DC6F131
:1005C4000806009B4FF000084FF0040A591E4FF034
:1005D400FF3347460193C3465346CDF810800DB10F
:1005E400009A22600598002800F3E8809848009A51
:1005F400824203D397488242C0F0E080039AA4EB7E
:10060400050E92074FEA9E0000F103810F2F00F2BE
:10061400B180002D00F0058107F140020DEB020CC2
:10062400019A0CF8200C0CF8102C0498013004905A
:10063400E7E07A285DD84B280ED8472859D82928CE
:100644002DD8252852D054D820287AD02338D0F158
:10065400000B4BEB000B74E04C382E2849D8DFE834
:1006640000F07048484848484848484848484B487B
:100674004848484848484859484B4B595959704B81
:100684006D487048184B184848827F4B48484B487F
:100694007F0000204FF0000B4FF0040A38E00122E5
:1006A4002A38C0B202FA00F010EA0E0F49D110F055
:1006B400625C2FD110EA020B43D06046013C5444E3
:1006C400B4FBFAF40AFB04F4002D61D0A3EB050C8F
:1006D400A4446645FFF46BAF002868D1042B47D1CE
:1006E40059F8043B2360042304342AE0019A013AB4
:1006F40001924FF0000B24E011F8010C6C2834D166
:10070400002011F8023C83466C2BC5D14FF0080A37
:100714005346D3E709F1070929F00709073424F000
:100724000704F9E802AB35B106982044B0423FF61D
:100734003EAFC4E900AB4FF0000B08344FF0080A99
:10074400534611F8010F002878D0BBF1000F7FF455
:1007540070AF2528F5D14FF0010B019B01330193B4
:100764004FF0040AECE7584694E700208346A5E7D7
:10077400082B02D06FF015001BE709F1070929F0D7
:100784000709F9E80223C4E9002308230834D8E759
:1007940068B9042B02D109F10409A4E7082BE9D1B3
:1007A40009F1070929F0070909F10809EDE7059A94
:1007B400013A059259F8042B009210E7039A900726
:1007C40020D54FF0010CA4EB050E4FEA9E00BEF5B8
:1007D400007FCFD20F2FCDD8F5B107F140020DEB3A
:1007E400020E019AC0B20EF8200C0EF8102CBCF1C7
:1007F400000F3FF41AAF60F07F000EF8200C08F1F0
:1008040001080137C5F108024FF6DA7E0434069276
:1008140097E74FF0000CDAE7BCF1000F01D0013686
:10082400EFE7029802360028EBD10098CDE90631B3
:10083400FFF7F6FDDDE906310644E2E7631BB3F595
:10084400806F97D245B9A6F10804E018B1E600BF5D
:10085400F880000014940000029A9B0828602B7012
:100864009DF81030C2B1EB7085F80280B8F1000F2A
:1008740005D0002208A8C5F1010C97420ED14FF013
:10088400000AC5F101030DF1200901930DF1300BAC
:10089400574512D1601B8CE66B70E5E710F8013BFD
:1008A400190608D504EB0C0E764503F07F03FFF41C
:1008B4007EAE04F8013B0132DFE7B8F1000F03D04C
:1008C40099F90020002A17DB029BD3B11AF80B20F8
:1008D40004F8012B0022019B981820448642FFF45F
:1008E40066AE99F80000009904F8010B20460392C3
:1008F40007F077FB039A14440AF1010A09F101098C
:10090400C6E799F8002055F822300093029B00981E
:1009140045F82230FFF784FD421CDCE76FF00D0040
:1009240047E600BF2DE9F04F95B000AFBB61BB6F48
:100934000446C3F3C0038A4690F802B07A623B616E
:1009440041B9457800780BEB80002044554517D811
:10095400A0EB040AE3787B61BBF1000F02D0BB6F0C
:10096400D80716D47B6953BB7B6A1BB1514620461A
:10097400BA699847554628465437BD46BDE8F08FB6
:10098400461C3046FFF74CFD013030440AF1010AA1
:10099400DCE7237862683B629B00FB603B6AFA6198
:1009A40004EB83097B6A002B40F0FF80C8460026D5
:1009B400554609EB0B0AD04551D1D94413E0BB6F1E
:1009C4009907D1D5237899463B629B00FB60636805
:1009D40004EB8909FB617B6A002B7AD15546BBF194
:1009E400000F4FD15E46BB6F13F0050F0CBF4FF0E5
:1009F400020B4FF0010B7B6909EB430ABB6F03F059
:100A040002037B62D145B6D019F8021B19F8013CE8
:100A140054F82380AB4B984502D3AB4B984538D35D
:100A24003B69002B42D0F86906F02EF800283DD02F
:100A3400E8468AB06A46A54B5361FB69C2E90631B0
:100A44004FF400731384A24B42F8103F00234FF479
:100A54001251A04800F014FD023DC546D2E718F833
:100A6400013B54F82300FFF7DBFCFB6F01303BB183
:100A7400D7F880309E423EBFFB6F23F81600013644
:100A8400054498E7BB6F13F004061CBF7E6AD94483
:100A9400A9E73B6923B1F86905F0F6FF0028C7D13F
:100AA400BB6FDA0705D4A5EB0B05ABE77B6A002B1C
:100AB400A8D04046FFF7B4FCFB6F43B1D7F88030B1
:100AC4009E423FBFFA6F431C22F81630013605449C
:100AD40098E7BBF1000F6ED0BB6F13F004066DD026
:100AE400D846002607F140005A46494607F079FAED
:100AF4007B69D9445B007B607B6909EB4303BB6082
:100B0400BB6F03F002033B60BB684B4558D1B96F20
:100B14006378B86F890748BF002106EB030258BF0A
:100B24004FEA5801C507D2B200F19A8010F0040FC1
:100B340014BF40460020FB616270A070E170204643
:100B4400BA69F9687B6A9847051EFFF614AF3B6AD9
:100B540041462370FB69BA6963707B6984F802B00B
:100B6400E37007F140007B6A9847B0F10008C0F2D7
:100B7400A480FB68AAEB0B01C91A7B684846C91A12
:100B8400BA697B6A98470028C0F299804FF0000B3D
:100B9400A84408EB000507F1300AB34562D30021ED
:100BA400BA6908467B6A9847E5E65E464FF0000856
:100BB40007F1300098E75E46D84699E7B04697E7D4
:100BC40019F8021B3F4B19F8015C54F825009842B0
:100BD40002D33D4B98421DD33B6923B1F86905F01C
:100BE40053FF002890D13B68FBB908F1280307F1B3
:100BF400280208F1010003EB020C07F1500308F18D
:100C0400020853FA80F00CF8101C5FFA88F800F818
:100C1400105C79E73B692BB1F86905F035FF0028D2
:100C24007FF472AFBB6FDB0709D506F1280307F128
:100C34002802711C9E1806F8205CCEB264E7BB6FD4
:100C440058077FF561AF08F1280307F1280208F17E
:100C5400010103EB020808F8105C5FFA81F853E71E
:100C6400002068E71BF80A3054F8239087F82F30E7
:100C7400FB6FFBB133F81B800121BA697B6A07F172
:100C84002F00984700281ADB0544B8F1000F06D15D
:100C94004846FFF7C5FB00F101081FFA88F84146F2
:100CA4004846BA697B6A9847002808DB05440BF17B
:100CB400010B72E7D7F87C80DEE745465BE6054624
:100CC40059E600BFF8800000149400005388000027
:100CD400040000014C840000014B1860704700BF01
:100CE4009800002080B505460E461746984605F044
:100CF4006FF8034607F0F4F90446DFF8189042460B
:100D040049F8003039463046A84754F8090001F044
:100D1400B9FA00BF080000002DE9F047058B04462E
:100D24002807904611D4022905F0070540F0CD802C
:100D3400204605F0BDFF78B10138218B042811D875
:100D4400DFE800F0C3106D85950001290CBF45F064
:100D5400100545F02005258388F31188BFF36F8FB4
:100D6400BDE8F08701F0070AAA4500F0A680002735
:100D7400B9463E46A368002B00F0BD8041F008014F
:100D8400218388F31188BFF36F8FA168002900F0D5
:100D9400BB800D68002900F0B780334652462046D8
:100DA400D1F80480C047002D76D02B6829461D4613
:100DB400F0E701F007035A1F012A1BD8002221F093
:100DC4000701062B276889B2C4E9002209D13B46F2
:100DD40003E0628B013262831B68002BF9D141F07E
:100DE40002012046218305F063FF00287BD041F0F7
:100DF400200177E0042B0AD121F0070189B22046B3
:100E0400218305F055FF10B141F020012183218B8E
:100E140001F0070AAA4550D00027B946AAE723697A
:100E240021F0070141F00601062DD3F8009021833B
:100E34002DD1B9F1000F40D041F00801218388F38E
:100E44001188BFF36F8F20463949C84729E021F044
:100E54000701236941F0040189B2042DD3F80490F9
:100E64002183E6D000274FF0040A3E4682E721F0B2
:100E74000701236941F0050189B2052DD3F80890D3
:100E84002183D6D000274FF0050A3E4672E700279B
:100E94004FF0060A3E466DE72B4687E7B9F1000F8F
:100EA400D1D14FF02003EFF3118883F31288BFF3FD
:100EB4006F8F238B23F008032383258BEA062ED51B
:100EC40025F01003238305F007056669218B002EA6
:100ED400BFF66FAF00232768C4E9003321F0070190
:100EE40041F001012183218B4FF0000901F0070A31
:100EF400AA457FF43FAF002F9BD041F00801218326
:100F040088F31188BFF36F8F002FC7D03D6839462F
:100F140033465246204605F0F7FE2F46F4E7AB066B
:100F24007FF51AAF25F02003238305F00705FFE6BC
:100F3400396D0000044608B54FF02002EFF3118329
:100F440082F31288BFF36F8F03F004FA204601F096
:100F54004FF9034805F0BFFD01F0A4FAFCE700BF18
:100F6400078900002DE9F047044607464FF00109C0
:100F7400DFF8508014B93846BDE8F08794FAA4F538
:100F8400B5FA85F509FA05F32E0108EB05156FEAA4
:100F9400030A24EA03042B7B002BEBD058F8063019
:100FA4001B694BB94644736804222846196807EA4A
:100FB4000A0700F051FADDE7284698470028D9D1FE
:100FC400F0E700BFB484000030B5002289B00F49B7
:100FD4000F4806F0DDFF002200230024CDE906239C
:100FE4000E230C4DCDE903344FF440722846CDE96D
:100FF4000144094B0949009404F076FA084928464B
:1010040006F077FE204609B030BD00BF291000006D
:1010140028070020A002002001130000E011002096
:1010240030890000014804F08DBB00BF8C02002011
:101034002DE9F04780461F480F4606F07DF9064625
:10104400002830D000252846BDE8F087237B73B103
:101054002368DB680BB12046984723681B69D3B922
:10106400636804222046196800F0F6F9013610344A
:101074004C45EBD3B8F1000FE5D0002DE2D0284663
:10108400FFF770FF0546002FF7D000214FF4A4703E
:1010940004F084FEF1E7204698470028E0D00AFADD
:1010A40006F31D43E2E705464FF0010A024CDFF860
:1010B4000C90DDE7C0080020B4840000C484000064
:1010C400014B53F8200070470085000008B5034623
:1010D40008462BB1044A136000F072FC002008BDDE
:1010E4006FF01500FBE700BF9C00002010B5044C16
:1010F400237813B9034804F025FB0123237010BDA2
:10110400D01100208C02002010B50446064806F0D9
:1011140013F93CB1054BD3E8EF1F0139C3E8E21FD3
:10112400002AF8D110BD00BFB8080020BC08002078
:1011340000200146034BD3E8EF0FC3E8E21F002A67
:10114400F9D17047B808002070B5FFF7F1FF0546E4
:10115400074C084EB44200D370BD63685B792BB171
:1011640023685B6813B12946204698471034F1E799
:10117400B4840000C484000010B5044C0449204623
:1011840005F06BFF034B1C6010BD00BF0002002084
:10119400EC840000B008002008B50023074A4FF48F
:1011A40000411370064A07481360074A1360FFF7AB
:1011B4008DFFBDE80840FFF7DFBF00BFD11100205D
:1011C400B808002039730000BC0800200146002242
:1011D4000023014805F062BF00020020014805F029
:1011E400FBBF00BF00020020024B0146186806F056
:1011F40045B800BFB0080020014806F07BB800BF26
:101204000002002070B5264B1878002847D0FFF75D
:10121400E5FF054670B1234BD3E8EF1F0139C3E85E
:10122400E21F002AF8D1204C204EB4422DD3284688
:10123400FFF7DAFF1E4B1F4C1B68002B19DD06F06D
:10124400A5FE4FF47A72A0FB020302FB0131C30B2B
:1012540043EA4143D4E900209B1A40F2E9324FEAC1
:10126400D13161EB0001934271F1000101D3FFF729
:101274006BFFD4E9003213F57A7342F10002C4E93A
:101284000032BDE87040FFF7B7BF63685B7923B1F4
:101294002368294620461B6898471034C5E770BD6B
:1012A400D0110020BC080020B4840000C4840000D5
:1012B400B80800202007002070B50D4D297861B9C9
:1012C4000120FFF7B5FE0B4C0B4EB44206D3FFF7DB
:1012D40099FF0028FBD101232B7070BD63685B79F3
:1012E4001BB1236820469B6898471034EDE700BF84
:1012F400D1110020B4840000C484000000212DE931
:10130400F0470846FFF794FE044658B340F2676876
:101314004FF0000906F0E4FE1B4B1C4A1B581360F7
:1013240033B11B4B1B68092B02DD1A4804F00AFA7F
:101334000025194FDFF85CA044B12046FFF712FEE8
:10134400044618B94FF0FF384FF0FF39FFF75AFF42
:10135400064628B9B5B942464B46504604F016FA3B
:101364003546E9E74FF0FF384FF0FF39D2E72B68F5
:101374009B691BB100222846114698471035BD428F
:10138400F5D3E8E7054DFAE708000000B4080020AB
:10139400BC0800208C020020C4840000B484000037
:1013A40013B5184805F0C8FF174B1B787BB14FF0F5
:1013B4002003EFF3118483F31288BFF36F8FFFF7D9
:1013C40021FF84F31188BFF36F8F02B010BD0F4B60
:1013D4001B68002BF9D050B9002200230C48CDE93A
:1013E40000234FF40042002304F0C4FEEDE7092873
:1013F400EBD1074806F0D8FD064802B0BDE810401E
:1014040004F0A0B9BC080020D1110020B4080020C9
:10141400280700208C02002010B5064B04461B68E8
:1014240098472146A060044805F0B6FEBDE8104088
:10143400FFF7B6BF9C00002000020020044A054BC1
:101444009B1AB1EBD30F34BF52F831000020704720
:101454003C840000B4840000084B10B4C31A4468F0
:101464001B110133237143689A7101224368196087
:1014740043685A7110BCFFF739BE00BFB484000042
:101484002DE9F04F8FB0C1F34A2804AF0D469146C1
:10149400B8607B600C0DB8F1000F63D000264FF0EC
:1014A400040B4FF00A0A07F11403C7F80C80C7E9CC
:1014B40007667E620193CDF808B0CDF800A007F16D
:1014C4001C0332464846F968FFF72CFAB0F5006F62
:1014D40003461CD36C468AB0D9F8041004AB2648E2
:1014E4001A46C3E9050140F2FF71D9614FF4007156
:1014F4001984224B42F8103F4FF4125133462048CE
:10150400FFF7BEFFA5462C37BD46BDE8F08FC0F3FC
:101514000A0804F11700184420F0070080083B6013
:10152400FFF754FE68F35325044690B13B6800F17D
:101534001001C7E9083607F11403F961CDE900A3E6
:10154400CDF808B048460F4AF96807F11C03FFF7C5
:10155400E9F968F353252A4620467B68B96805F003
:101564001DFFD0E704F1170020F007008008FFF703
:101574002DFE0446EDE700BF45890000040000018C
:101584006C840000757300002DE9F04F87B00446A9
:10159400DDE9105ADDE912690F4693469846A6B371
:1015A4001021334652460020CDF80090CDF8149017
:1015B400FEF7E6FF014605F117000844144B04F05A
:1015C40007040BF0070BE40020F0070003EA4123B3
:1015D40044EA8B1480081C430391FFF7F7FD44EAA7
:1015E4000554054640B13EB1334652460399CDF801
:1015F40000901030FEF7C4FF434622463946284681
:1016040007B0BDE8F04F05F0C9BE3146D3E700BFCF
:1016140000FE0F000EB403B503AB53F8042B0146D0
:101624000448019301F0A4F902B05DF804EB03B09F
:10163400704700BFB3740000CA0605D48B064CBFC4
:1016440002490349FFF7E6BF704700BF85890000E0
:10165400848900002DE9F04F89B09B46DDE91676B8
:101664009DF84C3004460493DDE914930593049BE0
:101674000D460692002B00F0878006F008030793BE
:1016840005F074FE06F0020A024600284BD02046FC
:101694008549FFF7BFFF8046BAF1000F08D016F066
:1016A400440F42D12A4620468049FFF7B3FF8044C5
:1016B40006F001035BB17E4B049A204653F82220C6
:1016C4007C4B7D49002A08BF1A46FFF7A3FF06F0AA
:1016D4000803002B55D0794B049A204653F8222056
:1016E4007749FFF797FF0546069B2BB11A4620461C
:1016F4007449FFF78FFF0544BBF1000F05D05A462C
:1017040020467149FFF786FF05444544B9F1000FAF
:1017140049D1002F4FD1F30700F1C0803146204654
:10172400FFF78AFFB4E08046B6E7684B18680028E4
:10173400BDD0674B4FF47A7E1B684FF46162B5FBF2
:10174400F3F5B5FBF0F300FB13550EFB05F5B3FB06
:10175400F2FAB5FBF0FC3C2102FB1A3200FB1C55EB
:10176400B2FBF1F30EFB05F5B5FBF0F501FB13221B
:1017740020460092CDE901C552465649FFF74AFF7B
:1017840095E706F00805AFE7BBF1010F06D1B9F103
:10179400000F64D1002F7BD000250CE0B9F1000FBD
:1017A400F8D04D485CE04D484B4622464C4905F084
:1017B4003AF9002F68D0DFF82C91DFF82CA1102F14
:1017C40031462046B8464FF0000B28BF4FF01008B2
:1017D400FFF732FF5D4545DC059B514620461A78EC
:1017E400FFF718FF4FF0010B1BF0070F03D1494619
:1017F4002046FFF70FFFD8453BD9059B51462046AD
:1018040013F80B20FFF706FF0BF1010BBBF1100FD0
:10181400EAD14FF0000B20463449FFF7FBFE5A464D
:10182400059B20469A5CA2F120015F2928BF2E2245
:101834002F49FFF7EFFE0BF1010BBBF1100F1DD089
:101844001BF0070F03D149462046FFF7E3FED845B6
:101854005A46E5D849462046FFF7DCFEEBE71F4829
:10186400049DA1E749462046FFF7D4FE0BF1010B86
:10187400B0E720461F49FFF7CDFEC5E7059BB7EB50
:101884000807434405939AD1049B002B7FF443AF8C
:10189400204609B0BDE8F04F05F0FCBD2046054ADE
:1018A4000549FFF7B7FE39E78C89000090890000ED
:1018B4001085000087890000B58900002485000098
:1018C400B8890000BE890000C2890000C808002051
:1018D400C408002099890000E1740000B37400007A
:1018E40075290000CF890000C7890000D189000054
:1018F400D3890000CD8900002DE9F0410F884B68A1
:1019040005460C4690468E6886B0C7F382175BB1D5
:10191400144A9B1A43F3CF01002920DB2078C0F33B
:10192400C200FFF78BFD0346214651F8102B608857
:10193400C2F34A22002A01EB020408BF002100225C
:10194400C0F30B10CDE90408CDE902142846314652
:1019540001970092FFF77EFE06B0BDE8F0810023F8
:10196400E2E700BF3C84000042F20F7373B58B4280
:1019740028BF0B4605680446052168460D4A04F055
:10198400CBFD0646636828460B225B680A4905F0CE
:1019940074FD63683246694628465B6805F06DFD50
:1019A40063681B2228465B68044905F066FD02B0A3
:1019B40070BD00BF17880000F2890000D6890000BE
:1019C40000210123064A904206D8064A01B90123A0
:1019D4001360054B18607047012140085B00F2E773
:1019E40040420F00C4080020C8080020F8B50D4686
:1019F4000446064F4618B44201D12846F8BD14F8EF
:101A0400011BBB6801485B689847F4E7C481000088
:101A1400014B0360002070476C850000014804F00E
:101A240039BC00BF6C85000038B5044618B90F4BAB
:101A34000F485B6898476168B1F5683F10D0B1F50D
:101A4400680F0DD00B4DA9420AD011F468612068CB
:101A540007D00146084806F020F90023236065609A
:101A640038BD142206F0CAFAF9E700BF900100203D
:101A7400388A00002C5F5CA9F00D002008B560B323
:101A84004368B3F5683F0ED0B3F5680F18D0144A15
:101A9400934220D000684FF0FF324FF0FF3303F041
:101AA400D7FD58B115E001220368D3E8EF1F0029E0
:101AB40003D1C3E8E02F0028F7D10AD1002008BDE4
:101AC4000368084A1B7803F5807352F82330002B0F
:101AD400F4D00548F3E70548F1E76FF4E040EEE79A
:101AE4002C5F5CA900000350E98FFFFFEA8FFFFF22
:101AF40008B520B34368B3F5683F09D0B3F5680F60
:101B040013D0114A93421DD0006803F065FD14E020
:101B140000220368D3E8EF1F012903D1C3E8E02FB3
:101B24000028F7D109D0094808BD00210368084AF4
:101B34001B7803F5807342F823100020F4E76FF458
:101B4400E040F1E70348EFE72C5F5CA9E98FFFFF72
:101B540000000350EA8FFFFF10B5044618B91D4B6F
:101B64001D485B6898476368B3F5683F2FD0B3F5A9
:101B7400680F2CD0194A934219D1236803BB4FF044
:101B8400FF324FF0FF332146154803F041FC08B9FA
:101B940023681BB90F4B13485B6898471422002134
:101BA400206806F02BFA4FF46863636008E0B3F52D
:101BB400683F0DD83A2B03D040F6BA629342DED187
:101BC400206806F0AFF8636843F03A03636010BD21
:101BD400054AF3E790010020388A00002C5F5CA9D5
:101BE400F00D00205E8A00003A00003A08B506496C
:101BF40040231422054806F042F8BDE80840044991
:101C0400044804F0B9BB00BFF0080020F00D002028
:101C140074850000888500002DE9F04780460C4655
:101C240000AF002936D0D1E90012E9468AB06D46EA
:101C3400A3684FF0050A2E461A48C5E90723C5E9EB
:101C4400050146F810AF002332464FF421511648DF
:101C5400FFF716FCD4E90312CD466369AD46134879
:101C6400C5E90723C5E90501C5F810A000233246DC
:101C74004FF421510C48FFF703FCCD46E3690121E1
:101C84000B4A094805F0E3FBA3690121094A064808
:101C940005F0DDFB2146404603F03AFABD46BDE8B7
:101CA400F08700BF8B8A000094840000BA8A000089
:101CB400E98A0000F88A000030BFFFF7FDBF00BFCB
:101CC400114B124A2DE9F041D518013DB5FBF3F54E
:101CD400DFF83C805D430F4B074608EB0304013CEF
:101CE400B4FBF3F403FB04540E1B30460A4906F01C
:101CF40078F9701942460021083E06F07FF93E67E4
:101D040004F10800BDE8F0810100000000000000BB
:101D14000400000004000000C4840000044B99681F
:101D24005869884203D003494FF080520A607047D3
:101D3400C80F002004ED00E070B52A4C06460D469D
:101D440029482A4905F00FFCA36ADB0647D5264833
:101D5400274905F008FC1120A36A1C0704D5224872
:101D6400244905F000FC12201E4CA36A990712D5E1
:101D740021491D4805F0F7FB636BA26A120609D5D9
:101D840001211E4A184805F062FB1EB1A36A23F024
:101D94008003A3621320134CA36ADE0704D5124800
:101DA400174905F0E0FB1420A36A9C0604D50E48ED
:101DB400144905F0D8FB15200A4B9A6AD10658BF7E
:101DC4009A6A9A6A920642BF5A6A22F400525A6286
:101DD4009A6A42F0FF029A6200232B7070BD1020B1
:101DE400BAE700BF00ED00E094840000268B0000F9
:101DF4003C8B00006F8B0000828B00009A8B0000EC
:101E0400B08B0000CF8B000010B5244C244925482A
:101E140005F0A9FBA36A99013ED52248224905F0A1
:101E2400A2FB1E20A36ADA0104D51E481F4905F04F
:101E34009AFB1F20194CA36ADB0204D519481C49DC
:101E440005F091FB0220A36A1C0304D51548194927
:101E540005F089FB2120114CA36A590304D51148CC
:101E6400154905F080FB2220A36A9A0304D50D4886
:101E7400124905F078FB2320084CA36ADB0304D540
:101E840008480F4905F06FFB2420A36A6FEA034357
:101E94006FEA1343A36210BD1D20C3E700ED00E009
:101EA400FE8B000094840000168C0000298C000036
:101EB400438C00006D8C00008B8C0000B08C000003
:101EC400CA8C000070B5294C06460D46284829499D
:101ED40005F049FBA36AD9043CD52548264905F0F9
:101EE40042FB1720A36A1A0504D52148234905F0AB
:101EF4003AFB18201D4CA36A9B0512D51C482049A7
:101F040005F031FBA36BA26A100409D501211D4A17
:101F1400174805F09CFA1EB1A36A23F40043A36298
:101F24001920124CA36A590504D51148164905F025
:101F34001AFB1A20A36ADA050ED50D48134905F0D9
:101F440012FB1B20094A936A43F47F4393620023E4
:101F54002B7070BD1620C5E7A36A9B04F2D5044814
:101F64000B4905F000FB1C20ECE700BF00ED00E08E
:101F740094840000F58C00000B8D00006F8B000032
:101F84001C8D0000358D00004A8D0000658D000019
:101F9400CF8B00002DE9F0418AB0654B0446D3F89D
:101FA4000480002600AFC8F3080586F31188BFF348
:101FB4006F8F02F07F43B3F17F4F07D102F00C0320
:101FC400082B12D15B495C4805F0CDFA0026344653
:101FD4000023FB71EB1E092B00F28980DFE803F07C
:101FE4000A7F827C87878787878510074CBF0C46CA
:101FF4000126EDE75149504805F0B5FA00234C4D50
:10200400FB71EB6A9A0705D54D494B4805F0ABFACD
:10201400002332E0EB6A002B01DA4A49F5E7EB6A68
:102024005B00F5D54849444805F09DFA6B69A269FF
:1020340043F480736B61BFF34F8FBFF36F8F6B6992
:1020440032F8022C23F480736B61BFF34F8FBFF31C
:102054006F8F4DF602739A4208D0AB6ADBB273B34A
:102064000120F91DFFF768FE034606E023680121FD
:10207400364A314805F0EBF92368FA79DAB907F101
:10208400080504F1200C2A4620686168083403C25C
:1020940064451546F7D17A6A002E44D0C2F308018C
:1020A40021B96FEA52226FEA42227A62184607F196
:1020B4000801FFF7B1FD2837BD46BDE8F081AB6AE2
:1020C40013F47F4F04D00120F91DFFF7FBFECBE78B
:1020D400AB6AB3F5803F9BD3FFF796FEC4E70020BD
:1020E400F91DBFE70020F91DEFE719498DE7194AEB
:1020F40018F4F87FE8468AB0174B18BF13466A46AF
:102104001649103DC2E905134FF400731384144BB0
:10211400D56142F8103F00234FF411510648FFF7F0
:10212400AFF9C54674E722F4FF7222F00102BCE75E
:1021340000ED00E0AB8D000094840000D68D00001B
:10214400ED8D00000E8E00001C8E00003B8E000002
:10215400578E0000928D00007D8D00007B8E000064
:1021640004000001044B5A6942F010025A615A6992
:1021740042F480625A61704700ED00E0EFF308809A
:10218400EFF3098101B57246FFF704FF01BD00BFFB
:10219400002080F31488BFF36F8F002080F30A8837
:1021A40080F30B8800F06EFD00200E490860BFF339
:1021B4004F8F0D4880F3088800F03EF8202080F30C
:1021C40011880A484FF40061401880F30988EFF33E
:1021D40014800221084380F31488BFF36F8F00F04A
:1021E40009F9000094ED00E020220020E014002012
:1021F400BFF34F8F0549064BCA6802F4E0621343EC
:10220400CB60BFF34F8F00BFFDE700BF00ED00E0E0
:102214000400FA05002318460649D1F89020C2F3B9
:102224000722934200DB7047C1F89830C1F8A00040
:102234000133F6E700ED00E010B572B6002484F334
:102244001388FFF7E7FF23464FF0FF300C4A03F1F2
:1022540020010133102B42F82100F8D100234FF064
:10226400FF30074A03F160010133102B42F82100CB
:10227400F8D162B6BFF34F8FBFF36F8F10BD00BFAD
:1022840000E100E0084B9B6883420BD1EFF3058328
:1022940043B1064B5A6842F080525A605A6A22F49B
:1022A40000425A6205F037BEC80F002000ED00E07E
:1022B4006FF00A01084A93689967084958674B68A0
:1022C40043F080534B60002383F31188BFF36F8F77
:1022D4009368986F704700BFC80F002000ED00E0BE
:1022E40016498A684FF030001044EFF3098C80E8F7
:1022F400F01F202080F31288BFF36F8F104F4FF030
:1023040000664A698A603E604FF0700414192068C0
:102314000C4C2060506F0023536780F3118802F146
:10232400300090E8F01F8CF3098802F1000004B536
:1023340005F021F9BDE8044070470000C80F0020F3
:1023440004ED00E00C0E00201EF0040F0CBFEFF3B0
:102354000880EFF30980816911F8021C0229FFD07B
:1023640001B505F0F5F801BD40B2002807DB0123F3
:102374004109034A00F01F00834042F821307047AE
:1023840000E100E040B200280CDB012206494309C9
:1023940000F01F008240203341F82320BFF34F8F09
:1023A400BFF36F8F704700BF00E100E0054B4209A7
:1023B40053F82220012300F01F0003FA00F010401C
:1023C400704700BF00E100E040B2002801F10101C4
:1023D400ACBF00F16040064B4FEA4111C9B2ABBF3C
:1023E40000F5614000F00F0080F8001319547047A5
:1023F40014ED00E00B4A08B50B4B22F07F029A6003
:10240400BFF34F8FBFF36F8FD3F8882022F470028D
:10241400C3F8882002F030FF03F0E0FC00F078F805
:1024240002F074FF0000000000ED00E042F8203CE0
:10243400009B0B4942F81C3C019B21F0010142F82E
:10244400183C029B42F8081C42F8143C4FF080737D
:1024540042F8043C0023203A02654367704700BFFA
:10246400E90C00000A4B046F98600A4B1C60036E71
:1024740083F30B88104681F30988002163B681F346
:102484001188BFF36F8F00220023FEF72BFC00BFDF
:10249400C80F00200C0E0020014910220A6070476A
:1024A40010ED00E072B6404080F31188BFF36F8FE7
:1024B40001B500F0E5FA00280AD0BFF34F8F30BF12
:1024C40000BF00BF00BF00BF00BF00BF00BF00BF10
:1024D400BDE8014062B6BFF36F8F704772B64940E2
:1024E40081F3118801B500F0CBFA00280AD0BFF3BC
:1024F4004F8F20BF00BF00BF00BF00BF00BF00BFA1
:1025040000BF00BFBDE8014080F3118862B6704788
:10251400002320210348C2180133452B82F80013FD
:10252400F9D1704700E100E001B5EFF30580A0F1B7
:1025340010004FEAC0000449014409C99847BDE8A6
:10254400014002490847000014820000211D0000D8
:102554001FB5094C094A23460121094800F00AF92C
:1025640000230393074B0121E41A01A80193029469
:1025740000F00AF904B010BD00000720000000209C
:1025840098850000A002002010B50C7A0B6804F0B6
:102594001F0223F01F031A43CB68640923F01F03AF
:1025A400054943EA440343F00103C1F89800C1F824
:1025B4009C20C1F8A03010BD00ED00E0072810B544
:1025C40008D901210346054A054804F040FF6FF08D
:1025D400150010BDFFF7D8FFFBE700BF928E000087
:1025E4008C8400002DE9F04F8946144606464FF0CE
:1025F4000008514D85B0C84527DAD6F804A0BAF1D1
:10260400000F44D0BAF11F0F17D91AF01F0F14D1BD
:10261400D6F800B01BF01F0F0FD1584604F0AFFFDF
:1026240007460AEB0B00013804F0A9FF874210D0DB
:102634006FF01507414A3B4601E04346404A0121F9
:10264400404804F004FF6FF01504204605B0BDE8CF
:10265400F08F17F1160FEDD0BC42EBDDC5F8987082
:10266400D5F89C10C5F89870D5F8A03021F01F015A
:1026740043F01F0BD6E900321A44994202F1FF3AA3
:102684001DD1D34507D13146F8B204F081FF08F1DA
:1026940001080C36AFE73146C5F89870D5F89C3080
:1026A40022F01F0203F01F031343C5F89C30E0B26D
:1026B40004F06EFF10F1160FC5D0441CE7E7C5F80F
:1026C4009870D5F8A020013B23F01F0302F01F02ED
:1026D4001343D3453146E0B2C5F8A030E8D004F046
:1026E40057FF10F1160FAED0C5F89870D5F89C209E
:1026F4009DF808300BF1FF3B62F304038DF80830BA
:10270400D5F8A0309DF808205B0863F347128DF8D4
:102714000820D6E900321344009323F01F035B44DE
:10272400A3EB0A03013023F01F036946C0B20393ED
:10273400FFF744FFBEE700BF00ED00E0DB8E0000C2
:10274400B88E00008C8400000522044BC3F894204A
:10275400BFF34F8FBFF36F8F704700BF00ED00E0F2
:10276400BFF35F8F0022024BC3F89420704700BF71
:1027740000ED00E010B5034C2278FFF733FF207022
:1027840010BD00BFD31100202DE9F74F294D8A4613
:1027940006464FF00008AB46274FD0451BDAD6F863
:1027A4000490B9F1000F3FD031680846019104F05C
:1027B400E6FE0199044609EB0100013804F0DFFE4E
:1027C40084424FF014021D4B08D002FB08F36FF053
:1027D40015024BF8032003B0BDE8F08F14F1160F77
:1027E4002C60F8D01978A142F5DD02FB08B0C7F8D7
:1027F4009840C7F89840D7F89C4000F10801007B46
:1028040064F304000871D7F8A0000C79400860F361
:1028140047140C71D7F89C1021F01F016960D7F898
:10282400A01021F01F01296108F1010814350C36AC
:10283400B3E700BF100E002000ED00E0D31100202C
:10284400F0B53A4D87B02C68082C6CD80020FFF7FF
:1028540087FF374B374AC3F8C02084420DD1364D29
:1028640001A82C70FFF7D4F800240646334FA64283
:102874000AD1FFF769FF002053E0696801EB0011FA
:10288400FFF782FE0130E8E70199200101EB041310
:10289400DA683A40B2F5001F22D0B2F5800F2CD08E
:1028A400B2F5801F36D15A689B680958013B22F063
:1028B4001F0003440120844623F01F0340EA4C1008
:1028C400CDE902218DF8100002A928780593FFF7BD
:1028D40075FE002823DB2B78013401332B70C6E707
:1028E4005A689B680958013B22F01F0003444FF0CB
:1028F400020C012023F01F03E0E75A689B68095883
:10290400013B22F01F0003444FF0000C062023F08B
:102914001F03D3E701210A4A0A4804F08FFD6FF030
:10292400150007B0F0BD4FF0FF30FAE7A4850000B2
:1029340000ED00E0AAFF4400D31100200000F0FFE6
:10294400FE8E00008C84000008B5024B1B6898477B
:10295400002008BD240E0020034B044A186093781D
:1029640043F0020393707047240E0020C800002037
:10297400F0B587B007460E4614460021102268467B
:102984001D4605F03BFB02238DF80230054B2A4619
:1029940021466846CDE90476019303F0E9FD07B0CA
:1029A400F0BD00BFC775000008B50649064821F010
:1029B4000701C1F1005202F5E02204F021F90020E0
:1029C40008BD00BF27220020280E002007B50DF106
:1029D400070004F0F5FF114B98421CD14FF48062BC
:1029E4000F4B1049C3F8B8254FF40062C3F83C25D7
:1029F4009DF8070004F0D0FF0B499DF8070004F090
:102A0400C6FF01209DF80730984001F025FE002004
:102A140003B05DF804FB6FF00B00F9E70000AD0BA9
:102A240000A002502CA0025028A10250054B03EB39
:102A34008000D0F8003223F0E04343F04053C0F864
:102A44000032704700258450012208B50A4B0B4917
:102A5400C3F8002502230020C1F8D036FFF7E6FFB3
:102A64001046FFF7E3FFC1F80427C1F80429C1F8B1
:102A7400002B002008BD00BF001000500040005093
:102A8400052370B5144D154E2C780134B4FBF3F3C3
:102A940003EB8303E41A04F068FF114A137823B1AB
:102AA40056F82430C01A072814D94FF05023D3F80D
:102AB400141141B10021C3F81411D3F814312C704E
:102AC4000CB9012313702C7804F04FFF46F824004E
:102AD400012070BD0020FCE7D5110020340E002039
:102AE400D411002048B1054B054A1B68B3FBF2F32F
:102AF4005843044B43F0010318477047FC0000207F
:102B040040420F00D084000070B5049CC4F3072633
:102B1400304601F025FAE5B20146284604F048FFA4
:102B240000220120074BA40B04F0FC041A51A84016
:102B340001F098FD304601F0C7FB2846BDE870401F
:102B440001F084BE80A0025073B501A801F078FEA4
:102B5400264B984247D101F099FB041E0ADA9DF8EE
:102B6400040001F073FE01212346214A214804F0A8
:102B74006EFC35E040F607031F4D8DF80540AE6846
:102B8400ADF806307468019B14B96FF05704EAE796
:102B940008212846194AA047041EE4DB3369002BA8
:102BA400F3D00122082128469847041EDBDB0120CC
:102BB4009DF80430984001F04FFD9DF805009DF804
:102BC40004509DF8076004F0BBFE0146284604F05B
:102BD400E3FE0B4BB60045F000459D51002CC2D1DD
:102BE400204602B070BD6FF01204BCE70000AD0BCC
:102BF400338F0000A4840000D8810000092C000059
:102C040080A102502DE9F341144683681B690BB17E
:102C140000229847C4F30726304601F0A9F9054677
:102C2400304604F08DFE4FF00008E7B20146384606
:102C340004F0C2FE104B220E920043F8028030468C
:102C440001F08EF90D4A4FEA943C0CF0FC0C47F06D
:102C5400004342F80C300146384604F098FE084B15
:102C640005F132020093304643460194520004F0C9
:102C740070FE02B0BDE8F08180A1025080A0025035
:102C84000D2B000001F0A0BB13280ED8084A12F83F
:102C9400103053B102EB4002527832B1086843431A
:102CA40093FBF2F300200B6070476FF01500704740
:102CB400648F00000122054BC3F8002590F87610BC
:102CC40009B1DA6070471A605A60704700E000503A
:102CD40070B5087900F01F04072C1DD80B780B2B56
:102CE40015D8DFE803F007070707140614140E10BD
:102CF400141204234A78032A11D0042A21D02E4A1C
:102D040006E00523F6E70623F4E70723F2E72B4A58
:102D140001212B4804F092FB6FF0150070BD0125D2
:102D240044F20A064A88B2423FD00CD844F2030661
:102D3400B24216D044F20506B24234D0AAB3214AB4
:102D4400E6E70025ECE744F21406B2422FD044F241
:102D54002806B2422DD044F20F06B242EFD103222C
:102D640000E00022C0F340101B0243EA005300209D
:102D740043EA053343EA0243220102F1A04202F589
:102D84006042C2F8183523018A7903F1A04303F5A0
:102D94006043C3F81425C3F810050B4B4A79234448
:102DA40083F89020BAE70122DCE70222DAE7042262
:102DB400D8E70522D6E700BFAB8F00008C8F000058
:102DC40044840000CF8F000000000020F7B50D46BA
:102DD4004FF0FF334FF0FF32604802F0D7FC6E68CB
:102DE400731EFE2B05D95E4A01215E4804F026FBC2
:102DF40012E000231A465C485C4F26FA03F111F0F6
:102E0400010134D017F803C0BCF1000F0CD1584AAB
:102E14000121544804F01BFB6FF015044F4802F0E5
:102E240091FC204603B0F0BD6C7C00EB031E003C1B
:102E340018BF0124DEF81815013221F0807141EA2F
:102E44000461CEF8181503F15101090140F801C0DD
:102E5400D2B20133082BD0D12B7CA3F1080106296F
:102E640016D8DFE801F0171519150915130003F139
:102E7400510424010151ECE702233B49012AC1F822
:102E8400F0356B7C0AD95BB13A4AADE70323F4E72A
:102E9400394ABDE70023F0E70123EEE7082B10D8F9
:102EA400C1F8F4352B6851006BB9EB688B420ED234
:102EB400324A00912B48012104F0D3FA6FF00B043D
:102EC400ACE72F4AA4E79B8903FB0111EDE72F46EA
:102ED400A968254B2B4CC3F82C1604F16406C3F8DF
:102EE40030260FCF0FC63B68274633600026266680
:102EF4002B6873B30FCB04F1780585E80F00656682
:102F0400A4F8886028B3D7E8EF3FC7E8E26F002A47
:102F1400F9D11D494FF400400F463146A56F0023F7
:102F2400E5FB0071194A3846FDF712F90022CDE994
:102F34000001002304F1080003F01CF94FF0FF32F4
:102F44004FF0FF33124802F021FC00B12066246EDA
:102F540064E70C48FFF7AEFEF0E700BF4000002036
:102F6400FA8F00004484000000E00050900000202C
:102F7400189000005790000032900000AC900000C0
:102F840089900000000000203F420F0040420F00E3
:102F94005000002010B500240D4B0E20C3F804414E
:102FA400D3F80421C3F81041D3F810211222C3F836
:102FB4000423FFF7D9F9224601210E20FFF704FA72
:102FC4000448836C13B9403002F0BCFB002010BDF0
:102FD40000E000500000002038B52C4BD3F8042149
:102FE400002A45D00022C3F80421D3F8041101219A
:102FF400274C9960C3F80025636E25469BB3E36FA5
:10300400B4F8882033B104F164019847012814D03E
:10301400022823D0B4F88830B4F884209A421DD909
:103024000133A4F88830194BD3F82C26D3F834167E
:1030340089B202EB4102C3F82C26A36F23B9BDE881
:1030440038401348FFF736BED5E8EF3F5A1EC5E8AF
:10305400E12F0029F8D1012BF1DC38BDA36F13B1A6
:103064000C4804F0A1FFBDE838400B4802F06ABBED
:10307400D3F810110029F0D0C3F81021D3F810218F
:1030840001229A601A605A60E7E700BF00E000502E
:10309400000000200800002050000020084B70B5FC
:1030A400C31A0D4607499B1004465943402206485B
:1030B40004F0C1FA2B4601462046BDE8704018478B
:1030C4005C0E0020B76DDBB688810000402373B529
:1030D4000B4C0093041B0B460D460A49A410614394
:1030E4000646094A094804F0D2FA011E05DA3046B8
:1030F4002B4602B0BDE87040184702B070BD00BF57
:103104005C0E0020B76DDBB6FD7600008881000000
:103114002DE9F8430022012106460520FFF754F962
:10312400114801F0A5FA114B984219D101F0B0FAF7
:1031340000244FF01C090C27DFF834803569414620
:1031440009FB045003F004FE002807DB012307FBFE
:1031540004551C44042CAB67F0D10020BDE8F8836F
:103164006FF00400FAE700BFAD3100000000AD0BC2
:10317400D885000001460C2300224B4370B5084853
:10318400C41878331844D4E91C56226704F040FA72
:103194002DB132462B46BDE870400248184770BD39
:1031A4005C0E002088810000062812D8DFE800F0B9
:1031B400040F1111110D0B00064B986F10F007004E
:1031C40007D1FFF7D7BF0220FBE70320F9E701206F
:1031D400F7E770475C0E002008B54FF02003EFF3CB
:1031E400118183F31288BFF36F8F124A136843F07F
:1031F40002001060DA0708D481F31188BFF36F8FDF
:10320400BDE80840012001F05BBA4FF05023D3F829
:103214000C24D3F80C34DB07EED5074804F0F8F996
:1032240081F31188BFF36F8FBDE808400020FFF7DA
:10323400A1BF00BFFC0E0020D40E00201FB5002249
:103244000123CDE902236B46084ACDF800D0CDF81E
:1032540004D004F04AFA002805DB4FF4804200232E
:10326400684602F093FA05B05DF804FB337700007A
:1032740010B54FF02003EFF3118483F31288BFF3EA
:103284006F8F074A136823F00201DB07116002D431
:10329400012004F048FC84F31188BFF36F8F10BD44
:1032A400FC0E00202DE9F041012207463749D1E800
:1032B400EF3FC1E8E02F0028F9D133B9344935484C
:1032C4004B60CB608A6003F056FD7B1E012B2BD82C
:1032D400012F07D14FF05023D3F81C3403F003031C
:1032E400022B21D004F0FFFC0546F8B92A4B1B78C9
:1032F400E3B14FF0502302220646C3F808234FF0EF
:103304005024DFF89880D4F81824D4F81834D20361
:1033140016D503F00303022B01D0012F10D175B38E
:1033240086F31188BFF36F8FBDE8F0814FF020035F
:10333400EFF3118683F31288BFF36F8F0125DEE765
:10334400C5B13046FFF7CAF8D4F81835DBB2012B03
:10335400D9D1D4F80421002AD5D00022C4F80421FC
:10336400D4F804210222C4F818252022C8F88021A8
:10337400A360C8E70021212002F010FDE4E74FF02C
:1033840050230222C3F80423CEE700BF580E0020C6
:10339400480E0020780E0020D811002000E100E043
:1033A40008B5074804F046FC38B10648FFF7D4FADC
:1033B4000448FDF791FC002008BD6FF01200FBE704
:1033C400C4810000CD3300000A2838B50446074DF7
:1033D40004D1AB680D2128465B689847AB68034865
:1033E4005B68E1B29847204638BD00BFC481000045
:1033F400F0B5406801F01F04057B87B044EA45142A
:103404000569002D63D0B2F5001F00F1100506D147
:103414002146284604F007FC002007B0F0BD002731
:10342400B2F5800F01AE0197776039D1B3F1007F17
:1034340014BF052304238DF804300023CDE904636D
:103444000393836823FA01F111F001011AD1B2F157
:10345400A07F17D104F01F03620903F180032AD06F
:10346400012A3AD11E4A52F82330DB070AD40DF15F
:10347400030632462146284601F054FC194B984273
:103484001BD002962146284603AA01F007FB164BDF
:1034940098421FD101222146284601F0A9FCBBE72E
:1034A400B3F1C06F05D0B3F1007F14BF0123022331
:1034B400C1E70323BFE70D4AD5E73146284601F0AB
:1034C40091FC094B9842DCD06FF00B00A5E76FF03C
:1034D4008500A2E76FF015009FE751F82330FFDE67
:1034E400002884500400AD0B0000AD0B002584506F
:1034F40038B545682B69B3B11035284601F062FC34
:10350400044680B90146284601F026FC084B98423F
:103514000BD122462846074901F0FEFB224605212D
:103524000D20FEF751FF002038BD6FF00400FBE7CB
:103534000000AD0B3D3500004209034670B502D0D2
:10354400012A17D070BD0D4E326951680029F9D097
:10355400012503F01F030C689D400029F2D08A68FE
:103564002A4002D030464B6898472CB12368214644
:103574001C46F2E7024EE7E72346F8E7B081000075
:103584009C8100002DE9F04340F206354668D006E0
:1035940048BF0320337B02EA050558BFC2F340103D
:1035A40087B001F01F07B5F5837F144647EA431738
:1035B4008DF8030043D00FD8062D18D007D8B5B125
:1035C400022D3ED06FF0150007B0BDE8F083B5F5CD
:1035D400807FF7D101250AE040F20222954232D0E1
:1035E400B5F5407F31D0B5F5007FEBD1022522033C
:1035F4002DD5012372688B409360326982BB07F03A
:103604001F037F092AD0012F77D13E4A02EB8302A0
:1036140084F48033D2F80012C3F30043C4F340446B
:1036240044EA430421F4706144EA800421F00F0168
:1036340044EA05230B43C2F800320020C4E70725FF
:10364400D5E70425D3E70525D1E70325CFE76303B1
:1036540041BF012372688B40D360CEE72A4AD5E785
:103664001036394630460DF1020201F05BFB14F4CA
:10367400403F80460CD13946304604F0D2FA234B01
:103684009845DAD130469DF8021001F0A5FBD4E745
:103694004FF0000901AB3946304603AACDE904399D
:1036A400CDE90199CDF80C9001F0F8F9174B984247
:1036B40088D114F4003315D09DF8033084F4803499
:1036C400C4F300448DF80E3039464B46304603AA05
:1036D4008DF80C508DF80D4001F09CFA0B4B98427C
:1036E400CDD06FE7CDE9043339460DF103033046FD
:1036F40003AA039301F0D2F9F0E7803352F82330A0
:10370400FFDE00BF00288450002584500000AD0B6C
:10371400B0B500AF224D284604F08CFA034678BBBE
:103724006C4688B029686A461E48C2E905014FF410
:10373400007191831C4942F8101F4FF4E2511B4859
:10374400FDF79EFEA5466FF012042046BD46B0BDAF
:103754002B686D468AB06A461549C2E905131523DC
:10376400C2E907344FF400739384124B42F8103FBC
:1037740000234FF431510D48FDF782FEAD46E4E7D6
:103784002A69A9681368284623F4001313600B6898
:103794004FF4C02215219847041ED9DB0024D4E736
:1037A400B08100003B91000003000001648400002C
:1037B400529100000500000110B504460269A2B050
:1037C400C2F880001F49002001F03AFC00220121C8
:1037D4002A20FEF7F9FD64688422002101A804F080
:1037E4000DFC6368B3F5803F04D30221164A1748E1
:1037F40003F024FE2368B3F5803F04D30221144A66
:10380400124803F01BFE00230120219301AA6168E2
:103814000432D940C90744BF00FA03F142F8041C3A
:103824002168D940C90748BF00FA03F103F1010335
:1038340048BFD163102BEAD101A801F019FC002084
:1038440022B010BD3139000095910000848400003D
:10385400C191000038B50F290C4605693CD843686E
:103864001B68CB40DB0737D5D5F88430CB4003F059
:1038740001031AB9EBB96FF077002CE0002BFAD1F1
:1038840055F8213023B90221154A164803F0D6FD14
:10389400D5F8843013B92A20FEF766FD0122D5F845
:1038A4008430A2401343C5F88430E0B201F000FC38
:1038B4000AE0C8B201F004FC0122D5F88430A24029
:1038C40023EA0203C5F88430D5F8843013B92A20DA
:1038D400FEF758FD002038BD6FF01500FBE700BF70
:1038E400ED9100008484000038B505460C4622B1F1
:1038F40002210C4A0C4803F0A1FD0F2C0ED86B6872
:103904005B68E340DB0709D501230020A400E4B28F
:1039140004F1A04404F52834236038BD6FF0150089
:10392400FBE700BF1D9200008484000070B5D1F84D
:1039340080600F2804460D46736803D81B68C34093
:10394400DA0704D402210E4A0E4803F077FDD5F8B5
:103954008430E340DB0704D402210B4A094803F016
:103964006DFD05EB840255F824503DB121463046E7
:10397400AC46BDE870400023126C604770BD00BFC8
:10398400389200008484000054920000036803F01D
:103994001F025B09026004D0012B034818BF0020FA
:1039A40070470248704700BF0028845000258450A7
:1039B4002DE9F04F15468246DFF88081DFF88091CB
:1039C40085B000EB8101514503D1002005B0BDE86D
:1039D400F08FDAF80030C3F34322082A03F07F049F
:1039E40000F2A5807F2C4FEA134308BF4FF0FF3449
:1039F40018F80270192B00F29D80DFE803F00D1413
:103A04001A1D20261D9B9B9B9B366265686B6E71FD
:103A140074779B9B7A8F9295C5F80C45601C72D184
:103A24000AF1040ACFE7C5F81445621CF8D0002651
:103A340072E0C5F80845F1E7C5F81045F5E7631CE1
:103A4400C5F80845ECD0002604E0C5F80C45661C12
:103A5400E6D001264FF0010B03A80394FFF796FF6D
:103A6400039B0BFA03F3C36008E0C5F80845002F75
:103A7400DBD1601CD4D000260627B346DAF8003028
:103A840003A803F40052002A1CBF01264FF0000BC8
:103A940001930394FFF77AFF039A019B00EB8200E2
:103AA400D0F80022C3F3C1143B0243EA840343EA7F
:103AB4000B0302EA0902134343EA4603C0F8003247
:103AC400AEE7C5F80C45D2E7C5F86445BFE7C5F8CD
:103AD4006445AAE7C5F86845B9E7C5F86845A4E7A9
:103AE400C5F86C45A1E7C5F87045B0E7C5F8604571
:103AF400ADE7C5F86045621CDAF8003090D0C3F336
:103B04008033002BA5D0012603A80394FFF73EFFC2
:103B1400039B06FA03F38360B346AFE7C5F8644535
:103B2400E9E7C5F86845E6E7C5F86C45E3E76FF0F3
:103B340015004BE76FF0850048E700BF8A9200004C
:103B4400F0F0FCFF2DE9F74306464FF00008002291
:103B540001210820FEF738FC0820FEF705FC7768F1
:103B640035693C684146C4F800852E60D7F80C904E
:103B740001AA484603F03DFE00283FDB019BD9F82B
:103B8400002019791868FFF713FF002836DB6B7AD9
:103B9400D6F810C0012B03D0032B2DD14FF0100801
:103BA400AB7A032B28D195F80BE0BEF1000F02D0BD
:103BB400BEF1010F20D1297A012922D0022924D073
:103BC400D1B90A466B687068B3F5164F006800F007
:103BD400898037D8B3F5165F00F087801FD8B3F516
:103BE400966F00F0848012D8B3F5967F00F082803F
:103BF400B3F5167F00F081806FF0850003B0BDE857
:103C0400F0834FF480720E21DCE70022FBE7B3F56A
:103C1400166F75D0B3F5965FEED15E4B3EE0B3F50B
:103C2400E14F70D007D8B3F5615F6ED0B3F5964F0E
:103C3400E2D1594B32E047F612294B45DCD14FF41F
:103C440000032BE0B3F5613F61D013D8B3F5963F81
:103C540060D009D84DF6C0294B455DD0B3F5614F0E
:103C6400CAD14FF46B0319E0B3F5E13FC4D14FF06F
:103C7400EB7313E0B3F5612F51D009D8DFF81C9131
:103C84004B454FD0B3F5E12FB6D14FF0E86305E0D3
:103C9400DFF80C914B45AFD14FF08053C0F8243579
:103CA400736848EA01081B6842EA0E0242EA080205
:103CB400C3F86C250CF10403D5E9010183E8030082
:103CC4007B6899073DD505F1180000F0B9FD354B27
:103CD40098422AD034480121344A03F0AFFB6FF0F4
:103CE40004008BE74FF41D03D8E7314BD6E74FF4BC
:103CF4009E23D3E74FF4A033D0E74FF41C33CDE732
:103D04004FF41D23CAE72B4BC8E72B4BC6E74FF0F4
:103D14006C73C3E7294BC1E74FF46503BEE74FF06B
:103D24007063BBE74FF08063B8E7287E04F10C02B0
:103D340004F5907103F035FE01202B7E984000F0CD
:103D44008BFC0823C4F800353B7A53B9C4F810310E
:103D5400D4F810316B69C4F834350123C4F838350C
:103D640023607B6800209A075CBF4FF48073C4F81B
:103D740004337B68DB0644BF4FF48003C4F8043388
:103D84002B69C4F844350123C4F84805A360E360F3
:103D940034E700BF00B0130000A04E0090D0030031
:103DA40040420F000000AD0BAC840000989200006C
:103DB4000050270000C0750000F03A0000903A015E
:103DC400F8B504460D46076903F08DFFB0B92E4BD4
:103DD4001B789BB16426606803F05DFD00BB012085
:103DE40003F0D3FD013EF6D10021212001F0D6FFDE
:103DF400F0E786F31188BFF36F8FF5E74FF02003E8
:103E0400EFF3118683F31288BFF36F8F6068314636
:103E140003F041FD90B986F31188BFF36F8FEDE78E
:103E24004FF02003EFF3118683F31288BFF36F8FF3
:103E34006068314603F02FFD0028DAD03B691D701D
:103E4400626838691368C3F844050120C3F848055B
:103E54000020C3F82001D3F82051C3F85801526858
:103E6400D3F85801D20608D5082062681268C2F84F
:103E740000054FF48002C3F8042301229A6081F301
:103E84001188BFF36F8FF8BDD81100200123834040
:103E940070B5DC430B4AD2E8EF1F01EA0405C2E81F
:103EA400E65F002EF7D14FF4803282400648C0F816
:103EB4000823BFF35F8FBFF36F8F0B4214BF012042
:103EC400002070BDA80F00200050015070B40E49AE
:103ED40022F07F46D1E90034D01AC31844F100041B
:103EE400C1E90034A6F50013B3F5400F09D2074B1E
:103EF4001B681A0A1B069C19054B42F10005C3E90D
:103F0400004570BC02F040B880070020AC0F0020D0
:103F140088070020D9B101230D4A8340D2E8EFCFAE
:103F24004CEA030CC2E8E1CF0029F7D14FF4803307
:103F3400084A8340C2F80433074BD3E8AF3FC34079
:103F4400DB0742BF4FF40012044BC3F80021704753
:103F5400A80F002000500150A00F002000E100E055
:103F6400C3B202489B001844704700BF405101503F
:103F7400024B00F5A87053F8200070470050015020
:103F84000D4B1868010A0006BFF35F8F0B4BD3F883
:103F94000435181841F10001B3F5801F0AD2084B0B
:103FA400D3E90023904271EB030303D210F1807034
:103FB40041F10001704700BFAC0F002000500150D8
:103FC400880700202DE9F04F85B016461F460446A9
:103FD4009DF840A0FFF75AFF0190FFF7D1FFB042D0
:103FE40071EB070352D23B4B301A67EB0101984245
:103FF40071F100014DD2384B03EB0413D3E90223D2
:104004009F4208BF964258D04FF48038334908FA8B
:1040140004F8204626F07F4BC1F8488303F084FC63
:104024004FF00309584604F15005AD00ADB205F157
:10403400502504F5A87305F580350293029A20F003
:104044007F4341F82230C1F84483D1F80435244A2F
:10405400C01A033820F07F4090422ED9286868B1F6
:10406400D1F80435A3EB0B0020F07F40B0F5000F2E
:10407400039322D9204603F057FC039BBAF1000FA7
:1040840007D109EB030009F10109D7E7BAF1000FE1
:1040940009D06FF0150520460199FFF73BFF28462C
:1040A40005B0BDE8F08F01230E4AA340D2E8EF0F1C
:1040B4001843C2E8E10F0029F8D107490E982301FB
:1040C400C8500F9B01EB04120025C2E9026753603C
:1040D400E1E700BF010080006007002000500150AC
:1040E400FDFF7F00A00F00207FB500254FF0FF30BB
:1040F4004FF0FF314FF480321C4C1D4B0226C4F8A4
:104104000833C4F848331B4BC4F80855C3E902010B
:10411400C4F80423C3E906014FF400334FF400123A
:10412400C4F80433144B0121C4F804631520C3F804
:1041340080212A46FEF748F91520FEF715F90123D8
:104144000322A36023600D4B28461A600C4B0D4AD2
:104154001E600D4BCDE9015500930023FFF732FF9C
:104164003046FFF79FF8284604B070BD0050015058
:1041740003000F006007002000E100E0A80F00200A
:10418400A40F0020FFFF7F00D13E00002DE9F04F77
:10419400394B85B0D3F8042392070BD5D3F8042107
:1041A40042B10022C3F80421344AD3F8043113681D
:1041B40001331360324D0024A8464FF480362E4F4D
:1041C400D7F8043306FA04F919EA030F2ED00123B1
:1041D400A340DB432B49D1E8EF2F02EA0300C1E8F7
:1041E400EC0FBCF1000FF6D122FA04F3DB0703D481
:1041F400254B53F82430CBB1204603F095FBFFF751
:10420400BFFE4FF02002EFF3118382F31288BFF355
:104214006F8F08EB041CDCE902AB504571EB0B011A
:1042240002930AD283F31188BFF36F8F103514B150
:1042340005B0BDE8F08F0124C2E70020D5E90013E2
:104244004FF0FF3203934FF0FF3328600A48CCE964
:104254000223C0F84893204603F066FB029B83F3D5
:104264001188BFF36F8F0029E0D0039B524600935F
:104274005B468847DAE700BF00500150AC0F0020CE
:1042840060070020A00F00204051015070B50124A8
:104294000C4B186890B1B0FA80F0C0F11F0004FA1A
:1042A40000F1C943D3E8EF2F02EA0105C3E8E65F52
:1042B400002EF7D1C240D207EBD570BD6FF00B00D2
:1042C400FBE700BFA40F00200123054A8340D2E886
:1042D400EF0F1843C2E8E10F0029F8D1704700BF7F
:1042E400A40F002030B5431C124C85B005D0844285
:1042F400A8BF0446012CB8BF0124FFF741FE0E4BB2
:104304000C4DD3E90013401AB0F5000F0FD2221858
:10431400AA4228BF2A46002052180849CDE90100C4
:10432400009143F10003FFF74DFE05B030BD2A466E
:10433400F1E700BFFFFF7F0080070020D13E0000AF
:1043440008B5FFF71DFE024B1B68C01A08BD00BF6D
:1043540080070020012310B5074C15206360FEF789
:1043640011F84FF40012054BC4F80833C4F848336D
:10437400034BC3F8802110BD0050015003000F000F
:1043840000E100E008B5FCF797FF04480121044A66
:1043940003F054F80020FDF72BFF00BF5C840000FD
:1043A400D19200004FF47F03D3F83021D3F8343195
:1043B400072A05D1023B032B02D8024AD05C70477E
:1043C40000207047F692000008B5FFF7EBFF58B1E4
:1043D400784BD3F8202A3AB90D21C3F8201A0121C9
:1043E400C3F81C19C3F81C290022D30003F57F036A
:1043F400D3F80013013107D0D3F800130132D3F8F6
:104404000433202A0B60F0D1FFF7CCFF002840F0E2
:10441400B980FFF7C7FF40B1674B684AC3F830253E
:104424004FF050230122C3F858254FF47F03D3F8EB
:104434003021D3F83431072A09D1023B032B06D8A3
:104444005F4AD35C1BB100225E4BC3F84C25FFF7D7
:10445400A9FF50B14FF05023D3F80024D00742BF36
:104464000022C3F81421C3F818214FF47F03D3F8B2
:104474003021D3F83431072A09D14FF05023D3F82F
:104484000024D10744BF6FF00102C3F80024FFF7F2
:1044940089FF18B16522474BC3F80C274FF47F03FB
:1044A400D3F83021D3F83431072A16D1454BD3F849
:1044B4002034002B11DA4FF050230322C3F81825BF
:1044C40001229A60D3F80421002AFBD00022C3F809
:1044D40004210122DA60C3F818254FF47F03D3F8CE
:1044E4003021D3F83431072A23D1023B032B02D8DD
:1044F400354AD35CEBB17E222E4B2F49C3F80C27EF
:10450400C3F83C297F23314AC2F818310023C1F88B
:10451400043EC1F8083E01F54821C1F81031C2F843
:104524002431C2F82C3102F5FF1202F58052C2F890
:10453400A032274B9A6AD2072CD501211E4AC2F811
:104544000415D2F800140029FBD09A6A22F0010263
:104554009A62194BD3F80024002AFBD00022C3F836
:104564000425D3F80024002AFBD0BFF34F8F194948
:10457400194BCA6802F4E0621343CB60BFF34F8F58
:1045840000BFFDE729220B4BC3F80C270322C3F815
:104594003C273EE70F49D1F88C2042F44062C1F831
:1045A4008C2019680D4AC2F84415DB69C2F84C35F1
:1045B40008BD00BF00400050009003504400EFBE0F
:1045C400F292000000200350EE9200000020005000
:1045D4000080FF0000ED00E00400FA0500600050D8
:1045E40030B50468ACB1B4FA84F30122C3F11F03FB
:1045F400DBB29A4024EA0202D0E8EF5FA54204D17C
:10460400C0E8EC2FBCF1000FF6D1EAD102480B70E0
:1046140030BD0248FCE700BF0000AD0B0200AD0B4B
:1046240010B50368CB40DB0710D401238B4002682C
:1046340043EA0201D0E8EF4F944204D1C0E8EC1FF2
:10464400BCF1000FF6D1F2D1014810BD0148FCE7DE
:104654000000AD0B0400AD0B014BC3F8040570471B
:1046640000700150014BC3F80805704700700150F9
:10467400044B1A7922B9012218601A710248704752
:1046840002487047B00F00200000AD0B0C00AD0BCA
:1046940008B50A4B1B6833B10520FDF787FE10B936
:1046A4000520FDF761FE4FF050230122C3F81825C1
:1046B400C3F81425C3F8802508BD00BFB00F00203F
:1046C40010B5032845D8DFE800F01802554F002242
:1046D4004FF480730121002003F1502318601C68FB
:1046E400012402F150221460284A1268002A47D09B
:1046F4004FF05023C3F804132BE04FF05023D3F8AA
:104704001814D3F81824C90312D502F00303022B9A
:1047140005D0012B02D0002003F054F901234FF0FF
:1047240050220221C2F8183508224FF48273D2E7CE
:10473400D3F81424D207F1D5D3F81C2402F00302D1
:10474400013A012AE7D8114A12681AB10222C3F8C1
:10475400042310BDD3F80421002AFBD00022C3F89F
:104764000421D3F80431F4E718224FF490734FF482
:104774008071B0E720224FF492734FF40071AAE7DE
:104784001A68002AFCD018601B68E2E7B00F00200A
:104794004FF0502310B5D3F8002152B10020C3F8D4
:1047A4000001D3F800210122C3F80823234B1B681E
:1047B40098474FF05023D3F8042182B10022C3F864
:1047C4000421D3F80421D3F81824D3F8182402219F
:1047D40002F00302012A28D1C3F818159A604FF099
:1047E4005023D3F8202162B10022C3F82021D3F84A
:1047F40020214FF48072C3F80823104B05201B6856
:1048040098474FF05023D3F82421AAB10022C3F8CB
:104814002421D3F824214FF40072C3F80823074B52
:104824000620BDE810401B681847C3F80813034B63
:1048340001201B689847D2E710BD00BFB00F0020CD
:1048440001460148FFF7CCBE000100200123044AC1
:1048540083400146C2F808350248FFF7E1BE00BFB5
:104864000070015000010020036803F01F025B097F
:10487400026004D0012B034818BF0020704702488F
:10488400704700BF0028845000258450034A430920
:10489400D35C00F01F001844C0B27047FA920000C5
:1048A40070B50546FFF7F2FF0C4C083034F81030B1
:1048B4000E46DA0508D5C3F3432304EBC3022846A6
:1048C40054F8333052689847A3682BB131462846D0
:1048D400E268BDE87040184770BD00BF04010020C5
:1048E40008B5FFF7D3FF034B083033F81000400B33
:1048F40008BD00BF0401002008B5FFF7C7FF034B44
:10490400083033F81000C0F3400008BD0401002053
:1049140008B5FFF7BBFF034B083033F81000C0F3B2
:10492400401008BD04010020034611F0010010B539
:10493400CCB20BD1A207C4F340000DD5074A106ACC
:1049440058601062003818BF012005E004490A6A63
:104954001A600A62002AEDD010BD00BF00288450FE
:104964000025845010B5FFF791FF124A083032F841
:104974001030D9051CD5C3F3432123F4F85322F88E
:104984001030002002F10E0434F8023F13F4807F4B
:1049940003D0C3F3432399420AD001303028F3D122
:1049A400002342F831300448BDE81040FFF738BE18
:1049B40010BD00BF040100207C010020F0B50546B5
:1049C40000200126044607468C420BD1114BD3F834
:1049D4007C2132B10022C3F87C21D3F87C3140F031
:1049E4000040F0BDE3B29B0003F580729B0806FA19
:1049F40003F31D420BD002F1A04202F55042D2F85B
:104A040000C0BCF1000F02D01760126818430134D3
:104A1400DAE700BF00D00050F7B506460846FFF7B6
:104A240035FF1A4F00F1080537F815300C46DB073F
:104A34002AD5304603F0D1F82046FFF769FF58B174
:104A44002046FFF74DFF0022316800B201EB8003DE
:104A5400C3F81025C3F810252046FFF783FF002371
:104A640001A827F815300194FFF7FEFE019B00EB27
:104A74008300D0F80022064B134043F00203C0F831
:104A84000032044803B0F0BD0348FBE704010020F2
:104A9400F0F0FCFF0000AD0B0400AD0B2DE9F0437A
:104AA4001646804685B00846FFF7F0FE0D4631688D
:104AB400044609B32846FFF71FFF18B12846FFF73D
:104AC40027FF10BB00230DF10F02CDE900338DF851
:104AD4000E308DF80F3028460B460DF10E0103F011
:104AE40024F8484A04F1080132F8113023F0020393
:104AF40043F0010322F8113073687BB328461F7812
:104B04005968FFF7F9FE10B1E9B13F4829E03D4A81
:104B140004F1080032F8103023F02003DB04DB0C2E
:104B240022F8103079B1032FEFD87168D1F804E07E
:104B3400D8F800109EF800C001EB8C01A7B9C1F8A9
:104B44001075C1F810752F4A04F1080132F81130BC
:104B540023F01C0343EA870322F81130B3683BBBFC
:104B64002A4805B0BDE8F083D1F810E543EA4C3398
:104B74002EF0030EC1F810E5D8F8001043F020031E
:104B840001EB8C0EDEF8101522F8103021F44F31B1
:104B940021F44071CEF810152902DEF8108501F4D5
:104BA4007C5141EA074141EA0801CEF81015CAE7F1
:104BB4002846D3E90067FFF7D5FE002ED0D0114D6B
:104BC400D5E90023964203D19F4201D1002209E096
:104BD4000F480DF10F01FFF703FD0C4B9842C0D1B4
:104BE4009DF80F2005EBC20308345F6035F81430DC
:104BF40045F8326043EA422343F4807325F81430C5
:104C0400AEE700BF040100200400AD0B0000AD0BB3
:104C14007C0100202DE9F0430C46804685B02046F7
:104C240011461D46FFF732FE064629B32046FFF71C
:104C340063FE18B92046FFF76BFE18BB334F06F12D
:104C4400080937F8193013F01C0F02D04B78012BE8
:104C540018D001238DF80F3000234A1CCDE900132E
:104C640020468B1C0DF10F0102F05FFF37F819305D
:104C740043F0030327F81930002D44D02046FFF7F2
:104C84003BFE18B9224805B0BDE8F083002295F830
:104C940000C0D8F800301D4F03EB8C03C3F8102577
:104CA400C3F8102506F1080237F812104FEA8C0EEB
:104CB40021F02001C904C90C27F812106E7816B32C
:104CC400D8F80000AD787044D0F81035360423F4D9
:104CD400991323F4F853C0F81035230203F47C53DA
:104CE40006F440362D05D0F810E5334305F480155D
:104CF4002B4341EA4C3143EA0E0341F02001C0F852
:104D0400103527F812100348BDE700BF0401002046
:104D14000400AD0B0000AD0B014BC3E90212704758
:104D24000401002010B508461446FFF7F1FD50B108
:104D34000846FFF7ABFD054B083033F81030044844
:104D44005B0B237010BD0348FCE700BF0401002087
:104D54000000AD0B0400AD0B70B5174E054696F878
:104D640080403CBB2146602206F1100003F046F966
:104D740021462D68306F884212D1002345F3073055
:104D8400C5F87C31D5F87C31FDF7EEFA4FF00043DD
:104D9400C5F804330123094886F88030B36770BD31
:104DA400CBB29B0003F580727C2B04BFAC50AB5894
:104DB4000131E0E70248F2E7040100200000AD0BF6
:104DC4000C00AD0B034B93F88000003818BF012092
:104DD400704700BF040100200148FFF721BC00BF59
:104DE400780100200148FFF7FBBB00BF78010020D9
:104DF40073B5054608460C461646FFF789FD00B311
:104E04000846FFF779FD0146D8B92046FFF768FD4B
:104E140004B2A4000346286804F58072815029680E
:104E240082582144D1F8102542F00102C1F810251E
:104E34002EB10122296802FA03F3C1F8043302B047
:104E440070BD2046FFF722FD0E4B083033F81030BA
:104E5400C3F38203042B11D0052B11D001A80194B4
:104E6400FFF702FD019A0369D34003F00103991C83
:104E7400204602B0BDE8704002F0A0BE0321F7E76F
:104E84000221F5E7040100202DE9F04F684BDFF81B
:104E9400A481D3F80403D8F87010C0B289B040F0EC
:104EA4000040FFF78BFD051E2FDAC24600235AF897
:104EB4007C1F06A8CDE90633FFF736FD4FF0000B43
:104EC4005D4B0DF118090193019A12F8013B01920F
:104ED400DA081AF8022003F0070322FA03F3DA07C8
:104EE4001CD409F10409BBF1000F14D0D8F87010D8
:104EF4004FF00040FFF762FDD8F87C1006A8FFF7DA
:104F040013FD0028DAD125F000450124002D76D1C7
:104F140009B0BDE8F08F4FF0010BD5E7474B5B4478
:104F24000293D9F800100029DBD091FAA1F1B1FA6B
:104F340081F1029B1C7841EA44142046FFF7A6FC49
:104F4400083038F81070C808BB080393012319F817
:104F5400002001F0070103FA01F122EA010209F835
:104F6400002005A80594FFF77FFC059A039B803277
:104F740050F82220C7F382065B073746C2F301428A
:104F840022D520463946D6B2FFF78AFC05A80594F7
:104F9400FFF76AFC059B803350F82330C3F30143C9
:104FA4009E4207D10021204602F008FE31462046E9
:104FB40002F004FE05A80594FFF756FC0122059BA8
:104FC40002FA03F30362ACE7022A0CD10321204660
:104FD40002F0F4FD06F00503012BEBD1394620461F
:104FE400FFF75EFCE6E702212046039202F0E6FDAD
:104FF400032EF3D0039A032ADCD1022EEDE795FAAF
:10500400A5F3B3FA83F304FA03F29B0003F1A0437C
:1050140003F55043D3F81005D3F81015C0F3052059
:10502400C1F3014125EA0205FFF73AFC6EE700BF30
:1050340000D00050040100200A9300000A930000ED
:1050440070B5084C0E462379154643B92A20FDF75E
:105054008BF90123044823712660A56070BD0348C1
:10506400FCE700BFB80F00200000AD0B0C00AD0B37
:10507400002330B50D4A50F8234003F5A2710133E3
:10508400102B42F82140F6D10023084A00F13C01DC
:1050940003F5B27451F8045F0133102B42F8245025
:1050A400F6D1D0F88030C2F8043330BD00A00250ED
:1050B4000123024A8340C2F80433704700A002501F
:1050C4000123024A8340C2F80833704700A002500B
:1050D400F8B5012600270B4B0B4DD3F80C4304B94C
:1050E400F8BD94FAA4F0B0FA80F006FA00F324EACA
:1050F4000304064B82009F502B68002BEFD0A96855
:105104009847ECE700A00250B80F002000A102501D
:105114002DE9F84304460D4600AF4FF02003EFF3AA
:10512400118883F31288BFF36F8F0428294A98BF2C
:10513400294BE9468AB09668117C98BF53F8203011
:105144006A4688BF254BC2E9073140F2013324483F
:105154009384244BC2E9050442F8103F00234FF422
:1051640031512148FCF78CF9CD4645B1EB69C3F3C5
:10517400080323B101211D4A1B4802F05FF92EB137
:10518400304602F0B9FD08B1037803B91848E9467E
:105194008AB06A46174BD061C2E9053640F2013342
:1051A4001384154B42F8103F00234FF411510E485D
:1051B400FCF766F92946CD462046FFF7E3F888F365
:1051C4001188BFF36F8F3046FDF75CF8BD46BDE82C
:1051D400F88300BFC80F0020E08600000C93000095
:1051E4002293000005000001948400004A9300000B
:1051F4001A9300006B93000004000001104B70B57B
:1052040053F82040013053F82060A64200D870BD06
:10521400D4E9003595B153B12846984738B10028F0
:10522400B8BF4042FF28A8BFFF20EB681870EA68A7
:10523400537843F0010353700834E6E79847FBE7DB
:10524400F4860000012208B5094B03201A70FFF709
:10525400D5FF00F0C9FF0420FFF7D0FF00F070F97C
:10526400FBF7E6F8034A137B23F00103137308BD2D
:10527400D81100201008002008B50348034A002173
:10528400121A02F0E2FC08BDA0020020DC1100208A
:105294000023012270B586B0CDE904230F220193C7
:1052A400CDE9023214234FF4A0720446114D124E7C
:1052B40003FB0055114906EBC01602FB0011104B0D
:1052C4003046009500F0D2F8737B2C7423F004036D
:1052D40073730C4B013403EBC4236B600A4BEE6015
:1052E400D3E8EF1F0131C3E8E21F002AF8D106B06A
:1052F40070BD00BFC80F002090070020E01C0020F4
:10530400017D0000E0140020C40F002080B50020BF
:10531400A6B0FFF773FF2E4B03F5006282F30888F3
:1053240083F30A880024E0232A4D2B4E85F822308B
:10533400EC772C766C76AC7685F820406B6A274F38
:1053440043F4E0236B6285F82340FCF70BFFFDF781
:10535400A3F84FF0FF33AB62EB62FDF771FAFDF790
:10536400F7F8FBF719FF40F20113ADF8243006AB50
:10537400B360CDE91E44219402F05BFC0120FFF7E9
:105384003DFF0220164DFFF739FF00F07DFC154B61
:1053940075610593012314494FF48062CDE90343F9
:1053A40028463B46CDE90144009400F05FF80646E8
:1053B4006A7B284622F004026A7302F000FD20464C
:1053C400FFF766FF3A4631462846FDF74BF800BF23
:1053D400E014002000ED00E0C80F00204952000056
:1053E40010080020CD930000201E0020002038B5B6
:1053F400054C064DAC4200D338BD204602F029FCD2
:105404000028F9DB1C34F5E73C0200203C020020B4
:1054140073B50C464FF02005EFF3118185F3128824
:10542400BFF36F8FC5685DB125602B68C360836966
:1054340001338361002081F31188BFF36F8F11E082
:1054440052EA030603D16FF00B002560F3E7CDE9C0
:1054540000230246083000F053FB18B9024B9B6846
:105464005B69236002B070BDC80F00202DE9F043D2
:10547400984685B000F15803C0E91633109B002606
:1054840003730423073222F0070543730F9B01EBD8
:1054940005090F4683734946C0E906668660C673EC
:1054A4000446FCF70DFC0E9B073020F00700A066B5
:1054B400C4E9187502930D9BA9EB000901930C9B99
:1054C4004A460093394643462046FCF7AFFF054B56
:1054D40066659B6803B1DB6E4846E36605B0BDE8CC
:1054E400F08300BFC80F0020F0B5002587B00595F4
:1054F400109DDDE9127604950F9D044603950E9DDB
:1055040002950D9D01950C9D0095FFF7AFFFB6F137
:10551400FF3F08BFB7F1FF3F05D056EA070305D1A7
:10552400204600F063FB204607B0F0BD3A46334600
:10553400024904F1180000F0B1FCF4E7817E000098
:1055440070B5224C224D86B02646AE4204F130049A
:105554000AD300F069FB1D4C1E4EAC4220D306B0AA
:10556400BDE8704000F074BB54F80C3C059354F84B
:10557400103C049354F8143C039354F8183C0293DD
:1055840054F81C3C019354F8203C009354E90A233A
:1055940054E90C01FFF76AFF54F8303C5E65D3E729
:1055A400D4E90A23B3F1FF3F08BFB2F1FF3F05D0AE
:1055B40052EA0301206803D100F018FB3034CCE731
:1055C4003146183000F06AFCF8E700BF3C84000064
:1055D4003C840000817E000038B5836804466BB3C8
:1055E400194A926893422CD1C368012B03D9013B19
:1055F400C360002038BD4FF02003EFF3118583F31F
:105604001288BFF36F8F0169806802F083FB204624
:1056140002F04FFCA06058B190F90E2022610022E4
:10562400826702F0CCFB2946084800F0CDFAE0E797
:10563400E06085F31188BFF36F8FDAE76FF0150030
:10564400D8E74FF0FF30D5E7C80F0020D91100206C
:105654002DE9F341044617461E464FF02003EFF3AD
:10566400118883F31288BFF36F8FC368334A7BB109
:1056740080689168884219D057EA060318D188F3E4
:105684001188BFF36F8F6FF00F0002B0BDE8F08197
:10569400916891F90E100133E36093682161A3606E
:1056A40088F31188BFF36F8F0020EEE72169F2E7DA
:1056B40091F90E1090F90E306FF07E029942A8BF56
:1056C40019469142B8BF11468B422EDD02F022FBEF
:1056D400054622464146CDE90076194800F010FA05
:1056E4000028E1D04FF02003EFF3118683F31288F2
:1056F400BFF36F8FA068D0B1236821699C420AD0A0
:105704004BB193F90E309942A8BF19466FF07E034E
:105714009942B8BF194602F0FDFA40B13146084833
:1057240000F052FA6FF00A00AFE70025D1E7002D30
:10573400F4D186F31188BFF36F8FF3E7C80F00200D
:10574400D911002038B504464FF02003EFF311853A
:1057540083F31288BFF36F8F02F0ABFB48B10022D2
:10576400826702F02CFB2946BDE83840064800F069
:105774002BBAD4E902329A4218BF0133A36085F3ED
:105784001188BFF36F8F38BDD911002013B54FF0C6
:105794002004EFF3118184F31288BFF36F8F8468C0
:1057A40044B1013C846081F31188BFF36F8F002002
:1057B40002B010BD52EA030406D181F31188BFF38D
:1057C4006F8F6FF00F00F3E7CDE900230246024824
:1057D40000F096F9ECE700BFD9110020C3897F2BB4
:1057E40012D80A4B1B6863B1094B90F90E201B6851
:1057F4009A4209DB437BDB0606D1064BC31A18BF6A
:10580400012303F0010070470023FAE7F00F0020A2
:10581400EC0F0020900700200122044BC01A044B17
:10582400C0105843034B1A54704700BF900800201F
:10583400ABAAAAAAD911002070B50E4B0E4C1E7C3F
:10584400054606EB460304EBC304204602F084FB42
:1058540000220A4B28469A55FFF7C0FF48B1084B6F
:105864002046BDE870401A680649013AD31700F093
:1058740015BB70BDC80F002090080020D91100206E
:10588400F00F00201D58000038B50D4D2B4653F87D
:10589400184F9C4200D004B9EC68AB6838B95A7B05
:1058A400D20604D1A26912B9DA897F2A05D89C42AA
:1058B40002D02046FFF7C0FF23466B6138BD00BF0E
:1058C400C80F002070B590F90D200146002A437BD3
:1058D40004DA03F07F03437302F037FA154A4B7B73
:1058E400104663F07F034B7350F8183FD46983422A
:1058F40008BF002323B9C1E900042160D1610CE091
:1059040091F90E5093F90E60B5420ED0AE420CDD03
:105914005868C1E90030016059609068BDE8704082
:10592400431A58425841FFF7AFBF9C42E3D01B686B
:10593400E0E700BFC80F002070B490F90D30427B3F
:10594400002B29DBD30627D183692BBB134962F0D3
:105954007F0242730A4652F8184F944218BF2346F6
:10596400CC6923B9C0E900242060C8610CE090F937
:105974000E5093F90E60B5420AD0AE4208DD5A6863
:10598400C0E9003210605860002070BCFFF77CBF93
:10599400A342E7D01B68E4E770BC7047C80F00203F
:1059A40008B590F90D200146002A437B04DA03F080
:1059B4007F03437302F0C9F9044B9868431A5842B1
:1059C4005841BDE80840FFF75FBF00BFC80F002083
:1059D40070B515461C46064602F0C9F9B4F1FF3FFE
:1059E40008BFB5F1FF3F08D02A46234606F1180048
:1059F4000249BDE8704000F051BA70BD817E0000DC
:105A0400002A2DE9F0410E460CBF10210821437BEA
:105A1400044619420AD10B43DD0903F09F0211D158
:105A24004273082914D00120FFF72EFF1B4B9B68FB
:105A3400A3422CD1EFF305834BBB3046BDE8F041C4
:105A4400FCF736BC03F01F03437302F07EF9E8E76A
:105A5400A36813B1204602F080F904F1180002F0A3
:105A64007BFA4FF0000804F15807A56DBD42DAD067
:105A7400002DD8D0284602F070F905F1180002F084
:105A84006BFA2846C5F87880FFF756FFEDE786F3F2
:105A94001188BFF36F8FBDE8F08100BFC80F0020ED
:105AA40038B54FF02003EFF3118583F31288BFF369
:105AB4006F8F104B104A9C681068A04206D1FFF704
:105AC400BBFE85F31188BFF36F8F38BD00211B7CAB
:105AD40011600A4AD35C002BF3D02046FFF77EFE08
