:1000000060210020B5290000DF710000892900006F
:100010008929000089290000892900008929000018
:10002000000000000000000000000000612200004D
:100030008929000000000000F92100008929000042
:10004000ED220000ED220000ED220000ED22000074
:10005000ED220000ED220000ED220000ED22000064
:10006000ED220000ED220000ED220000ED22000054
:10007000ED220000ED220000ED220000ED22000044
:10008000ED220000ED220000ED220000ED22000034
:10009000ED220000ED220000ED220000ED22000024
:1000A000ED220000ED220000ED220000ED22000014
:1000B000ED220000ED220000ED220000ED22000004
:1000C000ED220000ED220000ED220000ED220000F4
:1000D000ED220000ED220000ED220000ED220000E4
:1000E000ED220000ED220000ED220000ED220000D4
:1000F000ED220000ED220000ED220000ED220000C4
:10010000ED220000ED220000ED220000ED220000B3
:10011000ED220000ED220000ED220000ED220000A3
:10012000ED220000ED220000ED220000ED22000093
:10013000ED220000ED220000ED220000ED22000083
:10014000ED220000ED220000ED220000ED22000073
:04015000ED2200009C
:1001540053B94AB9002908BF00281CBF4FF0FF312A
:100164004FF0FF3000F00CB8ADF1080C6DE904CE8F
:1001740000F008F8DDF804E0DDE9022304B070477C
:10018400704700BF2DE9F04786468C460846089E16
:10019400154674461946002B40F0C1808542B2FAD8
:1001A40082F245D94AB1C2F1200300FA02FC95401B
:1001B40094402EFA03F343EA0C0C4FEA154EA8B20E
:1001C400230CBCFBFEF80EFB18CC08FB00F943EA39
:1001D4000C43994528D9EB1808F1FF3704D2994507
:1001E40002D9A8F102072B44A3EB0903A4B2B3FB81
:1001F400FEFC0EFB1C330CFB00F044EA0344A0425B
:1002040014D92C190CF1FF3304D2A04202D9ACF159
:1002140002032C44241A43EA07401EB1D4400023AD
:1002240034607360BDE8F0874746DDE76346F1E775
:1002340092BB431B01214FEA154EAFB2200CB3FB16
:10024400FEFC0EFB1C330CFB07F840EA0343984505
:1002540061D9EB180CF1FF3004D2984502D9ACF106
:1002640002002B44A3EB0803A4B2B3FBFEFC0EFB79
:100274001C330CFB07F744EA0344A7424DD92C195D
:100284000CF1FF3304D2A74202D9ACF102032C448F
:10029400E41B43EA0040C0E7C2F1200395409440C8
:1002A40020FA03F12EFA03F34FEA154E9040AFB251
:1002B4000343B1FBFEFC0EFB1C10190C0CFB07F8EE
:1002C40041EA0041884522D969180CF1FF3004D273
:1002D400884502D9ACF102002944A1EB08019BB284
:1002E400B1FBFEFC0EFB1C110CFB07F743EA0143B8
:1002F4009F420ED9EB180CF1FF3104D29F4202D970
:10030400ACF102012B44DB1B41EA004193E7604658
:10031400E3E76146F7E76046A4E76346B8E783424C
:1003240006D916B9002108467CE7C6E900E0F9E7DA
:10033400B3FA83F78FB9834201D3724508D8BEEB71
:10034400020460EB030301209C461EB9002169E707
:100354003846FAE7C6E9004CF8E7C7F1200CBB4081
:100364000EFA07F522FA0CF42EFA0CF1BA401C43EB
:1003740020FA0CF3B8404FEA144901431FFA84FEF3
:10038400B3FBF9F809FB18300B0C08FB0EFA43EA2F
:1003940000439A4540D9E31808F1FF3004D29A4546
:1003A40002D9A8F102002344A3EB0A0389B2B3FBE8
:1003B400F9F809FB183308FB0EFE41EA03418E45A8
:1003C4002CD9611808F1FF3304D28E4502D9A8F163
:1003D4000203214443EA0040A1EB0E01A0FB029872
:1003E4004145CE46434602D306D14D4504D2013899
:1003F400B9EB020E68EB0403002EA7D0B5EB0E0296
:1004040061EB030101FA0CFC22FA07F3F9404CEA10
:100414000303C6E9003199E74046C5E74346D9E7F7
:10042400034613F8012B002AFBD1181A0138704730
:100434002DE9F8436C4600AF88B06A46164B536109
:100444000A239361032342F8103F00234FF4C6515B
:10045400124801F0CDF90426A5460124104DDFF819
:100464003C800123194659430133A342FBDDE9468D
:1004740088B06A46C2E90554D16142F8106F00237E
:100484004FF403514046013401F0B2F90B2CCD4630
:10049400E7D1BD46BDE8F8838C83000038800000B6
:1004A400BB8300002DE9F0478AB000AF3A46B84656
:1004B4004C4B03F10805144618685968083303C403
:1004C400AB422246F7D118681B79E94620602371B4
:1004D4000225454B3D627B6200234FF4865143481D
:1004E40007F1200201F084F988B06C464FF0030A4A
:1004F40026463F4BC4E9053546F810AF0023324683
:100504004FF4C651394801F073F9CD46A546394B2D
:10051400C4F810A06361384BA361002332464FF442
:10052400C851324801F064F9CD46344BC7E9085349
:1005340000234FF484512D4807F1200201F058F9AB
:100544002F4BC7E9085300234FF48251274807F182
:10055400200201F04DF9A5462A4B63612A4BA361A1
:100564004FF40073A383294B236129494346324640
:100574001E4801F03DF9CD46264C204607F0DBF934
:1005840058B34FF4D011244806F0E8F8002824DBCF
:100594004FF48031214806F0E1F82369A6681B680E
:1005A400294613F0040F14BF4FF000734FF080631B
:1005B4004FF0A0722046B569A8471949194B4B6002
:1005C40004238B60F36913B101222046984700216C
:1005D4004FF0967005F03CFAF9E72837BD46BDE8C0
:1005E400F08700BFD0800000D68300003880000070
:1005F400F3830000FF8300006E8400002084000069
:10060400408400005E840000618400000300000157
:10061400C01CD000C07D0000E8800000F080000015
:1006240000080020350400002DE9F04F91B000933C
:1006340002F004030293C2F3C203013384070546A4
:100644000E46DDF868900392059340F0BB81041DCB
:1006540030B1072909D86FF01B0011B0BDE8F08F45
:1006640001F00706341DC6F10806009B4FF0000890
:100674004FF0040A591E4FF0FF3347460193C34617
:100684005346CDF810800DB1009A226005980028D9
:1006940000F3E8809848009A824203D39748824244
:1006A400C0F0E080039AA4EB050E92074FEA9E0087
:1006B40000F103810F2F00F2B180002D00F00581BD
:1006C40007F140020DEB020C019A0CF8200C0CF817
:1006D400102C049801300490E7E07A285DD84B2868
:1006E4000ED8472859D829282DD8252852D054D88F
:1006F40020287AD02338D0F1000B4BEB000B74E0A8
:100704004C382E2849D8DFE800F07048484848485B
:100714004848484848484B48484848484848485941
:10072400484B4B595959704B6D487048184B1848F1
:1007340048827F4B48484B487F0000204FF0000B15
:100744004FF0040A38E001222A38C0B202FA00F05D
:1007540010EA0E0F49D110F0625C2FD110EA020B9F
:1007640043D06046013C5444B4FBFAF40AFB04F45D
:10077400002D61D0A3EB050CA4446645FFF46BAFD8
:10078400002868D1042B47D159F8043B2360042383
:1007940004342AE0019A013A01924FF0000B24E05C
:1007A40011F8010C6C2834D1002011F8023C834666
:1007B4006C2BC5D14FF0080A5346D3E709F107095A
:1007C40029F00709073424F00704F9E802AB35B12E
:1007D40006982044B0423FF63EAFC4E900AB4FF068
:1007E400000B08344FF0080A534611F8010F002893
:1007F40078D0BBF1000F7FF470AF2528F5D14FF00E
:10080400010B019B013301934FF0040AECE75846B6
:1008140094E700208346A5E7082B02D06FF015006B
:100824001BE709F1070929F00709F9E80223C4E9DC
:10083400002308230834D8E768B9042B02D109F14E
:100844000409A4E7082BE9D109F1070929F00709EC
:1008540009F10809EDE7059A013A059259F8042BC4
:10086400009210E7039A900720D54FF0010CA4EBF7
:10087400050E4FEA9E00BEF5007FCFD20F2FCDD8D4
:10088400F5B107F140020DEB020E019AC0B20EF869
:10089400200C0EF8102CBCF1000F3FF41AAF60F0DE
:1008A4007F000EF8200C08F101080137C5F1080299
:1008B4004FF6DA7E0434069297E74FF0000CDAE73D
:1008C400BCF1000F01D00136EFE702980236002890
:1008D400EBD10098CDE90631FFF7A2FDDDE9063141
:1008E4000644E2E7631BB3F5806F97D245B9A6F1DE
:1008F4000804E018B1E600BF107D0000AC8F0000D2
:10090400029A9B0828602B709DF81030C2B1EB70DE
:1009140085F80280B8F1000F05D0002208A8C5F1BF
:10092400010C97420ED14FF0000AC5F101030DF1FD
:10093400200901930DF1300B574512D1601B8CE651
:100944006B70E5E710F8013B190608D504EB0C0EB3
:10095400764503F07F03FFF47EAE04F8013B0132D9
:10096400DFE7B8F1000F03D099F90020002A17DB64
:10097400029BD3B11AF80B2004F8012B0022019B2F
:10098400981820448642FFF466AE99F80000009956
:1009940004F8010B2046039207F069F9039A144402
:1009A4000AF1010A09F10109C6E799F8002055F88E
:1009B40022300093029B009845F82230FFF730FD67
:1009C400421CDCE76FF00D0047E600BF2DE9F04F55
:1009D40095B000AFBB61BB6F0446C3F3C0038A4646
:1009E40090F802B07A623B6141B9457800780BEB2C
:1009F40080002044554517D8A0EB040AE3787B61B6
:100A0400BBF1000F02D0BB6FD80716D47B6953BB70
:100A14007B6A1BB151462046BA6998475546284619
:100A24005437BD46BDE8F08F461C3046FFF7F8FC4E
:100A3400013030440AF1010ADCE7237862683B6242
:100A44009B00FB603B6AFA6104EB83097B6A002B21
:100A540040F0FF80C8460026554609EB0B0AD045F6
:100A640051D1D94413E0BB6F9907D1D52378994666
:100A74003B629B00FB60636804EB8909FB617B6A52
:100A8400002B7AD15546BBF1000F4FD15E46BB6FA8
:100A940013F0050F0CBF4FF0020B4FF0010B7B69F5
:100AA40009EB430ABB6F03F002037B62D145B6D066
:100AB40019F8021B19F8013C54F82380AB4B9845F4
:100AC40002D3AB4B984538D33B69002B42D0F8692D
:100AD40005F094FE00283DD0E8468AB06A46A54B4E
:100AE4005361FB69C2E906314FF400731384A24BCE
:100AF40042F8103F00234FF41251A04800F078FE52
:100B0400023DC546D2E718F8013B54F82300FFF72D
:100B140087FCFB6F01303BB1D7F880309E423EBF6B
:100B2400FB6F23F816000136054498E7BB6F13F0FA
:100B340004061CBF7E6AD944A9E73B6923B1F8695E
:100B440005F05CFE0028C7D1BB6FDA0705D4A5EB1E
:100B54000B05ABE77B6A002BA8D04046FFF760FC8F
:100B6400FB6F43B1D7F880309E423FBFFA6F431CFE
:100B740022F816300136054498E7BBF1000F6ED019
:100B8400BB6F13F004066DD0D846002607F1400071
:100B94005A46494607F06BF87B69D9445B007B6091
:100BA4007B6909EB4303BB60BB6F03F002033B604B
:100BB400BB684B4558D1B96F6378B86F890748BF94
:100BC400002106EB030258BF4FEA5801C507D2B211
:100BD40000F19A8010F0040F14BF40460020FB611E
:100BE4006270A070E1702046BA69F9687B6A984720
:100BF400051EFFF614AF3B6A41462370FB69BA69D0
:100C040063707B6984F802B0E37007F140007B6A8B
:100C14009847B0F10008C0F2A480FB68AAEB0B016E
:100C2400C91A7B684846C91ABA697B6A984700287A
:100C3400C0F299804FF0000BA84408EB000507F1BF
:100C4400300AB34562D30021BA6908467B6A9847E3
:100C5400E5E65E464FF0000807F1300098E75E468F
:100C6400D84699E7B04697E719F8021B3F4B19F8A5
:100C7400015C54F82500984202D33D4B98421DD3A1
:100C84003B6923B1F86905F0B9FD002890D13B68B0
:100C9400FBB908F1280307F1280208F1010003EB6E
:100CA400020C07F1500308F1020853FA80F00CF823
:100CB400101C5FFA88F800F8105C79E73B692BB1E7
:100CC400F86905F09BFD00287FF472AFBB6FDB076A
:100CD40009D506F1280307F12802711C9E1806F8AD
:100CE400205CCEB264E7BB6F58077FF561AF08F1B3
:100CF400280307F1280208F1010103EB020808F8B0
:100D0400105C5FFA81F853E7002068E71BF80A30AB
:100D140054F8239087F82F30FB6FFBB133F81B8016
:100D24000121BA697B6A07F12F00984700281ADB72
:100D34000544B8F1000F06D14846FFF771FB00F1F6
:100D440001081FFA88F841464846BA697B6A984701
:100D5400002808DB05440BF1010B72E7D7F87C800F
:100D6400DEE745465BE6054659E600BF107D000018
:100D7400AC8F00007F840000040000015880000054
:100D8400014B1860704700BF0000002080B5054685
:100D94000E461746984604F075FE034606F0ACFF6F
:100DA4000446DFF81890424649F800303946304688
:100DB400A84754F8090001F075FE00BF08000000C0
:100DC4002DE9F047058B04462807904611D40229E3
:100DD40005F0070540F0CD80204605F023FE78B1EC
:100DE4000138218B042811D8DFE800F0C3106D8589
:100DF400950001290CBF45F0100545F02005258319
:100E040088F31188BFF36F8FBDE8F08701F0070AFC
:100E1400AA4500F0A6800027B9463E46A368002BE9
:100E240000F0BD8041F00801218388F31188BFF3ED
:100E34006F8FA168002900F0BB800D68002900F0C5
:100E4400B780334652462046D1F80480C047002D6F
:100E540076D02B6829461D46F0E701F007035A1F98
:100E6400012A1BD8002221F00701062B276889B22A
:100E7400C4E9002209D13B4603E0628B013262835C
:100E84001B68002BF9D141F002012046218305F0B3
:100E9400C9FD00287BD041F0200177E0042B0AD162
:100EA40021F0070189B22046218305F0BBFD10B172
:100EB40041F020012183218B01F0070AAA4550D07B
:100EC4000027B946AAE7236921F0070141F006018A
:100ED400062DD3F8009021832DD1B9F1000F40D015
:100EE40041F00801218388F31188BFF36F8F2046F6
:100EF4003949C84729E021F00701236941F0040179
:100F040089B2042DD3F804902183E6D000274FF052
:100F1400040A3E4682E721F00701236941F00501F6
:100F240089B2052DD3F808902183D6D000274FF03D
:100F3400050A3E4672E700274FF0060A3E466DE773
:100F44002B4687E7B9F1000FD1D14FF02003EFF31F
:100F5400118883F31288BFF36F8F238B23F0080368
:100F64002383258BEA062ED525F01003238305F071
:100F740007056669218B002EBFF66FAF0023276833
:100F8400C4E9003321F0070141F001012183218BE1
:100F94004FF0000901F0070AAA457FF43FAF002F84
:100FA4009BD041F00801218388F31188BFF36F8F30
:100FB400002FC7D03D68394633465246204605F0D7
:100FC4005DFD2F46F4E7AB067FF51AAF25F020034D
:100FD400238305F00705FFE6AD6A0000044608B563
:100FE4004FF02002EFF3118382F31288BFF36F8F67
:100FF40003F0A8F8204601F00BFD034805F025FC9A
:1010040000F0ECFFFCE700BF3385000007B50DF1ED
:10101400070006F00DFB114B98421CD14FF480627F
:101024000F4B1049C3F8B8254FF40062C3F83C25B0
:101034009DF8070006F0E8FA0B499DF8070006F052
:10104400DEFA01209DF80730984003F003FA0020EF
:1010540003B05DF804FB6FF00B00F9E70000AD0B83
:1010640000A002502CA0025028A10250054B03EB13
:101074008000D0F8003223F0E04343F04053C0F83E
:101084000032704700258450012208B50A4B0B49F1
:10109400C3F8002502230020C1F8D036FFF7E6FF8D
:1010A4001046FFF7E3FFC1F80427C1F80429C1F88B
:1010B400002B002008BD00BF00100050004000506D
:1010C400052370B5144D154E2C780134B4FBF3F39D
:1010D40003EB8303E41A06F080FA114A137823B170
:1010E40056F82430C01A072814D94FF05023D3F8E7
:1010F400141141B10021C3F81411D3F814312C7028
:101104000CB9012313702C7806F067FA46F8240012
:10111400012070BD0020FCE7151100200C08002000
:101124001411002048B1054B054A1B68B3FBF2F3C8
:101134005843044B43F00103184770475C000020F8
:1011440040420F00E080000070B5049CC4F3072601
:10115400304602F0F9FDE5B20146284606F060FA91
:1011640000220120074BA40B04F0FC041A51A840F0
:1011740003F076F9304602F09BFF2846BDE8704044
:1011840003F0E2B980A00250F0B583B000AF381D7F
:1011940003F0D4F9284B98424BD102F06BFF041EA4
:1011A40013DA387903F0D0F96D4688B06A46234BD8
:1011B400C2E90534032342F8103F00234FF4C2511F
:1011C4001F4800F015FBAD462FE040F607031D4D08
:1011D4007C71AE68FB8074687B6814B96FF0570447
:1011E400E2E708212846184AA047041EDCDB3369DD
:1011F400002BF3D00122082128469847041ED3DB94
:1012040001203B79984003F025F978793D79FE79FE
:1012140006F0CEF90146284606F0F6F90B4BB60067
:1012240045F000459D51002CBED120460C37BD46EB
:10123400F0BD6FF01204B7E70000AD0B608500004D
:10124400B0800000E87D00005512000080A102502B
:101254002DE9F341144683681B690BB100229847BA
:10126400C4F30726304602F077FD0546304606F003
:101274009FF94FF00008E7B20146384606F0D4F96A
:10128400104B220E920043F80280304602F05CFDBF
:101294000D4A4FEA943C0CF0FC0C47F0004342F832
:1012A4000C300146384606F0AAF9084B05F1320223
:1012B4000093304643460194520006F082F902B08E
:1012C400BDE8F08180A1025080A002504D110000C1
:1012D40002F078BF2DE9F047044607464FF00109B4
:1012E400DFF8508014B93846BDE8F08794FAA4F5C5
:1012F400B5FA85F509FA05F32E0108EB05156FEA31
:10130400030A24EA03042B7B002BEBD058F80630A5
:101314001B694BB94644736804222846196807EAD6
:101324000A0700F051FADDE7284698470028D9D18A
:10133400F0E700BFC080000030B5002289B00F493B
:101344000F4806F06AFC002200230024CDE906239E
:101354000E230C4DCDE903344FF440722846CDE9F9
:101364000144094B0949009403F026FF0849284623
:1013740006F040FB204609B030BD00BF99130000C1
:1013840078060020F00100207116000020110020D2
:1013940091850000014804F04DB800BFE001002031
:1013A4002DE9F04780461F480F4605F07FFE0646AC
:1013B400002830D000252846BDE8F087237B73B190
:1013C4002368DB680BB12046984723681B69D3B9AF
:1013D400636804222046196800F0F6F901361034D7
:1013E4004C45EBD3B8F1000FE5D0002DE2D02846F0
:1013F400FFF770FF0546002FF7D000214FF4A470CB
:1014040004F026FBF1E7204698470028E0D00AFACA
:1014140006F31D43E2E705464FF0010A024CDFF8EC
:101424000C90DDE730080020C0800000D080000070
:10143400014B53F8200070470C81000008B50346A7
:1014440008462BB1044A136000F074FC002008BD68
:101454006FF01500FBE700BF0400002010B5044C3A
:10146400237813B9034803F0E5FF0123237010BD6B
:1014740016110020E001002010B50446064805F0CE
:1014840015FE3CB1054BD3E8EF1F0139C3E8E21F59
:10149400002AF8D110BD00BF280800202C08002025
:1014A40000200146034BD3E8EF0FC3E8E21F002AF4
:1014B400F9D170472808002070B5FFF7F1FF054601
:1014C400074C084EB44200D370BD63685B792BB1FE
:1014D40023685B6813B12946204698471034F1E726
:1014E400C0800000D080000010B5044C04492046A0
:1014F40005F06DFC034B1C6010BD00BF54010020BF
:10150400F88000002008002008B50023074A4FF4A3
:1015140000411370064A07481360074A1360FFF737
:101524008DFFBDE80840FFF7DFBF00BF17110020A3
:1015340028080020AD7000002C080020014600227D
:101544000023014805F064BC54010020014805F063
:10155400FDBC00BF54010020024B0146186805F091
:1015640047BD00BF20080020014805F07DBD00BF35
:101574005401002070B5264B1878002847D0FFF797
:10158400E5FF054670B1234BD3E8EF1F0139C3E8EB
:10159400E21F002AF8D1204C204EB4422DD3284615
:1015A400FFF7DAFF1E4B1F4C1B68002B19DD06F0FA
:1015B40032FB4FF47A72A0FB020302FB0131C30B2E
:1015C40043EA4143D4E900209B1A40F2E9324FEA4E
:1015D400D13161EB0001934271F1000101D3FFF7B6
:1015E4006BFFD4E9003213F57A7342F10002C4E9C7
:1015F4000032BDE87040FFF7B7BF63685B7923B181
:101604002368294620461B6898471034C5E770BDF7
:10161400161100202C080020C0800000D08000009B
:10162400280800207006002070B50D4D297861B996
:101634000120FFF7B5FE0B4C0B4EB44206D3FFF767
:1016440099FF0028FBD101232B7070BD63685B797F
:101654001BB1236820469B6898471034EDE700BF10
:1016640017110020C0800000D080000000212DE967
:10167400F0470846FFF794FE044658B340F2676803
:101684004FF0000906F038FB1B4B1C4A1B58136033
:1016940033B11B4B1B68092B02DD1A4803F0CAFE49
:1016A4000025194FDFF85CA044B12046FFF712FE75
:1016B400044618B94FF0FF384FF0FF39FFF75AFFCF
:1016C400064628B9B5B942464B46504603F0D6FE05
:1016D4003546E9E74FF0FF384FF0FF39D2E72B6882
:1016E4009B691BB100222846114698471035BD421C
:1016F400F5D3E8E7054DFAE70800000024080020C8
:101704002C080020E0010020D0800000C0800000F0
:1017140013B5184805F0CAFC174B1B787BB14FF082
:101724002003EFF3118483F31288BFF36F8FFFF765
:1017340021FF84F31188BFF36F8F02B010BD0F4BEC
:101744001B68002BF9D050B9002200230C48CDE9C6
:1017540000234FF40042002304F0C6FBEDE7092800
:10176400EBD1074806F065FA064802B0BDE8104020
:1017740003F060BE2C08002017110020240800206C
:1017840078060020E001002010B5064B04461B68D3
:1017940098472146A060044805F0B8FBBDE8104016
:1017A400FFF7B6BF0400002054010020044A054B93
:1017B4009B1AB1EBD30F34BF52F8310000207047AD
:1017C40038800000C0800000084B10B4C31A44687D
:1017D4001B110133237143689A7101224368196014
:1017E40043685A7110BCFFF739BE00BFC0800000C7
:1017F4002DE9F04F8FB0C1F34A2804AF0D4691464E
:10180400B8607B600C0DB8F1000F63D000264FF078
:10181400040B4FF00A0A07F11403C7F80C80C7E958
:1018240007667E620193CDF808B0CDF800A007F1F9
:101834001C0332464846F968FFF7C8F8B0F5006F54
:1018440003461CD36C468AB0D9F8041004AB26486E
:101854001A46C3E9050140F2FF71D9614FF40071E2
:101864001984224B42F8103F4FF41251334620485A
:10187400FFF7BEFFA5462C37BD46BDE8F08FC0F389
:101884000A0804F11700184420F0070080083B60A0
:10189400FFF754FE68F35325044690B13B6800F10A
:1018A4001001C7E9083607F11403F961CDE900A373
:1018B400CDF808B048460F4AF96807F11C03FFF752
:1018C40085F868F353252A4620467B68B96805F0F5
:1018D4001FFCD0E704F1170020F007008008FFF791
:1018E4002DFE0446EDE700BFA685000004000001BC
:1018F40078800000E97000002DE9F04F87B00446BD
:10190400DDE9105ADDE912690F4693469846A6B3FD
:101914001021334652460020CDF80090CDF81490A3
:10192400FEF782FE014605F117000844144B04F04B
:1019340007040BF0070BE40020F0070003EA41233F
:1019440044EA8B1480081C430391FFF7F7FD44EA33
:101954000554054640B13EB1334652460399CDF88D
:1019640000901030FEF760FE434622463946284672
:1019740007B0BDE8F04F05F0CBBB3146D3E700BF5D
:1019840000FE0F000EB403B503AB53F8042B01465D
:101994000448019301F06EFA02B05DF804EB03B061
:1019A400704700BF7B710000CA0605D48B064CBF8C
:1019B40002490349FFF7E6BF704700BFE685000010
:1019C400E58500002DE9F04F89B09A46DDE91473EE
:1019D4009DF84CB00593169B04460D46179E06923F
:1019E4000493BBF1000F00F0858006F00803079311
:1019F40005F076FB06F002090246002849D020468D
:101A04008549FFF7BFFF8046B9F1000F08D016F0F3
:101A1400440F40D12A4620468049FFF7B3FF804453
:101A240006F0010353B17E4B204653F82B207D4B27
:101A34007D49002A08BF1A46FFF7A4FF06F00803F1
:101A4400002B54D0794B204653F82B207849FFF7CC
:101A540099FF0546069B2BB11A4620467549FFF7A8
:101A640091FF0544BAF1000F05D052462046724951
:101A7400FFF788FF05444544002F49D1049B002B00
:101A84004FD1F30700F1C18031462046FFF78CFFA8
:101A9400B5E08046B8E7694B18680028BFD0684BAA
:101AA4004FF47A791B684FF46161B5FBF3F5B5FB2C
:101AB400F0F300FB135509FB05F5B3FBF1F2B5FB9D
:101AC400F0FE4FF03C0C01FB123100FB1E55B1FB44
:101AD400FCF309FB05F5B5FBF0F50CFB13112046EF
:101AE4000091CDE901E55749FFF74CFF97E706F070
:101AF4000805AFE7BAF1010F06D1002F65D1049BA9
:101B0400002B7CD000250CE0002FF8D04E485DE07F
:101B14004E483B4622464E4904F03FFE049B002BB0
:101B240069D0DFF83081DFF83091049F3146102FFF
:101B3400204628BF10274FF0000AFFF735FF554510
:101B440046DC059B494620461A78FFF71BFF4FF0F9
:101B5400010A1AF0070F03D141462046FFF712FF8E
:101B640057453CD9059B4946204613F80A20FFF700
:101B740009FF0AF1010ABAF1100FEAD14FF0000A85
:101B840020463649FFF7FEFE5246059B20469A5CE6
:101B9400334B995C11F0970F08BF2E223149FFF7A0
:101BA400F1FE0AF1010ABAF1100F1DD01AF0070F65
:101BB40003D141462046FFF7E5FE57455246E4D897
:101BC40041462046FFF7DEFEEBE720485D46A0E7EE
:101BD40041462046FFF7D6FE0AF1010AAFE7204648
:101BE4002149FFF7CFFEC4E7059B3B440593049BC3
:101BF400DB1B049399D1BBF1000F7FF442AF204665
:101C040009B0BDE8F04F05F0A9BA2046054A0649D7
:101C1400FFF7B8FE38E700BFED850000F18500004E
:101C24001C810000E88500005E8400003081000013
:101C3400168600001C86000020860000380800205C
:101C440034080020FA850000A97100007B710000AF
:101C5400792E00002D860000258600002F860000C6
:101C64009C8E0000318600002B8600002DE9F04197
:101C74000F884B6805460C4690468E6886B0C7F3BD
:101C840082175BB1144A9B1A43F3CF01002920DB6E
:101C94002078C0F3C200FFF789FD0346214651F8BE
:101CA400102B6088C2F34A22002A01EB020408BF09
:101CB40000210022C0F30B10CDE90408CDE9021481
:101CC4002846314601970092FFF77CFE06B0BDE836
:101CD400F0810023E2E700BF3880000042F20F7376
:101CE40073B58B4228BF0B46056804460521684638
:101CF4000D4A04F0C1FA0646636828460B225B6865
:101D04000A4905F01EFA63683246694628465B684C
:101D140005F017FA63681B2228465B68044905F03E
:101D240010FA02B070BD00BFE18D000050860000C3
:101D34003486000000210123064A904206D8064A50
:101D440001B901231360054B186070470121400855
:101D54005B00F2E740420F003408002038080020FE
:101D6400014B002019607047500800200122024BEB
:101D740002481A7005F0F2B91911002060810000C0
:101D84000148FFF7ABBF00BF6081000010B5064BF0
:101D94000C461868FFF74CFB2146BDE8104003468B
:101DA4000F220248184700BF50080020608100003D
:101DB400F8B50D460446064F4618B44201D12846EC
:101DC400F8BD14F8011BBB6801485B689847F4E749
:101DD400D47D0000014804F00DB900BF70810000FB
:101DE40038B5044618B90F4B0F485B6898476168CB
:101DF400B1F5683F10D0B1F5680F0DD00B4DA94275
:101E04000AD011F46861206807D00146084805F03B
:101E1400C5FD00232360656038BD142205F034FF3E
:101E2400F9E700BFE8000020968600002C5F5CA95B
:101E3400540D002008B560B34368B3F5683F0ED075
:101E4400B3F5680F18D0144A934220D000684FF0BD
:101E5400FF324FF0FF3303F037FA58B115E0012297
:101E64000368D3E8EF1F002903D1C3E8E02F00285B
:101E7400F7D10AD1002008BD0368084A1B7803F58E
:101E8400807352F82330002BF4D00548F3E705485B
:101E9400F1E76FF4E040EEE72C5F5CA9000003502B
:101EA400E98FFFFFEA8FFFFF08B520B34368B3F55E
:101EB400683F09D0B3F5680F13D0114A93421DD07F
:101EC400006803F07BFA14E000220368D3E8EF1FF4
:101ED400012903D1C3E8E02F0028F7D109D009482C
:101EE40008BD00210368084A1B7803F5807342F893
:101EF40023100020F4E76FF4E040F1E70348EFE734
:101F04002C5F5CA9E98FFFFF00000350EA8FFFFFFD
:101F140010B5044618B91D4B1D485B6898476368A3
:101F2400B3F5683F2FD0B3F5680F2CD0194A93420C
:101F340019D1236803BB4FF0FF324FF0FF33214622
:101F4400154803F0CDF808B923681BB90F4B1348A3
:101F54005B68984714220021206805F095FE4FF431
:101F64006863636008E0B3F5683F0DD83A2B03D08B
:101F740040F6BA629342DED1206805F054FD6368EE
:101F840043F03A03636010BD054AF3E7E80000201C
:101F9400968600002C5F5CA9540D0020BC860000CE
:101FA4003A00003A08B5064940231422054805F0D2
:101FB400E7FCBDE808400449044804F08DB800BFBC
:101FC40054080020540D0020788100008C8100000A
:101FD400014910220A60704710ED00E072B64040DB
:101FE40080F31188BFF36F8F01B5FFF769F80028FC
:101FF40002D0BFF34F8F30BFBDE8014062B6BFF3DC
:102004006F8F704772B6494081F3118801B5FFF7AD
:1020140057F8002802D0BFF34F8F20BFBDE801401E
:1020240080F3118862B670472DE9F04781460C466B
:1020340000AF00294CD0D1E900126E468AB0A368E3
:102044006D464FF0050AA8462548C5E90723C5E9AA
:10205400050148F810AF002342464FF421512148AE
:10206400FFF7C6FBD4E90312B5466369AD461E48C3
:10207400C5E90723C5E90501C5F810A000234246B8
:102084004FF421511748FFF7B3FBB54688B0E36915
:102094006D464FF0030AA846144AC5E9052348F8DB
:1020A40010AF002342464FF4C2510E48FFF7A0FB85
:1020B400B546A369AD460E4AC5F810A0C5E9052387
:1020C400002342464FF4C2510648FFF791FBB54640
:1020D4002146484602F078FEBD46BDE8F08700BFC1
:1020E400E9860000A08000001887000047870000F0
:1020F4005687000040B2002807DB01234109034A48
:1021040000F01F00834042F82130704700E100E0F6
:1021140040B200280CDB01220649430900F01F00ED
:102124008240203341F82320BFF34F8FBFF36F8FDA
:10213400704700BF00E100E0054B420953F822203C
:10214400012300F01F0003FA00F01040704700BFA5
:1021540000E100E040B2002801F10101ACBF00F150
:102164006040064B4FEA4111C9B2ABBF00F5614074
:1021740000F00F0080F800131954704714ED00E0CC
:1021840030BFFFF7FDBF00BF0B4A08B50B4B22F071
:102194007F029A60BFF34F8FBFF36F8FD3F888200D
:1021A40022F47002C3F8882002F0CEFE03F0D0FCC3
:1021B40000F0F2FB02F012FF0000000000ED00E06E
:1021C400094A0A49936809685867996708494B6836
:1021D40043F080534B60002383F31188BFF36F8F68
:1021E4009368986F704700BF0C0F0020D0820000E6
:1021F40000ED00E016498A684FF030001044EFF318
:10220400098C80E8F01F202080F31288BFF36F8FC1
:10221400104F4FF000664A698A603E604FF07004C8
:10222400141920680C4C2060506F0023536780F30E
:10223400118802F1300090E8F01F8CF3098802F154
:10224400000004B504F0D0FFBDE80440704700006E
:102254000C0F002004ED00E0700D00201EF0040FB0
:102264000CBFEFF30880EFF30980816911F8021CB9
:102274000229FFD001B504F0A8FF01BD42F8203CBB
:10228400009B0B4942F81C3C019B21F0010142F8E0
:10229400183C029B42F8081C42F8143C4FF080732F
:1022A40042F8043C0023203A02654367704700BFAC
:1022B400910D00000A4B046F98600A4B1C60036E7A
:1022C40083F30B88104681F30988002163B681F3F8
:1022D4001188BFF36F8F00220023FEF757FD00BF64
:1022E4000C0F0020700D002001B5EFF30580A0F164
:1022F40010004FEAC0000449014409C99847BDE8E9
:102304000140024908470000107E000071230000CC
:10231400114B124A2DE9F041D518013DB5FBF3F5F7
:10232400DFF83C805D430F4B074608EB0304013C98
:10233400B4FBF3F403FB04540E1B30460A4905F0C6
:1023440096FC701942460021083E05F09DFC3E674C
:1023540004F10800BDE8F081010000000000000065
:102364000400000004000000D0800000044B9968C1
:102374005869884203D003494FF080520A6070477D
:102384000C0F002004ED00E02DE9F04186B0064674
:102394000D4600AF0224444B4FF482517B61434805
:1023A4003C6107F1100204F023FF414B9B6ADB06FA
:1023B40078D5404B3D484FF48251C7E9044307F1B7
:1023C400100204F015FF1120394B9B6A1C070BD532
:1023D400394B36487B6102234FF482513B6107F14C
:1023E400100204F005FF1220314CA36A990723D58B
:1023F400E846324B07F110027B6102234FF482510D
:102404003B612A4804F0F4FE636BA26A120612D5FB
:1024140088B06A462A492548C2E9051303234FF4C4
:10242400C25142F8103F04F0E3FEC5461EB1A36A50
:1024340023F08003A36213201D4B9B6ADE070BD598
:10244400204B1A487B6102234FF482513B6107F110
:10245400100204F0CDFE1420154B9B6A9C060BD58C
:10246400194B12487B6102234FF482513B6107F1FF
:10247400100204F0BDFE15200D4B18379A6AD106E0
:1024840058BF9A6A9A6A920642BF5A6A22F4005264
:102494005A629A6A42F0FF029A6200232B70BD4688
:1024A400BDE8F08110208FE784870000A080000041
:1024B40000ED00E09A870000CD870000E08700006F
:1024C400F88700000E8800002D8800002DE9F041F7
:1024D40086B006460D4600AF0224474B4FF48251A6
:1024E4007B6146483C6107F1100204F081FE444BD5
:1024F4009B6AD9046DD5434B40484FF48251C7E9D8
:10250400044307F1100204F073FE17203C4B9B6A4E
:102514001A050BD53C4B39487B6102234FF4825199
:102524003B6107F1100204F063FE1820344CA36AE7
:102534009B0523D5E846354B30487B61022307F1E0
:1025440010023B614FF4825104F052FEA36BA26A65
:10255400100412D588B06A462D492848C2E90513EB
:1025640003234FF4C25142F8103F04F041FEC54624
:102574001EB1A36A23F40043A3621920204B9B6A73
:1025840059050BD5234B1D487B6102234FF482511F
:102594003B6107F1100204F02BFE1A20184B9A6AD3
:1025A400D20518D51C4B15487B6102234FF4825188
:1025B4003B6107F1100204F01BFE1B20104A183780
:1025C400936A43F47F43936200232B70BD46BDE8B6
:1025D400F08116209AE79B6A9B04EFD50F4B0748BE
:1025E4007B6102234FF482513B6107F1100204F036
:1025F400FFFD1C20E2E700BF5C880000A080000013
:1026040000ED00E072880000CD87000083880000A0
:102614009C880000B1880000CC8800002D88000050
:1026240010B586B002243E4B4FF482513D4804AAB3
:102634000593049404F0DCFD3B4B9B6A99016CD533
:102644003A4B38484FF4825104AACDE9044304F0CC
:10265400CFFD1E20344B9B6ADA010AD5344B314836
:10266400059302234FF4825104AA049304F0C0FD9D
:102674001F202D4B9B6ADB020AD502242D4B2948CF
:102684004FF4825104AA0593049404F0B1FD20464A
:10269400254B9B6A1C030AD5274B2248059302232A
:1026A4004FF4825104AA049304F0A2FD21201E4B8E
:1026B4009B6A59030AD5214B1A48059302234FF408
:1026C400825104AA049304F093FD2220164B9B6AC2
:1026D4009A030AD51A4B1348059302234FF48251E7
:1026E40004AA049304F084FD23200F4B9B6ADB03AC
:1026F4000AD5144B0B48059302234FF4825104AAC4
:10270400049304F075FD2420074A936A6FEA034397
:102714006FEA1343936206B010BD1D209AE700BF11
:10272400E4880000A080000000ED00E0FC880000C8
:102734000F89000029890000538900007189000075
:1027440096890000B08900002DE9F0438BB07A4BE4
:102754000446D3F80480002600AFC8F3080586F3C6
:102764001188BFF36F8F02F07F43B3F17F4F0ED117
:1027740002F00C03082B19D1704B4FF48251FB610A
:1027840002236F48BB6107F1180204F031FD0026F3
:1027940034460023FB71EB1E092B00F2AC80DFE80A
:1027A40003F00A9FA29BAAAAAAAAAAA510074CBF33
:1027B4000C460126EDE7E9464FF00208614B07F1AC
:1027C4001802FB614FF482515D48C7F8188004F089
:1027D4000FFD0023584DFB71EB6A9A070BD55A4B3A
:1027E400C7E906834FF48251554807F1180204F0F3
:1027F400FFFC002341E0EB6A002B01DA534BEFE7C7
:10280400EB6A5B00F5D5524B07F11802C7E9068362
:102814004FF482514A4804F0EBFC6B69A26943F41B
:1028240080736B61BFF34F8FBFF36F8F6B6932F8A7
:10283400022C23F480736B61BFF34F8FBFF36F8F50
:102844004DF602739A4208D0AB6ADBB2002B36D045
:102854000120F91DFFF798FD40E088B023686A461F
:102864003C493748C2E9051303234FF4C25142F8E7
:10287400103F04F0BDFCCD462368FA79DAB907F1BC
:10288400080504F1200C2A4620686168083403C254
:1028940064451546F7D17A6A002E47D0C2F3080181
:1028A40021B96FEA52226FEA42227A62184607F18E
:1028B4000801FFF7B9FB2C37BD46BDE8F083AB6ACE
:1028C40013F47F4F04D00120F91DFFF7FFFD05E04D
:1028D400AB6AB3F5803F8CD3FFF7A2FE0346CCE787
:1028E4000020F91DB6E70020F91DEEE71A4BFB6145
:1028F4000223BB6176E7194A18F4F87FE8468AB0E8
:10290400174B18BF13466A461649103DC2E9051312
:102914004FF400731384144BD5614FF411510848DC
:1029240042F8103F04F064FCC54662E722F4FF72EB
:1029340022F00102B9E700BF00ED00E0098A0000BF
:10294400A0800000348A00004B8A00006C8A0000DA
:102954007A8A0000998A0000B58A0000F089000094
:10296400DB890000D98A000004000001044B5A6985
:1029740042F010025A615A6942F480625A61704707
:1029840000ED00E0EFF30880EFF3098101B5724632
:10299400FFF7DAFE01BD00BF002320210348C2185F
:1029A4000133452B82F80013F9D1704700E100E0B0
:1029B400002080F31488BFF36F8F002080F30A880F
:1029C40080F30B88FEF784FC00200E490860BFF3F7
:1029D4004F8F0D4880F3088800F03EF8202080F3E4
:1029E40011880A484FF40061401880F30988EFF316
:1029F40014800221084380F31488BFF36F8FFFF71C
:102A0400C3FB000094ED00E06021002020140020AE
:102A1400BFF34F8F0549064BCA6802F4E0621343C3
:102A2400CB60BFF34F8F00BFFDE700BF00ED00E0B8
:102A34000400FA05002318460649D1F89020C2F391
:102A44000722934200DB7047C1F89830C1F8A00018
:102A54000133F6E700ED00E010B572B6002484F30C
:102A64001388FFF7E7FF23464FF0FF300C4A03F1CA
:102A740020010133102B42F82100F8D100234FF03C
:102A8400FF30074A03F160010133102B42F82100A3
:102A9400F8D162B6BFF34F8FBFF36F8F10BD00BF85
:102AA40000E100E0084B9B6883420BD1EFF3058300
:102AB40043B1064B5A6842F080525A605A6A22F473
:102AC40000425A6202F0E4BF0C0F002000ED00E067
:102AD4001FB5094C094A23460121094800F02AF987
:102AE40000230393074B0121E41A01A801930294E4
:102AF40000F02AF904B010BD0000072000000020F7
:102B04009C810000F001002010B50C7A0B6804F0E1
:102B14001F0223F01F031A43CB68640923F01F0329
:102B2400054943EA440343F00103C1F89800C1F89E
:102B34009C20C1F8A03010BD00ED00E080B500AFCE
:102B440088B06A46074BC2E90530032342F8103FB8
:102B540000234FF4C2510448FEF74AFE6FF01500FB
:102B6400BD4680BDF08A0000988000002DE9F04F3A
:102B7400144606464FF0000987B05F4D00AF7960F8
:102B84007B68994535DAD6F80480B8F1000F54D043
:102B9400B8F11F0F1BD918F01F0F18D1D6F800B0C9
:102BA4001BF01F0F13D1584604F025FB824608EB97
:102BB4000B00013804F01FFB82451FD06FF0150A8B
:102BC4006C4688B06A464D49C2E9051A05E06C4670
:102BD40088B06A464A4BC2E90539032342F8103FDC
:102BE40000234FF4C2514748FEF702FEA5466FF09A
:102BF400150420461C37BD46BDE8F08F1AF1160FA8
:102C0400DED05445DCDDC5F898A0D5F89C00C5F8A5
:102C140098A0D5F8A02020F01F0042F01F08D6E9A4
:102C240000211144904201F1FF3B1ED1D84508D147
:102C340031465FFA8AF004F0E7FA09F101090C362B
:102C44009EE7C5F898A0D5F89C3021F01F0103F049
:102C54001F030B433146C5F89C30E0B204F0D4FAAC
:102C640010F1160FC3D0441CE7E7013AD845E0B28F
:102C740022F01F02C5F898A008D1D5F8A03031463B
:102C840003F01F031343C5F8A030E7E7D5F8A010FD
:102C940001F01F010A43C5F8A020314604F0B4FA3C
:102CA40010F1160FA3D0C5F898A0D5F89C203B7C52
:102CB40008F1FF3862F304033B74D5F8A0303A7C82
:102CC4005B0863F347123A74D6E900321344BB60DD
:102CD40023F01F03441C4344A3EB0B03E0B223F093
:102CE4001F0307287B6102D9FFF728FFB8E707F124
:102CF4000801FFF709FFB6E700ED00E0398B00009B
:102D0400168B0000988000000522044BC3F8942021
:102D1400BFF34F8FBFF36F8F704700BF00ED00E02C
:102D2400BFF35F8F0022024BC3F89420704700BFAB
:102D340000ED00E010B5034C2278FFF717FF207078
:102D440010BD00BF1A1100202DE9F74F294D8A4606
:102D540006464FF00008AB46274FD0451BDAD6F89D
:102D64000490B9F1000F3FD031680846019104F096
:102D740042FA0199044609EB0100013804F03BFAD8
:102D840084424FF014021D4B08D002FB08F36FF08D
:102D940015024BF8032003B0BDE8F08F14F1160FB1
:102DA4002C60F8D01978A142F5DD02FB08B0C7F811
:102DB4009840C7F89840D7F89C4000F10801007B80
:102DC40064F304000871D7F8A0000C79400860F39C
:102DD40047140C71D7F89C1021F01F016960D7F8D3
:102DE400A01021F01F01296108F1010814350C36E7
:102DF400B3E700BF740D002000ED00E01A110020BD
:102E040038B50E4D2C68082C15D80020FFF788FF24
:102E14000B4B0C4AC3F8C020844205D10A4B002056
:102E24001C70FFF771FF38BD696801EB0011FFF7F3
:102E34006BFE0130F0E74FF0FF30F4E7A8810000AB
:102E440000ED00E0AAFF44001A11002008B5024B6F
:102E54001B689847002008BD880D0020034B044AD6
:102E64001860937843F0020393707047880D002034
:102E740028000020F0B587B007460E46144600210E
:102E8400102268461D4604F0FFFE02238DF802302E
:102E9400054B2A4621466846CDE90476019303F0A2
:102EA40017FA07B0F0BD00BF4D72000008B506491F
:102EB400064821F00701C1F1005202F5E02203F0B7
:102EC40059FD002008BD00BF7321002060210020AF
:102ED400084B70B5C31A0D4607499B100446594365
:102EE4004022064804F0D7F92B4601462046BDE8A7
:102EF40070401847A00D0020B76DDBB6987D000028
:102F0400402373B50B4C0093041B0B460D460A4932
:102F1400A41061430646094A094804F0E8F9011E71
:102F240005DA30462B4602B0BDE87040184702B0BF
:102F340070BD00BFA00D0020B76DDBB65D7300004F
:102F4400987D00002DE9F843002201210646052062
:102F5400FFF700F9114801F089FA114B984219D191
:102F640004F019FC00244FF01C090C27DFF834800E
:102F74003569414609FB045003F0A4FD002807DB32
:102F8400012307FB04551C44042CAB67F0D100203B
:102F9400BDE8F8836FF00400FAE700BFE12F0000FA
:102FA4000000AD0BD081000001460C2300224B43EE
:102FB40070B50848C41878331844D4E91C562267FD
:102FC40004F056F92DB132462B46BDE87040024854
:102FD400184770BDA00D0020987D0000062812D867
:102FE400DFE800F0040F1111110D0B00064B986F70
:102FF40010F0070007D1FFF7D7BF0220FBE703203B
:10300400F9E70120F7E77047A00D002008B54FF05D
:103014002003EFF3118183F31288BFF36F8F124AF9
:10302400136843F002001060DA0708D481F31188B2
:10303400BFF36F8FBDE80840012004F0BEBB4FF022
:103044005023D3F80C24D3F80C34DB07EED507480F
:1030540004F00EF981F31188BFF36F8FBDE80840C7
:103064000020FFF7A1BF00BF400E0020180E002073
:103074001FB500220123CDE902236B46084ACDF88F
:1030840000D0CDF804D004F060F9002805DB4FF43B
:1030940080420023684602F0F1F905B05DF804FBB4
:1030A4009373000010B54FF02003EFF3118483F302
:1030B4001288BFF36F8F074A136823F00201DB07FE
:1030C400116002D4012004F0D7FB84F31188BFF30C
:1030D4006F8F10BD400E00202DE9F04101220746FC
:1030E4003749D1E8EF3FC1E8E02F0028F9D133B9DF
:1030F400344935484B60CB608A6003F0F6FC7B1E94
:10310400012B2BD8012F07D14FF05023D3F81C34B7
:1031140003F00303022B21D004F066FC0546F8B942
:103124002A4B1B78E3B14FF0502302220646C3F822
:1031340008234FF05024DFF89880D4F81824D4F8EA
:103144001834D20316D503F00303022B01D0012F48
:1031540010D175B386F31188BFF36F8FBDE8F0818A
:103164004FF02003EFF3118683F31288BFF36F8FC0
:103174000125DEE7C5B13046FEF744FFD4F8183523
:10318400DBB2012BD9D1D4F80421002AD5D00022F6
:10319400C4F80421D4F804210222C4F818252022FA
:1031A400C8F88021A360C8E70021212002F050FC68
:1031B400E4E74FF050230222C3F80423CEE700BF14
:1031C4009C0D00208C0D0020BC0D00201D11002042
:1031D40000E100E008B5074804F0ADFB38B106484B
:1031E400FFF73CFE0448FDF7CBFD002008BD6FF05F
:1031F4001200FBE7D47D0000013200000A2838B534
:103204000446074D04D1AB680D2128465B689847F6
:10321400AB6803485B68E1B29847204638BD00BFFD
:10322400D47D000030B5406801F01F04057BB2F581
:10323400001F85B044EA451405D1204601F026FC60
:10324400002005B030BD0025B2F5800FCDE9025550
:1032540014D1B3F1007F0CBF042305238DF808308B
:1032640000232046194602AA01F032FA224B984262
:103274003CD10121204601F0BDFBE1E7B3F1C06F71
:1032840027D0B3F1007F14BF012302238DF8083047
:10329400836823FA01F111F00101E1D1B2F1A07FB9
:1032A400DED104F01F03620903F1800313D0012A65
:1032B4001FD1124A52F82330DB07D1D40DF1070590
:1032C4002946204601F040FB0D4B984205D003955A
:1032D400C6E70323DAE70B4AECE7284601F084FB50
:1032E400054B9842F3D06FF00B00AAE76FF015007E
:1032F400A7E751F82330FFDE0000AD0B002884500F
:103304000400AD0B0025845010B501F05DFB0446AC
:1033140068B901F031FB084B98420AD121460748AD
:1033240001F00CFB224605210D20FEF713FF0020BF
:1033340010BD6FF00400FBE70000AD0B4533000047
:103344004209034670B502D0012A17D070BD0D4E54
:10335400326951680029F9D0012503F01F030C6874
:103364009D400029F2D08A682A4002D030464B683A
:1033740098472CB1236821461C46F2E7024EE7E742
:103384002346F8E7C07D0000AC7D00002DE9FF4135
:10339400476801F01F053B7B144645EA43150E467A
:1033A40028460DF1070101F0CFFA14F4403F80469E
:1033B4000DD1284601F090FB3C4B984503D19DF874
:1033C400070001F00BFB002004B0BDE8F0810023EE
:1033D4002846194602AACDE9023301F079F9334BA4
:1033E400984214D1804503D19DF8070001F0F6FA04
:1033F400A3034CD540F206332340B3F5837F1AD0A0
:103404000DD8062B18D005D8B3B1022B32D06FF0EB
:103414001500D9E7B3F5807FF9D101230CE040F220
:103424000222934228D0B3F5407F27D0B3F5007F22
:10343400EDD1022300E007238DF8083084F48033B3
:10344400C3F30043E0068DF809304CBF0323C4F3F3
:10345400401321038DF80A3012D501237A68B34052
:1034640093600022284602A901F0EAF90F4B984222
:10347400A9D0CCE70423DFE70523DDE70323DBE75B
:10348400620341BF01237A68B340D360E9E7E306EE
:103494004FF000034CBF0324C4F340141A462846DB
:1034A40002A98DF8084001F013F9DFE70000AD0B25
:1034B400B0B500AF224D284604F03DFA034678BB70
:1034C4006C4688B029686A461E48C2E905014FF473
:1034D400007191831C4942F8101F4FF4E2511B48BC
:1034E400FEF786F9A5466FF012042046BD46B0BD2E
:1034F4002B686D468AB06A461549C2E9051315233F
:10350400C2E907344FF400739384124B42F8103F1E
:1035140000234FF431510D48FEF76AF9AD46E4E754
:103524002A69A9681368284623F4001313600B68FA
:103534004FF4C02215219847041ED9DB0024D4E798
:10354400C07D0000BD8B00000300000170800000FE
:10355400D48B00000500000110B504460269A8B030
:10356400C2F880002549002001F0C6FB0022012199
:103574002A20FEF7EFFD64688422002107A804F0E6
:1035840083FB6368B3F5803F0AD31D4B0593022385
:10359400049300234FF484511A4804AAFEF728F92F
:1035A4002368B3F5803F0AD3174B05930223049392
:1035B40000234FF48451134804AAFEF719F9002399
:1035C4000120279307AA61680432D940C90744BF80
:1035D40000FA03F142F8041C2168D940C90748BF26
:1035E40000FA03F103F1010348BFD163102BEAD1C0
:1035F40007A801F099FB002028B010BD0537000092
:10360400178C000090800000438C000030B50F2917
:103614000C46056987B042D843681B68CB40DB077A
:103624003DD5D5F88430CB4003F001031AB913BB60
:103634006FF0770031E0002BFAD155F821304BB907
:10364400184A0592022204924FF48451164804AA9F
:10365400FEF7CEF8D5F8843013B92A20FEF74AFDD8
:103664000122D5F88430A2401343C5F88430E0B277
:1036740001F07AFB0AE0C8B201F07EFB0122D5F822
:103684008430A24023EA0203C5F88430D5F884309C
:1036940013B92A20FEF73CFD002007B030BD6FF0BF
:1036A4001500FAE76F8C00009080000030B50546E5
:1036B4000C4687B052B1104B0593022304930023A8
:1036C4004FF484510D4804AAFEF792F80F2C0FD83A
:1036D4006B685B68E340DB070AD501230020A40084
:1036E400E4B204F1A04404F52834236007B030BDEB
:1036F4006FF01500FAE700BF9F8C00009080000077
:1037040070B5D1F880600F2804460D46736886B002
:1037140003D81B68C340DB070AD4154B0593022367
:10372400049300234FF48451124804AAFEF760F86E
:10373400D5F88430E34013F0010309D10E4A059211
:10374400022204924FF484510A4804AAFEF750F866
:1037540005EB840255F8245045B100232146304638
:10376400AC46126C06B0BDE87040604706B070BD50
:10377400BA8C000090800000D68C0000036803F02F
:103784001F025B09026004D0012B034818BF00200C
:1037940070470248704700BF0028845000258450B9
:1037A4002DE9F04F154681460127DFF8788185B071
:1037B40000EB8101494503D1002005B0BDE8F08F3D
:1037C400D9F8003003F07F04C3F343267F2C4FEA7B
:1037D400134308BF4FF0FF34192B00F2A080DFE839
:1037E40003F00D141B1E21281E9E9E9E9E39676A9F
:1037F4006D707376797C9E9E7F95989BC5F80C4579
:10380400631C77D109F10409D4E7C5F81445601C99
:10381400F8D04FF0000A77E0C5F80845F0E7C5F89E
:103824001045F4E7621CC5F80845EBD04FF0000AD8
:1038340005E0C5F80C45631CE4D04FF0010A03A869
:103844000394FFF79BFF039B4FF0010B07FA03F36D
:10385400C36009E0C5F80845002ED8D1601CD1D05A
:103864004FF0000A0626D346D9F8003003A803F423
:103874000052002A1CBF4FF0010A4FF0000B0193C5
:103884000394FFF77BFF039A019B00EB8200D0F8BF
:103894000022C3F3C114330243EA840343EA0B0353
:1038A40002EA0802134343EA4A03C0F80032A9E7D4
:1038B400C5F80C45D0E7C5F86445BCE7C5F86445D0
:1038C400A5E7C5F86845B6E7C5F868459FE7C5F8B4
:1038D4006C459CE7C5F87045ADE7C5F86045AAE7B7
:1038E400C5F86045621CD9F800308BD0C3F380332F
:1038F400002BA2D003A80394FFF740FF4FF0010A66
:10390400039B07FA03F38360D346ADE7C5F8644528
:10391400E8E7C5F86845E5E7C5F86C45E2E76FF008
:1039240085004AE7F0F0FCFFF0B54B79012B29D074
:10393400032B24D110278B79032B20D1CE790EB100
:10394400012E1CD10A79012A1ED0022A20D0B2B934
:1039540014460B684568B3F5164FD5F800C06ED011
:1039640033D8B3F5165F6DD01CD8B3F5966F6BD012
:1039740010D8B3F5967F6AD0B3F5167F6AD06FF08E
:1039840085005BE00027D6E74FF480740E22E0E761
:103994000024FBE7B3F5166F5FD0B3F5965FEED165
:1039A400384B3CE0B3F5E14F5AD007D8B3F5615F2B
:1039B40058D0B3F5964FE2D1334B30E047F6122599
:1039C400AB42DCD14FF4000329E0B3F5613F4BD0A7
:1039D40013D8B3F5963F4AD009D84DF6C025AB426B
:1039E40047D0B3F5614FCAD14FF46B0317E0B3F579
:1039F400E13FC4D14FF0EB7311E0B3F5612F3BD03D
:103A040008D8224DAB423AD0B3F5E12FB7D14FF0ED
:103A1400E86304E01E4DAB42B1D14FF08053056919
:103A2400CCF8243543683A431B6834432243C3F833
:103A34006C252B1D03C983E803000020F0BD4FF45F
:103A44001D03ECE7134BEAE74FF49E23E7E74FF43B
:103A5400A033E4E74FF41C33E1E74FF41D23DEE722
:103A64000D4BDCE70D4BDAE74FF06C73D7E70C4BEB
:103A7400D5E74FF46503D2E74FF07063CFE74FF01B
:103A84008063CCE700B0130000A04E0090D0030088
:103A940040420F000050270000C0750000F03A00BB
:103AA40000903A012DE9F043804687B000220121BD
:103AB4000820FEF74FFB0820FEF71CFB0021D8F876
:103AC4000470D8F810603C686A46C4F80015C6F85B
:103AD4000080D7F80C90484603F0BBFC051E25DB9C
:103AE400009BD9F8002019791868FFF759FE051EC4
:103AF4001CDB4046311DFFF717FF0546B0B97B6854
:103B0400990723D506F1180000F018FD234B9842BD
:103B140010D0234B0593022304932B466FF0040526
:103B24004FF482511F4804AAFDF762FE284607B0ED
:103B3400BDE8F083307E04F10C0204F5907103F0CB
:103B440068FD0120337E984000F084FC0823C4F80B
:103B540000353B7A53B9C4F81031D4F81031736985
:103B6400C4F834350123C4F8383523607B689A07D8
:103B74005CBF4FF48073C4F804337B68DB0644BF36
:103B84004FF48003C4F804333369C4F84435002384
:103B9400C4F848350123A360E360C7E70000AD0B18
:103BA400118D0000B8800000F8B504460D46076981
:103BB40003F01AFFB0B92E4B1B789BB164266068E2
:103BC40003F0A1FC00BB012003F017FD013EF6D178
:103BD4000021212001F03CFFF0E786F31188BFF3B8
:103BE4006F8FF5E74FF02003EFF3118683F312880C
:103BF400BFF36F8F6068314603F085FC90B986F39C
:103C04001188BFF36F8FEDE74FF02003EFF31186B8
:103C140083F31288BFF36F8F6068314603F073FC3F
:103C24000028DAD03B691D70626838691368C3F8EC
:103C340044050120C3F848050020C3F82001D3F847
:103C44002051C3F858015268D3F85801D20608D558
:103C5400082062681268C2F800054FF48002C3F8B5
:103C6400042301229A6081F31188BFF36F8FF8BD9A
:103C74001D1100200123834070B5DC430B4AD2E8B8
:103C8400EF1F01EA0405C2E8E65F002EF7D14FF406
:103C9400803282400648C0F80823BFF35F8FBFF329
:103CA4006F8F0B4214BF0120002070BDEC0E00206A
:103CB4000050015070B40E4922F07F46D1E900341F
:103CC400D01AC31844F10004C1E90034A6F5001366
:103CD400B3F5400F09D2074B1B681A0A1B069C193F
:103CE400054B42F10005C3E9004570BC02F006B87B
:103CF400D0060020F00E0020D8060020D9B1012300
:103D04000D4A8340D2E8EFCF4CEA030CC2E8E1CF7E
:103D14000029F7D14FF48033084A8340C2F80433B2
:103D2400074BD3E8AF3FC340DB0742BF4FF4001259
:103D3400044BC3F800217047EC0E002000500150E2
:103D4400E40E002000E100E0C3B202489B001844E6
:103D5400704700BF40510150024B00F5A87053F862
:103D640020007047005001500D4B1868010A0006EE
:103D7400BFF35F8F0B4BD3F80435181841F10001E2
:103D8400B3F5801F0AD2084BD3E90023904271EBAC
:103D9400030303D210F1807041F10001704700BFAA
:103DA400F00E002000500150D80600202DE9F04FFD
:103DB40085B016461F4604469DF840A0FFF75AFFFB
:103DC4000190FFF7D1FFB04271EB070352D23B4B96
:103DD400301A67EB0101984271F100014DD2384B62
:103DE40003EB0413D3E902239F4208BF964258D041
:103DF4004FF48038334908FA04F8204626F07F4B04
:103E0400C1F8488303F0C8FB4FF00309584604F196
:103E14005005AD00ADB205F1502504F5A87305F5C4
:103E240080350293029A20F07F4341F82230C1F892
:103E34004483D1F80435244AC01A033820F07F4063
:103E440090422ED9286868B1D1F80435A3EB0B0051
:103E540020F07F40B0F5000F039322D9204603F0F1
:103E64009BFB039BBAF1000F07D109EB030009F197
:103E74000109D7E7BAF1000F09D06FF01505204604
:103E84000199FFF73BFF284605B0BDE8F08F0123F9
:103E94000E4AA340D2E8EF0F1843C2E8E10F00290D
:103EA400F8D107490E982301C8500F9B01EB041267
:103EB4000025C2E902675360E1E700BF010080000A
:103EC400B006002000500150FDFF7F00E40E0020EA
:103ED4007FB500254FF0FF304FF0FF314FF48032B3
:103EE4001C4C1D4B0226C4F80833C4F848331B4B42
:103EF400C4F80855C3E90201C4F80423C3E9060160
:103F04004FF400334FF40012C4F80433144B01216E
:103F1400C4F804631520C3F880212A46FEF71AF971
:103F24001520FEF7E7F801230322A36023600D4B5D
:103F340028461A600C4B0D4A1E600D4BCDE9015505
:103F440000930023FFF732FF3046FFF7C5F82846F9
:103F540004B070BD0050015003000F00B0060020F3
:103F640000E100E0EC0E0020E80E0020FFFF7F00DF
:103F7400B93C00002DE9F04F394B85B0D3F8042348
:103F840092070BD5D3F8042142B10022C3F80421CF
:103F9400344AD3F80431136801331360324D0024DA
:103FA400A8464FF480362E4FD7F8043306FA04F9A6
:103FB40019EA030F2ED00123A340DB432B49D1E898
:103FC400EF2F02EA0300C1E8EC0FBCF1000FF6D1B9
:103FD40022FA04F3DB0703D4254B53F82430CBB186
:103FE400204603F0D9FAFFF7BFFE4FF02002EFF3AB
:103FF400118382F31288BFF36F8F08EB041CDCE992
:1040040002AB504571EB0B0102930AD283F3118882
:10401400BFF36F8F103514B105B0BDE8F08F0124E4
:10402400C2E70020D5E900134FF0FF3203934FF0AD
:10403400FF3328600A48CCE90223C0F8489320469D
:1040440003F0AAFA029B83F31188BFF36F8F002950
:10405400E0D0039B524600935B468847DAE700BFF3
:1040640000500150F00E0020B0060020E40E0020A5
:104074004051015070B501240C4B186890B1B0FA4E
:1040840080F0C0F11F0004FA00F1C943D3E8EF2F18
:1040940002EA0105C3E8E65F002EF7D1C240D20769
:1040A400EBD570BD6FF00B00FBE700BFE80E0020FE
:1040B4000123054A8340D2E8EF0F1843C2E8E10F19
:1040C4000029F8D1704700BFE80E00201FB5431C3B
:1040D40022D0012822DD124A124B9042D4BF04465A
:1040E4001C46FFF741FE104B0E49D3E90023801A0A
:1040F400B0F5000F28BF002404448C4228BF0C46AE
:1041040000200A49A218CDE90100009143F10003FF
:10411400FFF74CFE04B010BD024CE2E70124E0E7D7
:10412400FEFF7F00FFFF7F00D0060020B93C0000A7
:1041340008B5FFF719FE024B1B68C01A08BD00BF83
:10414400D0060020012310B5074C15206360FDF74D
:10415400DFFF4FF40012054BC4F80833C4F84833AA
:10416400034BC3F8802110BD0050015003000F0021
:1041740000E100E07FB5FDF757FA074B05930223F2
:104184000493064800234FF4825104AAFDF730FB40
:104194000020FEF73DFC00BF4A8D0000688000004F
:1041A4004FF47F03D3F83021D3F83431072A05D1F3
:1041B400023B032B02D8024AD05C704700207047B0
:1041C4006F8D000008B5FFF7EBFF58B1784BD3F8BB
:1041D400202A3AB90D21C3F8201A0121C3F81C1969
:1041E400C3F81C290022D30003F57F03D3F800137E
:1041F400013107D0D3F800130132D3F80433202A55
:104204000B60F0D1FFF7CCFF002840F0B980FFF736
:10421400C7FF40B1674B684AC3F830254FF05023BD
:104224000122C3F858254FF47F03D3F83021D3F883
:104234003431072A09D1023B032B06D85F4AD35CE9
:104244001BB100225E4BC3F84C25FFF7A9FF50B108
:104254004FF05023D3F80024D00742BF0022C3F804
:104264001421C3F818214FF47F03D3F83021D3F875
:104274003431072A09D14FF05023D3F80024D10751
:1042840044BF6FF00102C3F80024FFF789FF18B19F
:104294006522474BC3F80C274FF47F03D3F8302132
:1042A400D3F83431072A16D1454BD3F82034002BE8
:1042B40011DA4FF050230322C3F8182501229A6023
:1042C400D3F80421002AFBD00022C3F804210122E0
:1042D400DA60C3F818254FF47F03D3F83021D3F8FC
:1042E4003431072A23D1023B032B02D8354AD35C4D
:1042F400EBB17E222E4B2F49C3F80C27C3F83C297F
:104304007F23314AC2F818310023C1F8043EC1F8B2
:10431400083E01F54821C1F81031C2F82431C2F831
:104324002C3102F5FF1202F58052C2F8A032274B5D
:104334009A6AD2072CD501211E4AC2F80415D2F874
:1043440000140029FBD09A6A22F001029A62194BE8
:10435400D3F80024002AFBD00022C3F80425D3F8A4
:104364000024002AFBD0BFF34F8F1949194BCA68A8
:1043740002F4E0621343CB60BFF34F8F00BFFDE74D
:1043840029220B4BC3F80C270322C3F83C273EE732
:104394000F49D1F88C2042F44062C1F88C2019688E
:1043A4000D4AC2F84415DB69C2F84C3508BD00BF9C
:1043B40000400050009003504400EFBE6B8D00009D
:1043C40000200350678D0000002000500080FF0093
:1043D40000ED00E00400FA050060005030B5046808
:1043E400ACB1B4FA84F30122C3F11F03DBB29A40E7
:1043F40024EA0202D0E8EF5FA54204D1C0E8EC2F22
:10440400BCF1000FF6D1EAD102480B7030BD02486E
:10441400FCE700BF0000AD0B0200AD0B10B5036854
:10442400CB40DB0710D401238B40026843EA02012E
:10443400D0E8EF4F944204D1C0E8EC1FBCF1000F68
:10444400F6D1F2D1014810BD0148FCE70000AD0BE4
:104454000400AD0B014BC3F8040570470070015014
:10446400014BC3F80805704700700150044B1A79DA
:1044740022B9012218601A71024870470248704735
:10448400F40E00200000AD0B0C00AD0B4FF05023D8
:1044940010B5D3F8002152B10020C3F80001D3F8BD
:1044A40000210122C3F80823234B1B6898474FF0CF
:1044B4005023D3F8042182B10022C3F80421D3F895
:1044C4000421D3F81824D3F81824022102F003029B
:1044D400012A28D1C3F818159A604FF05023D3F855
:1044E400202162B10022C3F82021D3F820214FF407
:1044F4008072C3F80823104B05201B6898474FF0BF
:104504005023D3F82421AAB10022C3F82421D3F8DC
:1045140024214FF40072C3F80823074B0620BDE89A
:1045240010401B681847C3F80813034B01201B688D
:104534009847D2E710BD00BFF40E002001460148A1
:10454400FFF74CBF600000200123044A834001466A
:10455400C2F808350248FFF761BF00BF0070015080
:1045640060000020036803F01F025B09026004D0AE
:10457400012B034818BF002070470248704700BF52
:104584000028845000258450034A4309D35C00F07A
:104594001F001844C0B27047888D000008B5FFF7AB
:1045A400F3FF034B083033F81000C0F3401008BD8C
:1045B4006400002008B5FFF7E7FF034B083033F829
:1045C4001000C0F3400008BD6400002008B5FFF7E8
:1045D400DBFF034B083033F81000400B08BD00BF6D
:1045E4006400002070B50546FFF7CEFF0C4C083080
:1045F40034F810300E46DA0508D5C3F3432304EB30
:10460400C302284654F8333052689847A3682BB144
:1046140031462846E268BDE87040184770BD00BFC7
:104624006400002010B5FFF7AFFF124A083032F8DB
:104634001030D9051CD5C3F3432123F4F85322F8D1
:104644001030002002F10E0434F8023F13F4807F8E
:1046540003D0C3F3432399420AD001303028F3D165
:10466400002342F831300448BDE81040FFF7D6BEBD
:1046740010BD00BF64000020D800002001460020C7
:10468400F0B5012506460F4A0F4C02F13043A3F55D
:1046940051439B0805FA03F3194204D0176817B174
:1046A4001660176818430432A242EED1074BD3F8C0
:1046B4007C2132B10022C3F87C21D3F87C3140F054
:1046C4000040F0BD00D1005020D1005000D0005077
:1046D4002DE9FF41054690461E46FFF755FF044667
:1046E40009B32846FFF766FF18B12846FFF756FFBF
:1046F40028BB00230DF10F02CDE900338DF80E30F5
:104704008DF80F3028460B460DF10E0103F0B6F874
:10471400474A04F1080132F8113023F0020343F050
:10472400010322F81130B8F1000F32D0284698F86E
:104734000070D8F80410FFF73DFF10B1F1B13D4807
:1047440029E03B4804F1080C30F81C3023F0200326
:10475400DB04DB0C20F81C3081B1032FEFD8D8F830
:10476400042092F800E07246920002F1A04202F5A1
:1047740050429FB9C2F81075C2F810752C4A04F162
:10478400080132F8113023F01C0343EA870322F8AE
:1047940011301EBB284804B0BDE8F081D2F81015D2
:1047A40043EA4E3321F00301C2F81015D2F8101574
:1047B40043F0200321F44F3121F44071C2F8101565
:1047C400D2F81085290201F47C5141EA080141EA3A
:1047D4000741C2F8101520F81C30CFE72846D6E967
:1047E4000076FFF71FFF002FD4D0114DD5E9002329
:1047F400974201D19E4218D010480DF10F01FFF7E6
:10480400EDFD0D4B9842C6D19DF80F2005EBC20378
:1048140008345E6035F8143045F8327043EA4223B8
:1048240043F4807325F81430B4E70022EEE700BFA8
:10483400640000200400AD0B0000AD0BD800002084
:104844002DE9FF4104461646FFF79EFE054631B3A7
:104854002046FFF7AFFE20B92046FFF79FFE002851
:1048640063D1334F05F1080837F8183013F01C0FE3
:1048740002D04B78012B58D001238DF80F30002340
:104884004A1CCDE9001320468B1C0DF10F0102F0E8
:10489400F5FF37F8183043F0030327F818301EB932
:1048A400244804B0BDE8F0812046FFF783FE0028C9
:1048B4003BD096F800C0002361461D4F05F1080067
:1048C40037F81050890025F0200501F1A041ED04CE
:1048D40001F55041ED0CC1F8103527F81050C1F81E
:1048E40010357278002ADBD0D1F81035B67823F46D
:1048F400991323F4F853C1F8103512042302D1F8A4
:1049040010E502F4403203F47C531343320543EAC6
:104914000E0302F4801245EA4C35134345F020059A
:10492400C1F8103527F81050BAE70348B9E700BFBB
:10493400640000200000AD0B0400AD0B014BC3E983
:10494400020170476400002010B50446FFF726FEFC
:1049540050B12046FFF718FE044B083033F81030EE
:1049640003485B0B0B7010BD0248FCE76400002099
:104974000000AD0B0400AD0B70B50F4C94F87860DB
:10498400BEB90E4D6022314604F1100003F07CF9EB
:104994000D20C5F87C61D5F87C31FDF7ABFB4FF0F9
:1049A4000043C5F804330123054884F8783063676D
:1049B40070BD0448FCE700BF6400002000D0005034
:1049C4000000AD0B0500AD0B034B93F878000038E5
:1049D40018BF0120704700BF640000200146014851
:1049E400FFF71CBDD400002001460148FFF7F6BCC8
:1049F400D400002037B50446FFF7D0FD08B32046A5
:104A0400FFF7D8FD0546E0B92046FFF7DFFD03B206
:104A14009B0003F1A04202F5514203F1A04315604B
:104A240003F550431268D3F8102542F00102C3F88D
:104A3400102521B10123134A8340C2F8043303B083
:104A440030BD2046FFF7A0FD0F4B083033F810307F
:104A5400C3F38203042B11D0052B11D001A80194B8
:104A6400FFF780FD019B0169D94001F0010102318A
:104A7400204603B0BDE8304002F049BF0321F7E708
:104A84000221F5E700D000506400002010B5044670
:104A9400FFF784FDC0B12046FFF78CFDA0B9204686
:104AA400FFF794FD01230B4A8340C2F8083303B295
:104AB4009B0003F1A04303F55043D3F8102522F0E3
:104AC4000302C3F8102510BD2046BDE810400021A4
:104AD40002F01DBF00D0005073B50446FFF754FD2B
:104AE4001A4E00F1080536F81530DB072CD52046A0
:104AF400FFF7CCFF2046FFF751FD68B12046FFF7D2
:104B040065FD002203B29B0003F1A04303F550436B
:104B1400C3F81025C3F810252046FFF783FD0023B2
:104B240001A826F815300194FFF71CFD019B00EB4A
:104B34008300D0F80022064B134043F00203C0F870
:104B44000032044802B070BD0348FBE76400002053
:104B5400F0F0FCFF0000AD0B0400AD0B2DE9F04FAD
:104B6400604B87B0D3F80403C0B240F00040FFF7B5
:104B740085FD051E80F29980DFF86C91D9F820300C
:104B84000493C9F82030594B1A6A05921A624FF0FF
:104B9400000A0DF11008564B0AEB030B4CE093FA94
:104BA400A3F3B3FA83F39BF80040019343EA44145C
:104BB4002046FFF7E9FC4F4B083033F81070012012
:104BC400019B0394DA0803F00703984018F80230B5
:104BD400B90823EA000308F8023003A8FFF7C2FC6F
:104BE400039BC7F38206803350F823304A073746C5
:104BF400C3F301432CD520463946DEB2FFF7F2FC5D
:104C040003A80394FFF7AEFC039B803350F82330D2
:104C1400C3F301439E4207D10021204602F077FEF0
:104C24003146204602F073FE03A80394FFF79AFC72
:104C34000123039A93400362D8F80030002BAED1CD
:104C440008F10408BAF1000F1DD14FF0010AA2E7E0
:104C5400022B0CD10321204602F059FE06F0050375
:104C6400012BE1D139462046FFF7BCFCDCE70221E9
:104C74002046019302F04BFE032EF3D0019B032B3D
:104C8400D2D1022EEDE74FF00040FFF7F7FCD9F840
:104C9400203016490493C9F820300A6A1343059258
:104CA4000A627FF474AF25F00045012415B907B0FA
:104CB400BDE8F08F95FAA5F3B3FA83F304FA03F28F
:104CC4009B0003F1A04303F55043D3F81005D3F838
:104CD4001015C0F30520C1F3014125EA0205FFF7D1
:104CE40081FCE3E700D00050002584500028845064
:104CF400988D00006400002070B5084C0E4623799E
:104D0400154643B92A20FDF7F5F901230448237118
:104D14002660A56070BD0348FCE700BFFC0E0020C0
:104D24000000AD0B0C00AD0B002330B50D4A50F85C
:104D3400234003F5A2710133102B42F82140F6D130
:104D44000023084A00F13C0103F5B27451F8045FF2
:104D54000133102B42F82450F6D1D0F88030C2F839
:104D6400043330BD00A002500123024A8340C2F83C
:104D74000433704700A002500123024A8340C2F862
:104D84000833704700A00250F8B5012600270B4BEA
:104D94000B4DD3F80C4304B9F8BD94FAA4F0B0FA5F
:104DA40080F006FA00F324EA0304064B82009F50C5
:104DB4002B68002BEFD0A9689847ECE700A00250BD
:104DC400FC0E002000A102502DE9F04786B00446F5
:104DD4000D4600AF4FF02003EFF3118883F31288E0
:104DE400BFF36F8F02F088FF2E4B042C1E5898BF20
:104DF4002D4BE9468AB06A4694BF53F824302B4BB6
:104E0400D36140F201334FF0000A93842849294BBF
:104E1400C2E90514C2F820A042F8103F4FF4315102
:104E240053462548FCF7E4FCCD467DB1EB69C3F35A
:104E340008035BB1214B7B6102233B614FF4825138
:104E440053461D4807F11002FCF7D2FC2EB1304640
:104E540002F0D3FD08B1037803B91948E9468AB0D2
:104E64006A46184BD061C2E9053640F20133138417
:104E7400154B42F8103F00234FF411510E48FCF734
:104E8400B7FC2946CD462046FFF774F988F311880C
:104E9400BFF36F8F3046FDF705FE1837BD46BDE8FA
:104EA400F08700BF08000000D4820000A68D000037
:104EB400BC8D000005000001A0800000E48D00000E
:104EC400B48D0000058E000004000001104B70B585
:104ED40053F82040013053F82060A64200D870BD3A
:104EE400D4E9003595B153B12846984738B1002824
:104EF400B8BF4042FF28A8BFFF20EB681870EA68DB
:104F0400537843F0010353700834E6E79847FBE70E
:104F1400E8820000012208B5094B03201A70FFF74C
:104F2400D5FF01F011F80420FFF7D0FF00F070F96D
:104F3400FBF7B8FA034A137B23F00103137308BD8C
:104F44001D1100206007002008B50348034A002112
:104F5400121A02F0FBFC08BDF00100202011002011
:104F64000023012270B586B0CDE904230F220193FA
:104F7400CDE9023214234FF4A0720446114D124EAF
:104F840003FB0055114906EBC01602FB0011104B40
:104F94003046009500F0D2F8737B2C7423F00403A0
:104FA40073730C4B013403EBC4236B600A4BEE6048
:104FB400D3E8EF1F0131C3E8E21F002AF8D106B09D
:104FC40070BD00BF0C0F0020E0060020201C002054
:104FD400037A000020140020080F002080B5002070
:104FE400A6B0FFF773FF2E4B03F5006282F3088827
:104FF40083F30A880024E0232A4D2B4E85F82230BF
:10500400EC772C766C76AC7685F820406B6A274F6B
:1050140043F4E0236B6285F82340FDF7A7FCFCF71B
:10502400D7FF4FF0FF33AB62EB62FDF7E9FEFDF70C
:105034004FFDFCF769FA40F20113ADF8243006ABDA
:10504400B360CDE91E44219402F074FC0120FFF703
:105054003DFF0220164DFFF739FF00F06FFC154BA2
:1050640075610593012314494FF48062CDE903432C
:1050740028463B46CDE90144009400F05FF806461B
:105084006A7B284622F004026A7302F019FD204666
:10509400FFF766FF3A4631462846FDF70BF900BF95
:1050A4002014002000ED00E00C0F0020194F000038
:1050B40060070020678E0000601D0020002038B5C6
:1050C400054C064DAC4200D338BD204602F042FCEC
:1050D4000028F9DB1C34F5E7900100209001002042
:1050E40073B50C464FF02005EFF3118185F3128858
:1050F400BFF36F8F45695DB125602B684361836998
:1051040001338361002081F31188BFF36F8F11E0B5
:1051140052EA030603D16FF00B002560F3E7CDE9F3
:1051240000230246083000F013FB18B9024B9B68B9
:105134005B69236002B070BD0C0F00202DE9F043C1
:10514400984685B000F15803C0E91633109B002639
:1051540003730423073222F0070543730F9B01EB0B
:1051640005090F4683734946C0E906668660C6731F
:105174000446FDF7CDF80E9B073020F00700A0662B
:10518400C4E9187502930D9BA9EB000901930C9BCC
:105194004A460093394643462046FDF76FF8054BCF
:1051A40066659B6803B1DB6E4846E36605B0BDE8FF
:1051B400F08300BF0C0F0020F0B5002587B00595E3
:1051C400109DDDE9127604950F9D044603950E9D0E
:1051D40002950D9D01950C9D0095FFF7AFFFB6F16B
:1051E400FF3F08BFB7F1FF3F05D056EA070305D1DB
:1051F400204600F023FB204607B0F0BD3A46334674
:10520400024904F1180000F003FDF4E74D7B0000AF
:105214002DE9F043294C2A4D87B02646AE4204F1CD
:105224002C040FD300F05AFB4FF4004640F2E7374A
:10523400224CDFF89090AC4220D307B0BDE8F04395
:1052440000F060BB54F8043C059354F80C3C049300
:1052540054F8103C039354F8143C029354F8183C4B
:10526400019354F81C3C009354E9092354E90B01BD
:10527400FFF764FF54F82C3C5E65CEE7636A5A1C62
:105284000DD00021384623EAE373C3FB060151EA3B
:10529400C333D4F8008004D1404600F0CFFA2C3454
:1052A400C9E74FF47A720023FAF752FF02460B461D
:1052B40008F11800494600F0ABFCF0E73880000024
:1052C400388000004D7B00002DE9F3410446174669
:1052D4001E464FF02003EFF3118883F31288BFF3C7
:1052E4006F8FC368334A7BB180689168884219D054
:1052F40057EA060318D188F31188BFF36F8F6FF054
:105304000F0002B0BDE8F081916891F90E100133ED
:10531400E36093682161A36088F31188BFF36F8F02
:105324000020EEE72169F2E791F90E1090F90E30B2
:105334006FF07E029942A8BF19469142B8BF114648
:105344008B422EDD02F067FB054622464146CDE93D
:105354000076194800F0FCF90028E1D04FF0200352
:10536400EFF3118683F31288BFF36F8FA068D0B177
:10537400236821699C420AD04BB193F90E309942BB
:10538400A8BF19466FF07E039942B8BF194602F0D0
:1053940042FB40B13146084800F03EFA6FF00A0083
:1053A400AFE70025D1E7002DF4D186F31188BFF3D0
:1053B4006F8FF3E70C0F00201E11002038B58368AF
:1053C40004466BB3194A926893422CD1C368012BEB
:1053D40003D9013BC360002038BD4FF02003EFF335
:1053E400118583F31288BFF36F8F0169806802F01F
:1053F40012FB204602F0C3FBA06058B190F90E20C6
:1054040022610022826702F05BFB2946084800F013
:1054140003FAE0E7E06085F31188BFF36F8FDAE702
:105424006FF01500D8E74FF0FF30D5E70C0F0020E0
:105434001E11002038B504464FF02003EFF3118508
:1054440083F31288BFF36F8F02F099FB48B10022F7
:10545400826702F035FB2946BDE83840064800F073
:10546400DBB9D4E902329A4218BF0133A36085F351
:105474001188BFF36F8F38BD1E11002013B54FF094
:105484002004EFF3118184F31288BFF36F8F8468D3
:1054940044B1013C846081F31188BFF36F8F002015
:1054A40002B010BD52EA030406D181F31188BFF3A0
:1054B4006F8F6FF00F00F3E7CDE900230246024837
:1054C40000F046F9ECE700BF1E110020C3897F2BD2
:1054D40012D80A4B1B6863B1094B90F90E201B6864
:1054E4009A4209DB437BDB0606D1064BC31A18BF7D
:1054F400012303F0010070470023FAE7340F002072
:10550400300F0020E00600200122044BC01A044B97
:10551400C0105843034B1A54704700BFE0070020E3
:10552400ABAAAAAA1E11002070B50E4B0E4C1E7C0D
:10553400054606EB460304EBC304204602F051FB88
:1055440000220A4B28469A55FFF7C0FF48B1084B82
:105554002046BDE870401A680649013AD31700F0A6
:1055640057BB70BD0C0F0020E00700201E11002067
:10557400340F00200D55000038B50D4D2B4653F85F
:10558400184F9C4200D004B9EC68AB6838B95A7B18
:10559400D20604D1A26912B9DA897F2A05D89C42BD
:1055A40002D02046FFF7C0FF23466B6138BD00BF21
:1055B4000C0F002070B590F90D200146002A437BA2
:1055C40004DA03F07F03437302F040FA154A4B7B7D
:1055D400104663F07F034B7350F8183FD46983423D
:1055E40008BF002323B9C1E900042160D1610CE0A4
:1055F40091F90E5093F90E60B5420ED0AE420CDD17
:105604005868C1E90030016059609068BDE8704095
:10561400431A58425841FFF7AFBF9C42E3D01B687E
:10562400E0E700BF0C0F002070B490F90D30427B0E
:10563400002B29DBD30627D183692BBB134962F0E6
:105644007F0242730A4652F8184F944218BF234609
:10565400CC6923B9C0E900242060C8610CE090F94A
:105664000E5093F90E60B5420AD0AE4208DD5A6876
:10567400C0E9003210605860002070BCFFF77CBFA6
:10568400A342E7D01B68E4E770BC70470C0F00200E
:1056940008B590F90D200146002A437B04DA03F093
:1056A4007F03437302F0D2F9044B9868431A5842BB
:1056B4005841BDE80840FFF75FBF00BF0C0F002052
:1056C40070B515461C46064602F0D2F9B4F1FF3F08
:1056D40008BFB5F1FF3F08D02A46234606F118005B
:1056E4000249BDE8704000F093BA70BD4D7B0000E4
:1056F40038B54FF02003EFF3118583F31288BFF31D
:105704006F8F104B104A9C681068A04206D1FFF7B7
:105714000BFF85F31188BFF36F8F38BD00211B7C0D
:1057240011600A4AD35C002BF3D02046FFF7CEFE6B
:105734000028EED0637BDB0602D12046FFF73AFF58
:105744002046E4E70C0F00202C0F00201E1100203F
:1057540070B50C480C4D86680C462E601146DDE988
:1057640004234FF02006EFF3118586F31288BFF36C
:105774006F8F8068FFF7A4FF2046BDE87040FCF7F8
:105784001FBD00BF0C0F00202C0F0020F8B50446ED
:105794004FF02003EFF3118683F31288BFF36F8F6A
:1057A400437B49B2DA0619D18569BDB903F07F0399
:1057B400437302F04BF9437B164A63F07F03437350
:1057C4001346817353F8180F984218BF0546D069E1
:1057D4005DB9C4E900300460D46111E00020A17314
:1057E40086F31188BFF36F8FF8BD95F90E70B94237
:1057F4000BD08F4209DD6B68C4E900531C606C60F8
:105804000120FFF7B9FE0120EAE7A842E1D02D68A4
:10581400DEE700BF0C0F002049B9EFF3058030B973
:10582400054B5A699B689A4201D0FCF7C9BC81F3C5
:105834001188BFF36F8F70470C0F002010B54FF025
:105844002002EFF3118482F31288BFF36F8F427B3F
:10585400510704D484F31188BFF36F8F10BD22F075
:1058640004024273FFF7E0FE2146BDE81040014800
:10587400FFF7D2BF1F11002070B50446183002F0A4
:10588400B0F94FF02003EFF3118683F31288BFF3CE
:105894006F8F94F90D20637B002A05DA03F07F03F0
:1058A4002046637302F0D2F80B4D637BA86843F083
:1058B40010036373031B58425841FFF75DFE86F3E0
:1058C4001188BFF36F8FAB68A34203D1BDE870406A
:1058D40002F07DB970BD00BF0C0F00204FF0200313
:1058E400EFF3118183F31288BFF36F8F044B9A682F
:1058F400D37B013BD37381F31188BFF36F8F704760
:105904000C0F002010B54FF02003EFF3118483F344
:105914001288BFF36F8F084B00209A68D37B013342
:10592400D373FFF729FE84F31188BFF36F8FBDE8AB
:10593400104002F04CB900BF0C0F0020024B03F1E1
:105944001802C3E9062270470C0F0020F8B54FF087
:105954002003EFF3118583F31288BFF36F8F194986
:105964008868437B03F07F03437302F06FF80846B3
:105974008B685A7B62F07F025A7350F8182FCC69F7
:10598400824208BF002222B9C3E900042360CB612C
:105994000CE093F90E6092F90E70BE420ED0B7423D
:1059A4000CDD5168C3E900210B6053600120FFF74F
:1059B400E3FD2846BDE8F840FCF702BCA242E3D070
:1059C4001268E0E70C0F002050EA01032DE9F041D2
:1059D40005460E4603D1FFF7B9FF00202CE0831CD7
:1059E40071F1FF332ADB02F012F92C184FF0200377
:1059F400EFF3118883F31288BFF36F8F114F124BAB
:105A0400B8681860FFF744FEB86810492A46334660
:105A1400183000F0FDF8BA684046537B43F0100399
:105A24005373FCF7CDFB02F0F2F8201A63EB030387
:105A3400012873F10003D0DBBDE8F0816FF00104AD
:105A4400241AD3E70C0F00202C0F00204D7B0000FC
:105A5400B1F1FF3F08BFB0F1FF3F08B506D1084BD5
:105A64009868FFF709FF4FF0FF3008BDFFF7ACFF60
:105A74004FF47A7380FB0303C00B40EA4340F4E71E
:105A84000C0F0020014B9868704700BF0C0F0020DA
:105A94002DE9F04104464FF02003EFF3118683F320
:105AA4001288BFF36F8F037BD9070BD586F3118858
:105AB400BFF36F8F404080F311884FF0040002DF82
:105AC400BDE8F081437B1A0704D586F31188BFF340
:105AD4006F8FF5E723F0200242F00801D20920D1AC
