:10000000801F002011150000116D0000FD1400007C
:10001000FD140000FD140000FD14000000000000AD
:10002000000000000000000000000000D1160000E9
:10003000FD140000000000006D160000FD1400001B
:10004000AD180000AD180000AD180000AD1800009C
:10005000AD180000AD180000AD180000AD1800008C
:10006000AD180000AD180000AD180000AD1800007C
:10007000AD180000AD180000AD180000AD1800006C
:10008000AD180000AD180000AD180000AD1800005C
:10009000AD180000AD180000AD180000AD1800004C
:1000A000AD180000AD180000AD180000AD1800003C
:1000B000AD180000AD180000AD180000AD1800002C
:1000C000AD180000AD180000AD180000AD1800001C
:1000D000AD180000AD180000AD180000AD1800000C
:1000E000AD180000AD180000AD180000AD180000FC
:1000F000AD180000AD180000AD180000AD180000EC
:1001000081F0004102E000BF83F0004330B54FEAC8
:1001100041044FEA430594EA050F08BF90EA020F35
:100120001FBF54EA000C55EA020C7FEA645C7FEAC8
:10013000655C00F0E2804FEA5454D4EB5555B8BFEB
:100140006D420CDD2C4480EA020281EA030382EA5C
:10015000000083EA010180EA020281EA0303362DEE
:1001600088BF30BD11F0004F4FEA01314FF4801CC1
:100170004CEA113102D0404261EB410113F0004FD3
:100180004FEA03334CEA133302D0524263EB43038A
:1001900094EA050F00F0A780A4F10104D5F1200E28
:1001A0000DDB02FA0EFC22FA05F2801841F1000183
:1001B00003FA0EF2801843FA05F359410EE0A5F157
:1001C00020050EF1200E012A03FA0EFC28BF4CF088
:1001D000020C43FA05F3C01851EBE37101F000453E
:1001E00007D54FF0000EDCF1000C7EEB00006EEB4B
:1001F0000101B1F5801F1BD3B1F5001F0CD34908D5
:100200005FEA30004FEA3C0C04F101044FEA44522B
:1002100012F5800F80F09A80BCF1004F08BF5FEAB2
:10022000500C50F1000041EB045141EA050130BD92
:100230005FEA4C0C404141EB0101013C28BFB1F5A4
:10024000801FE9D291F0000F04BF01460020B1FAEF
:1002500081F308BF2033A3F10B03B3F120020CDAC2
:100260000C3208DD02F1140CC2F10C0201FA0CF0A0
:1002700021FA02F10CE002F11402D8BFC2F1200C05
:1002800001FA02F120FA0CFCDCBF41EA0C019040BB
:10029000E41AA2BF01EB0451294330BD6FEA040404
:1002A0001F3C1CDA0C340EDC04F11404C4F12002EF
:1002B00020FA04F001FA02F340EA030021FA04F301
:1002C00045EA030130BDC4F10C04C4F1200220FA58
:1002D00002F001FA04F340EA0300294630BD21FA96
:1002E00004F0294630BD94F0000F83F4801306BF5C
:1002F00081F480110134013D4EE77FEA645C18BF50
:100300007FEA655C29D094EA050F08BF90EA020FE6
:1003100005D054EA000C04BF1946104630BD91EADE
:10032000030F1EBF0021002030BD5FEA545C05D1E1
:100330004000494128BF41F0004130BD14F5800420
:100340003CBF01F5801130BD01F0004545F0FE4194
:1003500041F470014FF0000030BD7FEA645C1ABFC9
:10036000194610467FEA655C1CBF0B46024650EA00
:10037000013406BF52EA033591EA030F41F400212C
:1003800030BD00BF90F0000F04BF0021704730B5B2
:100390004FF4806404F132044FF000054FF0000187
:1003A00050E700BF90F0000F04BF0021704730B548
:1003B0004FF4806404F1320410F0004548BF40421D
:1003C0004FF000013EE700BF42004FEAE2014FEA72
:1003D00031014FEA02701FBF12F07F4393F07F4F4D
:1003E00081F06051704732F07F4208BF704793F050
:1003F0007F4F04BF41F40021704730B54FF4607463
:1004000001F0004521F000411CE700BF50EA010265
:1004100008BF704730B54FF000050AE050EA01020E
:1004200008BF704730B511F0004502D5404261EB7E
:1004300041014FF4806404F132045FEA915C3FF4BF
:10044000D8AE4FF003025FEADC0C18BF03325FEA5C
:10045000DC0C18BF033202EBDC02C2F1200300FA0D
:1004600003FC20FA02F001FA03FE40EA0E0021FA32
:1004700002F11444BDE600BF70B54FF0FF0C4CF420
:10048000E06C1CEA11541DBF1CEA135594EA0C0FD2
:1004900095EA0C0F00F0DEF82C4481EA030621EA0D
:1004A0004C5123EA4C5350EA013518BF52EA033548
:1004B00041F4801143F4801338D0A0FB02CE4FF0FA
:1004C0000005E1FB02E506F00042E0FB03E54FF02A
:1004D0000006E1FB03569CF0000F18BF4EF0010E22
:1004E000A4F1FF04B6F5007F64F5407404D25FEA1E
:1004F0004E0E6D4146EB060642EAC62141EA5551D1
:100500004FEAC52040EA5E504FEACE2EB4F1FD0C12
:1005100088BFBCF5E06F1ED8BEF1004F08BF5FEA90
:10052000500E50F1000041EB045170BD06F0004642
:1005300046EA010140EA020081EA0301B4EB5C04EF
:10054000C2BFD4EB0C0541EA045170BD41F48011E7
:100550004FF0000E013C00F3AB8014F1360FDEBF0C
:10056000002001F0004170BDC4F10004203C35DAE8
:100570000C341BDC04F11404C4F1200500FA05F36B
:1005800020FA04F001FA05F240EA020001F000420C
:1005900021F0004110EBD37021FA04F642EB060182
:1005A0005EEA430E08BF20EAD37070BDC4F10C04AC
:1005B000C4F1200500FA04F320FA05F001FA04F270
:1005C00040EA020001F0004110EBD37041F100015C
:1005D0005EEA430E08BF20EAD37070BDC4F1200567
:1005E00000FA05F24EEA020E20FA04F301FA05F2CF
:1005F00043EA020321FA04F001F0004121FA04F277
:1006000020EA020000EBD3705EEA430E08BF20EA46
:10061000D37070BD94F0000F0FD101F00046400080
:1006200041EB010111F4801F08BF013CF7D041EA02
:10063000060195F0000F18BF704703F00046520006
:1006400043EB030313F4801F08BF013DF7D043EAD7
:100650000603704794EA0C0F0CEA135518BF95EA8D
:100660000C0F0CD050EA410618BF52EA4306D1D114
:1006700081EA030101F000414FF0000070BD50EA33
:10068000410606BF1046194652EA430619D094EABD
:100690000C0F02D150EA013613D195EA0C0F05D1A7
:1006A00052EA03361CBF104619460AD181EA0301FB
:1006B00001F0004141F0FE4141F470014FF00000B3
:1006C00070BD41F0FE4141F4780170BD70B54FF04E
:1006D000FF0C4CF4E06C1CEA11541DBF1CEA1355CE
:1006E00094EA0C0F95EA0C0F00F0A7F8A4EB0504B0
:1006F00081EA030E52EA03354FEA013100F08880A7
:100700004FEA03334FF0805545EA131343EA12636F
:100710004FEA022245EA111545EA10654FEA002624
:100720000EF000419D4208BF964244F1FD0404F5DD
:10073000407402D25B084FEA3202B61A65EB030539
:100740005B084FEA32024FF480104FF4002CB6EBF6
:10075000020E75EB030E22BFB61A754640EA0C0076
:100760005B084FEA3202B6EB020E75EB030E22BFB6
:10077000B61A754640EA5C005B084FEA3202B6EBF7
:10078000020E75EB030E22BFB61A754640EA9C00B6
:100790005B084FEA3202B6EB020E75EB030E22BF86
:1007A000B61A754640EADC0055EA060E18D04FEA44
:1007B000051545EA16754FEA06164FEAC30343EAE4
:1007C00052734FEAC2025FEA1C1CC0D111F4801FB1
:1007D0000BD141EA00014FF000004FF0004CB6E7AA
:1007E00011F4801F04BF01430020B4F1FD0C88BF49
:1007F000BCF5E06F3FF6AFAEB5EB030C04BFB6EB54
:10080000020C5FEA500C50F1000041EB045170BD46
:100810000EF0004E4EEA113114EB5C04C2BFD4EB73
:100820000C0541EA045170BD41F480114FF0000EF7
:10083000013C90E645EA060E8DE60CEA135594EA73
:100840000C0F08BF95EA0C0F3FF43BAF94EA0C0F76
:100850000AD150EA01347FF434AF95EA0C0F7FF4EB
:1008600025AF104619462CE795EA0C0F06D152EA3F
:1008700003353FF4FDAE1046194622E750EA410623
:1008800018BF52EA43067FF4C5AE50EA41047FF434
:100890000DAF52EA43057FF4EBAE12E77BB972B9B4
:1008A0000029BEBF00204FF0004106E008BF00282D
:1008B0001CBF6FF000414FF0FF3000F057B8ADF1B2
:1008C000080C6DE904CE002909DB002B1ADB00F0CF
:1008D0004FF8DDF804E0DDE9022304B07047404240
:1008E00061EB4101002B1BDB00F042F8DDF804E076
:1008F000DDE9022304B0404261EB4101524263EB67
:1009000043037047524263EB430300F031F8DDF8D4
:1009100004E0DDE9022304B0404261EB410170478D
:10092000524263EB430300F023F8DDF804E0DDE915
:10093000022304B0524263EB4303704753B94AB9F0
:10094000002908BF00281CBF4FF0FF314FF0FF30D7
:1009500000F00CB8ADF1080C6DE904CE00F008F819
:10096000DDF804E0DDE9022304B07047704700BF02
:100970002DE9F04786468C460846089E1546744683
:100980001946002B40F0C2808542B2FA82F245D966
:100990004AB1C2F1200300FA02FC2EFA03F395409B
:1009A00043EA0C0C94404FEA154EA8B2BCFBFEF88B
:1009B000230C0EFB18CC08FB00F943EA0C439945C5
:1009C00028D9EB1808F1FF3704D2994502D9A8F1CC
:1009D00002072B44A3EB0903A4B2B3FBFEFC0EFBFE
:1009E0001C330CFB00F044EA0344A04214D92C1938
:1009F0000CF1FF3304D2A04202D9ACF102032C4423
:100A0000241A43EA07401EB1D440002334607360C7
:100A1000BDE8F0874746DDE76346F1E792BB431B3D
:100A200001214FEA154EAFB2B3FBFEFC200C0EFBCA
:100A30001C330CFB07F840EA0343984562D9EB18D6
:100A40000CF1FF3004D2984502D9ACF102002B44DE
:100A5000A3EB0803A4B2B3FBFEFC0EFB1C330CFBA0
:100A600007F744EA0344A7424ED92C190CF1FF338F
:100A700004D2A74202D9ACF102032C44E41B43EA9E
:100A80000040C0E7C2F1200320FA03F195409040F6
:100A90002EFA03F303434FEA154EAFB2B1FBFEFC4F
:100AA0000EFB1C10190C0CFB07F841EA00418845AD
:100AB00004FA02F422D969180CF1FF3004D28845F7
:100AC00002D9ACF102002944A1EB08019BB2B1FBB1
:100AD000FEFC0EFB1C110CFB07F743EA01439F428F
:100AE0000ED9EB180CF1FF3104D29F4202D9ACF1C0
:100AF00002012B44DB1B41EA004192E76046E3E739
:100B00006146F7E76046A3E76346B7E7834206D945
:100B100016B9002108467BE7C6E900E0F9E7B3FA19
:100B200083F78FB9834201D3724508D8BEEB020424
:100B300060EB030301209C461EB9002168E738469C
:100B4000FAE7C6E9004CF8E7C7F1200CBB4022FAEF
:100B50000CF41C432EFA0CF120FA0CF3B8400143BC
:100B60004FEA14490EFA07F5B3FBF9F81FFA84FEB1
:100B700009FB18300B0C08FB0EFA43EA00439A45B8
:100B800002FA07F240D9E31808F1FF3004D29A457F
:100B900002D9A8F102002344A3EB0A0389B2B3FBF4
:100BA000F9F809FB183308FB0EFE41EA03418E45B4
:100BB0002CD9611808F1FF3304D28E4502D9A8F16F
:100BC0000203214443EA0040A0FB0298A1EB0E017E
:100BD0004145CE46434602D306D14D4504D2B9EB3A
:100BE000020E68EB04030138002EA6D0B5EB0E020E
:100BF00061EB030101FA0CFC22FA07F34CEA030350
:100C0000F940C6E9003198E74046C5E74346D9E7D1
:100C10002DE9F04F8BB0424C204606F0C7FD80B165
:100C20000FF2F409D9E900893E4DA7683A21FB6823
:100C300020469847021E0CDA21683B4805F0E9FE81
:100C400003E02168394805F0E4FE00200BB0BDE860
:100C5000F08FDFF8DCA00DF1100B00263AF8021B34
:100C60003B695A4620469847031E06DA21683148F8
:100C700006F1580205F0CDFEE7E70136032E0BF131
:100C8000080BEBD10598FFF78DFB42464B46FFF76B
:100C90001DFD064604980F46FFF784FB02460B46EF
:100CA00030463946FFF732FA824609988B46FFF7FD
:100CB00079FB42464B46FFF709FD064608980F466A
:100CC000FFF770FB02460B4630463946FFF71EFA27
:100CD000CDE902010798FFF765FB42464B46FFF757
:100CE000F5FC064606980F46FFF75CFB02460B46EE
:100CF00030463946FFF70AFA5246CDE900015B4615
:100D00002168284605F085FE00214FF4004004F0DC
:100D1000F7F98AE7AFF300800000000080842E41DD
:100D2000B07F00001D880000D0870000B28700005F
:100D3000AC870000F6870000014B1B68184700BF16
:100D400000000020014B1860704700BF0000002029
:100D500030B585B004460D4610220021684606F0E5
:100D6000B1FE02238DF802302A46044B019321463E
:100D7000684604F0D1FD05B030BD00BF390D00005C
:100D800080B505460E461746984604F0D3F903464B
:100D900007F088F8DFF81890044649F8003042461A
:100DA00030463946A84754F8090000F031FC00BF2E
:100DB000080000002DE9F047058B044628079046FF
:100DC00011D4022905F0070540F0CD80204605F03A
:100DD00096FE78B10138218B042811D8DFE800F0A5
:100DE000C3106D85950001290CBF45F0100545F035
:100DF0002005258388F31188BFF36F8FBDE8F08746
:100E000001F0070AAA4500F0A6800027B9463E4631
:100E1000A368002B00F0BD8041F00801218388F316
:100E20001188BFF36F8FA168002900F0BB800D68A7
:100E3000002900F0B780D1F804803346524620469E
:100E4000C047002D76D02B6829461D46F0E701F0FB
:100E500007035A1F012A1BD8002221F00701062B85
:100E6000276889B2C4E9002209D13B4603E0628BBE
:100E7000013262831B68002BF9D141F0020121830A
:100E8000204605F03CFE00287BD041F0200177E0B1
:100E9000042B0AD121F0070189B22183204605F0F5
:100EA0002EFE10B141F020012183218B01F0070AB1
:100EB000AA4550D00027B946AAE7236921F00701C7
:100EC00041F00601062DD3F8009021832DD1B9F110
:100ED000000F40D041F00801218388F31188BFF34F
:100EE0006F8F3A492046C84729E021F0070123695E
:100EF00041F0040189B2042DD3F804902183E6D097
:100F000000273E464FF0040A82E721F007012369DB
:100F100041F0050189B2052DD3F808902183D6D080
:100F200000273E464FF0050A72E700273E464FF085
:100F3000060A6DE72B4687E7B9F1000FD1D14FF0D4
:100F40002003EFF3118883F31288BFF36F8F238B95
:100F500023F008032383258BEA062ED525F0100302
:100F6000238305F007056669218B002EBFF66FAF5E
:100F700000232768C4E9003321F0070141F0010193
:100F80002183218B01F0070AAA454FF000097FF465
:100F90003FAF002F9BD041F00801218388F31188D7
:100FA000BFF36F8F002FC7D03D6839463346524696
:100FB000204605F0D0FD2F46F4E7AB067FF51AAFCB
:100FC00025F02003238305F00705FFE6836B00006F
:100FD00008B504464FF02002EFF3118382F3128824
:100FE000BFF36F8F02F0ACF8204600F0BBFA034865
:100FF00005F00FFD00F034FCFCE700BF488800005E
:10100000014B036000207047F8830000014804F0A2
:101010003FBA00BFF883000038B5044618B90F4B3B
:101020000F485B6898476168B1F5683F10D0B1F52B
:10103000680F0DD00B4DA9420AD011F468612068E9
:1010400007D00146084806F0E4FB002323606560F2
:1010500038BD142206F036FDF9E700BFB0010020CC
:10106000718800002C5F5CA9B008002008B520B38F
:101070004368B3F5683F10D101220368BFF35B8F6B
:1010800053E8001F002903D143E800200028F7D1CE
:10109000BFF35B8F0DD1002008BD094A93420AD0EF
:1010A00000684FF0FF324FF0FF3303F065FC00287B
:1010B000F1D00448F0E70448EEE76FF4E040EBE7D6
:1010C0002C5F5CA9E98FFFFFEA8FFFFF08B5D8B15D
:1010D0004368B3F5683F10D100220368BFF35B8F0C
:1010E00053E8001F012903D143E800200028F7D16D
:1010F000BFF35B8F0BD1002008BD074A934208D095
:10110000006803F0FDFBF6E76FF4E040F4E7034806
:10111000F2E70348F0E700BF2C5F5CA9E98FFFFF0F
:10112000EA8FFFFF10B5044618B91D4B1D485B68D8
:1011300098476368B3F5683F2FD0B3F5680F2CD09C
:10114000194A934219D1236803BB18484FF0FF3264
:101150004FF0FF33214603F019FB08B923681BB990
:101160000F4B13485B68984720681422002106F053
:10117000A9FC4FF46863636008E0B3F5683F0DD8DD
:101180003A2B03D040F6BA629342DED1206806F0D3
:1011900080FB636843F03A03636010BD054AF3E7E0
:1011A000B0010020718800002C5F5CA9B00800200D
:1011B000978800003A00003A08B5064906484023DF
:1011C000142206F018FBBDE808400449044804F066
:1011D000D1B900BFB0030020B00800200084000097
:1011E0001484000030BFFFF7FDBF00BF114B124A4F
:1011F0002DE9F041D518DFF84480013DB5FBF3F54A
:101200005D430F4B08EB0304013CB4FBF3F403FB19
:1012100004540E1B07460B49304606F045FC701976
:1012200042460021083E06F04DFC3E6704F10800EE
:10123000BDE8F08101000000000000000400000093
:101240000400000058810000044B996858698842E6
:1012500003D003494FF080520A607047680B0020AA
:1012600004ED00E070B5264B15469A6A12F0100F97
:101270009A6A14BF1124102412F0080F9A6A18BF3A
:101280001224920706460AD5586B9A6A140634D57A
:1012900019B19A6A22F080029A62132401E06FF079
:1012A0001500174B9A6A12F0010F9A6A18BF14249E
:1012B00012F0200F9A6A18BF1524D20602D49B6A36
:1012C0009B070AD50E4B5B68190506D5314600F021
:1012D0008FFA10B180F309880224094B9A6A9206AA
:1012E00042BF5A6A22F400525A629A6A42F0FF02DE
:1012F0009A6200232B70204670BD6FF01500CCE77A
:1013000000ED00E0134B9A6A12F0007F9A6A14BF56
:101310001E201D2012F0807F9A6A18BF1F2012F431
:10132000002F9A6A18BF212012F4802F9A6A18BFE2
:10133000222012F4003F9A6A18BF232012F4803F43
:101340009A6A6FEA02426FEA12429A6218BF242038
:10135000704700BF00ED00E010B5194B0246986AD7
:101360009C6A10F4805F14BF1720162014F4006FDD
:101370009C6A18BF1820A40509D5986B986A0004C8
:1013800004D51AB19A6A22F400429A6219200C4BD1
:101390009A6A12F4806F9A6A18BF1A20D2050CD488
:1013A0009B6A13F4005F18BF1C20054A936A43F43C
:1013B0007F43936200230B7010BD1B20F5E700BF35
:1013C00000ED00E0F0B5484B5B688BB00446C3F31A
:1013D0000803002585F31188BFF36F8F02F07F406B
:1013E000B0F17F4F11D102F00C0008280DD010078A
:1013F0004CBF0C4601250022033B8DF80720032B30
:1014000005D8DFE803F0246367602C46F3E7002388
:101410009DF80720CAB902AE04F120072068616870
:10142000324603C20834BC421646F7D1099A002D51
:1014300054D0C2F3080121B96FEA52226FEA422266
:10144000099202A9184605F05DFC0BB0F0BD264BD1
:10145000DA6A9107DBD4DA6A002AD8DBDA6A52004A
:10146000D5D55A69A16942F480725A61BFF34F8F92
:10147000BFF36F8F5A6931F8021C22F480725A61EF
:10148000BFF34F8FBFF36F8F4DF6027291420AD0B8
:101490009A6AD2B24AB10DF1070201212046FFF744
:1014A000E1FE0346B4E72368B2E79A6A12F47F4F7D
:1014B00005D00DF107010120FFF74EFFF1E79B6A10
:1014C000B3F5803FA3D3FFF71DFFEAE70DF1070255
:1014D0000021E3E70DF107010020EDE722F4FF72A0
:1014E00022F00102ACE700BF00ED00E0024A5369C0
:1014F00043F010035361704700ED00E0EFF3088004
:10150000EFF3098101B57246FFF75CFF01BD00BF33
:10151000002080F31488BFF36F8F00F027FB0020BA
:101520000D490860BFF34F8F0C4880F3088800F026
:101530003DF8202080F3118809484FF404614018D9
:1015400080F30988EFF314800221084380F31488A4
:10155000BFF36F8F00F014F994ED00E0801F0020BE
:10156000C0110020BFF34F8F0549064BCA6802F433
:10157000E0621343CB60BFF34F8F00BFFDE700BFB6
:1015800000ED00E00400FA050749D1F8902000239F
:10159000C2F307221846934200DB7047C1F8983027
:1015A000C1F8A0000133F6E700ED00E008B572B61F
:1015B000002383F31388FFF7E7FF144B4FF0FF324C
:1015C000C3F88020C3F88420C3F88820C3F88C2097
:1015D000C3F89020C3F89420C3F89820C3F89C2047
:1015E000C3F88021C3F88421C3F88821C3F88C2173
:1015F000C3F89021C3F89421C3F89821C3F89C2123
:1016000062B6BFF34F8FBFF36F8F08BD00E100E0FC
:10161000084B9B6883420BD1EFF3058343B1064B24
:101620005A6842F080525A605A6A22F400425A6262
:1016300006F0FFB9680B002000ED00E0094A93684E
:101640006FF00A019967084958674B6843F0805367
:101650004B60002383F31188BFF36F8F9368986FFB
:10166000704700BF680B002000ED00E015498A6854
:101670004FF030001044EFF3098C80E8F01F202079
:1016800080F31288BFF36F8F0F4F4FF000664A69E7
:101690008A603E604FF07004141920680B4C206083
:1016A000506F0023536780F3118804B5104600F093
:1016B0001DF9BDE8044002F1300090E8F01F8CF302
:1016C00009887047680B002004ED00E0CC0800207A
:1016D0001EF0040F0CBFEFF30880EFF3098081695F
:1016E00011F8021C0229FFD001B505F00DFB01BD68
:1016F00040B2002807DB044A4109012300F01F0023
:10170000834042F82130704700E100E040B20028F9
:101710000CDB4309064900F01F0020330122824000
:1017200041F82320BFF34F8FBFF36F8F704700BF87
:1017300000E100E0054B420900F01F0053F82220B1
:10174000012303FA00F01040704700BF00E100E001
:1017500040B20028A8BF00F1604001F10101B8BF0C
:10176000064B4FEA4111ACBF00F5614000F00F009D
:10177000C9B2B4BF195480F80013704714ED00E0EB
:101780000B4A08B50B4B22F07F029A60BFF34F8FD4
:10179000BFF36F8FD3F8882022F47002C3F888203B
:1017A00002F022FF03F0CCFC00F074F802F06EFFB0
:1017B0000000000000ED00E042F8203C009B42F8F1
:1017C0001C3C0A49019B42F8183C029B42F8143C1D
:1017D00021F001014FF0807342F8043C42F8081CEC
:1017E0000023203A02654367704700BF810D000067
:1017F000094A0346906870B113F1160F006E05D0C8
:10180000A0F140029A4205D8834203D2814228BF08
:101810000020704700207047680B002008B5144670
:101820000A4A0B4B9060026F1A600D4600F05EF89A
:10183000204685F30988002163B681F31188BFF340
:101840006F8F00220023FFF79BFA00BF680B002078
:10185000CC080020014910220A60704710ED00E01A
:1018600072B6404080F31188BFF36F8FBFF34F8F84
:1018700030BF62B6BFF36F8F704700BF72B649408A
:1018800081F31188BFF34F8F20BF80F3118862B6B8
:10189000704700BF044800232021C2180133302BB9
:1018A00082F80013F9D1704700E100E001B5EFF3D1
:1018B0000580A0F110004FEAC0000449014409C9A5
:1018C0009847BDE80140024908470000D87F000062
:1018D00049120000024B034A0348012100F040B8BE
:1018E000000004200000002024840000026E054B4C
:1018F000403A1A60044A4021C3E901121846012106
:1019000000F038B8D008002000000B15084AC2F8D3
:1019100098000B6823F01F03034343F01003C2F841
:101920009C308B6843F00103C2F8A030704700BFC1
:1019300000ED00E0044B0522C3F89420BFF34F8F65
:10194000BFF36F8F704700BF00ED00E0BFF35F8F04
:10195000024B0022C3F89420704700BF00ED00E066
:1019600010B5034C0123227805F0EDF9207010BD6D
:10197000700D002008B5094A0023127805F0E3F93C
:1019800010F1160F03D0064B0022072800DD08BD1A
:10199000C3F89800C3F8A0200130F6E7700D0020CE
:1019A00000ED00E0F0B5454D2C68082C85B000F244
:1019B0008280FFF7CBFF00200C2684420DD1404DE2
:1019C000404F2C706846FFF71BFB00240646A642DA
:1019D0000AD1FFF7AFFF00201CE0696806FB001189
:1019E000FFF794FF0130E8E7009800EB04114FEA9D
:1019F000041CCB683B40B3F5000F4AD00CD8B3F5BC
:101A0000001F30D0B3F5800F38D0B3F5801F12D04F
:101A10006FF0150005B0F0BDB3F1807F42D0B3F197
:101A2000007FF5D150F80C3088684A6805F07BF9E2
:101A300040F4802009E050F80C3088684A6805F0CE
:101A400072F940F0885040F430200390287807283D
:101A5000CDE90123DCD801A9FFF758FF2B7801332A
:101A60002B700134B3E750F80C3088684A6805F0F1
:101A70005AF940F0885040F40020E6E750F80C3066
:101A800088684A6805F04FF940F0E06040F40030A3
:101A9000DBE750F80C3088684A6805F044F940F0FC
:101AA0008270D2E750F80C3088684A6805F03BF93C
:101AB00040F08870C9E74FF0FF30ABE7308400009A
:101AC000700D00200000F0FF08B5024B1B6898471E
:101AD000002008BDDC080020034B044A18609378FE
:101AE00043F0020393707047DC08002024000020BC
:101AF00008B50649064821F00701C1F1005202F578
:101B0000802204F0BFFF002008BD00BFC71F0020D7
:101B1000E00800200E4A0123C2F840354FF0804211
:101B20004FF08051C2F87835D1F83001082808D13B
:101B3000D1F83411052904D80648415C09B1C2F82E
:101B400038364FF080430122C3F8802500207047CB
:101B500000E00140D388000020B1034B800143F036
:101B600001031847704700BF6081000001F01ABBF5
:101B7000084B70B5C31A0D4607499B1004465943DC
:101B80000648402205F02EF92B4601462046BDE8C6
:101B90007040184700090020B76DDBB6387F0000A1
:101BA00073B50C4C0C4A4023041B00930D460B46A6
:101BB0000A49A41061430646094805F040F9011E90
:101BC00005DA30462B4602B0BDE87040184702B037
:101BD00070BD00BF00090020AB6E0000B76DDBB622
:101BE000387F0000002270B5012104461046FFF73F
:101BF000AFFD0F4801F060FC0E4B984215D101F08B
:101C00006BFC26690C49304604F0C9FF00280BDB49
:101C1000012535642469084904F11C0004F0BFFF64
:101C2000002801DBE564002070BD6FF00400FBE7D5
:101C3000711C00000000AD0B5084000070B501461F
:101C40000C2309484B43C418D4E90E5640330022F4
:101C50001844A26305F0B3F82DB132462B46034871
:101C6000BDE87040184770BD00090020387F0000B3
:101C700010B1012804D07047034B1B6C5B0701D1E6
:101C8000FFF7DCBF704700BF0009002008B54FF028
:101C90002003EFF3118183F31288BFF36F8F124A91
:101CA000136843F002001060DA0708D481F311884A
:101CB000BFF36F8F0120BDE8084001F01FBC4FF05B
:101CC0008043D3F80C24D3F80C34DB07EED5074857
:101CD00005F075F881F31188BFF36F8F0020BDE820
:101CE0000840FFF7ABBF00BF5009002040090020AB
:101CF0001FB500220123CDE90223094ACDF800D007
:101D00006B46CDF804D005F0C9F8002805DB4FF488
:101D100080420023684602F0CDFE05B05DF804FB6A
:101D2000C96E000010B54FF02003EFF3118483F368
:101D30001288BFF36F8F074A136823F00201DB0795
:101D4000116002D4012005F00CFC84F31188BFF36C
:101D50006F8F10BD50090020024AC3B21C2003FB44
:101D600000207047000900202DE9F0413849BFF3F9
:101D70005B8F0746012251E8003F41E80020002820
:101D8000F9D1BFF35B8F33B9324933484B60CB6035
:101D90008A6004F017FF7B1E012B2BD8012F07D17F
:101DA0004FF08043D3F81C3403F00303012B21D000
:101DB00005F055FD0546F8B9284B1B78E3B14FF007
:101DC00080430222C3F808230646DFF894804FF0D0
:101DD0008044D4F81824D4F81834D20316D503F06C
:101DE0000303012B01D0012F10D15DB386F31188BD
:101DF000BFF36F8FBDE8F0814FF02003EFF3118642
:101E000083F31288BFF36F8F0125DEE7ADB1304653
:101E1000FFF734FDD4F81835002BDAD1D4F80421BB
:101E2000002AD6D0C4F80431D4F804310123C4F810
:101E30001835C8F88031A360CBE70021212003F0DA
:101E40005FF9E7E74FF080430222C3F80423D1E7AC
:101E5000FC080020EC0800201C090020A311002031
:101E600000E100E008B5074805F0A0FC38B10648DD
:101E7000FFF732FE0448FEF765FF002008BD6FF053
:101E80001200FBE7747F00008D1E00000A2838B5A1
:101E9000074D044604D1AB680D215B68284698477E
:101EA000AB6803485B68E1B29847204638BD00BF85
:101EB000747F0000F0B54068057B01F01F0444EA20
:101EC0004514056987B0002D64D0B2F5001F00F1FC
:101ED000100506D12146284605F0D4FB002007B0A6
:101EE000F0BD01AE0027B2F5800F0197776039D1C0
:101EF000B3F1007F14BF052304238DF804300023C1
:101F0000CDE904630393836823FA01F111F0010121
:101F10001AD1B2F1A07F17D104F01F03620903F5B3
:101F2000E0732AD0012A3BD11F4A52F82330DB0745
:101F30000AD40DF1030632462146284601F0BCFDC5
:101F40001A4B98421CD0029603AA2146284601F05B
:101F500075FC174B984220D101222146284601F0FA
:101F600013FEBBE7B3F1C06F05D0B3F1007F14BF20
:101F700001230223C1E70323BFE74FF0A042D4E7C8
:101F80003146284601F0FAFD094B9842DBD06FF04C
:101F90000B00A4E76FF08500A1E76FF015009EE746
:101FA00051F82330FFDE00BF000300500400AD0BEA
:101FB0000000AD0B38B545682B69B3B11035284624
:101FC00001F0CCFD044680B90146284601F08EFDA3
:101FD000084B98420BD108492246284601F066FD7D
:101FE000224605210620FFF7B3FB002038BD6FF025
:101FF0000400FBE70000AD0BFD1F0000420970B5B7
:10200000034602D0012A17D070BD0D4E32695168C7
:102010000029F9D003F01F0301250C689D40002919
:10202000F2D08A682A4002D04B68304698472CB1DB
:10203000236821461C46F2E7024EE7E72346F8E70D
:10204000607F00004C7F00002DE9F043466840F2BD
:102050000635D006337B87B002EA050554BFC2F3CC
:102060004010032001F01F07B5F5837F144647EAAF
:1020700043178DF8030044D00FD8062D18D007D889
:10208000B5B1022D3FD06FF0150007B0BDE8F08369
:10209000B5F5807FF7D101250AE040F20222954292
:1020A00033D0B5F5407F32D0B5F5007FEBD10225B6
:1020B00022032ED5726801238B40C2F8083532699D
:1020C00092BB07F01F037F092BD0012F79D13F4A24
:1020D00002EB830284F48033D2F80017C3F3004389
:1020E000C4F3404444EA430421F4E16144EA800437
:1020F00021F0070144EA05230B43C2F80037002012
:10210000C3E70725D4E70425D2E70525D0E7032553
:10211000CEE7630341BF012372688B40C2F80C35E0
:10212000CDE74FF0A042D3E710360DF10202394659
:10213000304601F0C1FC14F4403F80460CD13946D2
:10214000304605F09DFA224B9845D8D19DF80210F3
:10215000304601F00DFDD2E701AB4FF0000903AAB4
:1021600039463046CDE90439CDE90199CDF80C90D6
:1021700001F064FB164B984285D114F4003315D05E
:102180009DF803308DF80E3084F48034C4F300449D
:102190004B4603AA394630468DF80C508DF80D4059
:1021A00001F006FC0A4B9842CDD06CE7CDE9043330
:1021B00003AA0DF1030339463046039301F03EFBB9
:1021C000F0E703F5E07352F82330FFDE0003005020
:1021D0000000AD0B036803F01F025B09026004D02E
:1021E000012B034818BF002070474FF0A0407047F4
:1021F000000300502DE9F04FDFF87891DFF878A167
:1022000085B01546064600EB8101B14203D100209E
:1022100005B0BDE8F08F3368D804C3F3432203F060
:102220007F0400F1A0807F2C4FEA134319F802804D
:1022300008BF4FF0FF34222B00F29880DFE803F054
:10224000122128422B31429696969696969696960D
:10225000969696969696454F52559696965882859E
:10226000888B8E00C5F80C45631C18D003A8039416
:10227000FFF7B0FF039B012707FA03F3C0F8083507
:1022800004E0C5F81445621C09D00027BB4636E0BF
:10229000C5F80845E8E7631CC5F8084561D1043670
:1022A000B3E7671CC5F80C45F9D0012703A80394D0
:1022B000FFF790FF039B4FF0010B0BFA03F3C0F8FD
:1022C0000C351CE0C5F81045DDE7C5F86045601C1D
:1022D0003368E4D0C3F38033002BE6D0C6E7C5F8FB
:1022E0006445F4E7C5F86845F1E7C5F86C45EEE7E5
:1022F000C5F82445621CD2D04FF0000B012733688B
:10230000019303F40052002A03A81CBF4FF0000BF6
:1023100001270394FFF75EFF039A019B00EB820005
:10232000C3F3C114D0F800274FEA082343EA84031B
:1023300043EA0B0302EA0A02134343EA4703C0F8E5
:102340000037ACE7C5F828458EE7C5F83045D1E73A
:10235000C5F83445CEE7C5F83845CBE7C5F83C4568
:10236000C8E70027A2E76FF0150051E76FF085007E
:102370004EE700BF04890000F0F8FCFF8B0548BF62
:102380006FEA8151104B48BF6FEA915170B5CA177F
:10239000A1FB034603FB0266054631460B4A0023B8
:1023A0002046FEF77BFA002E2860214602DA1F3114
:1023B00046F10006490941EAC660054A0023711149
:1023C000FEF76CFA6A6070BD3AA395000048E80118
:1023D00040420F00014B01221A60704700C00040CC
:1023E0000C2903690BD15B6A064907484B4393FBF1
:1023F000F0F100FB113311605360002070476FF063
:102400008500704790D0030040420F00044B0069E4
:102410000022C3F80021D3F8003102F027BB00BF2F
:1024200000C000407FB50569AB6A63B33A2901D0AB
:102430000C292BD105F110064FF0FF324FF0FF337E
:10244000304602F099FA134B0193A86A0323002443
:1024500069460394029304F0B5FB4FF0FF324FF04E
:10246000FF33284602F026FBA86A04F003FC0A4B5F
:10247000D3F808256A6201225A60304602F040FA19
:10248000204604B070BD6FF00A00FAE76FF08500D7
:10249000F7E700BFD523000000C0004010B5046975
:1024A0000020FFF759FCA0624FF0FF3200212046C8
:1024B00005F0F6F904F1100005F0EBF90022012116
:1024C0000C20FFF745F90C20FFF712F9024B01220F
:1024D000C3F80423002010BD00C000402DE9F743DD
:1024E0000646002201210220FFF732F90220FFF701
:1024F000FFF8776835693C684FF00008C4F800853C
:102500002E60D7F80C9001AA4146484604F034FDED
:10251000002839DB019BD9F8002019791868FFF7EA
:1025200069FE002830DB6B7AD6F810C0012B03D08F
:10253000032B27D14FF01008AB7A032B22D1E97A75
:1025400009B101291ED12A7A12B1022A1AD10E220A
:102550006B687068B3F5164F006800F0B28034D82D
:10256000B3F5165F00F0B0801AD8B3F5966F00F09F
:10257000AD800CD8B3F5967F00F0AB80B3F5167F35
:1025800000F0AA806FF0850003B0BDE8F083B3F5DA
:10259000166F00F0A480B3F5965FF3D15C4B43E077
:1025A000B3F5E14F00F09E8008D8B3F5615F00F00D
:1025B0009B80B3F5964FE5D1564B35E047F6122E8A
:1025C0007345DFD14FF400032EE0B3F5613F00F017
:1025D0008D8015D8B3F5963F00F08B800AD84DF664
:1025E000C02E734500F08780B3F5614FCAD14FF418
:1025F0006B0319E0B3F5E13FC4D14FF0EB7313E087
:10260000B3F5612F7AD009D8DFF80CE1734578D0A3
:10261000B3F5E12FB6D14FF0E86305E0DFF8FCE059
:102620007345AFD14FF08053C0F82435736841EA49
:1026300008011B680A43C3F86C25D5E901010CF1B8
:10264000040383E803007B68990712D505F118009D
:1026500001F0C6FB324B984256D1287E04F10C02A1
:1026600004F5907104F073FF2B7E0120984000F078
:10267000BBFE0823C4F800353B7A53B9C4F81031C7
:10268000D4F810316B69C4F834350123C4F83835F7
:1026900023607B689A075CBF4FF48073C4F80433EF
:1026A0007B68DB0644BF4FF48003C4F804332B6916
:1026B000C4F8443500200123C4F84805A360E36052
:1026C00062E74FF41D03AFE7164BADE74FF49E23CF
:1026D000AAE74FF4A033A7E74FF41C33A4E74FF465
:1026E0001D23A1E7104B9FE7104B9DE74FF06C7344
:1026F0009AE70F4B98E74FF4650395E74FF0706347
:1027000092E74FF080638FE76FF004003CE700BF73
:1027100000B0130000A04E0090D0030040420F0014
:102720000000AD0B0050270000C0750000F03A001B
:1027300000903A01F8B5044607690D4605F08FF898
:10274000B0B92E4B1B789BB16426606804F051FD34
:1027500000BB012004F0F9FE013EF6D1002121204A
:1027600002F0CEFCF0E786F31188BFF36F8FF5E738
:102770004FF02003EFF3118683F31288BFF36F8FBE
:102780006068314604F035FD90B986F31188BFF3D7
:102790006F8FEDE74FF02003EFF3118683F312887C
:1027A000BFF36F8F6068314604F023FD0028DAD054
:1027B0003B691D70626838691368C3F844050120DD
:1027C000C3F848050020C3F82001D3F82051C3F80E
:1027D00058015268D3F85801D20608D562681268C9
:1027E0000820C2F800054FF48002C3F80423012238
:1027F0009A6081F31188BFF36F8FF8BDA311002099
:102800002DE9FF410569D0F804802B6D0746A86CBF
:1028100000283AD16BB3B8F838406A6CEE6C9C4231
:1028200028BF1C46EB6C53B1296D41B106F06041E5
:10283000B1F1005F03D0082C6E6E28BF082400920F
:102840006A6CAC651AB1AA6C002A18BF2246CDE9A1
:1028500001261BB12B6D002B18BF234600226946B1
:102860004046039301F03EFD184B98420AD06FF0AA
:1028700004033C69236304F1200002F0F7F800230D
:1028800084F85C3004B0BDE8F081696CEE6CB8F897
:1028900038400A46ABB1834228BF03469C4228BF5A
:1028A0001C460029BED001F06043B3F1005FB9D0EF
:1028B000082C28BF08242246286E05F0F5F82A6E59
:1028C000B0E7844228BF0446EBE700BF0000AD0B31
:1028D0002DE9F04F8FB09946436801938B880469C6
:1028E0000E4699040746924600F139814FF0FF32B7
:1028F0004FF0FF3304F1100002F0DCF86660D7F807
:1029000004B0D7F81080DBF80830039398F85D30F6
:1029100023B1D8F800309E4200F08A80B6F804E077
:102920001EF4006F40F053811EF0090F40F04C81FF
:10293000CEF34513082B40F0478133680293029A87
:10294000B84B9A4240F240810BF10C0CBCE80F00EE
:1029500004AD0FC5BCE80F000FC5DDE902329A4295
:1029600028BF1A469CE80300AF4B9A4285E8030053
:102970001BD2AE4B9A4218D2AD4B9A4215D2AD4BF8
:102980009A4200F2F580AC4B9A4200F2F380AB4BD6
:102990009A4200F2F180AA4B9A4200F2EF80A948D5
:1029A000A94BAA49824288BF0B461EF0020F099329
:1029B0000EF0040300F0E480002B14BF0323022375
:1029C0008DF82830CEF300138DF82930DBF8003075
:1029D000D3F808351EF0020F4FEA5312CEF3400130
:1029E00003F01F0340F0D380002A00F0CD80012ABD
:1029F00040F010819649012202FA03F3C1F80C3528
:102A000098F85D302BB1584601F01CFC002388F883
:102A10005D3043468F4A04A9584601F0DFFB8E4BD8
:102A2000984240F0C180012388F85D30C8F800600A
:102A3000012384F85C30019B196C4A1C03D003F11C
:102A4000440004F03AFDBAF1000F40F0C380C4F82E
:102A500034A00023A36304F1480204F1380104F117
:102A6000340004F019FC6064B9F1000F40F0BB8041
:102A7000C4F83C900023236404F1500204F14001A7
:102A800004F13C0004F008FCE064206800232363A8
:102A900048B183683BB10121083004F010FC236881
:102AA000186904F07EFE3846FFF7AAFE0022A06BEC
:102AB0001346834240F0A0800023256C1946A942AA
:102AC00040F0A1809342264638BF13464FF4FA5295
:102AD00002FB03F556F8203B4FF000081B68B5FBDE
:102AE000F3F54FF4004CC835414640F2E7304FF45F
:102AF0007A720023E5FB0C01FDF720FF02460B462E
:102B0000304601F0D7FF18B9256B15F1740F13D1BA
:102B10000198C4F8588001F095FB84F85D803F6906
:102B20006FF073053D6307F1200001F09FFF87F808
:102B30005C80304601F0E6FF2368002B36D09A68AF
:102B4000002A33D0998811F480562FD1186904F0E7
:102B500028FE20683146083004F0B1FB26E0A36966
:102B6000002B7FF4C3AE63689E427FF4BFAEC6E61F
:102B70003A4B1AE73A4B18E73A4B16E73A4B14E749
:102B8000003B18BF01231BE74FF0A04133E742B1E0
:102B9000012A42D12E49012202FA03F3C1F8083575
:102BA0002EE74FF0A041F6E76FF0040523689B88FD
:102BB00013F4005304D1636004F1100001F056FFD8
:102BC00028460FB0BDE8F08F6FF01505EEE76FF007
:102BD0008505EBE7DAF800306363002B3FF439AF8B
:102BE000DAF8043036E7D9F80030E363002B3FF41D
:102BF00041AFD9F804303EE7616B01EBC30101330B
:102C000049680A4455E7E06B00EBC10001314068B8
:102C1000034454E7C1F80C15FFDE0023C3F8083560
:102C2000FAE700BF47E801000048E8010024F4008B
:102C300000127A00FF083D007F841E003F420F0013
:102C40001FA107008FD0030048E8010090D00300C7
:102C500000030050017400000000AD0B00093D00AE
:102C600080841E0040420F0020A1070000F01F02D8
:102C700040090DD001280ED10A4B03EB82030A4A0A
:102C8000D3F80007024042EA8102C3F800277047E8
:102C90004FF0A043F1E702F5E072002353F8223031
:102CA000FFDE00BF00030050F0F8FCFFF0B587B076
:102CB00001238DF8023002238DF804306B44039316
:102CC0000F4601AB0DF10301002404930546029168
:102CD000059400F053FF0C4B984206460FD103AA0F
:102CE0003946284600F0AAFDB0420BD09DF80310EB
:102CF000284600F03DFF6FF0040007B0F0BD6FF014
:102D00001200FAE72046F8E70000AD0B70B501238A
:102D100083400E4ABFF35B8FDC4352E8001F01EA99
:102D2000040542E80056002EF7D1BFF35B8F4FF445
:102D3000803282400648C0F80823BFF35F8FBFF39C
:102D40006F8F0B4214BF0120002070BD600A00206D
:102D50000010014070B40E49D1E90034D01AC318F4
:102D600044F1000422F07F46C1E90034A6F50013C7
:102D7000B3F5400F09D2074B1B681A0A1B069C19B2
:102D8000054B42F10005C3E9004570BC02F0AEBA44
:102D900080020020640A00208802002011B3BFF3E3
:102DA0005B8F0123104A834052E800CF4CEA030CAA
:102DB00042E800C10029F7D1BFF35B8F0B4A4FF403
:102DC00080338340C2F80433094BBFF35B8F1B6829
:102DD000BFF35B8FC340DB0742BF064B4FF40032AB
:102DE000C3F80021704700BF600A002000100140B6
:102DF0005C0A002000E100E00D4B1868010A0006A3
:102E0000BFF35F8F0B4BD3F80435181841F1000165
:102E1000B3F5801F0AD2084BD3E90023904271EB2F
:102E2000030303D210F1807041F10001704700BF2D
:102E3000640A002000100140880200202DE9F04FB4
:102E400085B016461F469DF840A00446FFF75EFF7A
:102E50000190FFF7D1FFB04271EB070354D23E4B14
:102E6000301A67EB0101984271F100014FD23B4BE0
:102E700003EB0413D3E902239F4208BF96425ED0BE
:102E800037494FF4803804F1500508FA04F8AD00D2
:102E9000C1F848832046ADB204F037FB26F07F4BE3
:102EA00005F1804504F5A87305F58835DC464FF03B
:102EB00003090293029A2CF07F4341F82230C1F8B3
:102EC0004483D1F80435274A6FF00200C01A6044E9
:102ED00020F07F40904232D9286868B1D1F804359B
:102EE0000393A3EB0B0020F07F40B0F5000F26D931
:102EF000204604F00AFB039BBAF1000F07D109EB4F
:102F0000030C09F10109D5E7BAF1000F09D06FF000
:102F1000150520460199FFF741FF284605B0BDE899
:102F2000F08F0123104ABFF35B8FA34052E8000FDC
:102F3000184342E800010029F8D1BFF35B8F07492D
:102F40000E98230101EB0412C8500F9B5360C2E995
:102F500002670025DDE700BF01008000700200204D
:102F600000100140FDFF7F005C0A00207FB51C4C73
:102F70001C4BC4F80833C4F848331B4B00254FF0F2
:102F8000FF304FF0FF31C4F80855C3E902014FF498
:102F90008033C4F80433154B02264FF4003201216C
:102FA000C4F804631120C3F880212A46FEF7D0FB41
:102FB0001120FEF79DFB0E4A0123A36023601360DE
:102FC0000C4B0D4A0093CDE9015500232846FFF72D
:102FD00035FF3046FEF7C8FE284604B070BD00BF7E
:102FE0000010014003000F007002002000E100E02B
:102FF000600A0020552D0000FFFF7F002DE9F743F8
:103000002F4CD4F8043399070BD5D4F8043143B1CD
:103010002C4A0023C4F80431D4F804311368013376
:103020001360D4F80433DA032AD5BFF35B8F264B41
:1030300053E8002F22F0010143E800100028F7D1E7
:10304000BFF35B8FD30702D4D4F84031C3B100255E
:10305000C4F84051D4F84031FFF7CEFE4FF02003C2
:10306000EFF3118283F31288BFF36F8F174BD3E90D
:103070000267B042B94106D282F31188BFF36F8F65
:1030800003B0BDE8F0834FF0FF384FF0FF39C3E9DC
:103090000289D3E900101D604FF48033C4F848332F
:1030A000C4F84051D4F8403182F31188BFF36F8FD8
:1030B0000029E5D0009032463B4628468847DFE7A6
:1030C00000100140640A00205C0A00207002002009
:1030D00030B5431C124C85B005D08442A8BF0446CD
:1030E000012CB8BF0124FFF787FE0E4B0C4DD3E92E
:1030F0000013401AB0F5000F10D22218AA4228BFC0
:103100002A4652184FF0000007490091CDE901000E
:1031100043F10003FFF792FE05B030BD2A46F0E709
:10312000FFFF7F0080020020552D000008B5FFF74B
:1031300063FE024B1B68C01A08BD00BF800200205E
:1031400010B5084C012363601120FEF7DFFA064B2F
:10315000C4F80833C4F84833044B4FF40032C3F8C2
:10316000802110BD0010014003000F0000E100E0CD
:103170004FF08053D3F83021082A06D1D3F83431E8
:10318000052B02D8024AD05C70470020704700BF70
:1031900052890000024AD2F80034002BFBD070475D
:1031A00000E0014010B54FF08053D3F83021082AD9
:1031B0004ED14FF080420021C2F80C11C2F810111C
:1031C000C2F8381502F54042D3F80414C2F82015AD
:1031D000D3F80814C2F82415D3F80C14C2F8281533
:1031E000D3F81014C2F82C15D3F81414C2F8301503
:1031F000D3F81814C2F83415D3F81C14C2F84015CB
:10320000D3F82014C2F84415D3F82414C2F8481592
:10321000D3F82814C2F84C15D3F82C14C2F8501562
:10322000D3F83014C2F85415D3F83414C2F860152A
:10323000D3F83814C2F86415D3F83C14C2F86815F2
:10324000D3F84014C2F86C15D3F84434C2F8703582
:10325000FFF78EFF18B13A4B3A4AC3F88C26FFF7B6
:1032600087FF18B1384BFB22C3F81825FFF780FF02
:1032700070B14FF080414FF08053D1F8E42ED3F875
:10328000583222F00F0203F00F031343C1F8E43E5B
:10329000FFF76EFF20B12D4B4FF40072C3F84026AC
:1032A0004FF08053D3F83031082B1AD14FF08043C0
:1032B000D3F80024D20744BF6FF00102C3F8002402
:1032C0004FF08053D3F83431052B02D8204AD35C19
:1032D0003BB14FF01023D3F808224FF08043C3F8DE
:1032E00058254FF01023D3F80022002A03DBD3F82F
:1032F0000432002B22DA174901234FF01020C1F8C5
:1033000004351224FFF746FFC0F80042FFF742FFE2
:10331000C0F80442FFF73EFF0023C1F80435FFF771
:1033200039FFBFF34F8F0C490C4BCA6802F4E062BF
:103330001343CB60BFF34F8F00BFFDE710BD00BF4D
:10334000005000404881030000F00040009002401F
:103350004C89000000E0014000ED00E00400FA05A7
:1033600030B50468CCB1BFF35B8FB4FA84F3C3F11A
:103370001F03DBB201229A4024EA020250E8005FF8
:10338000A54204D140E8002CBCF1000FF6D1BFF3F8
:103390005B8FE6D102480B7030BD0248FCE700BFEE
:1033A0000000AD0B0200AD0B10B50368CB40DB078E
:1033B00014D401238B400268BFF35B8F43EA020100
:1033C00050E8004F944204D140E8001CBCF1000FCB
:1033D000F6D1BFF35B8FEED1014810BD0148FCE789
:1033E0000000AD0B0400AD0B014BC3F804057047A2
:1033F00000F00140F7B5044618B1012823D003B00E
:10340000F0BD4FF080430222C3F808230122DA60A6
:10341000C3F80401D3F80431064601238DF80730C0
:1034200042F210754FF08047D4B1012CE7D1D7F8A4
:103430000C3403F48033AEBB83B3012004F085F871
:10344000013DF4D12AE04FF080430022C3F8080385
:103450005860C3F80021D3F800310DF10706DCE70E
:10346000D7F8183403F480333EB9002BC7D00120BD
:1034700004F06BF8013DF3D1C1E7D7F8182402F04E
:1034800003023260002BBAD09DF80700012803D157
:1034900004F05BF8013DC7D1012CB0D1054B0022EF
:1034A0005A71ACE7D7F80C2402F001023270002BFD
:1034B000EAD1F3E7680A0020044B1A7922B9012205
:1034C00018609A800248704702487047680A0020D6
:1034D0000000AD0B0C00AD0B08B5074B1B682BB102
:1034E0000020FEF727F908B9FEF702F94FF08043F4
:1034F0000022C3F8182508BD680A002010B510B1D5
:10350000012843D010BD4FF08043D3F81814D3F8EE
:103510001824C80321D502F00303012B04D013B1F2
:103520000020FFF767FF00234FF080420220C2F81F
:10353000183508224FF4827303F18043002119608B
:1035400002F180421C6801241460154A12680AB313
:103550004FF08043C3F80403D4E7D3F81424D10711
:10356000E1D5D3F81C249207DAD40D4A12681AB1B7
:103570000222C3F80423C5E7D3F80421002AFBD0B4
:103580000022C3F80421D3F80431BBE700224FF432
:103590008073D1E71A68002AFCD019601B68B1E774
:1035A000680A002010B54FF08043D3F800216AB1BB
:1035B0000022C3F80021D3F800210122C3F8082318
:1035C000114B587910B95A711B6898474FF08043D6
:1035D000D3F8042172B10022C3F80421D3F80421E6
:1035E000D3F81824D3F81824920704D10122C3F881
:1035F00018259A6010BD0222C3F80823024BBDE8CB
:1036000010401B6801201847680A0020036803F077
:103610001F025B09026004D0012B034818BF002081
:1036200070474FF0A040704700030050034A430921
:1036300000F01F00D35C1844C0B2704758890000E6
:1036400070B50546FFF7F2FF0C4C08300E4634F813
:103650001030DA0508D5C3F3432304EBC302284630
:1036600054F8333052689847A3682BB1E26831466A
:103670002846BDE87040184770BD00BF20010020FB
:1036800008B5FFF7D3FF034B083033F81000400BA9
:1036900008BD00BF2001002008B5FFF7C7FF034B9E
:1036A000083033F81000C0F3400008BD20010020AE
:1036B00008B5FFF7BBFF034B083033F81000C0F329
:1036C000401008BD20010020034611F0010010B594
:1036D000CCB20DD1A207C4F3400012D5094AD2F8EA
:1036E00020055860C2F82005003818BF012008E006
:1036F0004FF0A041D1F820251A60C1F82025002AFA
:10370000E8D010BD0003005010B5FFF78FFF124A3C
:10371000083032F81030D9051CD5C3F3432123F407
:10372000F85322F8103002F10E04002034F8023F62
:1037300013F4807F03D0C3F3432399420AD00130AE
:103740003028F3D1002342F831300448BDE810405E
:10375000FFF72ABE10BD00BF200100209801002005
:10376000F0B5054600200446012607468C420BD1E1
:10377000114BD3F87C2132B10022C3F87C21D3F85D
:103780007C3140F00040F0BDE3B29B0003F5807255
:103790009B0806FA03F31D420BD002F1804202F5AA
:1037A000C042D2F800C0BCF1000F02D0176012680E
:1037B00018430134DAE700BF00600040F7B5064661
:1037C0000846FFF733FF194F00F108050C4637F89C
:1037D0001530DB0727D5304603F02EFF2046FFF7D4
:1037E00067FF40B12046FFF74BFF316800F5A2703C
:1037F000002341F820302046FFF786FF002301A870
:1038000027F815300194FFF701FF019B00EB8300BF
:10381000074BD0F80027134043F00203C0F80037ED
:10382000044803B0F0BD0448FBE700BF20010020BE
:10383000F0F8FCFF0000AD0B0400AD0B2DE9FF41DB
:10384000164680460846FFF7F1FE0D4631680446ED
:1038500009B32846FFF720FF18B12846FFF728FFD5
:1038600010BB0023CDE900338DF80E308DF80F30FA
:103870000DF10F020B4628460DF10E0103F073FE09
:10388000474A04F1080132F8113023F0020343F0F3
:10389000010322F81130736863B328461F78596812
:1038A000FFF7FAFE10B1D1B13E4826E03C4A04F1E0
:1038B000080032F8103023F02003DB04DB0C22F880
:1038C000103061B1032FEFD87168496891F800C0DA
:1038D000D8F80010A7B90CF5A27C41F82C70304A3A
:1038E00004F1080132F8113023F01C0343EA870386
:1038F00022F81130B3684BBB2B4804B0BDE8F0810F
:1039000001EB8C0143EA4C33D1F810E52EF0030EA5
:10391000C1F810E5D8F8001001EB8C0E43F020033D
:10392000DEF8101522F8103021F44F3121F44071E7
:10393000CEF810152902DEF8108501F47C5141EA19
:10394000074141EA0801CEF81015C8E7D3E900673E
:103950002846FFF7D9FE002ECED0114DD5E9002321
:10396000964203D19F4201D1002209E00F480DF198
:103970000F01FFF7F5FC0C4B9842BED19DF80F20CC
:1039800045F8326005EBC20308345F6035F8143047
:1039900043EA422343F4807325F81430ACE700BFB8
:1039A000200100200400AD0B0000AD0B98010020A9
:1039B0002DE9F0430C4685B08046204611461E4650
:1039C000FFF734FE054629B32046FFF765FE18B918
:1039D0002046FFF76DFE18BB314F05F1080937F897
:1039E000193013F01C0F02D04B78012B18D0012393
:1039F0008DF80F300023CDE900134A1C8B1C2046A4
:103A00000DF10F0103F0AFFD37F8193043F0030358
:103A100027F81930002E41D02046FFF73DFE18B997
:103A2000204805B0BDE8F08396F800C0D8F8003013
:103A30001B4F0CF5A272002143F8221005F1080279
:103A400037F8121021F02001C904C90C27F8121010
:103A500075781DB3D8F80000B67800EB8C002D0403
:103A6000D0F8103523F4991323F4F853C0F8103527
:103A7000230203F47C5305F440353605D0F810E5F5
:103A80002B4306F4801641EA4C31334341F02001C8
:103A900043EA0E0327F81210C0F810350248C0E7B9
:103AA000200100200400AD0B0000AD0B014BC3E969
:103AB000021270472001002010B508461446FFF797
:103AC000F7FD50B10846FFF7B1FD054B083033F85C
:103AD000103004485B0B237010BD0348FCE700BFA7
:103AE000200100200000AD0B0400AD0B70B5184E96
:103AF00096F8804005464CBB2146602206F1100036
:103B000003F0E0FF2D68306F2146884212D1002378
:103B1000C5F87C3145F30730D5F87C31FDF7E8FD79
:103B20004FF00043C5F804330A48012386F880307B
:103B3000B36770BDCBB29B0003F580727C2B08BFCE
:103B4000AC5001F1010108BFAB58DEE70248F0E7D5
:103B5000200100200000AD0B0C00AD0B034B93F8CF
:103B60008000003818BF0120704700BF20010020EE
:103B70000148FFF719BC00BF940100200148FFF77E
:103B8000EFBB00BF9401002073B5054608460C4604
:103B90001646FFF78DFD00B30846FFF77DFD014691
:103BA000D8B92046FFF76CFD04B2A40004F580727A
:103BB000034628688150296882582144D1F810258D
:103BC00042F00102C1F810252EB12968012202FA43
:103BD00003F3C1F8043302B070BD2046FFF726FDA1
:103BE0000F4B083033F81030C3F38203042B12D08C
:103BF000052B12D001A80194FFF708FD019AD0F817
:103C00001035D34003F00103991C204602B0BDE8F3
:103C1000704003F0F1BC0321F7E70221F5E700BF94
:103C2000200100202DE9F04F694BDFF8A881D3F87F
:103C30000403D8F87010C0B289B040F00040FFF71C
:103C40008FFD051E2FDAC24600235AF87C1F06A8F6
:103C5000CDE90633FFF738FD5F4B01930DF11809ED
:103C60004FF0000B019A12F8013B0192DA0803F0C1
:103C700007031AF8022022FA03F3DA071CD409F129
:103C80000409BBF1000F14D0D8F870104FF00040B9
:103C9000FFF766FDD8F87C1006A8FFF715FD002891
:103CA000DAD125F000450124002D79D109B0BDE815
:103CB000F08F4FF0010BD5E7484B5B440293D9F8E6
:103CC00000100029DBD0029B91FAA1F11C78B1FA17
:103CD00081F141EA44142046FFF7A8FC083005941E
:103CE00038F81070C808BB0819F80020039301F0D9
:103CF0000701012303FA01F122EA010209F8002079
:103D000005A8FFF783FC059A039B02F5E072C7F351
:103D1000820650F822205B073746C2F3014224D5C1
:103D200020463946D6B2FFF78BFC05A80594FFF76D
:103D30006DFC059B03F5E07350F82330C3F301439A
:103D40009E4207D10021204603F056FC3146204612
:103D500003F052FC05A80594FFF758FC059B0122CF
:103D600002FA03F3C0F82035A9E7022A0CD1032197
:103D7000204603F041FC06F00503012BEAD1394649
:103D80002046FFF75DFCE5E702212046039203F0A1
:103D900033FC032EF3D0039A032ADBD1022EEDE786
:103DA00095FAA5F3B3FA83F304FA03F29B0003F147
:103DB000804303F5C04325EA0205D3F81005D3F884
:103DC0001015C0F30520C1F30141FFF739FC6BE783
:103DD0000060004020010020688900006889000020
:103DE00001460148FFF7BCBAA4010020036803F0B4
:103DF0001F025B09026004D0012B034818BF00209A
:103E000070474FF0A04070470003005073B516464E
:103E1000421C1C460546069B18D0012902D1BBB1A5
:103E200003F088FC01A80195FFF7E0FF019B00EB80
:103E300083002402D0F80027074B44EA86040C4391
:103E400013401C4344EA4101C0F8001702B070BDA2
:103E500003F07DFCE6E700BFF0F8FCFF4B69184A71
:103E6000934221D00DD8174A93421DD007D8164A45
:103E7000934219D0154A934216D015487047154AF7
:103E8000F9E7154A934208D004D8144A93420BD05C
:103E9000134AF0E7134A9342EFD10279124B1348C9
:103EA000002A08BF1846704791F8213013B1CB683B
:103EB0000133F2D1CB690133EFD10C48704700BF19
:103EC00080841E0020A1070048E8010090D0030074
:103ED0000400AD0B40420F000024F40000093D0037
:103EE00000127A000048E8010300AD0B0000AD0BA2
:103EF0002DE9F04F8C4B4D6990F804909D4287B0AE
:103F000006460C4600F0E88000F2D880874B9D42C0
:103F100000F0E58000F2CA80854B9D4200F0E2800F
:103F2000844B9D420CBF4FF080654FF08045824F1F
:103F300094F82300242202FB0973997F60F30001A7
:103F400099773379217C02FB0373D97794F8238026
:103F5000B8F1000F34D16269784B9A420CBF4FF030
:103F6000030A4FF0000A237E012B94BF0023012394
:103F700000932068534642460121FFF747FFCDF8E2
:103F800000806068534642460121FFF73FFFCDF8AD
:103F90000080A27EA06853464146FFF737FF237C8E
:103FA00083F001030093E068534642460121FFF786
:103FB0002DFF01210091E06953464246FFF726FF9D
:103FC000317994F82130002900F09580002B00F021
:103FD0009280242202FB09724FF0FF30106294F8A5
:103FE0002100627E94F8129094F818E0D4F81CC076
:103FF0000492002800F08980E06894F8108094F81A
:1040000022B094F820A0CDF8148029B1002B7FD1E4
:104010001CF1010118BF012194F824803368B8F124
:10402000000F0CD12268029262680392029AA4687F
:10403000C3F80825039AC3F80C25C3F81045049A61
:10404000C3F8C095003A18BF0122BEF1020FC3F8B1
:1040500024555FD0BEF1030F5FD0BEF1010F01D137
:1040600042F00202C3F8542591B1B8F1000F0DD10E
:10407000BCF1FF3F18BFC3F86CC5421C1FBF059AB7
:10408000C3F81405C3F86825C3F864B5C3F860A580
:10409000337924225343FB58002B41D0306840F33E
:1040A000073007B0BDE8F04FFDF722BB244B9D421F
:1040B0000CBF4FF080554FF0804538E7214B9D42B3
:1040C00013D01E4B9D4213D01F4B9D420CBF4FF08F
:1040D00000454FF080452AE74FF0005527E74FF0A5
:1040E000006524E74FF0007521E74FF020651EE7DB
:1040F0004FF0A0551BE7242000FB0979E268C9F8BE
:104100002020227C89F81F2069E74FF0FF3074E7F8
:10411000012181E742F00402A4E742F00602A1E790
:1041200007B0BDE8F08F00BF80841E0020A107000B
:1041300048E8010090D00300740A00200048E8011C
:1041400040420F000024F40000127A00431C07B51F
:104150000ED0019001A8FFF749FE019B00EB830000
:10416000054BD0F80027134043F00203C0F8003796
:1041700003B05DF804FB00BFF0F8FCFF70B501F17F
:104180000C020C464021054603F096FA08B3114B89
:104190009D4201BF104B1A684FF08043C3F8002EB8
:1041A000206A431C03D0E37F83B103F0D0FA637F1E
:1041B0001BB12146284603F0D7FA0023204623727C
:1041C000616850F8083BBDE87040184703F0B2FA48
:1041D000EDE770BD00F00240700A00202DE9F047C5
:1041E00090F80490144C242505FB09F504EB050A0E
:1041F0001F469AF81C3006469046D3B961B9625101
:10420000CAF80470242303FB0944002363770B4896
:1042100001232377BDE8F087FFF720FE074B984284
:10422000F8D1304644F80580CAF80470FFF760FE04
:10423000E8E70348EEE700BF740A00200000AD0B7A
:104240000C00AD0B2DE9F041044606790068224DC3
:1042500040F30730FDF75AFA24237343EB5853B168
:1042600023681E4AC3F8082306EBC601206805EB45
:10427000810103F079FA2421236801FB0651D3F868
:104280000805D3F80C75D3F810858B7FDB0716D49F
:10429000FFF75CFF4046FFF759FF3846FFF756FF30
:1042A000086AFFF753FF23794BB12368D3F86C05F5
:1042B000D3F81415FFF74AFF0846FFF747FF2368B6
:1042C000074A934204BF01225A60242303FB065588
:1042D00000232B77BDE8F081740A0020520108000A
:1042E00000F002402DE9F0430779DFF8A88124238C
:1042F0007B43164608EB03020D46517F85B081468D
:10430000002940F0C48058F8033023B116F0140F90
:1043100004BF0123537795E80F00242404FB07848E
:1043200004F10C0C8CE80F00206A411C03D0E37FE1
:10433000D3B103F0FFF92968D9F8004021B101F0A9
:104340006043B3F1005F06D1AB6883B103F0604313
:10435000B3F1005F0BD0242303FB078300224E48F8
:104360005A7705B0BDE8F08303F0F1F9E3E74B4B72
:104370009C4224D14FF080436A68D3F8000E484B2A
:104380001860E2B1474821F4FF5323F01F03834232
:104390006DD85018DFF810C1C3F34F3101228A40A5
:1043A000002103F50053984241EA02014FEA42021C
:1043B00001D96345F5D34FF08043C3F8001E16F0D2
:1043C000010318BF0123C4F8503516F0020318BFCB
:1043D0000123C4F8403595E80F00EC468CE80F0047
:1043E000039BC4F84405C4F84815C4F83425C4F840
:1043F00038350023C4F81831D4F8183116F0080500
:104400004FF00703C4F800350FD124237B4358F83D
:1044100003200123236142B9D4F81831002BFBD0CB
:1044200062464021204603F047F924237B4358F895
:10443000033013BB194B9C4201BF194B1A684FF054
:104440008043C3F8002E242303FB0783186A421C11
:1044500003D0DB7F73B103F07AF935B907EBC707F7
:1044600008EB8701204603F07FF9104879E74FF405
:104470008071A0E703F05EF9EFE716F0040F4FF04C
:10448000400314BFC4F80833C4F80433EDE7084808
:1044900067E700BF740A00200A00AD0B00F002407D
:1044A000700A0020FFFF0020002001200000AD0B5B
:1044B0000B00AD0B02494FF04020FFF75FBE00BF7D
:1044C000740A002001490248FFF758BE980A0020EC
:1044D00000F0024008B5144BA8220021184603F052
:1044E000F1FA0322026111494261114A8161C261FC
:1044F0004FF480620262002282624262C2620166FE
:104500000C4941661021816603460267C266426714
:10451000BFF35F8F084911F8010D98540132102A3A
:10452000F9D1BFF35F8F08BDBC0A00206A89000083
:10453000A30D0020930D00208389000038B54FF0B3
:104540002003EFF3118583F31288BFF36F8F064BBF
:104550009C6802F0EAFF85F31188BFF36F8F204655
:10456000BDE83840FDF754B8680B0020104B70B51B
:1045700053F82040013053F82060A64200D870BDA7
:10458000D4E9003595B153B12846984738B1002891
:10459000B8BF4042EB68FF28A8BFFF201870EA6848
:1045A000537843F0010353700834E6E79847FBE77C
:1045B0006486000008B50A4B012203201A70FFF739
:1045C000D5FF00F017FF0420FFF7D0FF00F04CF9F3
:1045D000FCF71EFB034A137B23F00103137308BD92
:1045E000A31100201003002008B50348034A00214E
:1045F000121A03F0E6F808BD70020020A81100208E
:1046000070B5002386B00122CDE90423194E1A4D5E
:1046100001930F22CDE902321849142303FB005500
:1046200006EBC01604464FF4C070154B00954FF4CE
:10463000A07200FB0411304600F0D6F8737B114ADB
:10464000EE6023F0040373734FF4046304FB03333D
:1046500013446B600C4B2C74BFF35B8F53E8001F4B
:10466000013143E80012002AF8D1BFF35B8F06B096
:1046700070BD00BF90020020680B0020001A0020CF
:104680006B780000C0110020640B002080B5002072
:10469000A6B0FFF76BFF2D4B83F308882C4D2D4EF2
:1046A0006B692D4F43F400736B610024E02385F8A0
:1046B0002230EC772C766C76AC7685F820406B6AED
:1046C00043F4E0236B6285F82340FCF70FFFFDF70E
:1046D000C1F84FF0FF33AB62EB62FDF763F9FDF712
:1046E000F9F840F20113ADF8243006ABB360CDE920
:1046F0001E44219403F059F80120FFF737FF0220F0
:10470000164DFFF733FF00F071FC154B75610593F3
:10471000012314490094CDE903434FF480623B46E2
:10472000CDE90144284600F05FF86A7B064622F096
:10473000040228466A7303F0F9F82046FFF760FF89
:104740003A4631462846FDF769F800BF001A0020B6
:1047500000ED00E0680B0020B545000010030020CC
:1047600084890000801B002038B5064C064D0020CF
:10477000AC4200D338BD204603F027F80028F9DB0F
:104780001C34F5E7200200202002002073B50C46FF
:104790004FF02005EFF3118185F31288BFF36F8F7F
:1047A000C5685DB125602B68C3608369013383618F
:1047B000002081F31188BFF36F8F11E052EA0306E6
:1047C00003D125606FF00B00F3E7CDE9002302462B
:1047D000083000F047FB18B9024B9B685B69236007
:1047E00002B070BD680B00202DE9F04385B00732A0
:1047F000994600F1580322F00706C0E91633109BD2
:10480000037306F140050423002743730D440F9BF7
:1048100083738846C0E9067729468760C7730446D4
:10482000FCF7E4FC08F140030730C4E9183620F037
:1048300007000E9BA06602930D9B01932D1A0C9B03
:1048400000932A464B4641462046FCF7B5FF054BF0
:1048500067659B6803B1DB6EE366284605B0BDE87B
:10486000F08300BF680B002070B5224C224D86B04B
:104870002646AE4204F130040AD300F087FB1D4CFB
:104880001E4EAC4220D306B0BDE8704000F092BB93
:1048900054F80C3C059354F8103C049354F8143C21
:1048A000039354F8183C029354F81C3C019354F8B9
:1048B000203C009354E90A2354E90C01FFF794FFCC
:1048C00054F8303C5E65D3E7D4E90A23B3F1FF3FE7
:1048D00008BFB2F1FF3F05D052EA0301206803D1BF
:1048E00000F036FB3034CCE73146183000F088FC5D
:1048F000F8E700BF5881000058810000C779000028
:1049000038B5836804466BB3194A926893422CD138
:10491000C368012B03D9013BC360002038BD4FF0B1
:104920002003EFF3118583F31288BFF36F8F0169C2
:10493000806802F0A6FF204603F049F8A06058B155
:1049400090F90E2022610022826702F0EFFF0948F1
:10495000294600F0EBFAE0E7E06085F31188BFF349
:104960006F8FDAE76FF01500D8E74FF0FF30D5E72B
:10497000680B0020A41100202DE9F34104461746DE
:104980001E464FF02003EFF3118883F31288BFF324
:104990006F8FC368334A7BB180689168884219D0B1
:1049A00057EA060318D188F31188BFF36F8F6FF0B1
:1049B0000F0002B0BDE8F081916891F90E102161FD
:1049C0000133E3609368A36088F31188BFF36F8FAE
:1049D0000020EEE72169F2E791F90E1090F90E3010
:1049E0009942A8BF19466FF07E029142B8BF1146A6
:1049F0008B422EDD02F045FF0546CDE900761A48D0
:104A00002246414600F02EFA0028E1D04FF0200364
:104A1000EFF3118683F31288BFF36F8FA068D0B1D4
:104A2000236821699C420AD04BB193F90E30994218
:104A3000A8BF19466FF07E039942B8BF194602F02D
:104A400020FF40B10848314600F070FA6FF00A00CC
:104A5000AFE70025D1E7002DF4D186F31188BFF32D
:104A60006F8FF3E7680B0020A411002038B50446CF
:104A70004FF02003EFF3118583F31288BFF36F8F9C
:104A800002F0A5FF48B10022826702F04FFF2946DD
:104A90000748BDE8384000F049BAD4E902329A42EA
:104AA00018BF0133A36085F31188BFF36F8F38BD42
:104AB000A411002013B54FF02004EFF3118184F30B
:104AC0001288BFF36F8F846844B1013C846081F326
:104AD0001188BFF36F8F002002B010BD52EA0304AB
:104AE00006D181F31188BFF36F8F6FF00F00F3E7EA
:104AF000CDE900230246024800F0B4F9ECE700BF1C
:104B0000A411002070B504464FF02003EFF3118587
:104B100083F31288BFF36F8F6FF00A06204602F00E
:104B200056FF18B1866702F001FFF7E7A06029463B
:104B30000248BDE8704000F0F9B900BFA4110020A0
:104B4000C3897F2B12D80A4B1B6863B1094B90F9BC
:104B50000E201B689A4209DB437BDB0606D1064B1D
:104B6000C31A18BF012303F0010070470023FAE7BE
:104B7000900B00208C0B002090020020044BC01AE8
:104B8000044BC0105843044B01221A54704700BF15
:104B900090030020ABAAAAAAA411002070B50E4B66
:104BA0000E4C1E7C06EB460304EBC3040546204670
:104BB00002F060FF0A4B002228469A55FFF7C0FF1B
:104BC00048B1084B08491A68013A2046D317BDE896
:104BD000704000F015BB70BD680B002090030020F2
:104BE000A4110020900B00207D4B000038B50D4D26
:104BF0002B4653F8184F9C4200D004B9EC68AB68C0
:104C000038B95A7BD20604D1A26912B9DA897F2A4F
:104C100005D89C4202D02046FFF7C0FF23466B61B7
:104C200038BD00BF680B002070B590F90D20437BA4
:104C3000002A014604DA03F07F03437302F03CFECE
:104C40004B7B154A63F07F0310464B7350F8183FB7
:104C5000D469834208BF002323B9C1E9000421605D
:104C6000D1610CE091F90E5093F90E60B5420ED06F
:104C7000AE420CDD5868C1E90030016059609068AF
:104C8000431A5842BDE870405841FFF7AFBF9C42FD
:104C9000E3D01B68E0E700BF680B002070B490F918
:104CA0000D30427B002B29DBD30627D183692BBB38
:104CB000134962F07F0242730A4652F8184F944239
:104CC00018BF2346CC6923B9C0E900242060C8611D
:104CD0000CE090F90E5093F90E60B5420AD0AE4246
:104CE00008DD5A68C0E900321060586070BC0020CE
:104CF000FFF77CBFA342E7D01B68E4E770BC7047B6
:104D0000680B002008B590F90D20437B002A01466E
:104D100004DA03F07F03437302F0CEFD044B98687E
:104D2000431A58425841BDE80840FFF75FBF00BF33
:104D3000680B002070B515461C46064602F0CEFDF5
:104D4000B4F1FF3F08BFB5F1FF3F08D02A46234624
:104D500006F118000249BDE8704000F051BA70BD7C
:104D6000C77900002DE9F041002A437B0E460CBFB5
:104D700010210821194204460AD10B43DD0903F032
:104D80009F0211D14273082914D00120FFF72EFF92
:104D90001B4B9B68A3422CD1EFF305834BBB3046E2
:104DA000BDE8F041FCF74ABC03F01F03437302F077
:104DB00083FDE8E7A36813B1204602F085FD04F106
:104DC000180002F057FE04F158074FF00008A56DD7
:104DD000BD42DAD0002DD8D0284602F075FD05F18D
:104DE000180002F047FEC5F878802846FFF756FF06
:104DF000EDE786F31188BFF36F8FBDE8F08100BF48
:104E0000680B002038B54FF02003EFF3118583F3D2
:104E10001288BFF36F8F104B104A9C681068A04235
:104E200006D1FFF7BBFE85F31188BFF36F8F38BD46
:104E300000211B7C11600A4AD35C002BF3D0204672
:104E4000FFF77EFE0028EED0637BDB0602D1204612
:104E5000FFF7EAFE2046E4E7680B0020880B0020FD
:104E6000A411002070B50C480C4D86682E600C46CD
:104E70001146DDE904234FF02006EFF3118586F398
:104E80001288BFF36F8F8068FFF754FF2046BDE89C
:104E90007040FCF7D3BB00BF680B0020880B0020DC
:104EA000F8B504464FF02003EFF3118683F3128820
:104EB000BFF36F8F437BDA0649B219D18569BDB95B
:104EC00003F07F03437302F0F7FC437B164A8173C0
:104ED00063F07F034373134653F8180F984218BFCB
:104EE0000546D0695DB9C4E900300460D46111E0C1
:104EF000A173002086F31188BFF36F8FF8BD95F979
:104F00000E70B9420BD08F4209DD6B68C4E90053C3
:104F10001C606C600120FFF769FE0120EAE7A842EF
:104F2000E1D02D68DEE700BF680B002049B9EFF340
:104F3000058030B9054B5A699B689A4201D0FCF74D
:104F40007DBB81F31188BFF36F8F7047680B002022
:104F500010B54FF02002EFF3118482F31288BFF3F3
:104F60006F8F427B510704D484F31188BFF36F8F96
:104F700010BD22F004024273FFF790FE2146024862
:104F8000BDE81040FFF7D2BFA51100204FF020036D
:104F9000EFF3118183F31288BFF36F8F044B9A688C
:104FA000D37B013BD37381F31188BFF36F8F7047BD
:104FB000680B002010B54FF02003EFF3118483F34A
:104FC0001288BFF36F8F084B9A68D37B0133D3737A
:104FD0000020FFF70BFE84F31188BFF36F8FBDE84D
:104FE000104002F01CBD00BF680B0020024B03F113
:104FF0001802C3E906227047680B0020F8B54FF08D
:105000002003EFF3118583F31288BFF36F8F1949E3
:105010008868437B03F07F03437302F04DFC8B6889
:105020005A7B084662F07F025A7350F8182FCC69F9
:10503000824208BF002222B9C3E900042360CB6189
:105040000CE093F90E6092F90E70BE420ED0B7429A
:105050000CDD5168C3E900210B6053600120FFF7AC
:10506000C5FD2846BDE8F840FCF7E8BAA242E3D007
:105070001268E0E7680B002050EA01032DE9F041D7
:1050800005460E4603D1FFF7B9FF00202CE0831C34
:1050900071F1FF332ADB02F003FD2C184FF02003DF
:1050A000EFF3118883F31288BFF36F8F114F124B08
:1050B000B8681860FFF726FEB86810492A463346DC
:1050C000183000F09DF8BA68537B43F01003537317
:1050D0004046FCF7B3FA02F0E3FC201A63EB03034B
:1050E000012873F10003D0DBBDE8F0816FF001040B
:1050F000241AD3E7680B0020880B0020C779000032
:10510000B1F1FF3F08BFB0F1FF3F08B506D1084B32
:10511000986802F01BFC4FF0FF3008BDFFF7ACFFB2
:105120004FF47A7380FB0303C00B40EA4340F4E77B
:10513000680B0020014B9868704700BF680B002087
:1051400008B50648064A0749121A02F03CFBBDE8BA
:105150000840054A0549064802F035BB000000201A
:1051600070020020C889000000000000C88900000B
:1051700000000020034B1B680BB9FDF7D7BF0020D0
:10518000704700BF940B002010B50E4B1C689C426A
:1051900004D1FFF7EFFF6FF0004010BDFFF7EAFF0B
:1051A000002CF8D0D4E904321B1A62EBE072B3F1A0
:1051B000004F72F10001EEDA002AACBF1846002061
:1051C000EBE700BFA801002030B570B10B4B5B6866
:1051D00098420AD0036843B1D3E90421D0E90445D9
:1051E000121941EB0501C3E90421D0E90032136033
:1051F0005A600023C0E9003330BD00BFA801002081
:10520000B3F1FF3F08BFB2F1FF3FF8B504461D46BA
:1052100016465CD081604FF02003EFF3118783F3D3
:105220001288BFF36F8F013275F1FF3324DA2D49F5
:10523000D1E900206FF001039B1A4FF0FF3262EBBF
:1052400000009E1B60EB0500012E70F1000301DAE7
:1052500001260020C4E90460234ED6F800C075681A
:10526000B44508BF4FF0000CBCF1000F0DD1C4E9EC
:1052700000652C6074601CE0FFF77CFF013645F18F
:105280000005361845EBE070E4E7DCE90420D4E9DA
:105290000431934271EB000E1ADAD21ADCF80430B2
:1052A00060EB0100CCE90420C4E900C31C60CCF829
:1052B00004403368B34206D09C4204D1FFF764FF38
:1052C0000021FDF705FF87F31188BFF36F8FF8BD4D
:1052D0009B1A61EB0001AC45C4E90431C7D0DCF88E
:1052E00000C0C1E7A8030020A80100202DE9F84F65
:1052F0004FF02003EFF3118C83F31288BFF36F8F0D
:10530000DFF8B0A0DFF8B0902C4FC9F80000DAF851
:1053100000000024504508BF00200025D7E90021E7
:10532000D9F80030E04680B3D0E9046C4FEAE37E60
:10533000B3427EEB0C0B05DAF61A6CEB0E04C0E9F7
:10534000046422E0B21841EBE671C0E90445C7E904
:105350000021FFF739FF88F31188BFF36F8F83684F
:1053600098474FF02003EFF3118883F31288BFF3BF
:105370006F8FD9F80030DAF800009B1B5045C44607
:10538000C9F80030CAD1D7E900219A1841EBE3737C
:105390000024C7E90023C9F80040FFF7F5FE2146C5
:1053A000FDF796FE88F31188BFF36F8FBDE8F84FC5
:1053B000FFF728BDA8010020940B0020A8030020BF
:1053C00010B54FF02003EFF3118483F31288BFF37D
:1053D0006F8FFFF7CFFE064A0346D2E90001181887
:1053E00041EBE37184F31188BFF36F8F10BD00BFF1
:1053F000A8030020014801F00CBB00BF8989000010
:1054000010B50A4C23681BB101232360002010BD96
:1054100000F0EAF80028F7D00138062803D8044B3A
:1054200053F8200010BD034810BD00BF980B0020AA
:105430007C860000FE8FFFFFBFF34F8F0549064BB0
:10544000CA6802F4E0621343CB60BFF34F8F00BF22
:10545000FDE700BF00ED00E00400FA0510B4094BC1
:1054600009490A4C4FF0FE32C3F800244968C3F8DA
:105470000424C3F80824C3F80C240023C4F800351E
:1054800010BC084700B00250B001002000A002503C
:10549000D0E90012014BC3E900127047B0010020AF
:1054A00010B5044650B1636813F0685F05D0064A32
:1054B000934202D000232360626010BD034B044876
:1054C0005B689847EFE700BF2C5F5CA9B001002044
:1054D00098860000C8B143680D4A934213D013F078
:1054E000685F0ED0012350E8002F194640E8001CE9
:1054F0009CF0000FF7D1012AF5D0BFF35F8F002099
:10550000704704487047044870476FF4E0407047A4
:105510002C5F5CA9E98FFFFFEA8FFFFF80B1436832
:10552000094A93420AD013F0685F05D0BFF35F8F3A
:1055300000230360184670470448704704487047CA
:105540006FF4E040704700BF2C5F5CA9E98FFFFF5C
:10555000EA8FFFFF10B5044620B1044B63600022C0
:10556000226010BD0248FFF779FFF6E73A00003AE3
:10557000C086000070B5D0E90023174C174D63605A
:10558000D0E90230C4E9023022604868D1F800C096
:10559000134BC3E900C0D5F81801D1F808C0C3F80F
:1055A00008C010F0685FD1F80CC00969C3F80CC0DE
:1055B000196110D00B49C5F8BC110023C5E945316C
:1055C00005F58A70C5F8B8319047236805F5DC7099
:1055D000BDE87040184770BDCC010020B00B002022
:1055E000B80100202C5F5CA938B500F02FF820B17D
:1055F000032400F063F8204638BD00F031F898B974
:1056000000F0ACF898B90F4DD5F828391B0EF02BE7
:1056100008D1D5F8242A0C4B9A420AD0072400F06E
:1056200017F8E6E70624FAE70424204638BD0024EC
:10563000F5E7012000F092F804460028F7D1C5F8FC
:105640000C0AD8E700B002500000E02000207047AC
:1056500000207047014BC3F8040A704700B00250A5
:1056600010B5114800F048F800B110BD0F4800F027
:1056700043F80028F9D10E4C204600F03DF80028F0
:10568000F3D10C4B0C481C6000F036F801460028A2
:10569000EBD100F02DF8044608B1204610BD00F013
:1056A0003FF82046FAE700BF0C0200200802002065
:1056B00004020020FC0100200002002008B5084878
:1056C00000F024F8074800F021F8074800F01EF821
:1056D000064800F01BF8BDE8084000F00BB800BF1A
:1056E0000C0200200802002004020020000200201A
:1056F00000207047704700BF08B5034B02681B6865
:1057000010689847002008BDCC01002008B5034B65
:1057100002685B6810689847002008BDCC01002033
:1057200070B5094C094D2069AB68984718B1084B12
:1057300008485B689847084AEB68206900211160B7
:10574000BDE87040184700BFB8010020CC01002020
:10575000B0010020E4860000AC0B0020F8B51A4D23
:105760001A4E0446B26828699047E8B9184F3B685A
:105770004CB1A3B1012B19D0013B3B602869F36800
:1057800098470020F8BD43B9124A0121C2F800151C
:105790001149D1F81029002AFBD101333B60F3688D
:1057A000286998470020F8BD0C48F8BD0A4AD2F88D
:1057B0001039002BFBD1074A6FF07E40C2F800354C
:1057C000FFF748FF3B68D7E7B8010020CC01002075
:1057D000AC0B002000A0025000B00250E98FFFFF88
:1057E0002DE9F04101260746B24201DCBDE8F08117
:1057F0003B461F4613F8014B002CF7D0252CF8D15F
:105800001C78252C07F10207F2D00023DFF8048171
:105810009C461D461F2D18D8A4F1200EBEF1100F76
:1058200009D9A4F1300EBEF1090F1ED80A2404FBD9
:1058300003E3202504E028FA0EFE1EF0010F06D037
:1058400017F8014B002CE5D128E07F2D1CD8A4F1DE
:10585000300EBEF1090FE9D9242C10D1BCF1000F94
:1058600046D0B34246D00023EAE724F0040EBEF14E
:105870002A0FF8D06C2C09D145F08005E0E724F020
:10588000040EBEF12A0FEED06C2C22D06C2C1BD84B
:10589000682C23D06A2C28D04C2C26D0BCF1000FC9
:1058A000A4D0B445A0D144F02007A7F1650CBCF109
:1058B000020F0B6801D9612F1ED1073323F00703B4
:1058C00008330B6001368EE7742CB9D07A2CB7D030
:1058D000E4E72C0648BF45F40075CDE7EC0548BF6A
:1058E00045F4007545F48075AAE745F42075A7E7EF
:1058F0009C46B8E76324D6E7692C02D007D8632C0E
:1059000003D02F0601D5AC05D7D40433D9E7732CC7
:10591000F6E700BF892801002DE9F04F95B04368F4
:105920000393837880469807CDE9081217D50D9226
:105930000B4600251F78A7B1252F16D001330793FA
:10594000039B414638469847002805F1010580F23F
:10595000558498F8023043F0040388F802304FF081
:10596000FF35284615B0BDE8F08F5F789A1C252FCB
:105970000792E5D000242646A246A346BBF11F0F9E
:1059800032D8A7F12003102B0AD8DFE803F024094E
:10599000092A0909091B0909092209270909190006
:1059A000A7F13003092B2DD92A2F39D154B90D9BDA
:1059B0001BF0400F53F8042B0D9329D0164601E03D
:1059C0004BF0010B079B13F8017B0793002FD5D1F8
:1059D0005BE04BF0020B4BF0040BF3E74BF0080BD2
:1059E000F0E74BF0100BEDE7BBF17F0F3FD8A7F1CD
:1059F0003003092BD8D81BF0400F03D00A2202FB3A
:105A00000636DFE70A2202FB0A3A4BF0200BD9E701
:105A1000B2F1000AF9DACAF1000A4BF0280BD1E71B
:105A20002E2F05D11BF0400F9BD14BF0400BC9E747
:105A3000242F1CD1002C00F04481099B0D931BF0F6
:105A4000400F0AD1524608980DA9FFF7C9FE0D9BD9
:105A50001A1DD3F800A00D92B4E7324608980DA99C
:105A6000FFF7BEFE0D9B1A1D1E680D92AAE76C2F54
:105A700000F0148100F20B81682F00F017816A2F6B
:105A800000F01C814C2F00F0198134B1099B08985B
:105A90000D9322460DA9FFF7A3FE002E47F0200329
:105AA000B8BF2BF0400B0593A3F16503BCBF1FFAF1
:105AB0008BFB0026022B40F2098147F02003612B6B
:105AC00040F08482FF4307F0200306930D9B0733C9
:105AD00023F007031BF0400FD3E9000103F1080294
