:10000000782A00207D100000377100005110000098
:10001000511000005110000051100000511000005C
:10002000000000000000000000000000A90C00001B
:100030005110000000000000410C000051100000B1
:10004000350D0000350D0000350D0000350D0000A8
:10005000350D0000350D0000350D0000350D000098
:10006000350D0000350D0000350D0000350D000088
:10007000350D0000350D0000350D0000350D000078
:10008000350D0000350D0000350D0000350D000068
:10009000350D0000350D0000350D0000350D000058
:1000A000350D0000350D0000350D0000350D000048
:1000B000350D0000350D0000350D0000350D000038
:1000C000350D0000350D0000350D0000350D000028
:1000D000350D0000350D0000350D0000350D000018
:1000E000350D0000350D0000350D0000350D000008
:1000F000350D0000350D0000350D0000350D0000F8
:10010000350D0000350D0000350D0000350D0000E7
:10011000350D0000350D0000350D0000350D0000D7
:10012000350D0000350D0000350D0000350D0000C7
:10013000350D0000350D0000350D0000350D0000B7
:10014000350D0000350D0000350D0000350D0000A7
:04015000350D000069
:1001540053B94AB9002908BF00281CBF4FF0FF312A
:100164004FF0FF3000F00CB8ADF1080C6DE904CE8F
:1001740000F008F8DDF804E0DDE9022304B070477C
:10018400704700BF2DE9F04786468C460846089E16
:10019400154674461946002B40F0C1808542B2FAD8
:1001A40082F245D94AB1C2F1200300FA02FC95401B
:1001B40094402EFA03F343EA0C0C4FEA154EA8B20E
:1001C400230CBCFBFEF80EFB18CC08FB00F943EA39
:1001D4000C43994528D9EB1808F1FF3704D2994507
:1001E40002D9A8F102072B44A3EB0903A4B2B3FB81
:1001F400FEFC0EFB1C330CFB00F044EA0344A0425B
:1002040014D92C190CF1FF3304D2A04202D9ACF159
:1002140002032C44241A43EA07401EB1D4400023AD
:1002240034607360BDE8F0874746DDE76346F1E775
:1002340092BB431B01214FEA154EAFB2200CB3FB16
:10024400FEFC0EFB1C330CFB07F840EA0343984505
:1002540061D9EB180CF1FF3004D2984502D9ACF106
:1002640002002B44A3EB0803A4B2B3FBFEFC0EFB79
:100274001C330CFB07F744EA0344A7424DD92C195D
:100284000CF1FF3304D2A74202D9ACF102032C448F
:10029400E41B43EA0040C0E7C2F1200395409440C8
:1002A40020FA03F12EFA03F34FEA154E9040AFB251
:1002B4000343B1FBFEFC0EFB1C10190C0CFB07F8EE
:1002C40041EA0041884522D969180CF1FF3004D273
:1002D400884502D9ACF102002944A1EB08019BB284
:1002E400B1FBFEFC0EFB1C110CFB07F743EA0143B8
:1002F4009F420ED9EB180CF1FF3104D29F4202D970
:10030400ACF102012B44DB1B41EA004193E7604658
:10031400E3E76146F7E76046A4E76346B8E783424C
:1003240006D916B9002108467CE7C6E900E0F9E7DA
:10033400B3FA83F78FB9834201D3724508D8BEEB71
:10034400020460EB030301209C461EB9002169E707
:100354003846FAE7C6E9004CF8E7C7F1200CBB4081
:100364000EFA07F522FA0CF42EFA0CF1BA401C43EB
:1003740020FA0CF3B8404FEA144901431FFA84FEF3
:10038400B3FBF9F809FB18300B0C08FB0EFA43EA2F
:1003940000439A4540D9E31808F1FF3004D29A4546
:1003A40002D9A8F102002344A3EB0A0389B2B3FBE8
:1003B400F9F809FB183308FB0EFE41EA03418E45A8
:1003C4002CD9611808F1FF3304D28E4502D9A8F163
:1003D4000203214443EA0040A1EB0E01A0FB029872
:1003E4004145CE46434602D306D14D4504D2013899
:1003F400B9EB020E68EB0403002EA7D0B5EB0E0296
:1004040061EB030101FA0CFC22FA07F3F9404CEA10
:100414000303C6E9003199E74046C5E74346D9E7F7
:1004240038B54FF0FF324FF0FF331E4802F060FF43
:1004340028221D4D1D4C2B68013393FBF2F102FB66
:1004440011332B602368013B08BF13462360154812
:1004540002F0C8FF2B6822681344282B21D01448CB
:1004640006F092FC2968226812488B1806F08CFC6E
:1004740001F036F80A23B0FBF3F202FB13004FF449
:10048400004500F5C874002140F2E7304FF47A7259
:100494000023E4FB0501FFF75BFEBDE8384003F0F1
:1004A400EBBA38BDB401002008040020000000208D
:1004B400748200008D82000008B5034806F064FCD5
:1004C400FFF7AEFFFCE700BFC082000008B5034899
:1004D40006F05AFCFFF7A4FFFCE700BFD28200003D
:1004E400014B1B68184700BF04000020014B186033
:1004F400704700BF0400002030B585B004460D46A7
:1005040010220021684607F01BFB02238DF80230FD
:10051400044B2A4621466846019306F0EDF905B0DE
:1005240030BD00BFE504000080B505460E46174601
:10053400984603F0BBFA034607F032FB0446DFF8A3
:100544001890424649F8003039463046A84754F8D6
:10055400090000F00BFE00BF080000002DE9F04781
:10056400058B04462807904611D4022905F0070597
:1005740040F0CD80204606F0F4FC78B10138218BA0
:10058400042811D8DFE800F0C3106D859500012917
:100594000CBF45F0100545F02005258388F311882C
:1005A400BFF36F8FBDE8F08701F0070AAA4500F09A
:1005B400A6800027B9463E46A368002B00F0BD8004
:1005C40041F00801218388F31188BFF36F8FA1687C
:1005D400002900F0BB800D68002900F0B780334685
:1005E40052462046D1F80480C047002D76D02B68AF
:1005F40029461D46F0E701F007035A1F012A1BD8BC
:10060400002221F00701062B276889B2C4E90022E1
:1006140009D13B4603E0628B013262831B68002BE5
:10062400F9D141F002012046218306F09AFC00280A
:100634007BD041F0200177E0042B0AD121F007019F
:1006440089B22046218306F08CFC10B141F02001D0
:100654002183218B01F0070AAA4550D00027B9460F
:10066400AAE7236921F0070141F00601062DD3F81A
:10067400009021832DD1B9F1000F40D041F0080141
:10068400218388F31188BFF36F8F20463949C84707
:1006940029E021F00701236941F0040189B2042D06
:1006A400D3F804902183E6D000274FF0040A3E4695
:1006B40082E721F00701236941F0050189B2052D84
:1006C400D3F808902183D6D000274FF0050A3E4680
:1006D40072E700274FF0060A3E466DE72B4687E790
:1006E400B9F1000FD1D14FF02003EFF3118883F358
:1006F4001288BFF36F8F238B23F008032383258B8A
:10070400EA062ED525F01003238305F00705666954
:10071400218B002EBFF66FAF00232768C4E9003396
:1007240021F0070141F001012183218B4FF00009E1
:1007340001F0070AAA457FF43FAF002F9BD041F098
:100744000801218388F31188BFF36F8F002FC7D06E
:100754003D68394633465246204606F02EFC2F4665
:10076400F4E7AB067FF51AAF25F02003238305F0E9
:100774000705FFE6EB6F0000044608B54FF02002C2
:10078400EFF3118382F31288BFF36F8F01F03EFE03
:10079400204600F0A1FC034806F0F6FA00F0A8F9A0
:1007A400FCE700BF0B83000007B50DF1070006F05E
:1007B400E3FE114B98421CD14FF480620F4B104959
:1007C400C3F8B8254FF40062C3F83C259DF8070030
:1007D40006F0C6FE0B499DF8070006F0BCFE01209A
:1007E4009DF80730984001F059FF002003B05DF8F0
:1007F40004FB6FF00B00F9E70000AD0B00A0025002
:100804002CA0025028A10250054B03EB8000D0F825
:10081400003223F0E04343F04053C0F80032704705
:1008240000258450012208B50A4B0B49C3F8002562
:1008340002230020C1F8D036FFF7E6FF1046FFF789
:10084400E3FFC1F80427C1F80429C1F8002B0020F4
:1008540008BD00BF0010005000400050052370B5D3
:10086400144D154E2C780134B4FBF3F303EB8303DE
:10087400E41A06F05AFE114A137823B156F82430CC
:10088400C01A072814D94FF05023D3F8141141B1DA
:100894000021C3F81411D3F814312C700CB90123BE
:1008A40013702C7806F041FE46F82400012070BD38
:1008B4000020FCE7311500200C0400203015002036
:1008C40048B1054B054A1B68B3FBF2F35843044B8C
:1008D40043F00103184770475400002040420F00C2
:1008E400807F000001F0BCBD014803F0FBBA00BFEB
:1008F400887F000038B5044618B90F4B0F485B6871
:1009040098476168B1F5683F10D0B1F5680F0DD014
:100914000B4DA9420AD011F46861206807D0014642
:10092400084806F0DFFF00232360656038BD142209
:1009340007F006F9F9E700BFE8000020388300005B
:100944002C5F5CA92009002008B560B34368B3F5A7
:10095400683F0ED0B3F5680F18D0144A934220D0E4
:1009640000684FF0FF324FF0FF3302F0C1FC58B182
:1009740015E001220368D3E8EF1F002903D1C3E87F
:10098400E02F0028F7D10AD1002008BD0368084AE7
:100994001B7803F5807352F82330002BF4D00548FC
:1009A400F3E70548F1E76FF4E040EEE72C5F5CA95C
:1009B40000000350E98FFFFFEA8FFFFF08B520B363
:1009C4004368B3F5683F09D0B3F5680F13D0114AF3
:1009D40093421DD0006802F005FD14E00022036874
:1009E400D3E8EF1F012903D1C3E8E02F0028F7D192
:1009F40009D0094808BD00210368084A1B7803F59B
:100A0400807342F823100020F4E76FF4E040F1E72C
:100A14000348EFE72C5F5CA9E98FFFFF0000035058
:100A2400EA8FFFFF10B5044618B91D4B1D485B68DB
:100A340098476368B3F5683F2FD0B3F5680F2CD09F
:100A4400194A934219D1236803BB4FF0FF324FF088
:100A5400FF332146154802F083FB08B923681BB90C
:100A64000F4B13485B68984714220021206807F055
:100A740067F84FF46863636008E0B3F5683F0DD826
:100A84003A2B03D040F6BA629342DED1206806F0D6
:100A940069FF636843F03A03636010BD054AF3E7F6
:100AA400E8000020388300002C5F5CA920090020A6
:100AB4005E8300003A00003A08B506494023142238
:100AC400054806F001FFBDE808400449044803F066
:100AD400CDBA00BF2004002020090020907F000030
:100AE400A47F0000014910220A60704710ED00E065
:100AF40072B6404080F31188BFF36F8F01B5FFF7E2
:100B0400ADFE002802D0BFF34F8F30BFBDE80140D7
:100B140062B6BFF36F8F704772B6494081F3118894
:100B240001B5FFF79BFE002802D0BFF34F8F20BF13
:100B3400BDE8014080F3118862B6704740B20028D6
:100B440007DB01234109034A00F01F00834042F8F8
:100B54002130704700E100E040B200280CDB0122A4
:100B64000649430900F01F008240203341F8232046
:100B7400BFF34F8FBFF36F8F704700BF00E100E0FA
:100B8400054B420953F82220012300F01F0003FA09
:100B940000F01040704700BF00E100E040B20028C0
:100BA40001F10101ACBF00F16040064B4FEA411175
:100BB400C9B2ABBF00F5614000F00F0080F800132C
:100BC4001954704714ED00E030BFFFF7FDBF00BFBC
:100BD4000B4A08B50B4B22F07F029A60BFF34F8F8C
:100BE400BFF36F8FD3F8882022F47002C3F88820F3
:100BF40002F0ECF902F0C0FF00F032FA02F030FA31
:100C04000000000000ED00E0094A0A499368096801
:100C14005867996708494B6843F080534B60002339
:100C240083F31188BFF36F8F9368986F704700BF89
:100C3400400A0020CC80000000ED00E016498A68DC
:100C44004FF030001044EFF3098C80E8F01F2020AF
:100C540080F31288BFF36F8F104F4FF000664A691C
:100C64008A603E604FF07004141920680C4C2060B8
:100C7400506F0023536780F3118802F1300090E82D
:100C8400F01F8CF3098802F1000004B506F058FA4D
:100C9400BDE8044070470000400A002004ED00E075
:100CA4003C0900201EF0040F0CBFEFF30880EFF3A3
:100CB4000980816911F8021C0229FFD001B506F0F0
:100CC40030FA01BD42F8203C009B0B4942F81C3C21
:100CD400019B21F0010142F8183C029B42F8081CD8
:100CE40042F8143C4FF0807342F8043C0023203A4D
:100CF40002654367704700BF2D0500000A4B046F6F
:100D040098600A4B1C60036E83F30B88104681F3D2
:100D14000988002163B681F31188BFF36F8F002225
:100D24000023FFF701FC00BF400A00203C0900201B
:100D340001B5EFF30580A0F110004FEAC0000449AB
:100D4400014409C99847BDE8014002490847000029
:100D5400A87C0000B90D0000114B124A2DE9F041A6
:100D6400D518013DB5FBF3F5DFF83C805D430F4B2F
:100D7400074608EB0304013CB4FBF3F403FB0454FF
:100D84000E1B30460A4906F0B4FE70194246002193
:100D9400083E06F0D5FE3E6704F10800BDE8F08188
:100DA4000100000000000000040000000400000036
:100DB400807F0000044B99685869884203D0034936
:100DC4004FF080520A607047400A002004ED00E0B2
:100DD400154B9A6A12F0007F9A6A14BF1E201D20D8
:100DE40012F0807F9A6A18BF1F2012F4801F9A6A3B
:100DF40018BF022012F4002F9A6A18BF212012F49F
:100E0400802F9A6A18BF222012F4003F9A6A18BFF2
:100E1400232012F4803F9A6A18BF24206FEA02420A
:100E24006FEA12429A62704700ED00E010B5194B68
:100E34000246986A9C6A10F4805F14BF172016203B
:100E440014F4006F9C6A18BF1820A40509D5986B88
:100E5400986A000404D51AB19A6A22F400429A628C
:100E640019200C4B9A6A12F4806F9A6A18BF1A20E0
:100E7400D2050CD49B6A13F4005F18BF1C20054AEA
:100E8400936A43F47F43936200230B7010BD1B20CD
:100E9400F5E700BF00ED00E010B51C4B0246986A70
:100EA4009C6A10F0100F14BF1120102014F0080FCA
:100EB4009C6A18BF1220A40709D5586B986A0006CB
:100EC40004D51AB19A6A22F080029A6213200F4B59
:100ED4009A6A12F0010F9A6A18BF142012F0200FB8
:100EE4009A6A18BF1520D40658BF9B6A074B9A6AA2
:100EF400920642BF5A6A22F400525A629A6A42F037
:100F0400FF029A6200230B7010BD00BF00ED00E0E9
:100F1400F0B5474B04465B6800258BB0C3F3080368
:100F240085F31188BFF36F8F02F07F40B0F17F4FDC
:100F340011D102F00C0008280DD010074CBF0C464C
:100F440001250022033B8DF80720032B05D8DFE899
:100F540003F02462665F2C46F3E700239DF8072024
:100F6400CAB902AE04F12007324620686168083429
:100F740003C2BC421646F7D1099A002D53D0C2F3DE
:100F8400080121B96FEA52226FEA422209921846F7
:100F940002A906F0C4F80BB0F0BD254BDA6A91073C
:100FA400DBD4DA6A002AD8DBDA6A5200D5D55A696A
:100FB400A16942F480725A61BFF34F8FBFF36F8F00
:100FC4005A6931F8021C22F480725A61BFF34F8FC0
:100FD400BFF36F8F4DF60272914209D09A6AD2B272
:100FE40042B101200DF10701FFF756FF0346B5E7B3
:100FF4002368B3E79A6A12F47F4F05D001200DF1FC
:101004000701FFF713FFF1E79B6AB3F5803FA4D311
:10101400FFF7DEFEEAE700200DF10701E4E7002018
:101024000DF10701EDE722F4FF7222F00102ADE7B2
:1010340000ED00E0044B5A6942F010025A615A690B
:1010440042F480625A61704700ED00E0EFF30880DB
:10105400EFF3098101B57246FFF75AFF01BD00BFE6
:10106400002320210348C2180133452B82F80013C2
:10107400F9D1704700E100E0002080F31488BFF349
:101084006F8F002080F30A8880F30B88FFF72AFC17
:1010940000200E490860BFF34F8F0D4880F3088885
:1010A40000F03EF8202080F311880A484FF40061D4
:1010B400401880F30988EFF314800221084380F379
:1010C4001488BFF36F8FFFF783FD000094ED00E0F9
:1010D400782A002038190020BFF34F8F0549064BAA
:1010E400CA6802F4E0621343CB60BFF34F8F00BFC2
:1010F400FDE700BF00ED00E00400FA0500231846F8
:101104000649D1F89020C2F30722934200DB7047CE
:10111400C1F89830C1F8A0000133F6E700ED00E013
:1011240010B572B6002484F31388FFF7E7FF234653
:101134004FF0FF300C4A03F120010133102B42F829
:101144002100F8D100234FF0FF30074A03F160017A
:101154000133102B42F82100F8D162B6BFF34F8F50
:10116400BFF36F8F10BD00BF00E100E0084B9B6828
:1011740083420BD1EFF3058343B1064B5A6842F027
:1011840080525A605A6A22F400425A6202F094BCB5
:10119400400A002000ED00E01FB5094C094A23462F
:1011A4000121094800F0EAF800230393074B0121C9
:1011B400E41A01A80193029400F0EAF804B010BD07
:1011C4000000072000000020B47F0000C8010020B8
:1011D40010B50C7A0B6804F01F0223F01F031A43A6
:1011E400CB68640923F01F03054943EA440343F031
:1011F4000103C1F89800C1F89C20C1F8A03010BDCB
:1012040000ED00E02DE9F04F0F46144606464FF07E
:1012140000084E4D85B0B84580F29480D6F804900D
:10122400B9F1000F36D0B9F11F0F40F2898019F0DF
:101234001F0F40F08580D6F800A01AF01F0F7FD151
:10124400504605F081FF834609EB0A00013805F09A
:101254007BFF834574D11BF1160F71D05C456FDDA4
:10126400C5F898B0D5F89C10C5F898B0D5F8A0305A
:1012740021F01F0143F01F0AD6E900321A449942B3
:1012840002F1FF391ED1CA4508D131465FFA8BF00D
:1012940005F063FF08F101080C36BCE73146C5F8D8
:1012A40098B0D5F89C3022F01F0203F01F031343BB
:1012B400C5F89C30E0B205F050FF10F1160F3FD096
:1012C400441CE7E7C5F898B0D5F8A020013B23F00B
:1012D4001F0302F01F021343CA453146E0B2C5F8AA
:1012E400A030E8D005F039FF10F1160F28D0C5F86A
:1012F40098B0D5F89C209DF808300AF1FF3A62F3C3
:1013040004038DF80830D5F8A0309DF808205B0858
:1013140063F347128DF80820D6E900321344009392
:1013240023F01F03411C5344A3EB0903C8B223F069
:101334001F030728039303D86946FFF749FFBFE754
:101344006FF01504204605B0BDE8F08F00ED00E015
:101354000522044BC3F89420BFF34F8FBFF36F8F64
:10136400704700BF00ED00E0BFF35F8F0022024B27
:10137400C3F89420704700BF00ED00E010B5034CA3
:101384002278FFF73FFF207010BD00BF3215002008
:101394002DE9F74F294D8A4606464FF00008AB4623
:1013A400274FD0451BDAD6F80490B9F1000F3FD08F
:1013B40031680846019105F0C7FE0199044609EB1E
:1013C4000100013805F0C0FE84424FF014021D4BA9
:1013D40008D002FB08F36FF015024BF8032003B0AA
:1013E400BDE8F08F14F1160F2C60F8D01978A142E3
:1013F400F5DD02FB08B0C7F89840C7F89840D7F865
:101404009C4000F10801007B64F304000871D7F8E4
:10141400A0000C79400860F347140C71D7F89C10B5
:1014240021F01F016960D7F8A01021F01F01296184
:1014340008F1010814350C36B3E700BF4009002059
:1014440000ED00E03215002038B50E4D2C68082C54
:1014540015D80020FFF788FF0B4B0C4AC3F8C020B7
:10146400844205D10A4B00201C70FFF771FF38BD80
:10147400696801EB0011FFF7ABFE0130F0E74FF0B4
:10148400FF30F4E7C07F000000ED00E0AAFF440055
:101494003215002008B5024B1B689847002008BD90
:1014A40054090020034B044A1860937843F0020364
:1014B40093707047540900202800002008B506499D
:1014C400064821F00701C1F1005202F5E02205F0BF
:1014D400F0FC002008BD00BF8B2A0020782A0020E1
:1014E40007B5042207480DEB020183681B6898477F
:1014F400002802DA06F019F80190019803B05DF8AB
:1015040004FB00BF6C7C0000084B70B5C31A0D4689
:1015140007499B10044659434022064805F05BFEE8
:101524002B4601462046BDE8704018476C09002050
:10153400B76DDBB6307C0000402373B50B4C0093D1
:10154400041B0B460D460A49A41061430646094A8A
:10155400094805F06DFE011E05DA30462B4602B03F
:10156400BDE87040184702B070BD00BF6C09002090
:10157400B76DDBB6A1720000307C00002DE9F843A2
:101584000022012106460520FFF708FB114801F05F
:101594008BF8114B984219D106F0A1F800244FF0B2
:1015A4001C090C27DFF834803569414609FB0450D7
:1015B40005F027FD002807DB012307FB04551C4425
:1015C400042CAB67F0D10020BDE8F8836FF0040071
:1015D400FAE700BF191600000000AD0BE87F000019
:1015E40001460C2300224B4370B50848C4187833D5
:1015F4001844D4E91C56226705F0DAFD2DB13246B1
:101604002B46BDE870400248184770BD6C090020A5
:10161400307C0000062812D8DFE800F0040F111116
:10162400110D0B00064B986F10F0070007D1FFF760
:10163400D7BF0220FBE70320F9E70120F7E7704753
:101644006C09002008B54FF02003EFF3118183F3F8
:101654001288BFF36F8F124A136843F002001060C0
:10166400DA0708D481F31188BFF36F8FBDE808400F
:10167400012006F046B84FF05023D3F80C24D3F8D9
:101684000C34DB07EED5074805F092FD81F3118891
:10169400BFF36F8FBDE808400020FFF7A1BF00BF74
:1016A4000C0A0020E40900201FB500220123CDE923
:1016B40002236B46084ACDF800D0CDF804D005F0DB
:1016C400E6FD002805DB4FF480420023684601F064
:1016D400E9FE05B05DF804FBD772000010B54FF0C9
:1016E4002003EFF3118483F31288BFF36F8F074A4B
:1016F400136823F00201DB07116002D4012006F015
:101704005FF884F31188BFF36F8F10BD0C0A0020BB
:101714002DE9F041012207463749D1E8EF3FC1E8FE
:10172400E02F0028F9D133B9344935484B60CB60F8
:101734008A6005F079FC7B1E012B2BD8012F07D181
:101744004FF05023D3F81C3403F00303022B21D0B1
:1017540006F0EEF80546F8B92A4B1B78E3B14FF0D2
:10176400502302220646C3F808234FF05024DFF822
:101774009880D4F81824D4F81834D20316D503F07A
:101784000303022B01D0012F10D175B386F3118806
:10179400BFF36F8FBDE8F0814FF02003EFF31186A4
:1017A40083F31288BFF36F8F0125DEE7C5B130469E
:1017B400FFF7B2F9D4F81835DBB2012BD9D1D4F83C
:1017C4000421002AD5D00022C4F80421D4F804212D
:1017D4000222C4F818252022C8F88021A360C8E793
:1017E4000021212002F048F9E4E74FF050230222BF
:1017F400C3F80423CEE700BF68090020580900207D
:10180400880900203515002000E100E008B50748EC
:1018140006F035F838B10648FFF744FE0448FEF7F1
:1018240065FE002008BD6FF01200FBE7807C00001D
:10183400391800000A2838B50446074D04D1AB68AE
:101844000D2128465B689847AB6803485B68E1B2A2
:101854009847204638BD00BF807C000030B5406802
:1018640001F01F04057BB2F5001F85B044EA45145E
:1018740005D1204601F01AFA002005B030BD00253C
:10188400B2F5800FCDE9025514D1B3F1007F0CBF3E
:10189400042305238DF8083000232046194602AAA4
:1018A40001F026F8224B98423CD10121204601F058
:1018B400B1F9E1E7B3F1C06F27D0B3F1007F14BFF2
:1018C400012302238DF80830836823FA01F111F013
:1018D4000101E1D1B2F1A07FDED104F01F0362095E
:1018E40003F1800313D0012A1FD1124A52F8233086
:1018F400DB07D1D40DF107052946204601F034F960
:101904000D4B984205D00395C6E70323DAE70B4A4B
:10191400ECE7284601F078F9054B9842F3D06FF0D4
:101924000B00AAE76FF01500A7E751F82330FFDE9C
:101934000000AD0B002884500400AD0B002584503A
:1019440010B501F051F9044668B901F025F9084BC6
:1019540098420AD12146074801F000F922460521A0
:101964000D20FFF71BF9002010BD6FF00400FBE70A
:101974000000AD0B7D1900004209034670B502D08A
:10198400012A17D070BD0D4E326951680029F9D073
:10199400012503F01F030C689D400029F2D08A68DA
:1019A4002A4002D030464B6898472CB12368214620
:1019B4001C46F2E7024EE7E72346F8E7587C0000AE
:1019C400447C00002DE9FF41476801F01F053B7B83
:1019D400144645EA43150E4628460DF1070101F069
:1019E400C3F814F4403F80460DD1284601F084F931
:1019F4003C4B984503D19DF8070001F0FFF8002007
:101A040004B0BDE8F08100232846194602AACDE9B6
:101A1400023300F06DFF334B984214D1804503D15B
:101A24009DF8070001F0EAF8A3034CD540F2063311
:101A34002340B3F5837F1AD00DD8062B18D005D8D0
:101A4400B3B1022B32D06FF01500D9E7B3F5807F24
:101A5400F9D101230CE040F20222934228D0B3F5DD
:101A6400407F27D0B3F5007FEDD1022300E00723A8
:101A74008DF8083084F48033C3F30043E0068DF816
:101A840009304CBF0323C4F3401321038DF80A30FB
:101A940012D501237A68B34093600022284602A934
:101AA40000F0DEFF0F4B9842A9D0CCE70423DFE718
:101AB4000523DDE70323DBE7620341BF01237A68E3
:101AC400B340D360E9E7E3064FF000034CBF0324BF
:101AD400C4F340141A46284602A98DF8084000F0C1
:101AE40007FFDFE70000AD0B10B50B4C204605F0F7
:101AF400C6FE70B12269A1681368204623F400135E
:101B040013600B684FF4C0221521984700EAE07077
:101B140010BD6FF01200FBE7587C0000036803F06F
:101B24001F025B09026004D0012B034818BF002088
:101B340070470248704700BF002884500025845035
:101B44002DE9F04F154681460127DFF8788185B0ED
:101B540000EB8101494503D1002005B0BDE8F08FB9
:101B6400D9F8003003F07F04C3F343267F2C4FEAF7
:101B7400134308BF4FF0FF34192B00F2A080DFE8B5
:101B840003F00D141B1E21281E9E9E9E9E39676A1B
:101B94006D707376797C9E9E7F95989BC5F80C45F5
:101BA400631C77D109F10409D4E7C5F81445601C16
:101BB400F8D04FF0000A77E0C5F80845F0E7C5F81B
:101BC4001045F4E7621CC5F80845EBD04FF0000A55
:101BD40005E0C5F80C45631CE4D04FF0010A03A8E6
:101BE4000394FFF79BFF039B4FF0010B07FA03F3EA
:101BF400C36009E0C5F80845002ED8D1601CD1D0D7
:101C04004FF0000A0626D346D9F8003003A803F49F
:101C14000052002A1CBF4FF0010A4FF0000B019341
:101C24000394FFF77BFF039A019B00EB8200D0F83B
:101C34000022C3F3C114330243EA840343EA0B03CF
:101C440002EA0802134343EA4A03C0F80032A9E750
:101C5400C5F80C45D0E7C5F86445BCE7C5F864454C
:101C6400A5E7C5F86845B6E7C5F868459FE7C5F830
:101C74006C459CE7C5F87045ADE7C5F86045AAE733
:101C8400C5F86045621CD9F800308BD0C3F38033AB
:101C9400002BA2D003A80394FFF740FF4FF0010AE2
:101CA400039B07FA03F38360D346ADE7C5F86445A5
:101CB400E8E7C5F86845E5E7C5F86C45E2E76FF085
:101CC40085004AE7F0F0FCFFF0B54B79012B29D0F1
:101CD400032B24D110278B79032B20D1CE790EB17D
:101CE400012E1CD10A79012A1ED0022A20D0B2B9B1
:101CF40014460B684568B3F5164FD5F800C06ED08E
:101D040033D8B3F5165F6DD01CD8B3F5966F6BD08E
:101D140010D8B3F5967F6AD0B3F5167F6AD06FF00A
:101D240085005BE00027D6E74FF480740E22E0E7DD
:101D34000024FBE7B3F5166F5FD0B3F5965FEED1E1
:101D4400384B3CE0B3F5E14F5AD007D8B3F5615FA7
:101D540058D0B3F5964FE2D1334B30E047F6122515
:101D6400AB42DCD14FF4000329E0B3F5613F4BD023
:101D740013D8B3F5963F4AD009D84DF6C025AB42E7
:101D840047D0B3F5614FCAD14FF46B0317E0B3F5F5
:101D9400E13FC4D14FF0EB7311E0B3F5612F3BD0B9
:101DA40008D8224DAB423AD0B3F5E12FB7D14FF06A
:101DB400E86304E01E4DAB42B1D14FF08053056996
:101DC400CCF8243543683A431B6834432243C3F8B0
:101DD4006C252B1D03C983E803000020F0BD4FF4DC
:101DE4001D03ECE7134BEAE74FF49E23E7E74FF4B8
:101DF400A033E4E74FF41C33E1E74FF41D23DEE79F
:101E04000D4BDCE70D4BDAE74FF06C73D7E70C4B67
:101E1400D5E74FF46503D2E74FF07063CFE74FF097
:101E24008063CCE700B0130000A04E0090D0030004
:101E340040420F000050270000C0750000F03A0037
:101E440000903A012DE9F743804600220121082041
:101E5400FEF7A4FE0820FEF771FE0021D8F80470F6
:101E6400D8F810603C6801AAC4F80015C6F80080D0
:101E7400D7F80C90484605F0A9FA051E4CDB019BE7
:101E8400D9F8002019791868FFF75AFE051E43DBBC
:101E94004046311DFFF718FF054600283CD17B68FA
:101EA400990712D506F1180000F066FC1E4B984203
:101EB40036D1307E04F10C0204F5907105F055FB27
:101EC4000120337E984000F0E9FB0823C4F8003574
:101ED4003B7A53B9C4F81031D4F810317369C4F89B
:101EE40034350123C4F8383523607B689A075CBF16
:101EF4004FF48073C4F804337B68DB0644BF4FF4AB
:101F04008003C4F804333369C4F844350023C4F8A7
:101F140048350123A360E360284603B0BDE8F0839D
:101F24006FF00405F8E700BF0000AD0BF8B50446F8
:101F34000D46076905F0FCFCB0B92E4B1B789BB12C
:101F44006426606805F09CFA00BB012005F001FBE3
:101F5400013EF6D10021212001F08EFDF0E786F349
:101F64001188BFF36F8FF5E74FF02003EFF311866D
:101F740083F31288BFF36F8F6068314605F080FAEF
:101F840090B986F31188BFF36F8FEDE74FF020030C
:101F9400EFF3118683F31288BFF36F8F60683146C5
:101FA40005F06EFA0028DAD03B691D706268386962
:101FB4001368C3F844050120C3F848050020C3F89A
:101FC4002001D3F82051C3F858015268D3F85801BE
:101FD400D20608D5082062681268C2F800054FF4DA
:101FE4008002C3F8042301229A6081F31188BFF3AD
:101FF4006F8FF8BD351500200123834070B5DC4395
:102004000B4AD2E8EF1F01EA0405C2E8E65F002E9E
:10201400F7D14FF4803282400648C0F80823BFF35A
:102024005F8FBFF36F8F0B4214BF0120002070BD80
:102034002C0A00200050015070B40E4922F07F4653
:10204400D1E90034D01AC31844F10004C1E90034C2
:10205400A6F50013B3F5400F09D2074B1B681A0A03
:102064001B069C19054B42F10005C3E9004570BCF1
:1020740001F058BED8020020300A0020E0020020FF
:10208400D9B101230D4A8340D2E8EFCF4CEA030CC7
:10209400C2E8E1CF0029F7D14FF48033084A8340E6
:1020A400C2F80433074BD3E8AF3FC340DB0742BF5A
:1020B4004FF40012044BC3F8002170472C0A00208F
:1020C40000500150280A002000E100E00D4B186880
:1020D400010A0006BFF35F8F0B4BD3F804351818C1
:1020E40041F10001B3F5801F0AD2084BD3E9002364
:1020F400904271EB030303D210F1807041F10001AF
:10210400704700BF300A002000500150E002002058
:102114002DE9F04F85B016461F4604469DF840A0B1
:10212400FFF76AFF0190FFF7D1FFB04271EB07039D
:1021340052D23B4B301A67EB0101984271F1000116
:102144004DD2384B03EB0413D3E902239F4208BF5B
:10215400964258D04FF48038334908FA04F82046A0
:1021640026F07F4BC1F8488305F0D3F94FF00309FB
:10217400584604F15005AD00ADB205F1502504F503
:10218400A87305F580350293029A20F07F4341F845
:102194002230C1F84483D1F80435244AC01A0338E4
:1021A40020F07F4090422ED9286868B1D1F80435D8
:1021B400A3EB0B0020F07F40B0F5000F039322D96E
:1021C400204605F0A6F9039BBAF1000F07D109EBED
:1021D400030009F10109D7E7BAF1000F09D06FF044
:1021E400150520460199FFF74BFF284605B0BDE8C9
:1021F400F08F01230E4AA340D2E8EF0F1843C2E840
:10220400E10F0029F8D107490E982301C8500F9B0C
:1022140001EB04120025C2E902675360E1E700BF45
:1022240001008000C802002000500150FDFF7F0023
:10223400280A00207FB500254FF0FF304FF0FF3112
:10224400194C1A4B0226C4F80833C4F84833184B07
:10225400C4F80855C3E902014FF480334FF4001267
:10226400C4F80433134B0121C4F804631520C3F8E4
:1022740080212A46FEF792FC1520FEF75FFC01231D
:102284000D4AA360236013600C4B0D4A009328464B
:102294000023CDE90155FFF73BFF3046FFF738FA3D
:1022A400284604B070BD00BF0050015003000F0069
:1022B400C802002000E100E02C0A00203D200000BC
:1022C400FFFF7F002DE9F7432E4BD3F8042390073B
:1022D4000BD5D3F8042142B10022C3F804212A4AC1
:1022E400D3F80431136801331360264AD2F8043357
:1022F400D90327D5254BD3E8EF1F21F00100C3E80C
:10230400E40F002CF7D1CB0702D4D2F84031CBB183
:1023140000251C4CC4F84051D4F84031FFF7D6FED8
:102324004FF02003EFF3118283F31288BFF36F8F12
:10233400174BD3E90267B042B94106D282F3118840
:10234400BFF36F8F03B0BDE8F0834FF0FF38D3E9DC
:1023540000104FF0FF391D60C3E902894FF4803348
:10236400C4F84833C4F84051D4F8403182F311889A
:10237400BFF36F8F0029E5D0009032463B462846D4
:102384008847DFE700500150300A0020280A002067
:10239400C80200201FB5431C22D0012822DD124AA6
:1023A400124B9042D4BF04461C46FFF78FFE104BDD
:1023B4000E49D3E90023801AB0F5000F28BF00248A
:1023C40004448C4228BF0C4600200A49A218CDE9D7
:1023D4000100009143F10003FFF79AFE04B010BD21
:1023E400024CE2E70124E0E7FEFF7F00FFFF7F00ED
:1023F400D80200203D20000008B5FFF767FE024B1D
:102404001B68C01A08BD00BFD8020020012310B504
:10241400074C15206360FEF79FFB4FF40012054B39
:10242400C4F80833C4F84833034BC3F8802110BD03
:102434000050015003000F0000E100E04FF47F035F
:10244400D3F83021D3F83431072A05D1023B032BCA
:1024540002D8024AD05C7047002070471C840000F8
:1024640008B5FFF7EBFF58B1644BD3F8202A3AB90B
:102474000D21C3F8201A0121C3F81C19C3F81C2923
:102484000022D30003F57F03D3F80013013107D0F2
:10249400D3F800130132D3F80433202A0B60F0D1AF
:1024A400FFF7CCFF002840F0A080FFF7C7FF40B142
:1024B400534B544AC3F830254FF050230122C3F83C
:1024C40058254FF47F03D3F83021D3F83431072A49
:1024D40009D1023B032B06D84B4AD35C1BB1002223
:1024E4004A4BC3F84C25FFF7A9FF50B14FF05023D6
:1024F400D3F80024D10742BF0022C3F81421C3F843
:1025040018214FF47F03D3F83021D3F83431072A4C
:1025140009D14FF05023D3F80024D20744BF6FF001
:102524000102C3F80024FFF789FF18B16522334B79
:10253400C3F80C274FF47F03D3F83021D3F8343198
:10254400072A16D1314BD3F82034002B11DA4FF07F
:1025540050230322C3F8182501229A60D3F80421DA
:10256400002AFBD00022C3F804210122DA60C3F858
:1025740018254FF47F03D3F83021D3F83431072AD8
:1025840023D1023B032B02D8214AD35CEBB17E2238
:102594001A4B1B49C3F80C27C3F83C297F231D4A57
:1025A400C2F818310023C1F8043EC1F8083E01F511
:1025B4004821C1F81031C2F82431C2F82C3102F597
:1025C400FF1202F58052C2F8A032134AD2F88C30BE
:1025D40043F44063C2F88C30104A114B1168C3F8BD
:1025E4004415D269C3F84C2508BD2922034BC3F80E
:1025F4000C270322C3F83C2757E700BF00400050D4
:10260400009003504400EFBE1884000000200350E3
:10261400148400000020005000ED00E00080FF0062
:102624000060005030B50468ACB1B4FA84F3012200
:10263400C3F11F03DBB29A4024EA0202D0E8EF5F41
:10264400A54204D1C0E8EC2FBCF1000FF6D1EAD1C9
:1026540002480B7030BD0248FCE700BF0000AD0B20
:102664000200AD0B10B50368CB40DB0710D4012387
:102674008B40026843EA0201D0E8EF4F944204D150
:10268400C0E8EC1FBCF1000FF6D1F2D1014810BD37
:102694000148FCE70000AD0B0400AD0B014BC3F88F
:1026A4000405704700700150044B1A7922B90122C5
:1026B40018601A710248704702487047340A0020B3
:1026C4000000AD0B0C00AD0B4FF0502310B5D3F848
:1026D400002152B10020C3F80001D3F800210122E7
:1026E400C3F80823234B1B6898474FF05023D3F8B3
:1026F400042182B10022C3F80421D3F80421D3F8C1
:102704001824D3F81824022102F00302012A28D144
:10271400C3F818159A604FF05023D3F8202162B102
:102724000022C3F82021D3F820214FF48072C3F88B
:102734000823104B05201B6898474FF05023D3F80B
:102744002421AAB10022C3F82421D3F824214FF470
:102754000072C3F80823074B0620BDE810401B682D
:102764001847C3F80813034B01201B689847D2E7A6
:1027740010BD00BF340A002001460148FFF752BFD4
:1027840058000020036803F01F025B09026004D0B4
:10279400012B034818BF002070470248704700BF50
:1027A4000028845000258450034A4309D35C00F078
:1027B4001F001844C0B270473584000008B5FFF705
:1027C400F3FF034B083033F81000C0F3401008BD8A
:1027D4005C00002008B5FFF7E7FF034B083033F82F
:1027E4001000C0F3400008BD5C00002008B5FFF7EE
:1027F400DBFF034B083033F81000400B08BD00BF6B
:102804005C00002070B50546FFF7CEFF0C4C083085
:1028140034F810300E46DA0508D5C3F3432304EB2D
:10282400C302284654F8333052689847A3682BB142
:1028340031462846E268BDE87040184770BD00BFC5
:102844005C00002010B5FFF7AFFF124A083032F8E1
:102854001030D9051CD5C3F3432123F4F85322F8CF
:102864001030002002F10E0434F8023F13F4807F8C
:1028740003D0C3F3432399420AD001303028F3D163
:10288400002342F831300448BDE81040FFF7EABEA7
:1028940010BD00BF5C000020D000002001460020D5
:1028A400F0B5012506460F4A0F4C02F13043A3F55B
:1028B40051439B0805FA03F3194204D0176817B172
:1028C4001660176818430432A242EED1074BD3F8BE
:1028D4007C2132B10022C3F87C21D3F87C3140F052
:1028E4000040F0BD00D1005020D1005000D0005075
:1028F4002DE9FF41054690461E46FFF755FF044665
:1029040009B32846FFF766FF18B12846FFF756FFBC
:1029140028BB00230DF10F02CDE900338DF80E30F2
:102924008DF80F3028460B460DF10E0104F04AFFD6
:10293400474A04F1080132F8113023F0020343F04E
:10294400010322F81130B8F1000F32D0284698F86C
:102954000070D8F80410FFF73DFF10B1F1B13D4805
:1029640029E03B4804F1080C30F81C3023F0200324
:10297400DB04DB0C20F81C3081B1032FEFD8D8F82E
:10298400042092F800E07246920002F1A04202F59F
:1029940050429FB9C2F81075C2F810752C4A04F160
:1029A400080132F8113023F01C0343EA870322F8AC
:1029B40011301EBB284804B0BDE8F081D2F81015D0
:1029C40043EA4E3321F00301C2F81015D2F8101572
:1029D40043F0200321F44F3121F44071C2F8101563
:1029E400D2F81085290201F47C5141EA080141EA38
:1029F4000741C2F8101520F81C30CFE72846D6E965
:102A04000076FFF71FFF002FD4D0114DD5E9002326
:102A1400974201D19E4218D010480DF10F01FFF7E3
:102A240001FE0D4B9842C6D19DF80F2005EBC20361
:102A340008345E6035F8143045F8327043EA4223B6
:102A440043F4807325F81430B4E70022EEE700BFA6
:102A54005C0000200400AD0B0000AD0BD000002092
:102A64002DE9FF4104461646FFF79EFE054631B3A5
:102A74002046FFF7AFFE20B92046FFF79FFE00284F
:102A840063D1334F05F1080837F8183013F01C0FE1
:102A940002D04B78012B58D001238DF80F3000233E
:102AA4004A1CCDE9001320468B1C0DF10F0104F0E4
:102AB40089FE37F8183043F0030327F818301EB99D
:102AC400244804B0BDE8F0812046FFF783FE0028C7
:102AD4003BD096F800C0002361461D4F05F1080065
:102AE40037F81050890025F0200501F1A041ED04CC
:102AF40001F55041ED0CC1F8103527F81050C1F81C
:102B040010357278002ADBD0D1F81035B67823F46A
:102B1400991323F4F853C1F8103512042302D1F8A1
:102B240010E502F4403203F47C531343320543EAC4
:102B34000E0302F4801245EA4C35134345F0200598
:102B4400C1F8103527F81050BAE70348B9E700BFB9
:102B54005C0000200000AD0B0400AD0B014BC3E989
:102B6400020170475C00002010B50446FFF726FE02
:102B740050B12046FFF718FE044B083033F81030EC
:102B840003485B0B0B7010BD0248FCE75C0000209F
:102B94000000AD0B0400AD0B70B50F4C94F87860D9
:102BA400BEB90E4D6022314604F1100004F0C8FF96
:102BB4000D20C5F87C61D5F87C31FDF7BFFF4FF0DF
:102BC4000043C5F804330123054884F8783063676B
:102BD40070BD0448FCE700BF5C00002000D000503A
:102BE4000000AD0B0500AD0B034B93F878000038E3
:102BF40018BF0120704700BF5C0000200146014857
:102C0400FFF730BDCC00002001460148FFF70ABDA4
:102C1400CC00002037B50446FFF7D0FD08B32046AA
:102C2400FFF7D8FD0546E0B92046FFF7DFFD03B204
:102C34009B0003F1A04202F5514203F1A043156049
:102C440003F550431268D3F8102542F00102C3F88B
:102C5400102521B10123134A8340C2F8043303B081
:102C640030BD2046FFF7A0FD0F4B083033F810307D
:102C7400C3F38203042B11D0052B11D001A80194B6
:102C8400FFF780FD019B0169D94001F00101023188
:102C9400204603B0BDE8304004F0DDBD0321F7E772
:102CA4000221F5E700D000505C00002010B5044676
:102CB400FFF784FDC0B12046FFF78CFDA0B9204684
:102CC400FFF794FD01230B4A8340C2F8083303B293
:102CD4009B0003F1A04303F55043D3F8102522F0E1
:102CE4000302C3F8102510BD2046BDE810400021A2
:102CF40004F0B1BD00D0005073B50446FFF754FD95
:102D04001A4E00F1080536F81530DB072CD520469D
:102D1400FFF7CCFF2046FFF751FD68B12046FFF7CF
:102D240065FD002203B29B0003F1A04303F5504369
:102D3400C3F81025C3F810252046FFF783FD0023B0
:102D440001A826F815300194FFF71CFD019B00EB48
:102D54008300D0F80022064B134043F00203C0F86E
:102D64000032044802B070BD0348FBE75C00002059
:102D7400F0F0FCFF0000AD0B0400AD0B2DE9F04FAB
:102D8400604B87B0D3F80403C0B240F00040FFF7B3
:102D940085FD051E80F29980DFF86C91D9F820300A
:102DA4000493C9F82030594B1A6A05921A624FF0FD
:102DB400000A0DF11008564B0AEB030B4CE093FA92
:102DC400A3F3B3FA83F39BF80040019343EA44145A
:102DD4002046FFF7E9FC4F4B083033F81070012010
:102DE400019B0394DA0803F00703984018F80230B3
:102DF400B90823EA000308F8023003A8FFF7C2FC6D
:102E0400039BC7F38206803350F823304A073746C2
:102E1400C3F301432CD520463946DEB2FFF7F2FC5A
:102E240003A80394FFF7AEFC039B803350F82330D0
:102E3400C3F301439E4207D10021204604F00BFD59
:102E44003146204604F007FD03A80394FFF79AFCDB
:102E54000123039A93400362D8F80030002BAED1CB
:102E640008F10408BAF1000F1DD14FF0010AA2E7DE
:102E7400022B0CD10321204604F0EDFC06F00503DF
:102E8400012BE1D139462046FFF7BCFCDCE70221E7
:102E94002046019304F0DFFC032EF3D0019B032BA7
:102EA400D2D1022EEDE74FF00040FFF7F7FCD9F83E
:102EB400203016490493C9F820300A6A1343059256
:102EC4000A627FF474AF25F00045012415B907B0F8
:102ED400BDE8F08F95FAA5F3B3FA83F304FA03F28D
:102EE4009B0003F1A04303F55043D3F81005D3F836
:102EF4001015C0F30520C1F3014125EA0205FFF7CF
:102F040081FCE3E700D00050002584500028845061
:102F1400458400005C00002038B503464FF02002D1
:102F2400EFF3118582F31288BFF36F8F04F038FE3C
:102F3400064A1458184604F0FCFA85F31188BFF3C6
:102F44006F8F2046BDE83840FEF710B90800000036
:102F5400104B70B553F82040013053F82060A6425E
:102F640000D870BDD4E9003595B153B128469847CF
:102F740038B10028B8BF4042FF28A8BFFF20EB6843
:102F84001870EA68537843F0010353700834E6E795
:102F94009847FBE7D0800000012208B5094B0320C5
:102FA4001A70FFF7D5FF00F041FF0420FFF7D0FFB0
:102FB40000F042F904F099FD034A137B23F0010366
:102FC400137308BD351500206803002008B50348B5
:102FD400034A0021121A04F05DFC08BDC801002058
:102FE400381500200023012270B586B0CDE90423F2
:102FF4000F220193CDE9023214234FF4A072044648
:10300400114D124E03FB0055114906EBC01602FB8D
:103014000011104B3046009500F0D0F8737B2C74EF
:1030240023F0040373730C4B013403EBC4236B6070
:103034000A4BEE60D3E8EF1F0131C3E8E21F002A18
:10304400F8D106B070BD00BF400A0020E80200209D
:103054003821002041790000381900203C0A002062
:1030640080B50020A6B0FFF773FF2D4B03F5006277
:1030740082F3088883F30A880024E023294D2A4E2A
:1030840085F82230EC772C766C76AC7685F8204087
:103094006B6A264F43F4E0236B6285F82340FDF707
:1030A400C9FFFDF71FFD4FF0FF33AB62EB62FEF784
:1030B400CBF9FEF771F840F20113ADF8243006ABFA
:1030C400B360CDE91E44219404F0D8FB0120FFF73E
:1030D4003FFF0220164DFFF73BFF00F043FC154B6A
:1030E40075610593012314494FF40062CDE903434C
:1030F40028463B46CDE90144009400F05FF80646BB
:103104006A7B284622F004026A7304F06CFC2046B1
:10311400FFF768FF3A4631462846FDF7EFFD00BF4A
:103124003819002000ED00E0400A00209D2F000027
:10313400680300205384000078220020002038B562
:10314400054C064DAC4200D338BD204604F0A6FB26
:103154000028F9DB1C34F5E7640100206401002039
:1031640073B50C464FF02005EFF3118185F31288F7
:10317400BFF36F8F45695DB125602B684361836937
:1031840001338361002081F31188BFF36F8F11E055
:1031940052EA030603D16FF00B002560F3E7CDE993
:1031A40000230246083000F0E7FA18B9024B9B6886
:1031B4005B69236002B070BD400A00202DE9F04332
:1031C400984685B000F15803C0E91633109B0026D9
:1031D40003730423073222F0070543730F9B01EBAB
:1031E40005090F4683734946C0E906668660C673BF
:1031F4000446FDF7B1FD0E9B073020F00700A066E2
:10320400C4E9187502930D9BA9EB000901930C9B6B
:103214004A460093394643462046FDF753FD054B85
:1032240066659B6803B1DB6E4846E36605B0BDE89E
:10323400F08300BF400A00202DE9F043294C2A4DB9
:1032440087B02646AE4204F12C040FD300F05AFB9B
:103254004FF4004640F2E737224CDFF89090AC423E
:1032640020D307B0BDE8F04300F060BB54F8043C41
:10327400059354F80C3C049354F8103C039354F80D
:10328400143C029354F8183C019354F81C3C0093EA
:1032940054E9092354E90B01FFF790FF54F82C3C3F
:1032A4005E65CEE7636A5A1C0DD00021384623EAD6
:1032B400E373C3FB060151EAC333D4F8008004D19D
:1032C400404600F0CFFA2C34C9E74FF47A72002359
:1032D400FCF73EFF02460B4608F11800494600F091
:1032E400ABFCF0E7D07E0000287F00004F7A00009E
:1032F4002DE9F341044617461E464FF02003EFF331
:10330400118883F31288BFF36F8FC368334A7BB18C
:1033140080689168884219D057EA060318D188F367
:103324001188BFF36F8F6FF00F0002B0BDE8F0811A
:10333400916891F90E100133E36093682161A360F1
:1033440088F31188BFF36F8F0020EEE72169F2E75D
:1033540091F90E1090F90E306FF07E029942A8BFD9
:1033640019469142B8BF11468B422EDD04F0F2FAA1
:10337400054622464146CDE90076194800F0FCF99D
:103384000028E1D04FF02003EFF3118683F3128875
:10339400BFF36F8FA068D0B1236821699C420AD023
:1033A4004BB193F90E309942A8BF19466FF07E03D2
:1033B4009942B8BF194604F0CDFA40B131460848E5
:1033C40000F03EFA6FF00A00AFE70025D1E7002DC8
:1033D400F4D186F31188BFF36F8FF3E7400A00201E
:1033E4003615002038B5836804466BB3194A9268D1
:1033F40093422CD1C368012B03D9013BC360002045
:1034040038BD4FF02003EFF3118583F31288BFF327
:103414006F8F0169806804F09DFA204604F019FB5F
:10342400A06058B190F90E2022610022826704F056
:10343400DAFA2946084800F003FAE0E7E06085F389
:103444001188BFF36F8FDAE76FF01500D8E74FF0FC
:10345400FF30D5E7400A00203615002038B5044671
:103464004FF02003EFF3118583F31288BFF36F8FBE
:1034740004F0EFFA48B10022826704F0B4FA294656
:10348400BDE83840064800F0DBB9D4E902329A427C
:1034940018BF0133A36085F31188BFF36F8F38BD64
:1034A4003615002013B54FF02004EFF3118184F397
:1034B4001288BFF36F8F846844B1013C846081F348
:1034C4001188BFF36F8F002002B010BD52EA0304CD
:1034D40006D181F31188BFF36F8F6FF00F00F3E70C
:1034E400CDE900230246024800F046F9ECE700BFAC
:1034F40036150020C3897F2B12D80A4B1B6863B191
:10350400094B90F90E201B689A4209DB437BDB06CA
:1035140006D1064BC31A18BF012303F001007047FC
:103524000023FAE7DC000020D8000020E802002095
:103534000122044BC01A044BC0105843034B1A54C5
:10354400704700BFE8030020ABAAAAAA36150020E2
:1035540070B50E4B0E4C1E7C054606EB460304EB81
:10356400C304204604F0A7FA00220A4B28469A55C1
:10357400FFF7C0FF48B1084B2046BDE870401A6809
:103584000649013AD31700F057BB70BD400A00202A
:10359400E803002036150020DC000020353500004B
:1035A40038B50D4D2B4653F8184F9C4200D004B942
:1035B400EC68AB6838B95A7BD20604D1A26912B957
:1035C400DA897F2A05D89C4202D02046FFF7C0FF43
:1035D40023466B6138BD00BF400A002070B590F9E6
:1035E4000D200146002A437B04DA03F07F03437372
:1035F40004F0BFF9154A4B7B104663F07F034B730D
:1036040050F8183FD469834208BF002323B9C1E9A5
:1036140000042160D1610CE091F90E5093F90E6021
:10362400B5420ED0AE420CDD5868C1E900300160ED
:1036340059609068BDE87040431A58425841FFF7FA
:10364400AFBF9C42E3D01B68E0E700BF400A002004
:1036540070B490F90D30427B002B29DBD30627D1BF
:1036640083692BBB134962F07F0242730A4652F806
:10367400184F944218BF2346CC6923B9C0E90024EB
:103684002060C8610CE090F90E5093F90E60B542C9
:103694000AD0AE4208DD5A68C0E9003210605860B2
:1036A400002070BCFFF77CBFA342E7D01B68E4E7AF
:1036B40070BC7047400A002008B590F90D200146FF
:1036C400002A437B04DA03F07F03437304F051F9C7
:1036D400044B9868431A58425841BDE80840FFF724
:1036E4005FBF00BF400A002070B515461C46064661
:1036F40004F051F9B4F1FF3F08BFB5F1FF3F08D022
:103704002A46234606F118000249BDE8704000F03D
:1037140093BA70BD4F7A000038B54FF02003EFF331
:10372400118583F31288BFF36F8F104B104A9C6886
:103734001068A04206D1FFF70BFF85F31188BFF391
:103744006F8F38BD00211B7C11600A4AD35C002BAB
:10375400F3D02046FFF7CEFE0028EED0637BDB06D5
:1037640002D12046FFF73AFF2046E4E7400A002052
:10377400600A00203615002070B50C480C4D866890
:103784000C462E601146DDE904234FF02006EFF3CA
:10379400118586F31288BFF36F8F8068FFF7A4FF4B
:1037A4002046BDE87040FDF72FBA00BF400A002054
:1037B400600A0020F8B504464FF02003EFF31186A9
:1037C40083F31288BFF36F8F437B49B2DA0619D1B2
:1037D4008569BDB903F07F03437304F0CAF8437BE2
:1037E400164A63F07F0343731346817353F8180F2B
:1037F400984218BF0546D0695DB9C4E90030046039
:10380400D46111E00020A17386F31188BFF36F8F98
:10381400F8BD95F90E70B9420BD08F4209DD6B6883
:10382400C4E900531C606C600120FFF7B9FE01205D
:10383400EAE7A842E1D02D68DEE700BF400A002095
:1038440049B9EFF3058030B9054B5A699B689A4230
:1038540001D0FDF7D9B981F31188BFF36F8F704799
:10386400400A002010B54FF02002EFF3118482F3D8
:103874001288BFF36F8F427B510704D484F31188FD
:10388400BFF36F8F10BD22F004024273FFF7E0FE16
:103894002146BDE810400148FFF7D2BF371500208C
:1038A40070B50446183004F006F94FF02003EFF326
:1038B400118683F31288BFF36F8F94F90D20637B15
:1038C400002A05DA03F07F032046637304F051F8FD
:1038D4000B4D637BA86843F010036373031B5842CA
:1038E4005841FFF75DFE86F31188BFF36F8FAB6815
:1038F400A34203D1BDE8704004F0D3B870BD00BF4B
:10390400400A00204FF02003EFF3118183F3128863
:10391400BFF36F8F044B9A68D37B013BD37381F35E
:103924001188BFF36F8F7047400A002010B54FF025
:103934002003EFF3118483F31288BFF36F8F084BD6
:1039440000209A68D37B0133D373FFF729FE84F3F5
:103954001188BFF36F8FBDE8104004F0A2B800BF18
:10396400400A0020024B03F11802C3E90622704703
:10397400400A0020F8B54FF02003EFF3118583F3DC
:103984001288BFF36F8F19498868437B03F07F0364
:10399400437303F0EEFF08468B685A7B62F07F02A4
:1039A4005A7350F8182FCC69824208BF002222B9FA
:1039B400C3E900042360CB610CE093F90E6092F933
:1039C4000E70BE420ED0B7420CDD5168C3E900212F
:1039D4000B6053600120FFF7E3FD2846BDE8F84083
:1039E400FDF712B9A242E3D01268E0E7400A0020D2
:1039F40050EA01032DE9F04105460E4603D1FFF7D5
:103A0400B9FF00202CE0831C71F1FF332ADB04F0A2
:103A140068F82C184FF02003EFF3118883F3128811
:103A2400BFF36F8F114F124BB8681860FFF744FE55
:103A3400B86810492A463346183000F0FDF8BA68D1
:103A44004046537B43F010035373FDF7DDF804F055
:103A540048F8201A63EB0303012873F10003D0DB59
:103A6400BDE8F0816FF00104241AD3E7400A002076
:103A7400600A00204F7A0000B1F1FF3F08BFB0F1A7
:103A8400FF3F08B506D1084B9868FFF709FF4FF0D0
:103A9400FF3008BDFFF7ACFF4FF47A7380FB0303DC
:103AA400C00B40EA4340F4E7400A0020014B986809
:103AB400704700BF400A00202DE9F04104464FF052
:103AC4002003EFF3118683F31288BFF36F8F037B18
:103AD400D9070BD586F31188BFF36F8F404080F36D
:103AE40011884FF0040002DFBDE8F081437B1A0720
:103AF40004D586F31188BFF36F8FF5E723F0200216
:103B040042F00801D20920D14173A36813B12046C1
:103B140003F037FF04F1180003F0CDFF4FF0000865
:103B240004F15807A56DBD4200D0B5B90120FFF7D7
:103B340037FD104B9B68A342DBD1EFF30583002BC9
:103B4400D7D13046FDF760F8D3E703F05F0343F0C5
:103B54000803437303F00DFFD7E7284603F011FF72
:103B640005F1180003F0A7FF2846C5F87880FFF791
:103B74006FFDD7E7400A002008B50648064A074902
:103B8400121A03F089FEBDE80840054A05490648B3
:103B940003F082BE00000020C801002098840000C9
:103BA400000000009884000000000020034B1B6804
:103BB4000BB9FEF721BC0020704700BF640A002047
:103BC40010B50E4B1C689C4204D1FFF7EFFF6FF059
:103BD400004010BDFFF7EAFF002CF8D0D4E904320E
:103BE4001B1A62EBE072B3F1004F72F10001EEDADE
:103BF400002AACBF18460020EBE700BFE00000201D
:103C040030B570B10B4B5B6898420AD0036843B17E
:103C1400D3E90421D0E90445121941EB0501C3E9B4
:103C24000421D0E9003213605A600023C0E9003354
:103C340030BD00BFE0000020B3F1FF3F08BFB2F188
:103C4400FF3FF8B504461D4616465CD081604FF030
:103C54002003EFF3118783F31288BFF36F8F0132D0
:103C640075F1FF3324DA6FF001032C49D1E9002008
:103C74009B1A4FF0FF3262EB00009E1B60EB0500C5
:103C8400012E70F1000301DA01260020C4E904606A
:103C9400234ED6F800C07568B44508BF4FF0000C39
:103CA400BCF1000F0DD1C4E900652C6074601CE008
:103CB400FFF77CFF013645F10005361845EBE0704F
:103CC400E4E7DCE90420D4E90431934271EB000E0B
:103CD4001ADAD21ADCF8043060EB0100CCE90420D3
:103CE400C4E900C31C60CCF804403368B34206D076
:103CF4009C4204D1FFF764FF0021FEF74BFB87F3DE
:103D04001188BFF36F8FF8BD9B1A61EB0001AC45BE
:103D1400C4E90431C7D0DCF800C0C1E700040020C6
:103D2400E00000202DE9F84F4FF02003EFF3118C51
:103D340083F31288BFF36F8FDFF8B0A0DFF8B09081
:103D44000024C9F80000DAF800000025504508BF37
:103D54000020284FE046D7E90021D9F8003080B38D
:103D6400D0E9046C4FEAE37EB3427EEB0C0B05DA38
:103D7400F61A6CEB0E04C0E9046422E0B21841EBBD
:103D8400E671C0E90445C7E90021FFF739FF88F36C
:103D94001188BFF36F8F836898474FF02003EFF3C8
:103DA400118883F31288BFF36F8FD9F80030DAF8E3
:103DB40000009B1B5045C446C9F80030CAD1D7E95E
:103DC400002100249A1841EBE373C7E90023C9F8E2
:103DD4000040FFF7F5FE2146FEF7DCFA88F3118870
:103DE400BFF36F8FBDE8F84FFFF796BCE0000020EB
:103DF400640A00200004002010B54FF02003EFF304
:103E0400118483F31288BFF36F8FFFF7CFFE03464D
:103E1400054AD2E90001181841EBE37184F31188D3
:103E2400BFF36F8F10BD00BF00040020014802F0F3
:103E3400ABBF00BF5B84000010B50C4C236813B10A
:103E44000B4B1B682BB900F05FFE30B90122084B05
:103E54001A6001232360002010BD0138072801D90E
:103E6400044810BD044B53F8200010BD6C0A002018
:103E7400680A0020FE8FFFFFE8800000BFF34F8F29
:103E84000549064BCA6802F4E0621343CB60BFF3F2
:103E94004F8F00BFFDE700BF00ED00E00400FA050E
:103EA40030B44FF0FE3200250B4B0C4C0C494968E2
:103EB400C3F80024C3F80424C3F80824C3F80C246A
:103EC400C3F81024C3F81424C3F81824C3F81C241A
:103ED400C4F8005530BC084700508450004084505A
:103EE400E8000020024BD0E90012C3E90012704739
:103EF400E8000020144B2DE9F043002814BF0446C9
:103F04001C46124F236883B0BB4219D016460D4697
:103F140020464FF4E07104F1040900F0EDF804F5D3
:103F24008E78484600F0D0FC404600F0F3FA2B4669
:103F34004A4640460649009600F002FB08B927604D
:103F4400002003B0BDE8F083700A0020A5BCC95A64
:103F54005149000070B50D4C1D46002814BF06469B
:103F640026460B4B306882B098420DD106F58E7010
:103F7400002633460096144600F032FB002818BF92
:103F840034462C6002B070BD0248FBE7700A002082
:103F9400A5BCC95AE88FFFFF10B5044650B1636849
:103FA40013F0685F05D0064A934202D00023626092
:103FB400236010BD034B04485B689847EFE700BFDC
:103FC4002C5F5CA9E800002008810000C8B14368A8
:103FD4000D4A934213D013F0685F0ED0012350E8CA
:103FE400002F194640E8001C9CF0000FF7D1012A6D
:103FF400F5D0BFF35F8F0020704704487047044832
:1040040070476FF4E04070472C5F5CA9E98FFFFFB5
:10401400EA8FFFFF034680B1426809498A420AD009
:1040240012F0685F05D0BFF35F8F002210461A605C
:10403400704704487047044870476FF4E040704785
:104044002C5F5CA9E98FFFFFEA8FFFFF10B50446E0
:1040540020B10023034A2360626010BD0248FFF7C9
:104064001FFFF6E73A00003A3081000070B5194CA2
:10407400D0F804C00668C4F804C0D0F808C0C0680A
:10408400C4F808C0E06026600868134B134D18603C
:104094004868D5F818215860886812F0685F9860FD
:1040A400C8680969D860196112D000230C4A05F563
:1040B4008A70C5F81431C5F8B831C5F81821C5F8A7
:1040C400BC21B047236805F5DC70BDE87040184793
:1040D40070BD00BF04010020F0000020700A002021
:1040E4002C5F5CA938B131B1002201440346013090
:1040F40081421A70FAD1704738B131B100220144BB
:104104000346013088421A70FAD170472DE9F04F06
:10411400B2F5C07FBDB000F2DA800C46DFF8B4918E
:10412400154600214FF4D07282460DF17C084846B2
:1041340003F006FD404601F059F9302321460024DE
:1041440009F118062A4689F8173030466BBAA9F8DF
:104154001230A9F8104003F0CCFC8022234672559B
:104164000DF12B0101F8013F0133202BFAD14FF45B
:10417400807240460BA901F04FF98346002840F0B5
:10418400A38005F1190313AD2F4607AE0293CDF8B2
:104194000CA00196049510220021019803F0D0FC94
:1041A400DFF834A1DDF808B005970A9B5AF8044CEF
:1041B400089F099A07995AF8100C5AF80C6C5AF887
:1041C400085C5C40019B7E40554081EA00071A462A
:1041D40001214046CDE90776CDE9095401F03EF9C5
:1041E400BBF1100F94BFABEB0B0BABF1100B0AF14F
:1041F400100A002847D1BBF1000FD6D1059F102229
:104204003846019903F075FC99F8033010370133EF
:10421400474589F80330BED1049D4FF48072294686
:104224004046DDF80CA0019E01F0F6F8834678BB09
:1042340054460AF130071BAB1A460121404601F0EF
:104244000DF9834620BB102220461BA9144403F019
:1042540050FCA742EFD1404601F0D8F84FF4D0719A
:104264001C48FFF749FF28463021FFF745FF0BA8FC
:104274002021FFF741FF30461021FFF73DFF58464C
:104284003DB0BDE8F08F8346DDF80CA0019E049D8F
:10429400404601F0BBF84FF4D0710E48FFF72CFFF5
:1042A40028463021FFF728FF20210BA8FFF724FF21
:1042B40010213046FFF720FF30215046FFF71CFF46
:1042C40058463DB0BDE8F08F13AD07AEE0E76FF0A0
:1042D400370BF5E7400C0020500C00202DE9F0418D
:1042E4008CB004460D463022002168466F4603F028
:1042F40027FC04F12006E27B0132D2B2E273002AE9
:104304004DD1A27B0132D2B2A273002A47D1637B82
:104314000133DBB26373002B41D1237B0133DBB266
:104324002373002B3BD1E37A0133DBB2E372002B1E
:1043340035D1A37A0133DBB2A372002B2FD1637A78
:104344000133DBB2637253BB237A0133DBB22372D2
:104354002BBBE3790133DBB2E37103BBA3790133F4
:10436400DBB2A371DBB963790133DBB26371B3B937
:1043740023790133DBB223718BB9E3780133DBB2E8
:10438400E37063B9A3780133DBB2A3703BB96378FC
:104394000133DBB2637013B92378013323703B46D6
:1043A40022460121304601F059F88046002841D1C7
:1043B40010370CAB9F429ED1029AAB6803995340CD
:1043C40002933046EE68D5F820804E400396049957
:1043D4002E69D5F828C04E4004966E6905990B9F46
:1043E4004E4005960699AE69009B4E400696EE69CE
:1043F40007994FF480724E400796089ED5F824E042
:1044040088EA0608099E8EEA060E0A9E8CEA0601D0
:10441400EE6A7E402F687B4000936B68019D6B4081
:104424000193CDE9088ECDE90A16694600F0F4FF40
:10443400804638B168463021FFF75EFE40460CB036
:10444400BDE8F0811022204608A903F052FBF1E7F1
:104454002DE9F8431D468369B3F5C07F52D816464B
:10446400C3F5C072AA424DD3C5F5C072D31AB34284
:1044740048D30446DFF898904FF4C0720F4648467C
:10448400002103F05DFB4946D4F89430A269D4F8C6
:1044940098009847002838D1D4F818803DB1D4E961
:1044A40025302A4609EB0801984770BBA84407B198
:1044B400C6B9174942460846FFF728FE054638B1F3
:1044C4004FF4C0711248FFF717FE2846BDE8F88381
:1044D40020460F49FFF702FF05460028F0D10123CB
:1044E4002361EDE73946324609EB080003F001FB8E
:1044F4000749B04442460846FFF708FE054600282F
:10450400DED1E5E76FF03705DFE76FF03305DCE771
:10451400E00D002010B5A4220021044603F010FB96
:104524004FF0FF314FF6F072044B2161E26104F168
:104534009C001B68BDE81040184700BF54010020D0
:104544002DE9F047054688B00F4616460021202283
:104554006846984603F0F4FA1F4B05F19C09484657
:104564001B689847044618B1204608B0BDE8F08798
:1045740005F1200A504600F039FFAA69C5E92576FD
:10458400F2B920232E69AB61002E22DB6946504626
:104594004FF4807200F040FF044630B93346414680
:1045A4002846109AFFF754FF04460C4B48461B68F4
:1045B4009847002818BF0446204608B0BDE8F08795
:1045C4002E69002EE2DA2F2A96BF013226465608BB
:1045D400DCE71026DAE700BF500100204C01002080
:1045E4002DE9F04FB2F5806F91B01A9F00F2E3808D
:1045F400B7F5807F00F2DC80044615460E46302273
:10460400002104A8984603F09BFA6C4B04F19C0922
:1046140048461B6898478346002840F092802269E8
:10462400E3699A4200F391806369002B40F08D8026
:10463400002F40F0A980DFF888A16F46002D00F01C
:1046440098806F4604F120080EE0102DAB4628BF79
:104654004FF0100B304639465A4603F04AFAB5EB90
:104664000B055E4400F08580E37B0133DBB2E3732A
:10467400002B4DD1A37B0133DBB2A373002B47D1B5
:10468400637B0133DBB26373002B41D1237B0133A2
:10469400DBB22373002B3BD1E37A0133DBB2E37249
:1046A400002B35D1A37A0133DBB2A372002B2FD1B7
:1046B400637A0133DBB2637253BB237A0133DBB217
:1046C40023722BBBE3790133DBB2E37103BBA37920
:1046D4000133DBB2A371DBB963790133DBB26371FC
:1046E400B3B923790133DBB223718BB9E378013396
:1046F400DBB2E37063B9A3780133DBB2A3703BB9D7
:1047040063780133DBB2637013B923780133237008
:104714003B4622460121404600F0A0FE8346002885
:1047240093D0DAF80030484698470346302104A86D
:10473400002B18BF9B46FFF7DFFC10213846FFF71C
:10474400DBFC584611B0BDE8F08F3A4641460023E1
:104754002046FFF77DFEDFF868A000283FF46DAF28
:104764004846DAF800309847834600283FF465AF9E
:10477400E7E7204604A9FFF7B1FD83460028D0D11E
:10478400236901332361CCE73A46414604A8FFF785
:10479400BDFC834618B16F46DFF824A0C1E720466C
:1047A40004A9FFF79BFD834600283FF444AFF2E7DA
:1047B4006FF0370BC5E76FF0350BC2E750010020EF
:1047C4004C0100202DE9F043202B1D460646884667
:1047D40091468BB026D8DBB202AF8DF80480B04688
:1047E40058F8041B8DF8053021B9404600F078FED6
:1047F400044640B9012302224046336001A900F077
:1048040083FE044638B138462021FFF775FC204664
:104814000BB0BDE8F0832A464946404600F074FEDA
:104824000446F0E702AF1946104600233A4600F06A
:10483400F1FF04460028E6D12023B9461D46CCE703
:104844002DE9F041D0F8F830A6B0002BD8BF02AE65
:1048540031DD05460027D0F80C4102AEA4F1010871
:104864009022D5F8FC403146D0F8000101AB019705
:10487400B8FA88F8A0474FEA5818044620B9019BB3
:1048840053B9B8F1000F16D030469021FFF734FC2D
:10489400204626B0BDE8F081014632462846FFF79F
:1048A40091FF58B9D5F80431019A1344C5F804317D
:1048B400B8F1000FE8D16FF03C04E5E70446204668
:1048C40026B0BDE8F08100BF70B50025044614226F
:1048D40004F588762946C0F8F850FC3003F030F926
:1048E40008222946304603F02BF9144B30461B6846
:1048F4009847204640F8045B00F0D8FD104B304642
:104904001B689847C8B9D4F8F830AB420FDC03EB06
:10491400830204EB82022021C2F800010120C2E9D3
:10492400421008490133C2F8FC10C4F8F830064BB1
:104934003046BDE870401B68184770BD5401002024
:1049440050010020ED5200004C0100202DE9F047F9
:10495400202A88B07AD83F4B00F5887904461B6832
:1049640048461746884698470546F8B940F2011666
:10497400D4F8F830002B65D02046FFF761FF0546D8
:1049840038B9D4F8F830002B14DC013EF2D16FF0C2
:104994003B056E4620213046FFF7AEFB2E4B4846C2
:1049A4001B689847002818BF6FF01D05284608B0FB
:1049B400BDE8F087D4E94132934203D3D4F80C2103
:1049C400012A02D0013ED7D1E1E71F2BFAD96E4666
:1049D40001462022304604F1040A03F0B1F83146BE
:1049E400504600F0BBFD05460028D3D1504600F0E8
:1049F40071FD504600F05AFD2946504600F070FD06
:104A040005460028C6D150462022314600F07CFDE0
:104A140005460028BED1034632462021304600F028
:104A2400F9FE05460028B5D1D4F8F8303A46002BF3
:104A3400C8BF002340463146C8BFC4F8043103F060
:104A440058F8A7E76FF03F056E46A3E76FF03B0504
:104A5400ACE700BF500100204C010020002130B51C
:104A64008DB0282202A8019103F06AF802A800F090
:104A7400F9FE044610B120460DB030BD1B4D4FF079
:104A8400FF31286800F034F960BB194BD3F8340EB9
:104A940010F0010017D100F05BF9F8B9154A02A92A
:104AA40001A800F013FC0446012000F051F988B974
:104AB400286800F025F90028DDD00F48FFF7F0F949
:104AC40020460DB030BD2868052400F019F90028EF
:104AD400D1D0F2E70948FFF7E3F9E9E70848FFF71F
:104AE400DFF9DBE70748FFF7DBF9CEE73801002001
:104AF40000608450600F0020AC8100008C810000B5
:104B04006C8100005481000030B583B000F036F8A9
:104B140078B900F055F890B9144BC3F80C0AFFF7B4
:104B24009DFF0446F8B9124D2B6863B1204603B0CB
:104B340030BD032400F072F8204603B030BD0424D5
:104B4400204603B030BD02460146FFF7D3F950B901
:104B54006822084901ABFFF7FDF920B92046064B4E
:104B64002B6003B030BD0524E0E700BF0050845043
:104B740080110020841100205AEA5A5A00207047FC
:104B8400430504D54FF0FF32034BC3F80821024B11
:104B9400C3F8080A704700BF00508450014BC3F8A3
:104BA400040A70470050845008B100F071B84FF403
:104BB4007500704708B100F04FB84FF475007047A6
:104BC40010B5114800F080F800B110BD0F4800F096
:104BD4007BF80028F9D10E4C204600F075F8002827
:104BE400F3D10C4B0C481C6000F06EF80146002811
:104BF400EBD100F02DF8044608B1204610BD00F0BA
:104C040089F82046FAE700BF48010020440100204B
:104C140040010020380100203C01002008B508486C
:104C240000F05CF8074800F059F8074800F056F81F
:104C3400064800F053F8BDE8084000F00BB800BF88
:104C44004801002044010020400100203C010020D4
:104C540000207047704700BF10B402460B4C01E0BF
:104C6400134207D1D4F8003A13F48070F8D001202D
:104C740042F4807229B1054BD3F804410C60C3F8A7
:104C84000841024BC3F8082A10BC704700508450F6
:104C94000246084901E01A4207D1D1F8003A13F458
:104CA4008070F8D0012042F48072024BC3F8082AC5
:104CB400704700BF0050845002F028BF02F040BF8C
:104CC4000A46002102F03CBF08B5034B02681B688A
:104CD40010689847002008BD0401002008B5034B64
:104CE40002685B6810689847002008BD0401002032
:104CF400024B02689B681068184700BF040100203B
:104D040008B5034B0268DB6810689847002008BDAB
:104D14000401002070B5094C094D2069AB6898471F
:104D240018B1084B08485B6898470021074AEB68AC
:104D340011602069BDE87040184700BFF0000020F2
:104D440004010020E8000020C4810000EC110020D0
:104D5400F8B51A4D1A4E0446B26828699047E8B966
:104D6400184F3B684CB1A3B1012B19D0013B3B60F8
:104D74002869F36898470020F8BD43B90121124A15
:104D8400C2F800151149D1F81029002AFBD10133CA
:104D94003B60F368286998470020F8BD0C48F8BDCB
:104DA4000A4AD2F81039002BFBD1074A6FF07E4033
:104DB400C2F80035FFF7F2FE3B68D7E7F0000020A9
:104DC40004010020EC110020004084500050845065
:104DD400E98FFFFF014B1B68184700BF0401002047
:104DE400014B9B68184700BF04010020014BDB689E
:104DF400184700BF040100202DE9F041002873D0BA
:104E04000C46002970D01D46002B6DD007461AB100
:104E1400012200232A6003602B68002B5FD02946FF
:104E2400204600F0D9FD804600285AD12146286842
:104E340000F0B8FD8046002853D12868082867D0C0
:104E4400042867D0A0F10200B0FA80F040090121E3
:104E5400314EC6F8C411C6F84011C6F8C411636ACD
:104E6400C6F83031D6F830219342F6D10023C6F883
:104E74002C314FF0FF33C6F808316FF01B03C6F82E
:104E84000031C6F80C01D6F8040A40F48060FFF73C
:104E940085FE0A23C6F83831069B012B29D02369E5
:104EA4001E4AA2FB03231B09626A404602FB03F36A
:104EB40003EB4303184ADB039B09C2F8D8310123EF
:104EC400C2F82C313B682A6823F07F4343EA02632B
:104ED4003B602A6843EA02233B60BDE8F081DFF8C7
:104EE40040804046BDE8F081DFF838804046BDE8A8
:104EF400F0814FF47F03D3F80C2C013206D0D3F8A1
:104F04000C3C064AA2FB03231B09CDE71623CBE77F
:104F140003209CE702209AE700508450ABAAAAAA77
:104F2400310CF100350CF10058B34B1EB3F5047F7E
:104F340027D230B54FF0000ECD00744671464B09B0
:104F440001F01F0C50F82330BCF11F0F23FA0CF3AF
:104F540006D003F0010319B901211C468E46EEE781
:104F64009C4201F1010106D01C464FF0010EA942FA
:104F7400E5D1002030BD0EF1010E9645F7D102486F
:104F840030BD0148704700BF360CF100C0B32DE9B5
:104F9400F0434C1EB4F5047F1DD2E3B1DAB1002511
:104FA4002E46A8462C46CF0003F1FF394FEA541C85
:104FB40004F01F0E50F82C10BEF11F0F21FA0EFC46
:104FC4000CD00CF0010C4CB90126E04634463546B1
:104FD400ECE7964216D90C48BDE8F083AB420BD0FF
:104FE400C44508BF0136A945F3D001350134BC429C
:104FF400DCD10020BDE8F0830125E0462E46F5E72C
:10500400014870471D46F1E7370CF1002DE9F04FD8
:105014008FB08246DDE919460D46002E6ED109692E
:1050240004911C60002318990B60002A00F0288169
:10503400994B6A6AD3F83811D3F830319A4269D15E
:105044000A2967D19AF80330069304F108030593FB
:105054000423049A0393914B8F4CA3FB023B4FEA26
:105064009B0B0BEB4B0BA2EB4B0B189B049E1E6094
:10507400002E00F0E580002700F0BEFC0797BAF18F
:10508400000F00F0D0804FF00109DDF81480002DEE
:1050940000F0C980069B002B3ED0284606A900F0EC
:1050A4009BFC00283AD07E4B984220D0069B082BCC
:1050B40000F0E08000225B000693294606AB5046D0
:1050C4000092FFF799FE774B984200F0CF8070B9B9
:1050D400DAF80020130A03F47F03134323F07F4319
:1050E400CAF80030039B013B0393BED10020039018
:1050F40000F082FC03980FB0BDE8F08F4FF47F01FD
:10510400D1F80C0C01300CBF4FF40471D1F80C1C15
:10511400049186E76448EAE76248C4E729460698AA
:1051240000F040FC0028BED1069B082B00F0A480B0
:10513400042B00F0A380A3F10203B3FA83F35B0909
:10514400C4F8C491C4F84091C4F8C4916A6AC4F81C
:105154003021D4F830118A42F6D10022C4F82C212F
:105164004FF0FF32C4F808216FF01B02C4F800218D
:10517400C4F80C31D4F8040A40F48060FFF70EFD43
:105184000A23C4F838312B69444AA2FB0313696A21
:105194001B0901FB03F303EB4303DB039B09C4F883
:1051A400D831C4F82C910698DAF8003023F07F4106
:1051B400030243EA00630B43CAF8003007A800F077
:1051C400E1FB079B354A03F01A0303437FF46EAFF8
:1051D400A2FB0632D4F81431B7EB920F0893D4F83B
:1051E40018310993D4F81C310A93D4F820310B9365
:1051F400D4F824310C93D4F828310D9302D1BBF1A7
:10520400000F12D14046182208A9183EFFF754FD9A
:1052140008F1180801379EB100F0EEFB0023079354
:10522400002D7FF437AF21483DE740465A4608A990
:10523400A6EB0B06FFF740FDD8440137002EEBD157
:10524400049F059E6A6939463046FFF76DFEAA69D8
:1052540040B94FF4806339463046FFF797FE002883
:105264003FF444AF0023189A13601CE72B6A002B09
:105274003FF43DAF0E483AE7032361E702235FE7BB
:10528400012229465046009606ABFFF7B5FD0028DB
:105294003FF4DBAE2BE700BF00508450ABAAAAAAB0
:1052A400020CF100310CF100300CF100350CF1006E
:1052B400320CF10010B4DDE9013401940024DDF86E
:1052C4000CC0CDE902C410BCFFF7A0BE30B5154632
:1052D400012487B005AB00930022CDE9015404AB4F
:1052E400FFF794FE07B030BDF0B587B0002967D052
:1052F4001E46002B64D01446002A61D0324F0D465E
:1053040038684FF0FF31FFF7F3FC00283DD12F4BF5
:10531400D3F8340E10F0010015D04FF0FF354FF4E0
:1053240008712B48FEF7DEFE04212A48FEF7DAFE58
:1053340029482821FEF7D6FE3868FFF7E1FC40BB78
:10534400284607B0F0BDFFF703FD002834D12248FA
:1053540000F088FA70B91E4A0346029205AA019227
:1053640004AA039000921C4902461A48FFF7A2FFC0
:105374000346A0B14FF0FF350120FFF7E9FC0028F8
:10538400CDD01648FEF78CFDC9E71548FEF788FD19
:10539400BDE71448FEF784FD284607B0F0BD284653
:1053A4001D46059B22469C4228BF1A46049932603A
:1053B4000831FFF781FCDFE70B48FEF771FDC6E714
:1053C4004FF0FF35BCE700BF380100200060845077
:1053D4001C120020F0110020F41100208C81000028
:1053E40054810000E48100006C81000010B5044683
:1053F40030B1002201236265A265E365236610BD16
:105404000148FEF74DFDF4E7FC81000018B1742259
:105414000021FFF753BC7047C8B1D9B108B50023C8
:10542400C02A836380F83C300FD0B2F5807F04D06B
:10543400802A03D06FF01F0008BD02230363D20843
:105444001030FFF739FC002008BD0123F6E76FF0A8
:10545400210070476FF01F00704700BF70B504460D
:1054640086B0F8B11046EAB1E3B101291AD8A26BAB
:1054740016D0012A16D1102500210DEB0506019640
:1054840002AA61632946009500F0C8FA50B92B4678
:105494003246204602A900F073FD18B906B070BD6B
:1054A400002AE8D06FF02100F8E700BF10B50446E9
:1054B40028B12046BDE81040F421FFF701BC0448A0
:1054C400FEF7EEFC2046BDE81040F421FFF7F8BBE0
:1054D4001082000010B1F421FEF704BE704700BF33
:1054E40008B521B1012908D06FF0360008BD0121AB
:1054F40000F058F80028F7D108BD022100F052F856
:105504000028F9D0F0E700BF30B505468818B0F59B
:10551400801F0B461446A1B001D8802A0CD9B3F5DC
:10552400801F17D922461946284600F07DF8044604
:1055340084B9204621B030BD6846FFF7BDFB224642
:105544006946284600F070F8802104466846FFF753
:10555400B7FBEDE76FF03604EBE700BF70B5E8B1D9
:105564000E46D9B1044600F031F80546B0B92368B7
:10557400012B0BD0022B01D0284670BD1C223046D3
:1055840004F10801FFF798FB284670BD202230463D
:1055940004F10801FFF790FB284670BD6FF0360553
:1055A400EAE700BF78B138B50D46F0210446FFF7AD
:1055B40087FB402320462560E36500F061FA00384C
:1055C40018BF012038BD0120704700BFF0B5056E3B
:1055D400A5B0044604AEE5B9002301270193304683
:1055E4006760294602AA009300F018FA10B101205E
:1055F40025B0F0BD2A46204602A900F069FA002829
:10560400F5D1204600F06CFB0028F0D1206625B0CF
:10561400F0BD802D2A46304628BF802204F1640163
:10562400FFF74AFB256ED7E7002800F0AE802DE98E
:10563400F04F1446A5B0002A3DD00F46002949D0AA
:10564400B2F5803F0546006E20D34FF6FF7805F192
:10565400640AEB6D1A1AB2FBF3F103FB1122002A60
:1056640065D18342B9464FF6FF7672D0B6FBF3FBA1
:1056740003FB0BFBBBF1000F30D1002E45D1A4F589
:105684007F44FF3CB4F5803F4744E2D2EA6D161AEA
:10569400B6FBF2F302FB1366A64228BF2646002E91
:1056A40075D1824200F08D80B4FBF2F602FB06F65F
:1056B4002EB9002C79D1002025B0BDE8F08F00234D
:1056C40031463846CDE9003302AA00F0A7F9002894
:1056D40000F09580012025B0BDE8F08F00235946E5
:1056E4004846CDE9003302AA00F098F90028F1D128
:1056F4005A46284602A900F0EBF90028EAD1A6EBA5
:105704000B06286ED944002EB9D0193049463246CA
:1057140005EB8000FFF7D0FAA4F57F44286EFF3C28
:105724003044B4F5803F4744286692D2AEE7424500
:1057340028BF4246164639465044FFF7BDFA286E44
:10574400EB6D3044834207EB06092866A8EB060696
:105754008CD1802B28BF802351461A4604A8FFF71A
:10576400ABFA0023E96D02AACDE9003304A800F0E6
:1057740055F90028AED12846EA6D02A900F0A8F92F
:105784000028A7D1EB6D286670E70120704705F16A
:105794006403394632461844FFF78EFA286EEA6DE0
:1057A4003044A41B374428667BE72B6E224619330A
:1057B40005EB83003946FFF77FFA2B6E23442B66F3
:1057C40079E7802A28BF802205F1640104A8FFF745
:1057D40073FA0023E96D04A8CDE9003302AA00F0AE
:1057E4001DF900287FF476AF2846EA6D02A900F07F
:1057F4006FF900287FF46EAFEA6D286654E73246ED
:10580400284602A900F064F900287FF463AF374406
:10581400A41B4EE7F8B51C460546114816460F462C
:10582400FFF744FE21460E48FFF75AFE044620B116
:105834000B48FFF74FFE2046F8BD3A462946084874
:10584400FFF762FE04460028F2D131460448FFF710
:1058540085FE04460248FFF73DFE2046F8BD00BF22
:105864003C1400201C2370B582B001A905460193A5
:1058740000F032F8044638B9019B1C2B07D0144CB5
:105884001C212846FFF71CFA204602B070BDD5E95A
:105894000112131E18BF0123003918BF012101266C
:1058A40028689B00EA6843EA4103002818BF43F0D4
:1058B4000103EE612AB9C5E90834002BE4D1054C93
:1058C400DEE7204643F00803C5E9083402B070BDA2
:1058D400370CF0000E0CF000034618B111B10A6841
:1058E4001C2A01D0012070474FF47F02D2F8101C0B
:1058F40001310CBF40F2DC51D2F8101C4FF47F028E
:105904000160D2F8141C01310CBF40F2DC51D2F812
:10591400141C4FF47F024160D2F8181C01310CBFF3
:1059240040F63401D2F8181C4FF47F028160D2F89B
:105934001C1C01310CBF40F63401D2F81C1C4FF47E
:105944007F02C160D2F8001C01310CBF9021D2F853
:10595400001C4FF47F020161D2F8041C01310CBF1A
:105964005121D2F8041C4FF47F024161D2F8081C83
:10597400002001310CBF40F23732D2F8082C9A6172
:10598400704700BF014608B54FF48060FFF712F975
:105994000022034BC3F8C821C3F82C2108BD00BF63
:1059A400005084500138072805D8DFE800F0100EB5
:1059B400040A0404040607487047CB6800204B62BD
:1059C40070478B6800204B6270474B68F6E70B68A2
:1059D400F4E700BF310CF1000B6802E0082B0B6008
:1059E40006D8026A13424FEA4303F7D000207047F7
:1059F40000487047310CF100002310B5064C4FF4F9
:105A04008060C4F82C31C4F8C431FFF7B9F84FF002
:105A1400FF33C4F8083110BD005084502DE9F04123
:105A2400002482B015461E4601220DF107030746E5
:105A3400DDF824808DF8074000F05AFFD0B99DF8B6
:105A4400073004462F602B71B8F1000F0ED04EB111
:105A54000246089930460DF1070300F049FF48B9A2
:105A64009DF80730C8F8006088F80430204602B07A
:105A7400BDE8F0814FF47504204602B0BDE8F08122
:105A8400D8B108B50368012B04D0022B0FD043B161
:105A94000B4808BD20220B490830FFF70DF9002000
:105AA40008BD142208490830FFF706F9F7E7202259
:105AB40006490830FFF700F9F1E74FF47300704727
:105AC4000100F30020820000608200004082000098
:105AD4002DE9F047002900F0EB800446002800F08F
