:100000008819002029120000E3560000FD110000AD
:10001000FD110000FD110000FD110000FD110000A8
:10002000000000000000000000000000550E00006D
:10003000FD11000000000000ED0D0000FD110000AA
:10004000E10E0000E10E0000E10E0000E10E0000F4
:10005000E10E0000E10E0000E10E0000E10E0000E4
:10006000E10E0000E10E0000E10E0000E10E0000D4
:10007000E10E0000E10E0000E10E0000E10E0000C4
:10008000E10E0000E10E0000E10E0000E10E0000B4
:10009000E10E0000E10E0000E10E0000E10E0000A4
:1000A000E10E0000E10E0000E10E0000E10E000094
:1000B000E10E0000E10E0000E10E0000E10E000084
:1000C000E10E0000E10E0000E10E0000E10E000074
:1000D000E10E0000E10E0000E10E0000E10E000064
:1000E000E10E0000E10E0000E10E0000E10E000054
:1000F000E10E0000E10E0000E10E0000E10E000044
:10010000E10E0000E10E0000E10E0000E10E000033
:10011000E10E0000E10E0000E10E0000E10E000023
:10012000E10E0000E10E0000E10E0000E10E000013
:10013000E10E0000E10E0000E10E0000E10E000003
:10014000E10E0000E10E0000E10E0000E10E0000F3
:04015000E10E0000BC
:1001540053B94AB9002908BF00281CBF4FF0FF312A
:100164004FF0FF3000F00CB8ADF1080C6DE904CE8F
:1001740000F008F8DDF804E0DDE9022304B070477C
:10018400704700BF2DE9F04786468C460846089E16
:10019400154674461946002B40F0C1808542B2FAD8
:1001A40082F245D94AB1C2F1200300FA02FC95401B
:1001B40094402EFA03F343EA0C0C4FEA154EA8B20E
:1001C400230CBCFBFEF80EFB18CC08FB00F943EA39
:1001D4000C43994528D9EB1808F1FF3704D2994507
:1001E40002D9A8F102072B44A3EB0903A4B2B3FB81
:1001F400FEFC0EFB1C330CFB00F044EA0344A0425B
:1002040014D92C190CF1FF3304D2A04202D9ACF159
:1002140002032C44241A43EA07401EB1D4400023AD
:1002240034607360BDE8F0874746DDE76346F1E775
:1002340092BB431B01214FEA154EAFB2200CB3FB16
:10024400FEFC0EFB1C330CFB07F840EA0343984505
:1002540061D9EB180CF1FF3004D2984502D9ACF106
:1002640002002B44A3EB0803A4B2B3FBFEFC0EFB79
:100274001C330CFB07F744EA0344A7424DD92C195D
:100284000CF1FF3304D2A74202D9ACF102032C448F
:10029400E41B43EA0040C0E7C2F1200395409440C8
:1002A40020FA03F12EFA03F34FEA154E9040AFB251
:1002B4000343B1FBFEFC0EFB1C10190C0CFB07F8EE
:1002C40041EA0041884522D969180CF1FF3004D273
:1002D400884502D9ACF102002944A1EB08019BB284
:1002E400B1FBFEFC0EFB1C110CFB07F743EA0143B8
:1002F4009F420ED9EB180CF1FF3104D29F4202D970
:10030400ACF102012B44DB1B41EA004193E7604658
:10031400E3E76146F7E76046A4E76346B8E783424C
:1003240006D916B9002108467CE7C6E900E0F9E7DA
:10033400B3FA83F78FB9834201D3724508D8BEEB71
:10034400020460EB030301209C461EB9002169E707
:100354003846FAE7C6E9004CF8E7C7F1200CBB4081
:100364000EFA07F522FA0CF42EFA0CF1BA401C43EB
:1003740020FA0CF3B8404FEA144901431FFA84FEF3
:10038400B3FBF9F809FB18300B0C08FB0EFA43EA2F
:1003940000439A4540D9E31808F1FF3004D29A4546
:1003A40002D9A8F102002344A3EB0A0389B2B3FBE8
:1003B400F9F809FB183308FB0EFE41EA03418E45A8
:1003C4002CD9611808F1FF3304D28E4502D9A8F163
:1003D4000203214443EA0040A1EB0E01A0FB029872
:1003E4004145CE46434602D306D14D4504D2013899
:1003F400B9EB020E68EB0403002EA7D0B5EB0E0296
:1004040061EB030101FA0CFC22FA07F3F9404CEA10
:100414000303C6E9003199E74046C5E74346D9E7F7
:100424004FF4907310B5194A8EB0CDE909230EAB81
:10043400044607C903E90700154A06AB106851686A
:10044400128903C31A8006AB02930A23039302ABF7
:100454000493012304AA059309A90023204604F068
:1004640061FF01460B4804F005FDBDF82030BDF8DE
:100474001A200193BDF81E30BDF8181000930648E9
:10048400BDF81C3004F0F6FC0EB010BD48E80100C5
:1004940080680000786B0000996B00004FF4907343
:1004A40010B5264A96B0CDE9112316AB044607C908
:1004B40003E90700224A06ABD2F80A00D2F80E106C
:1004C400528A03C31A8006AB099307AB0B9300212E
:1004D40006230422CDE90C31109309AB02930223C5
:1004E4000A920E920DAACDE90423039302AA04AB47
:1004F40011A92046CDF83CD004F014FF0146114860
:1005040004F0B8FCBDF81A20BDF818100E4804F029
:10051400B1FCBDF82030BDF81E20BDF81C100B48FE
:1005240004F0A8FCBDF80430BDF80220BDF80010AA
:10053400074804F09FFC16B010BD00BF48E8010056
:1005440080680000BA6B0000DA6B0000F06B0000FA
:100554000B6C00004FF4807310B5234A94B0CDE9BE
:100564000F2314AB044607C903E9070003AB079341
:1005740005231E4A08931068127903908DF8102001
:1005840005AACDE9092307AB0B93012309AACDE9F9
:100594000D230C930BAA0DAB0FA9204604F0C2FE49
:1005A4000146134804F066FC9DF810309DF80D20B8
:1005B40001939DF80F309DF80C1000930D489DF8A1
:1005C4000E3004F057FC9DF818309DF81520019367
:1005D4009DF817309DF81410009307489DF81630C5
:1005E40004F048FC14B010BD40420F00906C0000B1
:1005F400266C0000466C00006B6C000030B585B0C2
:10060400174D284605F0E5FD044608B3154B01AC2B
:1006140093E8070084E8070021462846FFF700FF17
:10062400002141F69A1004F0B3F821462846FFF75A
:1006340035FF002141F69A1004F0AAF82146284615
:10064400FFF788FF00214FF4004004F0A1F8E3E72E
:100654002968054804F06EFE204605B030BD00BF91
:10066400CC65000094680000966C0000014B1B6888
:10067400184700BF00000020014B1860704700BFFE
:100684000000002030B585B004460D46102200213C
:10069400684605F0E2FE02238DF80230044B2A4638
:1006A40021466846019304F0F7FB05B030BD00BF56
:1006B4007106000080B505460E461746984604F0BC
:1006C40081F8034605F0FAFE0446DFF81890424626
:1006D40049F8003039463046A84754F8090000F07C
:1006E4001BFE00BF080000002DE9F047058B0446FF
:1006F4002807904611D4022905F0070540F0CD8063
:10070400204604F004FF78B10138218B042811D865
:10071400DFE800F0C3106D85950001290CBF45F09A
:10072400100545F02005258388F31188BFF36F8FEA
:10073400BDE8F08701F0070AAA4500F0A68000276B
:10074400B9463E46A368002B00F0BD8041F0080185
:10075400218388F31188BFF36F8FA168002900F00B
:10076400BB800D68002900F0B7803346524620460E
:10077400D1F80480C047002D76D02B6829461D4649
:10078400F0E701F007035A1F012A1BD8002221F0C9
:100794000701062B276889B2C4E9002209D13B4628
:1007A40003E0628B013262831B68002BF9D141F0B4
:1007B40002012046218304F0AAFE00287BD041F0E8
:1007C400200177E0042B0AD121F0070189B22046E9
:1007D400218304F09CFE10B141F020012183218B80
:1007E40001F0070AAA4550D00027B946AAE72369B1
:1007F40021F0070141F00601062DD3F80090218372
:100804002DD1B9F1000F40D041F00801218388F3C4
:100814001188BFF36F8F20463949C84729E021F07A
:100824000701236941F0040189B2042DD3F804902F
:100834002183E6D000274FF0040A3E4682E721F0E8
:100844000701236941F0050189B2052DD3F8089009
:100854002183D6D000274FF0050A3E4672E70027D1
:100864004FF0060A3E466DE72B4687E7B9F1000FC5
:10087400D1D14FF02003EFF3118883F31288BFF333
:100884006F8F238B23F008032383258BEA062ED551
:1008940025F01003238305F007056669218B002EDC
:1008A400BFF66FAF00232768C4E9003321F00701C6
:1008B40041F001012183218B4FF0000901F0070A67
:1008C400AA457FF43FAF002F9BD041F0080121835C
:1008D40088F31188BFF36F8F002FC7D03D68394666
:1008E40033465246204604F03EFE2F46F4E7AB065C
:1008F4007FF51AAF25F02003238305F00705FFE6F3
:1009040097550000044608B54FF02002EFF3118319
:1009140082F31288BFF36F8F02F088F8204600F04C
:10092400B1FC034804F006FD00F0A8F9FCE700BFA1
:10093400C26C000007B50DF1070005F012FA114B67
:1009440098421CD14FF480620F4B1049C3F8B8256C
:100954004FF40062C3F83C259DF8070005F0F5F953
:100964000B499DF8070005F0EBF901209DF80730CD
:10097400984002F0CDF9002003B05DF804FB6FF05D
:100984000B00F9E70000AD0B00A002502CA00250B0
:1009940028A10250054B03EB8000D0F8003223F06D
:1009A400E04343F04053C0F80032704700258450C0
:1009B400012208B50A4B0B49C3F800250223002085
:1009C400C1F8D036FFF7E6FF1046FFF7E3FFC1F8A2
:1009D4000427C1F80429C1F8002B002008BD00BF7A
:1009E4000010005000400050052370B5144D154E02
:1009F4002C780134B4FBF3F303EB8303E41A05F01E
:100A040089F9114A137823B156F82430C01A0728FB
:100A140014D94FF05023D3F8141141B10021C3F875
:100A24001411D3F814312C700CB9012313702C78E1
:100A340005F070F946F82400012070BD0020FCE7A1
:100A44002D0C0020A80300202C0C002048B1054BDD
:100A5400054A1B68B3FBF2F35843044B43F001030C
:100A6400184770471801002040420F00A06800009A
:100A740002F006B8014804F0BBB800BFA868000043
:100A840038B5044618B90F4B0F485B68984761683E
:100A9400B1F5683F10D0B1F5680F0DD00B4DA942E8
:100AA4000AD011F46861206807D00146084805F0AF
:100AB400C3FB00232360656038BD142205F0CDFC20
:100AC400F9E700BFA4010020EF6C00002C5F5CA9D3
:100AD400BC08002008B560B34368B3F5683F0ED086
:100AE400B3F5680F18D0144A934220D000684FF031
:100AF400FF324FF0FF3303F069FA58B115E00122D9
:100B04000368D3E8EF1F002903D1C3E8E02F0028CE
:100B1400F7D10AD1002008BD0368084A1B7803F501
:100B2400807352F82330002BF4D00548F3E70548CE
:100B3400F1E76FF4E040EEE72C5F5CA9000003509E
:100B4400E98FFFFFEA8FFFFF08B520B34368B3F5D1
:100B5400683F09D0B3F5680F13D0114A93421DD0F2
:100B6400006803F0ADFA14E000220368D3E8EF1F35
:100B7400012903D1C3E8E02F0028F7D109D009489F
:100B840008BD00210368084A1B7803F5807342F806
:100B940023100020F4E76FF4E040F1E70348EFE7A7
:100BA4002C5F5CA9E98FFFFF00000350EA8FFFFF71
:100BB40010B5044618B91D4B1D485B689847636817
:100BC400B3F5683F2FD0B3F5680F2CD0194A934280
:100BD40019D1236803BB4FF0FF324FF0FF33214696
:100BE400154803F02BF908B923681BB90F4B1348B8
:100BF4005B68984714220021206805F02EFC4FF40E
:100C04006863636008E0B3F5683F0DD83A2B03D0FE
:100C140040F6BA629342DED1206805F04DFB63686A
:100C240043F03A03636010BD054AF3E7A4010020D2
:100C3400EF6C00002C5F5CA9BC080020156D00005F
:100C44003A00003A08B5064940231422054805F045
:100C5400E5FABDE808400449044804F03BB800BF85
:100C6400BC030020BC080020B0680000C468000079
:100C7400014910220A60704710ED00E072B640404E
:100C840080F31188BFF36F8F01B5FFF7ADFE002825
:100C94000AD0BFF34F8F30BF00BF00BF00BF00BFFB
:100CA40000BF00BF00BF00BFBDE8014062B6BFF394
:100CB4006F8F704772B6494081F3118801B5FFF711
:100CC40093FE00280AD0BFF34F8F20BF00BF00BFA0
:100CD40000BF00BF00BF00BF00BF00BFBDE80140B0
:100CE40080F3118862B6704740B2002807DB012305
:100CF4004109034A00F01F00834042F82130704745
:100D040000E100E040B200280CDB0122064943095F
:100D140000F01F008240203341F82320BFF34F8F9F
:100D2400BFF36F8F704700BF00E100E0054B42093D
:100D340053F82220012300F01F0003FA00F01040B2
:100D4400704700BF00E100E040B2002801F101015A
:100D5400ACBF00F16040064B4FEA4111C9B2ABBFD2
:100D640000F5614000F00F0080F80013195470473B
:100D740014ED00E030BFFFF7FDBF00BF0B4A08B51C
:100D84000B4B22F07F029A60BFF34F8FBFF36F8F3C
:100D9400D3F8882022F47002C3F8882002F084FF7C
:100DA40003F076FD00F032FA02F0C8FF0000000004
:100DB40000ED00E0094A0A49936809685867996791
:100DC40008494B6843F080534B60002383F3118838
:100DD400BFF36F8F9368986F704700BF240A002099
:100DE400D06A000000ED00E016498A684FF0300038
:100DF4001044EFF3098C80E8F01F202080F3128860
:100E0400BFF36F8F104F4FF000664A698A603E60EF
:100E14004FF07004141920680C4C2060506F0023AC
:100E2400536780F3118802F1300090E8F01F8CF3CF
:100E3400098802F1000004B504F058FCBDE8044040
:100E440070470000240A002004ED00E0D8080020C8
:100E54001EF0040F0CBFEFF30880EFF309808169E3
:100E640011F8021C0229FFD001B504F030FC01BDC9
:100E740042F8203C009B0B4942F81C3C019B21F0AA
:100E8400010142F8183C029B42F8081C42F8143C49
:100E94004FF0807342F8043C0023203A0265436714
:100EA400704700BFB90600000A4B046F98600A4BF4
:100EB4001C60036E83F30B88104681F309880021BC
:100EC40063B681F31188BFF36F8F00220023FFF70D
:100ED400F1FB00BF240A0020D808002001B5EFF37D
:100EE4000580A0F110004FEAC0000449014409C97B
:100EF4009847BDE80140024908470000E06500004A
:100F0400650F0000114B124A2DE9F041D518013D3F
:100F1400B5FBF3F5DFF83C805D430F4B074608EB68
:100F24000304013CB4FBF3F403FB04540E1B3046EE
:100F34000A4905F085FA701942460021083E05F079
:100F44008CFA3E6704F10800BDE8F081010000005E
:100F540000000000040000000400000078680000A5
:100F6400044B99685869884203D003494FF0805272
:100F74000A607047240A002004ED00E0154B9A6AC9
:100F840012F0007F9A6A14BF1E201D2012F0807F89
:100F94009A6A18BF1F2012F4801F9A6A18BF022091
:100FA40012F4002F9A6A18BF212012F4802F9A6A33
:100FB40018BF222012F4003F9A6A18BF232012F4AB
:100FC400803F9A6A18BF24206FEA02426FEA1242F5
:100FD4009A62704700ED00E010B5194B0246986A1A
:100FE4009C6A10F4805F14BF1720162014F4006F5D
:100FF4009C6A18BF1820A40509D5986B986A000448
:1010040004D51AB19A6A22F400429A6219200C4B50
:101014009A6A12F4806F9A6A18BF1A20D2050CD407
:101024009B6A13F4005F18BF1C20054A936A43F4BB
:101034007F43936200230B7010BD1B20F5E700BFB4
:1010440000ED00E010B51C4B0246986A9C6A10F053
:10105400100F14BF1120102014F0080F9C6A18BF41
:101064001220A40709D5586B986A000604D51AB152
:101074009A6A22F080029A6213200F4B9A6A12F045
:10108400010F9A6A18BF142012F0200F9A6A18BF31
:101094001520D40658BF9B6A074B9A6A920642BF32
:1010A4005A6A22F400525A629A6A42F0FF029A6221
:1010B40000230B7010BD00BF00ED00E0F0B5474BFE
:1010C40004465B6800258BB0C3F3080385F31188DD
:1010D400BFF36F8F02F07F40B0F17F4F11D102F068
:1010E4000C0008280DD010074CBF0C460125002227
:1010F400033B8DF80720032B05D8DFE803F02462B7
:10110400665F2C46F3E700239DF80720CAB902AEB8
:1011140004F12007324620686168083403C2BC42E7
:101124001646F7D1099A002D53D0C2F3080121B90C
:101134006FEA52226FEA42220992184602A904F089
:10114400C4FA0BB0F0BD254BDA6A9107DBD4DA6A36
:10115400002AD8DBDA6A5200D5D55A69A16942F46B
:1011640080725A61BFF34F8FBFF36F8F5A6931F8A2
:10117400021C22F480725A61BFF34F8FBFF36F8F4A
:101184004DF60272914209D09A6AD2B242B101205C
:101194000DF10701FFF756FF0346B5E72368B3E7F0
:1011A4009A6A12F47F4F05D001200DF10701FFF771
:1011B40013FFF1E79B6AB3F5803FA4D3FFF7DEFE8C
:1011C400EAE700200DF10701E4E700200DF1070133
:1011D400EDE722F4FF7222F00102ADE700ED00E03A
:1011E400044B5A6942F010025A615A6942F480620F
:1011F4005A61704700ED00E0EFF30880EFF30981D6
:1012040001B57246FFF75AFF01BD00BF002320213C
:101214000348C2180133452B82F80013F9D17047F3
:1012240000E100E0002080F31488BFF36F8F0020FA
:1012340080F30A8880F30B88FFF71AFC00200E491C
:101244000860BFF34F8F0D4880F3088800F03EF824
:10125400202080F311880A484FF40061401880F37D
:101264000988EFF314800221084380F31488BFF344
:101274006F8FFFF783FD000094ED00E088190020D4
:10128400480C0020BFF34F8F0549064BCA6802F48F
:10129400E0621343CB60BFF34F8F00BFFDE700BF95
:1012A40000ED00E00400FA05002318460649D1F8D1
:1012B4009020C2F30722934200DB7047C1F89830B4
:1012C400C1F8A0000133F6E700ED00E010B572B6F6
:1012D400002484F31388FFF7E7FF23464FF0FF3021
:1012E4000C4A03F120010133102B42F82100F8D1FC
:1012F40000234FF0FF30074A03F160010133102B44
:1013040042F82100F8D162B6BFF34F8FBFF36F8F5D
:1013140010BD00BF00E100E0084B9B6883420BD185
:10132400EFF3058343B1064B5A6842F080525A608A
:101334005A6A22F400425A6203F04ABA240A00208C
:1013440000ED00E01FB5094C094A23460121094874
:1013540000F0EAF800230393074B0121E41A01A8E3
:101364000193029400F0EAF804B010BD00000720D5
:1013740000000020D46800006802002010B50C7A38
:101384000B6804F01F0223F01F031A43CB6864099F
:1013940023F01F03054943EA440343F00103C1F862
:1013A4009800C1F89C20C1F8A03010BD00ED00E009
:1013B4002DE9F04F0F46144606464FF000084E4DF7
:1013C40085B0B84580F29480D6F80490B9F1000F46
:1013D40036D0B9F11F0F40F2898019F01F0F40F089
:1013E4008580D6F800A01AF01F0F7FD1504604F074
:1013F40081F9834609EB0A00013804F07BF983453F
:1014040074D11BF1160F71D05C456FDDC5F898B02F
:10141400D5F89C10C5F898B0D5F8A03021F01F017C
:1014240043F01F0AD6E900321A44994202F1FF3907
:101434001ED1CA4508D131465FFA8BF004F063F936
:1014440008F101080C36BCE73146C5F898B0D5F868
:101454009C3022F01F0203F01F031343C5F89C3095
:10146400E0B204F050F910F1160F3FD0441CE7E746
:10147400C5F898B0D5F8A020013B23F01F0302F073
:101484001F021343CA453146E0B2C5F8A030E8D084
:1014940004F039F910F1160F28D0C5F898B0D5F832
:1014A4009C209DF808300AF1FF3A62F304038DF89A
:1014B4000830D5F8A0309DF808205B0863F3471284
:1014C4008DF80820D6E900321344009323F01F035B
:1014D400411C5344A3EB0903C8B223F01F0307289C
:1014E400039303D86946FFF749FFBFE76FF015047C
:1014F400204605B0BDE8F08F00ED00E00522044B66
:10150400C3F89420BFF34F8FBFF36F8F704700BFB2
:1015140000ED00E0BFF35F8F0022024BC3F894207C
:10152400704700BF00ED00E010B5034C2278FFF7D0
:101534003FFF207010BD00BF2E0C00202DE9F74F97
:10154400294D8A4606464FF00008AB46274FD04542
:101554001BDAD6F80490B9F1000F3FD03168084681
:10156400019104F0C7F80199044609EB0100013820
:1015740004F0C0F884424FF014021D4B08D002FB63
:1015840008F36FF015024BF8032003B0BDE8F08FA9
:1015940014F1160F2C60F8D01978A142F5DD02FB86
:1015A40008B0C7F89840C7F89840D7F89C4000F1B5
:1015B4000801007B64F304000871D7F8A0000C79DB
:1015C400400860F347140C71D7F89C1021F01F01F8
:1015D4006960D7F8A01021F01F01296108F1010802
:1015E40014350C36B3E700BFDC08002000ED00E042
:1015F4002E0C002038B50E4D2C68082C15D8002070
:10160400FFF788FF0B4B0C4AC3F8C020844205D176
:101614000A4B00201C70FFF771FF38BD696801EBAD
:101624000011FFF7ABFE0130F0E74FF0FF30F4E7B5
:10163400E468000000ED00E0AAFF44002E0C002046
:1016440008B5024B1B689847002008BDF00800202D
:10165400034B044A1860937843F002039370704775
:10166400F00800202400002008B50649064821F0AF
:101674000701C1F1005202F5E02203F0F0FE002060
:1016840008BD00BF9B19002088190020084B70B5C5
:10169400C31A0D4607499B10044659434022064885
:1016A40004F06FF82B4601462046BDE87040184709
:1016B40008090020B76DDBB654650000402373B5FC
:1016C4000B4C0093041B0B460D460A49A4106143BE
:1016D4000646094A094804F081F8011E05DA304635
:1016E4002B4602B0BDE87040184702B070BD00BF81
:1016F40008090020B76DDBB64D58000054650000A2
:101704002DE9F8430022012106460520FFF71CFBC2
:10171400114801F003FB114B984219D104F0D4FB9A
:1017240000244FF01C090C27DFF83480356941464A
:1017340009FB045003F03BFF002807DB012307FBF0
:1017440004551C44042CAB67F0D10020BDE8F88399
:101754006FF00400FAE700BF9D1700000000AD0B16
:101764000C69000001460C2300224B4370B5084865
:10177400C41878331844D4E91C56226703F0EEFFEA
:101784002DB132462B46BDE870400248184770BD63
:101794000809002054650000062812D8DFE800F08C
:1017A400040F1111110D0B00064B986F10F0070078
:1017B40007D1FFF7D7BF0220FBE70320F9E7012099
:1017C400F7E770470809002008B54FF02003EFF34E
:1017D400118183F31288BFF36F8F124A136843F0A9
:1017E40002001060DA0708D481F31188BFF36F8F09
:1017F400BDE80840012004F079BB4FF05023D3F832
:101804000C24D3F80C34DB07EED5074803F0A6FF0D
:1018140081F31188BFF36F8FBDE808400020FFF704
:10182400A1BF00BFA8090020800900201FB5002225
:101834000123CDE902236B46084ACDF800D0CDF848
:1018440004D003F0FAFF002805DB4FF480420023A4
:10185400684602F095FC05B05DF804FB835800006F
:1018640010B54FF02003EFF3118483F31288BFF314
:101874006F8F074A136823F00201DB07116002D45B
:10188400012004F092FB84F31188BFF36F8F10BD25
:10189400A80900202DE9F041012207463749D1E883
:1018A400EF3FC1E8E02F0028F9D133B93449354876
:1018B4004B60CB608A6003F08DFE7B1E012B2BD81E
:1018C400012F07D14FF05023D3F81C3403F0030346
:1018D400022B21D004F0D6FC0546F8B92A4B1B781C
:1018E400E3B14FF0502302220646C3F808234FF019
:1018F4005024DFF89880D4F81824D4F81834D2038C
:1019040016D503F00303022B01D0012F10D175B3B8
:1019140086F31188BFF36F8FBDE8F0814FF0200389
:10192400EFF3118683F31288BFF36F8F0125DEE78F
:10193400C5B13046FFF7BEF9D4F81835DBB2012B38
:10194400D9D1D4F80421002AD5D00022C4F8042126
:10195400D4F804210222C4F818252022C8F88021D2
:10196400A360C8E70021212002F012FFE4E74FF052
:1019740050230222C3F80423CEE700BF0409002049
:10198400F408002024090020410C002000E100E0BC
:1019940008B5074804F01DFC38B10648FFF758FEA7
:1019A4000448FEF769FE002008BD6FF01200FBE753
:1019B40090650000BD1900000A2838B50446074D9B
:1019C40004D1AB680D2128465B689847AB6803488F
:1019D4005B68E1B29847204638BD00BF90650000BF
:1019E40030B5406801F01F04057BB2F5001F85B0D7
:1019F40044EA451405D1204601F092FC002005B0CC
:101A040030BD0025B2F5800FCDE9025514D1B3F1F4
:101A1400007F0CBF042305238DF8083000232046E3
:101A2400194602AA01F09EFA224B98423CD10121A8
:101A3400204601F029FCE1E7B3F1C06F27D0B3F1F0
:101A4400007F14BF012302238DF80830836823FA32
:101A540001F111F00101E1D1B2F1A07FDED104F076
:101A64001F03620903F1800313D0012A1FD1124A14
:101A740052F82330DB07D1D40DF10705294620465F
:101A840001F0ACFB0D4B984205D00395C6E7032348
:101A9400DAE70B4AECE7284601F0F0FB054B9842E5
:101AA400F3D06FF00B00AAE76FF01500A7E751F829
:101AB4002330FFDE0000AD0B002884500400AD0B82
:101AC4000025845010B501F0C9FB044668B901F043
:101AD4009DFB084B98420AD12146074801F078FB48
:101AE400224605210D20FFF72FF9002010BD6FF0CD
:101AF4000400FBE70000AD0B011B00004209034694
:101B040070B502D0012A17D070BD0D4E32695168EC
:101B14000029F9D0012503F01F030C689D4000291A
:101B2400F2D08A682A4002D030464B6898472CB1DC
:101B3400236821461C46F2E7024EE7E72346F8E70E
:101B44007C650000686500002DE9FF41476801F0ED
:101B54001F053B7B144645EA43150E4628460DF106
:101B6400070101F03BFB14F4403F80460DD12846A9
:101B740001F0FCFB3C4B984503D19DF8070001F0B4
:101B840077FB002004B0BDE8F08100232846194605
:101B940002AACDE9023301F0E5F9334B984214D19E
:101BA400804503D19DF8070001F062FBA3034CD5E7
:101BB40040F206332340B3F5837F1AD00DD8062BA9
:101BC40018D005D8B3B1022B32D06FF01500D9E785
:101BD400B3F5807FF9D101230CE040F20222934255
:101BE40028D0B3F5407F27D0B3F5007FEDD1022391
:101BF40000E007238DF8083084F48033C3F30043F6
:101C0400E0068DF809304CBF0323C4F340132103CD
:101C14008DF80A3012D501237A68B340936000220C
:101C2400284602A901F056FA0F4B9842A9D0CCE7F6
:101C34000423DFE70523DDE70323DBE7620341BF7A
:101C440001237A68B340D360E9E7E3064FF0000369
:101C54004CBF0324C4F340141A46284602A98DF845
:101C6400084001F07FF9DFE70000AD0B10B50B4C25
:101C7400204604F0AEFA70B12269A16813682046C8
:101C840023F4001313600B684FF4C0221521984706
:101C940000EAE07010BD6FF01200FBE77C65000005
:101CA400036803F01F025B09026004D0012B0348A0
:101CB40018BF002070470248704700BF00288450B6
:101CC400002584502DE9F04F154681460127DFF8A1
:101CD400788185B000EB8101494503D1002005B02E
:101CE400BDE8F08FD9F8003003F07F04C3F3432636
:101CF4007F2C4FEA134308BF4FF0FF34192B00F237
:101D0400A080DFE803F00D141B1E21281E9E9E9E5A
:101D14009E39676A6D707376797C9E9E7F95989BD9
:101D2400C5F80C45631C77D109F10409D4E7C5F85B
:101D34001445601CF8D04FF0000A77E0C5F8084558
:101D4400F0E7C5F81045F4E7621CC5F80845EBD088
:101D54004FF0000A05E0C5F80C45631CE4D04FF0D1
:101D6400010A03A80394FFF79BFF039B4FF0010BA9
:101D740007FA03F3C36009E0C5F80845002ED8D17B
:101D8400601CD1D04FF0000A0626D346D9F80030A3
:101D940003A803F40052002A1CBF4FF0010A4FF0BD
:101DA400000B01930394FFF77BFF039A019B00EB65
:101DB4008200D0F80022C3F3C114330243EA84033F
:101DC40043EA0B0302EA0802134343EA4A03C0F856
:101DD4000032A9E7C5F80C45D0E7C5F86445BCE76F
:101DE400C5F86445A5E7C5F86845B6E7C5F868458C
:101DF4009FE7C5F86C459CE7C5F87045ADE7C5F8A5
:101E04006045AAE7C5F86045621CD9F800308BD05C
:101E1400C3F38033002BA2D003A80394FFF740FF41
:101E24004FF0010A039B07FA03F38360D346ADE73F
:101E3400C5F86445E8E7C5F86845E5E7C5F86C45C5
:101E4400E2E76FF085004AE7F0F0FCFFF0B54B796C
:101E5400012B29D0032B24D110278B79032B20D1DC
:101E6400CE790EB1012E1CD10A79012A1ED0022A84
:101E740020D0B2B914460B684568B3F5164FD5F8AF
:101E840000C06ED033D8B3F5165F6DD01CD8B3F54F
:101E9400966F6BD010D8B3F5967F6AD0B3F5167FE2
:101EA4006AD06FF085005BE00027D6E74FF48074BA
:101EB4000E22E0E70024FBE7B3F5166F5FD0B3F51D
:101EC400965FEED1384B3CE0B3F5E14F5AD007D8DA
:101ED400B3F5615F58D0B3F5964FE2D1334B30E0A0
:101EE40047F61225AB42DCD14FF4000329E0B3F5E9
:101EF400613F4BD013D8B3F5963F4AD009D84DF67D
:101F0400C025AB4247D0B3F5614FCAD14FF46B0340
:101F140017E0B3F5E13FC4D14FF0EB7311E0B3F533
:101F2400612F3BD008D8224DAB423AD0B3F5E12F14
:101F3400B7D14FF0E86304E01E4DAB42B1D14FF08E
:101F440080530569CCF8243543683A431B6834430D
:101F54002243C3F86C252B1D03C983E8030000202A
:101F6400F0BD4FF41D03ECE7134BEAE74FF49E2357
:101F7400E7E74FF4A033E4E74FF41C33E1E74FF411
:101F84001D23DEE70D4BDCE70D4BDAE74FF06C73F6
:101F9400D7E70C4BD5E74FF46503D2E74FF07063F6
:101FA400CFE74FF08063CCE700B0130000A04E00F1
:101FB40090D0030040420F000050270000C075007D
:101FC40000F03A0000903A012DE9F74380460022E0
:101FD40001210820FEF7B8FE0820FEF785FE002147
:101FE400D8F80470D8F810603C6801AAC4F8001549
:101FF400C6F80080D7F80C90484603F090FC051E04
:102004004CDB019BD9F8002019791868FFF75AFEB8
:10201400051E43DB4046311DFFF718FF0546002827
:102024003CD17B68990712D506F1180000F0DEFE5A
:102034001E4B984236D1307E04F10C0204F59071A7
:1020440003F088FE0120337E984000F061FE0823EF
:10205400C4F800353B7A53B9C4F81031D4F81031C0
:102064007369C4F834350123C4F8383523607B68B8
:102074009A075CBF4FF48073C4F804337B68DB06B3
:1020840044BF4FF48003C4F804333369C4F84435BF
:102094000023C4F848350123A360E360284603B055
:1020A400BDE8F0836FF00405F8E700BF0000AD0B56
:1020B400F8B504460D46076904F0E4F8B0B92E4BB0
:1020C4001B789BB16426606803F083FC00BB01208D
:1020D40003F034FE013EF6D10021212002F058FB2A
:1020E400F0E786F31188BFF36F8FF5E74FF0200315
:1020F400EFF3118683F31288BFF36F8F6068314664
:1021040003F067FC90B986F31188BFF36F8FEDE796
:102114004FF02003EFF3118683F31288BFF36F8F20
:102124006068314603F055FC0028DAD03B691D7025
:10213400626838691368C3F844050120C3F8480588
:102144000020C3F82001D3F82051C3F85801526885
:10215400D3F85801D20608D5082062681268C2F87C
:1021640000054FF48002C3F8042301229A6081F32E
:102174001188BFF36F8FF8BD410C0020F0B50469DE
:102184000646A56C4768236D85B03DB96BBB1946FF
:10219400306905B0BDE8F04003F020BD616C03BBBD
:1021A40031BB3A8F636CAA4228BF2A460091A265CC
:1021B4001BB1A36C002B18BF13460193E36C02936D
:1021C4001BB1236D002B18BF134600226946384605
:1021D400039301F04DFC0E4B984217D06FF00401AD
:1021E400D6E79D4228BF1D46DAE71D46616CD8E755
:1021F40001F06043B3F1005FD3D0082D28BF082558
:10220400206E2A4604F01CF9216ECAE705B0F0BD21
:102214000000AD0B2DE9F04F8FB001934368924657
:1022240002938B8880469A040F46046900F1278143
:102234004FF0FF324FF0FF3304F1100001F0A0FF24
:102244006760D8F81090D8F804B099F85D30DBF8DE
:1022540008C023B1D9F800309F4200F09280B7F84B
:1022640004E01EF4006F40F03F811EF0090F40F0BF
:102274003881CEF34513082B40F033813B68039338
:10228400039AAD4B9A4240F22C81AC4B9C4507D942
:102294004FF05022D2F8582512F0030F18BF9C4675
:1022A40004AD0BF10C060FCE0FC50FCE0FC5039B6B
:1022B40096E80300634528BF63469C46A04B85E827
:1022C40003009C451BD29D4B9C4518D29D4B9C45BD
:1022D40015D29D4B9C4500F2DB809C4B9C4500F243
:1022E400D9809B4B9C4500F2D7809A4B9C4500F2C9
:1022F400D5809949994B9A4A8C4588BF13461EF05C
:10230400020F09930EF0040300F0CA80002B14BFDF
:10231400032302238DF82830CEF300138DF82930DF
:10232400DBF800301EF0020FD3F80835CEF340017D
:102334004FEA531203F01F0340F0B880002A00F064
:10234400B380012A40F0F3808649012202FA03F3A4
:10235400CB6099F85D302BB1584601F041FB002366
:1023640089F85D304B4658467F4A04A901F00AFBC0
:102374007E4B984240F0A5800123C9F8007089F88B
:102384005D30012384F85C30029B186C431C01D03F
:1023940003F08CFCBAF1000F40F0A980C4F834A01B
:1023A4000023A36304F1480204F1380104F134006A
:1023B40003F062FB019B6064002B40F0A180E363A7
:1023C4000023236404F1500204F1400104F13C00B1
:1023D40003F052FB0023E0642068236348B1836860
:1023E4003BB10121083003F05AFB2368186903F05C
:1023F400EBFE4046FFF7C2FE00221346A06B834269
:1024040040F0878000231946256CA94240F088805B
:10241400934238BF134626464FF4FA52002702FB74
:1024240003F556F8203B4FF4004C1B683946B5FBC6
:10243400F3F540F2E730C8354FF47A720023E5FB38
:102444000C01FDF785FE02460B46304601F098FE6E
:1024540018B9256B15F1740F35D10298A76501F0F1
:10246400BFFA84F85D706FF07301D8F8100003F0C0
:10247400B5FB304601F0ACFE6FF0730523E0A369B1
:10248400002B7FF4D5AE636899427FF4D1AED8E6D1
:10249400374B34E7374B32E7374B30E7374B2EE7D0
:1024A400003B18BF012335E735494EE73AB1012A0D
:1024B4003FD12C49012202FA03F38B6049E73049EA
:1024C400F8E76FF0040523689B8813F4005304D1E4
:1024D400636004F1100001F02FFE28460FB0BDE840
:1024E400F08F6FF01505EEE76FF08505EBE7DAF88E
:1024F40000306363002B3FF453AFDAF8043050E745
:10250400019B1B68E363002B3FF45AAF019B5B689C
:1025140057E7616B01EBC301496801330A446EE775
:10252400E06B00EBC1004068013103446DE7C96012
:10253400FFDE00239B60FBE747E801000024F40072
:102544000048E80100127A00FF083D007F841E0065
:102554003F420F001FA107008FD0030048E801008D
:1025640090D0030000288450195C00000000AD0BDB
:1025740000093D0080841E0040420F0020A1070096
:102584000025845000F01F0240090DD001280DD110
:10259400094B03EB8203D3F80002084A024042EAE3
:1025A4008102C3F800227047054BF2E70023803212
:1025B40053F82230FFDE00BF00288450F0F0FCFF07
:1025C40000258450012330B585B08DF804300223F2
:1025D40005460DF107008DF80830039000F04EFE1B
:1025E4000C4B044698420FD10023284602AA01A9A5
:1025F40000F0B8FCA0420AD09DF8070000F038FEB5
:102604006FF0040005B030BD6FF01200FAE700204F
:10261400F8E700BF0000AD0B0123834070B5DC4335
:102624000B4AD2E8EF1F01EA0405C2E8E65F002E78
:10263400F7D14FF4803282400648C0F80823BFF334
:102644005F8FBFF36F8F0B4214BF0120002070BD5A
:10265400C80900200050015070B40E4922F07F4692
:10266400D1E90034D01AC31844F10004C1E900349C
:10267400A6F50013B3F5400F09D2074B1B681A0ADD
:102684001B069C19054B42F10005C3E9004570BCCB
:1026940002F0D4B978020020CC0900208002002086
:1026A400D9B101230D4A8340D2E8EFCF4CEA030CA1
:1026B400C2E8E1CF0029F7D14FF48033084A8340C0
:1026C400C2F80433074BD3E8AF3FC340DB0742BF34
:1026D4004FF40012044BC3F800217047C8090020CE
:1026E40000500150C409002000E100E00D4B1868BF
:1026F400010A0006BFF35F8F0B4BD3F8043518189B
:1027040041F10001B3F5801F0AD2084BD3E900233D
:10271400904271EB030303D210F1807041F1000188
:10272400704700BFCC0900200050015080020020F7
:102734002DE9F04F85B016461F4604469DF840A08B
:10274400FFF76AFF0190FFF7D1FFB04271EB070377
:1027540052D23B4B301A67EB0101984271F10001F0
:102764004DD2384B03EB0413D3E902239F4208BF35
:10277400964258D04FF48038334908FA04F820467A
:1027840026F07F4BC1F8488303F0B8FA4FF00309F1
:10279400584604F15005AD00ADB205F1502504F5DD
:1027A400A87305F580350293029A20F07F4341F81F
:1027B4002230C1F84483D1F80435244AC01A0338BE
:1027C40020F07F4090422ED9286868B1D1F80435B2
:1027D400A3EB0B0020F07F40B0F5000F039322D948
:1027E400204603F08BFA039BBAF1000F07D109EBE3
:1027F400030009F10109D7E7BAF1000F09D06FF01E
:10280400150520460199FFF74BFF284605B0BDE8A2
:10281400F08F01230E4AA340D2E8EF0F1843C2E819
:10282400E10F0029F8D107490E982301C8500F9BE6
:1028340001EB04120025C2E902675360E1E700BF1F
:10284400010080006802002000500150FDFF7F005D
:10285400C40900207FB500254FF0FF304FF0FF3151
:10286400194C1A4B0226C4F80833C4F84833184BE1
:10287400C4F80855C3E902014FF480334FF4001241
:10288400C4F80433134B0121C4F804631520C3F8BE
:1028940080212A46FEF758FA1520FEF725FA01236F
:1028A4000D4AA360236013600C4B0D4A0093284625
:1028B4000023CDE90155FFF73BFF3046FEF7EAFF61
:1028C400284604B070BD00BF0050015003000F0043
:1028D4006802002000E100E0C80900205D26000035
:1028E400FFFF7F002DE9F7432E4BD3F80423900715
:1028F4000BD5D3F8042142B10022C3F804212A4A9B
:10290400D3F80431136801331360264AD2F8043330
:10291400D90327D5254BD3E8EF1F21F00100C3E8E5
:10292400E40F002CF7D1CB0702D4D2F84031CBB15D
:1029340000251C4CC4F84051D4F84031FFF7D6FEB2
:102944004FF02003EFF3118283F31288BFF36F8FEC
:10295400174BD3E90267B042B94106D282F311881A
:10296400BFF36F8F03B0BDE8F0834FF0FF38D3E9B6
:1029740000104FF0FF391D60C3E902894FF4803322
:10298400C4F84833C4F84051D4F8403182F3118874
:10299400BFF36F8F0029E5D0009032463B462846AE
:1029A4008847DFE700500150CC090020C40900200B
:1029B400680200201FB5431C22D0012822DD124AE0
:1029C400124B9042D4BF04461C46FFF78FFE104BB7
:1029D4000E49D3E90023801AB0F5000F28BF002464
:1029E40004448C4228BF0C4600200A49A218CDE9B1
:1029F4000100009143F10003FFF79AFE04B010BDFB
:102A0400024CE2E70124E0E7FEFF7F00FFFF7F00C6
:102A1400780200205D26000008B5FFF767FE024B30
:102A24001B68C01A08BD00BF78020020012310B53E
:102A3400074C15206360FEF765F94FF40012054B4F
:102A4400C4F80833C4F84833034BC3F8802110BDDD
:102A54000050015003000F0000E100E04FF47F0339
:102A6400D3F83021D3F83431072A05D1023B032BA4
:102A740002D8024AD05C704700207047E36D000022
:102A840008B5FFF7EBFF58B1784BD3F8202A3AB9D1
:102A94000D21C3F8201A0121C3F81C19C3F81C29FD
:102AA4000022D30003F57F03D3F80013013107D0CC
:102AB400D3F800130132D3F80433202A0B60F0D189
:102AC400FFF7CCFF002840F0B980FFF7C7FF40B103
:102AD400674B684AC3F830254FF050230122C3F8EE
:102AE40058254FF47F03D3F83021D3F83431072A23
:102AF40009D1023B032B06D85F4AD35C1BB10022E9
:102B04005E4BC3F84C25FFF7A9FF50B14FF050239B
:102B1400D3F80024D00742BF0022C3F81421C3F81D
:102B240018214FF47F03D3F83021D3F83431072A26
:102B340009D14FF05023D3F80024D10744BF6FF0DC
:102B44000102C3F80024FFF789FF18B16522474B3F
:102B5400C3F80C274FF47F03D3F83021D3F8343172
:102B6400072A16D1454BD3F82034002B11DA4FF045
:102B740050230322C3F8182501229A60D3F80421B4
:102B8400002AFBD00022C3F804210122DA60C3F832
:102B940018254FF47F03D3F83021D3F83431072AB2
:102BA40023D1023B032B02D8354AD35CEBB17E22FE
:102BB4002E4B2F49C3F80C27C3F83C297F23314AF5
:102BC400C2F818310023C1F8043EC1F8083E01F5EB
:102BD4004821C1F81031C2F82431C2F82C3102F571
:102BE400FF1202F58052C2F8A032274B9A6AD2072C
:102BF4002CD501211E4AC2F80415D2F8001400296C
:102C0400FBD09A6A22F001029A62194BD3F800248D
:102C1400002AFBD00022C3F80425D3F80024002A9C
:102C2400FBD0BFF34F8F1949194BCA6802F4E06215
:102C34001343CB60BFF34F8F00BFFDE729220B4B3B
:102C4400C3F80C270322C3F83C273EE70F49D1F809
:102C54008C2042F44062C1F88C2019680D4AC2F8F5
:102C64004415DB69C2F84C3508BD00BF0040005074
:102C7400009003504400EFBEDF6D000000200350BD
:102C8400DB6D0000002000500080FF0000ED00E03C
:102C94000400FA050060005030B50468ACB1B4FA21
:102CA40084F30122C3F11F03DBB29A4024EA020237
:102CB400D0E8EF5FA54204D1C0E8EC2FBCF1000FCF
:102CC400F6D1EAD102480B7030BD0248FCE700BFE0
:102CD4000000AD0B0200AD0B10B50368CB40DB0761
:102CE40010D401238B40026843EA0201D0E8EF4F7D
:102CF400944204D1C0E8EC1FBCF1000FF6D1F2D12C
:102D0400014810BD0148FCE70000AD0B0400AD0B09
:102D1400014BC3F80405704700700150044B1A7945
:102D240022B9012218601A7102487047024870479C
:102D3400D00900200000AD0B0C00AD0B4FF0502368
:102D440010B5D3F8002152B10020C3F80001D3F824
:102D540000210122C3F80823234B1B6898474FF036
:102D64005023D3F8042182B10022C3F80421D3F8FC
:102D74000421D3F81824D3F81824022102F0030202
:102D8400012A28D1C3F818159A604FF05023D3F8BC
:102D9400202162B10022C3F82021D3F820214FF46E
:102DA4008072C3F80823104B05201B6898474FF026
:102DB4005023D3F82421AAB10022C3F82421D3F844
:102DC40024214FF40072C3F80823074B0620BDE802
:102DD40010401B681847C3F80813034B01201B68F5
:102DE4009847D2E710BD00BFD00900200146014832
:102DF400FFF752BF1C010020036803F01F025B09A8
:102E0400026004D0012B034818BF00207047024819
:102E1400704700BF0028845000258450034A4309AA
:102E2400D35C00F01F001844C0B27047FC6D000072
:102E340008B5FFF7F3FF034B083033F81000C0F375
:102E4400401008BD2001002008B5FFF7E7FF034B41
:102E5400083033F81000C0F3400008BD2001002002
:102E640008B5FFF7DBFF034B083033F81000400BC5
:102E740008BD00BF2001002070B50546FFF7CEFF56
:102E84000C4C083034F810300E46DA0508D5C3F37C
:102E9400432304EBC302284654F83330526898475E
:102EA400A3682BB131462846E268BDE87040184754
:102EB40070BD00BF2001002010B5FFF7AFFF124A1C
:102EC400083032F81030D9051CD5C3F3432123F45C
:102ED400F85322F81030002002F10E0434F8023FB7
:102EE40013F4807F03D0C3F3432399420AD0013003
:102EF4003028F3D1002342F831300448BDE81040B3
:102F0400FFF7EABE10BD00BF20010020940100209D
:102F140001460020F0B5012506460F4A0F4C02F188
:102F24003043A3F551439B0805FA03F3194204D037
:102F3400176817B11660176818430432A242EED11D
:102F4400074BD3F87C2132B10022C3F87C21D3F89B
:102F54007C3140F00040F0BD00D1005020D1005041
:102F640000D000502DE9FF41054690461E46FFF76C
:102F740055FF044609B32846FFF766FF18B12846F3
:102F8400FFF756FF28BB00230DF10F02CDE90033F4
:102F94008DF80E308DF80F3028460B460DF10E01DA
:102FA40003F005F8474A04F1080132F8113023F020
:102FB400020343F0010322F81130B8F1000F32D0BC
:102FC400284698F80070D8F80410FFF73DFF10B1B8
:102FD400F1B13D4829E03B4804F1080C30F81C30BD
:102FE40023F02003DB04DB0C20F81C3081B1032F19
:102FF400EFD8D8F8042092F800E07246920002F16B
:10300400A04202F550429FB9C2F81075C2F810757B
:103014002C4A04F1080132F8113023F01C0343EA6E
:10302400870322F811301EBB284804B0BDE8F081A4
:10303400D2F8101543EA4E3321F00301C2F81015FB
:10304400D2F8101543F0200321F44F3121F44071DC
:10305400C2F81015D2F81085290201F47C5141EA16
:10306400080141EA0741C2F8101520F81C30CFE7E7
:103074002846D6E90076FFF71FFF002FD4D0114D64
:10308400D5E90023974201D19E4218D010480DF192
:103094000F01FFF701FE0D4B9842C6D19DF80F209A
:1030A40005EBC20308345E6035F8143045F832701D
:1030B40043EA422343F4807325F81430B4E7002232
:1030C400EEE700BF200100200400AD0B0000AD0BB3
:1030D400940100202DE9FF4104461646FFF79EFEA9
:1030E400054631B32046FFF7AFFE20B92046FFF76F
:1030F4009FFE002863D1334F05F1080837F81830D4
:1031040013F01C0F02D04B78012B58D001238DF8FB
:103114000F3000234A1CCDE9001320468B1C0DF10F
:103124000F0102F044FF37F8183043F0030327F887
:1031340018301EB9244804B0BDE8F0812046FFF7DA
:1031440083FE00283BD096F800C0002361461D4F43
:1031540005F1080037F81050890025F0200501F129
:10316400A041ED0401F55041ED0CC1F8103527F8EC
:103174001050C1F810357278002ADBD0D1F8103520
:10318400B67823F4991323F4F853C1F810351204D4
:103194002302D1F810E502F4403203F47C531343C4
:1031A400320543EA0E0302F4801245EA4C35134318
:1031B40045F02005C1F8103527F81050BAE7034848
:1031C400B9E700BF200100200000AD0B0400AD0BE7
:1031D400014BC3E9020170472001002010B50446E9
:1031E400FFF726FE50B12046FFF718FE044B0830C7
:1031F40033F8103003485B0B0B7010BD0248FCE73A
:10320400200100200000AD0B0400AD0B70B50F4C85
:1032140094F87860BEB90E4D6022314604F1100076
:1032240003F01BF90D20C5F87C61D5F87C31FDF75E
:103234005BFD4FF00043C5F804330123054884F8CF
:103244007830636770BD0448FCE700BF20010020AC
:1032540000D000500000AD0B0500AD0B034B93F8FC
:103264007800003818BF0120704700BF20010020FB
:1032740001460148FFF730BD900100200146014896
:10328400FFF70ABD9001002037B50446FFF7D0FDD3
:1032940008B32046FFF7D8FD0546E0B92046FFF7FE
:1032A400DFFD03B29B0003F1A04202F5514203F19A
:1032B400A043156003F550431268D3F8102542F07B
:1032C4000102C3F8102521B10123134A8340C2F837
:1032D400043303B030BD2046FFF7A0FD0F4B083088
:1032E40033F81030C3F38203042B11D0052B11D013
:1032F40001A80194FFF780FD019B0169D94001F009
:1033040001010231204603B0BDE8304002F098BE0E
:103314000321F7E70221F5E700D000502001002047
:1033240010B50446FFF784FDC0B12046FFF78CFDBD
:10333400A0B92046FFF794FD01230B4A8340C2F84D
:10334400083303B29B0003F1A04303F55043D3F8C1
:10335400102522F00302C3F8102510BD2046BDE855
:103364001040002102F06CBE00D0005073B504463A
:10337400FFF754FD1A4E00F1080536F81530DB0747
:103384002CD52046FFF7CCFF2046FFF751FD68B14E
:103394002046FFF765FD002203B29B0003F1A04322
:1033A40003F55043C3F81025C3F810252046FFF752
:1033B40083FD002301A826F815300194FFF71CFDB6
:1033C400019B00EB8300D0F80022064B134043F02E
:1033D4000203C0F80032044802B070BD0348FBE7A2
:1033E40020010020F0F0FCFF0000AD0B0400AD0B49
:1033F4002DE9F04F604B87B0D3F80403C0B240F01E
:103404000040FFF785FD051E80F29980DFF86C917E
:10341400D9F820300493C9F82030594B1A6A059220
:103424001A624FF0000A0DF11008564B0AEB030B19
:103434004CE093FAA3F3B3FA83F39BF800400193AF
:1034440043EA44142046FFF7E9FC4F4B083033F8B5
:1034540010700120019B0394DA0803F007039840DD
:1034640018F80230B90823EA000308F8023003A868
:10347400FFF7C2FC039BC7F38206803350F8233066
:103484004A073746C3F301432CD520463946DEB2FA
:10349400FFF7F2FC03A80394FFF7AEFC039B803311
:1034A40050F82330C3F301439E4207D10021204644
:1034B40002F0C6FD3146204602F0C2FD03A8039483
:1034C400FFF79AFC0123039A93400362D8F8003073
:1034D400002BAED108F10408BAF1000F1DD14FF052
:1034E400010AA2E7022B0CD10321204602F0A8FD19
:1034F40006F00503012BE1D139462046FFF7BCFC59
:10350400DCE702212046019302F09AFD032EF3D05A
:10351400019B032BD2D1022EEDE74FF00040FFF7C1
:10352400F7FCD9F8203016490493C9F820300A6A08
:10353400134305920A627FF474AF25F00045012419
:1035440015B907B0BDE8F08F95FAA5F3B3FA83F384
:1035540004FA03F29B0003F1A04303F55043D3F8AC
:103564001005D3F81015C0F30520C1F3014125EA75
:103574000205FFF781FCE3E700D0005000258450EA
:10358400002884500C6E000020010020036803F022
:103594001F025B09026004D0012B034818BF0020FE
:1035A40070470248704700BF0028845000258450AB
:1035B4004B69304A93424BD00DD82F4A934247D09F
:1035C40007D82E4A934243D02D4A934240D02D48E7
:1035D40070472D4AF9E72D4A934208D004D82C4A63
:1035E400934235D02B4AF0E72B4A9342EFD102792C
:1035F400002A3CD091F823201AB191F82420002A03
:1036040033D10068254A90422FD1234A93422CD1CA
:103614000B685A1C01D0082BD9D14B68581C01D017
:10362400092BD4D18B685A1C01D00A2BCFD191F825
:10363400213023B1CB68581C01D00B2BC7D1CB69E7
:1036440017485A1C15D00F4A0C2B18BF1046704748
:1036540091F8212012B1CA680132C8D1CA69013275
:10366400C5D191F82320002AC7D10D4870470D48D1
:103674007047704780841E0020A1070048E80100BD
:1036840090D003000400AD0B40420F000024F4006E
:1036940000093D0000127A000048E80100A0005033
:1036A4000000AD0B0300AD0B73B51646421C1C465F
:1036B4000546069B18D0012902D1BBB102F033FDA7
:1036C40001A80195FFF762FF019B240200EB830030
:1036D400D0F80022074B44EA86040C4313401C43F1
:1036E40044EA4101C0F8001202B070BD02F027FDA7
:1036F400E6E700BFF0F0FCFF2DE9F04F8C4B4D697D
:1037040006469D420C4690F8049087B000F0E8808D
:1037140000F2D880874B9D4200F0E58000F2CA8019
:10372400854B9D4200F0E280844B9D420CBF4FF0DC
:1037340080654FF080452422814F94F8230002FBDA
:103744000973997F60F3000199773379217C02FB37
:103754000373D97794F82380B8F1000F34D16269E8
:10376400784B01219A420CBF4FF0030A4FF0000A34
:10377400237E4246012B94BF00230123009320683B
:103784005346FFF791FFCDF800805346424601218E
:103794006068FFF789FFCDF8008053464146A27E5A
:1037A400A068FFF781FF237C424683F00103009366
:1037B40001215346E068FFF777FF0121009153464A
:1037C4004246E069FFF770FF317994F8213000290F
:1037D40000F09580002B00F0928024224FF0FF30FF
:1037E40002FB09721062627E94F8210094F8129030
:1037F40094F818E0D4F81CC00492002800F08980E2
:10380400E06894F8108094F822B094F820A0CDF8E1
:10381400148029B1002B7FD11CF1010118BF0121B3
:1038240094F824803368B8F1000F0CD12268029216
:103834006268A4680392029AC3F80825039AC3F83D
:103844000C25C3F81045049AC3F8C095003A18BF74
:103854000122BEF1020FC3F824555FD0BEF1030F5D
:103864005FD0BEF1010F01D142F00202C3F854252A
:1038740091B1B8F1000F0DD1BCF1FF3F18BFC3F8EF
:103884006CC5421C1FBF059AC3F81405C3F868250C
:10389400C3F864B5C3F860A5242233795343FB58B5
:1038A400002B41D0306840F3073007B0BDE8F04F3B
:1038B400FDF71ABA244B9D420CBF4FF080554FF0D0
:1038C400804538E7214B9D4213D01E4B9D4213D0B7
:1038D4001F4B9D420CBF4FF000454FF080452AE737
:1038E4004FF0005527E74FF0006524E74FF00075CF
:1038F40021E74FF020651EE74FF0A0551BE7242079
:1039040000FB0979E268C9F82020227C89F81F208D
:1039140069E74FF0FF3074E7012181E742F00402C8
:10392400A4E742F00602A1E707B0BDE8F08F00BFAC
:1039340080841E0020A1070048E8010090D0030005
:10394400D80900200048E80140420F000024F40098
:1039540000127A00431C07B50ED0019001A8FFF7AE
:1039640015FE019B00EB8300D0F80022044B1340AA
:1039740043F00203C0F8003203B05DF804FB00BF5B
:10398400F0F0FCFF2DE9F041242690F80480114C5E
:1039940006FB08F604EB060C9CF81CE00546BEF199
:1039A400000F15D1A251CCF8043039B1FFF700FE55
:1039B400094B98420AD12846FFF79EFE242303FBB5
:1039C400084400236377012303482377BDE8F0818B
:1039D4000248FBE7D80900200000AD0B0500AD0B41
:1039E4002DE9F0410446067900681F4D40F3073085
:1039F400FDF788F924237343EB5853B123681B4A1A
:103A040006EBC601C3F80823206805EB810102F028
:103A1400A2FB242101FB06512368D3F80805D3F83F
:103A24000C75D3F810858B7FDB0716D4FFF792FF54
:103A34004046FFF78FFF3846FFF78CFF086AFFF711
:103A440089FF23794BB12368D3F86C05D3F8141597
:103A5400FFF780FF0846FFF77DFF242303FB06558D
:103A640000232B77BDE8F081D8090020520108001B
:103A740024232DE9F0430779524D7B439046EA18FD
:103A84000E46517F814685B0002940F09880EB585E
:103A940023B118F0140F04BF01235377242496E8AC
:103AA4000F0004FB075404F10C0C8CE80F00206A8F
:103AB400431C03D0E37FD3B102F035FB3368D9F85C
:103AC400004023B103F06043B3F1005F06D1B36853
:103AD40083B103F06043B3F1005F0BD024230022D1
:103AE40003FB075338485A7705B0BDE8F08302F06A
:103AF40026FBE3E718F0010318BF0123C4F850358F
:103B040018F0020318BF0123EC46C4F8403596E8C8
:103B14000F008CE80F00039BC4F84405C4F8481553
:103B2400C4F83425C4F838350023C4F81831D4F85F
:103B340018310723C4F8003524237B4318F0080FF9
:103B440005EB03021DD10121E858216158B9D4F8CD
:103B54001831002BFBD062464021204602F0A5FA22
:103B640024237B43EA18EB5803BB106A411C12D18F
:103B740007EBC707204605EB870102F0ECFA134870
:103B8400B2E7EB5893B9106A431CF8D0D37F53B112
:103B940002F0D5FAF3E7D37F13B102F0D0FAE7E7E6
:103BA40002F0C1FAE4E702F0BEFAE8E7402318F0B5
:103BB400040F14BFC4F80833C4F80433DFE704481F
:103BC40092E700BFD80900200A00AD0B0000AD0B3E
:103BD4000B00AD0B0149024802F0D3BAD80900200A
:103BE40000B000500149024802F0CBBAFC090020A1
:103BF40000A0005038B503464FF02002EFF31185C2
:103C040082F31288BFF36F8F02F058FC064A1458EF
:103C1400184602F083F885F31188BFF36F8F2046AE
:103C2400BDE83840FDF778BB08000000104B70B5C4
:103C340053F82040013053F82060A64200D870BDEC
:103C4400D4E9003595B153B12846984738B10028D6
:103C5400B8BF4042FF28A8BFFF20EB681870EA688D
:103C6400537843F0010353700834E6E79847FBE7C1
:103C7400D46A0000012208B5094B03201A70FFF72B
:103C8400D5FF00F05FFF0420FFF7D0FF00F042F9FA
:103C9400FCF7B4FC034A137B23F00103137308BD40
:103CA400410C00200803002008B50348034A002102
:103CB400121A02F099FA08BD68020020440C002090
:103CC4000023012270B586B0CDE904230F220193AD
:103CD400CDE9023214234FF4A0720446114D124E62
:103CE40003FB0055114906EBC01602FB0011104BF3
:103CF4003046009500F0D0F8737B2C7423F0040355
:103D040073730C4B013403EBC4236B600A4BEE60FA
:103D1400D3E8EF1F0131C3E8E21F002AF8D106B04F
:103D240070BD00BF240A002088020020481400202F
:103D340095620000480C0020200A002080B5002075
:103D4400A6B0FFF773FF2D4B03F5006282F30888DA
:103D540083F30A880024E023294D2A4E85F8223073
:103D6400EC772C766C76AC7685F820406B6A264F1F
:103D740043F4E0236B6285F82340FDF731FAFCF746
:103D840077FF4FF0FF33AB62EB62FDF733FCFDF7D7
:103D9400D9FA40F20113ADF8243006ABB360CDE993
:103DA4001E44219402F014FA0120FFF73FFF022081
:103DB400164DFFF73BFF00F061FC154B7561059351
:103DC400012314494FF48062CDE9034328463B465E
:103DD400CDE90144009400F05FF806466A7B28466A
:103DE40022F004026A7302F0A8FA2046FFF768FF83
:103DF4003A4631462846FDF757F800BF480C0020E4
:103E040000ED00E0240A0020793C000008030020B3
:103E1400246E000088150020002038B5054C064D9E
:103E2400AC4200D338BD204602F0E2F90028F9DBA9
:103E34001C34F5E7120200201202002073B50C4670
:103E44004FF02005EFF3118185F31288BFF36F8FD4
:103E540045695DB125602B684361836901338361E2
:103E6400002081F31188BFF36F8F11E052EA03063B
:103E740003D16FF00B002560F3E7CDE90023024680
:103E8400083000F005FB18B9024B9B685B6923609E
:103E940002B070BD240A00202DE9F043984685B095
:103EA40000F15803C0E91633109B00260373042362
:103EB400073222F0070543730F9B01EB05090F46F8
:103EC40083734946C0E906668660C6730446FDF7F7
:103ED40019F80E9B073020F00700A066C4E9187596
:103EE40002930D9BA9EB000901930C9B4A46009396
:103EF400394643462046FCF7BBFF054B66659B6885
:103F040003B1DB6E4846E36605B0BDE8F08300BF4D
:103F1400240A00202DE9F043294C2A4D87B0264677
:103F2400AE4204F12C040FD300F078FB4FF40046AA
:103F340040F2E737224CDFF89090AC4220D307B030
:103F4400BDE8F04300F07EBB54F8043C059354F8FC
:103F54000C3C049354F8103C039354F8143C02931F
:103F640054F8183C019354F81C3C009354E9092379
:103F740054E90B01FFF790FF54F82C3C5E65CEE743
:103F8400636A5A1C0DD00021384623EAE373C3FB4D
:103F9400060151EAC333D4F8008004D1404600F04E
:103FA400EDFA2C34C9E74FF47A720023FCF7D0F809
:103FB40002460B4608F11800494600F0C9FCF0E738
:103FC4000868000008680000A36300002DE9F341BD
:103FD400044617461E464FF02003EFF3118883F37F
:103FE4001288BFF36F8FC368334A7BB180689168CE
:103FF400884219D057EA060318D188F31188BFF311
:104004006F8F6FF00F0002B0BDE8F081916891F9F5
:104014000E100133E36093682161A36088F3118873
:10402400BFF36F8F0020EEE72169F2E791F90E10DC
:1040340090F90E306FF07E029942A8BF1946914262
:10404400B8BF11468B422EDD02F02EF905462246FA
:104054004146CDE90076194800F01AFA0028E1D06B
:104064004FF02003EFF3118683F31288BFF36F8FB1
:10407400A068D0B1236821699C420AD04BB193F95E
:104084000E309942A8BF19466FF07E039942B8BF1B
:10409400194602F009F940B13146084800F05CFACB
:1040A4006FF00A00AFE70025D1E7002DF4D186F3C5
:1040B4001188BFF36F8FF3E7240A0020420C00201D
:1040C40038B5836804466BB3194A926893422CD17D
:1040D400C368012B03D9013BC360002038BD4FF0F6
:1040E4002003EFF3118583F31288BFF36F8F016907
:1040F400806802F0D9F8204602F055F9A06058B162
:1041040090F90E2022610022826702F016F92946F6
:10411400084800F021FAE0E7E06085F31188BFF376
:104124006F8FDAE76FF01500D8E74FF0FF30D5E76F
:10413400240A0020420C002038B504464FF0200326
:10414400EFF3118583F31288BFF36F8F02F02BF91D
:1041540048B10022826702F0F0F82946BDE83840F1
:10416400064800F0F9B9D4E902329A4218BF013383
:10417400A36085F31188BFF36F8F38BD420C002014
:1041840013B54FF02004EFF3118184F31288BFF3C9
:104194006F8F846844B1013C846081F31188BFF35C
:1041A4006F8F002002B010BD52EA030406D181F3E0
:1041B4001188BFF36F8F6FF00F00F3E7CDE9002391
:1041C4000246024800F064F9ECE700BF420C00200C
:1041D40070B504464FF02003EFF3118583F3128882
:1041E400BFF36F8F6FF00A06204602F0DCF818B1B7
:1041F400866702F0A2F8F7E7A0602946BDE87040A0
:10420400014800F0A9B900BF420C0020C3897F2BEC
:1042140012D80A4B1B6863B1094B90F90E201B6836
:104224009A4209DB437BDB0606D1064BC31A18BF4F
:10423400012303F0010070470023FAE74C0A002031
:10424400480A0020880200200122044BC01A044BB3
:10425400C0105843034B1A54704700BF8803002012
:10426400ABAAAAAA420C002070B50E4B0E4C1E7CC1
:10427400054606EB460304EBC304204602F0C5F8EA
:1042840000220A4B28469A55FFF7C0FF48B1084B55
:104294002046BDE870401A680649013AD31700F079
:1042A40057BB70BD240A002088030020420C002064
:1042B4004C0A00204D42000038B50D4D2B4653F8F2
:1042C400184F9C4200D004B9EC68AB6838B95A7BEB
:1042D400D20604D1A26912B9DA897F2A05D89C4290
:1042E40002D02046FFF7C0FF23466B6138BD00BFF4
:1042F400240A002070B590F90D200146002A437B62
:1043040004DA03F07F03437301F0DDFF154A4B7BAE
:10431400104663F07F034B7350F8183FD46983420F
:1043240008BF002323B9C1E900042160D1610CE076
:1043340091F90E5093F90E60B5420ED0AE420CDDE9
:104344005868C1E90030016059609068BDE8704068
:10435400431A58425841FFF7AFBF9C42E3D01B6851
:10436400E0E700BF240A002070B490F90D30427BCE
:10437400002B29DBD30627D183692BBB134962F0B9
:104384007F0242730A4652F8184F944218BF2346DC
:10439400CC6923B9C0E900242060C8610CE090F91D
:1043A4000E5093F90E60B5420AD0AE4208DD5A6849
:1043B400C0E9003210605860002070BCFFF77CBF79
:1043C400A342E7D01B68E4E770BC7047240A0020CE
:1043D40008B590F90D200146002A437B04DA03F066
:1043E4007F03437301F06FFF044B9868431A5842EC
:1043F4005841BDE80840FFF75FBF00BF240A002012
:1044040070B515461C46064601F06FFFB4F1FF3F38
:1044140008BFB5F1FF3F08D02A46234606F118002D
:104424000249BDE8704000F093BA70BDA363000078
:1044340038B54FF02003EFF3118583F31288BFF3EF
:104444006F8F104B104A9C681068A04206D1FFF78A
:104454000BFF85F31188BFF36F8F38BD00211B7CE0
:1044640011600A4AD35C002BF3D02046FFF7CEFE3E
:104474000028EED0637BDB0602D12046FFF73AFF2B
:104484002046E4E7240A0020440A0020420C0020CD
:1044940070B50C480C4D86680C462E601146DDE95B
:1044A40004234FF02006EFF3118586F31288BFF33F
:1044B4006F8F8068FFF7A4FF2046BDE87040FCF7CB
:1044C40079BC00BF240A0020440A0020F8B5044641
:1044D4004FF02003EFF3118683F31288BFF36F8F3D
:1044E400437B49B2DA0619D18569BDB903F07F036C
:1044F400437301F0E8FE437B164A63F07F03437382
:104504001346817353F8180F984218BF0546D069B3
:104514005DB9C4E900300460D46111E00020A173E6
:1045240086F31188BFF36F8FF8BD95F90E70B94209
:104534000BD08F4209DD6B68C4E900531C606C60CA
:104544000120FFF7B9FE0120EAE7A842E1D02D6877
:10455400DEE700BF240A002049B9EFF3058030B933
:10456400054B5A699B689A4201D0FCF723BC81F33E
:104574001188BFF36F8F7047240A002010B54FF0E5
:104584002002EFF3118482F31288BFF36F8F427B12
:10459400510704D484F31188BFF36F8F10BD22F048
:1045A40004024273FFF7E0FE2146BDE810400148D3
:1045B400FFF7D2BF430C002070B50446183001F059
:1045C40024FF4FF02003EFF3118683F31288BFF327
:1045D4006F8F94F90D20637B002A05DA03F07F03C3
:1045E4002046637301F06FFE0B4D637BA86843F0B4
:1045F40010036373031B58425841FFF75DFE86F3B3
:104604001188BFF36F8FAB68A34203D1BDE870403C
:1046140001F0F1BE70BD00BF240A00204FF020035A
:10462400EFF3118183F31288BFF36F8F044B9A6801
:10463400D37B013BD37381F31188BFF36F8F704732
:10464400240A002010B54FF02003EFF3118483F304
:104654001288BFF36F8F084B00209A68D37B013315
:10466400D373FFF729FE84F31188BFF36F8FBDE87E
:10467400104001F0C0BE00BF240A0020024B03F129
:104684001802C3E906227047240A0020F8B54FF047
:104694002003EFF3118583F31288BFF36F8F194959
:1046A4008868437B03F07F03437301F00CFE0846E4
:1046B4008B685A7B62F07F025A7350F8182FCC69CA
:1046C400824208BF002222B9C3E900042360CB61FF
:1046D4000CE093F90E6092F90E70BE420ED0B74210
:1046E4000CDD5168C3E900210B6053600120FFF722
:1046F400E3FD2846BDE8F840FCF75CBBA242E3D0EA
:104704001268E0E7240A002050EA01032DE9F04191
:1047140005460E4603D1FFF7B9FF00202CE0831CA9
:1047240071F1FF332ADB01F086FE2C184FF02003D1
:10473400EFF3118883F31288BFF36F8F114F124B7D
:10474400B8681860FFF744FEB86810492A46334633
:10475400183000F0FDF8BA684046537B43F010036C
:104764005373FCF727FB01F066FE201A63EB030387
:10477400012873F10003D0DBBDE8F0816FF0010480
:10478400241AD3E7240A0020440A0020A36300006B
:10479400B1F1FF3F08BFB0F1FF3F08B506D1084BA8
:1047A4009868FFF709FF4FF0FF3008BDFFF7ACFF33
:1047B4004FF47A7380FB0303C00B40EA4340F4E7F1
:1047C400240A0020014B9868704700BF240A002087
:1047D4002DE9F04104464FF02003EFF3118683F3F3
:1047E4001288BFF36F8F037BD9070BD586F311882B
:1047F400BFF36F8F404080F311884FF0040002DF55
:10480400BDE8F081437B1A0704D586F31188BFF312
:104814006F8FF5E723F0200242F00801D20920D17E
:104824004173A36813B1204601F055FD04F118004B
:1048340001F0EBFD4FF0000804F15807A56DBD42EF
:1048440000D0B5B90120FFF737FD104B9B68A34298
:10485400DBD1EFF30583002BD7D13046FCF7AAFA5E
:10486400D3E703F05F0343F00803437301F02BFD28
:10487400D7E7284601F02FFD05F1180001F0C5FD2A
:104884002846C5F87880FFF76FFDD7E7240A002093
:1048940008B50648064A0749121A01F0A7FCBDE804
:1048A4000840054A0549064801F0A0BC0000002064
:1048B40064020020646E000000000000646E0000CA
:1048C40000000020034B1B680BB9FEF7A5B80020BD
:1048D400704700BF500A002010B50E4B1C689C4264
:1048E40004D1FFF7EFFF6FF0004010BDFFF7EAFFC0
:1048F400002CF8D0D4E904321B1A62EBE072B3F155
:10490400004F72F10001EEDA002AACBF1846002015
:10491400EBE700BF9C01002030B570B10B4B5B6826
:1049240098420AD0036843B1D3E90421D0E904458D
:10493400121941EB0501C3E90421D0E900321360E7
:104944005A600023C0E9003330BD00BF9C01002041
:10495400B3F1FF3F08BFB2F1FF3FF8B504461D466F
:1049640016465CD081604FF02003EFF3118783F388
:104974001288BFF36F8F013275F1FF3324DA6FF0C1
:1049840001032C49D1E900209B1A4FF0FF3262EB5E
:1049940000009E1B60EB0500012E70F1000301DA9C
:1049A40001260020C4E90460234ED6F800C07568CF
:1049B400B44508BF4FF0000CBCF1000F0DD1C4E9A1
:1049C40000652C6074601CE0FFF77CFF013645F144
:1049D4000005361845EBE070E4E7DCE90420D4E98F
:1049E4000431934271EB000E1ADAD21ADCF8043067
:1049F40060EB0100CCE90420C4E900C31C60CCF8DE
:104A040004403368B34206D09C4204D1FFF764FFEC
:104A14000021FDF7CFFF87F31188BFF36F8FF8BD37
:104A24009B1A61EB0001AC45C4E90431C7D0DCF842
:104A340000C0C1E7A00300209C0100202DE9F84F2D
:104A44004FF02003EFF3118C83F31288BFF36F8FC1
:104A5400DFF8B0A0DFF8B0900024C9F80000DAF85D
:104A640000000025504508BF0020284FE046D7E944
:104A74000021D9F8003080B3D0E9046C4FEAE37E1A
:104A8400B3427EEB0C0B05DAF61A6CEB0E04C0E9AC
:104A9400046422E0B21841EBE671C0E90445C7E9B9
:104AA4000021FFF739FF88F31188BFF36F8F836804
:104AB40098474FF02003EFF3118883F31288BFF374
:104AC4006F8FD9F80030DAF800009B1B5045C446BC
:104AD400C9F80030CAD1D7E9002100249A1841EB63
:104AE400E373C7E90023C9F80040FFF7F5FE214648
:104AF400FDF760FF88F31188BFF36F8FBDE8F84FAF
:104B0400FFF796BC9C010020500A0020A00300205F
:104B140010B54FF02003EFF3118483F31288BFF331
:104B24006F8FFFF7CFFE0346054AD2E9000118183C
:104B340041EBE37184F31188BFF36F8F10BD00BFA5
:104B4400A0030020014800F0F5BB00BF2C6E00005C
:104B540010B50A4C23681BB101232360002010BD4B
:104B640000F0F4F80028F7D00138072803D8044BE4
:104B740053F8200010BD034810BD00BF540A0020A4
:104B8400EC6A0000FE8FFFFFBFF34F8F0549064B11
:104B9400CA6802F4E0621343CB60BFF34F8F00BFD7
:104BA400FDE700BF00ED00E00400FA0530B44FF06B
:104BB400FE3200250B4B0C4C0C494968C3F8002409
:104BC400C3F80424C3F80824C3F80C24C3F810243D
:104BD400C3F81424C3F81824C3F81C24C4F80055DB
:104BE40030BC08470050845000408450A401002089
:104BF400024BD0E90012C3E900127047A40100205F
:104C040010B5044650B1636813F0685F05D0064AD6
:104C1400934202D000236260236010BD034B04481A
:104C24005B689847EFE700BF2C5F5CA9A4010020F4
:104C34000C6B0000C8B143680D4A934213D013F0C3
:104C4400685F0ED0012350E8002F194640E8001C8D
:104C54009CF0000FF7D1012AF5D0BFF35F8F00203D
:104C6400704704487047044870476FF4E040704749
:104C74002C5F5CA9E98FFFFFEA8FFFFF034680B139
:104C8400426809498A420AD012F0685F05D0BFF32E
:104C94005F8F002210461A6070470448704704482A
:104CA40070476FF4E04070472C5F5CA9E98FFFFF09
:104CB400EA8FFFFF10B5044620B10023034A2360A6
:104CC400626010BD0248FFF771FFF6E73A00003A50
:104CD400346B000070B5194CD0F804C00668C4F8F1
:104CE40004C0D0F808C0C068C4F808C0E0602660FA
:104CF4000868134B134D18604868D5F8182158609C
:104D0400886812F0685F9860C8680969D86019619A
:104D140012D000230C4A05F58A70C5F81431C5F881
:104D2400B831C5F81821C5F8BC21B047236805F58A
:104D3400DC70BDE87040184770BD00BFC0010020A2
:104D4400AC0100206C0A00202C5F5CA908B500F0BF
:104D540011F830B900F010F838B9054AC2F80C0A55
:104D640008BD00F037F8032008BD042008BD00BFCB
:104D7400005084500020704710B5114800F048F8E6
:104D840000B110BD0F4800F043F80028F9D10E4CD3
:104D9400204600F03DF80028F3D10C4B0C481C6071
:104DA40000F036F801460028EBD100F02DF8044657
:104DB40008B1204610BD00F03FF82046FAE700BFD6
:104DC40000020020FC010020F8010020F001002076
:104DD400F401002008B5084800F024F8074800F062
:104DE40021F8074800F01EF8064800F01BF8BDE85B
:104DF400084000F00BB800BF00020020FC010020B6
:104E0400F8010020F401002000207047704700BF23
:104E140008B5034B02681B6810689847002008BD5A
:104E2400C001002008B5034B02685B68106898470E
:104E3400002008BDC001002070B5094C094D20694F
:104E4400AB68984718B1084B08485B68984700213D
:104E5400074AEB6811602069BDE87040184700BF3D
:104E6400AC010020C0010020A4010020586B000008
:104E7400680A00200FB407B504AA064B52F8041BB5
:104E84001868019200F008F803B05DF804EB04B070
:104E9400704700BFE06800002DE9F04F43688BB015
:104EA40082461446019383789F0740F109810025C7
:104EB40091F80080B8F1000F00F00481B8F1250FDB
:104EC4000BD04B1C0293013551464046019B984739
:104ED4000028C0F2F5800299EAE791F801808B1C62
:104EE400B8F1250F0293EED0002399461F461F2FD9
:104EF40039D8A8F12002102A0AD8DFE802F02B09D9
:104F040009310909092109090929092E09091F007B
:104F1400A8F13002092A32D9B8F12A0F35D178061E
:104F240054F8042B00F18180002AA7BF47F0200722
:104F34009146C2F1000947F0280701E047F0010754
:104F4400029A12F8018B0292B8F1000FCFD132E02D
:104F540047F0020747F00407F2E747F00807EFE7D6
:104F640047F01007ECE77F2F18D8A8F13002092A80
:104F7400D2D87E0603D50A2101FB0323E0E70A21E8
:104F840047F0200701FB0929DAE7B8F12E0F05D114
:104F9400790600F1978047F04007D1E7B8F16C0F2C
:104FA40032D02AD8B8F1680F35D0B8F16A0F39D0A9
:104FB400B8F14C0F36D0002B48F02002B8BF27F0D0
:104FC4004007A2F16501BCBF0023BFB2022901D989
:104FD400612A2CD107344FF007089A4E24F00704B5
:104FE4000834380763D506EB080B37465F4560D1B4
:104FF400AE1BA9EB0809374454E1B8F1740F9FD0F4
:10500400B8F17A0F9CD0D6E73A0648BF47F4007748
:1050140047F0800794E7FE0548BF47F4007747F45C
:1050240080778DE747F420778AE7134688E7A8F16D
:105034006301122900F2CF80DFE811F01300480069
:10504400CD00CD00CD00CD004800CD00CD00CD0079
:10505400CD00CD00DF00C700CD00CD001B00CD008A
:10506400960054F8043B4FF0010807AE8DF81C304D
:10507400B7E754F8046B744A002E08BF164617F0BD
:10508400400F304614BF19464FF0FF3101F0EDF9DF
:105094008046A6E751462020019B984700280FDB55
:1050A400013FB845F6D34D44B946ED1B9BE74F4647
:1050B400F7E7514617F8010B019B9847002895DA4A
:1050C4004FF0FF3528460BB0BDE8F08F390637D5D1
:1050D400BA0549BF073454F8040B24F0070454F804
:1050E400080B27F010060028B6B232DA404246F424
:1050F400806607AF0A220393394601F0C2F97206AB
:10510400A0EB0707039B4BD526F00101BB4289B2F4
:1051140040F38A80B8F1000F00F0828016F010028C
:10512400039240F083809B460E4640F2064116EA05
:10513400010203921EBF00220BF1010B039238E01F
:10514400FE0554F8040BCCD5B9054CBF40B200B2EF
:10515400C7E7CED17A06CCD5002BCAD127F01107E8
:10516400BEB21F469B46E0E727F010070A22BFB2F3
:105174003E0646D5B80549BF073454F8040B24F05D
:10518400070454F8080B002844D127F016067906C2
:10519400B6B242D5002B40D127F01707BEB21F4646
:1051A40016F0100203924AD0B8F1000F45D107F16E
:1051B400010B31075CD4F20705D5D94575DDA9EBA0
:1051C4000B02CB46D3195A464CE047F01007102285
:1051D4004FF07808CCE7782A06D1B8F1580F14BFFD
:1051E40010224FF40472C3E751462520019B9847CF
:1051F4000028FFF665AF023566E608224FF0000886
:10520400B6E7F90554F8040BBDD5BE054CBFC0B2D2
:1052140080B2B8E727F00607BEB207AF03936BE787
:1052240026F01106B6B29DE70E46B9E738460E469B
:105234001F4607F1020B0746BBE73846F9E7BB46B2
:1052440073E700BF5B6E0000546E0000CDE90432CA
:1052540051462020019B98470028FFF631AF059A5C
:10526400049B01329145F1DCA5EB0B0193468D18AB
:10527400039A32B3039351463020019B9847002888
:10528400FFF61EAF039BB8F1000F10D101355E1974
:10529400711B8F4227DB3E460DF11C085EBB2F4479
:1052A400A9EB0B093D46B94436E03B468BE7023592
:1052B400514640460393019B98470028039BE6DA36
:1052C400FEE640F206410E42E1D016F0020F05F16F
:1052D40001055146039314BF2B20202016F4806F40
:1052E40018BF2D20E7E751463020019B0135984730
:1052F4000028CDDAE4E6013E5146019B18F8060089
:1053040098470028CADADBE651462020019B013584
:1053140098470028FFF6D4AEA9EB0503002BF3DC75
:10532400D9E500BF10B484682468A44610BC604763
:10533400002070470FB407B504A951F8040B01917C
:10534400FBF7A0F903B05DF804EB04B07047836881
:1053540000EBC101B3F5004F2CBF51F8220031F826
:105364001200704700EBC1018068B0F5004F2CBFFC
:1053740041F8223021F812307047012208B5FFF7B6
:10538400E6FFD04008BD836800EBC101B3F5004FD0
:1053940008D34B681AB143F001034B60704723F004
:1053A4000103FAE74B881AB143F001034B807047BD
:1053B40023F00103FAE753000122FFF7D3BFB0F54E
:1053C400004F34BF04230823481C0833A0EBD30048
:1053D400B0FA80F0C0F11F0070472DE9F0410D468E
:1053E40086680446FFF7C9FFB6F5004F014601D3AE
:1053F400012832D03046FFF7E2FF04EB80010E694A
:1054040096B90122E36882401343E36002220D61EE
:105414002B4629462046FFF7A5FF032229462046AE
:10542400BDE8F041FFF79EBF022231462046FFF758
:105434008EFF0746034629462046FFF793FF0322C3
:10544400334629462046FFF78DFF39462B46204632
:10545400FFF788FF02223146E1E7BDE8F081B2F5AB
:10546400802F2CBF082304232DE9F0410026D21AF3
:105474008C18CD1D25F0070524F00704641BE408EF
:10548400056021462046AC60EE60FFF798FF421DA0
:105494009200013002F107074FEAD7073146A2F123
:1054A400100205F11000B8BF324600F0D6FF3A46AC
:1054B40031462846FFF77FFF3346324631462846B9
:1054C400FFF750FFA4EB0708284631460122FFF7F7
:1054D4005AFF42463946FFF76EFF3B46324639468D
:1054E4002846FFF73FFF21462846FFF764FF43465F
:1054F400324621462846FFF735FF21462846012239
:10550400FFF741FF3946BDE8F041FFF766BF038B63
:1055140013F0070305D10368002B0CBF0020032000
:105524007047022B05D1408BB0FA80F0400980000F
:105534007047012B05D10368002B0CBF0020052008
:1055440070470020704710B50C4600B111B96FF0D8
:10555400150010BD081D00F095F80028F9D1A368C6
:10556400032BF6D9F3E72DE9F0410D46074619461A
:10557400281D90461E4600F096F8044638B133467E
:10558400424629463846A446BDE8F0416047BDE896
:10559400F08110B44FF02004EFF3118284F31288E9
:1055A400BFF36F8F416110BC0121FBF79DB838B583
:1055B4000C46054658B151B10B6843B14B6833B141
:1055C4001C22002100F049FF00202C6138BD6FF03F
:1055D4001500FBE770B505460E46FFF7B4FF041E41
:1055E40015DB4FF02003EFF3118283F31288BFF32E
:1055F4006F8F4FF6FF716B8B2C8B8B4204F007047B
:1056040007D182F31188BFF36F8F6FF00A0420462D
:1056140070BD022C0CD101336B8382F31188BFF36C
:105624006F8F0023224631462846FFF79CFFEEE7A2
:10563400062C14D8DFE804F004131313041A04002E
:10564400002333606B683BB9C5E90066ACB902213D
:105654002846FBF749F8DAE71E606E60F6E782F346
:105664001188BFF36F8F6FF00404D0E782F31188C1
:10567400BFF36F8F6FF08504C9E782F31188BFF31E
:105684006F8FC4E7034658B1426802F00302012A4F
:1056940003D0032A04D1026812B100209860704735
:1056A4006FF0150070474268034602F00302032AB4
:1056B4004FF00002816014BF104600685A607047C2
:1056C4007047002008B5FBF71DF9FEF793BA0146B1
:1056D4000068FEF78FBA00210120FFF7F6BF08B576
:1056E400FBF748FBBDE80840FBF73ABC036E83F3C5
:1056F4000B88704740E800F313F4803FD8B208BF2A
:105704006FF0150070477FB50A894E890B684D68A4
:1057140002F01F0242EA461200938DF8082023F09B
:105724001F036A1E134423F01F030728039304D89E
:105734006946FBF723FE04B070BD6FF01500FAE76D
:1057440008B5FBF77DFF002008BD0C220369C9B230
:1057540001FB0233986F00F0070070474FF02003FD
:10576400EFF3118283F31288BFF36F8F036803F0A2
:10577400C00343F00203036082F31188BFF36F8F09
:10578400704770B5C9B203694FF02004EFF3118577
:1057940084F31288BFF36F8F0C2606FB0134A46FC9
:1057A40014F0C00408D0A24206D085F31188BFF3D8
:1057B4006F8F4FF0FF3070BD012206FB01339A67F3
:1057C40085F31188BFF36F8F436803EBC1035B68F4
:1057D40098470020EFE78022FFF7D3BFF8B5069F74
:1057E4000469C9B24FF02005EFF3118685F31288DE
:1057F400BFF36F8F0C2505FB0144A56F05F0070C63
:10580400BCF1010F0CD1A76786F31188BFF36F8F2A
:10581400C4E91C23436853F8313098470020F8BD8D
:1058240005F0C005AF4286F31188BFF36F8F0CBF3C
:105834006FF077004FF0FF30F1E713B58024009448
:10584400FFF7CCFF02B010BD10B41C240069CBB22A
:1058540003FB0400002110BC1047032000F046BBEA
:10586400022000F043BB002000F040BB032000F006
:105874009CBB022000F099BB002000F096BB1046B0
:10588400FEF75ABC436800205B681B690B607047D5
:10589400436802EA01005B6821EA02019860002083
:1058A400D9607047436800205B689960704743681B
:1058B40000205B68D960704743685A68536821EADE
:1058C40003000B4090600020D360704710B503695B
:1058D4005868F8B1884219D19C680868A142586098
:1058E40000D19860002008602AB15A680A609A685A
:1058F400596002B99960002010E0814206D108681D
:10590400206098688142EDD19C60EBE70446006812
:105914000028F2D1002AE8D16FF0150010BD30B58F
:1059240043681360057A446804EBC504A34202D3B8
:105934006FF0010030BD5C798C4201D00833F0E790
:105944000020F7E7F8B544682068D8B100F041FCBE
:10595400C8B120682179E38801250669DA0734682B
:1059640054BF43F4B01383F4D01323F480128D4056
:10597400DB0787684CBF2C43AC4334603B689847D3
:1059840000EAE070F8BD6FF01200FBE70B46026915
:10599400D2E9010183E803000020704743681B68D3
:1059A400D3F88004C3F880047047436802691B6815
:1059B400D3F8100150B10020526912780A70C3F86C
:1059C4001001D3F8102101221A6070474FF0FF3004
:1059D400704702680346D2F8580140B95B689B07D8
:1059E40006D4D2F82001003818BF012070470120E6
:1059F400704742681368D3F80413C90518D5D3F85F
:105A04002011A9B14FF02000EFF3118180F3128827
:105A1400BFF36F8FD3F8200130B10020C3F8200109
:105A2400D3F820010120D86081F31188BFF36F8F70
:105A34005268D20615D54FF02001EFF3118281F39D
:105A44001288BFF36F8FD3F8581111B10021C3F836
:105A540000154FF48001C3F8081382F31188BFF3D3
:105A64006F8F7047002201210B20FBF76DB90022D4
:105A740001210A20FBF768B910B50B6813B9184661
:105A8400136005E003685C681CB11460036818685F
:105A940010BD083303600B68013B0B60EDE7034660
:105AA4000A4619790123006803FA01F103691B68A6
:105AB400194218BF82F0010212B18368DB681847EB
:105AC40083681B69FBE710B5036804464BB19A6809
:105AD4003AB1186900F078FB206800210830FFF71C
